{
  "_format": "hh-sol-artifact-1",
  "contractName": "EarlyBirdsNFT",
  "sourceName": "contracts/EarlyBirdsNFT.sol",
  "abi": [
    {
      "inputs": [
        {
          "internalType": "address",
          "name": "_dirtContract",
          "type": "address"
        },
        {
          "internalType": "address",
          "name": "_earlyBirdsGame",
          "type": "address"
        },
        {
          "internalType": "address",
          "name": "_random",
          "type": "address"
        },
        {
          "internalType": "address",
          "name": "_testERC20",
          "type": "address"
        },
        {
          "internalType": "address",
          "name": "_ancientTree",
          "type": "address"
        }
      ],
      "stateMutability": "nonpayable",
      "type": "constructor"
    },
    {
      "anonymous": false,
      "inputs": [
        {
          "indexed": true,
          "internalType": "address",
          "name": "owner",
          "type": "address"
        },
        {
          "indexed": true,
          "internalType": "address",
          "name": "approved",
          "type": "address"
        },
        {
          "indexed": true,
          "internalType": "uint256",
          "name": "tokenId",
          "type": "uint256"
        }
      ],
      "name": "Approval",
      "type": "event"
    },
    {
      "anonymous": false,
      "inputs": [
        {
          "indexed": true,
          "internalType": "address",
          "name": "owner",
          "type": "address"
        },
        {
          "indexed": true,
          "internalType": "address",
          "name": "operator",
          "type": "address"
        },
        {
          "indexed": false,
          "internalType": "bool",
          "name": "approved",
          "type": "bool"
        }
      ],
      "name": "ApprovalForAll",
      "type": "event"
    },
    {
      "anonymous": false,
      "inputs": [
        {
          "indexed": true,
          "internalType": "uint256",
          "name": "tokenId",
          "type": "uint256"
        }
      ],
      "name": "BirdBurned",
      "type": "event"
    },
    {
      "anonymous": false,
      "inputs": [
        {
          "indexed": true,
          "internalType": "uint256",
          "name": "tokenId",
          "type": "uint256"
        }
      ],
      "name": "BirdMinted",
      "type": "event"
    },
    {
      "anonymous": false,
      "inputs": [
        {
          "indexed": true,
          "internalType": "uint256",
          "name": "tokenId",
          "type": "uint256"
        },
        {
          "indexed": false,
          "internalType": "address",
          "name": "recipient",
          "type": "address"
        }
      ],
      "name": "BirdStolen",
      "type": "event"
    },
    {
      "anonymous": false,
      "inputs": [
        {
          "indexed": true,
          "internalType": "address",
          "name": "previousOwner",
          "type": "address"
        },
        {
          "indexed": true,
          "internalType": "address",
          "name": "newOwner",
          "type": "address"
        }
      ],
      "name": "OwnershipTransferred",
      "type": "event"
    },
    {
      "anonymous": false,
      "inputs": [
        {
          "indexed": false,
          "internalType": "address",
          "name": "account",
          "type": "address"
        }
      ],
      "name": "Paused",
      "type": "event"
    },
    {
      "anonymous": false,
      "inputs": [
        {
          "indexed": true,
          "internalType": "address",
          "name": "from",
          "type": "address"
        },
        {
          "indexed": true,
          "internalType": "address",
          "name": "to",
          "type": "address"
        },
        {
          "indexed": true,
          "internalType": "uint256",
          "name": "tokenId",
          "type": "uint256"
        }
      ],
      "name": "Transfer",
      "type": "event"
    },
    {
      "anonymous": false,
      "inputs": [
        {
          "indexed": false,
          "internalType": "address",
          "name": "account",
          "type": "address"
        }
      ],
      "name": "Unpaused",
      "type": "event"
    },
    {
      "anonymous": false,
      "inputs": [
        {
          "indexed": true,
          "internalType": "uint256",
          "name": "tokenId",
          "type": "uint256"
        }
      ],
      "name": "WormBurned",
      "type": "event"
    },
    {
      "anonymous": false,
      "inputs": [
        {
          "indexed": true,
          "internalType": "uint256",
          "name": "tokenId",
          "type": "uint256"
        }
      ],
      "name": "WormMinted",
      "type": "event"
    },
    {
      "anonymous": false,
      "inputs": [
        {
          "indexed": true,
          "internalType": "uint256",
          "name": "tokenId",
          "type": "uint256"
        },
        {
          "indexed": false,
          "internalType": "address",
          "name": "recipient",
          "type": "address"
        }
      ],
      "name": "WormStolen",
      "type": "event"
    },
    {
      "inputs": [],
      "name": "MINT_PRICE",
      "outputs": [
        {
          "internalType": "uint256",
          "name": "",
          "type": "uint256"
        }
      ],
      "stateMutability": "view",
      "type": "function"
    },
    {
      "inputs": [
        {
          "internalType": "address",
          "name": "addr",
          "type": "address"
        }
      ],
      "name": "addAdmin",
      "outputs": [],
      "stateMutability": "nonpayable",
      "type": "function"
    },
    {
      "inputs": [
        {
          "internalType": "uint256",
          "name": "",
          "type": "uint256"
        },
        {
          "internalType": "uint256",
          "name": "",
          "type": "uint256"
        }
      ],
      "name": "aliases",
      "outputs": [
        {
          "internalType": "uint8",
          "name": "",
          "type": "uint8"
        }
      ],
      "stateMutability": "view",
      "type": "function"
    },
    {
      "inputs": [
        {
          "internalType": "address",
          "name": "to",
          "type": "address"
        },
        {
          "internalType": "uint256",
          "name": "tokenId",
          "type": "uint256"
        }
      ],
      "name": "approve",
      "outputs": [],
      "stateMutability": "nonpayable",
      "type": "function"
    },
    {
      "inputs": [
        {
          "internalType": "address",
          "name": "owner",
          "type": "address"
        }
      ],
      "name": "balanceOf",
      "outputs": [
        {
          "internalType": "uint256",
          "name": "",
          "type": "uint256"
        }
      ],
      "stateMutability": "view",
      "type": "function"
    },
    {
      "inputs": [
        {
          "internalType": "uint256",
          "name": "tokenId",
          "type": "uint256"
        }
      ],
      "name": "burn",
      "outputs": [],
      "stateMutability": "nonpayable",
      "type": "function"
    },
    {
      "inputs": [
        {
          "internalType": "uint256",
          "name": "tokenId",
          "type": "uint256"
        }
      ],
      "name": "getApproved",
      "outputs": [
        {
          "internalType": "address",
          "name": "",
          "type": "address"
        }
      ],
      "stateMutability": "view",
      "type": "function"
    },
    {
      "inputs": [],
      "name": "getGen0Supply",
      "outputs": [
        {
          "internalType": "uint256",
          "name": "",
          "type": "uint256"
        }
      ],
      "stateMutability": "pure",
      "type": "function"
    },
    {
      "inputs": [],
      "name": "getMaxMint",
      "outputs": [
        {
          "internalType": "uint256",
          "name": "",
          "type": "uint256"
        }
      ],
      "stateMutability": "view",
      "type": "function"
    },
    {
      "inputs": [],
      "name": "getMaxTokens",
      "outputs": [
        {
          "internalType": "uint256",
          "name": "",
          "type": "uint256"
        }
      ],
      "stateMutability": "pure",
      "type": "function"
    },
    {
      "inputs": [
        {
          "internalType": "uint16",
          "name": "tokenId",
          "type": "uint16"
        }
      ],
      "name": "getMintDirtCost",
      "outputs": [
        {
          "internalType": "uint256",
          "name": "",
          "type": "uint256"
        }
      ],
      "stateMutability": "view",
      "type": "function"
    },
    {
      "inputs": [],
      "name": "getNumMinted",
      "outputs": [
        {
          "internalType": "uint16",
          "name": "",
          "type": "uint16"
        }
      ],
      "stateMutability": "view",
      "type": "function"
    },
    {
      "inputs": [],
      "name": "getRandomSeed",
      "outputs": [
        {
          "internalType": "uint256",
          "name": "",
          "type": "uint256"
        }
      ],
      "stateMutability": "nonpayable",
      "type": "function"
    },
    {
      "inputs": [
        {
          "internalType": "uint256",
          "name": "tokenId",
          "type": "uint256"
        }
      ],
      "name": "getTokenWriteBlock",
      "outputs": [
        {
          "internalType": "uint64",
          "name": "",
          "type": "uint64"
        }
      ],
      "stateMutability": "view",
      "type": "function"
    },
    {
      "inputs": [
        {
          "internalType": "uint16",
          "name": "tokenId",
          "type": "uint16"
        }
      ],
      "name": "getTraits",
      "outputs": [
        {
          "components": [
            {
              "internalType": "bool",
              "name": "isWorm",
              "type": "bool"
            },
            {
              "internalType": "uint8",
              "name": "body",
              "type": "uint8"
            },
            {
              "internalType": "uint8",
              "name": "eyes",
              "type": "uint8"
            },
            {
              "internalType": "uint8",
              "name": "mouth",
              "type": "uint8"
            },
            {
              "internalType": "uint8",
              "name": "hat",
              "type": "uint8"
            },
            {
              "internalType": "uint8",
              "name": "facialAccessory",
              "type": "uint8"
            },
            {
              "internalType": "uint8",
              "name": "tail",
              "type": "uint8"
            },
            {
              "internalType": "uint8",
              "name": "heldItem",
              "type": "uint8"
            },
            {
              "internalType": "uint8",
              "name": "size",
              "type": "uint8"
            }
          ],
          "internalType": "struct IEarlyBirdsNFT.WormBirdTraits",
          "name": "",
          "type": "tuple"
        }
      ],
      "stateMutability": "view",
      "type": "function"
    },
    {
      "inputs": [
        {
          "internalType": "address",
          "name": "owner",
          "type": "address"
        },
        {
          "internalType": "address",
          "name": "operator",
          "type": "address"
        }
      ],
      "name": "isApprovedForAll",
      "outputs": [
        {
          "internalType": "bool",
          "name": "",
          "type": "bool"
        }
      ],
      "stateMutability": "view",
      "type": "function"
    },
    {
      "inputs": [
        {
          "internalType": "uint256",
          "name": "tokenId",
          "type": "uint256"
        }
      ],
      "name": "isWorm",
      "outputs": [
        {
          "internalType": "bool",
          "name": "",
          "type": "bool"
        }
      ],
      "stateMutability": "view",
      "type": "function"
    },
    {
      "inputs": [],
      "name": "maxGen0",
      "outputs": [
        {
          "internalType": "uint256",
          "name": "",
          "type": "uint256"
        }
      ],
      "stateMutability": "view",
      "type": "function"
    },
    {
      "inputs": [],
      "name": "maxTokens",
      "outputs": [
        {
          "internalType": "uint256",
          "name": "",
          "type": "uint256"
        }
      ],
      "stateMutability": "view",
      "type": "function"
    },
    {
      "inputs": [
        {
          "internalType": "address",
          "name": "recipient",
          "type": "address"
        },
        {
          "internalType": "uint256",
          "name": "seed",
          "type": "uint256"
        }
      ],
      "name": "mint",
      "outputs": [],
      "stateMutability": "nonpayable",
      "type": "function"
    },
    {
      "inputs": [],
      "name": "name",
      "outputs": [
        {
          "internalType": "string",
          "name": "",
          "type": "string"
        }
      ],
      "stateMutability": "view",
      "type": "function"
    },
    {
      "inputs": [
        {
          "internalType": "address",
          "name": "",
          "type": "address"
        }
      ],
      "name": "numGen0Minted",
      "outputs": [
        {
          "internalType": "uint32",
          "name": "",
          "type": "uint32"
        }
      ],
      "stateMutability": "view",
      "type": "function"
    },
    {
      "inputs": [],
      "name": "numMinted",
      "outputs": [
        {
          "internalType": "uint16",
          "name": "",
          "type": "uint16"
        }
      ],
      "stateMutability": "view",
      "type": "function"
    },
    {
      "inputs": [],
      "name": "owner",
      "outputs": [
        {
          "internalType": "address",
          "name": "",
          "type": "address"
        }
      ],
      "stateMutability": "view",
      "type": "function"
    },
    {
      "inputs": [
        {
          "internalType": "uint256",
          "name": "tokenId",
          "type": "uint256"
        }
      ],
      "name": "ownerOf",
      "outputs": [
        {
          "internalType": "address",
          "name": "",
          "type": "address"
        }
      ],
      "stateMutability": "view",
      "type": "function"
    },
    {
      "inputs": [],
      "name": "paused",
      "outputs": [
        {
          "internalType": "bool",
          "name": "",
          "type": "bool"
        }
      ],
      "stateMutability": "view",
      "type": "function"
    },
    {
      "inputs": [
        {
          "internalType": "uint256",
          "name": "",
          "type": "uint256"
        },
        {
          "internalType": "uint256",
          "name": "",
          "type": "uint256"
        }
      ],
      "name": "rarities",
      "outputs": [
        {
          "internalType": "uint8",
          "name": "",
          "type": "uint8"
        }
      ],
      "stateMutability": "view",
      "type": "function"
    },
    {
      "inputs": [
        {
          "internalType": "address",
          "name": "addr",
          "type": "address"
        }
      ],
      "name": "removeAdmin",
      "outputs": [],
      "stateMutability": "nonpayable",
      "type": "function"
    },
    {
      "inputs": [],
      "name": "renounceOwnership",
      "outputs": [],
      "stateMutability": "nonpayable",
      "type": "function"
    },
    {
      "inputs": [
        {
          "internalType": "address",
          "name": "from",
          "type": "address"
        },
        {
          "internalType": "address",
          "name": "to",
          "type": "address"
        },
        {
          "internalType": "uint256",
          "name": "tokenId",
          "type": "uint256"
        }
      ],
      "name": "safeTransferFrom",
      "outputs": [],
      "stateMutability": "nonpayable",
      "type": "function"
    },
    {
      "inputs": [
        {
          "internalType": "address",
          "name": "from",
          "type": "address"
        },
        {
          "internalType": "address",
          "name": "to",
          "type": "address"
        },
        {
          "internalType": "uint256",
          "name": "tokenId",
          "type": "uint256"
        },
        {
          "internalType": "bytes",
          "name": "_data",
          "type": "bytes"
        }
      ],
      "name": "safeTransferFrom",
      "outputs": [],
      "stateMutability": "nonpayable",
      "type": "function"
    },
    {
      "inputs": [
        {
          "internalType": "address",
          "name": "operator",
          "type": "address"
        },
        {
          "internalType": "bool",
          "name": "approved",
          "type": "bool"
        }
      ],
      "name": "setApprovalForAll",
      "outputs": [],
      "stateMutability": "nonpayable",
      "type": "function"
    },
    {
      "inputs": [],
      "name": "setInitialRandomSeed",
      "outputs": [],
      "stateMutability": "nonpayable",
      "type": "function"
    },
    {
      "inputs": [
        {
          "internalType": "uint16",
          "name": "_maxMint",
          "type": "uint16"
        }
      ],
      "name": "setMaxMintAmount",
      "outputs": [],
      "stateMutability": "nonpayable",
      "type": "function"
    },
    {
      "inputs": [
        {
          "internalType": "bytes4",
          "name": "interfaceId",
          "type": "bytes4"
        }
      ],
      "name": "supportsInterface",
      "outputs": [
        {
          "internalType": "bool",
          "name": "",
          "type": "bool"
        }
      ],
      "stateMutability": "view",
      "type": "function"
    },
    {
      "inputs": [],
      "name": "symbol",
      "outputs": [
        {
          "internalType": "string",
          "name": "",
          "type": "string"
        }
      ],
      "stateMutability": "view",
      "type": "function"
    },
    {
      "inputs": [
        {
          "internalType": "uint256",
          "name": "index",
          "type": "uint256"
        }
      ],
      "name": "tokenByIndex",
      "outputs": [
        {
          "internalType": "uint256",
          "name": "",
          "type": "uint256"
        }
      ],
      "stateMutability": "view",
      "type": "function"
    },
    {
      "inputs": [
        {
          "internalType": "address",
          "name": "owner",
          "type": "address"
        },
        {
          "internalType": "uint256",
          "name": "index",
          "type": "uint256"
        }
      ],
      "name": "tokenOfOwnerByIndex",
      "outputs": [
        {
          "internalType": "uint256",
          "name": "",
          "type": "uint256"
        }
      ],
      "stateMutability": "view",
      "type": "function"
    },
    {
      "inputs": [
        {
          "internalType": "uint256",
          "name": "tokenId",
          "type": "uint256"
        }
      ],
      "name": "tokenURI",
      "outputs": [
        {
          "internalType": "string",
          "name": "",
          "type": "string"
        }
      ],
      "stateMutability": "view",
      "type": "function"
    },
    {
      "inputs": [
        {
          "internalType": "address",
          "name": "owner",
          "type": "address"
        }
      ],
      "name": "tokensOf",
      "outputs": [
        {
          "internalType": "uint16[]",
          "name": "",
          "type": "uint16[]"
        }
      ],
      "stateMutability": "view",
      "type": "function"
    },
    {
      "inputs": [],
      "name": "totalSupply",
      "outputs": [
        {
          "internalType": "uint256",
          "name": "",
          "type": "uint256"
        }
      ],
      "stateMutability": "view",
      "type": "function"
    },
    {
      "inputs": [
        {
          "internalType": "address",
          "name": "from",
          "type": "address"
        },
        {
          "internalType": "address",
          "name": "to",
          "type": "address"
        },
        {
          "internalType": "uint256",
          "name": "tokenId",
          "type": "uint256"
        }
      ],
      "name": "transferFrom",
      "outputs": [],
      "stateMutability": "nonpayable",
      "type": "function"
    },
    {
      "inputs": [
        {
          "internalType": "address",
          "name": "newOwner",
          "type": "address"
        }
      ],
      "name": "transferOwnership",
      "outputs": [],
      "stateMutability": "nonpayable",
      "type": "function"
    },
    {
      "inputs": [
        {
          "internalType": "uint16[]",
          "name": "tokenIds",
          "type": "uint16[]"
        }
      ],
      "name": "updateOriginAccess",
      "outputs": [],
      "stateMutability": "nonpayable",
      "type": "function"
    }
  ],
  "bytecode": "0x610120604052600a8060176101000a81548161ffff021916908361ffff1602179055503480156200002f57600080fd5b5060405162007dd738038062007dd7833981810160405281019062000055919062002090565b6040518060400160405280600b81526020017f4561726c792042697264730000000000000000000000000000000000000000008152506040518060400160405280600281526020017f45420000000000000000000000000000000000000000000000000000000000008152508160009080519060200190620000d99291906200184f565b508060019080519060200190620000f29291906200184f565b50505062000115620001096200178160201b60201c565b6200178960201b60201c565b6000600a60146101000a81548160ff0219169083151502179055508373ffffffffffffffffffffffffffffffffffffffff1660808173ffffffffffffffffffffffffffffffffffffffff1660601b815250508473ffffffffffffffffffffffffffffffffffffffff1660a08173ffffffffffffffffffffffffffffffffffffffff1660601b815250508273ffffffffffffffffffffffffffffffffffffffff1660c08173ffffffffffffffffffffffffffffffffffffffff1660601b815250508173ffffffffffffffffffffffffffffffffffffffff1660e08173ffffffffffffffffffffffffffffffffffffffff1660601b815250508073ffffffffffffffffffffffffffffffffffffffff166101008173ffffffffffffffffffffffffffffffffffffffff1660601b815250506040518060a0016040528060ff8016815260200160ff8016815260200160ff80168152602001603360ff168152602001600d60ff168152506010600060128110620002b8577f4e487b7100000000000000000000000000000000000000000000000000000000600052603260045260246000fd5b01906005620002c9929190620018e0565b506040518060a00160405280600060ff168152602001600160ff168152602001600260ff168152602001600160ff168152602001600060ff16815250602260006012811062000341577f4e487b7100000000000000000000000000000000000000000000000000000000600052603260045260246000fd5b0190600562000352929190620018e0565b5060405180610180016040528060ff8016815260200160ff8016815260200160ff8016815260200160ff8016815260200160ff8016815260200160ff8016815260200160ff8016815260200160ff8016815260200160be60ff168152602001608c60ff168152602001603f60ff168152602001602d60ff16815250601060016012811062000409577f4e487b7100000000000000000000000000000000000000000000000000000000600052603260045260246000fd5b0190600c6200041a9291906200198e565b50604051806101800160405280600060ff168152602001600160ff168152602001600260ff168152602001600360ff168152602001600460ff168152602001600560ff168152602001600660ff168152602001600760ff168152602001600260ff168152602001600360ff168152602001600060ff168152602001600160ff168152506022600160128110620004d9577f4e487b7100000000000000000000000000000000000000000000000000000000600052603260045260246000fd5b0190600c620004ea9291906200198e565b50604051806101400160405280604060ff168152602001604060ff168152602001608060ff168152602001608060ff168152602001608060ff168152602001608060ff16815260200160bf60ff16815260200160bf60ff16815260200160ff8016815260200160ff8016815250601060026012811062000593577f4e487b7100000000000000000000000000000000000000000000000000000000600052603260045260246000fd5b0190600a620005a492919062001a3c565b50604051806101400160405280600660ff168152602001600760ff168152602001600460ff168152602001600560ff168152602001600960ff168152602001600960ff168152602001600860ff168152602001600860ff168152602001600860ff168152602001600960ff1681525060226002601281106200064f577f4e487b7100000000000000000000000000000000000000000000000000000000600052603260045260246000fd5b0190600a6200066092919062001a3c565b5060405180610140016040528060ff8016815260200160ff8016815260200160ff8016815260200160ff8016815260200160ff8016815260200160ff80168152602001605f60ff168152602001605560ff168152602001601d60ff168152602001601060ff16815250601060036012811062000705577f4e487b7100000000000000000000000000000000000000000000000000000000600052603260045260246000fd5b0190600a6200071692919062001a3c565b50604051806101600160405280600060ff168152602001600160ff168152602001600260ff168152602001600360ff168152602001600460ff168152602001600560ff168152602001600660ff168152602001600360ff168152602001600260ff168152602001600160ff168152602001600060ff168152506022600360128110620007cb577f4e487b7100000000000000000000000000000000000000000000000000000000600052603260045260246000fd5b0190600b620007dc92919062001aea565b5060405180610180016040528060ff8016815260200160ff8016815260200160ff8016815260200160ff8016815260200160ff8016815260200160ff8016815260200160ff8016815260200160ff8016815260200160be60ff168152602001608c60ff168152602001603f60ff168152602001602d60ff16815250601060046012811062000893577f4e487b7100000000000000000000000000000000000000000000000000000000600052603260045260246000fd5b0190600c620008a49291906200198e565b50604051806101800160405280600060ff168152602001600160ff168152602001600260ff168152602001600360ff168152602001600460ff168152602001600560ff168152602001600660ff168152602001600760ff168152602001600260ff168152602001600360ff168152602001600060ff168152602001600160ff16815250602260046012811062000963577f4e487b7100000000000000000000000000000000000000000000000000000000600052603260045260246000fd5b0190600c620009749291906200198e565b5060405180610180016040528060ff8016815260200160ff8016815260200160ff8016815260200160ff8016815260200160ff8016815260200160ff8016815260200160ff80168152602001608160ff168152602001606560ff168152602001602b60ff168152602001602060ff168152602001601060ff16815250601060056012811062000a2c577f4e487b7100000000000000000000000000000000000000000000000000000000600052603260045260246000fd5b0190600c62000a3d9291906200198e565b50604051806101800160405280600060ff168152602001600160ff168152602001600260ff168152602001600360ff168152602001600460ff168152602001600560ff168152602001600660ff168152602001600460ff168152602001600360ff168152602001600260ff168152602001600160ff168152602001600060ff16815250602260056012811062000afc577f4e487b7100000000000000000000000000000000000000000000000000000000600052603260045260246000fd5b0190600c62000b0d9291906200198e565b50604051806101c0016040528060ff8016815260200160e760ff16815260200160d760ff16815260200160dc60ff16815260200160ff8016815260200160ff8016815260200160ff8016815260200160ff8016815260200160ff8016815260200160af60ff16815260200160a760ff168152602001608460ff168152602001606760ff168152602001604960ff16815250601060066012811062000bda577f4e487b7100000000000000000000000000000000000000000000000000000000600052603260045260246000fd5b0190600e62000beb92919062001b98565b50604051806101c00160405280600060ff168152602001600060ff168152602001600160ff168152602001600160ff168152602001600460ff168152602001600560ff168152602001600660ff168152602001600760ff168152602001600860ff168152602001600460ff168152602001600360ff168152602001600260ff168152602001600160ff168152602001600060ff16815250602260066012811062000cbe577f4e487b7100000000000000000000000000000000000000000000000000000000600052603260045260246000fd5b0190600e62000ccf92919062001b98565b50604051806060016040528060ff8016815260200160e960ff168152602001603160ff16815250601060076012811062000d32577f4e487b7100000000000000000000000000000000000000000000000000000000600052603260045260246000fd5b0190600362000d4392919062001c46565b506040518060600160405280600060ff168152602001600060ff168152602001600060ff16815250602260076012811062000da7577f4e487b7100000000000000000000000000000000000000000000000000000000600052603260045260246000fd5b0190600362000db892919062001c46565b506040518060e0016040528060ff8016815260200160ff8016815260200160ff8016815260200160ff80168152602001606c60ff168152602001604860ff168152602001602460ff16815250601060086012811062000e40577f4e487b7100000000000000000000000000000000000000000000000000000000600052603260045260246000fd5b0190600762000e5192919062001cf4565b506040518060e00160405280600060ff168152602001600160ff168152602001600260ff168152602001600360ff168152602001600260ff168152602001600160ff168152602001600060ff16815250602260086012811062000edd577f4e487b7100000000000000000000000000000000000000000000000000000000600052603260045260246000fd5b0190600762000eee92919062001cf4565b506040518060e0016040528060ff8016815260200160ff8016815260200160ff8016815260200160ff80168152602001607260ff168152602001604f60ff168152602001602060ff16815250601060096012811062000f76577f4e487b7100000000000000000000000000000000000000000000000000000000600052603260045260246000fd5b0190600762000f8792919062001cf4565b506040518060e00160405280600060ff168152602001600160ff168152602001600260ff168152602001600360ff168152602001600260ff168152602001600160ff168152602001600060ff16815250602260096012811062001013577f4e487b7100000000000000000000000000000000000000000000000000000000600052603260045260246000fd5b019060076200102492919062001cf4565b5060405180610100016040528060ff8016815260200160ff8016815260200160ff8016815260200160ff8016815260200160ee60ff16815260200160e160ff16815260200160b460ff168152602001609660ff168152506010600a60128110620010b7577f4e487b7100000000000000000000000000000000000000000000000000000000600052603260045260246000fd5b01906008620010c892919062001da2565b50604051806101000160405280600060ff168152602001600160ff168152602001600260ff168152602001600360ff168152602001600360ff168152602001600260ff168152602001600160ff168152602001600060ff168152506022600a601281106200115f577f4e487b7100000000000000000000000000000000000000000000000000000000600052603260045260246000fd5b019060086200117092919062001da2565b506040518060a0016040528060ff8016815260200160ff8016815260200160ff8016815260200160ff8016815260200160ff80168152506010600b60128110620011e3577f4e487b7100000000000000000000000000000000000000000000000000000000600052603260045260246000fd5b01906005620011f4929190620018e0565b506040518060c00160405280600060ff168152602001600160ff168152602001600260ff168152602001600360ff168152602001600460ff168152602001600560ff168152506022600b6012811062001276577f4e487b7100000000000000000000000000000000000000000000000000000000600052603260045260246000fd5b019060066200128792919062001e50565b5060405180610180016040528060ff8016815260200160ff8016815260200160ff8016815260200160ff8016815260200160ff8016815260200160ff8016815260200160ff8016815260200160ff8016815260200160bb60ff168152602001608f60ff168152602001604560ff168152602001603160ff168152506010600c601281106200133e577f4e487b7100000000000000000000000000000000000000000000000000000000600052603260045260246000fd5b0190600c6200134f9291906200198e565b50604051806101800160405280600060ff168152602001600160ff168152602001600260ff168152602001600360ff168152602001600460ff168152602001600560ff168152602001600660ff168152602001600760ff168152602001600260ff168152602001600360ff168152602001600060ff168152602001600160ff168152506022600c601281106200140e577f4e487b7100000000000000000000000000000000000000000000000000000000600052603260045260246000fd5b0190600c6200141f9291906200198e565b5060405180610160016040528060ff8016815260200160ff8016815260200160ff8016815260200160ff8016815260200160ff8016815260200160ff8016815260200160ff80168152602001607060ff168152602001606260ff168152602001604b60ff168152602001603260ff168152506010600d60128110620014cd577f4e487b7100000000000000000000000000000000000000000000000000000000600052603260045260246000fd5b0190600b620014de92919062001aea565b50604051806101600160405280600060ff168152602001600160ff168152602001600260ff168152602001600360ff168152602001600460ff168152602001600560ff168152602001600660ff168152602001600360ff168152602001600260ff168152602001600160ff168152602001600060ff168152506022600d6012811062001593577f4e487b7100000000000000000000000000000000000000000000000000000000600052603260045260246000fd5b0190600b620015a492919062001aea565b50604051806040016040528060ff8016815260200160ff80168152506010600e60128110620015fc577f4e487b7100000000000000000000000000000000000000000000000000000000600052603260045260246000fd5b019060026200160d92919062001efe565b506040518060400160405280600060ff168152602001600160ff168152506022600e6012811062001667577f4e487b7100000000000000000000000000000000000000000000000000000000600052603260045260246000fd5b019060026200167892919062001efe565b50604051806080016040528060ff8016815260200160dd60ff168152602001606360ff168152602001601460ff168152506010600f60128110620016e5577f4e487b7100000000000000000000000000000000000000000000000000000000600052603260045260246000fd5b01906004620016f692919062001fac565b506040518060800160405280600060ff168152602001600060ff168152602001600160ff168152602001600060ff168152506022600f6012811062001764577f4e487b7100000000000000000000000000000000000000000000000000000000600052603260045260246000fd5b019060046200177592919062001fac565b505050505050620021c5565b600033905090565b6000600a60009054906101000a900473ffffffffffffffffffffffffffffffffffffffff16905081600a60006101000a81548173ffffffffffffffffffffffffffffffffffffffff021916908373ffffffffffffffffffffffffffffffffffffffff1602179055508173ffffffffffffffffffffffffffffffffffffffff168173ffffffffffffffffffffffffffffffffffffffff167f8be0079c531659141344cd1fd0a4f28419497f9722a3daafe3b4186f6b6457e060405160405180910390a35050565b8280546200185d9062002146565b90600052602060002090601f016020900481019282620018815760008555620018cd565b82601f106200189c57805160ff1916838001178555620018cd565b82800160010185558215620018cd579182015b82811115620018cc578251825591602001919060010190620018af565b5b509050620018dc91906200205a565b5090565b82805482825590600052602060002090601f016020900481019282156200197b5791602002820160005b838211156200194a57835183826101000a81548160ff021916908360ff16021790555092602001926001016020816000010492830192600103026200190a565b8015620019795782816101000a81549060ff02191690556001016020816000010492830192600103026200194a565b505b5090506200198a91906200205a565b5090565b82805482825590600052602060002090601f0160209004810192821562001a295791602002820160005b83821115620019f857835183826101000a81548160ff021916908360ff1602179055509260200192600101602081600001049283019260010302620019b8565b801562001a275782816101000a81549060ff0219169055600101602081600001049283019260010302620019f8565b505b50905062001a3891906200205a565b5090565b82805482825590600052602060002090601f0160209004810192821562001ad75791602002820160005b8382111562001aa657835183826101000a81548160ff021916908360ff160217905550926020019260010160208160000104928301926001030262001a66565b801562001ad55782816101000a81549060ff021916905560010160208160000104928301926001030262001aa6565b505b50905062001ae691906200205a565b5090565b82805482825590600052602060002090601f0160209004810192821562001b855791602002820160005b8382111562001b5457835183826101000a81548160ff021916908360ff160217905550926020019260010160208160000104928301926001030262001b14565b801562001b835782816101000a81549060ff021916905560010160208160000104928301926001030262001b54565b505b50905062001b9491906200205a565b5090565b82805482825590600052602060002090601f0160209004810192821562001c335791602002820160005b8382111562001c0257835183826101000a81548160ff021916908360ff160217905550926020019260010160208160000104928301926001030262001bc2565b801562001c315782816101000a81549060ff021916905560010160208160000104928301926001030262001c02565b505b50905062001c4291906200205a565b5090565b82805482825590600052602060002090601f0160209004810192821562001ce15791602002820160005b8382111562001cb057835183826101000a81548160ff021916908360ff160217905550926020019260010160208160000104928301926001030262001c70565b801562001cdf5782816101000a81549060ff021916905560010160208160000104928301926001030262001cb0565b505b50905062001cf091906200205a565b5090565b82805482825590600052602060002090601f0160209004810192821562001d8f5791602002820160005b8382111562001d5e57835183826101000a81548160ff021916908360ff160217905550926020019260010160208160000104928301926001030262001d1e565b801562001d8d5782816101000a81549060ff021916905560010160208160000104928301926001030262001d5e565b505b50905062001d9e91906200205a565b5090565b82805482825590600052602060002090601f0160209004810192821562001e3d5791602002820160005b8382111562001e0c57835183826101000a81548160ff021916908360ff160217905550926020019260010160208160000104928301926001030262001dcc565b801562001e3b5782816101000a81549060ff021916905560010160208160000104928301926001030262001e0c565b505b50905062001e4c91906200205a565b5090565b82805482825590600052602060002090601f0160209004810192821562001eeb5791602002820160005b8382111562001eba57835183826101000a81548160ff021916908360ff160217905550926020019260010160208160000104928301926001030262001e7a565b801562001ee95782816101000a81549060ff021916905560010160208160000104928301926001030262001eba565b505b50905062001efa91906200205a565b5090565b82805482825590600052602060002090601f0160209004810192821562001f995791602002820160005b8382111562001f6857835183826101000a81548160ff021916908360ff160217905550926020019260010160208160000104928301926001030262001f28565b801562001f975782816101000a81549060ff021916905560010160208160000104928301926001030262001f68565b505b50905062001fa891906200205a565b5090565b82805482825590600052602060002090601f01602090048101928215620020475791602002820160005b838211156200201657835183826101000a81548160ff021916908360ff160217905550926020019260010160208160000104928301926001030262001fd6565b8015620020455782816101000a81549060ff021916905560010160208160000104928301926001030262002016565b505b5090506200205691906200205a565b5090565b5b80821115620020755760008160009055506001016200205b565b5090565b6000815190506200208a81620021ab565b92915050565b600080600080600060a08688031215620020a957600080fd5b6000620020b98882890162002079565b9550506020620020cc8882890162002079565b9450506040620020df8882890162002079565b9350506060620020f28882890162002079565b9250506080620021058882890162002079565b9150509295509295909350565b60006200211f8262002126565b9050919050565b600073ffffffffffffffffffffffffffffffffffffffff82169050919050565b600060028204905060018216806200215f57607f821691505b602082108114156200217657620021756200217c565b5b50919050565b7f4e487b7100000000000000000000000000000000000000000000000000000000600052602260045260246000fd5b620021b68162002112565b8114620021c257600080fd5b50565b60805160601c60a05160601c60c05160601c60e05160601c6101005160601c615bbd6200221a600039600061134a01526000505060008181611bd10152611f54015260005050600061113e0152615bbd6000f3fe608060405234801561001057600080fd5b50600436106102745760003560e01c806354c96c831161015157806393b3cc6b116100c3578063c87b56dd11610087578063c87b56dd14610799578063d52079b4146107c9578063e8315742146107e7578063e985e9c514610805578063ebd1736814610835578063f2fde38b1461086557610274565b806393b3cc6b1461070757806395d89b4114610725578063a22cb46514610743578063b88d4fde1461075f578063c002d23d1461077b57610274565b80636abcded1116101155780636abcded114610657578063704802751461067557806370a0823114610691578063715018a6146106c1578063726a093f146106cb5780638da5cb5b146106e957610274565b806354c96c83146105b15780635a3f2672146105cf5780635c975abb146105ff57806361f4b51c1461061d5780636352211e1461062757610274565b806335ca838b116101ea57806342842e0e116101ae57806342842e0e146104b957806342966c68146104d557806343e55e30146104f1578063483be8cb1461052157806349dfaef8146105515780634f6ccce71461058157610274565b806335ca838b14610403578063368383911461041f5780633726230a1461044f5780633ba3d3771461046d57806340c10f191461049d57610274565b80631785f53c1161023c5780631785f53c1461032f57806318160ddd1461034b5780631f46452f1461036957806323b872dd146103875780632f745c59146103a357806333df4b2c146103d357610274565b806301ffc9a71461027957806304d48c5e146102a957806306fdde03146102c5578063081812fc146102e3578063095ea7b314610313575b600080fd5b610293600480360381019061028e9190614329565b610881565b6040516102a09190614b5e565b60405180910390f35b6102c360048036038101906102be919061437b565b6108fb565b005b6102cd610997565b6040516102da9190614b79565b60405180910390f35b6102fd60048036038101906102f891906143a4565b610a29565b60405161030a9190614ad5565b60405180910390f35b61032d6004803603810190610328919061425a565b610aae565b005b610349600480360381019061034491906140ef565b610bc6565b005b610353610c9d565b6040516103609190614ed2565b60405180910390f35b610371610caa565b60405161037e9190614ed2565b60405180910390f35b6103a1600480360381019061039c9190614154565b610cc6565b005b6103bd60048036038101906103b8919061425a565b610d71565b6040516103ca9190614ed2565b60405180910390f35b6103ed60048036038101906103e891906143f6565b610e16565b6040516103fa9190614f23565b60405180910390f35b61041d60048036038101906104189190614296565b610e5c565b005b610439600480360381019061043491906143f6565b6110c8565b6040516104469190614f23565b60405180910390f35b61045761110e565b6040516104649190614eb7565b60405180910390f35b6104876004803603810190610482919061437b565b611126565b6040516104949190614ed2565b60405180910390f35b6104b760048036038101906104b2919061425a565b61126d565b005b6104d360048036038101906104ce9190614154565b61149c565b005b6104ef60048036038101906104ea91906143a4565b6114bc565b005b61050b6004803603810190610506919061437b565b6116a2565b6040516105189190614e9b565b60405180910390f35b61053b600480360381019061053691906143a4565b611823565b6040516105489190614b5e565b60405180910390f35b61056b600480360381019061056691906140ef565b611957565b6040516105789190614eed565b60405180910390f35b61059b600480360381019061059691906143a4565b61197a565b6040516105a89190614ed2565b60405180910390f35b6105b9611a11565b6040516105c69190614ed2565b60405180910390f35b6105e960048036038101906105e491906140ef565b611a1a565b6040516105f69190614b3c565b60405180910390f35b610607611b3c565b6040516106149190614b5e565b60405180910390f35b610625611b53565b005b610641600480360381019061063c91906143a4565b611c72565b60405161064e9190614ad5565b60405180910390f35b61065f611c84565b60405161066c9190614ed2565b60405180910390f35b61068f600480360381019061068a91906140ef565b611c8e565b005b6106ab60048036038101906106a691906140ef565b611d65565b6040516106b89190614ed2565b60405180910390f35b6106c9611e1d565b005b6106d3611ea5565b6040516106e09190614ed2565b60405180910390f35b6106f1611eaa565b6040516106fe9190614ad5565b60405180910390f35b61070f611ed4565b60405161071c9190614ed2565b60405180910390f35b61072d611ff7565b60405161073a9190614b79565b60405180910390f35b61075d6004803603810190610758919061421e565b612089565b005b610779600480360381019061077491906141a3565b61209f565b005b6107836120b1565b6040516107909190614ed2565b60405180910390f35b6107b360048036038101906107ae91906143a4565b6120bc565b6040516107c09190614b79565b60405180910390f35b6107d1612163565b6040516107de9190614eb7565b60405180910390f35b6107ef612177565b6040516107fc9190614ed2565b60405180910390f35b61081f600480360381019061081a9190614118565b61217d565b60405161082c9190614b5e565b60405180910390f35b61084f600480360381019061084a91906143a4565b612211565b60405161085c9190614f08565b60405180910390f35b61087f600480360381019061087a91906140ef565b6122d8565b005b60007f780e9d63000000000000000000000000000000000000000000000000000000007bffffffffffffffffffffffffffffffffffffffffffffffffffffffff1916827bffffffffffffffffffffffffffffffffffffffffffffffffffffffff191614806108f457506108f3826123d0565b5b9050919050565b6109036124b2565b73ffffffffffffffffffffffffffffffffffffffff16610921611eaa565b73ffffffffffffffffffffffffffffffffffffffff1614610977576040517f08c379a000000000000000000000000000000000000000000000000000000000815260040161096e90614ddb565b60405180910390fd5b80600a60176101000a81548161ffff021916908361ffff16021790555050565b6060600080546109a690615287565b80601f01602080910402602001604051908101604052809291908181526020018280546109d290615287565b8015610a1f5780601f106109f457610100808354040283529160200191610a1f565b820191906000526020600020905b815481529060010190602001808311610a0257829003601f168201915b5050505050905090565b6000610a34826124ba565b610a73576040517f08c379a0000000000000000000000000000000000000000000000000000000008152600401610a6a90614dbb565b60405180910390fd5b6004600083815260200190815260200160002060009054906101000a900473ffffffffffffffffffffffffffffffffffffffff169050919050565b6000610ab982612526565b90508073ffffffffffffffffffffffffffffffffffffffff168373ffffffffffffffffffffffffffffffffffffffff161415610b2a576040517f08c379a0000000000000000000000000000000000000000000000000000000008152600401610b2190614e1b565b60405180910390fd5b8073ffffffffffffffffffffffffffffffffffffffff16610b496124b2565b73ffffffffffffffffffffffffffffffffffffffff161480610b785750610b7781610b726124b2565b61217d565b5b610bb7576040517f08c379a0000000000000000000000000000000000000000000000000000000008152600401610bae90614d3b565b60405180910390fd5b610bc183836125d8565b505050565b610bce6124b2565b73ffffffffffffffffffffffffffffffffffffffff16610bec611eaa565b73ffffffffffffffffffffffffffffffffffffffff1614610c42576040517f08c379a0000000000000000000000000000000000000000000000000000000008152600401610c3990614ddb565b60405180910390fd5b6000603460008373ffffffffffffffffffffffffffffffffffffffff1673ffffffffffffffffffffffffffffffffffffffff16815260200190815260200160002060006101000a81548160ff02191690831515021790555050565b6000600880549050905090565b6000600a60179054906101000a900461ffff1661ffff16905090565b603460003373ffffffffffffffffffffffffffffffffffffffff1673ffffffffffffffffffffffffffffffffffffffff16815260200190815260200160002060009054906101000a900460ff16610d6157610d213382612691565b610d60576040517f08c379a0000000000000000000000000000000000000000000000000000000008152600401610d5790614c9b565b60405180910390fd5b5b610d6c83838361276f565b505050565b6000610d7c83611d65565b8210610dbd576040517f08c379a0000000000000000000000000000000000000000000000000000000008152600401610db490614b9b565b60405180910390fd5b600660008473ffffffffffffffffffffffffffffffffffffffff1673ffffffffffffffffffffffffffffffffffffffff168152602001908152602001600020600083815260200190815260200160002054905092915050565b60108260128110610e2657600080fd5b018181548110610e3557600080fd5b9060005260206000209060209182820401919006915091509054906101000a900460ff1681565b60346000610e686124b2565b73ffffffffffffffffffffffffffffffffffffffff1673ffffffffffffffffffffffffffffffffffffffff16815260200190815260200160002060009054906101000a900460ff16610eef576040517f08c379a0000000000000000000000000000000000000000000000000000000008152600401610ee690614bfb565b60405180910390fd5b6000439050600042905060405180604001604052808267ffffffffffffffff1681526020018367ffffffffffffffff16815250600e60003273ffffffffffffffffffffffffffffffffffffffff1673ffffffffffffffffffffffffffffffffffffffff16815260200190815260200160002060008201518160000160006101000a81548167ffffffffffffffff021916908367ffffffffffffffff16021790555060208201518160000160086101000a81548167ffffffffffffffff021916908367ffffffffffffffff16021790555090505060005b83518110156110c25760405180604001604052808367ffffffffffffffff1681526020018467ffffffffffffffff16815250600f6000868481518110611034577f4e487b7100000000000000000000000000000000000000000000000000000000600052603260045260246000fd5b602002602001015161ffff16815260200190815260200160002060008201518160000160006101000a81548167ffffffffffffffff021916908367ffffffffffffffff16021790555060208201518160000160086101000a81548167ffffffffffffffff021916908367ffffffffffffffff16021790555090505080806110ba90615315565b915050610fc5565b50505050565b602282601281106110d857600080fd5b0181815481106110e757600080fd5b9060005260206000209060209182820401919006915091509054906101000a900460ff1681565b6000600a60159054906101000a900461ffff16905090565b600060648261ffff16111580156111de5750600115157f000000000000000000000000000000000000000000000000000000000000000073ffffffffffffffffffffffffffffffffffffffff1663d94f02d56040518163ffffffff1660e01b815260040160206040518083038186803b1580156111a257600080fd5b505afa1580156111b6573d6000803e3d6000fd5b505050506040513d601f19601f820116820180604052508101906111da91906142d7565b1515145b156111ec5760009050611268565b6005600261d6d86111fd91906150fa565b61120791906150c9565b8261ffff16116112235769054b40b1f852bda000009050611268565b6005600461d6d861123491906150fa565b61123e91906150c9565b8261ffff161161125a5769098774738bc8222000009050611268565b690fe1c215e8f838e0000090505b919050565b611275611b3c565b156112b5576040517f08c379a00000000000000000000000000000000000000000000000000000000081526004016112ac90614d1b565b60405180910390fd5b600a601581819054906101000a900461ffff16809291906112d5906152ea565b91906101000a81548161ffff021916908361ffff1602179055505061130c600a60159054906101000a900461ffff168260006129d6565b60000151508173ffffffffffffffffffffffffffffffffffffffff163273ffffffffffffffffffffffffffffffffffffffff161415801561139957507f000000000000000000000000000000000000000000000000000000000000000073ffffffffffffffffffffffffffffffffffffffff168273ffffffffffffffffffffffffffffffffffffffff1614155b1561147a57600d6000600a60159054906101000a900461ffff1661ffff16815260200190815260200160002060000160009054906101000a900460ff161561142c57600a60159054906101000a900461ffff1661ffff167fd47f2824a2c20a23b2ba8c0446886fa3f801fba9e613e9e17c29551ecae01de68360405161141f9190614ad5565b60405180910390a2611479565b600a60159054906101000a900461ffff1661ffff167fa7750febfd11b56d0775ed3ba45a7fc914a8750d85dee29507a15407d06bcbc6836040516114709190614ad5565b60405180910390a25b5b61149882600a60159054906101000a900461ffff1661ffff16612c00565b5050565b6114b78383836040518060200160405280600081525061209f565b505050565b6114c4611b3c565b15611504576040517f08c379a00000000000000000000000000000000000000000000000000000000081526004016114fb90614d1b565b60405180910390fd5b603460006115106124b2565b73ffffffffffffffffffffffffffffffffffffffff1673ffffffffffffffffffffffffffffffffffffffff16815260200190815260200160002060009054906101000a900460ff16611597576040517f08c379a000000000000000000000000000000000000000000000000000000000815260040161158e90614bfb565b60405180910390fd5b3273ffffffffffffffffffffffffffffffffffffffff166115b782611c72565b73ffffffffffffffffffffffffffffffffffffffff161461160d576040517f08c379a000000000000000000000000000000000000000000000000000000000815260040161160490614cbb565b60405180910390fd5b600d600082815260200190815260200160002060000160009054906101000a900460ff161561166857807f543504fd97615b33e84a85c2388efead14344c06fd28002692cf17919c0b7a7560405160405180910390a2611696565b807faf576480b9f33629846fa03a66e9f654ed816cf2b04d2fd9f44ba6ccd22c26c760405160405180910390a25b61169f81612c1e565b50565b6116aa613ece565b6116b78261ffff166124ba565b6116f6576040517f08c379a00000000000000000000000000000000000000000000000000000000081526004016116ed90614cdb565b60405180910390fd5b600d60008361ffff168152602001908152602001600020604051806101200160405290816000820160009054906101000a900460ff161515151581526020016000820160019054906101000a900460ff1660ff1660ff1681526020016000820160029054906101000a900460ff1660ff1660ff1681526020016000820160039054906101000a900460ff1660ff1660ff1681526020016000820160049054906101000a900460ff1660ff1660ff1681526020016000820160059054906101000a900460ff1660ff1660ff1681526020016000820160069054906101000a900460ff1660ff1660ff1681526020016000820160079054906101000a900460ff1660ff1660ff1681526020016000820160089054906101000a900460ff1660ff1660ff16815250509050919050565b600080600d6000848152602001908152602001600020604051806101200160405290816000820160009054906101000a900460ff161515151581526020016000820160019054906101000a900460ff1660ff1660ff1681526020016000820160029054906101000a900460ff1660ff1660ff1681526020016000820160039054906101000a900460ff1660ff1660ff1681526020016000820160049054906101000a900460ff1660ff1660ff1681526020016000820160059054906101000a900460ff1660ff1660ff1681526020016000820160069054906101000a900460ff1660ff1660ff1681526020016000820160079054906101000a900460ff1660ff1660ff1681526020016000820160089054906101000a900460ff1660ff1660ff168152505090508060000151915050919050565b600b6020528060005260406000206000915054906101000a900463ffffffff1681565b6000611984610c9d565b82106119c5576040517f08c379a00000000000000000000000000000000000000000000000000000000081526004016119bc90614e5b565b60405180910390fd5b600882815481106119ff577f4e487b7100000000000000000000000000000000000000000000000000000000600052603260045260246000fd5b90600052602060002001549050919050565b60006064905090565b60606000611a2783611d65565b905060008163ffffffff1667ffffffffffffffff811115611a71577f4e487b7100000000000000000000000000000000000000000000000000000000600052604160045260246000fd5b604051908082528060200260200182016040528015611a9f5781602001602082028036833780820191505090505b50905060005b8263ffffffff168163ffffffff161015611b3157611ac9858263ffffffff16610d71565b828263ffffffff1681518110611b08577f4e487b7100000000000000000000000000000000000000000000000000000000600052603260045260246000fd5b602002602001019061ffff16908161ffff16815250508080611b299061535e565b915050611aa5565b508092505050919050565b6000600a60149054906101000a900460ff16905090565b611b5b6124b2565b73ffffffffffffffffffffffffffffffffffffffff16611b79611eaa565b73ffffffffffffffffffffffffffffffffffffffff1614611bcf576040517f08c379a0000000000000000000000000000000000000000000000000000000008152600401611bc690614ddb565b60405180910390fd5b7f000000000000000000000000000000000000000000000000000000000000000073ffffffffffffffffffffffffffffffffffffffff1663dbdff2c16040518163ffffffff1660e01b8152600401602060405180830381600087803b158015611c3757600080fd5b505af1158015611c4b573d6000803e3d6000fd5b505050506040513d601f19601f82011682018060405250810190611c6f9190614300565b50565b6000611c7d82612526565b9050919050565b600061d6d8905090565b611c966124b2565b73ffffffffffffffffffffffffffffffffffffffff16611cb4611eaa565b73ffffffffffffffffffffffffffffffffffffffff1614611d0a576040517f08c379a0000000000000000000000000000000000000000000000000000000008152600401611d0190614ddb565b60405180910390fd5b6001603460008373ffffffffffffffffffffffffffffffffffffffff1673ffffffffffffffffffffffffffffffffffffffff16815260200190815260200160002060006101000a81548160ff02191690831515021790555050565b60008073ffffffffffffffffffffffffffffffffffffffff168273ffffffffffffffffffffffffffffffffffffffff161415611dd6576040517f08c379a0000000000000000000000000000000000000000000000000000000008152600401611dcd90614d5b565b60405180910390fd5b600360008373ffffffffffffffffffffffffffffffffffffffff1673ffffffffffffffffffffffffffffffffffffffff168152602001908152602001600020549050919050565b611e256124b2565b73ffffffffffffffffffffffffffffffffffffffff16611e43611eaa565b73ffffffffffffffffffffffffffffffffffffffff1614611e99576040517f08c379a0000000000000000000000000000000000000000000000000000000008152600401611e9090614ddb565b60405180910390fd5b611ea36000612d3b565b565b606481565b6000600a60009054906101000a900473ffffffffffffffffffffffffffffffffffffffff16905090565b6000611ede6124b2565b73ffffffffffffffffffffffffffffffffffffffff16611efc611eaa565b73ffffffffffffffffffffffffffffffffffffffff1614611f52576040517f08c379a0000000000000000000000000000000000000000000000000000000008152600401611f4990614ddb565b60405180910390fd5b7f000000000000000000000000000000000000000000000000000000000000000073ffffffffffffffffffffffffffffffffffffffff1663d614dd926040518163ffffffff1660e01b8152600401602060405180830381600087803b158015611fba57600080fd5b505af1158015611fce573d6000803e3d6000fd5b505050506040513d601f19601f82011682018060405250810190611ff291906143cd565b905090565b60606001805461200690615287565b80601f016020809104026020016040519081016040528092919081815260200182805461203290615287565b801561207f5780601f106120545761010080835404028352916020019161207f565b820191906000526020600020905b81548152906001019060200180831161206257829003601f168201915b5050505050905090565b61209b6120946124b2565b8383612e01565b5050565b6120ab84848484612f6e565b50505050565b66b1a2bc2ec5000081565b60606120c7826124ba565b612106576040517f08c379a00000000000000000000000000000000000000000000000000000000081526004016120fd90614dfb565b60405180910390fd5b6000612110612fd0565b90506000815111612130576040518060200160405280600081525061215b565b8061213a84612fe7565b60405160200161214b929190614ab1565b6040516020818303038152906040525b915050919050565b600a60159054906101000a900461ffff1681565b61d6d881565b6000600560008473ffffffffffffffffffffffffffffffffffffffff1673ffffffffffffffffffffffffffffffffffffffff16815260200190815260200160002060008373ffffffffffffffffffffffffffffffffffffffff1673ffffffffffffffffffffffffffffffffffffffff16815260200190815260200160002060009054906101000a900460ff16905092915050565b60006034600061221f6124b2565b73ffffffffffffffffffffffffffffffffffffffff1673ffffffffffffffffffffffffffffffffffffffff16815260200190815260200160002060009054906101000a900460ff166122a6576040517f08c379a000000000000000000000000000000000000000000000000000000000815260040161229d90614bfb565b60405180910390fd5b600f600083815260200190815260200160002060000160089054906101000a900467ffffffffffffffff169050919050565b6122e06124b2565b73ffffffffffffffffffffffffffffffffffffffff166122fe611eaa565b73ffffffffffffffffffffffffffffffffffffffff1614612354576040517f08c379a000000000000000000000000000000000000000000000000000000000815260040161234b90614ddb565b60405180910390fd5b600073ffffffffffffffffffffffffffffffffffffffff168173ffffffffffffffffffffffffffffffffffffffff1614156123c4576040517f08c379a00000000000000000000000000000000000000000000000000000000081526004016123bb90614bdb565b60405180910390fd5b6123cd81612d3b565b50565b60007f80ac58cd000000000000000000000000000000000000000000000000000000007bffffffffffffffffffffffffffffffffffffffffffffffffffffffff1916827bffffffffffffffffffffffffffffffffffffffffffffffffffffffff1916148061249b57507f5b5e139f000000000000000000000000000000000000000000000000000000007bffffffffffffffffffffffffffffffffffffffffffffffffffffffff1916827bffffffffffffffffffffffffffffffffffffffffffffffffffffffff1916145b806124ab57506124aa82613194565b5b9050919050565b600033905090565b60008073ffffffffffffffffffffffffffffffffffffffff166002600084815260200190815260200160002060009054906101000a900473ffffffffffffffffffffffffffffffffffffffff1673ffffffffffffffffffffffffffffffffffffffff1614159050919050565b6000806002600084815260200190815260200160002060009054906101000a900473ffffffffffffffffffffffffffffffffffffffff169050600073ffffffffffffffffffffffffffffffffffffffff168173ffffffffffffffffffffffffffffffffffffffff1614156125cf576040517f08c379a00000000000000000000000000000000000000000000000000000000081526004016125c690614d7b565b60405180910390fd5b80915050919050565b816004600083815260200190815260200160002060006101000a81548173ffffffffffffffffffffffffffffffffffffffff021916908373ffffffffffffffffffffffffffffffffffffffff160217905550808273ffffffffffffffffffffffffffffffffffffffff1661264b83612526565b73ffffffffffffffffffffffffffffffffffffffff167f8c5be1e5ebec7d5bd14f71427d1e84f3dd0314c0f7b2291e5b200ac8c7c3b92560405160405180910390a45050565b600061269c826124ba565b6126db576040517f08c379a00000000000000000000000000000000000000000000000000000000081526004016126d290614cfb565b60405180910390fd5b60006126e683612526565b90508073ffffffffffffffffffffffffffffffffffffffff168473ffffffffffffffffffffffffffffffffffffffff16148061275557508373ffffffffffffffffffffffffffffffffffffffff1661273d84610a29565b73ffffffffffffffffffffffffffffffffffffffff16145b806127665750612765818561217d565b5b91505092915050565b8273ffffffffffffffffffffffffffffffffffffffff1661278f82612526565b73ffffffffffffffffffffffffffffffffffffffff16146127e5576040517f08c379a00000000000000000000000000000000000000000000000000000000081526004016127dc90614c1b565b60405180910390fd5b600073ffffffffffffffffffffffffffffffffffffffff168273ffffffffffffffffffffffffffffffffffffffff161415612855576040517f08c379a000000000000000000000000000000000000000000000000000000000815260040161284c90614c5b565b60405180910390fd5b6128608383836131fe565b61286b6000826125d8565b6001600360008573ffffffffffffffffffffffffffffffffffffffff1673ffffffffffffffffffffffffffffffffffffffff16815260200190815260200160002060008282546128bb9190615154565b925050819055506001600360008473ffffffffffffffffffffffffffffffffffffffff1673ffffffffffffffffffffffffffffffffffffffff1681526020019081526020016000206000828254612912919061503c565b92505081905550816002600083815260200190815260200160002060006101000a81548173ffffffffffffffffffffffffffffffffffffffff021916908373ffffffffffffffffffffffffffffffffffffffff160217905550808273ffffffffffffffffffffffffffffffffffffffff168473ffffffffffffffffffffffffffffffffffffffff167fddf252ad1be2c89b69c2b068fc378daa952ba7f163c4a11628f55a4df523b3ef60405160405180910390a46129d1838383613312565b505050565b6129de613ece565b60068260ff1610612a24576040517f08c379a0000000000000000000000000000000000000000000000000000000008152600401612a1b90614e7b565b60405180910390fd5b612a2d83613317565b9050600c6000612a3c836134f1565b815260200190815260200160002060009054906101000a900460ff16612bd95780600d60008661ffff16815260200190815260200160002060008201518160000160006101000a81548160ff02191690831515021790555060208201518160000160016101000a81548160ff021916908360ff16021790555060408201518160000160026101000a81548160ff021916908360ff16021790555060608201518160000160036101000a81548160ff021916908360ff16021790555060808201518160000160046101000a81548160ff021916908360ff16021790555060a08201518160000160056101000a81548160ff021916908360ff16021790555060c08201518160000160066101000a81548160ff021916908360ff16021790555060e08201518160000160076101000a81548160ff021916908360ff1602179055506101008201518160000160086101000a81548160ff021916908360ff1602179055509050506001600c6000612baf846134f1565b815260200190815260200160002060006101000a81548160ff021916908315150217905550612bf9565b612bf6848360ff1685901c600185612bf19190615092565b6129d6565b90505b9392505050565b612c1a828260405180602001604052806000815250613559565b5050565b6000612c2982612526565b9050612c37816000846131fe565b612c426000836125d8565b6001600360008373ffffffffffffffffffffffffffffffffffffffff1673ffffffffffffffffffffffffffffffffffffffff1681526020019081526020016000206000828254612c929190615154565b925050819055506002600083815260200190815260200160002060006101000a81549073ffffffffffffffffffffffffffffffffffffffff021916905581600073ffffffffffffffffffffffffffffffffffffffff168273ffffffffffffffffffffffffffffffffffffffff167fddf252ad1be2c89b69c2b068fc378daa952ba7f163c4a11628f55a4df523b3ef60405160405180910390a4612d3781600084613312565b5050565b6000600a60009054906101000a900473ffffffffffffffffffffffffffffffffffffffff16905081600a60006101000a81548173ffffffffffffffffffffffffffffffffffffffff021916908373ffffffffffffffffffffffffffffffffffffffff1602179055508173ffffffffffffffffffffffffffffffffffffffff168173ffffffffffffffffffffffffffffffffffffffff167f8be0079c531659141344cd1fd0a4f28419497f9722a3daafe3b4186f6b6457e060405160405180910390a35050565b8173ffffffffffffffffffffffffffffffffffffffff168373ffffffffffffffffffffffffffffffffffffffff161415612e70576040517f08c379a0000000000000000000000000000000000000000000000000000000008152600401612e6790614c7b565b60405180910390fd5b80600560008573ffffffffffffffffffffffffffffffffffffffff1673ffffffffffffffffffffffffffffffffffffffff16815260200190815260200160002060008473ffffffffffffffffffffffffffffffffffffffff1673ffffffffffffffffffffffffffffffffffffffff16815260200190815260200160002060006101000a81548160ff0219169083151502179055508173ffffffffffffffffffffffffffffffffffffffff168373ffffffffffffffffffffffffffffffffffffffff167f17307eab39ab6107e8899845ad3d59bd9653f200f220920489ca2b5937696c3183604051612f619190614b5e565b60405180910390a3505050565b612f7f612f796124b2565b83612691565b612fbe576040517f08c379a0000000000000000000000000000000000000000000000000000000008152600401612fb590614e3b565b60405180910390fd5b612fca848484846135b4565b50505050565b606060405180602001604052806000815250905090565b6060600082141561302f576040518060400160405280600181526020017f3000000000000000000000000000000000000000000000000000000000000000815250905061318f565b600082905060005b6000821461306157808061304a90615315565b915050600a8261305a91906150c9565b9150613037565b60008167ffffffffffffffff8111156130a3577f4e487b7100000000000000000000000000000000000000000000000000000000600052604160045260246000fd5b6040519080825280601f01601f1916602001820160405280156130d55781602001600182028036833780820191505090505b5090505b60008514613188576001826130ee9190615154565b9150600a856130fd91906153af565b6030613109919061503c565b60f81b818381518110613145577f4e487b7100000000000000000000000000000000000000000000000000000000600052603260045260246000fd5b60200101907effffffffffffffffffffffffffffffffffffffffffffffffffffffffffffff1916908160001a905350600a8561318191906150c9565b94506130d9565b8093505050505b919050565b60007f01ffc9a7000000000000000000000000000000000000000000000000000000007bffffffffffffffffffffffffffffffffffffffffffffffffffffffff1916827bffffffffffffffffffffffffffffffffffffffffffffffffffffffff1916149050919050565b613209838383613610565b600073ffffffffffffffffffffffffffffffffffffffff168373ffffffffffffffffffffffffffffffffffffffff16141561324c5761324781613615565b61328b565b8173ffffffffffffffffffffffffffffffffffffffff168373ffffffffffffffffffffffffffffffffffffffff161461328a57613289838261365e565b5b5b600073ffffffffffffffffffffffffffffffffffffffff168273ffffffffffffffffffffffffffffffffffffffff1614156132ce576132c9816137cb565b61330d565b8273ffffffffffffffffffffffffffffffffffffffff168273ffffffffffffffffffffffffffffffffffffffff161461330c5761330b828261390e565b5b5b505050565b505050565b61331f613ece565b6000600261ffff841661333291906153af565b141581600001901515908115158152505060008160000151613355576008613358565b60005b9050601083901c925061337b61ffff84168260006133769190615092565b61398d565b826020019060ff16908160ff1681525050601083901c92506133ad61ffff84168260016133a89190615092565b61398d565b826040019060ff16908160ff1681525050601083901c92506133df61ffff84168260026133da9190615092565b61398d565b826060019060ff16908160ff1681525050601083901c925061341161ffff841682600361340c9190615092565b61398d565b826080019060ff16908160ff1681525050601083901c925061344361ffff841682600461343e9190615092565b61398d565b8260a0019060ff16908160ff1681525050601083901c925061347561ffff84168260056134709190615092565b61398d565b8260c0019060ff16908160ff1681525050601083901c92506134a761ffff84168260066134a29190615092565b61398d565b8260e0019060ff16908160ff1681525050601083901c92506134d961ffff84168260076134d49190615092565b61398d565b82610100019060ff16908160ff168152505050919050565b6000816000015182602001518360400151846060015185608001518660a001518760c001518860e0015189610100015160405160200161353999989796959493929190614a0e565b6040516020818303038152906040528051906020012060001c9050919050565b6135638383613b3a565b6135706000848484613d14565b6135af576040517f08c379a00000000000000000000000000000000000000000000000000000000081526004016135a690614bbb565b60405180910390fd5b505050565b6135bf84848461276f565b6135cb84848484613d14565b61360a576040517f08c379a000000000000000000000000000000000000000000000000000000000815260040161360190614bbb565b60405180910390fd5b50505050565b505050565b6008805490506009600083815260200190815260200160002081905550600881908060018154018082558091505060019003906000526020600020016000909190919091505550565b6000600161366b84611d65565b6136759190615154565b905060006007600084815260200190815260200160002054905081811461375a576000600660008673ffffffffffffffffffffffffffffffffffffffff1673ffffffffffffffffffffffffffffffffffffffff168152602001908152602001600020600084815260200190815260200160002054905080600660008773ffffffffffffffffffffffffffffffffffffffff1673ffffffffffffffffffffffffffffffffffffffff168152602001908152602001600020600084815260200190815260200160002081905550816007600083815260200190815260200160002081905550505b6007600084815260200190815260200160002060009055600660008573ffffffffffffffffffffffffffffffffffffffff1673ffffffffffffffffffffffffffffffffffffffff16815260200190815260200160002060008381526020019081526020016000206000905550505050565b600060016008805490506137df9190615154565b9050600060096000848152602001908152602001600020549050600060088381548110613835577f4e487b7100000000000000000000000000000000000000000000000000000000600052603260045260246000fd5b90600052602060002001549050806008838154811061387d577f4e487b7100000000000000000000000000000000000000000000000000000000600052603260045260246000fd5b9060005260206000200181905550816009600083815260200190815260200160002081905550600960008581526020019081526020016000206000905560088054806138f2577f4e487b7100000000000000000000000000000000000000000000000000000000600052603160045260246000fd5b6001900381819060005260206000200160009055905550505050565b600061391983611d65565b905081600660008573ffffffffffffffffffffffffffffffffffffffff1673ffffffffffffffffffffffffffffffffffffffff168152602001908152602001600020600083815260200190815260200160002081905550806007600084815260200190815260200160002081905550505050565b60008060108360ff16601281106139cd577f4e487b7100000000000000000000000000000000000000000000000000000000600052603260045260246000fd5b0180549050846139dd91906153e0565b905060108360ff1660128110613a1c577f4e487b7100000000000000000000000000000000000000000000000000000000600052603260045260246000fd5b018160ff1681548110613a58577f4e487b7100000000000000000000000000000000000000000000000000000000600052603260045260246000fd5b90600052602060002090602091828204019190069054906101000a900460ff1660ff1660088561ffff16901c61ffff161015613a975780915050613b34565b60228360ff1660128110613ad4577f4e487b7100000000000000000000000000000000000000000000000000000000600052603260045260246000fd5b018160ff1681548110613b10577f4e487b7100000000000000000000000000000000000000000000000000000000600052603260045260246000fd5b90600052602060002090602091828204019190069054906101000a900460ff169150505b92915050565b600073ffffffffffffffffffffffffffffffffffffffff168273ffffffffffffffffffffffffffffffffffffffff161415613baa576040517f08c379a0000000000000000000000000000000000000000000000000000000008152600401613ba190614d9b565b60405180910390fd5b613bb3816124ba565b15613bf3576040517f08c379a0000000000000000000000000000000000000000000000000000000008152600401613bea90614c3b565b60405180910390fd5b613bff600083836131fe565b6001600360008473ffffffffffffffffffffffffffffffffffffffff1673ffffffffffffffffffffffffffffffffffffffff1681526020019081526020016000206000828254613c4f919061503c565b92505081905550816002600083815260200190815260200160002060006101000a81548173ffffffffffffffffffffffffffffffffffffffff021916908373ffffffffffffffffffffffffffffffffffffffff160217905550808273ffffffffffffffffffffffffffffffffffffffff16600073ffffffffffffffffffffffffffffffffffffffff167fddf252ad1be2c89b69c2b068fc378daa952ba7f163c4a11628f55a4df523b3ef60405160405180910390a4613d1060008383613312565b5050565b6000613d358473ffffffffffffffffffffffffffffffffffffffff16613eab565b15613e9e578373ffffffffffffffffffffffffffffffffffffffff1663150b7a02613d5e6124b2565b8786866040518563ffffffff1660e01b8152600401613d809493929190614af0565b602060405180830381600087803b158015613d9a57600080fd5b505af1925050508015613dcb57506040513d601f19601f82011682018060405250810190613dc89190614352565b60015b613e4e573d8060008114613dfb576040519150601f19603f3d011682016040523d82523d6000602084013e613e00565b606091505b50600081511415613e46576040517f08c379a0000000000000000000000000000000000000000000000000000000008152600401613e3d90614bbb565b60405180910390fd5b805181602001fd5b63150b7a0260e01b7bffffffffffffffffffffffffffffffffffffffffffffffffffffffff1916817bffffffffffffffffffffffffffffffffffffffffffffffffffffffff191614915050613ea3565b600190505b949350505050565b6000808273ffffffffffffffffffffffffffffffffffffffff163b119050919050565b604051806101200160405280600015158152602001600060ff168152602001600060ff168152602001600060ff168152602001600060ff168152602001600060ff168152602001600060ff168152602001600060ff168152602001600060ff1681525090565b6000613f47613f4284614f63565b614f3e565b90508083825260208201905082856020860282011115613f6657600080fd5b60005b85811015613f965781613f7c88826140b0565b845260208401935060208301925050600181019050613f69565b5050509392505050565b6000613fb3613fae84614f8f565b614f3e565b905082815260208101848484011115613fcb57600080fd5b613fd6848285615245565b509392505050565b600081359050613fed81615afd565b92915050565b600082601f83011261400457600080fd5b8135614014848260208601613f34565b91505092915050565b60008135905061402c81615b14565b92915050565b60008151905061404181615b14565b92915050565b60008151905061405681615b2b565b92915050565b60008135905061406b81615b42565b92915050565b60008151905061408081615b42565b92915050565b600082601f83011261409757600080fd5b81356140a7848260208601613fa0565b91505092915050565b6000813590506140bf81615b59565b92915050565b6000813590506140d481615b70565b92915050565b6000815190506140e981615b70565b92915050565b60006020828403121561410157600080fd5b600061410f84828501613fde565b91505092915050565b6000806040838503121561412b57600080fd5b600061413985828601613fde565b925050602061414a85828601613fde565b9150509250929050565b60008060006060848603121561416957600080fd5b600061417786828701613fde565b935050602061418886828701613fde565b9250506040614199868287016140c5565b9150509250925092565b600080600080608085870312156141b957600080fd5b60006141c787828801613fde565b94505060206141d887828801613fde565b93505060406141e9878288016140c5565b925050606085013567ffffffffffffffff81111561420657600080fd5b61421287828801614086565b91505092959194509250565b6000806040838503121561423157600080fd5b600061423f85828601613fde565b92505060206142508582860161401d565b9150509250929050565b6000806040838503121561426d57600080fd5b600061427b85828601613fde565b925050602061428c858286016140c5565b9150509250929050565b6000602082840312156142a857600080fd5b600082013567ffffffffffffffff8111156142c257600080fd5b6142ce84828501613ff3565b91505092915050565b6000602082840312156142e957600080fd5b60006142f784828501614032565b91505092915050565b60006020828403121561431257600080fd5b600061432084828501614047565b91505092915050565b60006020828403121561433b57600080fd5b60006143498482850161405c565b91505092915050565b60006020828403121561436457600080fd5b600061437284828501614071565b91505092915050565b60006020828403121561438d57600080fd5b600061439b848285016140b0565b91505092915050565b6000602082840312156143b657600080fd5b60006143c4848285016140c5565b91505092915050565b6000602082840312156143df57600080fd5b60006143ed848285016140da565b91505092915050565b6000806040838503121561440957600080fd5b6000614417858286016140c5565b9250506020614428858286016140c5565b9150509250929050565b600061443e838361498e565b60208301905092915050565b61445381615188565b82525050565b600061446482614fd0565b61446e8185614ffe565b935061447983614fc0565b8060005b838110156144aa5781516144918882614432565b975061449c83614ff1565b92505060018101905061447d565b5085935050505092915050565b6144c08161519a565b82525050565b6144cf8161519a565b82525050565b6144e66144e18261519a565b61538b565b82525050565b60006144f782614fdb565b614501818561500f565b9350614511818560208601615254565b61451a816154cd565b840191505092915050565b600061453082614fe6565b61453a8185615020565b935061454a818560208601615254565b614553816154cd565b840191505092915050565b600061456982614fe6565b6145738185615031565b9350614583818560208601615254565b80840191505092915050565b600061459c602b83615020565b91506145a7826154eb565b604082019050919050565b60006145bf603283615020565b91506145ca8261553a565b604082019050919050565b60006145e2602683615020565b91506145ed82615589565b604082019050919050565b6000614605601983615020565b9150614610826155d8565b602082019050919050565b6000614628602583615020565b915061463382615601565b604082019050919050565b600061464b601c83615020565b915061465682615650565b602082019050919050565b600061466e602483615020565b915061467982615679565b604082019050919050565b6000614691601983615020565b915061469c826156c8565b602082019050919050565b60006146b4602e83615020565b91506146bf826156f1565b604082019050919050565b60006146d7601783615020565b91506146e282615740565b602082019050919050565b60006146fa601483615020565b915061470582615769565b602082019050919050565b600061471d602c83615020565b915061472882615792565b604082019050919050565b6000614740601083615020565b915061474b826157e1565b602082019050919050565b6000614763603883615020565b915061476e8261580a565b604082019050919050565b6000614786602a83615020565b915061479182615859565b604082019050919050565b60006147a9602983615020565b91506147b4826158a8565b604082019050919050565b60006147cc602083615020565b91506147d7826158f7565b602082019050919050565b60006147ef602c83615020565b91506147fa82615920565b604082019050919050565b6000614812602083615020565b915061481d8261596f565b602082019050919050565b6000614835602f83615020565b915061484082615998565b604082019050919050565b6000614858602183615020565b9150614863826159e7565b604082019050919050565b600061487b603183615020565b915061488682615a36565b604082019050919050565b600061489e602c83615020565b91506148a982615a85565b604082019050919050565b60006148c1602083615020565b91506148cc82615ad4565b602082019050919050565b610120820160008201516148ee60008501826144b7565b50602082015161490160208501826149d9565b50604082015161491460408501826149d9565b50606082015161492760608501826149d9565b50608082015161493a60808501826149d9565b5060a082015161494d60a08501826149d9565b5060c082015161496060c08501826149d9565b5060e082015161497360e08501826149d9565b506101008201516149886101008501826149d9565b50505050565b614997816151dc565b82525050565b6149a6816151dc565b82525050565b6149b58161520a565b82525050565b6149c481615214565b82525050565b6149d381615224565b82525050565b6149e281615238565b82525050565b6149f181615238565b82525050565b614a08614a0382615238565b61539d565b82525050565b6000614a1a828c6144d5565b600182019150614a2a828b6149f7565b600182019150614a3a828a6149f7565b600182019150614a4a82896149f7565b600182019150614a5a82886149f7565b600182019150614a6a82876149f7565b600182019150614a7a82866149f7565b600182019150614a8a82856149f7565b600182019150614a9a82846149f7565b6001820191508190509a9950505050505050505050565b6000614abd828561455e565b9150614ac9828461455e565b91508190509392505050565b6000602082019050614aea600083018461444a565b92915050565b6000608082019050614b05600083018761444a565b614b12602083018661444a565b614b1f60408301856149ac565b8181036060830152614b3181846144ec565b905095945050505050565b60006020820190508181036000830152614b568184614459565b905092915050565b6000602082019050614b7360008301846144c6565b92915050565b60006020820190508181036000830152614b938184614525565b905092915050565b60006020820190508181036000830152614bb48161458f565b9050919050565b60006020820190508181036000830152614bd4816145b2565b9050919050565b60006020820190508181036000830152614bf4816145d5565b9050919050565b60006020820190508181036000830152614c14816145f8565b9050919050565b60006020820190508181036000830152614c348161461b565b9050919050565b60006020820190508181036000830152614c548161463e565b9050919050565b60006020820190508181036000830152614c7481614661565b9050919050565b60006020820190508181036000830152614c9481614684565b9050919050565b60006020820190508181036000830152614cb4816146a7565b9050919050565b60006020820190508181036000830152614cd4816146ca565b9050919050565b60006020820190508181036000830152614cf4816146ed565b9050919050565b60006020820190508181036000830152614d1481614710565b9050919050565b60006020820190508181036000830152614d3481614733565b9050919050565b60006020820190508181036000830152614d5481614756565b9050919050565b60006020820190508181036000830152614d7481614779565b9050919050565b60006020820190508181036000830152614d948161479c565b9050919050565b60006020820190508181036000830152614db4816147bf565b9050919050565b60006020820190508181036000830152614dd4816147e2565b9050919050565b60006020820190508181036000830152614df481614805565b9050919050565b60006020820190508181036000830152614e1481614828565b9050919050565b60006020820190508181036000830152614e348161484b565b9050919050565b60006020820190508181036000830152614e548161486e565b9050919050565b60006020820190508181036000830152614e7481614891565b9050919050565b60006020820190508181036000830152614e94816148b4565b9050919050565b600061012082019050614eb160008301846148d7565b92915050565b6000602082019050614ecc600083018461499d565b92915050565b6000602082019050614ee760008301846149ac565b92915050565b6000602082019050614f0260008301846149bb565b92915050565b6000602082019050614f1d60008301846149ca565b92915050565b6000602082019050614f3860008301846149e8565b92915050565b6000614f48614f59565b9050614f5482826152b9565b919050565b6000604051905090565b600067ffffffffffffffff821115614f7e57614f7d61549e565b5b602082029050602081019050919050565b600067ffffffffffffffff821115614faa57614fa961549e565b5b614fb3826154cd565b9050602081019050919050565b6000819050602082019050919050565b600081519050919050565b600081519050919050565b600081519050919050565b6000602082019050919050565b600082825260208201905092915050565b600082825260208201905092915050565b600082825260208201905092915050565b600081905092915050565b60006150478261520a565b91506150528361520a565b9250827fffffffffffffffffffffffffffffffffffffffffffffffffffffffffffffffff0382111561508757615086615411565b5b828201905092915050565b600061509d82615238565b91506150a883615238565b92508260ff038211156150be576150bd615411565b5b828201905092915050565b60006150d48261520a565b91506150df8361520a565b9250826150ef576150ee615440565b5b828204905092915050565b60006151058261520a565b91506151108361520a565b9250817fffffffffffffffffffffffffffffffffffffffffffffffffffffffffffffffff048311821515161561514957615148615411565b5b828202905092915050565b600061515f8261520a565b915061516a8361520a565b92508282101561517d5761517c615411565b5b828203905092915050565b6000615193826151ea565b9050919050565b60008115159050919050565b6000819050919050565b60007fffffffff0000000000000000000000000000000000000000000000000000000082169050919050565b600061ffff82169050919050565b600073ffffffffffffffffffffffffffffffffffffffff82169050919050565b6000819050919050565b600063ffffffff82169050919050565b600067ffffffffffffffff82169050919050565b600060ff82169050919050565b82818337600083830152505050565b60005b83811015615272578082015181840152602081019050615257565b83811115615281576000848401525b50505050565b6000600282049050600182168061529f57607f821691505b602082108114156152b3576152b261546f565b5b50919050565b6152c2826154cd565b810181811067ffffffffffffffff821117156152e1576152e061549e565b5b80604052505050565b60006152f5826151dc565b915061ffff82141561530a57615309615411565b5b600182019050919050565b60006153208261520a565b91507fffffffffffffffffffffffffffffffffffffffffffffffffffffffffffffffff82141561535357615352615411565b5b600182019050919050565b600061536982615214565b915063ffffffff8214156153805761537f615411565b5b600182019050919050565b60006153968261539d565b9050919050565b60006153a8826154de565b9050919050565b60006153ba8261520a565b91506153c58361520a565b9250826153d5576153d4615440565b5b828206905092915050565b60006153eb82615238565b91506153f683615238565b92508261540657615405615440565b5b828206905092915050565b7f4e487b7100000000000000000000000000000000000000000000000000000000600052601160045260246000fd5b7f4e487b7100000000000000000000000000000000000000000000000000000000600052601260045260246000fd5b7f4e487b7100000000000000000000000000000000000000000000000000000000600052602260045260246000fd5b7f4e487b7100000000000000000000000000000000000000000000000000000000600052604160045260246000fd5b6000601f19601f8301169050919050565b60008160f81b9050919050565b7f455243373231456e756d657261626c653a206f776e657220696e646578206f7560008201527f74206f6620626f756e6473000000000000000000000000000000000000000000602082015250565b7f4552433732313a207472616e7366657220746f206e6f6e20455243373231526560008201527f63656976657220696d706c656d656e7465720000000000000000000000000000602082015250565b7f4f776e61626c653a206e6577206f776e657220697320746865207a65726f206160008201527f6464726573730000000000000000000000000000000000000000000000000000602082015250565b7f4f6e6c792061646d696e732063616e2063616c6c207468697300000000000000600082015250565b7f4552433732313a207472616e736665722066726f6d20696e636f72726563742060008201527f6f776e6572000000000000000000000000000000000000000000000000000000602082015250565b7f4552433732313a20746f6b656e20616c7265616479206d696e74656400000000600082015250565b7f4552433732313a207472616e7366657220746f20746865207a65726f2061646460008201527f7265737300000000000000000000000000000000000000000000000000000000602082015250565b7f4552433732313a20617070726f766520746f2063616c6c657200000000000000600082015250565b7f4552433732313a207472616e736665722063616c6c6572206e6f74206f776e6560008201527f72206e6f7220617070726f766564000000000000000000000000000000000000602082015250565b7f4f6f707320796f7520646f6e2774206f776e2074686174000000000000000000600082015250565b7f546f6b656e20646f6573206e6f74206578697374000000000000000000000000600082015250565b7f4552433732313a206f70657261746f7220717565727920666f72206e6f6e657860008201527f697374656e7420746f6b656e0000000000000000000000000000000000000000602082015250565b7f5061757361626c653a2070617573656400000000000000000000000000000000600082015250565b7f4552433732313a20617070726f76652063616c6c6572206973206e6f74206f7760008201527f6e6572206e6f7220617070726f76656420666f7220616c6c0000000000000000602082015250565b7f4552433732313a2062616c616e636520717565727920666f7220746865207a6560008201527f726f206164647265737300000000000000000000000000000000000000000000602082015250565b7f4552433732313a206f776e657220717565727920666f72206e6f6e657869737460008201527f656e7420746f6b656e0000000000000000000000000000000000000000000000602082015250565b7f4552433732313a206d696e7420746f20746865207a65726f2061646472657373600082015250565b7f4552433732313a20617070726f76656420717565727920666f72206e6f6e657860008201527f697374656e7420746f6b656e0000000000000000000000000000000000000000602082015250565b7f4f776e61626c653a2063616c6c6572206973206e6f7420746865206f776e6572600082015250565b7f4552433732314d657461646174613a2055524920717565727920666f72206e6f60008201527f6e6578697374656e7420746f6b656e0000000000000000000000000000000000602082015250565b7f4552433732313a20617070726f76616c20746f2063757272656e74206f776e6560008201527f7200000000000000000000000000000000000000000000000000000000000000602082015250565b7f4552433732313a207472616e736665722063616c6c6572206973206e6f74206f60008201527f776e6572206e6f7220617070726f766564000000000000000000000000000000602082015250565b7f455243373231456e756d657261626c653a20676c6f62616c20696e646578206f60008201527f7574206f6620626f756e64730000000000000000000000000000000000000000602082015250565b7f756e61626c6520746f2067656e657261746520756e6971756520747261697473600082015250565b615b0681615188565b8114615b1157600080fd5b50565b615b1d8161519a565b8114615b2857600080fd5b50565b615b34816151a6565b8114615b3f57600080fd5b50565b615b4b816151b0565b8114615b5657600080fd5b50565b615b62816151dc565b8114615b6d57600080fd5b50565b615b798161520a565b8114615b8457600080fd5b5056fea2646970667358221220e8fa06725aca4ae5880002495116ce2a7b2054d6310488a92491110d9e21605564736f6c63430008010033",
  "linkReferences": {},
  "deployedLinkReferences": {}
}