{
  "_format": "hh-sol-artifact-1",
  "contractName": "EarlyBirdsGame",
  "sourceName": "contracts/EarlyBirdsGame.sol",
  "abi": [
    {
      "anonymous": false,
      "inputs": [
        {
          "indexed": true,
          "internalType": "address",
          "name": "previousOwner",
          "type": "address"
        },
        {
          "indexed": true,
          "internalType": "address",
          "name": "newOwner",
          "type": "address"
        }
      ],
      "name": "OwnershipTransferred",
      "type": "event"
    },
    {
      "anonymous": false,
      "inputs": [
        {
          "indexed": false,
          "internalType": "address",
          "name": "account",
          "type": "address"
        }
      ],
      "name": "Paused",
      "type": "event"
    },
    {
      "anonymous": false,
      "inputs": [
        {
          "indexed": false,
          "internalType": "address",
          "name": "account",
          "type": "address"
        }
      ],
      "name": "Unpaused",
      "type": "event"
    },
    {
      "inputs": [],
      "name": "FEATHER_COST",
      "outputs": [
        {
          "internalType": "uint128",
          "name": "",
          "type": "uint128"
        }
      ],
      "stateMutability": "view",
      "type": "function"
    },
    {
      "inputs": [],
      "name": "MAXIMUM_DIRT",
      "outputs": [
        {
          "internalType": "uint128",
          "name": "",
          "type": "uint128"
        }
      ],
      "stateMutability": "view",
      "type": "function"
    },
    {
      "inputs": [],
      "name": "MINT_PRICE",
      "outputs": [
        {
          "internalType": "uint256",
          "name": "",
          "type": "uint256"
        }
      ],
      "stateMutability": "view",
      "type": "function"
    },
    {
      "inputs": [],
      "name": "ancientTree",
      "outputs": [
        {
          "internalType": "contract IAncientTree",
          "name": "",
          "type": "address"
        }
      ],
      "stateMutability": "view",
      "type": "function"
    },
    {
      "inputs": [],
      "name": "birdBath",
      "outputs": [
        {
          "internalType": "contract IBirdBath",
          "name": "",
          "type": "address"
        }
      ],
      "stateMutability": "view",
      "type": "function"
    },
    {
      "inputs": [
        {
          "internalType": "uint16",
          "name": "tokenId",
          "type": "uint16"
        },
        {
          "internalType": "uint256",
          "name": "dirtAmount",
          "type": "uint256"
        }
      ],
      "name": "buySecretEgg",
      "outputs": [],
      "stateMutability": "nonpayable",
      "type": "function"
    },
    {
      "inputs": [
        {
          "internalType": "uint256",
          "name": "dirtAmount",
          "type": "uint256"
        }
      ],
      "name": "buySecretKey",
      "outputs": [],
      "stateMutability": "nonpayable",
      "type": "function"
    },
    {
      "inputs": [],
      "name": "dirtContract",
      "outputs": [
        {
          "internalType": "contract IDirt",
          "name": "",
          "type": "address"
        }
      ],
      "stateMutability": "view",
      "type": "function"
    },
    {
      "inputs": [],
      "name": "earlyBirdsNFT",
      "outputs": [
        {
          "internalType": "contract IEarlyBirdsNFT",
          "name": "",
          "type": "address"
        }
      ],
      "stateMutability": "view",
      "type": "function"
    },
    {
      "inputs": [],
      "name": "featherTypeID",
      "outputs": [
        {
          "internalType": "uint256",
          "name": "",
          "type": "uint256"
        }
      ],
      "stateMutability": "view",
      "type": "function"
    },
    {
      "inputs": [],
      "name": "gen0MintingActive",
      "outputs": [
        {
          "internalType": "bool",
          "name": "",
          "type": "bool"
        }
      ],
      "stateMutability": "view",
      "type": "function"
    },
    {
      "inputs": [],
      "name": "getGen0MintingStatus",
      "outputs": [
        {
          "internalType": "bool",
          "name": "",
          "type": "bool"
        }
      ],
      "stateMutability": "view",
      "type": "function"
    },
    {
      "inputs": [],
      "name": "getMintingStatus",
      "outputs": [
        {
          "internalType": "bool",
          "name": "",
          "type": "bool"
        }
      ],
      "stateMutability": "view",
      "type": "function"
    },
    {
      "inputs": [
        {
          "internalType": "uint16",
          "name": "qty",
          "type": "uint16"
        }
      ],
      "name": "makeFeather",
      "outputs": [],
      "stateMutability": "nonpayable",
      "type": "function"
    },
    {
      "inputs": [
        {
          "internalType": "uint32",
          "name": "amount",
          "type": "uint32"
        },
        {
          "internalType": "bool",
          "name": "stake",
          "type": "bool"
        },
        {
          "internalType": "uint256",
          "name": "originSeed",
          "type": "uint256"
        }
      ],
      "name": "mint",
      "outputs": [],
      "stateMutability": "nonpayable",
      "type": "function"
    },
    {
      "inputs": [],
      "name": "mintingActive",
      "outputs": [
        {
          "internalType": "bool",
          "name": "",
          "type": "bool"
        }
      ],
      "stateMutability": "view",
      "type": "function"
    },
    {
      "inputs": [
        {
          "internalType": "address",
          "name": "",
          "type": "address"
        },
        {
          "internalType": "address",
          "name": "from",
          "type": "address"
        },
        {
          "internalType": "uint256",
          "name": "",
          "type": "uint256"
        },
        {
          "internalType": "bytes",
          "name": "",
          "type": "bytes"
        }
      ],
      "name": "onERC721Received",
      "outputs": [
        {
          "internalType": "bytes4",
          "name": "",
          "type": "bytes4"
        }
      ],
      "stateMutability": "pure",
      "type": "function"
    },
    {
      "inputs": [],
      "name": "owner",
      "outputs": [
        {
          "internalType": "address",
          "name": "",
          "type": "address"
        }
      ],
      "stateMutability": "view",
      "type": "function"
    },
    {
      "inputs": [],
      "name": "paused",
      "outputs": [
        {
          "internalType": "bool",
          "name": "",
          "type": "bool"
        }
      ],
      "stateMutability": "view",
      "type": "function"
    },
    {
      "inputs": [],
      "name": "randomGetter",
      "outputs": [
        {
          "internalType": "contract IRandomNumberConsumer",
          "name": "",
          "type": "address"
        }
      ],
      "stateMutability": "view",
      "type": "function"
    },
    {
      "inputs": [],
      "name": "renounceOwnership",
      "outputs": [],
      "stateMutability": "nonpayable",
      "type": "function"
    },
    {
      "inputs": [
        {
          "internalType": "address",
          "name": "_dirtContract",
          "type": "address"
        },
        {
          "internalType": "address",
          "name": "_earlyBirdsNFT",
          "type": "address"
        },
        {
          "internalType": "address",
          "name": "_randomGetter",
          "type": "address"
        },
        {
          "internalType": "address",
          "name": "_birdBath",
          "type": "address"
        },
        {
          "internalType": "address",
          "name": "_ancientTree",
          "type": "address"
        },
        {
          "internalType": "address",
          "name": "_testERC20",
          "type": "address"
        }
      ],
      "name": "setContracts",
      "outputs": [],
      "stateMutability": "nonpayable",
      "type": "function"
    },
    {
      "inputs": [
        {
          "internalType": "uint256",
          "name": "typeId",
          "type": "uint256"
        }
      ],
      "name": "setFeatherId",
      "outputs": [],
      "stateMutability": "nonpayable",
      "type": "function"
    },
    {
      "inputs": [
        {
          "internalType": "bool",
          "name": "_gen0MintingActive",
          "type": "bool"
        }
      ],
      "name": "setGen0MintingStatus",
      "outputs": [],
      "stateMutability": "nonpayable",
      "type": "function"
    },
    {
      "inputs": [
        {
          "internalType": "bool",
          "name": "_mintingActive",
          "type": "bool"
        }
      ],
      "name": "setMintingStatus",
      "outputs": [],
      "stateMutability": "nonpayable",
      "type": "function"
    },
    {
      "inputs": [
        {
          "internalType": "bool",
          "name": "_paused",
          "type": "bool"
        }
      ],
      "name": "setPaused",
      "outputs": [],
      "stateMutability": "nonpayable",
      "type": "function"
    },
    {
      "inputs": [],
      "name": "testERC20",
      "outputs": [
        {
          "internalType": "contract IERC20",
          "name": "",
          "type": "address"
        }
      ],
      "stateMutability": "view",
      "type": "function"
    },
    {
      "inputs": [],
      "name": "totalDirtEarned",
      "outputs": [
        {
          "internalType": "uint128",
          "name": "",
          "type": "uint128"
        }
      ],
      "stateMutability": "view",
      "type": "function"
    },
    {
      "inputs": [
        {
          "internalType": "address",
          "name": "newOwner",
          "type": "address"
        }
      ],
      "name": "transferOwnership",
      "outputs": [],
      "stateMutability": "nonpayable",
      "type": "function"
    }
  ],
  "bytecode": "0x6080604052620119406003556000600460006101000a81548160ff0219169083151502179055506000600460016101000a81548160ff0219169083151502179055503480156200004e57600080fd5b506200006f620000636200009760201b60201c565b6200009f60201b60201c565b600180819055506000600260006101000a81548160ff02191690831515021790555062000163565b600033905090565b60008060009054906101000a900473ffffffffffffffffffffffffffffffffffffffff169050816000806101000a81548173ffffffffffffffffffffffffffffffffffffffff021916908373ffffffffffffffffffffffffffffffffffffffff1602179055508173ffffffffffffffffffffffffffffffffffffffff168173ffffffffffffffffffffffffffffffffffffffff167f8be0079c531659141344cd1fd0a4f28419497f9722a3daafe3b4186f6b6457e060405160405180910390a35050565b614c6e80620001736000396000f3fe608060405234801561001057600080fd5b50600436106101cf5760003560e01c8063715018a611610104578063c002d23d116100a2578063d30f2cc411610071578063d30f2cc4146104b0578063d94f02d5146104ce578063ddb2dbcf146104ec578063f2fde38b14610508576101cf565b8063c002d23d1461043a578063c6017afe14610458578063cae3187914610474578063cfc3a89414610492576101cf565b80638da5cb5b116100de5780638da5cb5b146103c25780638fbf1e1b146103e057806395a47652146103fe578063acd0fdd11461041c576101cf565b8063715018a614610380578063724d3e901461038a5780637420aa36146103a6576101cf565b806331f9c919116101715780634c6bcfde1161014b5780634c6bcfde146103085780635c975abb146103265780636597d68f146103445780636dd106db14610362576101cf565b806331f9c919146102b05780633c2f05a8146102ce57806349a761a1146102ec576101cf565b80631ab24c5d116101ad5780631ab24c5d1461023e57806323035ef31461025a5780632463a55a1461027657806330b5495114610292576101cf565b806309086266146101d4578063150b7a02146101f257806316c38b3c14610222575b600080fd5b6101dc610524565b6040516101e99190613e4d565b60405180910390f35b61020c6004803603810190610207919061355d565b61054a565b6040516102199190613e17565b60405180910390f35b61023c600480360381019061023791906135dd565b6105cd565b005b610258600480360381019061025391906135dd565b610866565b005b610274600480360381019061026f91906136e7565b6108ff565b005b610290600480360381019061028b91906134d4565b610dd2565b005b61029a610fdc565b6040516102a79190613e32565b60405180910390f35b6102b8611002565b6040516102c59190613dfc565b60405180910390f35b6102d6611015565b6040516102e39190613e83565b60405180910390f35b61030660048036038101906103019190613739565b61103b565b005b610310611dcf565b60405161031d9190613e68565b60405180910390f35b61032e611df5565b60405161033b9190613dfc565b60405180910390f35b61034c611e0c565b6040516103599190613e9e565b60405180910390f35b61036a611e32565b6040516103779190613dfc565b60405180910390f35b610388611e45565b005b6103a4600480360381019061039f9190613659565b611ecd565b005b6103c060048036038101906103bb91906135dd565b61223a565b005b6103ca6122d3565b6040516103d79190613ca7565b60405180910390f35b6103e86122fc565b6040516103f591906141f0565b60405180910390f35b61040661230c565b6040516104139190613dfc565b60405180910390f35b610424612323565b60405161043191906141f0565b60405180910390f35b610442612331565b60405161044f9190614241565b60405180910390f35b610472600480360381019061046d91906136e7565b61233c565b005b61047c6123c2565b60405161048991906141f0565b60405180910390f35b61049a6123e4565b6040516104a79190614241565b60405180910390f35b6104b86123ea565b6040516104c59190613eb9565b60405180910390f35b6104d6612410565b6040516104e39190613dfc565b60405180910390f35b610506600480360381019061050191906136ab565b612427565b005b610522600480360381019061051d9190613482565b612caa565b005b600960009054906101000a900473ffffffffffffffffffffffffffffffffffffffff1681565b60008073ffffffffffffffffffffffffffffffffffffffff168573ffffffffffffffffffffffffffffffffffffffff16146105ba576040517f08c379a00000000000000000000000000000000000000000000000000000000081526004016105b190614190565b60405180910390fd5b63150b7a0260e01b905095945050505050565b600073ffffffffffffffffffffffffffffffffffffffff16600760009054906101000a900473ffffffffffffffffffffffffffffffffffffffff1673ffffffffffffffffffffffffffffffffffffffff161415801561067b5750600073ffffffffffffffffffffffffffffffffffffffff16600860009054906101000a900473ffffffffffffffffffffffffffffffffffffffff1673ffffffffffffffffffffffffffffffffffffffff1614155b80156106d65750600073ffffffffffffffffffffffffffffffffffffffff16600960009054906101000a900473ffffffffffffffffffffffffffffffffffffffff1673ffffffffffffffffffffffffffffffffffffffff1614155b80156107315750600073ffffffffffffffffffffffffffffffffffffffff16600a60009054906101000a900473ffffffffffffffffffffffffffffffffffffffff1673ffffffffffffffffffffffffffffffffffffffff1614155b801561078c5750600073ffffffffffffffffffffffffffffffffffffffff16600c60009054906101000a900473ffffffffffffffffffffffffffffffffffffffff1673ffffffffffffffffffffffffffffffffffffffff1614155b6107cb576040517f08c379a00000000000000000000000000000000000000000000000000000000081526004016107c290614010565b60405180910390fd5b6107d3612da2565b73ffffffffffffffffffffffffffffffffffffffff166107f16122d3565b73ffffffffffffffffffffffffffffffffffffffff1614610847576040517f08c379a000000000000000000000000000000000000000000000000000000000815260040161083e90614130565b60405180910390fd5b801561085a57610855612daa565b610863565b610862612e4d565b5b50565b61086e612da2565b73ffffffffffffffffffffffffffffffffffffffff1661088c6122d3565b73ffffffffffffffffffffffffffffffffffffffff16146108e2576040517f08c379a00000000000000000000000000000000000000000000000000000000081526004016108d990614130565b60405180910390fd5b80600460016101000a81548160ff02191690831515021790555050565b610907611df5565b15610947576040517f08c379a000000000000000000000000000000000000000000000000000000000815260040161093e906140d0565b60405180910390fd5b6002600154141561098d576040517f08c379a0000000000000000000000000000000000000000000000000000000008152600401610984906141b0565b60405180910390fd5b600260018190555061099d612da2565b73ffffffffffffffffffffffffffffffffffffffff163273ffffffffffffffffffffffffffffffffffffffff1614610a0a576040517f08c379a0000000000000000000000000000000000000000000000000000000008152600401610a0190614050565b60405180910390fd5b6000600860009054906101000a900473ffffffffffffffffffffffffffffffffffffffff1673ffffffffffffffffffffffffffffffffffffffff16633726230a6040518163ffffffff1660e01b815260040160206040518083038186803b158015610a7457600080fd5b505afa158015610a88573d6000803e3d6000fd5b505050506040513d601f19601f82011682018060405250810190610aac9190613682565b90506000600860009054906101000a900473ffffffffffffffffffffffffffffffffffffffff1673ffffffffffffffffffffffffffffffffffffffff16633ba3d377836040518263ffffffff1660e01b8152600401610b0b919061420b565b60206040518083038186803b158015610b2357600080fd5b505afa158015610b37573d6000803e3d6000fd5b505050506040513d601f19601f82011682018060405250810190610b5b9190613710565b905060008111610ba0576040517f08c379a0000000000000000000000000000000000000000000000000000000008152600401610b9790613fb0565b60405180910390fd5b80831015610be3576040517f08c379a0000000000000000000000000000000000000000000000000000000008152600401610bda906140b0565b60405180910390fd5b600760009054906101000a900473ffffffffffffffffffffffffffffffffffffffff1673ffffffffffffffffffffffffffffffffffffffff16639dc29fac610c29612da2565b856040518363ffffffff1660e01b8152600401610c47929190613dd3565b600060405180830381600087803b158015610c6157600080fd5b505af1158015610c75573d6000803e3d6000fd5b50505050600281610c8691906143ed565b831015610d2b57600960009054906101000a900473ffffffffffffffffffffffffffffffffffffffff1673ffffffffffffffffffffffffffffffffffffffff166351416019600180610cd6612da2565b6040518463ffffffff1660e01b8152600401610cf493929190613ed4565b600060405180830381600087803b158015610d0e57600080fd5b505af1158015610d22573d6000803e3d6000fd5b50505050610dc6565b600960009054906101000a900473ffffffffffffffffffffffffffffffffffffffff1673ffffffffffffffffffffffffffffffffffffffff16635141601960026001610d75612da2565b6040518463ffffffff1660e01b8152600401610d9393929190613f0b565b600060405180830381600087803b158015610dad57600080fd5b505af1158015610dc1573d6000803e3d6000fd5b505050505b50506001808190555050565b610dda612da2565b73ffffffffffffffffffffffffffffffffffffffff16610df86122d3565b73ffffffffffffffffffffffffffffffffffffffff1614610e4e576040517f08c379a0000000000000000000000000000000000000000000000000000000008152600401610e4590614130565b60405180910390fd5b85600760006101000a81548173ffffffffffffffffffffffffffffffffffffffff021916908373ffffffffffffffffffffffffffffffffffffffff16021790555084600860006101000a81548173ffffffffffffffffffffffffffffffffffffffff021916908373ffffffffffffffffffffffffffffffffffffffff16021790555082600960006101000a81548173ffffffffffffffffffffffffffffffffffffffff021916908373ffffffffffffffffffffffffffffffffffffffff16021790555083600a60006101000a81548173ffffffffffffffffffffffffffffffffffffffff021916908373ffffffffffffffffffffffffffffffffffffffff16021790555081600b60006101000a81548173ffffffffffffffffffffffffffffffffffffffff021916908373ffffffffffffffffffffffffffffffffffffffff16021790555080600c60006101000a81548173ffffffffffffffffffffffffffffffffffffffff021916908373ffffffffffffffffffffffffffffffffffffffff160217905550505050505050565b600b60009054906101000a900473ffffffffffffffffffffffffffffffffffffffff1681565b600460009054906101000a900460ff1681565b600c60009054906101000a900473ffffffffffffffffffffffffffffffffffffffff1681565b611043611df5565b15611083576040517f08c379a000000000000000000000000000000000000000000000000000000000815260040161107a906140d0565b60405180910390fd5b600260015414156110c9576040517f08c379a00000000000000000000000000000000000000000000000000000000081526004016110c0906141b0565b60405180910390fd5b60026001819055506110d9612da2565b73ffffffffffffffffffffffffffffffffffffffff163273ffffffffffffffffffffffffffffffffffffffff1614611146576040517f08c379a000000000000000000000000000000000000000000000000000000000815260040161113d90614050565b60405180910390fd5b6000600860009054906101000a900473ffffffffffffffffffffffffffffffffffffffff1673ffffffffffffffffffffffffffffffffffffffff16633726230a6040518163ffffffff1660e01b815260040160206040518083038186803b1580156111b057600080fd5b505afa1580156111c4573d6000803e3d6000fd5b505050506040513d601f19601f820116820180604052508101906111e89190613682565b90506000600860009054906101000a900473ffffffffffffffffffffffffffffffffffffffff1673ffffffffffffffffffffffffffffffffffffffff16636abcded16040518163ffffffff1660e01b815260040160206040518083038186803b15801561125457600080fd5b505afa158015611268573d6000803e3d6000fd5b505050506040513d601f19601f8201168201806040525081019061128c9190613710565b90506000600860009054906101000a900473ffffffffffffffffffffffffffffffffffffffff1673ffffffffffffffffffffffffffffffffffffffff16631f46452f6040518163ffffffff1660e01b815260040160206040518083038186803b1580156112f857600080fd5b505afa15801561130c573d6000803e3d6000fd5b505050506040513d601f19601f820116820180604052508101906113309190613710565b905060008663ffffffff1611801561134e5750808663ffffffff1611155b61138d576040517f08c379a000000000000000000000000000000000000000000000000000000000815260040161138490613ff0565b60405180910390fd5b600460009054906101000a900460ff166113dc576040517f08c379a00000000000000000000000000000000000000000000000000000000081526004016113d3906141d0565b60405180910390fd5b81868461ffff166113ed9190614369565b63ffffffff161115611434576040517f08c379a000000000000000000000000000000000000000000000000000000000815260040161142b90614110565b60405180910390fd5b6000856114b057600067ffffffffffffffff81111561147c577f4e487b7100000000000000000000000000000000000000000000000000000000600052604160045260246000fd5b6040519080825280602002602001820160405280156114aa5781602001602082028036833780820191505090505b50611526565b8663ffffffff1667ffffffffffffffff8111156114f6577f4e487b7100000000000000000000000000000000000000000000000000000000600052604160045260246000fd5b6040519080825280602002602001820160405280156115245781602001602082028036833780820191505090505b505b90506000806000600860009054906101000a900473ffffffffffffffffffffffffffffffffffffffff1673ffffffffffffffffffffffffffffffffffffffff166354c96c836040518163ffffffff1660e01b815260040160206040518083038186803b15801561159557600080fd5b505afa1580156115a9573d6000803e3d6000fd5b505050506040513d601f19601f820116820180604052508101906115cd9190613710565b90506000889050818b8961ffff166115e59190614369565b63ffffffff161115801561160c575060011515600460019054906101000a900460ff161515145b1561162d5766b1a2bc2ec500008b63ffffffff1661162a91906143ed565b92505b60005b8b63ffffffff168163ffffffff161015611ace57888061164f906146db565b995050600860009054906101000a900473ffffffffffffffffffffffffffffffffffffffff1673ffffffffffffffffffffffffffffffffffffffff16633ba3d3778a6040518263ffffffff1660e01b81526004016116ad919061420b565b60206040518083038186803b1580156116c557600080fd5b505afa1580156116d9573d6000803e3d6000fd5b505050506040513d601f19601f820116820180604052508101906116fd9190613710565b856117089190614313565b9450611718828a61ffff16612eef565b9150600061172583612f38565b905061172f612da2565b73ffffffffffffffffffffffffffffffffffffffff168173ffffffffffffffffffffffffffffffffffffffff161415801561182057506000600960009054906101000a900473ffffffffffffffffffffffffffffffffffffffff1673ffffffffffffffffffffffffffffffffffffffff1662fdd58e6117ac612da2565b6005546040518363ffffffff1660e01b81526004016117cc929190613dd3565b602060405180830381600087803b1580156117e657600080fd5b505af11580156117fa573d6000803e3d6000fd5b505050506040513d601f19601f8201168201806040525081019061181e9190613710565b115b156118d957600180841614156118d857600960009054906101000a900473ffffffffffffffffffffffffffffffffffffffff1673ffffffffffffffffffffffffffffffffffffffff1663f242432a611876612da2565b8360055460016040518563ffffffff1660e01b815260040161189b9493929190613d22565b600060405180830381600087803b1580156118b557600080fd5b505af11580156118c9573d6000803e3d6000fd5b505050506118d5612da2565b90505b5b8b158061191957506118e9612da2565b73ffffffffffffffffffffffffffffffffffffffff168173ffffffffffffffffffffffffffffffffffffffff1614155b156119b257600860009054906101000a900473ffffffffffffffffffffffffffffffffffffffff1673ffffffffffffffffffffffffffffffffffffffff166340c10f1982856040518363ffffffff1660e01b815260040161197b929190613dd3565b600060405180830381600087803b15801561199557600080fd5b505af11580156119a9573d6000803e3d6000fd5b50505050611aba565b89878363ffffffff16815181106119f2577f4e487b7100000000000000000000000000000000000000000000000000000000600052603260045260246000fd5b602002602001019061ffff16908161ffff1681525050600860009054906101000a900473ffffffffffffffffffffffffffffffffffffffff1673ffffffffffffffffffffffffffffffffffffffff166340c10f19600b60009054906101000a900473ffffffffffffffffffffffffffffffffffffffff16856040518363ffffffff1660e01b8152600401611a87929190613dd3565b600060405180830381600087803b158015611aa157600080fd5b505af1158015611ab5573d6000803e3d6000fd5b505050505b508080611ac690614706565b915050611630565b506000831115611c84576000600c60009054906101000a900473ffffffffffffffffffffffffffffffffffffffff1673ffffffffffffffffffffffffffffffffffffffff1663dd62ed3e33306040518363ffffffff1660e01b8152600401611b37929190613cc2565b60206040518083038186803b158015611b4f57600080fd5b505afa158015611b63573d6000803e3d6000fd5b505050506040513d601f19601f82011682018060405250810190611b879190613710565b905083811015611bcc576040517f08c379a0000000000000000000000000000000000000000000000000000000008152600401611bc3906140f0565b60405180910390fd5b600c60009054906101000a900473ffffffffffffffffffffffffffffffffffffffff1673ffffffffffffffffffffffffffffffffffffffff166323b872dd3330876040518463ffffffff1660e01b8152600401611c2b93929190613ceb565b602060405180830381600087803b158015611c4557600080fd5b505af1158015611c59573d6000803e3d6000fd5b505050506040513d601f19601f82011682018060405250810190611c7d9190613606565b5050611d1e565b6000841115611d1d57600760009054906101000a900473ffffffffffffffffffffffffffffffffffffffff1673ffffffffffffffffffffffffffffffffffffffff16639dc29fac33866040518363ffffffff1660e01b8152600401611cea929190613dd3565b600060405180830381600087803b158015611d0457600080fd5b505af1158015611d18573d6000803e3d6000fd5b505050505b5b8915611dbb57600b60009054906101000a900473ffffffffffffffffffffffffffffffffffffffff1673ffffffffffffffffffffffffffffffffffffffff166392849377611d6a612da2565b876040518363ffffffff1660e01b8152600401611d88929190613d7a565b600060405180830381600087803b158015611da257600080fd5b505af1158015611db6573d6000803e3d6000fd5b505050505b505050505050505060018081905550505050565b600760009054906101000a900473ffffffffffffffffffffffffffffffffffffffff1681565b6000600260009054906101000a900460ff16905090565b600860009054906101000a900473ffffffffffffffffffffffffffffffffffffffff1681565b600460019054906101000a900460ff1681565b611e4d612da2565b73ffffffffffffffffffffffffffffffffffffffff16611e6b6122d3565b73ffffffffffffffffffffffffffffffffffffffff1614611ec1576040517f08c379a0000000000000000000000000000000000000000000000000000000008152600401611eb890614130565b60405180910390fd5b611ecb60006131b1565b565b611ed5611df5565b15611f15576040517f08c379a0000000000000000000000000000000000000000000000000000000008152600401611f0c906140d0565b60405180910390fd5b611f1d612da2565b73ffffffffffffffffffffffffffffffffffffffff163273ffffffffffffffffffffffffffffffffffffffff1614611f8a576040517f08c379a0000000000000000000000000000000000000000000000000000000008152600401611f8190614050565b60405180910390fd5b600060055414611fcf576040517f08c379a0000000000000000000000000000000000000000000000000000000008152600401611fc690614090565b60405180910390fd5b8061ffff16690a968163f0a57b400000611fe991906143a3565b6fffffffffffffffffffffffffffffffff16600760009054906101000a900473ffffffffffffffffffffffffffffffffffffffff1673ffffffffffffffffffffffffffffffffffffffff166370a08231612041612da2565b6040518263ffffffff1660e01b815260040161205d9190613ca7565b60206040518083038186803b15801561207557600080fd5b505afa158015612089573d6000803e3d6000fd5b505050506040513d601f19601f820116820180604052508101906120ad9190613710565b10156120ee576040517f08c379a00000000000000000000000000000000000000000000000000000000081526004016120e590614170565b60405180910390fd5b600760009054906101000a900473ffffffffffffffffffffffffffffffffffffffff1673ffffffffffffffffffffffffffffffffffffffff16639dc29fac612134612da2565b8361ffff16690a968163f0a57b40000061214e91906143a3565b6040518363ffffffff1660e01b815260040161216b929190613daa565b600060405180830381600087803b15801561218557600080fd5b505af1158015612199573d6000803e3d6000fd5b50505050600960009054906101000a900473ffffffffffffffffffffffffffffffffffffffff1673ffffffffffffffffffffffffffffffffffffffff166351416019600554836121e7612da2565b6040518463ffffffff1660e01b81526004016122059392919061425c565b600060405180830381600087803b15801561221f57600080fd5b505af1158015612233573d6000803e3d6000fd5b5050505050565b612242612da2565b73ffffffffffffffffffffffffffffffffffffffff166122606122d3565b73ffffffffffffffffffffffffffffffffffffffff16146122b6576040517f08c379a00000000000000000000000000000000000000000000000000000000081526004016122ad90614130565b60405180910390fd5b80600460006101000a81548160ff02191690831515021790555050565b60008060009054906101000a900473ffffffffffffffffffffffffffffffffffffffff16905090565b6b09b18ab5df7180b6b800000081565b6000600460009054906101000a900460ff16905090565b690a968163f0a57b40000081565b66b1a2bc2ec5000081565b612344612da2565b73ffffffffffffffffffffffffffffffffffffffff166123626122d3565b73ffffffffffffffffffffffffffffffffffffffff16146123b8576040517f08c379a00000000000000000000000000000000000000000000000000000000081526004016123af90614130565b60405180910390fd5b8060058190555050565b600660009054906101000a90046fffffffffffffffffffffffffffffffff1681565b60055481565b600a60009054906101000a900473ffffffffffffffffffffffffffffffffffffffff1681565b6000600460019054906101000a900460ff16905090565b61242f611df5565b1561246f576040517f08c379a0000000000000000000000000000000000000000000000000000000008152600401612466906140d0565b60405180910390fd5b600260015414156124b5576040517f08c379a00000000000000000000000000000000000000000000000000000000081526004016124ac906141b0565b60405180910390fd5b60026001819055506124c5612da2565b73ffffffffffffffffffffffffffffffffffffffff163273ffffffffffffffffffffffffffffffffffffffff1614612532576040517f08c379a000000000000000000000000000000000000000000000000000000000815260040161252990614050565b60405180910390fd5b6000600860009054906101000a900473ffffffffffffffffffffffffffffffffffffffff1673ffffffffffffffffffffffffffffffffffffffff1663ebd17368846040518263ffffffff1660e01b815260040161258f9190614226565b60206040518083038186803b1580156125a757600080fd5b505afa1580156125bb573d6000803e3d6000fd5b505050506040513d601f19601f820116820180604052508101906125df9190613788565b9050438167ffffffffffffffff161061262d576040517f08c379a000000000000000000000000000000000000000000000000000000000815260040161262490614070565b60405180910390fd5b6000600860009054906101000a900473ffffffffffffffffffffffffffffffffffffffff1673ffffffffffffffffffffffffffffffffffffffff166343e55e30856040518263ffffffff1660e01b815260040161268a919061420b565b6101206040518083038186803b1580156126a357600080fd5b505afa1580156126b7573d6000803e3d6000fd5b505050506040513d601f19601f820116820180604052508101906126db919061362f565b90506000600860009054906101000a900473ffffffffffffffffffffffffffffffffffffffff1673ffffffffffffffffffffffffffffffffffffffff16633726230a6040518163ffffffff1660e01b815260040160206040518083038186803b15801561274757600080fd5b505afa15801561275b573d6000803e3d6000fd5b505050506040513d601f19601f8201168201806040525081019061277f9190613682565b90506000600860009054906101000a900473ffffffffffffffffffffffffffffffffffffffff1673ffffffffffffffffffffffffffffffffffffffff16633ba3d377836040518263ffffffff1660e01b81526004016127de919061420b565b60206040518083038186803b1580156127f657600080fd5b505afa15801561280a573d6000803e3d6000fd5b505050506040513d601f19601f8201168201806040525081019061282e9190613710565b905060008111612873576040517f08c379a000000000000000000000000000000000000000000000000000000000815260040161286a90613fb0565b60405180910390fd5b826000015115612a8e5760038161288a91906143ed565b8510156128cc576040517f08c379a00000000000000000000000000000000000000000000000000000000081526004016128c390614150565b60405180910390fd5b600760009054906101000a900473ffffffffffffffffffffffffffffffffffffffff1673ffffffffffffffffffffffffffffffffffffffff16639dc29fac612912612da2565b876040518363ffffffff1660e01b8152600401612930929190613dd3565b600060405180830381600087803b15801561294a57600080fd5b505af115801561295e573d6000803e3d6000fd5b50505050600860009054906101000a900473ffffffffffffffffffffffffffffffffffffffff1673ffffffffffffffffffffffffffffffffffffffff166342966c68876040518263ffffffff1660e01b81526004016129bd9190614226565b600060405180830381600087803b1580156129d757600080fd5b505af11580156129eb573d6000803e3d6000fd5b50505050600960009054906101000a900473ffffffffffffffffffffffffffffffffffffffff1673ffffffffffffffffffffffffffffffffffffffff16635141601960036001612a39612da2565b6040518463ffffffff1660e01b8152600401612a5793929190613f42565b600060405180830381600087803b158015612a7157600080fd5b505af1158015612a85573d6000803e3d6000fd5b50505050612c9b565b600481612a9b91906143ed565b851015612add576040517f08c379a0000000000000000000000000000000000000000000000000000000008152600401612ad490614150565b60405180910390fd5b600760009054906101000a900473ffffffffffffffffffffffffffffffffffffffff1673ffffffffffffffffffffffffffffffffffffffff16639dc29fac612b23612da2565b876040518363ffffffff1660e01b8152600401612b41929190613dd3565b600060405180830381600087803b158015612b5b57600080fd5b505af1158015612b6f573d6000803e3d6000fd5b50505050600860009054906101000a900473ffffffffffffffffffffffffffffffffffffffff1673ffffffffffffffffffffffffffffffffffffffff166342966c68876040518263ffffffff1660e01b8152600401612bce9190614226565b600060405180830381600087803b158015612be857600080fd5b505af1158015612bfc573d6000803e3d6000fd5b50505050600960009054906101000a900473ffffffffffffffffffffffffffffffffffffffff1673ffffffffffffffffffffffffffffffffffffffff16635141601960046001612c4a612da2565b6040518463ffffffff1660e01b8152600401612c6893929190613f79565b600060405180830381600087803b158015612c8257600080fd5b505af1158015612c96573d6000803e3d6000fd5b505050505b50505050600180819055505050565b612cb2612da2565b73ffffffffffffffffffffffffffffffffffffffff16612cd06122d3565b73ffffffffffffffffffffffffffffffffffffffff1614612d26576040517f08c379a0000000000000000000000000000000000000000000000000000000008152600401612d1d90614130565b60405180910390fd5b600073ffffffffffffffffffffffffffffffffffffffff168173ffffffffffffffffffffffffffffffffffffffff161415612d96576040517f08c379a0000000000000000000000000000000000000000000000000000000008152600401612d8d90614030565b60405180910390fd5b612d9f816131b1565b50565b600033905090565b612db2611df5565b15612df2576040517f08c379a0000000000000000000000000000000000000000000000000000000008152600401612de9906140d0565b60405180910390fd5b6001600260006101000a81548160ff0219169083151502179055507f62e78cea01bee320cd4e420270b5ea74000d11b0c9f74754ebdbfc544b05a258612e36612da2565b604051612e439190613ca7565b60405180910390a1565b612e55611df5565b612e94576040517f08c379a0000000000000000000000000000000000000000000000000000000008152600401612e8b90613fd0565b60405180910390fd5b6000600260006101000a81548160ff0219169083151502179055507f5db9ee0a495bf2e6ff9c91a7834c1ba4fdd244a5e8aa4e537bd38aeae4b073aa612ed8612da2565b604051612ee59190613ca7565b60405180910390a1565b60008232600143612f009190614447565b404285604051602001612f17959493929190613c48565b6040516020818303038152906040528051906020012060001c905092915050565b600080600a60f584901c612f4c919061477d565b14158061309b5750600860009054906101000a900473ffffffffffffffffffffffffffffffffffffffff1673ffffffffffffffffffffffffffffffffffffffff166354c96c836040518163ffffffff1660e01b815260040160206040518083038186803b158015612fbc57600080fd5b505afa158015612fd0573d6000803e3d6000fd5b505050506040513d601f19601f82011682018060405250810190612ff49190613710565b600860009054906101000a900473ffffffffffffffffffffffffffffffffffffffff1673ffffffffffffffffffffffffffffffffffffffff16633726230a6040518163ffffffff1660e01b815260040160206040518083038186803b15801561305c57600080fd5b505afa158015613070573d6000803e3d6000fd5b505050506040513d601f19601f820116820180604052508101906130949190613682565b61ffff1611155b156130af576130a8612da2565b90506131ac565b6000600b60009054906101000a900473ffffffffffffffffffffffffffffffffffffffff1673ffffffffffffffffffffffffffffffffffffffff16637669d48b609085901c6040518263ffffffff1660e01b81526004016131109190614241565b60206040518083038186803b15801561312857600080fd5b505afa15801561313c573d6000803e3d6000fd5b505050506040513d601f19601f8201168201806040525081019061316091906134ab565b9050600073ffffffffffffffffffffffffffffffffffffffff168173ffffffffffffffffffffffffffffffffffffffff1614156131a75761319f612da2565b9150506131ac565b809150505b919050565b60008060009054906101000a900473ffffffffffffffffffffffffffffffffffffffff169050816000806101000a81548173ffffffffffffffffffffffffffffffffffffffff021916908373ffffffffffffffffffffffffffffffffffffffff1602179055508173ffffffffffffffffffffffffffffffffffffffff168173ffffffffffffffffffffffffffffffffffffffff167f8be0079c531659141344cd1fd0a4f28419497f9722a3daafe3b4186f6b6457e060405160405180910390a35050565b60008135905061328481614b97565b92915050565b60008151905061329981614b97565b92915050565b6000813590506132ae81614bae565b92915050565b6000815190506132c381614bae565b92915050565b60008083601f8401126132db57600080fd5b8235905067ffffffffffffffff8111156132f457600080fd5b60208301915083600182028301111561330c57600080fd5b9250929050565b6000610120828403121561332657600080fd5b613331610120614293565b90506000613341848285016132b4565b60008301525060206133558482850161346d565b60208301525060406133698482850161346d565b604083015250606061337d8482850161346d565b60608301525060806133918482850161346d565b60808301525060a06133a58482850161346d565b60a08301525060c06133b98482850161346d565b60c08301525060e06133cd8482850161346d565b60e0830152506101006133e28482850161346d565b6101008301525092915050565b6000813590506133fe81614bc5565b92915050565b60008151905061341381614bc5565b92915050565b60008135905061342881614bdc565b92915050565b60008151905061343d81614bdc565b92915050565b60008135905061345281614bf3565b92915050565b60008151905061346781614c0a565b92915050565b60008151905061347c81614c21565b92915050565b60006020828403121561349457600080fd5b60006134a284828501613275565b91505092915050565b6000602082840312156134bd57600080fd5b60006134cb8482850161328a565b91505092915050565b60008060008060008060c087890312156134ed57600080fd5b60006134fb89828a01613275565b965050602061350c89828a01613275565b955050604061351d89828a01613275565b945050606061352e89828a01613275565b935050608061353f89828a01613275565b92505060a061355089828a01613275565b9150509295509295509295565b60008060008060006080868803121561357557600080fd5b600061358388828901613275565b955050602061359488828901613275565b94505060406135a588828901613419565b935050606086013567ffffffffffffffff8111156135c257600080fd5b6135ce888289016132c9565b92509250509295509295909350565b6000602082840312156135ef57600080fd5b60006135fd8482850161329f565b91505092915050565b60006020828403121561361857600080fd5b6000613626848285016132b4565b91505092915050565b6000610120828403121561364257600080fd5b600061365084828501613313565b91505092915050565b60006020828403121561366b57600080fd5b6000613679848285016133ef565b91505092915050565b60006020828403121561369457600080fd5b60006136a284828501613404565b91505092915050565b600080604083850312156136be57600080fd5b60006136cc858286016133ef565b92505060206136dd85828601613419565b9150509250929050565b6000602082840312156136f957600080fd5b600061370784828501613419565b91505092915050565b60006020828403121561372257600080fd5b60006137308482850161342e565b91505092915050565b60008060006060848603121561374e57600080fd5b600061375c86828701613443565b935050602061376d8682870161329f565b925050604061377e86828701613419565b9150509250925092565b60006020828403121561379a57600080fd5b60006137a884828501613458565b91505092915050565b60006137bd8383613bde565b60208301905092915050565b6137d28161447b565b82525050565b6137e96137e48261447b565b614733565b82525050565b60006137fa826142c8565b61380481856142e0565b935061380f836142b8565b8060005b8381101561384057815161382788826137b1565b9750613832836142d3565b925050600181019050613813565b5085935050505092915050565b6138568161448d565b82525050565b61386d61386882614499565b614745565b82525050565b61387c816144a3565b82525050565b61388b81614554565b82525050565b61389a81614578565b82525050565b6138a98161459c565b82525050565b6138b8816145c0565b82525050565b6138c7816145e4565b82525050565b6138d681614608565b82525050565b6138e58161462c565b82525050565b6138f48161463e565b82525050565b61390381614650565b82525050565b61391281614662565b82525050565b61392181614674565b82525050565b6000613934601983614302565b915061393f82614866565b602082019050919050565b6000613957601483614302565b91506139628261488f565b602082019050919050565b600061397a601383614302565b9150613985826148b8565b602082019050919050565b600061399d601183614302565b91506139a8826148e1565b602082019050919050565b60006139c0602683614302565b91506139cb8261490a565b604082019050919050565b60006139e3600883614302565b91506139ee82614959565b602082019050919050565b6000613a06601183614302565b9150613a1182614982565b602082019050919050565b6000613a29601183614302565b9150613a34826149ab565b602082019050919050565b6000613a4c601683614302565b9150613a57826149d4565b602082019050919050565b6000613a6f601083614302565b9150613a7a826149fd565b602082019050919050565b6000613a92601983614302565b9150613a9d82614a26565b602082019050919050565b6000613ab5602583614302565b9150613ac082614a4f565b604082019050919050565b6000613ad8602083614302565b9150613ae382614a9e565b602082019050919050565b6000613afb601083614302565b9150613b0682614ac7565b602082019050919050565b6000613b1e6000836142f1565b9150613b2982614af0565b600082019050919050565b6000613b41600883614302565b9150613b4c82614af3565b602082019050919050565b6000613b64601d83614302565b9150613b6f82614b1c565b602082019050919050565b6000613b87601f83614302565b9150613b9282614b45565b602082019050919050565b6000613baa601583614302565b9150613bb582614b6e565b602082019050919050565b613bc9816144cf565b82525050565b613bd881614686565b82525050565b613be7816144eb565b82525050565b613bf6816144eb565b82525050565b613c0581614698565b82525050565b613c1481614519565b82525050565b613c2b613c2682614519565b614761565b82525050565b613c42613c3d82614523565b61476b565b82525050565b6000613c548288613c1a565b602082019150613c6482876137d8565b601482019150613c74828661385c565b602082019150613c848285613c1a565b602082019150613c948284613c31565b6004820191508190509695505050505050565b6000602082019050613cbc60008301846137c9565b92915050565b6000604082019050613cd760008301856137c9565b613ce460208301846137c9565b9392505050565b6000606082019050613d0060008301866137c9565b613d0d60208301856137c9565b613d1a6040830184613c0b565b949350505050565b600060a082019050613d3760008301876137c9565b613d4460208301866137c9565b613d516040830185613c0b565b613d5e60608301846138eb565b8181036080830152613d6f81613b11565b905095945050505050565b6000604082019050613d8f60008301856137c9565b8181036020830152613da181846137ef565b90509392505050565b6000604082019050613dbf60008301856137c9565b613dcc6020830184613bcf565b9392505050565b6000604082019050613de860008301856137c9565b613df56020830184613c0b565b9392505050565b6000602082019050613e11600083018461384d565b92915050565b6000602082019050613e2c6000830184613873565b92915050565b6000602082019050613e476000830184613882565b92915050565b6000602082019050613e626000830184613891565b92915050565b6000602082019050613e7d60008301846138a0565b92915050565b6000602082019050613e9860008301846138af565b92915050565b6000602082019050613eb360008301846138be565b92915050565b6000602082019050613ece60008301846138cd565b92915050565b6000606082019050613ee960008301866138eb565b613ef660208301856138dc565b613f0360408301846137c9565b949350505050565b6000606082019050613f2060008301866138fa565b613f2d60208301856138dc565b613f3a60408301846137c9565b949350505050565b6000606082019050613f576000830186613909565b613f6460208301856138dc565b613f7160408301846137c9565b949350505050565b6000606082019050613f8e6000830186613918565b613f9b60208301856138dc565b613fa860408301846137c9565b949350505050565b60006020820190508181036000830152613fc981613927565b9050919050565b60006020820190508181036000830152613fe98161394a565b9050919050565b600060208201905081810360008301526140098161396d565b9050919050565b6000602082019050818103600083015261402981613990565b9050919050565b60006020820190508181036000830152614049816139b3565b9050919050565b60006020820190508181036000830152614069816139d6565b9050919050565b60006020820190508181036000830152614089816139f9565b9050919050565b600060208201905081810360008301526140a981613a1c565b9050919050565b600060208201905081810360008301526140c981613a3f565b9050919050565b600060208201905081810360008301526140e981613a62565b9050919050565b6000602082019050818103600083015261410981613a85565b9050919050565b6000602082019050818103600083015261412981613aa8565b9050919050565b6000602082019050818103600083015261414981613acb565b9050919050565b6000602082019050818103600083015261416981613aee565b9050919050565b6000602082019050818103600083015261418981613b34565b9050919050565b600060208201905081810360008301526141a981613b57565b9050919050565b600060208201905081810360008301526141c981613b7a565b9050919050565b600060208201905081810360008301526141e981613b9d565b9050919050565b60006020820190506142056000830184613bc0565b92915050565b60006020820190506142206000830184613bed565b92915050565b600060208201905061423b6000830184613bfc565b92915050565b60006020820190506142566000830184613c0b565b92915050565b60006060820190506142716000830186613c0b565b61427e6020830185613bed565b61428b60408301846137c9565b949350505050565b600061429d6142ae565b90506142a982826146aa565b919050565b6000604051905090565b6000819050602082019050919050565b600081519050919050565b6000602082019050919050565b600082825260208201905092915050565b600082825260208201905092915050565b600082825260208201905092915050565b600061431e82614519565b915061432983614519565b9250827fffffffffffffffffffffffffffffffffffffffffffffffffffffffffffffffff0382111561435e5761435d6147ae565b5b828201905092915050565b600061437482614523565b915061437f83614523565b92508263ffffffff03821115614398576143976147ae565b5b828201905092915050565b60006143ae826144cf565b91506143b9836144cf565b9250816fffffffffffffffffffffffffffffffff04831182151516156143e2576143e16147ae565b5b828202905092915050565b60006143f882614519565b915061440383614519565b9250817fffffffffffffffffffffffffffffffffffffffffffffffffffffffffffffffff048311821515161561443c5761443b6147ae565b5b828202905092915050565b600061445282614519565b915061445d83614519565b9250828210156144705761446f6147ae565b5b828203905092915050565b6000614486826144f9565b9050919050565b60008115159050919050565b6000819050919050565b60007fffffffff0000000000000000000000000000000000000000000000000000000082169050919050565b60006fffffffffffffffffffffffffffffffff82169050919050565b600061ffff82169050919050565b600073ffffffffffffffffffffffffffffffffffffffff82169050919050565b6000819050919050565b600063ffffffff82169050919050565b600067ffffffffffffffff82169050919050565b600060ff82169050919050565b600061455f82614566565b9050919050565b6000614571826144f9565b9050919050565b60006145838261458a565b9050919050565b6000614595826144f9565b9050919050565b60006145a7826145ae565b9050919050565b60006145b9826144f9565b9050919050565b60006145cb826145d2565b9050919050565b60006145dd826144f9565b9050919050565b60006145ef826145f6565b9050919050565b6000614601826144f9565b9050919050565b60006146138261461a565b9050919050565b6000614625826144f9565b9050919050565b6000614637826144eb565b9050919050565b600061464982614519565b9050919050565b600061465b82614519565b9050919050565b600061466d82614519565b9050919050565b600061467f82614519565b9050919050565b6000614691826144cf565b9050919050565b60006146a3826144eb565b9050919050565b6146b38261483b565b810181811067ffffffffffffffff821117156146d2576146d161480c565b5b80604052505050565b60006146e6826144eb565b915061ffff8214156146fb576146fa6147ae565b5b600182019050919050565b600061471182614523565b915063ffffffff821415614728576147276147ae565b5b600182019050919050565b600061473e8261474f565b9050919050565b6000819050919050565b600061475a82614859565b9050919050565b6000819050919050565b60006147768261484c565b9050919050565b600061478882614519565b915061479383614519565b9250826147a3576147a26147dd565b5b828206905092915050565b7f4e487b7100000000000000000000000000000000000000000000000000000000600052601160045260246000fd5b7f4e487b7100000000000000000000000000000000000000000000000000000000600052601260045260246000fd5b7f4e487b7100000000000000000000000000000000000000000000000000000000600052604160045260246000fd5b6000601f19601f8301169050919050565b60008160e01b9050919050565b60008160601b9050919050565b7f42697264426174682063757272656e746c7920636c6f73656400000000000000600082015250565b7f5061757361626c653a206e6f7420706175736564000000000000000000000000600082015250565b7f696e76616c6964206d696e7420616d6f756e7400000000000000000000000000600082015250565b7f436f6e747261637473206e6f7420736574000000000000000000000000000000600082015250565b7f4f776e61626c653a206e6577206f776e657220697320746865207a65726f206160008201527f6464726573730000000000000000000000000000000000000000000000000000602082015250565b7f4f6e6c7920454f41000000000000000000000000000000000000000000000000600082015250565b7f686d6d6d6d207768617420646f696e673f000000000000000000000000000000600082015250565b7f4445565320444f20534f4d455448494e47000000000000000000000000000000600082015250565b7f4e6f7420656e6f75676820244449525420676976656e00000000000000000000600082015250565b7f5061757361626c653a2070617573656400000000000000000000000000000000600082015250565b7f436865636b2074686520746f6b656e20616c6c6f77616e636500000000000000600082015250565b7f616d6f756e74206d696e74656420776f756c6420657863656564206d6178207360008201527f7570706c79000000000000000000000000000000000000000000000000000000602082015250565b7f4f776e61626c653a2063616c6c6572206973206e6f7420746865206f776e6572600082015250565b7f6e6f7420656e6f75676820246469727400000000000000000000000000000000600082015250565b50565b7f6e6f206d6f6e6579000000000000000000000000000000000000000000000000600082015250565b7f6f6e6c7920616c6c6f77206469726563746c792066726f6d206d696e74000000600082015250565b7f5265656e7472616e637947756172643a207265656e7472616e742063616c6c00600082015250565b7f6d696e74696e67206973206e6f74206163746976650000000000000000000000600082015250565b614ba08161447b565b8114614bab57600080fd5b50565b614bb78161448d565b8114614bc257600080fd5b50565b614bce816144eb565b8114614bd957600080fd5b50565b614be581614519565b8114614bf057600080fd5b50565b614bfc81614523565b8114614c0757600080fd5b50565b614c1381614533565b8114614c1e57600080fd5b50565b614c2a81614547565b8114614c3557600080fd5b5056fea26469706673582212203682025f2acc232a40e95fd7e5a344854bca6b403abb095f69a3e9395ba82b4164736f6c63430008010033",
  "linkReferences": {},
  "deployedLinkReferences": {}
}