{
  "_format": "hh-sol-artifact-1",
  "contractName": "AncientTree",
  "sourceName": "contracts/AncientTree.sol",
  "abi": [
    {
      "anonymous": false,
      "inputs": [
        {
          "indexed": true,
          "internalType": "address",
          "name": "previousOwner",
          "type": "address"
        },
        {
          "indexed": true,
          "internalType": "address",
          "name": "newOwner",
          "type": "address"
        }
      ],
      "name": "OwnershipTransferred",
      "type": "event"
    },
    {
      "anonymous": false,
      "inputs": [
        {
          "indexed": false,
          "internalType": "address",
          "name": "account",
          "type": "address"
        }
      ],
      "name": "Paused",
      "type": "event"
    },
    {
      "anonymous": false,
      "inputs": [
        {
          "indexed": false,
          "internalType": "address",
          "name": "account",
          "type": "address"
        }
      ],
      "name": "Unpaused",
      "type": "event"
    },
    {
      "inputs": [],
      "name": "MAXIMUM_BIRD_SIZE",
      "outputs": [
        {
          "internalType": "uint16",
          "name": "",
          "type": "uint16"
        }
      ],
      "stateMutability": "view",
      "type": "function"
    },
    {
      "inputs": [],
      "name": "MAXIMUM_DIRT",
      "outputs": [
        {
          "internalType": "uint128",
          "name": "",
          "type": "uint128"
        }
      ],
      "stateMutability": "view",
      "type": "function"
    },
    {
      "inputs": [],
      "name": "WORM_CLAIM_TAX_PERCENTAGE",
      "outputs": [
        {
          "internalType": "uint8",
          "name": "",
          "type": "uint8"
        }
      ],
      "stateMutability": "view",
      "type": "function"
    },
    {
      "inputs": [],
      "name": "WORM_EARNING_RATE",
      "outputs": [
        {
          "internalType": "uint128",
          "name": "",
          "type": "uint128"
        }
      ],
      "stateMutability": "view",
      "type": "function"
    },
    {
      "inputs": [],
      "name": "WORM_MINIMUM_STAKE_TIME",
      "outputs": [
        {
          "internalType": "uint48",
          "name": "",
          "type": "uint48"
        }
      ],
      "stateMutability": "view",
      "type": "function"
    },
    {
      "inputs": [
        {
          "internalType": "uint16",
          "name": "tokenId",
          "type": "uint16"
        },
        {
          "internalType": "uint16",
          "name": "strength",
          "type": "uint16"
        }
      ],
      "name": "_getWormStrengthBonus",
      "outputs": [
        {
          "internalType": "uint128",
          "name": "",
          "type": "uint128"
        }
      ],
      "stateMutability": "view",
      "type": "function"
    },
    {
      "inputs": [
        {
          "internalType": "uint16",
          "name": "",
          "type": "uint16"
        }
      ],
      "name": "birdHierarchy",
      "outputs": [
        {
          "internalType": "uint16",
          "name": "",
          "type": "uint16"
        }
      ],
      "stateMutability": "view",
      "type": "function"
    },
    {
      "inputs": [
        {
          "internalType": "uint16",
          "name": "",
          "type": "uint16"
        },
        {
          "internalType": "uint256",
          "name": "",
          "type": "uint256"
        }
      ],
      "name": "birdStakeBySize",
      "outputs": [
        {
          "internalType": "uint16",
          "name": "tokenId",
          "type": "uint16"
        },
        {
          "internalType": "uint128",
          "name": "earningRate",
          "type": "uint128"
        },
        {
          "internalType": "address",
          "name": "owner",
          "type": "address"
        }
      ],
      "stateMutability": "view",
      "type": "function"
    },
    {
      "inputs": [
        {
          "internalType": "uint16",
          "name": "tokenId",
          "type": "uint16"
        }
      ],
      "name": "calculateReward",
      "outputs": [
        {
          "internalType": "uint128",
          "name": "reward",
          "type": "uint128"
        }
      ],
      "stateMutability": "view",
      "type": "function"
    },
    {
      "inputs": [
        {
          "internalType": "uint16[]",
          "name": "tokenIds",
          "type": "uint16[]"
        },
        {
          "internalType": "bool",
          "name": "unstake",
          "type": "bool"
        },
        {
          "internalType": "uint256",
          "name": "seed",
          "type": "uint256"
        }
      ],
      "name": "claimRewardsAndUnstake",
      "outputs": [],
      "stateMutability": "nonpayable",
      "type": "function"
    },
    {
      "inputs": [],
      "name": "dirtContract",
      "outputs": [
        {
          "internalType": "contract IDirt",
          "name": "",
          "type": "address"
        }
      ],
      "stateMutability": "view",
      "type": "function"
    },
    {
      "inputs": [],
      "name": "dirtPerSizePoint",
      "outputs": [
        {
          "internalType": "uint128",
          "name": "",
          "type": "uint128"
        }
      ],
      "stateMutability": "view",
      "type": "function"
    },
    {
      "inputs": [],
      "name": "earlyBirdsGame",
      "outputs": [
        {
          "internalType": "contract IEarlyBirdsGame",
          "name": "",
          "type": "address"
        }
      ],
      "stateMutability": "view",
      "type": "function"
    },
    {
      "inputs": [],
      "name": "earlyBirdsNFT",
      "outputs": [
        {
          "internalType": "contract IEarlyBirdsNFT",
          "name": "",
          "type": "address"
        }
      ],
      "stateMutability": "view",
      "type": "function"
    },
    {
      "inputs": [],
      "name": "getTotalDirtClaimed",
      "outputs": [
        {
          "internalType": "uint256",
          "name": "",
          "type": "uint256"
        }
      ],
      "stateMutability": "view",
      "type": "function"
    },
    {
      "inputs": [],
      "name": "lastClaimTimestamp",
      "outputs": [
        {
          "internalType": "uint48",
          "name": "",
          "type": "uint48"
        }
      ],
      "stateMutability": "view",
      "type": "function"
    },
    {
      "inputs": [
        {
          "internalType": "address",
          "name": "",
          "type": "address"
        },
        {
          "internalType": "address",
          "name": "from",
          "type": "address"
        },
        {
          "internalType": "uint256",
          "name": "",
          "type": "uint256"
        },
        {
          "internalType": "bytes",
          "name": "",
          "type": "bytes"
        }
      ],
      "name": "onERC721Received",
      "outputs": [
        {
          "internalType": "bytes4",
          "name": "",
          "type": "bytes4"
        }
      ],
      "stateMutability": "pure",
      "type": "function"
    },
    {
      "inputs": [],
      "name": "owner",
      "outputs": [
        {
          "internalType": "address",
          "name": "",
          "type": "address"
        }
      ],
      "stateMutability": "view",
      "type": "function"
    },
    {
      "inputs": [],
      "name": "paused",
      "outputs": [
        {
          "internalType": "bool",
          "name": "",
          "type": "bool"
        }
      ],
      "stateMutability": "view",
      "type": "function"
    },
    {
      "inputs": [
        {
          "internalType": "uint256",
          "name": "seed",
          "type": "uint256"
        }
      ],
      "name": "randomBirdOwner",
      "outputs": [
        {
          "internalType": "address",
          "name": "",
          "type": "address"
        }
      ],
      "stateMutability": "view",
      "type": "function"
    },
    {
      "inputs": [],
      "name": "randomNumberConsumer",
      "outputs": [
        {
          "internalType": "contract IRandomNumberConsumer",
          "name": "",
          "type": "address"
        }
      ],
      "stateMutability": "view",
      "type": "function"
    },
    {
      "inputs": [],
      "name": "renounceOwnership",
      "outputs": [],
      "stateMutability": "nonpayable",
      "type": "function"
    },
    {
      "inputs": [
        {
          "internalType": "address",
          "name": "_dirtContract",
          "type": "address"
        },
        {
          "internalType": "address",
          "name": "_earlyBirdsNFT",
          "type": "address"
        },
        {
          "internalType": "address",
          "name": "_randomNumberConsumer",
          "type": "address"
        },
        {
          "internalType": "address",
          "name": "_earlyBirdsGame",
          "type": "address"
        }
      ],
      "name": "setContracts",
      "outputs": [],
      "stateMutability": "nonpayable",
      "type": "function"
    },
    {
      "inputs": [
        {
          "internalType": "address",
          "name": "account",
          "type": "address"
        },
        {
          "internalType": "uint16[]",
          "name": "tokenIds",
          "type": "uint16[]"
        }
      ],
      "name": "stakeTokens",
      "outputs": [],
      "stateMutability": "nonpayable",
      "type": "function"
    },
    {
      "inputs": [],
      "name": "totalBirdsStaked",
      "outputs": [
        {
          "internalType": "uint32",
          "name": "",
          "type": "uint32"
        }
      ],
      "stateMutability": "view",
      "type": "function"
    },
    {
      "inputs": [],
      "name": "totalDirtClaimed",
      "outputs": [
        {
          "internalType": "uint128",
          "name": "",
          "type": "uint128"
        }
      ],
      "stateMutability": "view",
      "type": "function"
    },
    {
      "inputs": [],
      "name": "totalSizeOfBirdsStaked",
      "outputs": [
        {
          "internalType": "uint16",
          "name": "",
          "type": "uint16"
        }
      ],
      "stateMutability": "view",
      "type": "function"
    },
    {
      "inputs": [],
      "name": "totalWormsStaked",
      "outputs": [
        {
          "internalType": "uint32",
          "name": "",
          "type": "uint32"
        }
      ],
      "stateMutability": "view",
      "type": "function"
    },
    {
      "inputs": [
        {
          "internalType": "address",
          "name": "newOwner",
          "type": "address"
        }
      ],
      "name": "transferOwnership",
      "outputs": [],
      "stateMutability": "nonpayable",
      "type": "function"
    },
    {
      "inputs": [],
      "name": "unaccountedBirdRewards",
      "outputs": [
        {
          "internalType": "uint128",
          "name": "",
          "type": "uint128"
        }
      ],
      "stateMutability": "view",
      "type": "function"
    },
    {
      "inputs": [
        {
          "internalType": "uint16",
          "name": "",
          "type": "uint16"
        }
      ],
      "name": "wormHierarchy",
      "outputs": [
        {
          "internalType": "uint16",
          "name": "",
          "type": "uint16"
        }
      ],
      "stateMutability": "view",
      "type": "function"
    },
    {
      "inputs": [
        {
          "internalType": "uint16",
          "name": "",
          "type": "uint16"
        },
        {
          "internalType": "uint256",
          "name": "",
          "type": "uint256"
        }
      ],
      "name": "wormStakeByStrength",
      "outputs": [
        {
          "internalType": "uint16",
          "name": "tokenId",
          "type": "uint16"
        },
        {
          "internalType": "uint48",
          "name": "time",
          "type": "uint48"
        },
        {
          "internalType": "address",
          "name": "owner",
          "type": "address"
        }
      ],
      "stateMutability": "view",
      "type": "function"
    }
  ],
  "bytecode": "0x60806040523480156200001157600080fd5b5062000032620000266200005a60201b60201c565b6200006260201b60201c565b600180819055506000600260006101000a81548160ff02191690831515021790555062000126565b600033905090565b60008060009054906101000a900473ffffffffffffffffffffffffffffffffffffffff169050816000806101000a81548173ffffffffffffffffffffffffffffffffffffffff021916908373ffffffffffffffffffffffffffffffffffffffff1602179055508173ffffffffffffffffffffffffffffffffffffffff168173ffffffffffffffffffffffffffffffffffffffff167f8be0079c531659141344cd1fd0a4f28419497f9722a3daafe3b4186f6b6457e060405160405180910390a35050565b6154fa80620001366000396000f3fe608060405234801561001057600080fd5b50600436106101f05760003560e01c80637669d48b1161010f578063b837c9d4116100a2578063ddb58c7711610071578063ddb58c77146105a3578063e389944e146105c1578063f2fde38b146105df578063fd674145146105fb576101f0565b8063b837c9d414610519578063bf989b6e1461054b578063d546184614610567578063d8e0649c14610585576101f0565b806392849377116100de5780639284937714610491578063a63b5225146104ad578063ac486485146104dd578063b37fd26c146104fb576101f0565b80637669d48b146104095780638da5cb5b146104395780638fbf1e1b146104575780639261719114610475576101f0565b80634336450c11610187578063607af39711610156578063607af397146103a55780636597d68f146103c357806370587a1a146103e1578063715018a6146103ff576101f0565b80634336450c1461031b57806346df22da1461034b5780634c6bcfde146103695780635c975abb14610387576101f0565b8063327d1a4d116101c3578063327d1a4d1461029157806338c3f58e146102c15780633cd1287a146102df5780633e4ed547146102fd576101f0565b80630e1d30cc146101f5578063150b7a02146102135780632cc9dfd1146102435780632e0a1ce414610273575b600080fd5b6101fd61062d565b60405161020a9190614b48565b60405180910390f35b61022d60048036038101906102289190614206565b610643565b60405161023a9190614887565b60405180910390f35b61025d6004803603810190610258919061439d565b6106c6565b60405161026a9190614a89565b60405180910390f35b61027b6106e7565b6040516102889190614a89565b60405180910390f35b6102ab60048036038101906102a6919061439d565b6106ec565b6040516102b89190614a6e565b60405180910390f35b6102c9610c7b565b6040516102d69190614b2d565b60405180910390f35b6102e7610cb3565b6040516102f49190614a6e565b60405180910390f35b610305610cbf565b6040516103129190614a6e565b60405180910390f35b6103356004803603810190610330919061439d565b610ce1565b6040516103429190614a89565b60405180910390f35b610353610d02565b60405161036091906148f3565b60405180910390f35b610371610d28565b60405161037e91906148a2565b60405180910390f35b61038f610d4e565b60405161039c919061486c565b60405180910390f35b6103ad610d65565b6040516103ba9190614b63565b60405180910390f35b6103cb610d7d565b6040516103d891906148d8565b60405180910390f35b6103e9610da3565b6040516103f69190614a89565b60405180910390f35b610407610db7565b005b610423600480360381019061041e919061443e565b610e3f565b60405161043091906147a7565b60405180910390f35b610441610fdb565b60405161044e91906147a7565b60405180910390f35b61045f611004565b60405161046c9190614a6e565b60405180910390f35b61048f600480360381019061048a91906142de565b611014565b005b6104ab60048036038101906104a69190614286565b6113d8565b005b6104c760048036038101906104c291906143c6565b611ab1565b6040516104d49190614a6e565b60405180910390f35b6104e5611e96565b6040516104f29190614a6e565b60405180910390f35b610503611eb8565b6040516105109190614b48565b60405180910390f35b610533600480360381019061052e9190614402565b611ece565b60405161054293929190614abf565b60405180910390f35b610565600480360381019061056091906141a3565b611f5f565b005b61056f6120e5565b60405161057c91906148bd565b60405180910390f35b61058d61210b565b60405161059a9190614b7e565b60405180910390f35b6105ab612110565b6040516105b89190614b63565b60405180910390f35b6105c9612117565b6040516105d69190614a6e565b60405180910390f35b6105f960048036038101906105f49190614151565b612139565b005b61061560048036038101906106109190614402565b612231565b60405161062493929190614af6565b60405180910390f35b600360149054906101000a900463ffffffff1681565b60008073ffffffffffffffffffffffffffffffffffffffff168573ffffffffffffffffffffffffffffffffffffffff16146106b3576040517f08c379a00000000000000000000000000000000000000000000000000000000081526004016106aa90614a2e565b60405180910390fd5b63150b7a0260e01b905095945050505050565b600c6020528060005260406000206000915054906101000a900461ffff1681565b600881565b6000600660009054906101000a900473ffffffffffffffffffffffffffffffffffffffff1673ffffffffffffffffffffffffffffffffffffffff1663483be8cb836040518263ffffffff1660e01b81526004016107499190614aa4565b60206040518083038186803b15801561076157600080fd5b505afa158015610775573d6000803e3d6000fd5b505050506040513d601f19601f82011682018060405250810190610799919061434a565b15610aca576000600660009054906101000a900473ffffffffffffffffffffffffffffffffffffffff1673ffffffffffffffffffffffffffffffffffffffff166343e55e30846040518263ffffffff1660e01b81526004016107fb9190614a89565b6101206040518083038186803b15801561081457600080fd5b505afa158015610828573d6000803e3d6000fd5b505050506040513d601f19601f8201168201806040525081019061084c9190614373565b610100015160ff1690506000600960008361ffff1661ffff168152602001908152602001600020600a60008661ffff1661ffff16815260200190815260200160002060009054906101000a900461ffff1661ffff16815481106108d8577f4e487b7100000000000000000000000000000000000000000000000000000000600052603260045260246000fd5b906000526020600020016040518060600160405290816000820160009054906101000a900461ffff1661ffff1661ffff1681526020016000820160029054906101000a900465ffffffffffff1665ffffffffffff1665ffffffffffff1681526020016000820160089054906101000a900473ffffffffffffffffffffffffffffffffffffffff1673ffffffffffffffffffffffffffffffffffffffff1673ffffffffffffffffffffffffffffffffffffffff1681525050905060004290506b033b2e3c9fd0803ce80000006fffffffffffffffffffffffffffffffff16600260019054906101000a90046fffffffffffffffffffffffffffffffff166fffffffffffffffffffffffffffffffff161015610a32576109f68584611ab1565b67019b319729e47684836020015183610a0f9190614e93565b65ffffffffffff16610a219190614d1f565b610a2b9190614be0565b9350610ac2565b600460109054906101000a900465ffffffffffff1665ffffffffffff16826020015165ffffffffffff161115610a6b5760009350610ac1565b610a758584611ab1565b67019b319729e476848360200151600460109054906101000a900465ffffffffffff16610aa29190614e93565b65ffffffffffff16610ab49190614d1f565b610abe9190614be0565b93505b5b505050610c76565b6000610ad5836122b4565b90506000600b60008361ffff1661ffff168152602001908152602001600020600c60008661ffff1661ffff16815260200190815260200160002060009054906101000a900461ffff1661ffff1681548110610b59577f4e487b7100000000000000000000000000000000000000000000000000000000600052603260045260246000fd5b90600052602060002090600202016040518060600160405290816000820160009054906101000a900461ffff1661ffff1661ffff1681526020016000820160029054906101000a90046fffffffffffffffffffffffffffffffff166fffffffffffffffffffffffffffffffff166fffffffffffffffffffffffffffffffff1681526020016001820160009054906101000a900473ffffffffffffffffffffffffffffffffffffffff1673ffffffffffffffffffffffffffffffffffffffff1673ffffffffffffffffffffffffffffffffffffffff168152505090508060200151600460009054906101000a90046fffffffffffffffffffffffffffffffff16610c629190614dc3565b8261ffff16610c719190614d1f565b925050505b919050565b6000600260019054906101000a90046fffffffffffffffffffffffffffffffff166fffffffffffffffffffffffffffffffff16905090565b67019b319729e4768481565b600360009054906101000a90046fffffffffffffffffffffffffffffffff1681565b600a6020528060005260406000206000915054906101000a900461ffff1681565b600860009054906101000a900473ffffffffffffffffffffffffffffffffffffffff1681565b600560009054906101000a900473ffffffffffffffffffffffffffffffffffffffff1681565b6000600260009054906101000a900460ff16905090565b600460109054906101000a900465ffffffffffff1681565b600660009054906101000a900473ffffffffffffffffffffffffffffffffffffffff1681565b600360189054906101000a900461ffff1681565b610dbf61237d565b73ffffffffffffffffffffffffffffffffffffffff16610ddd610fdb565b73ffffffffffffffffffffffffffffffffffffffff1614610e33576040517f08c379a0000000000000000000000000000000000000000000000000000000008152600401610e2a906149ae565b60405180910390fd5b610e3d6000612385565b565b600080600360189054906101000a900461ffff1661ffff161415610e665760009050610fd6565b6000600360189054906101000a900461ffff1661ffff1663ffffffff8416610e8e9190615156565b90506000602084901c9350600060036008610ea99190614df7565b90505b600861ffff168161ffff1611610fce578061ffff16600b60008361ffff1661ffff16815260200190815260200160002080549050610eea9190614d69565b82610ef59190614c5e565b9150818310610f0357610fbb565b600b60008261ffff1661ffff168152602001908152602001600020600b60008361ffff1661ffff1681526020019081526020016000208054905086610f489190615156565b81548110610f7f577f4e487b7100000000000000000000000000000000000000000000000000000000600052603260045260246000fd5b906000526020600020906002020160010160009054906101000a900473ffffffffffffffffffffffffffffffffffffffff169350505050610fd6565b8080610fc6906150b7565b915050610eac565b506000925050505b919050565b60008060009054906101000a900473ffffffffffffffffffffffffffffffffffffffff16905090565b6b033b2e3c9fd0803ce800000081565b61101c610d4e565b1561105c576040517f08c379a00000000000000000000000000000000000000000000000000000000081526004016110539061496e565b60405180910390fd5b600260015414156110a2576040517f08c379a000000000000000000000000000000000000000000000000000000000815260040161109990614a4e565b60405180910390fd5b60026001819055503373ffffffffffffffffffffffffffffffffffffffff163273ffffffffffffffffffffffffffffffffffffffff1614611118576040517f08c379a000000000000000000000000000000000000000000000000000000000815260040161110f9061494e565b60405180910390fd5b60008042905060005b868690508160ff16101561131e576000600660009054906101000a900473ffffffffffffffffffffffffffffffffffffffff1673ffffffffffffffffffffffffffffffffffffffff1663483be8cb89898560ff168181106111ab577f4e487b7100000000000000000000000000000000000000000000000000000000600052603260045260246000fd5b90506020020160208101906111c0919061439d565b6040518263ffffffff1660e01b81526004016111dc9190614aa4565b60206040518083038186803b1580156111f457600080fd5b505afa158015611208573d6000803e3d6000fd5b505050506040513d601f19601f8201168201806040525081019061122c919061434a565b905080156112a25761129088888460ff16818110611273577f4e487b7100000000000000000000000000000000000000000000000000000000600052603260045260246000fd5b9050602002016020810190611288919061439d565b878588612449565b8461129b9190614be0565b935061130a565b6112fc88888460ff168181106112e1577f4e487b7100000000000000000000000000000000000000000000000000000000600052603260045260246000fd5b90506020020160208101906112f6919061439d565b87612f12565b846113079190614be0565b93505b508080611316906150e2565b915050611121565b506000826fffffffffffffffffffffffffffffffff16146113c957600560009054906101000a900473ffffffffffffffffffffffffffffffffffffffff1673ffffffffffffffffffffffffffffffffffffffff166340c10f1933846040518363ffffffff1660e01b8152600401611396929190614843565b600060405180830381600087803b1580156113b057600080fd5b505af11580156113c4573d6000803e3d6000fd5b505050505b50506001808190555050505050565b6113e0610d4e565b15611420576040517f08c379a00000000000000000000000000000000000000000000000000000000081526004016114179061496e565b60405180910390fd5b60026001541415611466576040517f08c379a000000000000000000000000000000000000000000000000000000000815260040161145d90614a4e565b60405180910390fd5b600260018190555061147661237d565b73ffffffffffffffffffffffffffffffffffffffff163273ffffffffffffffffffffffffffffffffffffffff1614806115035750600760009054906101000a900473ffffffffffffffffffffffffffffffffffffffff1673ffffffffffffffffffffffffffffffffffffffff166114eb61237d565b73ffffffffffffffffffffffffffffffffffffffff16145b611542576040517f08c379a0000000000000000000000000000000000000000000000000000000008152600401611539906149ee565b60405180910390fd5b3273ffffffffffffffffffffffffffffffffffffffff168373ffffffffffffffffffffffffffffffffffffffff16146115b0576040517f08c379a00000000000000000000000000000000000000000000000000000000081526004016115a7906149ce565b60405180910390fd5b60005b828290508161ffff161015611aa457600083838361ffff16818110611601577f4e487b7100000000000000000000000000000000000000000000000000000000600052603260045260246000fd5b9050602002016020810190611616919061439d565b61ffff16141561162557611a91565b6000600660009054906101000a900473ffffffffffffffffffffffffffffffffffffffff1673ffffffffffffffffffffffffffffffffffffffff1663483be8cb85858561ffff168181106116a2577f4e487b7100000000000000000000000000000000000000000000000000000000600052603260045260246000fd5b90506020020160208101906116b7919061439d565b6040518263ffffffff1660e01b81526004016116d39190614aa4565b60206040518083038186803b1580156116eb57600080fd5b505afa1580156116ff573d6000803e3d6000fd5b505050506040513d601f19601f82011682018060405250810190611723919061434a565b9050801561178b576117868585858561ffff1681811061176c577f4e487b7100000000000000000000000000000000000000000000000000000000600052603260045260246000fd5b9050602002016020810190611781919061439d565b6138f9565b6117e7565b6117e68585858561ffff168181106117cc577f4e487b7100000000000000000000000000000000000000000000000000000000600052603260045260246000fd5b90506020020160208101906117e1919061439d565b613b5e565b5b600760009054906101000a900473ffffffffffffffffffffffffffffffffffffffff1673ffffffffffffffffffffffffffffffffffffffff1661182861237d565b73ffffffffffffffffffffffffffffffffffffffff1614611a8f573373ffffffffffffffffffffffffffffffffffffffff16600660009054906101000a900473ffffffffffffffffffffffffffffffffffffffff1673ffffffffffffffffffffffffffffffffffffffff16636352211e86868661ffff168181106118d5577f4e487b7100000000000000000000000000000000000000000000000000000000600052603260045260246000fd5b90506020020160208101906118ea919061439d565b6040518263ffffffff1660e01b81526004016119069190614aa4565b60206040518083038186803b15801561191e57600080fd5b505afa158015611932573d6000803e3d6000fd5b505050506040513d601f19601f82011682018060405250810190611956919061417a565b73ffffffffffffffffffffffffffffffffffffffff16146119ac576040517f08c379a00000000000000000000000000000000000000000000000000000000081526004016119a390614a0e565b60405180910390fd5b600660009054906101000a900473ffffffffffffffffffffffffffffffffffffffff1673ffffffffffffffffffffffffffffffffffffffff166323b872dd333087878761ffff16818110611a29577f4e487b7100000000000000000000000000000000000000000000000000000000600052603260045260246000fd5b9050602002016020810190611a3e919061439d565b6040518463ffffffff1660e01b8152600401611a5c939291906147c2565b600060405180830381600087803b158015611a7657600080fd5b505af1158015611a8a573d6000803e3d6000fd5b505050505b505b8080611a9c906150b7565b9150506115b3565b5060018081905550505050565b600080600660009054906101000a900473ffffffffffffffffffffffffffffffffffffffff1673ffffffffffffffffffffffffffffffffffffffff1663483be8cb856040518263ffffffff1660e01b8152600401611b0f9190614aa4565b60206040518083038186803b158015611b2757600080fd5b505afa158015611b3b573d6000803e3d6000fd5b505050506040513d601f19601f82011682018060405250810190611b5f919061434a565b15611e8a576000600660009054906101000a900473ffffffffffffffffffffffffffffffffffffffff1673ffffffffffffffffffffffffffffffffffffffff166343e55e30866040518263ffffffff1660e01b8152600401611bc19190614a89565b6101206040518083038186803b158015611bda57600080fd5b505afa158015611bee573d6000803e3d6000fd5b505050506040513d601f19601f82011682018060405250810190611c129190614373565b610100015160ff161415611c295760009050611cf4565b6001600660009054906101000a900473ffffffffffffffffffffffffffffffffffffffff1673ffffffffffffffffffffffffffffffffffffffff166343e55e30866040518263ffffffff1660e01b8152600401611c869190614a89565b6101206040518083038186803b158015611c9f57600080fd5b505afa158015611cb3573d6000803e3d6000fd5b505050506040513d601f19601f82011682018060405250810190611cd79190614373565b610100015160ff161415611cee57600c9050611cf3565b601e90505b5b6000600960008561ffff1661ffff168152602001908152602001600020600a60008761ffff1661ffff16815260200190815260200160002060009054906101000a900461ffff1661ffff1681548110611d76577f4e487b7100000000000000000000000000000000000000000000000000000000600052603260045260246000fd5b906000526020600020016040518060600160405290816000820160009054906101000a900461ffff1661ffff1661ffff1681526020016000820160029054906101000a900465ffffffffffff1665ffffffffffff1665ffffffffffff1681526020016000820160089054906101000a900473ffffffffffffffffffffffffffffffffffffffff1673ffffffffffffffffffffffffffffffffffffffff1673ffffffffffffffffffffffffffffffffffffffff16815250509050600042905060008361ffff16606467019b319729e47684856020015185611e569190614e93565b65ffffffffffff16611e689190614d1f565b611e729190614cee565b611e7c9190614d1f565b905080945050505050611e90565b60009150505b92915050565b600460009054906101000a90046fffffffffffffffffffffffffffffffff1681565b600360109054906101000a900463ffffffff1681565b600b6020528160005260406000208181548110611eea57600080fd5b9060005260206000209060020201600091509150508060000160009054906101000a900461ffff16908060000160029054906101000a90046fffffffffffffffffffffffffffffffff16908060010160009054906101000a900473ffffffffffffffffffffffffffffffffffffffff16905083565b611f6761237d565b73ffffffffffffffffffffffffffffffffffffffff16611f85610fdb565b73ffffffffffffffffffffffffffffffffffffffff1614611fdb576040517f08c379a0000000000000000000000000000000000000000000000000000000008152600401611fd2906149ae565b60405180910390fd5b83600560006101000a81548173ffffffffffffffffffffffffffffffffffffffff021916908373ffffffffffffffffffffffffffffffffffffffff16021790555082600660006101000a81548173ffffffffffffffffffffffffffffffffffffffff021916908373ffffffffffffffffffffffffffffffffffffffff16021790555081600860006101000a81548173ffffffffffffffffffffffffffffffffffffffff021916908373ffffffffffffffffffffffffffffffffffffffff16021790555080600760006101000a81548173ffffffffffffffffffffffffffffffffffffffff021916908373ffffffffffffffffffffffffffffffffffffffff16021790555050505050565b600760009054906101000a900473ffffffffffffffffffffffffffffffffffffffff1681565b601981565b6202a30081565b600260019054906101000a90046fffffffffffffffffffffffffffffffff1681565b61214161237d565b73ffffffffffffffffffffffffffffffffffffffff1661215f610fdb565b73ffffffffffffffffffffffffffffffffffffffff16146121b5576040517f08c379a00000000000000000000000000000000000000000000000000000000081526004016121ac906149ae565b60405180910390fd5b600073ffffffffffffffffffffffffffffffffffffffff168173ffffffffffffffffffffffffffffffffffffffff161415612225576040517f08c379a000000000000000000000000000000000000000000000000000000000815260040161221c9061492e565b60405180910390fd5b61222e81612385565b50565b6009602052816000526040600020818154811061224d57600080fd5b90600052602060002001600091509150508060000160009054906101000a900461ffff16908060000160029054906101000a900465ffffffffffff16908060000160089054906101000a900473ffffffffffffffffffffffffffffffffffffffff16905083565b6000600660009054906101000a900473ffffffffffffffffffffffffffffffffffffffff1673ffffffffffffffffffffffffffffffffffffffff166343e55e30836040518263ffffffff1660e01b81526004016123119190614a89565b6101206040518083038186803b15801561232a57600080fd5b505afa15801561233e573d6000803e3d6000fd5b505050506040513d601f19601f820116820180604052508101906123629190614373565b610100015160ff1660086123769190614df7565b9050919050565b600033905090565b60008060009054906101000a900473ffffffffffffffffffffffffffffffffffffffff169050816000806101000a81548173ffffffffffffffffffffffffffffffffffffffff021916908373ffffffffffffffffffffffffffffffffffffffff1602179055508173ffffffffffffffffffffffffffffffffffffffff168173ffffffffffffffffffffffffffffffffffffffff167f8be0079c531659141344cd1fd0a4f28419497f9722a3daafe3b4186f6b6457e060405160405180910390a35050565b600080600660009054906101000a900473ffffffffffffffffffffffffffffffffffffffff1673ffffffffffffffffffffffffffffffffffffffff166343e55e30876040518263ffffffff1660e01b81526004016124a79190614a89565b6101206040518083038186803b1580156124c057600080fd5b505afa1580156124d4573d6000803e3d6000fd5b505050506040513d601f19601f820116820180604052508101906124f89190614373565b610100015160ff1690506000600960008361ffff1661ffff168152602001908152602001600020600a60008961ffff1661ffff16815260200190815260200160002060009054906101000a900461ffff1661ffff1681548110612584577f4e487b7100000000000000000000000000000000000000000000000000000000600052603260045260246000fd5b906000526020600020016040518060600160405290816000820160009054906101000a900461ffff1661ffff1661ffff1681526020016000820160029054906101000a900465ffffffffffff1665ffffffffffff1665ffffffffffff1681526020016000820160089054906101000a900473ffffffffffffffffffffffffffffffffffffffff1673ffffffffffffffffffffffffffffffffffffffff1673ffffffffffffffffffffffffffffffffffffffff1681525050905061264561237d565b73ffffffffffffffffffffffffffffffffffffffff16816040015173ffffffffffffffffffffffffffffffffffffffff16146126b6576040517f08c379a00000000000000000000000000000000000000000000000000000000081526004016126ad9061490e565b60405180910390fd5b60006126c28884611ab1565b90506b033b2e3c9fd0803ce80000006fffffffffffffffffffffffffffffffff16600260019054906101000a90046fffffffffffffffffffffffffffffffff166fffffffffffffffffffffffffffffffff1610156127ba578067019b319729e476848360200151886127349190614e93565b65ffffffffffff166127469190614d1f565b6127509190614be0565b935083600260018282829054906101000a90046fffffffffffffffffffffffffffffffff1661277f9190614be0565b92506101000a8154816fffffffffffffffffffffffffffffffff02191690836fffffffffffffffffffffffffffffffff16021790555061289a565b600460109054906101000a900465ffffffffffff1665ffffffffffff16826020015165ffffffffffff1611612899578067019b319729e476848360200151600460109054906101000a900465ffffffffffff166128179190614e93565b65ffffffffffff166128299190614d1f565b6128339190614be0565b935083600260018282829054906101000a90046fffffffffffffffffffffffffffffffff166128629190614be0565b92506101000a8154816fffffffffffffffffffffffffffffffff02191690836fffffffffffffffffffffffffffffffff1602179055505b5b8615612d53576000600960008561ffff1661ffff1681526020019081526020016000206001600960008761ffff1661ffff168152602001908152602001600020805490506128e89190614e2b565b8154811061291f577f4e487b7100000000000000000000000000000000000000000000000000000000600052603260045260246000fd5b906000526020600020016040518060600160405290816000820160009054906101000a900461ffff1661ffff1661ffff1681526020016000820160029054906101000a900465ffffffffffff1665ffffffffffff1665ffffffffffff1681526020016000820160089054906101000a900473ffffffffffffffffffffffffffffffffffffffff1673ffffffffffffffffffffffffffffffffffffffff1673ffffffffffffffffffffffffffffffffffffffff1681525050905080600960008661ffff1661ffff168152602001908152602001600020600a60008c61ffff1661ffff16815260200190815260200160002060009054906101000a900461ffff1661ffff1681548110612a59577f4e487b7100000000000000000000000000000000000000000000000000000000600052603260045260246000fd5b9060005260206000200160008201518160000160006101000a81548161ffff021916908361ffff16021790555060208201518160000160026101000a81548165ffffffffffff021916908365ffffffffffff16021790555060408201518160000160086101000a81548173ffffffffffffffffffffffffffffffffffffffff021916908373ffffffffffffffffffffffffffffffffffffffff160217905550905050600a60008a61ffff1661ffff16815260200190815260200160002060009054906101000a900461ffff16600a6000836000015161ffff1661ffff16815260200190815260200160002060006101000a81548161ffff021916908361ffff160217905550600960008561ffff1661ffff168152602001908152602001600020805480612baf577f4e487b7100000000000000000000000000000000000000000000000000000000600052603160045260246000fd5b60019003818190600052602060002001600080820160006101000a81549061ffff02191690556000820160026101000a81549065ffffffffffff02191690556000820160086101000a81549073ffffffffffffffffffffffffffffffffffffffff021916905550509055600a60008a61ffff1661ffff16815260200190815260200160002060006101000a81549061ffff0219169055612c53868a61ffff16613d91565b95506000600260f588901c612c689190615156565b1415612c7c57612c7785613dda565b600094505b6001600360108282829054906101000a900463ffffffff16612c9e9190614e5f565b92506101000a81548163ffffffff021916908363ffffffff160217905550600660009054906101000a900473ffffffffffffffffffffffffffffffffffffffff1673ffffffffffffffffffffffffffffffffffffffff1663b88d4fde30338c6040518463ffffffff1660e01b8152600401612d1b939291906147f9565b600060405180830381600087803b158015612d3557600080fd5b505af1158015612d49573d6000803e3d6000fd5b5050505050612f07565b60006064601960ff1686612d679190614d1f565b612d719190614cee565b9050612d7c81613dda565b606460196064612d8c9190614ec7565b60ff1686612d9a9190614d1f565b612da49190614cee565b945060405180606001604052808a61ffff1681526020018865ffffffffffff1681526020013373ffffffffffffffffffffffffffffffffffffffff16815250600960008661ffff1661ffff168152602001908152602001600020600a60008c61ffff1661ffff16815260200190815260200160002060009054906101000a900461ffff1661ffff1681548110612e63577f4e487b7100000000000000000000000000000000000000000000000000000000600052603260045260246000fd5b9060005260206000200160008201518160000160006101000a81548161ffff021916908361ffff16021790555060208201518160000160026101000a81548165ffffffffffff021916908365ffffffffffff16021790555060408201518160000160086101000a81548173ffffffffffffffffffffffffffffffffffffffff021916908373ffffffffffffffffffffffffffffffffffffffff160217905550905050505b505050949350505050565b60003073ffffffffffffffffffffffffffffffffffffffff16600660009054906101000a900473ffffffffffffffffffffffffffffffffffffffff1673ffffffffffffffffffffffffffffffffffffffff16636352211e856040518263ffffffff1660e01b8152600401612f869190614aa4565b60206040518083038186803b158015612f9e57600080fd5b505afa158015612fb2573d6000803e3d6000fd5b505050506040513d601f19601f82011682018060405250810190612fd6919061417a565b73ffffffffffffffffffffffffffffffffffffffff161461302c576040517f08c379a00000000000000000000000000000000000000000000000000000000081526004016130239061498e565b60405180910390fd5b6000613037846122b4565b90506000600b60008361ffff1661ffff168152602001908152602001600020600c60008761ffff1661ffff16815260200190815260200160002060009054906101000a900461ffff1661ffff16815481106130bb577f4e487b7100000000000000000000000000000000000000000000000000000000600052603260045260246000fd5b90600052602060002090600202016040518060600160405290816000820160009054906101000a900461ffff1661ffff1661ffff1681526020016000820160029054906101000a90046fffffffffffffffffffffffffffffffff166fffffffffffffffffffffffffffffffff166fffffffffffffffffffffffffffffffff1681526020016001820160009054906101000a900473ffffffffffffffffffffffffffffffffffffffff1673ffffffffffffffffffffffffffffffffffffffff1673ffffffffffffffffffffffffffffffffffffffff1681525050905061319e61237d565b73ffffffffffffffffffffffffffffffffffffffff16816040015173ffffffffffffffffffffffffffffffffffffffff161461320f576040517f08c379a00000000000000000000000000000000000000000000000000000000081526004016132069061490e565b60405180910390fd5b8060200151600460009054906101000a90046fffffffffffffffffffffffffffffffff1661323d9190614dc3565b8261ffff1661324c9190614d1f565b925083156137515781600360188282829054906101000a900461ffff166132739190614df7565b92506101000a81548161ffff021916908361ffff1602179055506000600b60008461ffff1661ffff1681526020019081526020016000206001600b60008661ffff1661ffff168152602001908152602001600020805490506132d59190614e2b565b8154811061330c577f4e487b7100000000000000000000000000000000000000000000000000000000600052603260045260246000fd5b90600052602060002090600202016040518060600160405290816000820160009054906101000a900461ffff1661ffff1661ffff1681526020016000820160029054906101000a90046fffffffffffffffffffffffffffffffff166fffffffffffffffffffffffffffffffff166fffffffffffffffffffffffffffffffff1681526020016001820160009054906101000a900473ffffffffffffffffffffffffffffffffffffffff1673ffffffffffffffffffffffffffffffffffffffff1673ffffffffffffffffffffffffffffffffffffffff1681525050905080600b60008561ffff1661ffff168152602001908152602001600020600c60008961ffff1661ffff16815260200190815260200160002060009054906101000a900461ffff1661ffff1681548110613468577f4e487b7100000000000000000000000000000000000000000000000000000000600052603260045260246000fd5b906000526020600020906002020160008201518160000160006101000a81548161ffff021916908361ffff16021790555060208201518160000160026101000a8154816fffffffffffffffffffffffffffffffff02191690836fffffffffffffffffffffffffffffffff16021790555060408201518160010160006101000a81548173ffffffffffffffffffffffffffffffffffffffff021916908373ffffffffffffffffffffffffffffffffffffffff160217905550905050600c60008761ffff1661ffff16815260200190815260200160002060009054906101000a900461ffff16600c6000836000015161ffff1661ffff16815260200190815260200160002060006101000a81548161ffff021916908361ffff160217905550600b60008461ffff1661ffff1681526020019081526020016000208054806135d6577f4e487b7100000000000000000000000000000000000000000000000000000000600052603160045260246000fd5b6001900381819060005260206000209060020201600080820160006101000a81549061ffff02191690556000820160026101000a8154906fffffffffffffffffffffffffffffffff02191690556001820160006101000a81549073ffffffffffffffffffffffffffffffffffffffff021916905550509055600c60008761ffff1661ffff16815260200190815260200160002060006101000a81549061ffff02191690556001600360148282829054906101000a900463ffffffff1661369c9190614e5f565b92506101000a81548163ffffffff021916908363ffffffff160217905550600660009054906101000a900473ffffffffffffffffffffffffffffffffffffffff1673ffffffffffffffffffffffffffffffffffffffff1663b88d4fde3033896040518463ffffffff1660e01b8152600401613719939291906147f9565b600060405180830381600087803b15801561373357600080fd5b505af1158015613747573d6000803e3d6000fd5b50505050506138f1565b60405180606001604052808661ffff168152602001600460009054906101000a90046fffffffffffffffffffffffffffffffff166fffffffffffffffffffffffffffffffff1681526020013373ffffffffffffffffffffffffffffffffffffffff16815250600b60008461ffff1661ffff168152602001908152602001600020600c60008861ffff1661ffff16815260200190815260200160002060009054906101000a900461ffff1661ffff1681548110613836577f4e487b7100000000000000000000000000000000000000000000000000000000600052603260045260246000fd5b906000526020600020906002020160008201518160000160006101000a81548161ffff021916908361ffff16021790555060208201518160000160026101000a8154816fffffffffffffffffffffffffffffffff02191690836fffffffffffffffffffffffffffffffff16021790555060408201518160010160006101000a81548173ffffffffffffffffffffffffffffffffffffffff021916908373ffffffffffffffffffffffffffffffffffffffff1602179055509050505b505092915050565b6000600660009054906101000a900473ffffffffffffffffffffffffffffffffffffffff1673ffffffffffffffffffffffffffffffffffffffff166343e55e30836040518263ffffffff1660e01b81526004016139569190614a89565b6101206040518083038186803b15801561396f57600080fd5b505afa158015613983573d6000803e3d6000fd5b505050506040513d601f19601f820116820180604052508101906139a79190614373565b610100015160ff169050600960008261ffff1661ffff16815260200190815260200160002080549050600a60008461ffff1661ffff16815260200190815260200160002060006101000a81548161ffff021916908361ffff160217905550600960008261ffff1661ffff16815260200190815260200160002060405180606001604052808461ffff1681526020014265ffffffffffff1681526020018573ffffffffffffffffffffffffffffffffffffffff168152509080600181540180825580915050600190039060005260206000200160009091909190915060008201518160000160006101000a81548161ffff021916908361ffff16021790555060208201518160000160026101000a81548165ffffffffffff021916908365ffffffffffff16021790555060408201518160000160086101000a81548173ffffffffffffffffffffffffffffffffffffffff021916908373ffffffffffffffffffffffffffffffffffffffff16021790555050506001600360108282829054906101000a900463ffffffff16613b3b9190614cb4565b92506101000a81548163ffffffff021916908363ffffffff160217905550505050565b6000613b69826122b4565b905080600360188282829054906101000a900461ffff16613b8a9190614c26565b92506101000a81548161ffff021916908361ffff160217905550600b60008261ffff1661ffff16815260200190815260200160002080549050600c60008461ffff1661ffff16815260200190815260200160002060006101000a81548161ffff021916908361ffff160217905550600b60008261ffff1661ffff16815260200190815260200160002060405180606001604052808461ffff168152602001600460009054906101000a90046fffffffffffffffffffffffffffffffff166fffffffffffffffffffffffffffffffff1681526020018573ffffffffffffffffffffffffffffffffffffffff16815250908060018154018082558091505060019003906000526020600020906002020160009091909190915060008201518160000160006101000a81548161ffff021916908361ffff16021790555060208201518160000160026101000a8154816fffffffffffffffffffffffffffffffff02191690836fffffffffffffffffffffffffffffffff16021790555060408201518160010160006101000a81548173ffffffffffffffffffffffffffffffffffffffff021916908373ffffffffffffffffffffffffffffffffffffffff16021790555050506001600360148282829054906101000a900463ffffffff16613d6e9190614cb4565b92506101000a81548163ffffffff021916908363ffffffff160217905550505050565b60008232600143613da29190614e2b565b404285604051602001613db9959493929190614748565b6040516020818303038152906040528051906020012060001c905092915050565b60008190506000600360189054906101000a900461ffff1661ffff161415613e645780600360008282829054906101000a90046fffffffffffffffffffffffffffffffff16613e299190614be0565b92506101000a8154816fffffffffffffffffffffffffffffffff02191690836fffffffffffffffffffffffffffffffff160217905550613f4a565b600360189054906101000a900461ffff1661ffff16600360009054906101000a90046fffffffffffffffffffffffffffffffff1682613ea39190614be0565b613ead9190614cee565b600460008282829054906101000a90046fffffffffffffffffffffffffffffffff16613ed99190614be0565b92506101000a8154816fffffffffffffffffffffffffffffffff02191690836fffffffffffffffffffffffffffffffff1602179055506000600360006101000a8154816fffffffffffffffffffffffffffffffff02191690836fffffffffffffffffffffffffffffffff1602179055505b5050565b600081359050613f5d81615451565b92915050565b600081519050613f7281615451565b92915050565b60008083601f840112613f8a57600080fd5b8235905067ffffffffffffffff811115613fa357600080fd5b602083019150836020820283011115613fbb57600080fd5b9250929050565b600081359050613fd181615468565b92915050565b600081519050613fe681615468565b92915050565b60008083601f840112613ffe57600080fd5b8235905067ffffffffffffffff81111561401757600080fd5b60208301915083600182028301111561402f57600080fd5b9250929050565b6000610120828403121561404957600080fd5b614054610120614b99565b9050600061406484828501613fd7565b60008301525060206140788482850161413c565b602083015250604061408c8482850161413c565b60408301525060606140a08482850161413c565b60608301525060806140b48482850161413c565b60808301525060a06140c88482850161413c565b60a08301525060c06140dc8482850161413c565b60c08301525060e06140f08482850161413c565b60e0830152506101006141058482850161413c565b6101008301525092915050565b6000813590506141218161547f565b92915050565b60008135905061413681615496565b92915050565b60008151905061414b816154ad565b92915050565b60006020828403121561416357600080fd5b600061417184828501613f4e565b91505092915050565b60006020828403121561418c57600080fd5b600061419a84828501613f63565b91505092915050565b600080600080608085870312156141b957600080fd5b60006141c787828801613f4e565b94505060206141d887828801613f4e565b93505060406141e987828801613f4e565b92505060606141fa87828801613f4e565b91505092959194509250565b60008060008060006080868803121561421e57600080fd5b600061422c88828901613f4e565b955050602061423d88828901613f4e565b945050604061424e88828901614127565b935050606086013567ffffffffffffffff81111561426b57600080fd5b61427788828901613fec565b92509250509295509295909350565b60008060006040848603121561429b57600080fd5b60006142a986828701613f4e565b935050602084013567ffffffffffffffff8111156142c657600080fd5b6142d286828701613f78565b92509250509250925092565b600080600080606085870312156142f457600080fd5b600085013567ffffffffffffffff81111561430e57600080fd5b61431a87828801613f78565b9450945050602061432d87828801613fc2565b925050604061433e87828801614127565b91505092959194509250565b60006020828403121561435c57600080fd5b600061436a84828501613fd7565b91505092915050565b6000610120828403121561438657600080fd5b600061439484828501614036565b91505092915050565b6000602082840312156143af57600080fd5b60006143bd84828501614112565b91505092915050565b600080604083850312156143d957600080fd5b60006143e785828601614112565b92505060206143f885828601614112565b9150509250929050565b6000806040838503121561441557600080fd5b600061442385828601614112565b925050602061443485828601614127565b9150509250929050565b60006020828403121561445057600080fd5b600061445e84828501614127565b91505092915050565b61447081614efb565b82525050565b61448761448282614efb565b61510c565b82525050565b61449681614f0d565b82525050565b6144ad6144a882614f19565b61511e565b82525050565b6144bc81614f23565b82525050565b6144cb81614fd2565b82525050565b6144da81614ff6565b82525050565b6144e98161501a565b82525050565b6144f88161503e565b82525050565b600061450b601d83614bcf565b91506145168261523f565b602082019050919050565b600061452e602683614bcf565b915061453982615268565b604082019050919050565b6000614551600883614bcf565b915061455c826152b7565b602082019050919050565b6000614574601083614bcf565b915061457f826152e0565b602082019050919050565b6000614597601f83614bcf565b91506145a282615309565b602082019050919050565b60006145ba602083614bcf565b91506145c582615332565b602082019050919050565b60006145dd601a83614bcf565b91506145e88261535b565b602082019050919050565b6000614600600083614bbe565b915061460b82615384565b600082019050919050565b6000614623602283614bcf565b915061462e82615387565b604082019050919050565b6000614646601b83614bcf565b9150614651826153d6565b602082019050919050565b6000614669601d83614bcf565b9150614674826153ff565b602082019050919050565b600061468c601f83614bcf565b915061469782615428565b602082019050919050565b6146ab81614f4f565b82525050565b6146ba81615062565b82525050565b6146c981614f6b565b82525050565b6146d881615074565b82525050565b6146e781614f99565b82525050565b6146fe6146f982614f99565b61513a565b82525050565b61470d81614fa3565b82525050565b61472461471f82614fa3565b615144565b82525050565b61473381614fb3565b82525050565b61474281614fc5565b82525050565b600061475482886146ed565b6020820191506147648287614476565b601482019150614774828661449c565b60208201915061478482856146ed565b6020820191506147948284614713565b6004820191508190509695505050505050565b60006020820190506147bc6000830184614467565b92915050565b60006060820190506147d76000830186614467565b6147e46020830185614467565b6147f160408301846146cf565b949350505050565b600060808201905061480e6000830186614467565b61481b6020830185614467565b61482860408301846146cf565b8181036060830152614839816145f3565b9050949350505050565b60006040820190506148586000830185614467565b61486560208301846146b1565b9392505050565b6000602082019050614881600083018461448d565b92915050565b600060208201905061489c60008301846144b3565b92915050565b60006020820190506148b760008301846144c2565b92915050565b60006020820190506148d260008301846144d1565b92915050565b60006020820190506148ed60008301846144e0565b92915050565b600060208201905061490860008301846144ef565b92915050565b60006020820190508181036000830152614927816144fe565b9050919050565b6000602082019050818103600083015261494781614521565b9050919050565b6000602082019050818103600083015261496781614544565b9050919050565b6000602082019050818103600083015261498781614567565b9050919050565b600060208201905081810360008301526149a78161458a565b9050919050565b600060208201905081810360008301526149c7816145ad565b9050919050565b600060208201905081810360008301526149e7816145d0565b9050919050565b60006020820190508181036000830152614a0781614616565b9050919050565b60006020820190508181036000830152614a2781614639565b9050919050565b60006020820190508181036000830152614a478161465c565b9050919050565b60006020820190508181036000830152614a678161467f565b9050919050565b6000602082019050614a8360008301846146a2565b92915050565b6000602082019050614a9e60008301846146c0565b92915050565b6000602082019050614ab960008301846146cf565b92915050565b6000606082019050614ad460008301866146c0565b614ae160208301856146a2565b614aee6040830184614467565b949350505050565b6000606082019050614b0b60008301866146c0565b614b18602083018561472a565b614b256040830184614467565b949350505050565b6000602082019050614b4260008301846146de565b92915050565b6000602082019050614b5d6000830184614704565b92915050565b6000602082019050614b78600083018461472a565b92915050565b6000602082019050614b936000830184614739565b92915050565b6000614ba3614bb4565b9050614baf8282615086565b919050565b6000604051905090565b600082825260208201905092915050565b600082825260208201905092915050565b6000614beb82614f4f565b9150614bf683614f4f565b9250826fffffffffffffffffffffffffffffffff03821115614c1b57614c1a615187565b5b828201905092915050565b6000614c3182614f6b565b9150614c3c83614f6b565b92508261ffff03821115614c5357614c52615187565b5b828201905092915050565b6000614c6982614f99565b9150614c7483614f99565b9250827fffffffffffffffffffffffffffffffffffffffffffffffffffffffffffffffff03821115614ca957614ca8615187565b5b828201905092915050565b6000614cbf82614fa3565b9150614cca83614fa3565b92508263ffffffff03821115614ce357614ce2615187565b5b828201905092915050565b6000614cf982614f4f565b9150614d0483614f4f565b925082614d1457614d136151b6565b5b828204905092915050565b6000614d2a82614f4f565b9150614d3583614f4f565b9250816fffffffffffffffffffffffffffffffff0483118215151615614d5e57614d5d615187565b5b828202905092915050565b6000614d7482614f99565b9150614d7f83614f99565b9250817fffffffffffffffffffffffffffffffffffffffffffffffffffffffffffffffff0483118215151615614db857614db7615187565b5b828202905092915050565b6000614dce82614f4f565b9150614dd983614f4f565b925082821015614dec57614deb615187565b5b828203905092915050565b6000614e0282614f6b565b9150614e0d83614f6b565b925082821015614e2057614e1f615187565b5b828203905092915050565b6000614e3682614f99565b9150614e4183614f99565b925082821015614e5457614e53615187565b5b828203905092915050565b6000614e6a82614fa3565b9150614e7583614fa3565b925082821015614e8857614e87615187565b5b828203905092915050565b6000614e9e82614fb3565b9150614ea983614fb3565b925082821015614ebc57614ebb615187565b5b828203905092915050565b6000614ed282614fc5565b9150614edd83614fc5565b925082821015614ef057614eef615187565b5b828203905092915050565b6000614f0682614f79565b9050919050565b60008115159050919050565b6000819050919050565b60007fffffffff0000000000000000000000000000000000000000000000000000000082169050919050565b60006fffffffffffffffffffffffffffffffff82169050919050565b600061ffff82169050919050565b600073ffffffffffffffffffffffffffffffffffffffff82169050919050565b6000819050919050565b600063ffffffff82169050919050565b600065ffffffffffff82169050919050565b600060ff82169050919050565b6000614fdd82614fe4565b9050919050565b6000614fef82614f79565b9050919050565b600061500182615008565b9050919050565b600061501382614f79565b9050919050565b60006150258261502c565b9050919050565b600061503782614f79565b9050919050565b600061504982615050565b9050919050565b600061505b82614f79565b9050919050565b600061506d82614f4f565b9050919050565b600061507f82614f6b565b9050919050565b61508f82615214565b810181811067ffffffffffffffff821117156150ae576150ad6151e5565b5b80604052505050565b60006150c282614f6b565b915061ffff8214156150d7576150d6615187565b5b600182019050919050565b60006150ed82614fc5565b915060ff82141561510157615100615187565b5b600182019050919050565b600061511782615128565b9050919050565b6000819050919050565b600061513382615232565b9050919050565b6000819050919050565b600061514f82615225565b9050919050565b600061516182614f99565b915061516c83614f99565b92508261517c5761517b6151b6565b5b828206905092915050565b7f4e487b7100000000000000000000000000000000000000000000000000000000600052601160045260246000fd5b7f4e487b7100000000000000000000000000000000000000000000000000000000600052601260045260246000fd5b7f4e487b7100000000000000000000000000000000000000000000000000000000600052604160045260246000fd5b6000601f19601f8301169050919050565b60008160e01b9050919050565b60008160601b9050919050565b7f6f6e6c7920746f6b656e206f776e6572732063616e20756e7374616b65000000600082015250565b7f4f776e61626c653a206e6577206f776e657220697320746865207a65726f206160008201527f6464726573730000000000000000000000000000000000000000000000000000602082015250565b7f656f73206f6e6c79000000000000000000000000000000000000000000000000600082015250565b7f5061757361626c653a2070617573656400000000000000000000000000000000600082015250565b7f6d757374206265207374616b656420746f20636c61696d207265776172647300600082015250565b7f4f776e61626c653a2063616c6c6572206973206e6f7420746865206f776e6572600082015250565b7f6163636f756e7420746f2073656e646572206d69736d61746368000000000000600082015250565b50565b7f6e6f7420617070726f76656420746f207374616b652074686520746f6b656e2860008201527f7329000000000000000000000000000000000000000000000000000000000000602082015250565b7f6f6e6c7920746f6b656e206f776e6572732063616e207374616b650000000000600082015250565b7f6f6e6c7920616c6c6f77206469726563746c792066726f6d206d696e74000000600082015250565b7f5265656e7472616e637947756172643a207265656e7472616e742063616c6c00600082015250565b61545a81614efb565b811461546557600080fd5b50565b61547181614f0d565b811461547c57600080fd5b50565b61548881614f6b565b811461549357600080fd5b50565b61549f81614f99565b81146154aa57600080fd5b50565b6154b681614fc5565b81146154c157600080fd5b5056fea2646970667358221220d591e6d198864626116d7255fc273d58dbcd80acad7f79ae82156a4296c8151b64736f6c63430008010033",
  "linkReferences": {},
  "deployedLinkReferences": {}
}