{
  "_format": "hh-sol-artifact-1",
  "contractName": "RandomNumberConsumer",
  "sourceName": "contracts/RandomNumberConsumer.sol",
  "abi": [
    {
      "inputs": [],
      "stateMutability": "nonpayable",
      "type": "constructor"
    },
    {
      "inputs": [],
      "name": "getCurrentSeed",
      "outputs": [
        {
          "internalType": "uint256",
          "name": "",
          "type": "uint256"
        }
      ],
      "stateMutability": "view",
      "type": "function"
    },
    {
      "inputs": [],
      "name": "getRandomNumber",
      "outputs": [
        {
          "internalType": "bytes32",
          "name": "requestId",
          "type": "bytes32"
        }
      ],
      "stateMutability": "nonpayable",
      "type": "function"
    },
    {
      "inputs": [],
      "name": "randomResult",
      "outputs": [
        {
          "internalType": "uint256",
          "name": "",
          "type": "uint256"
        }
      ],
      "stateMutability": "view",
      "type": "function"
    },
    {
      "inputs": [],
      "name": "randomizeSeed",
      "outputs": [
        {
          "internalType": "uint256",
          "name": "",
          "type": "uint256"
        }
      ],
      "stateMutability": "nonpayable",
      "type": "function"
    },
    {
      "inputs": [
        {
          "internalType": "bytes32",
          "name": "requestId",
          "type": "bytes32"
        },
        {
          "internalType": "uint256",
          "name": "randomness",
          "type": "uint256"
        }
      ],
      "name": "rawFulfillRandomness",
      "outputs": [],
      "stateMutability": "nonpayable",
      "type": "function"
    }
  ],
  "bytecode": "0x60c060405234801561001057600080fd5b50738c7382f9d8f56b33781fe506e897a4f1e2d1725573326c977e6efc84e512bb9c30f76e30c160ed06fb8173ffffffffffffffffffffffffffffffffffffffff1660a08173ffffffffffffffffffffffffffffffffffffffff1660601b815250508073ffffffffffffffffffffffffffffffffffffffff1660808173ffffffffffffffffffffffffffffffffffffffff1660601b8152505050507f6e75b569a01ef56d18cab6a8e71e6600d6ce853834d4a5748b720d06f878b3a460001b600181905550655af3107a400060028190555060805160601c60a05160601c610b7961011a6000396000818160f8015261035301526000818161020e01526103170152610b796000f3fe608060405234801561001057600080fd5b50600436106100575760003560e01c806342619f661461005c57806394985ddd1461007a578063c0982f5014610096578063d614dd92146100b4578063dbdff2c1146100d2575b600080fd5b6100646100f0565b6040516100719190610861565b60405180910390f35b610094600480360381019061008f919061055e565b6100f6565b005b61009e610192565b6040516100ab9190610861565b60405180910390f35b6100bc6101fd565b6040516100c99190610861565b60405180910390f35b6100da610207565b6040516100e79190610798565b60405180910390f35b60035481565b7f000000000000000000000000000000000000000000000000000000000000000073ffffffffffffffffffffffffffffffffffffffff163373ffffffffffffffffffffffffffffffffffffffff1614610184576040517f08c379a000000000000000000000000000000000000000000000000000000000815260040161017b90610841565b60405180910390fd5b61018e8282610308565b5050565b6000600560008154809291906101a7906109b8565b9190505550326001436101ba91906108ff565b40426004546005546040516020016101d69594939291906106b4565b6040516020818303038152906040528051906020012060001c600681905550600654905090565b6000600654905090565b60006002547f000000000000000000000000000000000000000000000000000000000000000073ffffffffffffffffffffffffffffffffffffffff166370a08231306040518263ffffffff1660e01b8152600401610265919061073f565b60206040518083038186803b15801561027d57600080fd5b505afa158015610291573d6000803e3d6000fd5b505050506040513d601f19601f820116820180604052508101906102b5919061059a565b116102f5576040517f08c379a00000000000000000000000000000000000000000000000000000000081526004016102ec90610821565b60405180910390fd5b610303600154600254610313565b905090565b806004819055505050565b60007f000000000000000000000000000000000000000000000000000000000000000073ffffffffffffffffffffffffffffffffffffffff16634000aea07f0000000000000000000000000000000000000000000000000000000000000000848660006040516020016103879291906107b3565b6040516020818303038152906040526040518463ffffffff1660e01b81526004016103b49392919061075a565b602060405180830381600087803b1580156103ce57600080fd5b505af11580156103e2573d6000803e3d6000fd5b505050506040513d601f19601f820116820180604052508101906104069190610535565b5060006104288460003060008089815260200190815260200160002054610472565b905060016000808681526020019081526020016000205461044991906108a9565b6000808681526020019081526020016000208190555061046984826104ae565b91505092915050565b60008484848460405160200161048b94939291906107dc565b6040516020818303038152906040528051906020012060001c9050949350505050565b600082826040516020016104c3929190610713565b60405160208183030381529060405280519060200120905092915050565b6000815190506104f081610afe565b92915050565b60008135905061050581610b15565b92915050565b60008135905061051a81610b2c565b92915050565b60008151905061052f81610b2c565b92915050565b60006020828403121561054757600080fd5b6000610555848285016104e1565b91505092915050565b6000806040838503121561057157600080fd5b600061057f858286016104f6565b92505060206105908582860161050b565b9150509250929050565b6000602082840312156105ac57600080fd5b60006105ba84828501610520565b91505092915050565b6105cc81610933565b82525050565b6105e36105de82610933565b610a01565b82525050565b6105f281610951565b82525050565b61060961060482610951565b610a13565b82525050565b600061061a8261087c565b6106248185610887565b9350610634818560208601610985565b61063d81610a68565b840191505092915050565b6000610655602b83610898565b915061066082610a86565b604082019050919050565b6000610678601f83610898565b915061068382610ad5565b602082019050919050565b6106978161097b565b82525050565b6106ae6106a98261097b565b610a2f565b82525050565b60006106c082886105d2565b6014820191506106d082876105f8565b6020820191506106e0828661069d565b6020820191506106f0828561069d565b602082019150610700828461069d565b6020820191508190509695505050505050565b600061071f82856105f8565b60208201915061072f828461069d565b6020820191508190509392505050565b600060208201905061075460008301846105c3565b92915050565b600060608201905061076f60008301866105c3565b61077c602083018561068e565b818103604083015261078e818461060f565b9050949350505050565b60006020820190506107ad60008301846105e9565b92915050565b60006040820190506107c860008301856105e9565b6107d5602083018461068e565b9392505050565b60006080820190506107f160008301876105e9565b6107fe602083018661068e565b61080b60408301856105c3565b610818606083018461068e565b95945050505050565b6000602082019050818103600083015261083a81610648565b9050919050565b6000602082019050818103600083015261085a8161066b565b9050919050565b6000602082019050610876600083018461068e565b92915050565b600081519050919050565b600082825260208201905092915050565b600082825260208201905092915050565b60006108b48261097b565b91506108bf8361097b565b9250827fffffffffffffffffffffffffffffffffffffffffffffffffffffffffffffffff038211156108f4576108f3610a39565b5b828201905092915050565b600061090a8261097b565b91506109158361097b565b92508282101561092857610927610a39565b5b828203905092915050565b600061093e8261095b565b9050919050565b60008115159050919050565b6000819050919050565b600073ffffffffffffffffffffffffffffffffffffffff82169050919050565b6000819050919050565b60005b838110156109a3578082015181840152602081019050610988565b838111156109b2576000848401525b50505050565b60006109c38261097b565b91507fffffffffffffffffffffffffffffffffffffffffffffffffffffffffffffffff8214156109f6576109f5610a39565b5b600182019050919050565b6000610a0c82610a1d565b9050919050565b6000819050919050565b6000610a2882610a79565b9050919050565b6000819050919050565b7f4e487b7100000000000000000000000000000000000000000000000000000000600052601160045260246000fd5b6000601f19601f8301169050919050565b60008160601b9050919050565b7f4e6f7420656e6f756768204c494e4b202d2066696c6c20636f6e74726163742060008201527f7769746820666175636574000000000000000000000000000000000000000000602082015250565b7f4f6e6c7920565246436f6f7264696e61746f722063616e2066756c66696c6c00600082015250565b610b0781610945565b8114610b1257600080fd5b50565b610b1e81610951565b8114610b2957600080fd5b50565b610b358161097b565b8114610b4057600080fd5b5056fea264697066735822122072ad3e7ed4fcdb7010e2f7a2723c661a63ae658ab7dfa40ea81e67f7862207b264736f6c63430008010033",
  "linkReferences": {},
  "deployedLinkReferences": {}
}