{
  "_format": "hh-sol-artifact-1",
  "contractName": "Dirt",
  "sourceName": "contracts/Dirt.sol",
  "abi": [
    {
      "inputs": [],
      "stateMutability": "nonpayable",
      "type": "constructor"
    },
    {
      "anonymous": false,
      "inputs": [
        {
          "indexed": true,
          "internalType": "address",
          "name": "owner",
          "type": "address"
        },
        {
          "indexed": true,
          "internalType": "address",
          "name": "spender",
          "type": "address"
        },
        {
          "indexed": false,
          "internalType": "uint256",
          "name": "value",
          "type": "uint256"
        }
      ],
      "name": "Approval",
      "type": "event"
    },
    {
      "anonymous": false,
      "inputs": [
        {
          "indexed": true,
          "internalType": "address",
          "name": "previousOwner",
          "type": "address"
        },
        {
          "indexed": true,
          "internalType": "address",
          "name": "newOwner",
          "type": "address"
        }
      ],
      "name": "OwnershipTransferred",
      "type": "event"
    },
    {
      "anonymous": false,
      "inputs": [
        {
          "indexed": true,
          "internalType": "address",
          "name": "from",
          "type": "address"
        },
        {
          "indexed": true,
          "internalType": "address",
          "name": "to",
          "type": "address"
        },
        {
          "indexed": false,
          "internalType": "uint256",
          "name": "value",
          "type": "uint256"
        }
      ],
      "name": "Transfer",
      "type": "event"
    },
    {
      "inputs": [
        {
          "internalType": "address",
          "name": "addr",
          "type": "address"
        }
      ],
      "name": "addAdmin",
      "outputs": [],
      "stateMutability": "nonpayable",
      "type": "function"
    },
    {
      "inputs": [
        {
          "internalType": "address",
          "name": "owner",
          "type": "address"
        },
        {
          "internalType": "address",
          "name": "spender",
          "type": "address"
        }
      ],
      "name": "allowance",
      "outputs": [
        {
          "internalType": "uint256",
          "name": "",
          "type": "uint256"
        }
      ],
      "stateMutability": "view",
      "type": "function"
    },
    {
      "inputs": [
        {
          "internalType": "address",
          "name": "spender",
          "type": "address"
        },
        {
          "internalType": "uint256",
          "name": "amount",
          "type": "uint256"
        }
      ],
      "name": "approve",
      "outputs": [
        {
          "internalType": "bool",
          "name": "",
          "type": "bool"
        }
      ],
      "stateMutability": "nonpayable",
      "type": "function"
    },
    {
      "inputs": [
        {
          "internalType": "address",
          "name": "account",
          "type": "address"
        }
      ],
      "name": "balanceOf",
      "outputs": [
        {
          "internalType": "uint256",
          "name": "",
          "type": "uint256"
        }
      ],
      "stateMutability": "view",
      "type": "function"
    },
    {
      "inputs": [
        {
          "internalType": "address",
          "name": "from",
          "type": "address"
        },
        {
          "internalType": "uint256",
          "name": "amount",
          "type": "uint256"
        }
      ],
      "name": "burn",
      "outputs": [],
      "stateMutability": "nonpayable",
      "type": "function"
    },
    {
      "inputs": [],
      "name": "decimals",
      "outputs": [
        {
          "internalType": "uint8",
          "name": "",
          "type": "uint8"
        }
      ],
      "stateMutability": "view",
      "type": "function"
    },
    {
      "inputs": [
        {
          "internalType": "address",
          "name": "spender",
          "type": "address"
        },
        {
          "internalType": "uint256",
          "name": "subtractedValue",
          "type": "uint256"
        }
      ],
      "name": "decreaseAllowance",
      "outputs": [
        {
          "internalType": "bool",
          "name": "",
          "type": "bool"
        }
      ],
      "stateMutability": "nonpayable",
      "type": "function"
    },
    {
      "inputs": [
        {
          "internalType": "address",
          "name": "spender",
          "type": "address"
        },
        {
          "internalType": "uint256",
          "name": "addedValue",
          "type": "uint256"
        }
      ],
      "name": "increaseAllowance",
      "outputs": [
        {
          "internalType": "bool",
          "name": "",
          "type": "bool"
        }
      ],
      "stateMutability": "nonpayable",
      "type": "function"
    },
    {
      "inputs": [
        {
          "internalType": "address",
          "name": "to",
          "type": "address"
        },
        {
          "internalType": "uint256",
          "name": "amount",
          "type": "uint256"
        }
      ],
      "name": "mint",
      "outputs": [],
      "stateMutability": "nonpayable",
      "type": "function"
    },
    {
      "inputs": [],
      "name": "name",
      "outputs": [
        {
          "internalType": "string",
          "name": "",
          "type": "string"
        }
      ],
      "stateMutability": "view",
      "type": "function"
    },
    {
      "inputs": [],
      "name": "owner",
      "outputs": [
        {
          "internalType": "address",
          "name": "",
          "type": "address"
        }
      ],
      "stateMutability": "view",
      "type": "function"
    },
    {
      "inputs": [
        {
          "internalType": "address",
          "name": "addr",
          "type": "address"
        }
      ],
      "name": "removeAdmin",
      "outputs": [],
      "stateMutability": "nonpayable",
      "type": "function"
    },
    {
      "inputs": [],
      "name": "renounceOwnership",
      "outputs": [],
      "stateMutability": "nonpayable",
      "type": "function"
    },
    {
      "inputs": [],
      "name": "symbol",
      "outputs": [
        {
          "internalType": "string",
          "name": "",
          "type": "string"
        }
      ],
      "stateMutability": "view",
      "type": "function"
    },
    {
      "inputs": [],
      "name": "totalSupply",
      "outputs": [
        {
          "internalType": "uint256",
          "name": "",
          "type": "uint256"
        }
      ],
      "stateMutability": "view",
      "type": "function"
    },
    {
      "inputs": [
        {
          "internalType": "address",
          "name": "to",
          "type": "address"
        },
        {
          "internalType": "uint256",
          "name": "amount",
          "type": "uint256"
        }
      ],
      "name": "transfer",
      "outputs": [
        {
          "internalType": "bool",
          "name": "",
          "type": "bool"
        }
      ],
      "stateMutability": "nonpayable",
      "type": "function"
    },
    {
      "inputs": [
        {
          "internalType": "address",
          "name": "sender",
          "type": "address"
        },
        {
          "internalType": "address",
          "name": "recipient",
          "type": "address"
        },
        {
          "internalType": "uint256",
          "name": "amount",
          "type": "uint256"
        }
      ],
      "name": "transferFrom",
      "outputs": [
        {
          "internalType": "bool",
          "name": "",
          "type": "bool"
        }
      ],
      "stateMutability": "nonpayable",
      "type": "function"
    },
    {
      "inputs": [
        {
          "internalType": "address",
          "name": "newOwner",
          "type": "address"
        }
      ],
      "name": "transferOwnership",
      "outputs": [],
      "stateMutability": "nonpayable",
      "type": "function"
    }
  ],
  "bytecode": "0x60806040523480156200001157600080fd5b506040518060400160405280600481526020017f44495254000000000000000000000000000000000000000000000000000000008152506040518060400160405280600481526020017f4449525400000000000000000000000000000000000000000000000000000000815250816003908051906020019062000096929190620001a6565b508060049080519060200190620000af929190620001a6565b505050620000d2620000c6620000d860201b60201c565b620000e060201b60201c565b620002bb565b600033905090565b6000600560009054906101000a900473ffffffffffffffffffffffffffffffffffffffff16905081600560006101000a81548173ffffffffffffffffffffffffffffffffffffffff021916908373ffffffffffffffffffffffffffffffffffffffff1602179055508173ffffffffffffffffffffffffffffffffffffffff168173ffffffffffffffffffffffffffffffffffffffff167f8be0079c531659141344cd1fd0a4f28419497f9722a3daafe3b4186f6b6457e060405160405180910390a35050565b828054620001b49062000256565b90600052602060002090601f016020900481019282620001d8576000855562000224565b82601f10620001f357805160ff191683800117855562000224565b8280016001018555821562000224579182015b828111156200022357825182559160200191906001019062000206565b5b50905062000233919062000237565b5090565b5b808211156200025257600081600090555060010162000238565b5090565b600060028204905060018216806200026f57607f821691505b602082108114156200028657620002856200028c565b5b50919050565b7f4e487b7100000000000000000000000000000000000000000000000000000000600052602260045260246000fd5b61214480620002cb6000396000f3fe608060405234801561001057600080fd5b50600436106101165760003560e01c806370a08231116100a25780639dc29fac116100715780639dc29fac146102cf578063a457c2d7146102eb578063a9059cbb1461031b578063dd62ed3e1461034b578063f2fde38b1461037b57610116565b806370a0823114610259578063715018a6146102895780638da5cb5b1461029357806395d89b41146102b157610116565b806323b872dd116100e957806323b872dd146101a3578063313ce567146101d357806339509351146101f157806340c10f1914610221578063704802751461023d57610116565b806306fdde031461011b578063095ea7b3146101395780631785f53c1461016957806318160ddd14610185575b600080fd5b610123610397565b6040516101309190611965565b60405180910390f35b610153600480360381019061014e9190611694565b610429565b604051610160919061194a565b60405180910390f35b610183600480360381019061017e91906115e0565b61044c565b005b61018d610523565b60405161019a9190611b47565b60405180910390f35b6101bd60048036038101906101b89190611645565b61052d565b6040516101ca919061194a565b60405180910390f35b6101db610644565b6040516101e89190611b62565b60405180910390f35b61020b60048036038101906102069190611694565b61064d565b604051610218919061194a565b60405180910390f35b61023b60048036038101906102369190611694565b6106f7565b005b610257600480360381019061025291906115e0565b610791565b005b610273600480360381019061026e91906115e0565b610868565b6040516102809190611b47565b60405180910390f35b61029161087a565b005b61029b610902565b6040516102a8919061192f565b60405180910390f35b6102b961092c565b6040516102c69190611965565b60405180910390f35b6102e960048036038101906102e49190611694565b6109be565b005b61030560048036038101906103009190611694565b6109cc565b604051610312919061194a565b60405180910390f35b61033560048036038101906103309190611694565b610ab6565b604051610342919061194a565b60405180910390f35b61036560048036038101906103609190611609565b610ad9565b6040516103729190611b47565b60405180910390f35b610395600480360381019061039091906115e0565b610b60565b005b6060600380546103a690611cab565b80601f01602080910402602001604051908101604052809291908181526020018280546103d290611cab565b801561041f5780601f106103f45761010080835404028352916020019161041f565b820191906000526020600020905b81548152906001019060200180831161040257829003601f168201915b5050505050905090565b600080610434610c58565b9050610441818585610c60565b600191505092915050565b610454610c58565b73ffffffffffffffffffffffffffffffffffffffff16610472610902565b73ffffffffffffffffffffffffffffffffffffffff16146104c8576040517f08c379a00000000000000000000000000000000000000000000000000000000081526004016104bf90611a67565b60405180910390fd5b6000600660008373ffffffffffffffffffffffffffffffffffffffff1673ffffffffffffffffffffffffffffffffffffffff16815260200190815260200160002060006101000a81548160ff02191690831515021790555050565b6000600254905090565b60006006600061053b610c58565b73ffffffffffffffffffffffffffffffffffffffff1673ffffffffffffffffffffffffffffffffffffffff16815260200190815260200160002060009054906101000a900460ff166105c2576040517f08c379a00000000000000000000000000000000000000000000000000000000081526004016105b990611a07565b60405180910390fd5b600660006105ce610c58565b73ffffffffffffffffffffffffffffffffffffffff1673ffffffffffffffffffffffffffffffffffffffff16815260200190815260200160002060009054906101000a900460ff161561062f57610626848484610e2b565b6001905061063d565b61063a8484846110ac565b90505b9392505050565b60006012905090565b600080610658610c58565b90506106ec818585600160008673ffffffffffffffffffffffffffffffffffffffff1673ffffffffffffffffffffffffffffffffffffffff16815260200190815260200160002060008973ffffffffffffffffffffffffffffffffffffffff1673ffffffffffffffffffffffffffffffffffffffff168152602001908152602001600020546106e79190611b99565b610c60565b600191505092915050565b600660003373ffffffffffffffffffffffffffffffffffffffff1673ffffffffffffffffffffffffffffffffffffffff16815260200190815260200160002060009054906101000a900460ff16610783576040517f08c379a000000000000000000000000000000000000000000000000000000000815260040161077a90611b07565b60405180910390fd5b61078d82826110db565b5050565b610799610c58565b73ffffffffffffffffffffffffffffffffffffffff166107b7610902565b73ffffffffffffffffffffffffffffffffffffffff161461080d576040517f08c379a000000000000000000000000000000000000000000000000000000000815260040161080490611a67565b60405180910390fd5b6001600660008373ffffffffffffffffffffffffffffffffffffffff1673ffffffffffffffffffffffffffffffffffffffff16815260200190815260200160002060006101000a81548160ff02191690831515021790555050565b60006108738261123b565b9050919050565b610882610c58565b73ffffffffffffffffffffffffffffffffffffffff166108a0610902565b73ffffffffffffffffffffffffffffffffffffffff16146108f6576040517f08c379a00000000000000000000000000000000000000000000000000000000081526004016108ed90611a67565b60405180910390fd5b6109006000611283565b565b6000600560009054906101000a900473ffffffffffffffffffffffffffffffffffffffff16905090565b60606004805461093b90611cab565b80601f016020809104026020016040519081016040528092919081815260200182805461096790611cab565b80156109b45780601f10610989576101008083540402835291602001916109b4565b820191906000526020600020905b81548152906001019060200180831161099757829003601f168201915b5050505050905090565b6109c88282611349565b5050565b6000806109d7610c58565b90506000600160008373ffffffffffffffffffffffffffffffffffffffff1673ffffffffffffffffffffffffffffffffffffffff16815260200190815260200160002060008673ffffffffffffffffffffffffffffffffffffffff1673ffffffffffffffffffffffffffffffffffffffff16815260200190815260200160002054905083811015610a9d576040517f08c379a0000000000000000000000000000000000000000000000000000000008152600401610a9490611ae7565b60405180910390fd5b610aaa8286868403610c60565b60019250505092915050565b600080610ac1610c58565b9050610ace818585610e2b565b600191505092915050565b6000600160008473ffffffffffffffffffffffffffffffffffffffff1673ffffffffffffffffffffffffffffffffffffffff16815260200190815260200160002060008373ffffffffffffffffffffffffffffffffffffffff1673ffffffffffffffffffffffffffffffffffffffff16815260200190815260200160002054905092915050565b610b68610c58565b73ffffffffffffffffffffffffffffffffffffffff16610b86610902565b73ffffffffffffffffffffffffffffffffffffffff1614610bdc576040517f08c379a0000000000000000000000000000000000000000000000000000000008152600401610bd390611a67565b60405180910390fd5b600073ffffffffffffffffffffffffffffffffffffffff168173ffffffffffffffffffffffffffffffffffffffff161415610c4c576040517f08c379a0000000000000000000000000000000000000000000000000000000008152600401610c43906119c7565b60405180910390fd5b610c5581611283565b50565b600033905090565b600073ffffffffffffffffffffffffffffffffffffffff168373ffffffffffffffffffffffffffffffffffffffff161415610cd0576040517f08c379a0000000000000000000000000000000000000000000000000000000008152600401610cc790611ac7565b60405180910390fd5b600073ffffffffffffffffffffffffffffffffffffffff168273ffffffffffffffffffffffffffffffffffffffff161415610d40576040517f08c379a0000000000000000000000000000000000000000000000000000000008152600401610d37906119e7565b60405180910390fd5b80600160008573ffffffffffffffffffffffffffffffffffffffff1673ffffffffffffffffffffffffffffffffffffffff16815260200190815260200160002060008473ffffffffffffffffffffffffffffffffffffffff1673ffffffffffffffffffffffffffffffffffffffff168152602001908152602001600020819055508173ffffffffffffffffffffffffffffffffffffffff168373ffffffffffffffffffffffffffffffffffffffff167f8c5be1e5ebec7d5bd14f71427d1e84f3dd0314c0f7b2291e5b200ac8c7c3b92583604051610e1e9190611b47565b60405180910390a3505050565b600073ffffffffffffffffffffffffffffffffffffffff168373ffffffffffffffffffffffffffffffffffffffff161415610e9b576040517f08c379a0000000000000000000000000000000000000000000000000000000008152600401610e9290611aa7565b60405180910390fd5b600073ffffffffffffffffffffffffffffffffffffffff168273ffffffffffffffffffffffffffffffffffffffff161415610f0b576040517f08c379a0000000000000000000000000000000000000000000000000000000008152600401610f0290611987565b60405180910390fd5b610f16838383611520565b60008060008573ffffffffffffffffffffffffffffffffffffffff1673ffffffffffffffffffffffffffffffffffffffff16815260200190815260200160002054905081811015610f9c576040517f08c379a0000000000000000000000000000000000000000000000000000000008152600401610f9390611a47565b60405180910390fd5b8181036000808673ffffffffffffffffffffffffffffffffffffffff1673ffffffffffffffffffffffffffffffffffffffff16815260200190815260200160002081905550816000808573ffffffffffffffffffffffffffffffffffffffff1673ffffffffffffffffffffffffffffffffffffffff168152602001908152602001600020600082825461102f9190611b99565b925050819055508273ffffffffffffffffffffffffffffffffffffffff168473ffffffffffffffffffffffffffffffffffffffff167fddf252ad1be2c89b69c2b068fc378daa952ba7f163c4a11628f55a4df523b3ef846040516110939190611b47565b60405180910390a36110a6848484611525565b50505050565b6000806110b7610c58565b90506110c485828561152a565b6110cf858585610e2b565b60019150509392505050565b600073ffffffffffffffffffffffffffffffffffffffff168273ffffffffffffffffffffffffffffffffffffffff16141561114b576040517f08c379a000000000000000000000000000000000000000000000000000000000815260040161114290611b27565b60405180910390fd5b61115760008383611520565b80600260008282546111699190611b99565b92505081905550806000808473ffffffffffffffffffffffffffffffffffffffff1673ffffffffffffffffffffffffffffffffffffffff16815260200190815260200160002060008282546111be9190611b99565b925050819055508173ffffffffffffffffffffffffffffffffffffffff16600073ffffffffffffffffffffffffffffffffffffffff167fddf252ad1be2c89b69c2b068fc378daa952ba7f163c4a11628f55a4df523b3ef836040516112239190611b47565b60405180910390a361123760008383611525565b5050565b60008060008373ffffffffffffffffffffffffffffffffffffffff1673ffffffffffffffffffffffffffffffffffffffff168152602001908152602001600020549050919050565b6000600560009054906101000a900473ffffffffffffffffffffffffffffffffffffffff16905081600560006101000a81548173ffffffffffffffffffffffffffffffffffffffff021916908373ffffffffffffffffffffffffffffffffffffffff1602179055508173ffffffffffffffffffffffffffffffffffffffff168173ffffffffffffffffffffffffffffffffffffffff167f8be0079c531659141344cd1fd0a4f28419497f9722a3daafe3b4186f6b6457e060405160405180910390a35050565b600073ffffffffffffffffffffffffffffffffffffffff168273ffffffffffffffffffffffffffffffffffffffff1614156113b9576040517f08c379a00000000000000000000000000000000000000000000000000000000081526004016113b090611a87565b60405180910390fd5b6113c582600083611520565b60008060008473ffffffffffffffffffffffffffffffffffffffff1673ffffffffffffffffffffffffffffffffffffffff1681526020019081526020016000205490508181101561144b576040517f08c379a0000000000000000000000000000000000000000000000000000000008152600401611442906119a7565b60405180910390fd5b8181036000808573ffffffffffffffffffffffffffffffffffffffff1673ffffffffffffffffffffffffffffffffffffffff1681526020019081526020016000208190555081600260008282546114a29190611bef565b92505081905550600073ffffffffffffffffffffffffffffffffffffffff168373ffffffffffffffffffffffffffffffffffffffff167fddf252ad1be2c89b69c2b068fc378daa952ba7f163c4a11628f55a4df523b3ef846040516115079190611b47565b60405180910390a361151b83600084611525565b505050565b505050565b505050565b60006115368484610ad9565b90507fffffffffffffffffffffffffffffffffffffffffffffffffffffffffffffffff81146115b057818110156115a2576040517f08c379a000000000000000000000000000000000000000000000000000000000815260040161159990611a27565b60405180910390fd5b6115af8484848403610c60565b5b50505050565b6000813590506115c5816120e0565b92915050565b6000813590506115da816120f7565b92915050565b6000602082840312156115f257600080fd5b6000611600848285016115b6565b91505092915050565b6000806040838503121561161c57600080fd5b600061162a858286016115b6565b925050602061163b858286016115b6565b9150509250929050565b60008060006060848603121561165a57600080fd5b6000611668868287016115b6565b9350506020611679868287016115b6565b925050604061168a868287016115cb565b9150509250925092565b600080604083850312156116a757600080fd5b60006116b5858286016115b6565b92505060206116c6858286016115cb565b9150509250929050565b6116d981611c23565b82525050565b6116e881611c35565b82525050565b60006116f982611b7d565b6117038185611b88565b9350611713818560208601611c78565b61171c81611d3b565b840191505092915050565b6000611734602383611b88565b915061173f82611d4c565b604082019050919050565b6000611757602283611b88565b915061176282611d9b565b604082019050919050565b600061177a602683611b88565b915061178582611dea565b604082019050919050565b600061179d602283611b88565b91506117a882611e39565b604082019050919050565b60006117c0601183611b88565b91506117cb82611e88565b602082019050919050565b60006117e3601d83611b88565b91506117ee82611eb1565b602082019050919050565b6000611806602683611b88565b915061181182611eda565b604082019050919050565b6000611829602083611b88565b915061183482611f29565b602082019050919050565b600061184c602183611b88565b915061185782611f52565b604082019050919050565b600061186f602583611b88565b915061187a82611fa1565b604082019050919050565b6000611892602483611b88565b915061189d82611ff0565b604082019050919050565b60006118b5602583611b88565b91506118c08261203f565b604082019050919050565b60006118d8601983611b88565b91506118e38261208e565b602082019050919050565b60006118fb601f83611b88565b9150611906826120b7565b602082019050919050565b61191a81611c61565b82525050565b61192981611c6b565b82525050565b600060208201905061194460008301846116d0565b92915050565b600060208201905061195f60008301846116df565b92915050565b6000602082019050818103600083015261197f81846116ee565b905092915050565b600060208201905081810360008301526119a081611727565b9050919050565b600060208201905081810360008301526119c08161174a565b9050919050565b600060208201905081810360008301526119e08161176d565b9050919050565b60006020820190508181036000830152611a0081611790565b9050919050565b60006020820190508181036000830152611a20816117b3565b9050919050565b60006020820190508181036000830152611a40816117d6565b9050919050565b60006020820190508181036000830152611a60816117f9565b9050919050565b60006020820190508181036000830152611a808161181c565b9050919050565b60006020820190508181036000830152611aa08161183f565b9050919050565b60006020820190508181036000830152611ac081611862565b9050919050565b60006020820190508181036000830152611ae081611885565b9050919050565b60006020820190508181036000830152611b00816118a8565b9050919050565b60006020820190508181036000830152611b20816118cb565b9050919050565b60006020820190508181036000830152611b40816118ee565b9050919050565b6000602082019050611b5c6000830184611911565b92915050565b6000602082019050611b776000830184611920565b92915050565b600081519050919050565b600082825260208201905092915050565b6000611ba482611c61565b9150611baf83611c61565b9250827fffffffffffffffffffffffffffffffffffffffffffffffffffffffffffffffff03821115611be457611be3611cdd565b5b828201905092915050565b6000611bfa82611c61565b9150611c0583611c61565b925082821015611c1857611c17611cdd565b5b828203905092915050565b6000611c2e82611c41565b9050919050565b60008115159050919050565b600073ffffffffffffffffffffffffffffffffffffffff82169050919050565b6000819050919050565b600060ff82169050919050565b60005b83811015611c96578082015181840152602081019050611c7b565b83811115611ca5576000848401525b50505050565b60006002820490506001821680611cc357607f821691505b60208210811415611cd757611cd6611d0c565b5b50919050565b7f4e487b7100000000000000000000000000000000000000000000000000000000600052601160045260246000fd5b7f4e487b7100000000000000000000000000000000000000000000000000000000600052602260045260246000fd5b6000601f19601f8301169050919050565b7f45524332303a207472616e7366657220746f20746865207a65726f206164647260008201527f6573730000000000000000000000000000000000000000000000000000000000602082015250565b7f45524332303a206275726e20616d6f756e7420657863656564732062616c616e60008201527f6365000000000000000000000000000000000000000000000000000000000000602082015250565b7f4f776e61626c653a206e6577206f776e657220697320746865207a65726f206160008201527f6464726573730000000000000000000000000000000000000000000000000000602082015250565b7f45524332303a20617070726f766520746f20746865207a65726f20616464726560008201527f7373000000000000000000000000000000000000000000000000000000000000602082015250565b7f686d6d6d6d207768617420646f696e673f000000000000000000000000000000600082015250565b7f45524332303a20696e73756666696369656e7420616c6c6f77616e6365000000600082015250565b7f45524332303a207472616e7366657220616d6f756e742065786365656473206260008201527f616c616e63650000000000000000000000000000000000000000000000000000602082015250565b7f4f776e61626c653a2063616c6c6572206973206e6f7420746865206f776e6572600082015250565b7f45524332303a206275726e2066726f6d20746865207a65726f2061646472657360008201527f7300000000000000000000000000000000000000000000000000000000000000602082015250565b7f45524332303a207472616e736665722066726f6d20746865207a65726f20616460008201527f6472657373000000000000000000000000000000000000000000000000000000602082015250565b7f45524332303a20617070726f76652066726f6d20746865207a65726f2061646460008201527f7265737300000000000000000000000000000000000000000000000000000000602082015250565b7f45524332303a2064656372656173656420616c6c6f77616e63652062656c6f7760008201527f207a65726f000000000000000000000000000000000000000000000000000000602082015250565b7f4f6e6c7920616c6c6f772061646d696e7320746f206d696e7400000000000000600082015250565b7f45524332303a206d696e7420746f20746865207a65726f206164647265737300600082015250565b6120e981611c23565b81146120f457600080fd5b50565b61210081611c61565b811461210b57600080fd5b5056fea264697066735822122000b7cb69687742aa5441cd68f465d4336cbd230d158326a4937033171c7ec63e64736f6c63430008010033",
  "linkReferences": {},
  "deployedLinkReferences": {}
}