{
  "_format": "hh-sol-artifact-1",
  "contractName": "EarlyBirdsTraits",
  "sourceName": "contracts/EarlyBirdsTraits.sol",
  "abi": [
    {
      "inputs": [],
      "stateMutability": "nonpayable",
      "type": "constructor"
    },
    {
      "anonymous": false,
      "inputs": [
        {
          "indexed": true,
          "internalType": "address",
          "name": "previousOwner",
          "type": "address"
        },
        {
          "indexed": true,
          "internalType": "address",
          "name": "newOwner",
          "type": "address"
        }
      ],
      "name": "OwnershipTransferred",
      "type": "event"
    },
    {
      "anonymous": false,
      "inputs": [
        {
          "indexed": false,
          "internalType": "string",
          "name": "traitString",
          "type": "string"
        }
      ],
      "name": "traitString",
      "type": "event"
    },
    {
      "inputs": [
        {
          "internalType": "uint8",
          "name": "traitTypeId",
          "type": "uint8"
        },
        {
          "internalType": "uint8",
          "name": "traitValueId",
          "type": "uint8"
        }
      ],
      "name": "getTraitBase64",
      "outputs": [
        {
          "internalType": "string",
          "name": "",
          "type": "string"
        }
      ],
      "stateMutability": "nonpayable",
      "type": "function"
    },
    {
      "inputs": [],
      "name": "owner",
      "outputs": [
        {
          "internalType": "address",
          "name": "",
          "type": "address"
        }
      ],
      "stateMutability": "view",
      "type": "function"
    },
    {
      "inputs": [],
      "name": "renounceOwnership",
      "outputs": [],
      "stateMutability": "nonpayable",
      "type": "function"
    },
    {
      "inputs": [
        {
          "internalType": "address",
          "name": "_earlyBirdsNFT",
          "type": "address"
        },
        {
          "internalType": "address",
          "name": "_earlyBirdsGame",
          "type": "address"
        }
      ],
      "name": "setContracts",
      "outputs": [],
      "stateMutability": "nonpayable",
      "type": "function"
    },
    {
      "inputs": [
        {
          "internalType": "uint16",
          "name": "tokenId",
          "type": "uint16"
        }
      ],
      "name": "tokenURI",
      "outputs": [
        {
          "internalType": "string",
          "name": "",
          "type": "string"
        }
      ],
      "stateMutability": "view",
      "type": "function"
    },
    {
      "inputs": [
        {
          "internalType": "uint8",
          "name": "",
          "type": "uint8"
        },
        {
          "internalType": "uint8",
          "name": "",
          "type": "uint8"
        }
      ],
      "name": "traitData",
      "outputs": [
        {
          "internalType": "string",
          "name": "name",
          "type": "string"
        },
        {
          "internalType": "string",
          "name": "png",
          "type": "string"
        }
      ],
      "stateMutability": "view",
      "type": "function"
    },
    {
      "inputs": [
        {
          "internalType": "address",
          "name": "newOwner",
          "type": "address"
        }
      ],
      "name": "transferOwnership",
      "outputs": [],
      "stateMutability": "nonpayable",
      "type": "function"
    },
    {
      "inputs": [
        {
          "internalType": "uint8",
          "name": "traitTypeId",
          "type": "uint8"
        },
        {
          "internalType": "uint8[]",
          "name": "traitValueIds",
          "type": "uint8[]"
        },
        {
          "internalType": "string[][]",
          "name": "traits",
          "type": "string[][]"
        }
      ],
      "name": "uploadTraits",
      "outputs": [],
      "stateMutability": "nonpayable",
      "type": "function"
    }
  ],
  "bytecode": "0x608060405260405180604001604052806040518060400160405280600481526020017f576f726d0000000000000000000000000000000000000000000000000000000081525081526020016040518060400160405280600481526020017f42697264000000000000000000000000000000000000000000000000000000008152508152506001906002620000959291906200029e565b5060405180608001604052806040518060400160405280600181526020017f350000000000000000000000000000000000000000000000000000000000000081525081526020016040518060400160405280600181526020017f360000000000000000000000000000000000000000000000000000000000000081525081526020016040518060400160405280600181526020017f370000000000000000000000000000000000000000000000000000000000000081525081526020016040518060400160405280600181526020017f380000000000000000000000000000000000000000000000000000000000000081525081525060049060046200019d929190620002f8565b50348015620001ab57600080fd5b50620001cc620001c0620001d260201b60201c565b620001da60201b60201c565b620004d5565b600033905090565b60008060009054906101000a900473ffffffffffffffffffffffffffffffffffffffff169050816000806101000a81548173ffffffffffffffffffffffffffffffffffffffff021916908373ffffffffffffffffffffffffffffffffffffffff1602179055508173ffffffffffffffffffffffffffffffffffffffff168173ffffffffffffffffffffffffffffffffffffffff167f8be0079c531659141344cd1fd0a4f28419497f9722a3daafe3b4186f6b6457e060405160405180910390a35050565b8260038101928215620002e5579160200282015b82811115620002e4578251829080519060200190620002d392919062000352565b5091602001919060010190620002b2565b5b509050620002f49190620003e3565b5090565b82600481019282156200033f579160200282015b828111156200033e5782518290805190602001906200032d92919062000352565b50916020019190600101906200030c565b5b5090506200034e9190620003e3565b5090565b828054620003609062000470565b90600052602060002090601f016020900481019282620003845760008555620003d0565b82601f106200039f57805160ff1916838001178555620003d0565b82800160010185558215620003d0579182015b82811115620003cf578251825591602001919060010190620003b2565b5b509050620003df91906200040b565b5090565b5b80821115620004075760008181620003fd91906200042a565b50600101620003e4565b5090565b5b80821115620004265760008160009055506001016200040c565b5090565b508054620004389062000470565b6000825580601f106200044c57506200046d565b601f0160209004906000526020600020908101906200046c91906200040b565b5b50565b600060028204905060018216806200048957607f821691505b60208210811415620004a0576200049f620004a6565b5b50919050565b7f4e487b7100000000000000000000000000000000000000000000000000000000600052602260045260246000fd5b61529580620004e56000396000f3fe608060405234801561001057600080fd5b50600436106100885760003560e01c8063a1cdfe121161005b578063a1cdfe1214610102578063d8952a4914610132578063dd7d84401461014e578063f2fde38b1461017e57610088565b806313a6f3331461008d578063715018a6146100a95780638da5cb5b146100b35780639bf2ee35146100d1575b600080fd5b6100a760048036038101906100a29190613d8d565b61019a565b005b6100b1610510565b005b6100bb610598565b6040516100c891906145b5565b60405180910390f35b6100eb60048036038101906100e69190613e16565b6105c1565b6040516100f99291906145f2565b60405180910390f35b61011c60048036038101906101179190613e16565b610702565b60405161012991906145d0565b60405180910390f35b61014c60048036038101906101479190613c83565b610831565b005b61016860048036038101906101639190613d12565b610933565b60405161017591906145d0565b60405180910390f35b61019860048036038101906101939190613c5a565b610aba565b005b6101a2610bb2565b73ffffffffffffffffffffffffffffffffffffffff166101c0610598565b73ffffffffffffffffffffffffffffffffffffffff1614610216576040517f08c379a000000000000000000000000000000000000000000000000000000000815260040161020d9061468b565b60405180910390fd5b81819050848490501461025e576040517f08c379a00000000000000000000000000000000000000000000000000000000081526004016102559061466b565b60405180910390fd5b60005b828290508160ff16101561050857604051806040016040528084848460ff168181106102b6577f4e487b7100000000000000000000000000000000000000000000000000000000600052603260045260246000fd5b90506020028101906102c891906146c6565b6000818110610300577f4e487b7100000000000000000000000000000000000000000000000000000000600052603260045260246000fd5b9050602002810190610312919061471d565b8080601f016020809104026020016040519081016040528093929190818152602001838380828437600081840152601f19601f82011690508083019250505050505050815260200184848460ff16818110610396577f4e487b7100000000000000000000000000000000000000000000000000000000600052603260045260246000fd5b90506020028101906103a891906146c6565b60018181106103e0577f4e487b7100000000000000000000000000000000000000000000000000000000600052603260045260246000fd5b90506020028101906103f2919061471d565b8080601f016020809104026020016040519081016040528093929190818152602001838380828437600081840152601f19601f82011690508083019250505050505050815250600a60008860ff1660ff168152602001908152602001600020600087878560ff1681811061048f577f4e487b7100000000000000000000000000000000000000000000000000000000600052603260045260246000fd5b90506020020160208101906104a49190613d64565b60ff1660ff16815260200190815260200160002060008201518160000190805190602001906104d49291906139c9565b5060208201518160010190805190602001906104f19291906139c9565b50905050808061050090614a2c565b915050610261565b505050505050565b610518610bb2565b73ffffffffffffffffffffffffffffffffffffffff16610536610598565b73ffffffffffffffffffffffffffffffffffffffff161461058c576040517f08c379a00000000000000000000000000000000000000000000000000000000081526004016105839061468b565b60405180910390fd5b6105966000610bba565b565b60008060009054906101000a900473ffffffffffffffffffffffffffffffffffffffff16905090565b600a602052816000526040600020602052806000526040600020600091509150508060000180546105f190614980565b80601f016020809104026020016040519081016040528092919081815260200182805461061d90614980565b801561066a5780601f1061063f5761010080835404028352916020019161066a565b820191906000526020600020905b81548152906001019060200180831161064d57829003601f168201915b50505050509080600101805461067f90614980565b80601f01602080910402602001604051908101604052809291908181526020018280546106ab90614980565b80156106f85780601f106106cd576101008083540402835291602001916106f8565b820191906000526020600020905b8154815290600101906020018083116106db57829003601f168201915b5050505050905082565b60607fadc29497eda29bf565c599fc099b480ec2af0b72ca8ca927bfce0d72e7cf3c57600a60008560ff1660ff16815260200190815260200160002060008460ff1660ff1681526020019081526020016000206001016040516107659190614629565b60405180910390a1600a60008460ff1660ff16815260200190815260200160002060008360ff1660ff16815260200190815260200160002060010180546107ab90614980565b80601f01602080910402602001604051908101604052809291908181526020018280546107d790614980565b80156108245780601f106107f957610100808354040283529160200191610824565b820191906000526020600020905b81548152906001019060200180831161080757829003601f168201915b5050505050905092915050565b610839610bb2565b73ffffffffffffffffffffffffffffffffffffffff16610857610598565b73ffffffffffffffffffffffffffffffffffffffff16146108ad576040517f08c379a00000000000000000000000000000000000000000000000000000000081526004016108a49061468b565b60405180910390fd5b81600860006101000a81548173ffffffffffffffffffffffffffffffffffffffff021916908373ffffffffffffffffffffffffffffffffffffffff16021790555080600960006101000a81548173ffffffffffffffffffffffffffffffffffffffff021916908373ffffffffffffffffffffffffffffffffffffffff1602179055505050565b60606000600860009054906101000a900473ffffffffffffffffffffffffffffffffffffffff1673ffffffffffffffffffffffffffffffffffffffff166343e55e30846040518263ffffffff1660e01b815260040161099291906146ab565b6101206040518083038186803b1580156109ab57600080fd5b505afa1580156109bf573d6000803e3d6000fd5b505050506040513d601f19601f820116820180604052508101906109e39190613ce8565b9050600081600001516109f75760016109fa565b60005b9050600060018260ff1660038110610a3b577f4e487b7100000000000000000000000000000000000000000000000000000000600052603260045260246000fd5b01610a498661ffff16610c7e565b610a5a610a5586610e2b565b612547565b610a6488876126f2565b604051602001610a77949392919061452a565b6040516020818303038152906040529050610a9181612547565b604051602001610aa191906142db565b6040516020818303038152906040529350505050919050565b610ac2610bb2565b73ffffffffffffffffffffffffffffffffffffffff16610ae0610598565b73ffffffffffffffffffffffffffffffffffffffff1614610b36576040517f08c379a0000000000000000000000000000000000000000000000000000000008152600401610b2d9061468b565b60405180910390fd5b600073ffffffffffffffffffffffffffffffffffffffff168173ffffffffffffffffffffffffffffffffffffffff161415610ba6576040517f08c379a0000000000000000000000000000000000000000000000000000000008152600401610b9d9061464b565b60405180910390fd5b610baf81610bba565b50565b600033905090565b60008060009054906101000a900473ffffffffffffffffffffffffffffffffffffffff169050816000806101000a81548173ffffffffffffffffffffffffffffffffffffffff021916908373ffffffffffffffffffffffffffffffffffffffff1602179055508173ffffffffffffffffffffffffffffffffffffffff168173ffffffffffffffffffffffffffffffffffffffff167f8be0079c531659141344cd1fd0a4f28419497f9722a3daafe3b4186f6b6457e060405160405180910390a35050565b60606000821415610cc6576040518060400160405280600181526020017f30000000000000000000000000000000000000000000000000000000000000008152509050610e26565b600082905060005b60008214610cf8578080610ce1906149e3565b915050600a82610cf1919061482b565b9150610cce565b60008167ffffffffffffffff811115610d3a577f4e487b7100000000000000000000000000000000000000000000000000000000600052604160045260246000fd5b6040519080825280601f01601f191660200182016040528015610d6c5781602001600182028036833780820191505090505b5090505b60008514610e1f57600182610d8591906148b6565b9150600a85610d949190614a56565b6030610da091906147d5565b60f81b818381518110610ddc577f4e487b7100000000000000000000000000000000000000000000000000000000600052603260045260246000fd5b60200101907effffffffffffffffffffffffffffffffffffffffffffffffffffffffffffff1916908160001a905350600a85610e18919061482b565b9450610d70565b8093505050505b919050565b6060808260000151156119ad57610fa0600a60008060ff1681526020019081526020016000206000856020015160ff1660ff168152602001908152602001600020604051806040016040529081600082018054610e8790614980565b80601f0160208091040260200160405190810160405280929190818152602001828054610eb390614980565b8015610f005780601f10610ed557610100808354040283529160200191610f00565b820191906000526020600020905b815481529060010190602001808311610ee357829003601f168201915b50505050508152602001600182018054610f1990614980565b80601f0160208091040260200160405190810160405280929190818152602001828054610f4590614980565b8015610f925780601f10610f6757610100808354040283529160200191610f92565b820191906000526020600020905b815481529060010190602001808311610f7557829003601f168201915b505050505081525050613970565b611109600a6000600160ff1681526020019081526020016000206000866040015160ff1660ff168152602001908152602001600020604051806040016040529081600082018054610ff090614980565b80601f016020809104026020016040519081016040528092919081815260200182805461101c90614980565b80156110695780601f1061103e57610100808354040283529160200191611069565b820191906000526020600020905b81548152906001019060200180831161104c57829003601f168201915b5050505050815260200160018201805461108290614980565b80601f01602080910402602001604051908101604052809291908181526020018280546110ae90614980565b80156110fb5780601f106110d0576101008083540402835291602001916110fb565b820191906000526020600020905b8154815290600101906020018083116110de57829003601f168201915b505050505081525050613970565b611272600a6000600260ff1681526020019081526020016000206000876060015160ff1660ff16815260200190815260200160002060405180604001604052908160008201805461115990614980565b80601f016020809104026020016040519081016040528092919081815260200182805461118590614980565b80156111d25780601f106111a7576101008083540402835291602001916111d2565b820191906000526020600020905b8154815290600101906020018083116111b557829003601f168201915b505050505081526020016001820180546111eb90614980565b80601f016020809104026020016040519081016040528092919081815260200182805461121790614980565b80156112645780601f1061123957610100808354040283529160200191611264565b820191906000526020600020905b81548152906001019060200180831161124757829003601f168201915b505050505081525050613970565b6113db600a6000600360ff1681526020019081526020016000206000886080015160ff1660ff1681526020019081526020016000206040518060400160405290816000820180546112c290614980565b80601f01602080910402602001604051908101604052809291908181526020018280546112ee90614980565b801561133b5780601f106113105761010080835404028352916020019161133b565b820191906000526020600020905b81548152906001019060200180831161131e57829003601f168201915b5050505050815260200160018201805461135490614980565b80601f016020809104026020016040519081016040528092919081815260200182805461138090614980565b80156113cd5780601f106113a2576101008083540402835291602001916113cd565b820191906000526020600020905b8154815290600101906020018083116113b057829003601f168201915b505050505081525050613970565b611544600a6000600460ff16815260200190815260200160002060008960a0015160ff1660ff16815260200190815260200160002060405180604001604052908160008201805461142b90614980565b80601f016020809104026020016040519081016040528092919081815260200182805461145790614980565b80156114a45780601f10611479576101008083540402835291602001916114a4565b820191906000526020600020905b81548152906001019060200180831161148757829003601f168201915b505050505081526020016001820180546114bd90614980565b80601f01602080910402602001604051908101604052809291908181526020018280546114e990614980565b80156115365780601f1061150b57610100808354040283529160200191611536565b820191906000526020600020905b81548152906001019060200180831161151957829003601f168201915b505050505081525050613970565b6116ad600a6000600560ff16815260200190815260200160002060008a60c0015160ff1660ff16815260200190815260200160002060405180604001604052908160008201805461159490614980565b80601f01602080910402602001604051908101604052809291908181526020018280546115c090614980565b801561160d5780601f106115e25761010080835404028352916020019161160d565b820191906000526020600020905b8154815290600101906020018083116115f057829003601f168201915b5050505050815260200160018201805461162690614980565b80601f016020809104026020016040519081016040528092919081815260200182805461165290614980565b801561169f5780601f106116745761010080835404028352916020019161169f565b820191906000526020600020905b81548152906001019060200180831161168257829003601f168201915b505050505081525050613970565b611816600a6000600660ff16815260200190815260200160002060008b60e0015160ff1660ff1681526020019081526020016000206040518060400160405290816000820180546116fd90614980565b80601f016020809104026020016040519081016040528092919081815260200182805461172990614980565b80156117765780601f1061174b57610100808354040283529160200191611776565b820191906000526020600020905b81548152906001019060200180831161175957829003601f168201915b5050505050815260200160018201805461178f90614980565b80601f01602080910402602001604051908101604052809291908181526020018280546117bb90614980565b80156118085780601f106117dd57610100808354040283529160200191611808565b820191906000526020600020905b8154815290600101906020018083116117eb57829003601f168201915b505050505081525050613970565b611980600a6000600760ff16815260200190815260200160002060008c610100015160ff1660ff16815260200190815260200160002060405180604001604052908160008201805461186790614980565b80601f016020809104026020016040519081016040528092919081815260200182805461189390614980565b80156118e05780601f106118b5576101008083540402835291602001916118e0565b820191906000526020600020905b8154815290600101906020018083116118c357829003601f168201915b505050505081526020016001820180546118f990614980565b80601f016020809104026020016040519081016040528092919081815260200182805461192590614980565b80156119725780601f1061194757610100808354040283529160200191611972565b820191906000526020600020905b81548152906001019060200180831161195557829003601f168201915b505050505081525050613970565b6040516020016119979897969594939291906142f2565b604051602081830303815290604052905061251f565b611b16600a6000600860ff1681526020019081526020016000206000856020015160ff1660ff1681526020019081526020016000206040518060400160405290816000820180546119fd90614980565b80601f0160208091040260200160405190810160405280929190818152602001828054611a2990614980565b8015611a765780601f10611a4b57610100808354040283529160200191611a76565b820191906000526020600020905b815481529060010190602001808311611a5957829003601f168201915b50505050508152602001600182018054611a8f90614980565b80601f0160208091040260200160405190810160405280929190818152602001828054611abb90614980565b8015611b085780601f10611add57610100808354040283529160200191611b08565b820191906000526020600020905b815481529060010190602001808311611aeb57829003601f168201915b505050505081525050613970565b611c7f600a6000600960ff1681526020019081526020016000206000866040015160ff1660ff168152602001908152602001600020604051806040016040529081600082018054611b6690614980565b80601f0160208091040260200160405190810160405280929190818152602001828054611b9290614980565b8015611bdf5780601f10611bb457610100808354040283529160200191611bdf565b820191906000526020600020905b815481529060010190602001808311611bc257829003601f168201915b50505050508152602001600182018054611bf890614980565b80601f0160208091040260200160405190810160405280929190818152602001828054611c2490614980565b8015611c715780601f10611c4657610100808354040283529160200191611c71565b820191906000526020600020905b815481529060010190602001808311611c5457829003601f168201915b505050505081525050613970565b611de8600a6000600a60ff1681526020019081526020016000206000876060015160ff1660ff168152602001908152602001600020604051806040016040529081600082018054611ccf90614980565b80601f0160208091040260200160405190810160405280929190818152602001828054611cfb90614980565b8015611d485780601f10611d1d57610100808354040283529160200191611d48565b820191906000526020600020905b815481529060010190602001808311611d2b57829003601f168201915b50505050508152602001600182018054611d6190614980565b80601f0160208091040260200160405190810160405280929190818152602001828054611d8d90614980565b8015611dda5780601f10611daf57610100808354040283529160200191611dda565b820191906000526020600020905b815481529060010190602001808311611dbd57829003601f168201915b505050505081525050613970565b611f51600a6000600b60ff1681526020019081526020016000206000886080015160ff1660ff168152602001908152602001600020604051806040016040529081600082018054611e3890614980565b80601f0160208091040260200160405190810160405280929190818152602001828054611e6490614980565b8015611eb15780601f10611e8657610100808354040283529160200191611eb1565b820191906000526020600020905b815481529060010190602001808311611e9457829003601f168201915b50505050508152602001600182018054611eca90614980565b80601f0160208091040260200160405190810160405280929190818152602001828054611ef690614980565b8015611f435780601f10611f1857610100808354040283529160200191611f43565b820191906000526020600020905b815481529060010190602001808311611f2657829003601f168201915b505050505081525050613970565b6120ba600a6000600c60ff16815260200190815260200160002060008960a0015160ff1660ff168152602001908152602001600020604051806040016040529081600082018054611fa190614980565b80601f0160208091040260200160405190810160405280929190818152602001828054611fcd90614980565b801561201a5780601f10611fef5761010080835404028352916020019161201a565b820191906000526020600020905b815481529060010190602001808311611ffd57829003601f168201915b5050505050815260200160018201805461203390614980565b80601f016020809104026020016040519081016040528092919081815260200182805461205f90614980565b80156120ac5780601f10612081576101008083540402835291602001916120ac565b820191906000526020600020905b81548152906001019060200180831161208f57829003601f168201915b505050505081525050613970565b612223600a6000600d60ff16815260200190815260200160002060008a60c0015160ff1660ff16815260200190815260200160002060405180604001604052908160008201805461210a90614980565b80601f016020809104026020016040519081016040528092919081815260200182805461213690614980565b80156121835780601f1061215857610100808354040283529160200191612183565b820191906000526020600020905b81548152906001019060200180831161216657829003601f168201915b5050505050815260200160018201805461219c90614980565b80601f01602080910402602001604051908101604052809291908181526020018280546121c890614980565b80156122155780601f106121ea57610100808354040283529160200191612215565b820191906000526020600020905b8154815290600101906020018083116121f857829003601f168201915b505050505081525050613970565b61238c600a6000600e60ff16815260200190815260200160002060008b60e0015160ff1660ff16815260200190815260200160002060405180604001604052908160008201805461227390614980565b80601f016020809104026020016040519081016040528092919081815260200182805461229f90614980565b80156122ec5780601f106122c1576101008083540402835291602001916122ec565b820191906000526020600020905b8154815290600101906020018083116122cf57829003601f168201915b5050505050815260200160018201805461230590614980565b80601f016020809104026020016040519081016040528092919081815260200182805461233190614980565b801561237e5780601f106123535761010080835404028352916020019161237e565b820191906000526020600020905b81548152906001019060200180831161236157829003601f168201915b505050505081525050613970565b6124f6600a6000600f60ff16815260200190815260200160002060008c610100015160ff1660ff1681526020019081526020016000206040518060400160405290816000820180546123dd90614980565b80601f016020809104026020016040519081016040528092919081815260200182805461240990614980565b80156124565780601f1061242b57610100808354040283529160200191612456565b820191906000526020600020905b81548152906001019060200180831161243957829003601f168201915b5050505050815260200160018201805461246f90614980565b80601f016020809104026020016040519081016040528092919081815260200182805461249b90614980565b80156124e85780601f106124bd576101008083540402835291602001916124e8565b820191906000526020600020905b8154815290600101906020018083116124cb57829003601f168201915b505050505081525050613970565b60405160200161250d9897969594939291906142f2565b60405160208183030381529060405290505b8060405160200161253091906144a0565b604051602081830303815290604052915050919050565b606060008251141561256a576040518060200160405280600081525090506126ed565b6000604051806060016040528060408152602001615220604091399050600060036002855161259991906147d5565b6125a3919061482b565b60046125af919061485c565b905060006020826125c091906147d5565b67ffffffffffffffff8111156125ff577f4e487b7100000000000000000000000000000000000000000000000000000000600052604160045260246000fd5b6040519080825280601f01601f1916602001820160405280156126315781602001600182028036833780820191505090505b509050818152600183018586518101602084015b818310156126ac576003830192508251603f8160121c1685015160f81b8252600182019150603f81600c1c1685015160f81b8252600182019150603f8160061c1685015160f81b8252600182019150603f811685015160f81b825260018201915050612645565b6003895106600181146126c657600281146126d6576126e1565b613d3d60f01b60028303526126e1565b603d60f81b60018303525b50505050508093505050505b919050565b6060816000015115612f0b576127f96040518060400160405280600481526020017f426f647900000000000000000000000000000000000000000000000000000000815250600a60008060ff1681526020019081526020016000206000856020015160ff1660ff168152602001908152602001600020600001805461277690614980565b80601f01602080910402602001604051908101604052809291908181526020018280546127a290614980565b80156127ef5780601f106127c4576101008083540402835291602001916127ef565b820191906000526020600020905b8154815290600101906020018083116127d257829003601f168201915b505050505061399d565b6128f56040518060400160405280600481526020017f4579657300000000000000000000000000000000000000000000000000000000815250600a6000600160ff1681526020019081526020016000206000866040015160ff1660ff168152602001908152602001600020600001805461287290614980565b80601f016020809104026020016040519081016040528092919081815260200182805461289e90614980565b80156128eb5780601f106128c0576101008083540402835291602001916128eb565b820191906000526020600020905b8154815290600101906020018083116128ce57829003601f168201915b505050505061399d565b6129f16040518060400160405280600581526020017f4d6f757468000000000000000000000000000000000000000000000000000000815250600a6000600260ff1681526020019081526020016000206000876060015160ff1660ff168152602001908152602001600020600001805461296e90614980565b80601f016020809104026020016040519081016040528092919081815260200182805461299a90614980565b80156129e75780601f106129bc576101008083540402835291602001916129e7565b820191906000526020600020905b8154815290600101906020018083116129ca57829003601f168201915b505050505061399d565b612aed6040518060400160405280600381526020017f4861740000000000000000000000000000000000000000000000000000000000815250600a6000600360ff1681526020019081526020016000206000886080015160ff1660ff1681526020019081526020016000206000018054612a6a90614980565b80601f0160208091040260200160405190810160405280929190818152602001828054612a9690614980565b8015612ae35780601f10612ab857610100808354040283529160200191612ae3565b820191906000526020600020905b815481529060010190602001808311612ac657829003601f168201915b505050505061399d565b612be96040518060400160405280601081526020017f46616369616c204163636573736f727900000000000000000000000000000000815250600a6000600460ff16815260200190815260200160002060008960a0015160ff1660ff1681526020019081526020016000206000018054612b6690614980565b80601f0160208091040260200160405190810160405280929190818152602001828054612b9290614980565b8015612bdf5780601f10612bb457610100808354040283529160200191612bdf565b820191906000526020600020905b815481529060010190602001808311612bc257829003601f168201915b505050505061399d565b612ce56040518060400160405280600481526020017f5461696c00000000000000000000000000000000000000000000000000000000815250600a6000600560ff16815260200190815260200160002060008a60c0015160ff1660ff1681526020019081526020016000206000018054612c6290614980565b80601f0160208091040260200160405190810160405280929190818152602001828054612c8e90614980565b8015612cdb5780601f10612cb057610100808354040283529160200191612cdb565b820191906000526020600020905b815481529060010190602001808311612cbe57829003601f168201915b505050505061399d565b612de16040518060400160405280600981526020017f48656c64204974656d0000000000000000000000000000000000000000000000815250600a6000600660ff16815260200190815260200160002060008b60e0015160ff1660ff1681526020019081526020016000206000018054612d5e90614980565b80601f0160208091040260200160405190810160405280929190818152602001828054612d8a90614980565b8015612dd75780601f10612dac57610100808354040283529160200191612dd7565b820191906000526020600020905b815481529060010190602001808311612dba57829003601f168201915b505050505061399d565b612ede6040518060400160405280600881526020017f537472656e677468000000000000000000000000000000000000000000000000815250600a6000600760ff16815260200190815260200160002060008c610100015160ff1660ff1681526020019081526020016000206000018054612e5b90614980565b80601f0160208091040260200160405190810160405280929190818152602001828054612e8790614980565b8015612ed45780601f10612ea957610100808354040283529160200191612ed4565b820191906000526020600020905b815481529060010190602001808311612eb757829003601f168201915b505050505061399d565b604051602001612ef5989796959493929190614364565b6040516020818303038152906040529050613715565b6130076040518060400160405280600481526020017f426f647900000000000000000000000000000000000000000000000000000000815250600a6000600860ff1681526020019081526020016000206000856020015160ff1660ff1681526020019081526020016000206000018054612f8490614980565b80601f0160208091040260200160405190810160405280929190818152602001828054612fb090614980565b8015612ffd5780601f10612fd257610100808354040283529160200191612ffd565b820191906000526020600020905b815481529060010190602001808311612fe057829003601f168201915b505050505061399d565b6131036040518060400160405280600481526020017f4865616400000000000000000000000000000000000000000000000000000000815250600a6000600960ff1681526020019081526020016000206000866040015160ff1660ff168152602001908152602001600020600001805461308090614980565b80601f01602080910402602001604051908101604052809291908181526020018280546130ac90614980565b80156130f95780601f106130ce576101008083540402835291602001916130f9565b820191906000526020600020905b8154815290600101906020018083116130dc57829003601f168201915b505050505061399d565b6131ff6040518060400160405280600581526020017f5370656c6c000000000000000000000000000000000000000000000000000000815250600a6000600a60ff1681526020019081526020016000206000876060015160ff1660ff168152602001908152602001600020600001805461317c90614980565b80601f01602080910402602001604051908101604052809291908181526020018280546131a890614980565b80156131f55780601f106131ca576101008083540402835291602001916131f5565b820191906000526020600020905b8154815290600101906020018083116131d857829003601f168201915b505050505061399d565b6132fb6040518060400160405280600481526020017f4579657300000000000000000000000000000000000000000000000000000000815250600a6000600b60ff1681526020019081526020016000206000886080015160ff1660ff168152602001908152602001600020600001805461327890614980565b80601f01602080910402602001604051908101604052809291908181526020018280546132a490614980565b80156132f15780601f106132c6576101008083540402835291602001916132f1565b820191906000526020600020905b8154815290600101906020018083116132d457829003601f168201915b505050505061399d565b6133f76040518060400160405280600481526020017f4e65636b00000000000000000000000000000000000000000000000000000000815250600a6000600c60ff16815260200190815260200160002060008960a0015160ff1660ff168152602001908152602001600020600001805461337490614980565b80601f01602080910402602001604051908101604052809291908181526020018280546133a090614980565b80156133ed5780601f106133c2576101008083540402835291602001916133ed565b820191906000526020600020905b8154815290600101906020018083116133d057829003601f168201915b505050505061399d565b6134f36040518060400160405280600581526020017f4d6f757468000000000000000000000000000000000000000000000000000000815250600a6000600d60ff16815260200190815260200160002060008a60c0015160ff1660ff168152602001908152602001600020600001805461347090614980565b80601f016020809104026020016040519081016040528092919081815260200182805461349c90614980565b80156134e95780601f106134be576101008083540402835291602001916134e9565b820191906000526020600020905b8154815290600101906020018083116134cc57829003601f168201915b505050505061399d565b6135ef6040518060400160405280600481526020017f57616e7400000000000000000000000000000000000000000000000000000000815250600a6000600e60ff16815260200190815260200160002060008b60e0015160ff1660ff168152602001908152602001600020600001805461356c90614980565b80601f016020809104026020016040519081016040528092919081815260200182805461359890614980565b80156135e55780601f106135ba576101008083540402835291602001916135e5565b820191906000526020600020905b8154815290600101906020018083116135c857829003601f168201915b505050505061399d565b6136ec6040518060400160405280600481526020017f53697a6500000000000000000000000000000000000000000000000000000000815250600a6000600f60ff16815260200190815260200160002060008c610100015160ff1660ff168152602001908152602001600020600001805461366990614980565b80601f016020809104026020016040519081016040528092919081815260200182805461369590614980565b80156136e25780601f106136b7576101008083540402835291602001916136e2565b820191906000526020600020905b8154815290600101906020018083116136c557829003601f168201915b505050505061399d565b604051602001613703989796959493929190614364565b60405160208183030381529060405290505b6000826000015161372757600161372a565b60005b90506000600860009054906101000a900473ffffffffffffffffffffffffffffffffffffffff1673ffffffffffffffffffffffffffffffffffffffff166354c96c836040518163ffffffff1660e01b815260040160206040518083038186803b15801561379657600080fd5b505afa1580156137aa573d6000803e3d6000fd5b505050506040513d601f19601f820116820180604052508101906137ce9190613d3b565b8561ffff16116137e157600090506137e6565b600190505b82811580156138915750600960009054906101000a900473ffffffffffffffffffffffffffffffffffffffff1673ffffffffffffffffffffffffffffffffffffffff1663d94f02d56040518163ffffffff1660e01b815260040160206040518083038186803b15801561385857600080fd5b505afa15801561386c573d6000803e3d6000fd5b505050506040513d601f19601f820116820180604052508101906138909190613cbf565b5b6138d0576040518060400160405280600781526020017f2247454e20312200000000000000000000000000000000000000000000000000815250613907565b6040518060400160405280600781526020017f2247454e203022000000000000000000000000000000000000000000000000008152505b60018460ff1660038110613944577f4e487b7100000000000000000000000000000000000000000000000000000000600052603260045260246000fd5b01604051602001613957939291906144cd565b6040516020818303038152906040529250505092915050565b60608160200151604051602001613987919061442e565b6040516020818303038152906040529050919050565b606082826040516020016139b292919061445b565b604051602081830303815290604052905092915050565b8280546139d590614980565b90600052602060002090601f0160209004810192826139f75760008555613a3e565b82601f10613a1057805160ff1916838001178555613a3e565b82800160010185558215613a3e579182015b82811115613a3d578251825591602001919060010190613a22565b5b509050613a4b9190613a4f565b5090565b5b80821115613a68576000816000905550600101613a50565b5090565b600081359050613a7b816151ac565b92915050565b60008083601f840112613a9357600080fd5b8235905067ffffffffffffffff811115613aac57600080fd5b602083019150836020820283011115613ac457600080fd5b9250929050565b60008083601f840112613add57600080fd5b8235905067ffffffffffffffff811115613af657600080fd5b602083019150836020820283011115613b0e57600080fd5b9250929050565b600081519050613b24816151c3565b92915050565b60006101208284031215613b3d57600080fd5b613b48610120614774565b90506000613b5884828501613b15565b6000830152506020613b6c84828501613c45565b6020830152506040613b8084828501613c45565b6040830152506060613b9484828501613c45565b6060830152506080613ba884828501613c45565b60808301525060a0613bbc84828501613c45565b60a08301525060c0613bd084828501613c45565b60c08301525060e0613be484828501613c45565b60e083015250610100613bf984828501613c45565b6101008301525092915050565b600081359050613c15816151da565b92915050565b600081519050613c2a816151f1565b92915050565b600081359050613c3f81615208565b92915050565b600081519050613c5481615208565b92915050565b600060208284031215613c6c57600080fd5b6000613c7a84828501613a6c565b91505092915050565b60008060408385031215613c9657600080fd5b6000613ca485828601613a6c565b9250506020613cb585828601613a6c565b9150509250929050565b600060208284031215613cd157600080fd5b6000613cdf84828501613b15565b91505092915050565b60006101208284031215613cfb57600080fd5b6000613d0984828501613b2a565b91505092915050565b600060208284031215613d2457600080fd5b6000613d3284828501613c06565b91505092915050565b600060208284031215613d4d57600080fd5b6000613d5b84828501613c1b565b91505092915050565b600060208284031215613d7657600080fd5b6000613d8484828501613c30565b91505092915050565b600080600080600060608688031215613da557600080fd5b6000613db388828901613c30565b955050602086013567ffffffffffffffff811115613dd057600080fd5b613ddc88828901613acb565b9450945050604086013567ffffffffffffffff811115613dfb57600080fd5b613e0788828901613a81565b92509250509295509295909350565b60008060408385031215613e2957600080fd5b6000613e3785828601613c30565b9250506020613e4885828601613c30565b9150509250929050565b613e5b816148ea565b82525050565b6000613e6c826147ae565b613e7681856147b9565b9350613e8681856020860161494d565b613e8f81614b43565b840191505092915050565b6000613ea5826147ae565b613eaf81856147ca565b9350613ebf81856020860161494d565b80840191505092915050565b60008154613ed881614980565b613ee281866147b9565b94506001821660008114613efd5760018114613f0f57613f42565b60ff1983168652602086019350613f42565b613f1885614799565b60005b83811015613f3a57815481890152600182019150602081019050613f1b565b808801955050505b50505092915050565b60008154613f5881614980565b613f6281866147ca565b94506001821660008114613f7d5760018114613f8e57613fc1565b60ff19831686528186019350613fc1565b613f9785614799565b60005b83811015613fb957815481890152600182019150602081019050613f9a565b838801955050505b50505092915050565b6000613fd76020836147ca565b9150613fe282614b54565b602082019050919050565b6000613ffa6087836147ca565b915061400582614b7d565b608782019050919050565b600061401d6002836147ca565b915061402882614c3e565b600282019050919050565b60006140406026836147b9565b915061404b82614c67565b604082019050919050565b60006140636001836147ca565b915061406e82614cb6565b600182019050919050565b6000614086600f836147ca565b915061409182614cdf565b600f82019050919050565b60006140a96003836147ca565b91506140b482614d08565b600382019050919050565b60006140cc6090836147ca565b91506140d782614d31565b609082019050919050565b60006140ef6011836147b9565b91506140fa82614df2565b602082019050919050565b60006141126002836147ca565b915061411d82614e1b565b600282019050919050565b60006141356010836147ca565b915061414082614e44565b601082019050919050565b60006141586001836147ca565b915061416382614e6d565b600182019050919050565b600061417b6074836147ca565b915061418682614e96565b607482019050919050565b600061419e6020836147b9565b91506141a982614f31565b602082019050919050565b60006141c16001836147ca565b91506141cc82614f5a565b600182019050919050565b60006141e46001836147ca565b91506141ef82614f83565b600182019050919050565b6000614207600a836147ca565b915061421282614fac565b600a82019050919050565b600061422a600b836147ca565b915061423582614fd5565b600b82019050919050565b600061424d6003836147ca565b915061425882614ffe565b600382019050919050565b600061427060cd836147ca565b915061427b82615027565b60cd82019050919050565b60006142936023836147ca565b915061429e82615134565b602382019050919050565b60006142b66006836147ca565b91506142c182615183565b600682019050919050565b6142d581614908565b82525050565b60006142e78284613e9a565b915081905092915050565b60006142fe828b613e9a565b915061430a828a613e9a565b91506143168289613e9a565b91506143228288613e9a565b915061432e8287613e9a565b915061433a8286613e9a565b91506143468285613e9a565b91506143528284613e9a565b91508190509998505050505050505050565b6000614370828b613e9a565b915061437b82614056565b9150614387828a613e9a565b915061439282614056565b915061439e8289613e9a565b91506143a982614056565b91506143b58288613e9a565b91506143c082614056565b91506143cc8287613e9a565b91506143d782614056565b91506143e38286613e9a565b91506143ee82614056565b91506143fa8285613e9a565b915061440582614056565b91506144118284613e9a565b915061441c82614056565b91508190509998505050505050505050565b600061443982613fed565b91506144458284613e9a565b915061445082614240565b915081905092915050565b600061446682614079565b91506144728285613e9a565b915061447d8261421d565b91506144898284613e9a565b915061449482614105565b91508190509392505050565b60006144ab826140bf565b91506144b78284613e9a565b91506144c2826142a9565b915081905092915050565b60006144d8826141b4565b91506144e48286613e9a565b91506144ef82614286565b91506144fb8285613e9a565b915061450682613fca565b91506145128284613f4b565b915061451d8261409c565b9150819050949350505050565b6000614535826141fa565b91506145418287613f4b565b915061454c82614010565b91506145588286613e9a565b915061456382614263565b915061456e826141d7565b91506145798261416e565b91506145858285613e9a565b915061459082614128565b915061459c8284613e9a565b91506145a78261414b565b915081905095945050505050565b60006020820190506145ca6000830184613e52565b92915050565b600060208201905081810360008301526145ea8184613e61565b905092915050565b6000604082019050818103600083015261460c8185613e61565b905081810360208301526146208184613e61565b90509392505050565b600060208201905081810360008301526146438184613ecb565b905092915050565b6000602082019050818103600083015261466481614033565b9050919050565b60006020820190508181036000830152614684816140e2565b9050919050565b600060208201905081810360008301526146a481614191565b9050919050565b60006020820190506146c060008301846142cc565b92915050565b600080833560016020038436030381126146df57600080fd5b80840192508235915067ffffffffffffffff8211156146fd57600080fd5b60208301925060208202360383131561471557600080fd5b509250929050565b6000808335600160200384360303811261473657600080fd5b80840192508235915067ffffffffffffffff82111561475457600080fd5b60208301925060018202360383131561476c57600080fd5b509250929050565b600061477e61478f565b905061478a82826149b2565b919050565b6000604051905090565b60008190508160005260206000209050919050565b600081519050919050565b600082825260208201905092915050565b600081905092915050565b60006147e082614936565b91506147eb83614936565b9250827fffffffffffffffffffffffffffffffffffffffffffffffffffffffffffffffff038211156148205761481f614a87565b5b828201905092915050565b600061483682614936565b915061484183614936565b92508261485157614850614ab6565b5b828204905092915050565b600061486782614936565b915061487283614936565b9250817fffffffffffffffffffffffffffffffffffffffffffffffffffffffffffffffff04831182151516156148ab576148aa614a87565b5b828202905092915050565b60006148c182614936565b91506148cc83614936565b9250828210156148df576148de614a87565b5b828203905092915050565b60006148f582614916565b9050919050565b60008115159050919050565b600061ffff82169050919050565b600073ffffffffffffffffffffffffffffffffffffffff82169050919050565b6000819050919050565b600060ff82169050919050565b60005b8381101561496b578082015181840152602081019050614950565b8381111561497a576000848401525b50505050565b6000600282049050600182168061499857607f821691505b602082108114156149ac576149ab614ae5565b5b50919050565b6149bb82614b43565b810181811067ffffffffffffffff821117156149da576149d9614b14565b5b80604052505050565b60006149ee82614936565b91507fffffffffffffffffffffffffffffffffffffffffffffffffffffffffffffffff821415614a2157614a20614a87565b5b600182019050919050565b6000614a3782614940565b915060ff821415614a4b57614a4a614a87565b5b600182019050919050565b6000614a6182614936565b9150614a6c83614936565b925082614a7c57614a7b614ab6565b5b828206905092915050565b7f4e487b7100000000000000000000000000000000000000000000000000000000600052601160045260246000fd5b7f4e487b7100000000000000000000000000000000000000000000000000000000600052601260045260246000fd5b7f4e487b7100000000000000000000000000000000000000000000000000000000600052602260045260246000fd5b7f4e487b7100000000000000000000000000000000000000000000000000000000600052604160045260246000fd5b6000601f19601f8301169050919050565b7f7d2c7b2274726169745f74797065223a2254797065222c2276616c7565223a22600082015250565b7f3c696d61676520783d22342220793d2234222077696474683d2233322220686560008201527f696768743d2233322220696d6167652d72656e646572696e673d22706978656c60208201527f6174656422207072657365727665417370656374526174696f3d22784d69645960408201527f4d69642220786c696e6b3a687265663d22646174613a696d6167652f706e673b60608201527f6261736536342c00000000000000000000000000000000000000000000000000608082015250565b7f2023000000000000000000000000000000000000000000000000000000000000600082015250565b7f4f776e61626c653a206e6577206f776e657220697320746865207a65726f206160008201527f6464726573730000000000000000000000000000000000000000000000000000602082015250565b7f2c00000000000000000000000000000000000000000000000000000000000000600082015250565b7f7b2274726169745f74797065223a220000000000000000000000000000000000600082015250565b7f227d5d0000000000000000000000000000000000000000000000000000000000600082015250565b7f3c7376672077696474683d223130302522206865696768743d2231303025222060008201527f76657273696f6e3d22312e31222076696577426f783d2230203020343020343060208201527f2220786d6c6e733d22687474703a2f2f7777772e77332e6f72672f323030302f60408201527f7376672220786d6c6e733a786c696e6b3d22687474703a2f2f7777772e77332e60608201527f6f72672f313939392f786c696e6b223e00000000000000000000000000000000608082015250565b7f4d69736d61746368656420696e70757473000000000000000000000000000000600082015250565b7f227d000000000000000000000000000000000000000000000000000000000000600082015250565b7f222c202261747472696275746573223a00000000000000000000000000000000600082015250565b7f7d00000000000000000000000000000000000000000000000000000000000000600082015250565b7f73206f6e6c79206f6e6520736d616c6c2070726f626c656d202d2d207468652060008201527f6661726d206861732067726f776e20746f6f2062696720616e642061206e657760208201527f20746872656174206f66206e61747572652068617320656e746572656420746860408201527f652067616d652e222c2022696d616765223a2022000000000000000000000000606082015250565b7f4f776e61626c653a2063616c6c6572206973206e6f7420746865206f776e6572600082015250565b7f5b00000000000000000000000000000000000000000000000000000000000000600082015250565b7f2700000000000000000000000000000000000000000000000000000000000000600082015250565b7f7b226e616d65223a202200000000000000000000000000000000000000000000600082015250565b7f222c2276616c7565223a22000000000000000000000000000000000000000000600082015250565b7f222f3e0000000000000000000000000000000000000000000000000000000000600082015250565b7f222c20226465736372697074696f6e223a2022546865206d657461766572736560008201527f206d61696e6c616e642069732066756c6c206f66206372656174757265732e2060208201527f41726f756e6420746865204661726d2c20616e206162756e64616e6365206f6660408201527f20526162626974732073637572727920746f206861727665737420434152524f60608201527f542e20416c6f6e6773696465204661726d6572732c207468657920657870616e60808201527f6420746865206661726d20616e64206d756c7469706c7920746865697220656160a08201527f726e696e67732e2054686572650000000000000000000000000000000000000060c082015250565b7f7b2274726169745f74797065223a2247656e65726174696f6e222c2276616c7560008201527f65223a0000000000000000000000000000000000000000000000000000000000602082015250565b7f3c2f7376673e0000000000000000000000000000000000000000000000000000600082015250565b6151b5816148ea565b81146151c057600080fd5b50565b6151cc816148fc565b81146151d757600080fd5b50565b6151e381614908565b81146151ee57600080fd5b50565b6151fa81614936565b811461520557600080fd5b50565b61521181614940565b811461521c57600080fd5b5056fe4142434445464748494a4b4c4d4e4f505152535455565758595a6162636465666768696a6b6c6d6e6f707172737475767778797a303132333435363738392b2fa26469706673582212205ed7c4df056f0361aa8ff5d98211439f5bac61ab1413d7a92fc5c7a4548a672464736f6c63430008010033",
  "linkReferences": {},
  "deployedLinkReferences": {}
}