{
  "_format": "hh-sol-artifact-1",
  "contractName": "BirdBath",
  "sourceName": "contracts/BirdBath.sol",
  "abi": [
    {
      "inputs": [
        {
          "internalType": "string",
          "name": "_baseURI",
          "type": "string"
        }
      ],
      "stateMutability": "nonpayable",
      "type": "constructor"
    },
    {
      "anonymous": false,
      "inputs": [
        {
          "indexed": true,
          "internalType": "address",
          "name": "account",
          "type": "address"
        },
        {
          "indexed": true,
          "internalType": "address",
          "name": "operator",
          "type": "address"
        },
        {
          "indexed": false,
          "internalType": "bool",
          "name": "approved",
          "type": "bool"
        }
      ],
      "name": "ApprovalForAll",
      "type": "event"
    },
    {
      "anonymous": false,
      "inputs": [
        {
          "indexed": true,
          "internalType": "address",
          "name": "previousOwner",
          "type": "address"
        },
        {
          "indexed": true,
          "internalType": "address",
          "name": "newOwner",
          "type": "address"
        }
      ],
      "name": "OwnershipTransferred",
      "type": "event"
    },
    {
      "anonymous": false,
      "inputs": [
        {
          "indexed": false,
          "internalType": "address",
          "name": "account",
          "type": "address"
        }
      ],
      "name": "Paused",
      "type": "event"
    },
    {
      "anonymous": false,
      "inputs": [
        {
          "indexed": true,
          "internalType": "address",
          "name": "operator",
          "type": "address"
        },
        {
          "indexed": true,
          "internalType": "address",
          "name": "from",
          "type": "address"
        },
        {
          "indexed": true,
          "internalType": "address",
          "name": "to",
          "type": "address"
        },
        {
          "indexed": false,
          "internalType": "uint256[]",
          "name": "ids",
          "type": "uint256[]"
        },
        {
          "indexed": false,
          "internalType": "uint256[]",
          "name": "values",
          "type": "uint256[]"
        }
      ],
      "name": "TransferBatch",
      "type": "event"
    },
    {
      "anonymous": false,
      "inputs": [
        {
          "indexed": true,
          "internalType": "address",
          "name": "operator",
          "type": "address"
        },
        {
          "indexed": true,
          "internalType": "address",
          "name": "from",
          "type": "address"
        },
        {
          "indexed": true,
          "internalType": "address",
          "name": "to",
          "type": "address"
        },
        {
          "indexed": false,
          "internalType": "uint256",
          "name": "id",
          "type": "uint256"
        },
        {
          "indexed": false,
          "internalType": "uint256",
          "name": "value",
          "type": "uint256"
        }
      ],
      "name": "TransferSingle",
      "type": "event"
    },
    {
      "anonymous": false,
      "inputs": [
        {
          "indexed": false,
          "internalType": "string",
          "name": "value",
          "type": "string"
        },
        {
          "indexed": true,
          "internalType": "uint256",
          "name": "id",
          "type": "uint256"
        }
      ],
      "name": "URI",
      "type": "event"
    },
    {
      "anonymous": false,
      "inputs": [
        {
          "indexed": false,
          "internalType": "address",
          "name": "account",
          "type": "address"
        }
      ],
      "name": "Unpaused",
      "type": "event"
    },
    {
      "inputs": [
        {
          "internalType": "address",
          "name": "addr",
          "type": "address"
        }
      ],
      "name": "addAdmin",
      "outputs": [],
      "stateMutability": "nonpayable",
      "type": "function"
    },
    {
      "inputs": [
        {
          "internalType": "address",
          "name": "account",
          "type": "address"
        },
        {
          "internalType": "uint256",
          "name": "id",
          "type": "uint256"
        }
      ],
      "name": "balanceOf",
      "outputs": [
        {
          "internalType": "uint256",
          "name": "",
          "type": "uint256"
        }
      ],
      "stateMutability": "view",
      "type": "function"
    },
    {
      "inputs": [
        {
          "internalType": "address[]",
          "name": "accounts",
          "type": "address[]"
        },
        {
          "internalType": "uint256[]",
          "name": "ids",
          "type": "uint256[]"
        }
      ],
      "name": "balanceOfBatch",
      "outputs": [
        {
          "internalType": "uint256[]",
          "name": "",
          "type": "uint256[]"
        }
      ],
      "stateMutability": "view",
      "type": "function"
    },
    {
      "inputs": [
        {
          "internalType": "uint256",
          "name": "typeId",
          "type": "uint256"
        },
        {
          "internalType": "uint16",
          "name": "qty",
          "type": "uint16"
        },
        {
          "internalType": "address",
          "name": "burnFrom",
          "type": "address"
        }
      ],
      "name": "burn",
      "outputs": [],
      "stateMutability": "nonpayable",
      "type": "function"
    },
    {
      "inputs": [],
      "name": "dirtContract",
      "outputs": [
        {
          "internalType": "contract IDirt",
          "name": "",
          "type": "address"
        }
      ],
      "stateMutability": "view",
      "type": "function"
    },
    {
      "inputs": [
        {
          "internalType": "uint256",
          "name": "typeId",
          "type": "uint256"
        }
      ],
      "name": "getInfoForType",
      "outputs": [
        {
          "components": [
            {
              "internalType": "uint16",
              "name": "mints",
              "type": "uint16"
            },
            {
              "internalType": "uint16",
              "name": "burns",
              "type": "uint16"
            },
            {
              "internalType": "uint16",
              "name": "maxSupply",
              "type": "uint16"
            }
          ],
          "internalType": "struct BirdBath.TypeInfo",
          "name": "",
          "type": "tuple"
        }
      ],
      "stateMutability": "view",
      "type": "function"
    },
    {
      "inputs": [
        {
          "internalType": "address",
          "name": "account",
          "type": "address"
        },
        {
          "internalType": "address",
          "name": "operator",
          "type": "address"
        }
      ],
      "name": "isApprovedForAll",
      "outputs": [
        {
          "internalType": "bool",
          "name": "",
          "type": "bool"
        }
      ],
      "stateMutability": "view",
      "type": "function"
    },
    {
      "inputs": [
        {
          "internalType": "uint256",
          "name": "typeId",
          "type": "uint256"
        },
        {
          "internalType": "uint16",
          "name": "qty",
          "type": "uint16"
        },
        {
          "internalType": "address",
          "name": "recipient",
          "type": "address"
        }
      ],
      "name": "mint",
      "outputs": [],
      "stateMutability": "nonpayable",
      "type": "function"
    },
    {
      "inputs": [],
      "name": "owner",
      "outputs": [
        {
          "internalType": "address",
          "name": "",
          "type": "address"
        }
      ],
      "stateMutability": "view",
      "type": "function"
    },
    {
      "inputs": [],
      "name": "paused",
      "outputs": [
        {
          "internalType": "bool",
          "name": "",
          "type": "bool"
        }
      ],
      "stateMutability": "view",
      "type": "function"
    },
    {
      "inputs": [
        {
          "internalType": "address",
          "name": "addr",
          "type": "address"
        }
      ],
      "name": "removeAdmin",
      "outputs": [],
      "stateMutability": "nonpayable",
      "type": "function"
    },
    {
      "inputs": [],
      "name": "renounceOwnership",
      "outputs": [],
      "stateMutability": "nonpayable",
      "type": "function"
    },
    {
      "inputs": [
        {
          "internalType": "address",
          "name": "from",
          "type": "address"
        },
        {
          "internalType": "address",
          "name": "to",
          "type": "address"
        },
        {
          "internalType": "uint256[]",
          "name": "ids",
          "type": "uint256[]"
        },
        {
          "internalType": "uint256[]",
          "name": "amounts",
          "type": "uint256[]"
        },
        {
          "internalType": "bytes",
          "name": "data",
          "type": "bytes"
        }
      ],
      "name": "safeBatchTransferFrom",
      "outputs": [],
      "stateMutability": "nonpayable",
      "type": "function"
    },
    {
      "inputs": [
        {
          "internalType": "address",
          "name": "from",
          "type": "address"
        },
        {
          "internalType": "address",
          "name": "to",
          "type": "address"
        },
        {
          "internalType": "uint256",
          "name": "id",
          "type": "uint256"
        },
        {
          "internalType": "uint256",
          "name": "amount",
          "type": "uint256"
        },
        {
          "internalType": "bytes",
          "name": "data",
          "type": "bytes"
        }
      ],
      "name": "safeTransferFrom",
      "outputs": [],
      "stateMutability": "nonpayable",
      "type": "function"
    },
    {
      "inputs": [
        {
          "internalType": "address",
          "name": "operator",
          "type": "address"
        },
        {
          "internalType": "bool",
          "name": "approved",
          "type": "bool"
        }
      ],
      "name": "setApprovalForAll",
      "outputs": [],
      "stateMutability": "nonpayable",
      "type": "function"
    },
    {
      "inputs": [
        {
          "internalType": "string",
          "name": "_baseURI",
          "type": "string"
        }
      ],
      "name": "setBaseUri",
      "outputs": [],
      "stateMutability": "nonpayable",
      "type": "function"
    },
    {
      "inputs": [
        {
          "internalType": "address",
          "name": "_dirtContract",
          "type": "address"
        }
      ],
      "name": "setContracts",
      "outputs": [],
      "stateMutability": "nonpayable",
      "type": "function"
    },
    {
      "inputs": [
        {
          "internalType": "bool",
          "name": "_paused",
          "type": "bool"
        }
      ],
      "name": "setPaused",
      "outputs": [],
      "stateMutability": "nonpayable",
      "type": "function"
    },
    {
      "inputs": [
        {
          "internalType": "uint256",
          "name": "typeId",
          "type": "uint256"
        },
        {
          "internalType": "uint16",
          "name": "maxSupply",
          "type": "uint16"
        }
      ],
      "name": "setType",
      "outputs": [],
      "stateMutability": "nonpayable",
      "type": "function"
    },
    {
      "inputs": [
        {
          "internalType": "uint256",
          "name": "typeId",
          "type": "uint256"
        },
        {
          "internalType": "string",
          "name": "uri",
          "type": "string"
        }
      ],
      "name": "setTypeURI",
      "outputs": [],
      "stateMutability": "nonpayable",
      "type": "function"
    },
    {
      "inputs": [
        {
          "internalType": "bytes4",
          "name": "interfaceId",
          "type": "bytes4"
        }
      ],
      "name": "supportsInterface",
      "outputs": [
        {
          "internalType": "bool",
          "name": "",
          "type": "bool"
        }
      ],
      "stateMutability": "view",
      "type": "function"
    },
    {
      "inputs": [
        {
          "internalType": "address",
          "name": "newOwner",
          "type": "address"
        }
      ],
      "name": "transferOwnership",
      "outputs": [],
      "stateMutability": "nonpayable",
      "type": "function"
    },
    {
      "inputs": [],
      "name": "updateOriginAccess",
      "outputs": [],
      "stateMutability": "nonpayable",
      "type": "function"
    },
    {
      "inputs": [
        {
          "internalType": "uint256",
          "name": "typeId",
          "type": "uint256"
        }
      ],
      "name": "uri",
      "outputs": [
        {
          "internalType": "string",
          "name": "",
          "type": "string"
        }
      ],
      "stateMutability": "view",
      "type": "function"
    }
  ],
  "bytecode": "0x60806040523480156200001157600080fd5b50604051620050be380380620050be833981810160405281019062000037919062000390565b806200004981620000b560201b60201c565b506200006a6200005e620000d160201b60201c565b620000d960201b60201c565b6000600360146101000a81548160ff02191690831515021790555080600490805190602001906200009d9291906200026e565b50620000ae6200019f60201b60201c565b506200062a565b8060029080519060200190620000cd9291906200026e565b5050565b600033905090565b6000600360009054906101000a900473ffffffffffffffffffffffffffffffffffffffff16905081600360006101000a81548173ffffffffffffffffffffffffffffffffffffffff021916908373ffffffffffffffffffffffffffffffffffffffff1602179055508173ffffffffffffffffffffffffffffffffffffffff168173ffffffffffffffffffffffffffffffffffffffff167f8be0079c531659141344cd1fd0a4f28419497f9722a3daafe3b4186f6b6457e060405160405180910390a35050565b620001af6200025760201b60201c565b15620001f2576040517f08c379a0000000000000000000000000000000000000000000000000000000008152600401620001e9906200042a565b60405180910390fd5b6001600360146101000a81548160ff0219169083151502179055507f62e78cea01bee320cd4e420270b5ea74000d11b0c9f74754ebdbfc544b05a2586200023e620000d160201b60201c565b6040516200024d91906200040d565b60405180910390a1565b6000600360149054906101000a900460ff16905090565b8280546200027c9062000526565b90600052602060002090601f016020900481019282620002a05760008555620002ec565b82601f10620002bb57805160ff1916838001178555620002ec565b82800160010185558215620002ec579182015b82811115620002eb578251825591602001919060010190620002ce565b5b509050620002fb9190620002ff565b5090565b5b808211156200031a57600081600090555060010162000300565b5090565b6000620003356200032f8462000475565b6200044c565b9050828152602081018484840111156200034e57600080fd5b6200035b848285620004f0565b509392505050565b600082601f8301126200037557600080fd5b8151620003878482602086016200031e565b91505092915050565b600060208284031215620003a357600080fd5b600082015167ffffffffffffffff811115620003be57600080fd5b620003cc8482850162000363565b91505092915050565b620003e081620004bc565b82525050565b6000620003f5601083620004ab565b9150620004028262000601565b602082019050919050565b6000602082019050620004246000830184620003d5565b92915050565b600060208201905081810360008301526200044581620003e6565b9050919050565b6000620004586200046b565b90506200046682826200055c565b919050565b6000604051905090565b600067ffffffffffffffff821115620004935762000492620005c1565b5b6200049e82620005f0565b9050602081019050919050565b600082825260208201905092915050565b6000620004c982620004d0565b9050919050565b600073ffffffffffffffffffffffffffffffffffffffff82169050919050565b60005b8381101562000510578082015181840152602081019050620004f3565b8381111562000520576000848401525b50505050565b600060028204905060018216806200053f57607f821691505b6020821081141562000556576200055562000592565b5b50919050565b6200056782620005f0565b810181811067ffffffffffffffff82111715620005895762000588620005c1565b5b80604052505050565b7f4e487b7100000000000000000000000000000000000000000000000000000000600052602260045260246000fd5b7f4e487b7100000000000000000000000000000000000000000000000000000000600052604160045260246000fd5b6000601f19601f8301169050919050565b7f5061757361626c653a2070617573656400000000000000000000000000000000600082015250565b614a84806200063a6000396000f3fe608060405234801561001057600080fd5b50600436106101575760003560e01c806370480275116100c3578063a0bcfc7f1161007c578063a0bcfc7f1461039a578063a22cb465146103b6578063c8122729146103d2578063e985e9c5146103ee578063f242432a1461041e578063f2fde38b1461043a57610157565b80637048027514610300578063715018a61461031c5780638da5cb5b146103265780638e52b7ce146103445780639c47ee3b146103605780639ca0f29b1461036a57610157565b80632eb2c2d6116101155780632eb2c2d6146102405780634c6bcfde1461025c5780634e1273f41461027a57806351416019146102aa5780635a2e2f47146102c65780635c975abb146102e257610157565b8062fdd58e1461015c57806301ffc9a71461018c57806306e7b953146101bc5780630e89341c146101d857806316c38b3c146102085780631785f53c14610224575b600080fd5b6101766004803603810190610171919061332d565b610456565b6040516101839190613ecb565b60405180910390f35b6101a660048036038101906101a191906133fe565b610664565b6040516101b39190613b78565b60405180910390f35b6101d660048036038101906101d1919061354a565b610746565b005b6101f260048036038101906101ed9190613491565b610882565b6040516101ff9190613bae565b60405180910390f35b610222600480360381019061021d91906133d5565b6109a2565b005b61023e6004803603810190610239919061313e565b610acf565b005b61025a600480360381019061025591906131a3565b610ba6565b005b610264610c47565b6040516102719190613b93565b60405180910390f35b610294600480360381019061028f9190613369565b610c6d565b6040516102a19190613b1f565b60405180910390f35b6102c460048036038101906102bf919061354a565b610e1e565b005b6102e060048036038101906102db919061313e565b611037565b005b6102ea6110f7565b6040516102f79190613b78565b60405180910390f35b61031a6004803603810190610315919061313e565b61110e565b005b6103246111e5565b005b61032e61126d565b60405161033b9190613a42565b60405180910390f35b61035e600480360381019061035991906134ba565b611297565b005b61036861133f565b005b610384600480360381019061037f9190613491565b6114a6565b6040516103919190613eb0565b60405180910390f35b6103b460048036038101906103af9190613450565b61169b565b005b6103d060048036038101906103cb91906132f1565b611731565b005b6103ec60048036038101906103e7919061350e565b611747565b005b61040860048036038101906104039190613167565b611867565b6040516104159190613b78565b60405180910390f35b61043860048036038101906104339190613262565b6118fb565b005b610454600480360381019061044f919061313e565b6119f5565b005b600060076000610464611aed565b73ffffffffffffffffffffffffffffffffffffffff1673ffffffffffffffffffffffffffffffffffffffff16815260200190815260200160002060009054906101000a900460ff1680610516575043600560003273ffffffffffffffffffffffffffffffffffffffff1673ffffffffffffffffffffffffffffffffffffffff16815260200190815260200160002060000160089054906101000a900467ffffffffffffffff1667ffffffffffffffff16105b610555576040517f08c379a000000000000000000000000000000000000000000000000000000000815260040161054c90613d10565b60405180910390fd5b60076000610561611aed565b73ffffffffffffffffffffffffffffffffffffffff1673ffffffffffffffffffffffffffffffffffffffff16815260200190815260200160002060009054906101000a900460ff1680610613575043600560008573ffffffffffffffffffffffffffffffffffffffff1673ffffffffffffffffffffffffffffffffffffffff16815260200190815260200160002060000160089054906101000a900467ffffffffffffffff1667ffffffffffffffff16105b610652576040517f08c379a000000000000000000000000000000000000000000000000000000000815260040161064990613d10565b60405180910390fd5b61065c8383611af5565b905092915050565b60007fd9b67a26000000000000000000000000000000000000000000000000000000007bffffffffffffffffffffffffffffffffffffffffffffffffffffffff1916827bffffffffffffffffffffffffffffffffffffffffffffffffffffffff1916148061072f57507f0e89341c000000000000000000000000000000000000000000000000000000007bffffffffffffffffffffffffffffffffffffffffffffffffffffffff1916827bffffffffffffffffffffffffffffffffffffffffffffffffffffffff1916145b8061073f575061073e82611bbe565b5b9050919050565b61074e6110f7565b1561078e576040517f08c379a000000000000000000000000000000000000000000000000000000000815260040161078590613d50565b60405180910390fd5b6007600061079a611aed565b73ffffffffffffffffffffffffffffffffffffffff1673ffffffffffffffffffffffffffffffffffffffff16815260200190815260200160002060009054906101000a900460ff16610821576040517f08c379a000000000000000000000000000000000000000000000000000000000815260040161081890613c90565b60405180910390fd5b816006600085815260200190815260200160002060000160028282829054906101000a900461ffff16610854919061405f565b92506101000a81548161ffff021916908361ffff16021790555061087d81848461ffff16611c28565b505050565b606060006006600084815260200190815260200160002060000160049054906101000a900461ffff1661ffff16116108ef576040517f08c379a00000000000000000000000000000000000000000000000000000000081526004016108e690613cb0565b60405180910390fd5b6000821461090f5760086000838152602001908152602001600020610912565b60045b805461091d90614209565b80601f016020809104026020016040519081016040528092919081815260200182805461094990614209565b80156109965780601f1061096b57610100808354040283529160200191610996565b820191906000526020600020905b81548152906001019060200180831161097957829003601f168201915b50505050509050919050565b6109aa611aed565b73ffffffffffffffffffffffffffffffffffffffff166109c861126d565b73ffffffffffffffffffffffffffffffffffffffff1614610a1e576040517f08c379a0000000000000000000000000000000000000000000000000000000008152600401610a1590613e10565b60405180910390fd5b600073ffffffffffffffffffffffffffffffffffffffff16600960009054906101000a900473ffffffffffffffffffffffffffffffffffffffff1673ffffffffffffffffffffffffffffffffffffffff161415610ab0576040517f08c379a0000000000000000000000000000000000000000000000000000000008152600401610aa790613c30565b60405180910390fd5b8015610ac357610abe611e45565b610acc565b610acb611ee8565b5b50565b610ad7611aed565b73ffffffffffffffffffffffffffffffffffffffff16610af561126d565b73ffffffffffffffffffffffffffffffffffffffff1614610b4b576040517f08c379a0000000000000000000000000000000000000000000000000000000008152600401610b4290613e10565b60405180910390fd5b6000600760008373ffffffffffffffffffffffffffffffffffffffff1673ffffffffffffffffffffffffffffffffffffffff16815260200190815260200160002060006101000a81548160ff02191690831515021790555050565b610bae611aed565b73ffffffffffffffffffffffffffffffffffffffff168573ffffffffffffffffffffffffffffffffffffffff161480610bf45750610bf385610bee611aed565b611867565b5b610c33576040517f08c379a0000000000000000000000000000000000000000000000000000000008152600401610c2a90613d90565b60405180910390fd5b610c408585858585611f8a565b5050505050565b600960009054906101000a900473ffffffffffffffffffffffffffffffffffffffff1681565b60608151835114610cb3576040517f08c379a0000000000000000000000000000000000000000000000000000000008152600401610caa90613e50565b60405180910390fd5b6000835167ffffffffffffffff811115610cf6577f4e487b7100000000000000000000000000000000000000000000000000000000600052604160045260246000fd5b604051908082528060200260200182016040528015610d245781602001602082028036833780820191505090505b50905060005b8451811015610e1357610dbd858281518110610d6f577f4e487b7100000000000000000000000000000000000000000000000000000000600052603260045260246000fd5b6020026020010151858381518110610db0577f4e487b7100000000000000000000000000000000000000000000000000000000600052603260045260246000fd5b6020026020010151610456565b828281518110610df6577f4e487b7100000000000000000000000000000000000000000000000000000000600052603260045260246000fd5b60200260200101818152505080610e0c9061426c565b9050610d2a565b508091505092915050565b610e266110f7565b15610e66576040517f08c379a0000000000000000000000000000000000000000000000000000000008152600401610e5d90613d50565b60405180910390fd5b60076000610e72611aed565b73ffffffffffffffffffffffffffffffffffffffff1673ffffffffffffffffffffffffffffffffffffffff16815260200190815260200160002060009054906101000a900460ff16610ef9576040517f08c379a0000000000000000000000000000000000000000000000000000000008152600401610ef090613c90565b60405180910390fd5b6006600084815260200190815260200160002060000160049054906101000a900461ffff1661ffff16826006600086815260200190815260200160002060000160029054906101000a900461ffff166006600087815260200190815260200160002060000160009054906101000a900461ffff16610f7791906140ed565b610f81919061405f565b61ffff161115610fc6576040517f08c379a0000000000000000000000000000000000000000000000000000000008152600401610fbd90613cf0565b60405180910390fd5b816006600085815260200190815260200160002060000160008282829054906101000a900461ffff16610ff9919061405f565b92506101000a81548161ffff021916908361ffff16021790555061103281848461ffff16604051806020016040528060008152506122ea565b505050565b61103f611aed565b73ffffffffffffffffffffffffffffffffffffffff1661105d61126d565b73ffffffffffffffffffffffffffffffffffffffff16146110b3576040517f08c379a00000000000000000000000000000000000000000000000000000000081526004016110aa90613e10565b60405180910390fd5b80600960006101000a81548173ffffffffffffffffffffffffffffffffffffffff021916908373ffffffffffffffffffffffffffffffffffffffff16021790555050565b6000600360149054906101000a900460ff16905090565b611116611aed565b73ffffffffffffffffffffffffffffffffffffffff1661113461126d565b73ffffffffffffffffffffffffffffffffffffffff161461118a576040517f08c379a000000000000000000000000000000000000000000000000000000000815260040161118190613e10565b60405180910390fd5b6001600760008373ffffffffffffffffffffffffffffffffffffffff1673ffffffffffffffffffffffffffffffffffffffff16815260200190815260200160002060006101000a81548160ff02191690831515021790555050565b6111ed611aed565b73ffffffffffffffffffffffffffffffffffffffff1661120b61126d565b73ffffffffffffffffffffffffffffffffffffffff1614611261576040517f08c379a000000000000000000000000000000000000000000000000000000000815260040161125890613e10565b60405180910390fd5b61126b6000612480565b565b6000600360009054906101000a900473ffffffffffffffffffffffffffffffffffffffff16905090565b61129f611aed565b73ffffffffffffffffffffffffffffffffffffffff166112bd61126d565b73ffffffffffffffffffffffffffffffffffffffff1614611313576040517f08c379a000000000000000000000000000000000000000000000000000000000815260040161130a90613e10565b60405180910390fd5b8060086000848152602001908152602001600020908051906020019061133a929190612df4565b505050565b6007600061134b611aed565b73ffffffffffffffffffffffffffffffffffffffff1673ffffffffffffffffffffffffffffffffffffffff16815260200190815260200160002060009054906101000a900460ff166113d2576040517f08c379a00000000000000000000000000000000000000000000000000000000081526004016113c990613c90565b60405180910390fd5b43600560003273ffffffffffffffffffffffffffffffffffffffff1673ffffffffffffffffffffffffffffffffffffffff16815260200190815260200160002060000160086101000a81548167ffffffffffffffff021916908367ffffffffffffffff16021790555042600560003273ffffffffffffffffffffffffffffffffffffffff1673ffffffffffffffffffffffffffffffffffffffff16815260200190815260200160002060000160006101000a81548167ffffffffffffffff021916908367ffffffffffffffff160217905550565b6114ae612e7a565b600760006114ba611aed565b73ffffffffffffffffffffffffffffffffffffffff1673ffffffffffffffffffffffffffffffffffffffff16815260200190815260200160002060009054906101000a900460ff168061156c575043600560003273ffffffffffffffffffffffffffffffffffffffff1673ffffffffffffffffffffffffffffffffffffffff16815260200190815260200160002060000160089054906101000a900467ffffffffffffffff1667ffffffffffffffff16105b6115ab576040517f08c379a00000000000000000000000000000000000000000000000000000000081526004016115a290613d10565b60405180910390fd5b60006006600084815260200190815260200160002060000160049054906101000a900461ffff1661ffff1611611616576040517f08c379a000000000000000000000000000000000000000000000000000000000815260040161160d90613cb0565b60405180910390fd5b600660008381526020019081526020016000206040518060600160405290816000820160009054906101000a900461ffff1661ffff1661ffff1681526020016000820160029054906101000a900461ffff1661ffff1661ffff1681526020016000820160049054906101000a900461ffff1661ffff1661ffff16815250509050919050565b6116a3611aed565b73ffffffffffffffffffffffffffffffffffffffff166116c161126d565b73ffffffffffffffffffffffffffffffffffffffff1614611717576040517f08c379a000000000000000000000000000000000000000000000000000000000815260040161170e90613e10565b60405180910390fd5b806004908051906020019061172d929190612df4565b5050565b61174361173c611aed565b8383612546565b5050565b61174f611aed565b73ffffffffffffffffffffffffffffffffffffffff1661176d61126d565b73ffffffffffffffffffffffffffffffffffffffff16146117c3576040517f08c379a00000000000000000000000000000000000000000000000000000000081526004016117ba90613e10565b60405180910390fd5b8061ffff166006600084815260200190815260200160002060000160009054906101000a900461ffff1661ffff161115611832576040517f08c379a000000000000000000000000000000000000000000000000000000000815260040161182990613db0565b60405180910390fd5b806006600084815260200190815260200160002060000160046101000a81548161ffff021916908361ffff1602179055505050565b6000600160008473ffffffffffffffffffffffffffffffffffffffff1673ffffffffffffffffffffffffffffffffffffffff16815260200190815260200160002060008373ffffffffffffffffffffffffffffffffffffffff1673ffffffffffffffffffffffffffffffffffffffff16815260200190815260200160002060009054906101000a900460ff16905092915050565b60076000611907611aed565b73ffffffffffffffffffffffffffffffffffffffff1673ffffffffffffffffffffffffffffffffffffffff16815260200190815260200160002060009054906101000a900460ff166119e15761195b611aed565b73ffffffffffffffffffffffffffffffffffffffff168573ffffffffffffffffffffffffffffffffffffffff1614806119a157506119a08561199b611aed565b611867565b5b6119e0576040517f08c379a00000000000000000000000000000000000000000000000000000000081526004016119d790613d30565b60405180910390fd5b5b6119ee85858585856126b3565b5050505050565b6119fd611aed565b73ffffffffffffffffffffffffffffffffffffffff16611a1b61126d565b73ffffffffffffffffffffffffffffffffffffffff1614611a71576040517f08c379a0000000000000000000000000000000000000000000000000000000008152600401611a6890613e10565b60405180910390fd5b600073ffffffffffffffffffffffffffffffffffffffff168173ffffffffffffffffffffffffffffffffffffffff161415611ae1576040517f08c379a0000000000000000000000000000000000000000000000000000000008152600401611ad890613c70565b60405180910390fd5b611aea81612480565b50565b600033905090565b60008073ffffffffffffffffffffffffffffffffffffffff168373ffffffffffffffffffffffffffffffffffffffff161415611b66576040517f08c379a0000000000000000000000000000000000000000000000000000000008152600401611b5d90613c50565b60405180910390fd5b60008083815260200190815260200160002060008473ffffffffffffffffffffffffffffffffffffffff1673ffffffffffffffffffffffffffffffffffffffff16815260200190815260200160002054905092915050565b60007f01ffc9a7000000000000000000000000000000000000000000000000000000007bffffffffffffffffffffffffffffffffffffffffffffffffffffffff1916827bffffffffffffffffffffffffffffffffffffffffffffffffffffffff1916149050919050565b600073ffffffffffffffffffffffffffffffffffffffff168373ffffffffffffffffffffffffffffffffffffffff161415611c98576040517f08c379a0000000000000000000000000000000000000000000000000000000008152600401611c8f90613dd0565b60405180910390fd5b6000611ca2611aed565b9050611cd281856000611cb487612935565b611cbd87612935565b604051806020016040528060008152506129fb565b600080600085815260200190815260200160002060008673ffffffffffffffffffffffffffffffffffffffff1673ffffffffffffffffffffffffffffffffffffffff16815260200190815260200160002054905082811015611d69576040517f08c379a0000000000000000000000000000000000000000000000000000000008152600401611d6090613cd0565b60405180910390fd5b82810360008086815260200190815260200160002060008773ffffffffffffffffffffffffffffffffffffffff1673ffffffffffffffffffffffffffffffffffffffff16815260200190815260200160002081905550600073ffffffffffffffffffffffffffffffffffffffff168573ffffffffffffffffffffffffffffffffffffffff168373ffffffffffffffffffffffffffffffffffffffff167fc3d58168c5ae7397731d063d5bbf3d657854427343f4c083240f7aacaa2d0f628787604051611e36929190613ee6565b60405180910390a45050505050565b611e4d6110f7565b15611e8d576040517f08c379a0000000000000000000000000000000000000000000000000000000008152600401611e8490613d50565b60405180910390fd5b6001600360146101000a81548160ff0219169083151502179055507f62e78cea01bee320cd4e420270b5ea74000d11b0c9f74754ebdbfc544b05a258611ed1611aed565b604051611ede9190613a42565b60405180910390a1565b611ef06110f7565b611f2f576040517f08c379a0000000000000000000000000000000000000000000000000000000008152600401611f2690613c10565b60405180910390fd5b6000600360146101000a81548160ff0219169083151502179055507f5db9ee0a495bf2e6ff9c91a7834c1ba4fdd244a5e8aa4e537bd38aeae4b073aa611f73611aed565b604051611f809190613a42565b60405180910390a1565b8151835114611fce576040517f08c379a0000000000000000000000000000000000000000000000000000000008152600401611fc590613e70565b60405180910390fd5b600073ffffffffffffffffffffffffffffffffffffffff168473ffffffffffffffffffffffffffffffffffffffff16141561203e576040517f08c379a000000000000000000000000000000000000000000000000000000000815260040161203590613d70565b60405180910390fd5b6000612048611aed565b90506120588187878787876129fb565b60005b845181101561225557600085828151811061209f577f4e487b7100000000000000000000000000000000000000000000000000000000600052603260045260246000fd5b6020026020010151905060008583815181106120e4577f4e487b7100000000000000000000000000000000000000000000000000000000600052603260045260246000fd5b60200260200101519050600080600084815260200190815260200160002060008b73ffffffffffffffffffffffffffffffffffffffff1673ffffffffffffffffffffffffffffffffffffffff16815260200190815260200160002054905081811015612185576040517f08c379a000000000000000000000000000000000000000000000000000000000815260040161217c90613df0565b60405180910390fd5b81810360008085815260200190815260200160002060008c73ffffffffffffffffffffffffffffffffffffffff1673ffffffffffffffffffffffffffffffffffffffff168152602001908152602001600020819055508160008085815260200190815260200160002060008b73ffffffffffffffffffffffffffffffffffffffff1673ffffffffffffffffffffffffffffffffffffffff168152602001908152602001600020600082825461223a9190614097565b925050819055505050508061224e9061426c565b905061205b565b508473ffffffffffffffffffffffffffffffffffffffff168673ffffffffffffffffffffffffffffffffffffffff168273ffffffffffffffffffffffffffffffffffffffff167f4a39dc06d4c0dbc64b70af90fd698a233a518aa5d07e595d983b8c0526c8f7fb87876040516122cc929190613b41565b60405180910390a46122e2818787878787612a03565b505050505050565b600073ffffffffffffffffffffffffffffffffffffffff168473ffffffffffffffffffffffffffffffffffffffff16141561235a576040517f08c379a000000000000000000000000000000000000000000000000000000000815260040161235190613e90565b60405180910390fd5b6000612364611aed565b90506123858160008761237688612935565b61237f88612935565b876129fb565b8260008086815260200190815260200160002060008773ffffffffffffffffffffffffffffffffffffffff1673ffffffffffffffffffffffffffffffffffffffff16815260200190815260200160002060008282546123e49190614097565b925050819055508473ffffffffffffffffffffffffffffffffffffffff16600073ffffffffffffffffffffffffffffffffffffffff168273ffffffffffffffffffffffffffffffffffffffff167fc3d58168c5ae7397731d063d5bbf3d657854427343f4c083240f7aacaa2d0f628787604051612462929190613ee6565b60405180910390a461247981600087878787612bea565b5050505050565b6000600360009054906101000a900473ffffffffffffffffffffffffffffffffffffffff16905081600360006101000a81548173ffffffffffffffffffffffffffffffffffffffff021916908373ffffffffffffffffffffffffffffffffffffffff1602179055508173ffffffffffffffffffffffffffffffffffffffff168173ffffffffffffffffffffffffffffffffffffffff167f8be0079c531659141344cd1fd0a4f28419497f9722a3daafe3b4186f6b6457e060405160405180910390a35050565b8173ffffffffffffffffffffffffffffffffffffffff168373ffffffffffffffffffffffffffffffffffffffff1614156125b5576040517f08c379a00000000000000000000000000000000000000000000000000000000081526004016125ac90613e30565b60405180910390fd5b80600160008573ffffffffffffffffffffffffffffffffffffffff1673ffffffffffffffffffffffffffffffffffffffff16815260200190815260200160002060008473ffffffffffffffffffffffffffffffffffffffff1673ffffffffffffffffffffffffffffffffffffffff16815260200190815260200160002060006101000a81548160ff0219169083151502179055508173ffffffffffffffffffffffffffffffffffffffff168373ffffffffffffffffffffffffffffffffffffffff167f17307eab39ab6107e8899845ad3d59bd9653f200f220920489ca2b5937696c31836040516126a69190613b78565b60405180910390a3505050565b600073ffffffffffffffffffffffffffffffffffffffff168473ffffffffffffffffffffffffffffffffffffffff161415612723576040517f08c379a000000000000000000000000000000000000000000000000000000000815260040161271a90613d70565b60405180910390fd5b600061272d611aed565b905061274d81878761273e88612935565b61274788612935565b876129fb565b600080600086815260200190815260200160002060008873ffffffffffffffffffffffffffffffffffffffff1673ffffffffffffffffffffffffffffffffffffffff168152602001908152602001600020549050838110156127e4576040517f08c379a00000000000000000000000000000000000000000000000000000000081526004016127db90613df0565b60405180910390fd5b83810360008087815260200190815260200160002060008973ffffffffffffffffffffffffffffffffffffffff1673ffffffffffffffffffffffffffffffffffffffff168152602001908152602001600020819055508360008087815260200190815260200160002060008873ffffffffffffffffffffffffffffffffffffffff1673ffffffffffffffffffffffffffffffffffffffff16815260200190815260200160002060008282546128999190614097565b925050819055508573ffffffffffffffffffffffffffffffffffffffff168773ffffffffffffffffffffffffffffffffffffffff168373ffffffffffffffffffffffffffffffffffffffff167fc3d58168c5ae7397731d063d5bbf3d657854427343f4c083240f7aacaa2d0f628888604051612916929190613ee6565b60405180910390a461292c828888888888612bea565b50505050505050565b60606000600167ffffffffffffffff81111561297a577f4e487b7100000000000000000000000000000000000000000000000000000000600052604160045260246000fd5b6040519080825280602002602001820160405280156129a85781602001602082028036833780820191505090505b50905082816000815181106129e6577f4e487b7100000000000000000000000000000000000000000000000000000000600052603260045260246000fd5b60200260200101818152505080915050919050565b505050505050565b612a228473ffffffffffffffffffffffffffffffffffffffff16612dd1565b15612be2578373ffffffffffffffffffffffffffffffffffffffff1663bc197c8187878686866040518663ffffffff1660e01b8152600401612a68959493929190613a5d565b602060405180830381600087803b158015612a8257600080fd5b505af1925050508015612ab357506040513d601f19601f82011682018060405250810190612ab09190613427565b60015b612b5957612abf614342565b806308c379a01415612b1c5750612ad4614945565b80612adf5750612b1e565b806040517f08c379a0000000000000000000000000000000000000000000000000000000008152600401612b139190613bae565b60405180910390fd5b505b6040517f08c379a0000000000000000000000000000000000000000000000000000000008152600401612b5090613bd0565b60405180910390fd5b63bc197c8160e01b7bffffffffffffffffffffffffffffffffffffffffffffffffffffffff1916817bffffffffffffffffffffffffffffffffffffffffffffffffffffffff191614612be0576040517f08c379a0000000000000000000000000000000000000000000000000000000008152600401612bd790613bf0565b60405180910390fd5b505b505050505050565b612c098473ffffffffffffffffffffffffffffffffffffffff16612dd1565b15612dc9578373ffffffffffffffffffffffffffffffffffffffff1663f23a6e6187878686866040518663ffffffff1660e01b8152600401612c4f959493929190613ac5565b602060405180830381600087803b158015612c6957600080fd5b505af1925050508015612c9a57506040513d601f19601f82011682018060405250810190612c979190613427565b60015b612d4057612ca6614342565b806308c379a01415612d035750612cbb614945565b80612cc65750612d05565b806040517f08c379a0000000000000000000000000000000000000000000000000000000008152600401612cfa9190613bae565b60405180910390fd5b505b6040517f08c379a0000000000000000000000000000000000000000000000000000000008152600401612d3790613bd0565b60405180910390fd5b63f23a6e6160e01b7bffffffffffffffffffffffffffffffffffffffffffffffffffffffff1916817bffffffffffffffffffffffffffffffffffffffffffffffffffffffff191614612dc7576040517f08c379a0000000000000000000000000000000000000000000000000000000008152600401612dbe90613bf0565b60405180910390fd5b505b505050505050565b6000808273ffffffffffffffffffffffffffffffffffffffff163b119050919050565b828054612e0090614209565b90600052602060002090601f016020900481019282612e225760008555612e69565b82601f10612e3b57805160ff1916838001178555612e69565b82800160010185558215612e69579182015b82811115612e68578251825591602001919060010190612e4d565b5b509050612e769190612ea7565b5090565b6040518060600160405280600061ffff168152602001600061ffff168152602001600061ffff1681525090565b5b80821115612ec0576000816000905550600101612ea8565b5090565b6000612ed7612ed284613f34565b613f0f565b90508083825260208201905082856020860282011115612ef657600080fd5b60005b85811015612f265781612f0c8882613018565b845260208401935060208301925050600181019050612ef9565b5050509392505050565b6000612f43612f3e84613f60565b613f0f565b90508083825260208201905082856020860282011115612f6257600080fd5b60005b85811015612f925781612f788882613129565b845260208401935060208301925050600181019050612f65565b5050509392505050565b6000612faf612faa84613f8c565b613f0f565b905082815260208101848484011115612fc757600080fd5b612fd28482856141c7565b509392505050565b6000612fed612fe884613fbd565b613f0f565b90508281526020810184848401111561300557600080fd5b6130108482856141c7565b509392505050565b600081359050613027816149db565b92915050565b600082601f83011261303e57600080fd5b813561304e848260208601612ec4565b91505092915050565b600082601f83011261306857600080fd5b8135613078848260208601612f30565b91505092915050565b600081359050613090816149f2565b92915050565b6000813590506130a581614a09565b92915050565b6000815190506130ba81614a09565b92915050565b600082601f8301126130d157600080fd5b81356130e1848260208601612f9c565b91505092915050565b600082601f8301126130fb57600080fd5b813561310b848260208601612fda565b91505092915050565b60008135905061312381614a20565b92915050565b60008135905061313881614a37565b92915050565b60006020828403121561315057600080fd5b600061315e84828501613018565b91505092915050565b6000806040838503121561317a57600080fd5b600061318885828601613018565b925050602061319985828601613018565b9150509250929050565b600080600080600060a086880312156131bb57600080fd5b60006131c988828901613018565b95505060206131da88828901613018565b945050604086013567ffffffffffffffff8111156131f757600080fd5b61320388828901613057565b935050606086013567ffffffffffffffff81111561322057600080fd5b61322c88828901613057565b925050608086013567ffffffffffffffff81111561324957600080fd5b613255888289016130c0565b9150509295509295909350565b600080600080600060a0868803121561327a57600080fd5b600061328888828901613018565b955050602061329988828901613018565b94505060406132aa88828901613129565b93505060606132bb88828901613129565b925050608086013567ffffffffffffffff8111156132d857600080fd5b6132e4888289016130c0565b9150509295509295909350565b6000806040838503121561330457600080fd5b600061331285828601613018565b925050602061332385828601613081565b9150509250929050565b6000806040838503121561334057600080fd5b600061334e85828601613018565b925050602061335f85828601613129565b9150509250929050565b6000806040838503121561337c57600080fd5b600083013567ffffffffffffffff81111561339657600080fd5b6133a28582860161302d565b925050602083013567ffffffffffffffff8111156133bf57600080fd5b6133cb85828601613057565b9150509250929050565b6000602082840312156133e757600080fd5b60006133f584828501613081565b91505092915050565b60006020828403121561341057600080fd5b600061341e84828501613096565b91505092915050565b60006020828403121561343957600080fd5b6000613447848285016130ab565b91505092915050565b60006020828403121561346257600080fd5b600082013567ffffffffffffffff81111561347c57600080fd5b613488848285016130ea565b91505092915050565b6000602082840312156134a357600080fd5b60006134b184828501613129565b91505092915050565b600080604083850312156134cd57600080fd5b60006134db85828601613129565b925050602083013567ffffffffffffffff8111156134f857600080fd5b613504858286016130ea565b9150509250929050565b6000806040838503121561352157600080fd5b600061352f85828601613129565b925050602061354085828601613114565b9150509250929050565b60008060006060848603121561355f57600080fd5b600061356d86828701613129565b935050602061357e86828701613114565b925050604061358f86828701613018565b9150509250925092565b60006135a58383613a24565b60208301905092915050565b6135ba81614121565b82525050565b60006135cb82613ffe565b6135d5818561402c565b93506135e083613fee565b8060005b838110156136115781516135f88882613599565b97506136038361401f565b9250506001810190506135e4565b5085935050505092915050565b61362781614133565b82525050565b600061363882614009565b613642818561403d565b93506136528185602086016141d6565b61365b81614364565b840191505092915050565b61366f816141a3565b82525050565b600061368082614014565b61368a818561404e565b935061369a8185602086016141d6565b6136a381614364565b840191505092915050565b60006136bb60348361404e565b91506136c682614382565b604082019050919050565b60006136de60288361404e565b91506136e9826143d1565b604082019050919050565b600061370160148361404e565b915061370c82614420565b602082019050919050565b600061372460118361404e565b915061372f82614449565b602082019050919050565b6000613747602b8361404e565b915061375282614472565b604082019050919050565b600061376a60268361404e565b9150613775826144c1565b604082019050919050565b600061378d60198361404e565b915061379882614510565b602082019050919050565b60006137b0600c8361404e565b91506137bb82614539565b602082019050919050565b60006137d360248361404e565b91506137de82614562565b604082019050919050565b60006137f660118361404e565b9150613801826145b1565b602082019050919050565b600061381960118361404e565b9150613824826145da565b602082019050919050565b600061383c60298361404e565b915061384782614603565b604082019050919050565b600061385f60108361404e565b915061386a82614652565b602082019050919050565b600061388260258361404e565b915061388d8261467b565b604082019050919050565b60006138a560328361404e565b91506138b0826146ca565b604082019050919050565b60006138c860128361404e565b91506138d382614719565b602082019050919050565b60006138eb60238361404e565b91506138f682614742565b604082019050919050565b600061390e602a8361404e565b915061391982614791565b604082019050919050565b600061393160208361404e565b915061393c826147e0565b602082019050919050565b600061395460298361404e565b915061395f82614809565b604082019050919050565b600061397760298361404e565b915061398282614858565b604082019050919050565b600061399a60288361404e565b91506139a5826148a7565b604082019050919050565b60006139bd60218361404e565b91506139c8826148f6565b604082019050919050565b6060820160008201516139e96000850182613a15565b5060208201516139fc6020850182613a15565b506040820151613a0f6040850182613a15565b50505050565b613a1e8161416b565b82525050565b613a2d81614199565b82525050565b613a3c81614199565b82525050565b6000602082019050613a5760008301846135b1565b92915050565b600060a082019050613a7260008301886135b1565b613a7f60208301876135b1565b8181036040830152613a9181866135c0565b90508181036060830152613aa581856135c0565b90508181036080830152613ab9818461362d565b90509695505050505050565b600060a082019050613ada60008301886135b1565b613ae760208301876135b1565b613af46040830186613a33565b613b016060830185613a33565b8181036080830152613b13818461362d565b90509695505050505050565b60006020820190508181036000830152613b3981846135c0565b905092915050565b60006040820190508181036000830152613b5b81856135c0565b90508181036020830152613b6f81846135c0565b90509392505050565b6000602082019050613b8d600083018461361e565b92915050565b6000602082019050613ba86000830184613666565b92915050565b60006020820190508181036000830152613bc88184613675565b905092915050565b60006020820190508181036000830152613be9816136ae565b9050919050565b60006020820190508181036000830152613c09816136d1565b9050919050565b60006020820190508181036000830152613c29816136f4565b9050919050565b60006020820190508181036000830152613c4981613717565b9050919050565b60006020820190508181036000830152613c698161373a565b9050919050565b60006020820190508181036000830152613c898161375d565b9050919050565b60006020820190508181036000830152613ca981613780565b9050919050565b60006020820190508181036000830152613cc9816137a3565b9050919050565b60006020820190508181036000830152613ce9816137c6565b9050919050565b60006020820190508181036000830152613d09816137e9565b9050919050565b60006020820190508181036000830152613d298161380c565b9050919050565b60006020820190508181036000830152613d498161382f565b9050919050565b60006020820190508181036000830152613d6981613852565b9050919050565b60006020820190508181036000830152613d8981613875565b9050919050565b60006020820190508181036000830152613da981613898565b9050919050565b60006020820190508181036000830152613dc9816138bb565b9050919050565b60006020820190508181036000830152613de9816138de565b9050919050565b60006020820190508181036000830152613e0981613901565b9050919050565b60006020820190508181036000830152613e2981613924565b9050919050565b60006020820190508181036000830152613e4981613947565b9050919050565b60006020820190508181036000830152613e698161396a565b9050919050565b60006020820190508181036000830152613e898161398d565b9050919050565b60006020820190508181036000830152613ea9816139b0565b9050919050565b6000606082019050613ec560008301846139d3565b92915050565b6000602082019050613ee06000830184613a33565b92915050565b6000604082019050613efb6000830185613a33565b613f086020830184613a33565b9392505050565b6000613f19613f2a565b9050613f25828261423b565b919050565b6000604051905090565b600067ffffffffffffffff821115613f4f57613f4e614313565b5b602082029050602081019050919050565b600067ffffffffffffffff821115613f7b57613f7a614313565b5b602082029050602081019050919050565b600067ffffffffffffffff821115613fa757613fa6614313565b5b613fb082614364565b9050602081019050919050565b600067ffffffffffffffff821115613fd857613fd7614313565b5b613fe182614364565b9050602081019050919050565b6000819050602082019050919050565b600081519050919050565b600081519050919050565b600081519050919050565b6000602082019050919050565b600082825260208201905092915050565b600082825260208201905092915050565b600082825260208201905092915050565b600061406a8261416b565b91506140758361416b565b92508261ffff0382111561408c5761408b6142b5565b5b828201905092915050565b60006140a282614199565b91506140ad83614199565b9250827fffffffffffffffffffffffffffffffffffffffffffffffffffffffffffffffff038211156140e2576140e16142b5565b5b828201905092915050565b60006140f88261416b565b91506141038361416b565b925082821015614116576141156142b5565b5b828203905092915050565b600061412c82614179565b9050919050565b60008115159050919050565b60007fffffffff0000000000000000000000000000000000000000000000000000000082169050919050565b600061ffff82169050919050565b600073ffffffffffffffffffffffffffffffffffffffff82169050919050565b6000819050919050565b60006141ae826141b5565b9050919050565b60006141c082614179565b9050919050565b82818337600083830152505050565b60005b838110156141f45780820151818401526020810190506141d9565b83811115614203576000848401525b50505050565b6000600282049050600182168061422157607f821691505b60208210811415614235576142346142e4565b5b50919050565b61424482614364565b810181811067ffffffffffffffff8211171561426357614262614313565b5b80604052505050565b600061427782614199565b91507fffffffffffffffffffffffffffffffffffffffffffffffffffffffffffffffff8214156142aa576142a96142b5565b5b600182019050919050565b7f4e487b7100000000000000000000000000000000000000000000000000000000600052601160045260246000fd5b7f4e487b7100000000000000000000000000000000000000000000000000000000600052602260045260246000fd5b7f4e487b7100000000000000000000000000000000000000000000000000000000600052604160045260246000fd5b600060033d11156143615760046000803e61435e600051614375565b90505b90565b6000601f19601f8301169050919050565b60008160e01c9050919050565b7f455243313135353a207472616e7366657220746f206e6f6e204552433131353560008201527f526563656976657220696d706c656d656e746572000000000000000000000000602082015250565b7f455243313135353a204552433131353552656365697665722072656a6563746560008201527f6420746f6b656e73000000000000000000000000000000000000000000000000602082015250565b7f5061757361626c653a206e6f7420706175736564000000000000000000000000600082015250565b7f436f6e747261637473206e6f7420736574000000000000000000000000000000600082015250565b7f455243313135353a2062616c616e636520717565727920666f7220746865207a60008201527f65726f2061646472657373000000000000000000000000000000000000000000602082015250565b7f4f776e61626c653a206e6577206f776e657220697320746865207a65726f206160008201527f6464726573730000000000000000000000000000000000000000000000000000602082015250565b7f4f6e6c792061646d696e732063616e2063616c6c207468697300000000000000600082015250565b7f696e76616c696420747970650000000000000000000000000000000000000000600082015250565b7f455243313135353a206275726e20616d6f756e7420657863656564732062616c60008201527f616e636500000000000000000000000000000000000000000000000000000000602082015250565b7f416c6c20746f6b656e73206d696e746564000000000000000000000000000000600082015250565b7f686d6d6d6d207768617420646f696e673f000000000000000000000000000000600082015250565b7f455243313135353a2063616c6c6572206973206e6f74206f776e6572206e6f7260008201527f20617070726f7665640000000000000000000000000000000000000000000000602082015250565b7f5061757361626c653a2070617573656400000000000000000000000000000000600082015250565b7f455243313135353a207472616e7366657220746f20746865207a65726f20616460008201527f6472657373000000000000000000000000000000000000000000000000000000602082015250565b7f455243313135353a207472616e736665722063616c6c6572206973206e6f742060008201527f6f776e6572206e6f7220617070726f7665640000000000000000000000000000602082015250565b7f6d617820737570706c7920746f6f206c6f770000000000000000000000000000600082015250565b7f455243313135353a206275726e2066726f6d20746865207a65726f206164647260008201527f6573730000000000000000000000000000000000000000000000000000000000602082015250565b7f455243313135353a20696e73756666696369656e742062616c616e636520666f60008201527f72207472616e7366657200000000000000000000000000000000000000000000602082015250565b7f4f776e61626c653a2063616c6c6572206973206e6f7420746865206f776e6572600082015250565b7f455243313135353a2073657474696e6720617070726f76616c2073746174757360008201527f20666f722073656c660000000000000000000000000000000000000000000000602082015250565b7f455243313135353a206163636f756e747320616e6420696473206c656e67746860008201527f206d69736d617463680000000000000000000000000000000000000000000000602082015250565b7f455243313135353a2069647320616e6420616d6f756e7473206c656e6774682060008201527f6d69736d61746368000000000000000000000000000000000000000000000000602082015250565b7f455243313135353a206d696e7420746f20746865207a65726f2061646472657360008201527f7300000000000000000000000000000000000000000000000000000000000000602082015250565b600060443d1015614955576149d8565b61495d613f2a565b60043d036004823e80513d602482011167ffffffffffffffff821117156149855750506149d8565b808201805167ffffffffffffffff8111156149a357505050506149d8565b80602083010160043d0385018111156149c05750505050506149d8565b6149cf8260200185018661423b565b82955050505050505b90565b6149e481614121565b81146149ef57600080fd5b50565b6149fb81614133565b8114614a0657600080fd5b50565b614a128161413f565b8114614a1d57600080fd5b50565b614a298161416b565b8114614a3457600080fd5b50565b614a4081614199565b8114614a4b57600080fd5b5056fea2646970667358221220726dbc2619fa504d82ca3a76d9eb91a9b395206b5717ad6e083843b8b53a2d1964736f6c63430008010033",
  "linkReferences": {},
  "deployedLinkReferences": {}
}