{
  "contractName": "AncientTree",
  "abi": [
    {
      "anonymous": false,
      "inputs": [
        {
          "indexed": true,
          "internalType": "address",
          "name": "previousOwner",
          "type": "address"
        },
        {
          "indexed": true,
          "internalType": "address",
          "name": "newOwner",
          "type": "address"
        }
      ],
      "name": "OwnershipTransferred",
      "type": "event"
    },
    {
      "anonymous": false,
      "inputs": [
        {
          "indexed": false,
          "internalType": "address",
          "name": "account",
          "type": "address"
        }
      ],
      "name": "Paused",
      "type": "event"
    },
    {
      "anonymous": false,
      "inputs": [
        {
          "indexed": false,
          "internalType": "address",
          "name": "account",
          "type": "address"
        }
      ],
      "name": "Unpaused",
      "type": "event"
    },
    {
      "inputs": [],
      "name": "MAXIMUM_BIRD_SIZE",
      "outputs": [
        {
          "internalType": "uint16",
          "name": "",
          "type": "uint16"
        }
      ],
      "stateMutability": "view",
      "type": "function",
      "constant": true
    },
    {
      "inputs": [],
      "name": "MAXIMUM_DIRT",
      "outputs": [
        {
          "internalType": "uint128",
          "name": "",
          "type": "uint128"
        }
      ],
      "stateMutability": "view",
      "type": "function",
      "constant": true
    },
    {
      "inputs": [],
      "name": "WORM_CLAIM_TAX_PERCENTAGE",
      "outputs": [
        {
          "internalType": "uint8",
          "name": "",
          "type": "uint8"
        }
      ],
      "stateMutability": "view",
      "type": "function",
      "constant": true
    },
    {
      "inputs": [],
      "name": "WORM_EARNING_RATE",
      "outputs": [
        {
          "internalType": "uint128",
          "name": "",
          "type": "uint128"
        }
      ],
      "stateMutability": "view",
      "type": "function",
      "constant": true
    },
    {
      "inputs": [],
      "name": "WORM_MINIMUM_STAKE_TIME",
      "outputs": [
        {
          "internalType": "uint48",
          "name": "",
          "type": "uint48"
        }
      ],
      "stateMutability": "view",
      "type": "function",
      "constant": true
    },
    {
      "inputs": [
        {
          "internalType": "uint16",
          "name": "",
          "type": "uint16"
        }
      ],
      "name": "birdHierarchy",
      "outputs": [
        {
          "internalType": "uint16",
          "name": "",
          "type": "uint16"
        }
      ],
      "stateMutability": "view",
      "type": "function",
      "constant": true
    },
    {
      "inputs": [
        {
          "internalType": "uint16",
          "name": "",
          "type": "uint16"
        },
        {
          "internalType": "uint256",
          "name": "",
          "type": "uint256"
        }
      ],
      "name": "birdStakeBySize",
      "outputs": [
        {
          "internalType": "uint16",
          "name": "tokenId",
          "type": "uint16"
        },
        {
          "internalType": "uint128",
          "name": "earningRate",
          "type": "uint128"
        },
        {
          "internalType": "address",
          "name": "owner",
          "type": "address"
        }
      ],
      "stateMutability": "view",
      "type": "function",
      "constant": true
    },
    {
      "inputs": [],
      "name": "dirtContract",
      "outputs": [
        {
          "internalType": "contract IDirt",
          "name": "",
          "type": "address"
        }
      ],
      "stateMutability": "view",
      "type": "function",
      "constant": true
    },
    {
      "inputs": [],
      "name": "dirtPerSizePoint",
      "outputs": [
        {
          "internalType": "uint128",
          "name": "",
          "type": "uint128"
        }
      ],
      "stateMutability": "view",
      "type": "function",
      "constant": true
    },
    {
      "inputs": [],
      "name": "earlyBirdsGame",
      "outputs": [
        {
          "internalType": "contract IEarlyBirdsGame",
          "name": "",
          "type": "address"
        }
      ],
      "stateMutability": "view",
      "type": "function",
      "constant": true
    },
    {
      "inputs": [],
      "name": "earlyBirdsNFT",
      "outputs": [
        {
          "internalType": "contract IEarlyBirdsNFT",
          "name": "",
          "type": "address"
        }
      ],
      "stateMutability": "view",
      "type": "function",
      "constant": true
    },
    {
      "inputs": [],
      "name": "lastClaimTimestamp",
      "outputs": [
        {
          "internalType": "uint48",
          "name": "",
          "type": "uint48"
        }
      ],
      "stateMutability": "view",
      "type": "function",
      "constant": true
    },
    {
      "inputs": [],
      "name": "owner",
      "outputs": [
        {
          "internalType": "address",
          "name": "",
          "type": "address"
        }
      ],
      "stateMutability": "view",
      "type": "function",
      "constant": true
    },
    {
      "inputs": [],
      "name": "paused",
      "outputs": [
        {
          "internalType": "bool",
          "name": "",
          "type": "bool"
        }
      ],
      "stateMutability": "view",
      "type": "function",
      "constant": true
    },
    {
      "inputs": [],
      "name": "randomNumberConsumer",
      "outputs": [
        {
          "internalType": "contract IRandomNumberConsumer",
          "name": "",
          "type": "address"
        }
      ],
      "stateMutability": "view",
      "type": "function",
      "constant": true
    },
    {
      "inputs": [],
      "name": "renounceOwnership",
      "outputs": [],
      "stateMutability": "nonpayable",
      "type": "function"
    },
    {
      "inputs": [],
      "name": "totalBirdsStaked",
      "outputs": [
        {
          "internalType": "uint32",
          "name": "",
          "type": "uint32"
        }
      ],
      "stateMutability": "view",
      "type": "function",
      "constant": true
    },
    {
      "inputs": [],
      "name": "totalDirtClaimed",
      "outputs": [
        {
          "internalType": "uint128",
          "name": "",
          "type": "uint128"
        }
      ],
      "stateMutability": "view",
      "type": "function",
      "constant": true
    },
    {
      "inputs": [],
      "name": "totalSizeOfBirdsStaked",
      "outputs": [
        {
          "internalType": "uint16",
          "name": "",
          "type": "uint16"
        }
      ],
      "stateMutability": "view",
      "type": "function",
      "constant": true
    },
    {
      "inputs": [],
      "name": "totalWormsStaked",
      "outputs": [
        {
          "internalType": "uint32",
          "name": "",
          "type": "uint32"
        }
      ],
      "stateMutability": "view",
      "type": "function",
      "constant": true
    },
    {
      "inputs": [
        {
          "internalType": "address",
          "name": "newOwner",
          "type": "address"
        }
      ],
      "name": "transferOwnership",
      "outputs": [],
      "stateMutability": "nonpayable",
      "type": "function"
    },
    {
      "inputs": [],
      "name": "unaccountedBirdRewards",
      "outputs": [
        {
          "internalType": "uint128",
          "name": "",
          "type": "uint128"
        }
      ],
      "stateMutability": "view",
      "type": "function",
      "constant": true
    },
    {
      "inputs": [
        {
          "internalType": "uint16",
          "name": "",
          "type": "uint16"
        }
      ],
      "name": "wormHierarchy",
      "outputs": [
        {
          "internalType": "uint16",
          "name": "",
          "type": "uint16"
        }
      ],
      "stateMutability": "view",
      "type": "function",
      "constant": true
    },
    {
      "inputs": [
        {
          "internalType": "uint16",
          "name": "",
          "type": "uint16"
        },
        {
          "internalType": "uint256",
          "name": "",
          "type": "uint256"
        }
      ],
      "name": "wormStakeByStrength",
      "outputs": [
        {
          "internalType": "uint16",
          "name": "tokenId",
          "type": "uint16"
        },
        {
          "internalType": "uint48",
          "name": "time",
          "type": "uint48"
        },
        {
          "internalType": "address",
          "name": "owner",
          "type": "address"
        }
      ],
      "stateMutability": "view",
      "type": "function",
      "constant": true
    },
    {
      "inputs": [
        {
          "internalType": "address",
          "name": "_dirtContract",
          "type": "address"
        },
        {
          "internalType": "address",
          "name": "_earlyBirdsNFT",
          "type": "address"
        },
        {
          "internalType": "address",
          "name": "_randomNumberConsumer",
          "type": "address"
        },
        {
          "internalType": "address",
          "name": "_earlyBirdsGame",
          "type": "address"
        }
      ],
      "name": "setContracts",
      "outputs": [],
      "stateMutability": "nonpayable",
      "type": "function"
    },
    {
      "inputs": [
        {
          "internalType": "address",
          "name": "account",
          "type": "address"
        },
        {
          "internalType": "uint16[]",
          "name": "tokenIds",
          "type": "uint16[]"
        }
      ],
      "name": "stakeTokens",
      "outputs": [],
      "stateMutability": "nonpayable",
      "type": "function"
    },
    {
      "inputs": [
        {
          "internalType": "uint16[]",
          "name": "tokenIds",
          "type": "uint16[]"
        },
        {
          "internalType": "bool",
          "name": "unstake",
          "type": "bool"
        },
        {
          "internalType": "uint256",
          "name": "seed",
          "type": "uint256"
        }
      ],
      "name": "claimRewardsAndUnstake",
      "outputs": [],
      "stateMutability": "nonpayable",
      "type": "function"
    },
    {
      "inputs": [
        {
          "internalType": "uint16",
          "name": "tokenId",
          "type": "uint16"
        }
      ],
      "name": "calculateReward",
      "outputs": [
        {
          "internalType": "uint128",
          "name": "reward",
          "type": "uint128"
        }
      ],
      "stateMutability": "view",
      "type": "function",
      "constant": true
    },
    {
      "inputs": [
        {
          "internalType": "uint256",
          "name": "seed",
          "type": "uint256"
        }
      ],
      "name": "randomBirdOwner",
      "outputs": [
        {
          "internalType": "address",
          "name": "",
          "type": "address"
        }
      ],
      "stateMutability": "view",
      "type": "function",
      "constant": true
    },
    {
      "inputs": [
        {
          "internalType": "uint16",
          "name": "tokenId",
          "type": "uint16"
        },
        {
          "internalType": "uint16",
          "name": "strength",
          "type": "uint16"
        }
      ],
      "name": "_getWormStrengthBonus",
      "outputs": [
        {
          "internalType": "uint128",
          "name": "",
          "type": "uint128"
        }
      ],
      "stateMutability": "view",
      "type": "function",
      "constant": true
    },
    {
      "inputs": [],
      "name": "getTotalDirtClaimed",
      "outputs": [
        {
          "internalType": "uint256",
          "name": "",
          "type": "uint256"
        }
      ],
      "stateMutability": "view",
      "type": "function",
      "constant": true
    },
    {
      "inputs": [
        {
          "internalType": "address",
          "name": "",
          "type": "address"
        },
        {
          "internalType": "address",
          "name": "from",
          "type": "address"
        },
        {
          "internalType": "uint256",
          "name": "",
          "type": "uint256"
        },
        {
          "internalType": "bytes",
          "name": "",
          "type": "bytes"
        }
      ],
      "name": "onERC721Received",
      "outputs": [
        {
          "internalType": "bytes4",
          "name": "",
          "type": "bytes4"
        }
      ],
      "stateMutability": "pure",
      "type": "function",
      "constant": true
    }
  ],
  "bytecode": "0x60806040523480156200001157600080fd5b5062000032620000266200005a60201b60201c565b6200006260201b60201c565b600180819055506000600260006101000a81548160ff02191690831515021790555062000126565b600033905090565b60008060009054906101000a900473ffffffffffffffffffffffffffffffffffffffff169050816000806101000a81548173ffffffffffffffffffffffffffffffffffffffff021916908373ffffffffffffffffffffffffffffffffffffffff1602179055508173ffffffffffffffffffffffffffffffffffffffff168173ffffffffffffffffffffffffffffffffffffffff167f8be0079c531659141344cd1fd0a4f28419497f9722a3daafe3b4186f6b6457e060405160405180910390a35050565b61543480620001366000396000f3fe608060405234801561001057600080fd5b50600436106101f05760003560e01c80637669d48b1161010f578063b837c9d4116100a2578063ddb58c7711610071578063ddb58c77146105a3578063e389944e146105c1578063f2fde38b146105df578063fd674145146105fb576101f0565b8063b837c9d414610519578063bf989b6e1461054b578063d546184614610567578063d8e0649c14610585576101f0565b806392849377116100de5780639284937714610491578063a63b5225146104ad578063ac486485146104dd578063b37fd26c146104fb576101f0565b80637669d48b146104095780638da5cb5b146104395780638fbf1e1b146104575780639261719114610475576101f0565b80634336450c11610187578063607af39711610156578063607af397146103a55780636597d68f146103c357806370587a1a146103e1578063715018a6146103ff576101f0565b80634336450c1461031b57806346df22da1461034b5780634c6bcfde146103695780635c975abb14610387576101f0565b8063327d1a4d116101c3578063327d1a4d1461029157806338c3f58e146102c15780633cd1287a146102df5780633e4ed547146102fd576101f0565b80630e1d30cc146101f5578063150b7a02146102135780632cc9dfd1146102435780632e0a1ce414610273575b600080fd5b6101fd61062d565b60405161020a9190614cca565b60405180910390f35b61022d60048036038101906102289190614206565b610643565b60405161023a9190614a09565b60405180910390f35b61025d6004803603810190610258919061439d565b6106c6565b60405161026a9190614c0b565b60405180910390f35b61027b6106e7565b6040516102889190614c0b565b60405180910390f35b6102ab60048036038101906102a6919061439d565b6106ec565b6040516102b89190614bf0565b60405180910390f35b6102c9610c7b565b6040516102d69190614caf565b60405180910390f35b6102e7610cb3565b6040516102f49190614bf0565b60405180910390f35b610305610cbf565b6040516103129190614bf0565b60405180910390f35b6103356004803603810190610330919061439d565b610ce1565b6040516103429190614c0b565b60405180910390f35b610353610d02565b6040516103609190614a75565b60405180910390f35b610371610d28565b60405161037e9190614a24565b60405180910390f35b61038f610d4e565b60405161039c91906149ee565b60405180910390f35b6103ad610d65565b6040516103ba9190614ce5565b60405180910390f35b6103cb610d7d565b6040516103d89190614a5a565b60405180910390f35b6103e9610da3565b6040516103f69190614c0b565b60405180910390f35b610407610db7565b005b610423600480360381019061041e919061443e565b610e3f565b6040516104309190614929565b60405180910390f35b610441610fdb565b60405161044e9190614929565b60405180910390f35b61045f611004565b60405161046c9190614bf0565b60405180910390f35b61048f600480360381019061048a91906142de565b611014565b005b6104ab60048036038101906104a69190614286565b6113d8565b005b6104c760048036038101906104c291906143c6565b611ab1565b6040516104d49190614bf0565b60405180910390f35b6104e5611e96565b6040516104f29190614bf0565b60405180910390f35b610503611eb8565b6040516105109190614cca565b60405180910390f35b610533600480360381019061052e9190614402565b611ece565b60405161054293929190614c41565b60405180910390f35b610565600480360381019061056091906141a3565b611f5f565b005b61056f6120e5565b60405161057c9190614a3f565b60405180910390f35b61058d61210b565b60405161059a9190614d00565b60405180910390f35b6105ab612110565b6040516105b89190614ce5565b60405180910390f35b6105c9612117565b6040516105d69190614bf0565b60405180910390f35b6105f960048036038101906105f49190614151565b612139565b005b61061560048036038101906106109190614402565b612231565b60405161062493929190614c78565b60405180910390f35b600360149054906101000a900463ffffffff1681565b60008073ffffffffffffffffffffffffffffffffffffffff168573ffffffffffffffffffffffffffffffffffffffff16146106b3576040517f08c379a00000000000000000000000000000000000000000000000000000000081526004016106aa90614bb0565b60405180910390fd5b63150b7a0260e01b905095945050505050565b600c6020528060005260406000206000915054906101000a900461ffff1681565b600881565b6000600660009054906101000a900473ffffffffffffffffffffffffffffffffffffffff1673ffffffffffffffffffffffffffffffffffffffff1663483be8cb836040518263ffffffff1660e01b81526004016107499190614c26565b60206040518083038186803b15801561076157600080fd5b505afa158015610775573d6000803e3d6000fd5b505050506040513d601f19601f82011682018060405250810190610799919061434a565b15610aca576000600660009054906101000a900473ffffffffffffffffffffffffffffffffffffffff1673ffffffffffffffffffffffffffffffffffffffff166343e55e30846040518263ffffffff1660e01b81526004016107fb9190614c0b565b6101206040518083038186803b15801561081457600080fd5b505afa158015610828573d6000803e3d6000fd5b505050506040513d601f19601f8201168201806040525081019061084c9190614373565b610100015160ff1690506000600960008361ffff1661ffff168152602001908152602001600020600a60008661ffff1661ffff16815260200190815260200160002060009054906101000a900461ffff1661ffff16815481106108d8577f4e487b7100000000000000000000000000000000000000000000000000000000600052603260045260246000fd5b906000526020600020016040518060600160405290816000820160009054906101000a900461ffff1661ffff1661ffff1681526020016000820160029054906101000a900465ffffffffffff1665ffffffffffff1665ffffffffffff1681526020016000820160089054906101000a900473ffffffffffffffffffffffffffffffffffffffff1673ffffffffffffffffffffffffffffffffffffffff1673ffffffffffffffffffffffffffffffffffffffff1681525050905060004290506b033b2e3c9fd0803ce80000006fffffffffffffffffffffffffffffffff16600260019054906101000a90046fffffffffffffffffffffffffffffffff166fffffffffffffffffffffffffffffffff161015610a32576109f68584611ab1565b67019b319729e47684836020015183610a0f9190615021565b65ffffffffffff16610a219190614ead565b610a2b9190614d6e565b9350610ac2565b600460109054906101000a900465ffffffffffff1665ffffffffffff16826020015165ffffffffffff161115610a6b5760009350610ac1565b610a758584611ab1565b67019b319729e476848360200151600460109054906101000a900465ffffffffffff16610aa29190615021565b65ffffffffffff16610ab49190614ead565b610abe9190614d6e565b93505b5b505050610c76565b6000610ad5836122b4565b90506000600b60008361ffff1661ffff168152602001908152602001600020600c60008661ffff1661ffff16815260200190815260200160002060009054906101000a900461ffff1661ffff1681548110610b59577f4e487b7100000000000000000000000000000000000000000000000000000000600052603260045260246000fd5b90600052602060002090600202016040518060600160405290816000820160009054906101000a900461ffff1661ffff1661ffff1681526020016000820160029054906101000a90046fffffffffffffffffffffffffffffffff166fffffffffffffffffffffffffffffffff166fffffffffffffffffffffffffffffffff1681526020016001820160009054906101000a900473ffffffffffffffffffffffffffffffffffffffff1673ffffffffffffffffffffffffffffffffffffffff1673ffffffffffffffffffffffffffffffffffffffff168152505090508060200151600460009054906101000a90046fffffffffffffffffffffffffffffffff16610c629190614f51565b8261ffff16610c719190614ead565b925050505b919050565b6000600260019054906101000a90046fffffffffffffffffffffffffffffffff166fffffffffffffffffffffffffffffffff16905090565b67019b319729e4768481565b600360009054906101000a90046fffffffffffffffffffffffffffffffff1681565b600a6020528060005260406000206000915054906101000a900461ffff1681565b600860009054906101000a900473ffffffffffffffffffffffffffffffffffffffff1681565b600560009054906101000a900473ffffffffffffffffffffffffffffffffffffffff1681565b6000600260009054906101000a900460ff16905090565b600460109054906101000a900465ffffffffffff1681565b600660009054906101000a900473ffffffffffffffffffffffffffffffffffffffff1681565b600360189054906101000a900461ffff1681565b610dbf61237d565b73ffffffffffffffffffffffffffffffffffffffff16610ddd610fdb565b73ffffffffffffffffffffffffffffffffffffffff1614610e33576040517f08c379a0000000000000000000000000000000000000000000000000000000008152600401610e2a90614b30565b60405180910390fd5b610e3d6000612385565b565b600080600360189054906101000a900461ffff1661ffff161415610e665760009050610fd6565b6000600360189054906101000a900461ffff1661ffff1663ffffffff8416610e8e91906152b3565b90506000602084901c9350600060036008610ea99190614f85565b90505b600861ffff168161ffff1611610fce578061ffff16600b60008361ffff1661ffff16815260200190815260200160002080549050610eea9190614ef7565b82610ef59190614dec565b9150818310610f0357610fbb565b600b60008261ffff1661ffff168152602001908152602001600020600b60008361ffff1661ffff1681526020019081526020016000208054905086610f4891906152b3565b81548110610f7f577f4e487b7100000000000000000000000000000000000000000000000000000000600052603260045260246000fd5b906000526020600020906002020160010160009054906101000a900473ffffffffffffffffffffffffffffffffffffffff169350505050610fd6565b8080610fc690615214565b915050610eac565b506000925050505b919050565b60008060009054906101000a900473ffffffffffffffffffffffffffffffffffffffff16905090565b6b033b2e3c9fd0803ce800000081565b61101c610d4e565b1561105c576040517f08c379a000000000000000000000000000000000000000000000000000000000815260040161105390614af0565b60405180910390fd5b600260015414156110a2576040517f08c379a000000000000000000000000000000000000000000000000000000000815260040161109990614bd0565b60405180910390fd5b60026001819055503373ffffffffffffffffffffffffffffffffffffffff163273ffffffffffffffffffffffffffffffffffffffff1614611118576040517f08c379a000000000000000000000000000000000000000000000000000000000815260040161110f90614ad0565b60405180910390fd5b60008042905060005b868690508160ff16101561131e576000600660009054906101000a900473ffffffffffffffffffffffffffffffffffffffff1673ffffffffffffffffffffffffffffffffffffffff1663483be8cb89898560ff168181106111ab577f4e487b7100000000000000000000000000000000000000000000000000000000600052603260045260246000fd5b90506020020160208101906111c0919061439d565b6040518263ffffffff1660e01b81526004016111dc9190614c26565b60206040518083038186803b1580156111f457600080fd5b505afa158015611208573d6000803e3d6000fd5b505050506040513d601f19601f8201168201806040525081019061122c919061434a565b905080156112a25761129088888460ff16818110611273577f4e487b7100000000000000000000000000000000000000000000000000000000600052603260045260246000fd5b9050602002016020810190611288919061439d565b878588612449565b8461129b9190614d6e565b935061130a565b6112fc88888460ff168181106112e1577f4e487b7100000000000000000000000000000000000000000000000000000000600052603260045260246000fd5b90506020020160208101906112f6919061439d565b87612f12565b846113079190614d6e565b93505b5080806113169061523f565b915050611121565b506000826fffffffffffffffffffffffffffffffff16146113c957600560009054906101000a900473ffffffffffffffffffffffffffffffffffffffff1673ffffffffffffffffffffffffffffffffffffffff166340c10f1933846040518363ffffffff1660e01b81526004016113969291906149c5565b600060405180830381600087803b1580156113b057600080fd5b505af11580156113c4573d6000803e3d6000fd5b505050505b50506001808190555050505050565b6113e0610d4e565b15611420576040517f08c379a000000000000000000000000000000000000000000000000000000000815260040161141790614af0565b60405180910390fd5b60026001541415611466576040517f08c379a000000000000000000000000000000000000000000000000000000000815260040161145d90614bd0565b60405180910390fd5b600260018190555061147661237d565b73ffffffffffffffffffffffffffffffffffffffff163273ffffffffffffffffffffffffffffffffffffffff1614806115035750600760009054906101000a900473ffffffffffffffffffffffffffffffffffffffff1673ffffffffffffffffffffffffffffffffffffffff166114eb61237d565b73ffffffffffffffffffffffffffffffffffffffff16145b611542576040517f08c379a000000000000000000000000000000000000000000000000000000000815260040161153990614b70565b60405180910390fd5b3273ffffffffffffffffffffffffffffffffffffffff168373ffffffffffffffffffffffffffffffffffffffff16146115b0576040517f08c379a00000000000000000000000000000000000000000000000000000000081526004016115a790614b50565b60405180910390fd5b60005b828290508161ffff161015611aa457600083838361ffff16818110611601577f4e487b7100000000000000000000000000000000000000000000000000000000600052603260045260246000fd5b9050602002016020810190611616919061439d565b61ffff16141561162557611a91565b6000600660009054906101000a900473ffffffffffffffffffffffffffffffffffffffff1673ffffffffffffffffffffffffffffffffffffffff1663483be8cb85858561ffff168181106116a2577f4e487b7100000000000000000000000000000000000000000000000000000000600052603260045260246000fd5b90506020020160208101906116b7919061439d565b6040518263ffffffff1660e01b81526004016116d39190614c26565b60206040518083038186803b1580156116eb57600080fd5b505afa1580156116ff573d6000803e3d6000fd5b505050506040513d601f19601f82011682018060405250810190611723919061434a565b9050801561178b576117868585858561ffff1681811061176c577f4e487b7100000000000000000000000000000000000000000000000000000000600052603260045260246000fd5b9050602002016020810190611781919061439d565b6138f9565b6117e7565b6117e68585858561ffff168181106117cc577f4e487b7100000000000000000000000000000000000000000000000000000000600052603260045260246000fd5b90506020020160208101906117e1919061439d565b613b5e565b5b600760009054906101000a900473ffffffffffffffffffffffffffffffffffffffff1673ffffffffffffffffffffffffffffffffffffffff1661182861237d565b73ffffffffffffffffffffffffffffffffffffffff1614611a8f573373ffffffffffffffffffffffffffffffffffffffff16600660009054906101000a900473ffffffffffffffffffffffffffffffffffffffff1673ffffffffffffffffffffffffffffffffffffffff16636352211e86868661ffff168181106118d5577f4e487b7100000000000000000000000000000000000000000000000000000000600052603260045260246000fd5b90506020020160208101906118ea919061439d565b6040518263ffffffff1660e01b81526004016119069190614c26565b60206040518083038186803b15801561191e57600080fd5b505afa158015611932573d6000803e3d6000fd5b505050506040513d601f19601f82011682018060405250810190611956919061417a565b73ffffffffffffffffffffffffffffffffffffffff16146119ac576040517f08c379a00000000000000000000000000000000000000000000000000000000081526004016119a390614b90565b60405180910390fd5b600660009054906101000a900473ffffffffffffffffffffffffffffffffffffffff1673ffffffffffffffffffffffffffffffffffffffff166323b872dd333087878761ffff16818110611a29577f4e487b7100000000000000000000000000000000000000000000000000000000600052603260045260246000fd5b9050602002016020810190611a3e919061439d565b6040518463ffffffff1660e01b8152600401611a5c93929190614944565b600060405180830381600087803b158015611a7657600080fd5b505af1158015611a8a573d6000803e3d6000fd5b505050505b505b8080611a9c90615214565b9150506115b3565b5060018081905550505050565b600080600660009054906101000a900473ffffffffffffffffffffffffffffffffffffffff1673ffffffffffffffffffffffffffffffffffffffff1663483be8cb856040518263ffffffff1660e01b8152600401611b0f9190614c26565b60206040518083038186803b158015611b2757600080fd5b505afa158015611b3b573d6000803e3d6000fd5b505050506040513d601f19601f82011682018060405250810190611b5f919061434a565b15611e8a576000600660009054906101000a900473ffffffffffffffffffffffffffffffffffffffff1673ffffffffffffffffffffffffffffffffffffffff166343e55e30866040518263ffffffff1660e01b8152600401611bc19190614c0b565b6101206040518083038186803b158015611bda57600080fd5b505afa158015611bee573d6000803e3d6000fd5b505050506040513d601f19601f82011682018060405250810190611c129190614373565b610100015160ff161415611c295760009050611cf4565b6001600660009054906101000a900473ffffffffffffffffffffffffffffffffffffffff1673ffffffffffffffffffffffffffffffffffffffff166343e55e30866040518263ffffffff1660e01b8152600401611c869190614c0b565b6101206040518083038186803b158015611c9f57600080fd5b505afa158015611cb3573d6000803e3d6000fd5b505050506040513d601f19601f82011682018060405250810190611cd79190614373565b610100015160ff161415611cee57600c9050611cf3565b601e90505b5b6000600960008561ffff1661ffff168152602001908152602001600020600a60008761ffff1661ffff16815260200190815260200160002060009054906101000a900461ffff1661ffff1681548110611d76577f4e487b7100000000000000000000000000000000000000000000000000000000600052603260045260246000fd5b906000526020600020016040518060600160405290816000820160009054906101000a900461ffff1661ffff1661ffff1681526020016000820160029054906101000a900465ffffffffffff1665ffffffffffff1665ffffffffffff1681526020016000820160089054906101000a900473ffffffffffffffffffffffffffffffffffffffff1673ffffffffffffffffffffffffffffffffffffffff1673ffffffffffffffffffffffffffffffffffffffff16815250509050600042905060008361ffff16606467019b319729e47684856020015185611e569190615021565b65ffffffffffff16611e689190614ead565b611e729190614e7c565b611e7c9190614ead565b905080945050505050611e90565b60009150505b92915050565b600460009054906101000a90046fffffffffffffffffffffffffffffffff1681565b600360109054906101000a900463ffffffff1681565b600b6020528160005260406000208181548110611eea57600080fd5b9060005260206000209060020201600091509150508060000160009054906101000a900461ffff16908060000160029054906101000a90046fffffffffffffffffffffffffffffffff16908060010160009054906101000a900473ffffffffffffffffffffffffffffffffffffffff16905083565b611f6761237d565b73ffffffffffffffffffffffffffffffffffffffff16611f85610fdb565b73ffffffffffffffffffffffffffffffffffffffff1614611fdb576040517f08c379a0000000000000000000000000000000000000000000000000000000008152600401611fd290614b30565b60405180910390fd5b83600560006101000a81548173ffffffffffffffffffffffffffffffffffffffff021916908373ffffffffffffffffffffffffffffffffffffffff16021790555082600660006101000a81548173ffffffffffffffffffffffffffffffffffffffff021916908373ffffffffffffffffffffffffffffffffffffffff16021790555081600860006101000a81548173ffffffffffffffffffffffffffffffffffffffff021916908373ffffffffffffffffffffffffffffffffffffffff16021790555080600760006101000a81548173ffffffffffffffffffffffffffffffffffffffff021916908373ffffffffffffffffffffffffffffffffffffffff16021790555050505050565b600760009054906101000a900473ffffffffffffffffffffffffffffffffffffffff1681565b601981565b6202a30081565b600260019054906101000a90046fffffffffffffffffffffffffffffffff1681565b61214161237d565b73ffffffffffffffffffffffffffffffffffffffff1661215f610fdb565b73ffffffffffffffffffffffffffffffffffffffff16146121b5576040517f08c379a00000000000000000000000000000000000000000000000000000000081526004016121ac90614b30565b60405180910390fd5b600073ffffffffffffffffffffffffffffffffffffffff168173ffffffffffffffffffffffffffffffffffffffff161415612225576040517f08c379a000000000000000000000000000000000000000000000000000000000815260040161221c90614ab0565b60405180910390fd5b61222e81612385565b50565b6009602052816000526040600020818154811061224d57600080fd5b90600052602060002001600091509150508060000160009054906101000a900461ffff16908060000160029054906101000a900465ffffffffffff16908060000160089054906101000a900473ffffffffffffffffffffffffffffffffffffffff16905083565b6000600660009054906101000a900473ffffffffffffffffffffffffffffffffffffffff1673ffffffffffffffffffffffffffffffffffffffff166343e55e30836040518263ffffffff1660e01b81526004016123119190614c0b565b6101206040518083038186803b15801561232a57600080fd5b505afa15801561233e573d6000803e3d6000fd5b505050506040513d601f19601f820116820180604052508101906123629190614373565b610100015160ff1660086123769190614f85565b9050919050565b600033905090565b60008060009054906101000a900473ffffffffffffffffffffffffffffffffffffffff169050816000806101000a81548173ffffffffffffffffffffffffffffffffffffffff021916908373ffffffffffffffffffffffffffffffffffffffff1602179055508173ffffffffffffffffffffffffffffffffffffffff168173ffffffffffffffffffffffffffffffffffffffff167f8be0079c531659141344cd1fd0a4f28419497f9722a3daafe3b4186f6b6457e060405160405180910390a35050565b600080600660009054906101000a900473ffffffffffffffffffffffffffffffffffffffff1673ffffffffffffffffffffffffffffffffffffffff166343e55e30876040518263ffffffff1660e01b81526004016124a79190614c0b565b6101206040518083038186803b1580156124c057600080fd5b505afa1580156124d4573d6000803e3d6000fd5b505050506040513d601f19601f820116820180604052508101906124f89190614373565b610100015160ff1690506000600960008361ffff1661ffff168152602001908152602001600020600a60008961ffff1661ffff16815260200190815260200160002060009054906101000a900461ffff1661ffff1681548110612584577f4e487b7100000000000000000000000000000000000000000000000000000000600052603260045260246000fd5b906000526020600020016040518060600160405290816000820160009054906101000a900461ffff1661ffff1661ffff1681526020016000820160029054906101000a900465ffffffffffff1665ffffffffffff1665ffffffffffff1681526020016000820160089054906101000a900473ffffffffffffffffffffffffffffffffffffffff1673ffffffffffffffffffffffffffffffffffffffff1673ffffffffffffffffffffffffffffffffffffffff1681525050905061264561237d565b73ffffffffffffffffffffffffffffffffffffffff16816040015173ffffffffffffffffffffffffffffffffffffffff16146126b6576040517f08c379a00000000000000000000000000000000000000000000000000000000081526004016126ad90614a90565b60405180910390fd5b60006126c28884611ab1565b90506b033b2e3c9fd0803ce80000006fffffffffffffffffffffffffffffffff16600260019054906101000a90046fffffffffffffffffffffffffffffffff166fffffffffffffffffffffffffffffffff1610156127ba578067019b319729e476848360200151886127349190615021565b65ffffffffffff166127469190614ead565b6127509190614d6e565b935083600260018282829054906101000a90046fffffffffffffffffffffffffffffffff1661277f9190614d6e565b92506101000a8154816fffffffffffffffffffffffffffffffff02191690836fffffffffffffffffffffffffffffffff16021790555061289a565b600460109054906101000a900465ffffffffffff1665ffffffffffff16826020015165ffffffffffff1611612899578067019b319729e476848360200151600460109054906101000a900465ffffffffffff166128179190615021565b65ffffffffffff166128299190614ead565b6128339190614d6e565b935083600260018282829054906101000a90046fffffffffffffffffffffffffffffffff166128629190614d6e565b92506101000a8154816fffffffffffffffffffffffffffffffff02191690836fffffffffffffffffffffffffffffffff1602179055505b5b8615612d53576000600960008561ffff1661ffff1681526020019081526020016000206001600960008761ffff1661ffff168152602001908152602001600020805490506128e89190614fb9565b8154811061291f577f4e487b7100000000000000000000000000000000000000000000000000000000600052603260045260246000fd5b906000526020600020016040518060600160405290816000820160009054906101000a900461ffff1661ffff1661ffff1681526020016000820160029054906101000a900465ffffffffffff1665ffffffffffff1665ffffffffffff1681526020016000820160089054906101000a900473ffffffffffffffffffffffffffffffffffffffff1673ffffffffffffffffffffffffffffffffffffffff1673ffffffffffffffffffffffffffffffffffffffff1681525050905080600960008661ffff1661ffff168152602001908152602001600020600a60008c61ffff1661ffff16815260200190815260200160002060009054906101000a900461ffff1661ffff1681548110612a59577f4e487b7100000000000000000000000000000000000000000000000000000000600052603260045260246000fd5b9060005260206000200160008201518160000160006101000a81548161ffff021916908361ffff16021790555060208201518160000160026101000a81548165ffffffffffff021916908365ffffffffffff16021790555060408201518160000160086101000a81548173ffffffffffffffffffffffffffffffffffffffff021916908373ffffffffffffffffffffffffffffffffffffffff160217905550905050600a60008a61ffff1661ffff16815260200190815260200160002060009054906101000a900461ffff16600a6000836000015161ffff1661ffff16815260200190815260200160002060006101000a81548161ffff021916908361ffff160217905550600960008561ffff1661ffff168152602001908152602001600020805480612baf577f4e487b7100000000000000000000000000000000000000000000000000000000600052603160045260246000fd5b60019003818190600052602060002001600080820160006101000a81549061ffff02191690556000820160026101000a81549065ffffffffffff02191690556000820160086101000a81549073ffffffffffffffffffffffffffffffffffffffff021916905550509055600a60008a61ffff1661ffff16815260200190815260200160002060006101000a81549061ffff0219169055612c53868a61ffff16613d91565b95506000600260f588901c612c6891906152b3565b1415612c7c57612c7785613dda565b600094505b6001600360108282829054906101000a900463ffffffff16612c9e9190614fed565b92506101000a81548163ffffffff021916908363ffffffff160217905550600660009054906101000a900473ffffffffffffffffffffffffffffffffffffffff1673ffffffffffffffffffffffffffffffffffffffff1663b88d4fde30338c6040518463ffffffff1660e01b8152600401612d1b9392919061497b565b600060405180830381600087803b158015612d3557600080fd5b505af1158015612d49573d6000803e3d6000fd5b5050505050612f07565b60006064601960ff1686612d679190614ead565b612d719190614e7c565b9050612d7c81613dda565b606460196064612d8c9190615055565b60ff1686612d9a9190614ead565b612da49190614e7c565b945060405180606001604052808a61ffff1681526020018865ffffffffffff1681526020013373ffffffffffffffffffffffffffffffffffffffff16815250600960008661ffff1661ffff168152602001908152602001600020600a60008c61ffff1661ffff16815260200190815260200160002060009054906101000a900461ffff1661ffff1681548110612e63577f4e487b7100000000000000000000000000000000000000000000000000000000600052603260045260246000fd5b9060005260206000200160008201518160000160006101000a81548161ffff021916908361ffff16021790555060208201518160000160026101000a81548165ffffffffffff021916908365ffffffffffff16021790555060408201518160000160086101000a81548173ffffffffffffffffffffffffffffffffffffffff021916908373ffffffffffffffffffffffffffffffffffffffff160217905550905050505b505050949350505050565b60003073ffffffffffffffffffffffffffffffffffffffff16600660009054906101000a900473ffffffffffffffffffffffffffffffffffffffff1673ffffffffffffffffffffffffffffffffffffffff16636352211e856040518263ffffffff1660e01b8152600401612f869190614c26565b60206040518083038186803b158015612f9e57600080fd5b505afa158015612fb2573d6000803e3d6000fd5b505050506040513d601f19601f82011682018060405250810190612fd6919061417a565b73ffffffffffffffffffffffffffffffffffffffff161461302c576040517f08c379a000000000000000000000000000000000000000000000000000000000815260040161302390614b10565b60405180910390fd5b6000613037846122b4565b90506000600b60008361ffff1661ffff168152602001908152602001600020600c60008761ffff1661ffff16815260200190815260200160002060009054906101000a900461ffff1661ffff16815481106130bb577f4e487b7100000000000000000000000000000000000000000000000000000000600052603260045260246000fd5b90600052602060002090600202016040518060600160405290816000820160009054906101000a900461ffff1661ffff1661ffff1681526020016000820160029054906101000a90046fffffffffffffffffffffffffffffffff166fffffffffffffffffffffffffffffffff166fffffffffffffffffffffffffffffffff1681526020016001820160009054906101000a900473ffffffffffffffffffffffffffffffffffffffff1673ffffffffffffffffffffffffffffffffffffffff1673ffffffffffffffffffffffffffffffffffffffff1681525050905061319e61237d565b73ffffffffffffffffffffffffffffffffffffffff16816040015173ffffffffffffffffffffffffffffffffffffffff161461320f576040517f08c379a000000000000000000000000000000000000000000000000000000000815260040161320690614a90565b60405180910390fd5b8060200151600460009054906101000a90046fffffffffffffffffffffffffffffffff1661323d9190614f51565b8261ffff1661324c9190614ead565b925083156137515781600360188282829054906101000a900461ffff166132739190614f85565b92506101000a81548161ffff021916908361ffff1602179055506000600b60008461ffff1661ffff1681526020019081526020016000206001600b60008661ffff1661ffff168152602001908152602001600020805490506132d59190614fb9565b8154811061330c577f4e487b7100000000000000000000000000000000000000000000000000000000600052603260045260246000fd5b90600052602060002090600202016040518060600160405290816000820160009054906101000a900461ffff1661ffff1661ffff1681526020016000820160029054906101000a90046fffffffffffffffffffffffffffffffff166fffffffffffffffffffffffffffffffff166fffffffffffffffffffffffffffffffff1681526020016001820160009054906101000a900473ffffffffffffffffffffffffffffffffffffffff1673ffffffffffffffffffffffffffffffffffffffff1673ffffffffffffffffffffffffffffffffffffffff1681525050905080600b60008561ffff1661ffff168152602001908152602001600020600c60008961ffff1661ffff16815260200190815260200160002060009054906101000a900461ffff1661ffff1681548110613468577f4e487b7100000000000000000000000000000000000000000000000000000000600052603260045260246000fd5b906000526020600020906002020160008201518160000160006101000a81548161ffff021916908361ffff16021790555060208201518160000160026101000a8154816fffffffffffffffffffffffffffffffff02191690836fffffffffffffffffffffffffffffffff16021790555060408201518160010160006101000a81548173ffffffffffffffffffffffffffffffffffffffff021916908373ffffffffffffffffffffffffffffffffffffffff160217905550905050600c60008761ffff1661ffff16815260200190815260200160002060009054906101000a900461ffff16600c6000836000015161ffff1661ffff16815260200190815260200160002060006101000a81548161ffff021916908361ffff160217905550600b60008461ffff1661ffff1681526020019081526020016000208054806135d6577f4e487b7100000000000000000000000000000000000000000000000000000000600052603160045260246000fd5b6001900381819060005260206000209060020201600080820160006101000a81549061ffff02191690556000820160026101000a8154906fffffffffffffffffffffffffffffffff02191690556001820160006101000a81549073ffffffffffffffffffffffffffffffffffffffff021916905550509055600c60008761ffff1661ffff16815260200190815260200160002060006101000a81549061ffff02191690556001600360148282829054906101000a900463ffffffff1661369c9190614fed565b92506101000a81548163ffffffff021916908363ffffffff160217905550600660009054906101000a900473ffffffffffffffffffffffffffffffffffffffff1673ffffffffffffffffffffffffffffffffffffffff1663b88d4fde3033896040518463ffffffff1660e01b81526004016137199392919061497b565b600060405180830381600087803b15801561373357600080fd5b505af1158015613747573d6000803e3d6000fd5b50505050506138f1565b60405180606001604052808661ffff168152602001600460009054906101000a90046fffffffffffffffffffffffffffffffff166fffffffffffffffffffffffffffffffff1681526020013373ffffffffffffffffffffffffffffffffffffffff16815250600b60008461ffff1661ffff168152602001908152602001600020600c60008861ffff1661ffff16815260200190815260200160002060009054906101000a900461ffff1661ffff1681548110613836577f4e487b7100000000000000000000000000000000000000000000000000000000600052603260045260246000fd5b906000526020600020906002020160008201518160000160006101000a81548161ffff021916908361ffff16021790555060208201518160000160026101000a8154816fffffffffffffffffffffffffffffffff02191690836fffffffffffffffffffffffffffffffff16021790555060408201518160010160006101000a81548173ffffffffffffffffffffffffffffffffffffffff021916908373ffffffffffffffffffffffffffffffffffffffff1602179055509050505b505092915050565b6000600660009054906101000a900473ffffffffffffffffffffffffffffffffffffffff1673ffffffffffffffffffffffffffffffffffffffff166343e55e30836040518263ffffffff1660e01b81526004016139569190614c0b565b6101206040518083038186803b15801561396f57600080fd5b505afa158015613983573d6000803e3d6000fd5b505050506040513d601f19601f820116820180604052508101906139a79190614373565b610100015160ff169050600960008261ffff1661ffff16815260200190815260200160002080549050600a60008461ffff1661ffff16815260200190815260200160002060006101000a81548161ffff021916908361ffff160217905550600960008261ffff1661ffff16815260200190815260200160002060405180606001604052808461ffff1681526020014265ffffffffffff1681526020018573ffffffffffffffffffffffffffffffffffffffff168152509080600181540180825580915050600190039060005260206000200160009091909190915060008201518160000160006101000a81548161ffff021916908361ffff16021790555060208201518160000160026101000a81548165ffffffffffff021916908365ffffffffffff16021790555060408201518160000160086101000a81548173ffffffffffffffffffffffffffffffffffffffff021916908373ffffffffffffffffffffffffffffffffffffffff16021790555050506001600360108282829054906101000a900463ffffffff16613b3b9190614e42565b92506101000a81548163ffffffff021916908363ffffffff160217905550505050565b6000613b69826122b4565b905080600360188282829054906101000a900461ffff16613b8a9190614db4565b92506101000a81548161ffff021916908361ffff160217905550600b60008261ffff1661ffff16815260200190815260200160002080549050600c60008461ffff1661ffff16815260200190815260200160002060006101000a81548161ffff021916908361ffff160217905550600b60008261ffff1661ffff16815260200190815260200160002060405180606001604052808461ffff168152602001600460009054906101000a90046fffffffffffffffffffffffffffffffff166fffffffffffffffffffffffffffffffff1681526020018573ffffffffffffffffffffffffffffffffffffffff16815250908060018154018082558091505060019003906000526020600020906002020160009091909190915060008201518160000160006101000a81548161ffff021916908361ffff16021790555060208201518160000160026101000a8154816fffffffffffffffffffffffffffffffff02191690836fffffffffffffffffffffffffffffffff16021790555060408201518160010160006101000a81548173ffffffffffffffffffffffffffffffffffffffff021916908373ffffffffffffffffffffffffffffffffffffffff16021790555050506001600360148282829054906101000a900463ffffffff16613d6e9190614e42565b92506101000a81548163ffffffff021916908363ffffffff160217905550505050565b60008232600143613da29190614fb9565b404285604051602001613db99594939291906148ca565b6040516020818303038152906040528051906020012060001c905092915050565b60008190506000600360189054906101000a900461ffff1661ffff161415613e645780600360008282829054906101000a90046fffffffffffffffffffffffffffffffff16613e299190614d6e565b92506101000a8154816fffffffffffffffffffffffffffffffff02191690836fffffffffffffffffffffffffffffffff160217905550613f4a565b600360189054906101000a900461ffff1661ffff16600360009054906101000a90046fffffffffffffffffffffffffffffffff1682613ea39190614d6e565b613ead9190614e7c565b600460008282829054906101000a90046fffffffffffffffffffffffffffffffff16613ed99190614d6e565b92506101000a8154816fffffffffffffffffffffffffffffffff02191690836fffffffffffffffffffffffffffffffff1602179055506000600360006101000a8154816fffffffffffffffffffffffffffffffff02191690836fffffffffffffffffffffffffffffffff1602179055505b5050565b600081359050613f5d8161538b565b92915050565b600081519050613f728161538b565b92915050565b60008083601f840112613f8a57600080fd5b8235905067ffffffffffffffff811115613fa357600080fd5b602083019150836020820283011115613fbb57600080fd5b9250929050565b600081359050613fd1816153a2565b92915050565b600081519050613fe6816153a2565b92915050565b60008083601f840112613ffe57600080fd5b8235905067ffffffffffffffff81111561401757600080fd5b60208301915083600182028301111561402f57600080fd5b9250929050565b6000610120828403121561404957600080fd5b614054610120614d1b565b9050600061406484828501613fd7565b60008301525060206140788482850161413c565b602083015250604061408c8482850161413c565b60408301525060606140a08482850161413c565b60608301525060806140b48482850161413c565b60808301525060a06140c88482850161413c565b60a08301525060c06140dc8482850161413c565b60c08301525060e06140f08482850161413c565b60e0830152506101006141058482850161413c565b6101008301525092915050565b600081359050614121816153b9565b92915050565b600081359050614136816153d0565b92915050565b60008151905061414b816153e7565b92915050565b60006020828403121561416357600080fd5b600061417184828501613f4e565b91505092915050565b60006020828403121561418c57600080fd5b600061419a84828501613f63565b91505092915050565b600080600080608085870312156141b957600080fd5b60006141c787828801613f4e565b94505060206141d887828801613f4e565b93505060406141e987828801613f4e565b92505060606141fa87828801613f4e565b91505092959194509250565b60008060008060006080868803121561421e57600080fd5b600061422c88828901613f4e565b955050602061423d88828901613f4e565b945050604061424e88828901614127565b935050606086013567ffffffffffffffff81111561426b57600080fd5b61427788828901613fec565b92509250509295509295909350565b60008060006040848603121561429b57600080fd5b60006142a986828701613f4e565b935050602084013567ffffffffffffffff8111156142c657600080fd5b6142d286828701613f78565b92509250509250925092565b600080600080606085870312156142f457600080fd5b600085013567ffffffffffffffff81111561430e57600080fd5b61431a87828801613f78565b9450945050602061432d87828801613fc2565b925050604061433e87828801614127565b91505092959194509250565b60006020828403121561435c57600080fd5b600061436a84828501613fd7565b91505092915050565b6000610120828403121561438657600080fd5b600061439484828501614036565b91505092915050565b6000602082840312156143af57600080fd5b60006143bd84828501614112565b91505092915050565b600080604083850312156143d957600080fd5b60006143e785828601614112565b92505060206143f885828601614112565b9150509250929050565b6000806040838503121561441557600080fd5b600061442385828601614112565b925050602061443485828601614127565b9150509250929050565b60006020828403121561445057600080fd5b600061445e84828501614127565b91505092915050565b61447081615089565b82525050565b61448761448282615089565b615269565b82525050565b6144968161509b565b82525050565b6144ad6144a8826150a7565b61527b565b82525050565b6144bc816150b1565b82525050565b6144cb81615160565b82525050565b6144da81615184565b82525050565b6144e9816151a8565b82525050565b6144f8816151cc565b82525050565b600061450b601d83614d5d565b91507f6f6e6c7920746f6b656e206f776e6572732063616e20756e7374616b650000006000830152602082019050919050565b600061454b602683614d5d565b91507f4f776e61626c653a206e6577206f776e657220697320746865207a65726f206160008301527f64647265737300000000000000000000000000000000000000000000000000006020830152604082019050919050565b60006145b1600883614d5d565b91507f656f73206f6e6c790000000000000000000000000000000000000000000000006000830152602082019050919050565b60006145f1601083614d5d565b91507f5061757361626c653a20706175736564000000000000000000000000000000006000830152602082019050919050565b6000614631601f83614d5d565b91507f6d757374206265207374616b656420746f20636c61696d2072657761726473006000830152602082019050919050565b6000614671602083614d5d565b91507f4f776e61626c653a2063616c6c6572206973206e6f7420746865206f776e65726000830152602082019050919050565b60006146b1601a83614d5d565b91507f6163636f756e7420746f2073656e646572206d69736d617463680000000000006000830152602082019050919050565b60006146f1600083614d4c565b9150600082019050919050565b600061470b602283614d5d565b91507f6e6f7420617070726f76656420746f207374616b652074686520746f6b656e2860008301527f73290000000000000000000000000000000000000000000000000000000000006020830152604082019050919050565b6000614771601b83614d5d565b91507f6f6e6c7920746f6b656e206f776e6572732063616e207374616b6500000000006000830152602082019050919050565b60006147b1601d83614d5d565b91507f6f6e6c7920616c6c6f77206469726563746c792066726f6d206d696e740000006000830152602082019050919050565b60006147f1601f83614d5d565b91507f5265656e7472616e637947756172643a207265656e7472616e742063616c6c006000830152602082019050919050565b61482d816150dd565b82525050565b61483c816151f0565b82525050565b61484b816150f9565b82525050565b61485a81615202565b82525050565b61486981615127565b82525050565b61488061487b82615127565b615297565b82525050565b61488f81615131565b82525050565b6148a66148a182615131565b6152a1565b82525050565b6148b581615141565b82525050565b6148c481615153565b82525050565b60006148d6828861486f565b6020820191506148e68287614476565b6014820191506148f6828661449c565b602082019150614906828561486f565b6020820191506149168284614895565b6004820191508190509695505050505050565b600060208201905061493e6000830184614467565b92915050565b60006060820190506149596000830186614467565b6149666020830185614467565b6149736040830184614851565b949350505050565b60006080820190506149906000830186614467565b61499d6020830185614467565b6149aa6040830184614851565b81810360608301526149bb816146e4565b9050949350505050565b60006040820190506149da6000830185614467565b6149e76020830184614833565b9392505050565b6000602082019050614a03600083018461448d565b92915050565b6000602082019050614a1e60008301846144b3565b92915050565b6000602082019050614a3960008301846144c2565b92915050565b6000602082019050614a5460008301846144d1565b92915050565b6000602082019050614a6f60008301846144e0565b92915050565b6000602082019050614a8a60008301846144ef565b92915050565b60006020820190508181036000830152614aa9816144fe565b9050919050565b60006020820190508181036000830152614ac98161453e565b9050919050565b60006020820190508181036000830152614ae9816145a4565b9050919050565b60006020820190508181036000830152614b09816145e4565b9050919050565b60006020820190508181036000830152614b2981614624565b9050919050565b60006020820190508181036000830152614b4981614664565b9050919050565b60006020820190508181036000830152614b69816146a4565b9050919050565b60006020820190508181036000830152614b89816146fe565b9050919050565b60006020820190508181036000830152614ba981614764565b9050919050565b60006020820190508181036000830152614bc9816147a4565b9050919050565b60006020820190508181036000830152614be9816147e4565b9050919050565b6000602082019050614c056000830184614824565b92915050565b6000602082019050614c206000830184614842565b92915050565b6000602082019050614c3b6000830184614851565b92915050565b6000606082019050614c566000830186614842565b614c636020830185614824565b614c706040830184614467565b949350505050565b6000606082019050614c8d6000830186614842565b614c9a60208301856148ac565b614ca76040830184614467565b949350505050565b6000602082019050614cc46000830184614860565b92915050565b6000602082019050614cdf6000830184614886565b92915050565b6000602082019050614cfa60008301846148ac565b92915050565b6000602082019050614d1560008301846148bb565b92915050565b6000604051905081810181811067ffffffffffffffff82111715614d4257614d41615342565b5b8060405250919050565b600082825260208201905092915050565b600082825260208201905092915050565b6000614d79826150dd565b9150614d84836150dd565b9250826fffffffffffffffffffffffffffffffff03821115614da957614da86152e4565b5b828201905092915050565b6000614dbf826150f9565b9150614dca836150f9565b92508261ffff03821115614de157614de06152e4565b5b828201905092915050565b6000614df782615127565b9150614e0283615127565b9250827fffffffffffffffffffffffffffffffffffffffffffffffffffffffffffffffff03821115614e3757614e366152e4565b5b828201905092915050565b6000614e4d82615131565b9150614e5883615131565b92508263ffffffff03821115614e7157614e706152e4565b5b828201905092915050565b6000614e87826150dd565b9150614e92836150dd565b925082614ea257614ea1615313565b5b828204905092915050565b6000614eb8826150dd565b9150614ec3836150dd565b9250816fffffffffffffffffffffffffffffffff0483118215151615614eec57614eeb6152e4565b5b828202905092915050565b6000614f0282615127565b9150614f0d83615127565b9250817fffffffffffffffffffffffffffffffffffffffffffffffffffffffffffffffff0483118215151615614f4657614f456152e4565b5b828202905092915050565b6000614f5c826150dd565b9150614f67836150dd565b925082821015614f7a57614f796152e4565b5b828203905092915050565b6000614f90826150f9565b9150614f9b836150f9565b925082821015614fae57614fad6152e4565b5b828203905092915050565b6000614fc482615127565b9150614fcf83615127565b925082821015614fe257614fe16152e4565b5b828203905092915050565b6000614ff882615131565b915061500383615131565b925082821015615016576150156152e4565b5b828203905092915050565b600061502c82615141565b915061503783615141565b92508282101561504a576150496152e4565b5b828203905092915050565b600061506082615153565b915061506b83615153565b92508282101561507e5761507d6152e4565b5b828203905092915050565b600061509482615107565b9050919050565b60008115159050919050565b6000819050919050565b60007fffffffff0000000000000000000000000000000000000000000000000000000082169050919050565b60006fffffffffffffffffffffffffffffffff82169050919050565b600061ffff82169050919050565b600073ffffffffffffffffffffffffffffffffffffffff82169050919050565b6000819050919050565b600063ffffffff82169050919050565b600065ffffffffffff82169050919050565b600060ff82169050919050565b600061516b82615172565b9050919050565b600061517d82615107565b9050919050565b600061518f82615196565b9050919050565b60006151a182615107565b9050919050565b60006151b3826151ba565b9050919050565b60006151c582615107565b9050919050565b60006151d7826151de565b9050919050565b60006151e982615107565b9050919050565b60006151fb826150dd565b9050919050565b600061520d826150f9565b9050919050565b600061521f826150f9565b915061ffff821415615234576152336152e4565b5b600182019050919050565b600061524a82615153565b915060ff82141561525e5761525d6152e4565b5b600182019050919050565b600061527482615285565b9050919050565b6000819050919050565b60006152908261537e565b9050919050565b6000819050919050565b60006152ac82615371565b9050919050565b60006152be82615127565b91506152c983615127565b9250826152d9576152d8615313565b5b828206905092915050565b7f4e487b7100000000000000000000000000000000000000000000000000000000600052601160045260246000fd5b7f4e487b7100000000000000000000000000000000000000000000000000000000600052601260045260246000fd5b7f4e487b7100000000000000000000000000000000000000000000000000000000600052604160045260246000fd5b60008160e01b9050919050565b60008160601b9050919050565b61539481615089565b811461539f57600080fd5b50565b6153ab8161509b565b81146153b657600080fd5b50565b6153c2816150f9565b81146153cd57600080fd5b50565b6153d981615127565b81146153e457600080fd5b50565b6153f081615153565b81146153fb57600080fd5b5056fea2646970667358221220cec12a0078f4480a0c0870c17781f9690fe03e22b641d9b6c92d30236fbff30c64736f6c63430008000033",
  "immutableReferences": {},
  "source": "// SPDX-License-Identifier: MIT LICENSE\r\n\r\npragma solidity ^0.8.0;\r\n\r\nimport \"@openzeppelin/contracts/access/Ownable.sol\";\r\nimport \"@openzeppelin/contracts/security/Pausable.sol\";\r\nimport \"@openzeppelin/contracts/token/ERC721/IERC721Receiver.sol\";\r\nimport \"@openzeppelin/contracts/security/ReentrancyGuard.sol\";\r\n\r\nimport \"./Interfaces/IEarlyBirdsGame.sol\";\r\nimport \"./Interfaces/IDirt.sol\";\r\nimport \"./Interfaces/IEarlyBirdsNFT.sol\";\r\nimport \"./Interfaces/IRandomNumberConsumer.sol\";\r\nimport \"./Interfaces/IAncientTree.sol\";\r\n\r\ncontract AncientTree is IAncientTree, IERC721Receiver, Ownable, ReentrancyGuard, Pausable {\r\n\r\n    //maximum amount of $DIRT possible to be earned in act 1\r\n    uint128 public constant MAXIMUM_DIRT = 1000000000 ether;\r\n\r\n    //amount of $DIRT earned so far\r\n    uint128 public totalDirtClaimed; \r\n\r\n    // Collected rewards before any birds staked\r\n    uint128 public unaccountedBirdRewards;\r\n\r\n    // Number of Worm staked\r\n    uint32 public totalWormsStaked;\r\n\r\n    // Number of Birds staked\r\n    uint32 public totalBirdsStaked;\r\n\r\n    // Total size of all birds staked - used for calculating distribution of $DIRT and steals to birds\r\n    uint16 public totalSizeOfBirdsStaked;\r\n\r\n    // Amount of $DIRT due for each size point (5-8) staked\r\n    uint128 public dirtPerSizePoint; \r\n\r\n    // The last time $DIRT was claimed\r\n    uint48 public lastClaimTimestamp;\r\n\r\n    // Worms must have 2 days worth of $DIRT to unstake or else it's too cold\r\n    uint48 public constant WORM_MINIMUM_STAKE_TIME = 2 days;\r\n\r\n    // Worms earn 10000 $DIRT per day\r\n    uint128 public constant WORM_EARNING_RATE = 115740740740740740; // 10000 ether / 1 days;\r\n\r\n    // Worm tax rate when claiming without unstaking\r\n    uint8 public constant WORM_CLAIM_TAX_PERCENTAGE = 25;\r\n\r\n    // Maximum size for birds - bigger birds bring more worms home to their nest and take more dirt\r\n    uint16 public constant MAXIMUM_BIRD_SIZE = 8; \r\n\r\n    //external contracts\r\n    IDirt public dirtContract;\r\n    IEarlyBirdsNFT public earlyBirdsNFT;\r\n    IEarlyBirdsGame public earlyBirdsGame;\r\n    IRandomNumberConsumer public randomNumberConsumer;\r\n\r\n    // Staking maps for both time-based and ad-hoc-earning-based\r\n    struct TimeStake { uint16 tokenId; uint48 time; address owner; }\r\n    struct EarningStake { uint16 tokenId; uint128 earningRate; address owner; } \r\n\r\n\r\n    // Staked worms\r\n    //mapping(uint16 => TimeStake) public wormStakeByToken;\r\n    // mapping of staked worms by strength\r\n    // mapping(uint16 => uint16[]) public wormStakeByStrength;\r\n    // mapping(uint16 => uint16) public wormHierarchy;\r\n    mapping(uint16 => TimeStake[]) public wormStakeByStrength;\r\n    mapping(uint16 => uint16) public wormHierarchy;\r\n\r\n    //Staked birds\r\n    mapping(uint16 => EarningStake[]) public birdStakeBySize; //birds grouped by size\r\n    mapping(uint16 => uint16) public birdHierarchy; // bird location within size group\r\n\r\n    modifier requireContractsSet() {\r\n        require(address(dirtContract) != address(0) && address(earlyBirdsNFT) != address(0) && address(randomNumberConsumer) != address(0)\r\n        && address(earlyBirdsGame) != address(0), \"Contracts not set\");\r\n        _;\r\n    }\r\n    \r\n    function setContracts(address _dirtContract, address _earlyBirdsNFT, address _randomNumberConsumer, address _earlyBirdsGame) external onlyOwner {\r\n        dirtContract = IDirt(_dirtContract);\r\n        earlyBirdsNFT = IEarlyBirdsNFT(_earlyBirdsNFT);\r\n        randomNumberConsumer = IRandomNumberConsumer(_randomNumberConsumer);\r\n        earlyBirdsGame = IEarlyBirdsGame(_earlyBirdsGame);\r\n    }\r\n\r\n    /** STAKING TOKENS */\r\n\r\n  /**\r\n   * Adds Worms and Birds to their Nests and Home\r\n   * @param account the address of the staker\r\n   * @param tokenIds the IDs of the Worm and Birds to stake\r\n   */\r\n    function stakeTokens(address account, uint16[] calldata tokenIds) external override whenNotPaused nonReentrant {\r\n        //require that account = user or NFT contract\r\n        require(tx.origin == _msgSender() || _msgSender() == address(earlyBirdsGame), \"not approved to stake the token(s)\");       \r\n        require(account == tx.origin, \"account to sender mismatch\");\r\n        for (uint16 i = 0; i < tokenIds.length; i++) {\r\n            // ignore gaps for stolen tokens\r\n            if (tokenIds[i] == 0) {\r\n                continue;\r\n            }\r\n            // Add to respective safe homes\r\n            //check if dealing with worm or bird\r\n            bool isWorm = earlyBirdsNFT.isWorm(tokenIds[i]);\r\n            //if it is a worm, stake it with worms.\r\n            if (isWorm) {\r\n                _addWormToSoil(account, tokenIds[i]);\r\n            } \r\n            //stake it with the birds\r\n            else{\r\n                _addBirdToNest(account, tokenIds[i]);\r\n            }\r\n\r\n            // Transfer into safe house\r\n            if (_msgSender() != address(earlyBirdsGame)) { // dont do this step if its a mint + stake\r\n                require(earlyBirdsNFT.ownerOf(tokenIds[i]) == msg.sender, \"only token owners can stake\");\r\n                earlyBirdsNFT.transferFrom(msg.sender, address(this), tokenIds[i]); \r\n            }\r\n        }\r\n    }\r\n\r\n   /**\r\n    * Adds Worm to the Soil!.\r\n    * @param account the address of the staker\r\n    * @param tokenId the ID of the Worm to add to the Soil\r\n    */ \r\n    function _addWormToSoil(address account, uint16 tokenId) internal {\r\n        //update mapping for tokenId with staking struct\r\n        /*\r\n        wormStakeByToken[tokenId] = TimeStake({\r\n            owner: account,\r\n            tokenId: tokenId,\r\n            time: uint48(block.timestamp)\r\n        }); \r\n        */\r\n\r\n        uint16 strength = earlyBirdsNFT.getTraits(tokenId).size;   \r\n        wormHierarchy[tokenId] = uint16(wormStakeByStrength[strength].length);\r\n        wormStakeByStrength[strength].push(TimeStake({\r\n            owner: account,\r\n            tokenId: tokenId,\r\n            time: uint48(block.timestamp)\r\n        }));\r\n        totalWormsStaked += 1;\r\n    }\r\n\r\n   /**\r\n    * Add Bird to the Den.\r\n    * @param account the address of the staker\r\n    * @param tokenId the ID of the Bird to add to the Nest\r\n    */\r\n    function _addBirdToNest(address account, uint16 tokenId) internal {\r\n        //get Size of bird being staked\r\n        uint16 size = _getBirdSize(tokenId);\r\n        totalSizeOfBirdsStaked += size;\r\n        // Store Bird by rating\r\n        birdHierarchy[tokenId] = uint16(birdStakeBySize[size].length);\r\n        // Add bird to their size group\r\n        birdStakeBySize[size].push(EarningStake({\r\n            owner: account,\r\n            tokenId: tokenId,\r\n            earningRate: dirtPerSizePoint\r\n        }));\r\n        totalBirdsStaked += 1;\r\n    }\r\n\r\n    /** UNSTAKING AND CLAIMING REWARDS */\r\n\r\n   /**\r\n    * Realize $DIRT earnings and optionally unstake tokens.\r\n    * @param tokenIds the IDs of the tokens to claim earnings from\r\n    * @param unstake whether or not to unstake ALL of the tokens listed in tokenIds\r\n    * @param seed account seed\r\n    */\r\n    //function claimRewardsAndUnstake(uint16[] calldata tokenIds, bool unstake, bool membership, uint48 expiration, uint256 seed, bytes memory sig) external whenNotPaused nonReentrant _updateEarnings {\r\n    function claimRewardsAndUnstake(uint16[] calldata tokenIds, bool unstake, uint256 seed) external whenNotPaused nonReentrant {\r\n        require(tx.origin == msg.sender, \"eos only\");\r\n\r\n        uint128 reward;\r\n        uint48 time = uint48(block.timestamp);\r\n        for (uint8 i = 0; i < tokenIds.length; i++) {\r\n            bool isWorm = earlyBirdsNFT.isWorm(tokenIds[i]);\r\n            if (isWorm) {\r\n                reward += _claimWormsFromSoil(tokenIds[i], unstake, time, seed);\r\n            } else {\r\n                reward += _claimBirdFromNest(tokenIds[i], unstake);\r\n            } \r\n        }\r\n        if (reward != 0) {\r\n            \r\n            dirtContract.mint(msg.sender, reward);\r\n        }\r\n    }\r\n/** USED FOR TESTING ONLY  */\r\n\r\n    //put this back once done testing with event\r\n    function calculateReward(uint16 tokenId) external view returns (uint128 reward) {\r\n        if(earlyBirdsNFT.isWorm(tokenId)) {\r\n            uint16 strength = earlyBirdsNFT.getTraits(tokenId).size;\r\n            //require(false, \"made it here\");\r\n            TimeStake memory stake = wormStakeByStrength[strength][wormHierarchy[tokenId]];\r\n            \r\n            uint48 time = uint48(block.timestamp);\r\n\r\n            if (totalDirtClaimed < MAXIMUM_DIRT) {\r\n                reward = (time - stake.time) * WORM_EARNING_RATE + _getWormStrengthBonus(tokenId, strength);\r\n                \r\n            } else if (stake.time > lastClaimTimestamp) {\r\n                reward = 0; // $DIRT production stopped already\r\n            } else {\r\n                reward = (lastClaimTimestamp - stake.time) * WORM_EARNING_RATE +  _getWormStrengthBonus(tokenId, strength); // stop earning additional $GP if it's all been earned\r\n            }\r\n            return reward;\r\n        }\r\n        else {           \r\n            uint16 size = _getBirdSize(tokenId);\r\n            EarningStake memory stake = birdStakeBySize[size][birdHierarchy[tokenId]];\r\n\r\n            // Calculate size-based rewards\r\n            reward = (size) * (dirtPerSizePoint - stake.earningRate);\r\n            return reward;\r\n        }\r\n    }\r\n\r\n   /**\r\n    * realize $DIRT earnings for a single Worm and optionally unstake it\r\n    * if not unstaking, pay a 20% tax to the staked Birds\r\n    * if unstaking, there is a 50% chance all $DIRT is stolen\r\n    * @param tokenId the ID of the Worm to claim earnings from\r\n    * @param unstake whether or not to unstake the Worm\r\n    * @param time currnet block time\r\n    * @param seed account seed\r\n    * @return reward - the amount of $DIRT earned\r\n    */\r\n    function _claimWormsFromSoil(uint16 tokenId, bool unstake, uint48 time, uint256 seed) internal returns (uint128 reward) {\r\n        uint16 strength = earlyBirdsNFT.getTraits(tokenId).size;\r\n\r\n        TimeStake memory stake = wormStakeByStrength[strength][wormHierarchy[tokenId]];\r\n        require(stake.owner == _msgSender(), \"only token owners can unstake\");\r\n        //require(!(unstake && block.timestamp - stake.time < WORM_MINIMUM_STAKE_TIME), \"worms need 2 days of dirt\");\r\n        // Calculate time-based rewards\r\n        \r\n        uint128 wormStrengthBonus = _getWormStrengthBonus(tokenId, strength);\r\n        \r\n        if (totalDirtClaimed < MAXIMUM_DIRT) {\r\n            reward = ((time - stake.time) * WORM_EARNING_RATE) + wormStrengthBonus;    \r\n            totalDirtClaimed += reward;\r\n        } else if (stake.time <= lastClaimTimestamp) {\r\n            // stop earning additional $DIRT if the maximum has been earned\r\n            reward = ((lastClaimTimestamp - stake.time) * WORM_EARNING_RATE) + wormStrengthBonus;\r\n            totalDirtClaimed += reward;\r\n        }\r\n        \r\n        // Update reward based on game rules\r\n        if (unstake) {\r\n            //uint16 lastWorm = wormStakeByStrength[strength][wormStakeByStrength[strength].length - 1];\r\n            TimeStake memory lastStake = wormStakeByStrength[strength][wormStakeByStrength[strength].length - 1];\r\n            wormStakeByStrength[strength][wormHierarchy[tokenId]] = lastStake; // Shuffle last Worm to current position\r\n            wormHierarchy[lastStake.tokenId] = wormHierarchy[tokenId];\r\n            wormStakeByStrength[strength].pop(); // Remove duplicate\r\n            delete wormHierarchy[tokenId]; // Delete old mapping\r\n            //getCurrentSeed from RandomNumberConsumer.sol\r\n            //reseed see with some current block info and tokenId.\r\n            seed = _reseedWithTokenId(seed, tokenId);\r\n            // 50% chance that all of $DIRT earned is stolen by a bird\r\n            if (((seed >> 245) % 2) == 0) {\r\n                _payTaxToBirds(reward);\r\n                reward = 0;\r\n            }\r\n            totalWormsStaked -= 1;\r\n            // send back Worm\r\n            earlyBirdsNFT.safeTransferFrom(address(this), msg.sender, tokenId, \"\");\r\n        } else {\r\n            // Pay Birds their tax\r\n            uint128 tax = reward * WORM_CLAIM_TAX_PERCENTAGE / 100;\r\n            _payTaxToBirds(tax);\r\n            reward = reward * (100 - WORM_CLAIM_TAX_PERCENTAGE) / 100; //update reward to reward - bird tax\r\n            // Update last earned time\r\n            wormStakeByStrength[strength][wormHierarchy[tokenId]] = TimeStake({\r\n                owner: msg.sender,\r\n                tokenId: tokenId,\r\n                time: time\r\n            });\r\n        }\r\n    }\r\n\r\n  /**\r\n    * realize $DIRT earnings for a single Bird and optionally unstake it\r\n    * Birds earn $DIRT proportional to their Alpha rank\r\n    * @param tokenId the ID of the Bird to claim earnings from\r\n    * @param unstake whether or not to unstake the Bird\r\n    * @return reward - the amount of $DIRT earned\r\n    */\r\n    function _claimBirdFromNest(uint16 tokenId, bool unstake) internal returns (uint128 reward) {\r\n        require(earlyBirdsNFT.ownerOf(tokenId) == address(this), \"must be staked to claim rewards\");\r\n        uint16 size = _getBirdSize(tokenId);(tokenId);\r\n        EarningStake memory stake = birdStakeBySize[size][birdHierarchy[tokenId]];\r\n        require(stake.owner == _msgSender(), \"only token owners can unstake\");\r\n\r\n        // Calculate size-based rewards\r\n        reward = (size) * (dirtPerSizePoint - stake.earningRate);\r\n        if (unstake) {\r\n            totalSizeOfBirdsStaked -= size; // Remove Alpha from total staked\r\n            EarningStake memory lastStake = birdStakeBySize[size][birdStakeBySize[size].length - 1];\r\n            birdStakeBySize[size][birdHierarchy[tokenId]] = lastStake; // Shuffle last Bird to current position\r\n            birdHierarchy[lastStake.tokenId] = birdHierarchy[tokenId];\r\n            birdStakeBySize[size].pop(); // Remove duplicate\r\n            delete birdHierarchy[tokenId]; // Delete old mapping\r\n            totalBirdsStaked -= 1;\r\n\r\n            earlyBirdsNFT.safeTransferFrom(address(this), msg.sender, tokenId, \"\");\r\n        } else {\r\n            // Update earning rate\r\n            birdStakeBySize[size][birdHierarchy[tokenId]] = EarningStake({\r\n                owner: msg.sender,\r\n                tokenId: tokenId,\r\n                earningRate: dirtPerSizePoint\r\n            });\r\n        }\r\n    }\r\n\r\n    /** \r\n    * Add $DIRT claimable pots for birds\r\n    * @param amount $DIRT to add to the pot\r\n    */\r\n    function _payTaxToBirds(uint128 amount) internal {\r\n        uint128 amountDueBirds = amount;\r\n        \r\n\r\n        // Update Bird pools\r\n        if (totalSizeOfBirdsStaked == 0) {\r\n            unaccountedBirdRewards += amountDueBirds;\r\n        } else {\r\n            // makes sure to include any unaccounted $DIRT\r\n            dirtPerSizePoint += (amountDueBirds + unaccountedBirdRewards) / totalSizeOfBirdsStaked;\r\n            unaccountedBirdRewards = 0;\r\n        }\r\n        \r\n    }\r\n\r\n    /**\r\n    * chooses a random Bird thief when a newly minted token is stolen\r\n    * @param seed a random value to choose a Bird from\r\n    * @return the owner of the randomly selected Bird thief\r\n    */\r\n    function randomBirdOwner(uint256 seed) external view override returns (address) {\r\n        if (totalSizeOfBirdsStaked == 0) {\r\n            return address(0x0); // use 0x0 to return to msg.sender\r\n        }\r\n        // choose a value from 0 to total alpha staked\r\n        uint256 bucket = (seed & 0xFFFFFFFF) % totalSizeOfBirdsStaked;\r\n        uint256 cumulative;\r\n        seed >>= 32;\r\n        // loop through each size bucket of birds\r\n        for (uint16 k =  MAXIMUM_BIRD_SIZE - 3; k <= MAXIMUM_BIRD_SIZE; k++) {\r\n            cumulative += birdStakeBySize[k].length * k;\r\n            // if the value is not inside of that bucket, keep going\r\n            if (bucket >= cumulative) continue;\r\n            // get the address of a random Bird with that alpha score\r\n            return birdStakeBySize[k][seed % birdStakeBySize[k].length].owner;\r\n        } \r\n        return address(0x0);\r\n    }\r\n    /** CALCULATE REWARDS */\r\n\r\n  \r\n\r\n /**\r\n   * Reseeds entropy with tokenId.\r\n   * @param seed random seed\r\n   * @param tokenId additional entropy during mint\r\n   * @return rotated seed\r\n   */\r\n    function _reseedWithTokenId(uint256 seed, uint32 tokenId) internal view returns (uint256) {\r\n        return uint256(keccak256(abi.encodePacked(\r\n            seed,\r\n            tx.origin,\r\n            blockhash(block.number - 1),\r\n            block.timestamp,\r\n            tokenId\r\n        )));\r\n    }\r\n\r\n    \r\n    // function setPaused(bool _paused) external requireContractsSet onlyOwner {\r\n    //     if (_paused) _pause();\r\n    //     else _unpause();\r\n    // }\r\n\r\n  /**\r\n    * gets the strength bonus for a Worm\r\n    * @param tokenId the ID of the Worm to get the strength for\r\n    * @return the bonus dirt earned by a \r\n    */\r\n    function _getWormStrengthBonus(uint16 tokenId, uint16 strength) public view returns (uint128) {\r\n        uint16 bonus;    \r\n        if(earlyBirdsNFT.isWorm(tokenId)) {\r\n            if(earlyBirdsNFT.getTraits(tokenId).size == 0) { \r\n                bonus = 0;  //default worm earning rate, no  bonus\r\n            } \r\n            else if(earlyBirdsNFT.getTraits(tokenId).size == 1) {\r\n                bonus = 12; //12 percent more dirt\r\n            }\r\n            else { \r\n                bonus = 30; //30 percent more dirt\r\n            } \r\n\r\n            TimeStake memory stake = wormStakeByStrength[strength][wormHierarchy[tokenId]];\r\n            uint48 time = uint48(block.timestamp);\r\n\r\n            uint128 wormStrengthBonus = (((time - stake.time) * WORM_EARNING_RATE) / 100) * bonus;\r\n            return wormStrengthBonus;\r\n        }\r\n        else { return 0; } //if bird, no bonus for strength     \r\n        \r\n    }\r\n\r\n/*\r\n    function getWormStrengthBonus(uint16 tokenId) public view returns (uint128) {\r\n        TimeStake memory stake = wormStakeByToken[tokenId];\r\n        uint48 time = uint48(block.timestamp);\r\n\r\n        uint128 wormStrengthBonus = ((((time - stake.time) * WORM_EARNING_RATE) / 100) * (_getWormStrength(tokenId)));\r\n        return wormStrengthBonus;\r\n    }\r\n*/\r\n\r\n  /**\r\n    * gets the size for a Bird\r\n    * @param tokenId the ID of the Bird to get the size for\r\n    * @return the size of the Bird (5-8) \r\n    */\r\n    function _getBirdSize(uint16 tokenId) internal view returns (uint16) {\r\n        return MAXIMUM_BIRD_SIZE - earlyBirdsNFT.getTraits(tokenId).size; // size is 0-3, MAXIMUM_BIRD_SIZE is 8\r\n    }\r\n\r\n  /**\r\n    * returns total dirt earned\r\n    * @return the total amount of dirt earned so far\r\n    */\r\n    function getTotalDirtClaimed() external view override returns (uint256){\r\n        return totalDirtClaimed;\r\n    }\r\n\r\n  /**\r\n    * Interface support to allow player staking.\r\n    */\r\n    function onERC721Received(address, address from, uint256, bytes calldata) external pure override returns (bytes4) {    \r\n        require(from == address(0x0), \"only allow directly from mint\");\r\n        return IERC721Receiver.onERC721Received.selector;\r\n    }\r\n\r\n}",
  "sourcePath": "C:\\Users\\Teddy Ingrassia\\Development\\worm-game\\src\\backend\\contracts\\AncientTree.sol",
  "compiler": {
    "name": "solc",
    "version": "0.8.0+commit.c7dfd78e.Emscripten.clang"
  },
  "schemaVersion": "3.4.4",
  "updatedAt": "2022-03-08T22:17:15.087Z",
  "networkType": "ethereum",
  "devdoc": {
    "kind": "dev",
    "methods": {
      "_getWormStrengthBonus(uint16,uint16)": {
        "params": {
          "tokenId": "the ID of the Worm to get the strength for"
        },
        "returns": {
          "_0": "the bonus dirt earned by a "
        }
      },
      "claimRewardsAndUnstake(uint16[],bool,uint256)": {
        "params": {
          "seed": "account seed",
          "tokenIds": "the IDs of the tokens to claim earnings from",
          "unstake": "whether or not to unstake ALL of the tokens listed in tokenIds"
        }
      },
      "getTotalDirtClaimed()": {
        "returns": {
          "_0": "the total amount of dirt earned so far"
        }
      },
      "owner()": {
        "details": "Returns the address of the current owner."
      },
      "paused()": {
        "details": "Returns true if the contract is paused, and false otherwise."
      },
      "randomBirdOwner(uint256)": {
        "params": {
          "seed": "a random value to choose a Bird from"
        },
        "returns": {
          "_0": "the owner of the randomly selected Bird thief"
        }
      },
      "renounceOwnership()": {
        "details": "Leaves the contract without owner. It will not be possible to call `onlyOwner` functions anymore. Can only be called by the current owner. NOTE: Renouncing ownership will leave the contract without an owner, thereby removing any functionality that is only available to the owner."
      },
      "stakeTokens(address,uint16[])": {
        "params": {
          "account": "the address of the staker",
          "tokenIds": "the IDs of the Worm and Birds to stake"
        }
      },
      "transferOwnership(address)": {
        "details": "Transfers ownership of the contract to a new account (`newOwner`). Can only be called by the current owner."
      }
    },
    "version": 1
  },
  "userdoc": {
    "kind": "user",
    "methods": {
      "_getWormStrengthBonus(uint16,uint16)": {
        "notice": "gets the strength bonus for a Worm"
      },
      "calculateReward(uint16)": {
        "notice": "USED FOR TESTING ONLY  "
      },
      "claimRewardsAndUnstake(uint16[],bool,uint256)": {
        "notice": "Realize $DIRT earnings and optionally unstake tokens."
      },
      "getTotalDirtClaimed()": {
        "notice": "returns total dirt earned"
      },
      "onERC721Received(address,address,uint256,bytes)": {
        "notice": "Interface support to allow player staking."
      },
      "randomBirdOwner(uint256)": {
        "notice": "chooses a random Bird thief when a newly minted token is stolen"
      },
      "stakeTokens(address,uint16[])": {
        "notice": "Adds Worms and Birds to their Nests and Home"
      }
    },
    "version": 1
  }
}