{
  "contractName": "BirdBath",
  "abi": [
    {
      "inputs": [
        {
          "internalType": "string",
          "name": "_baseURI",
          "type": "string"
        }
      ],
      "stateMutability": "nonpayable",
      "type": "constructor"
    },
    {
      "anonymous": false,
      "inputs": [
        {
          "indexed": true,
          "internalType": "address",
          "name": "account",
          "type": "address"
        },
        {
          "indexed": true,
          "internalType": "address",
          "name": "operator",
          "type": "address"
        },
        {
          "indexed": false,
          "internalType": "bool",
          "name": "approved",
          "type": "bool"
        }
      ],
      "name": "ApprovalForAll",
      "type": "event"
    },
    {
      "anonymous": false,
      "inputs": [
        {
          "indexed": true,
          "internalType": "address",
          "name": "previousOwner",
          "type": "address"
        },
        {
          "indexed": true,
          "internalType": "address",
          "name": "newOwner",
          "type": "address"
        }
      ],
      "name": "OwnershipTransferred",
      "type": "event"
    },
    {
      "anonymous": false,
      "inputs": [
        {
          "indexed": false,
          "internalType": "address",
          "name": "account",
          "type": "address"
        }
      ],
      "name": "Paused",
      "type": "event"
    },
    {
      "anonymous": false,
      "inputs": [
        {
          "indexed": true,
          "internalType": "address",
          "name": "operator",
          "type": "address"
        },
        {
          "indexed": true,
          "internalType": "address",
          "name": "from",
          "type": "address"
        },
        {
          "indexed": true,
          "internalType": "address",
          "name": "to",
          "type": "address"
        },
        {
          "indexed": false,
          "internalType": "uint256[]",
          "name": "ids",
          "type": "uint256[]"
        },
        {
          "indexed": false,
          "internalType": "uint256[]",
          "name": "values",
          "type": "uint256[]"
        }
      ],
      "name": "TransferBatch",
      "type": "event"
    },
    {
      "anonymous": false,
      "inputs": [
        {
          "indexed": true,
          "internalType": "address",
          "name": "operator",
          "type": "address"
        },
        {
          "indexed": true,
          "internalType": "address",
          "name": "from",
          "type": "address"
        },
        {
          "indexed": true,
          "internalType": "address",
          "name": "to",
          "type": "address"
        },
        {
          "indexed": false,
          "internalType": "uint256",
          "name": "id",
          "type": "uint256"
        },
        {
          "indexed": false,
          "internalType": "uint256",
          "name": "value",
          "type": "uint256"
        }
      ],
      "name": "TransferSingle",
      "type": "event"
    },
    {
      "anonymous": false,
      "inputs": [
        {
          "indexed": false,
          "internalType": "string",
          "name": "value",
          "type": "string"
        },
        {
          "indexed": true,
          "internalType": "uint256",
          "name": "id",
          "type": "uint256"
        }
      ],
      "name": "URI",
      "type": "event"
    },
    {
      "anonymous": false,
      "inputs": [
        {
          "indexed": false,
          "internalType": "address",
          "name": "account",
          "type": "address"
        }
      ],
      "name": "Unpaused",
      "type": "event"
    },
    {
      "inputs": [
        {
          "internalType": "address[]",
          "name": "accounts",
          "type": "address[]"
        },
        {
          "internalType": "uint256[]",
          "name": "ids",
          "type": "uint256[]"
        }
      ],
      "name": "balanceOfBatch",
      "outputs": [
        {
          "internalType": "uint256[]",
          "name": "",
          "type": "uint256[]"
        }
      ],
      "stateMutability": "view",
      "type": "function"
    },
    {
      "inputs": [],
      "name": "dirtContract",
      "outputs": [
        {
          "internalType": "contract IDirt",
          "name": "",
          "type": "address"
        }
      ],
      "stateMutability": "view",
      "type": "function"
    },
    {
      "inputs": [
        {
          "internalType": "address",
          "name": "account",
          "type": "address"
        },
        {
          "internalType": "address",
          "name": "operator",
          "type": "address"
        }
      ],
      "name": "isApprovedForAll",
      "outputs": [
        {
          "internalType": "bool",
          "name": "",
          "type": "bool"
        }
      ],
      "stateMutability": "view",
      "type": "function"
    },
    {
      "inputs": [],
      "name": "owner",
      "outputs": [
        {
          "internalType": "address",
          "name": "",
          "type": "address"
        }
      ],
      "stateMutability": "view",
      "type": "function"
    },
    {
      "inputs": [],
      "name": "paused",
      "outputs": [
        {
          "internalType": "bool",
          "name": "",
          "type": "bool"
        }
      ],
      "stateMutability": "view",
      "type": "function"
    },
    {
      "inputs": [],
      "name": "renounceOwnership",
      "outputs": [],
      "stateMutability": "nonpayable",
      "type": "function"
    },
    {
      "inputs": [
        {
          "internalType": "address",
          "name": "from",
          "type": "address"
        },
        {
          "internalType": "address",
          "name": "to",
          "type": "address"
        },
        {
          "internalType": "uint256[]",
          "name": "ids",
          "type": "uint256[]"
        },
        {
          "internalType": "uint256[]",
          "name": "amounts",
          "type": "uint256[]"
        },
        {
          "internalType": "bytes",
          "name": "data",
          "type": "bytes"
        }
      ],
      "name": "safeBatchTransferFrom",
      "outputs": [],
      "stateMutability": "nonpayable",
      "type": "function"
    },
    {
      "inputs": [
        {
          "internalType": "address",
          "name": "operator",
          "type": "address"
        },
        {
          "internalType": "bool",
          "name": "approved",
          "type": "bool"
        }
      ],
      "name": "setApprovalForAll",
      "outputs": [],
      "stateMutability": "nonpayable",
      "type": "function"
    },
    {
      "inputs": [
        {
          "internalType": "bytes4",
          "name": "interfaceId",
          "type": "bytes4"
        }
      ],
      "name": "supportsInterface",
      "outputs": [
        {
          "internalType": "bool",
          "name": "",
          "type": "bool"
        }
      ],
      "stateMutability": "view",
      "type": "function"
    },
    {
      "inputs": [
        {
          "internalType": "address",
          "name": "newOwner",
          "type": "address"
        }
      ],
      "name": "transferOwnership",
      "outputs": [],
      "stateMutability": "nonpayable",
      "type": "function"
    },
    {
      "inputs": [
        {
          "internalType": "address",
          "name": "_dirtContract",
          "type": "address"
        }
      ],
      "name": "setContracts",
      "outputs": [],
      "stateMutability": "nonpayable",
      "type": "function"
    },
    {
      "inputs": [
        {
          "internalType": "uint256",
          "name": "typeId",
          "type": "uint256"
        },
        {
          "internalType": "uint16",
          "name": "qty",
          "type": "uint16"
        },
        {
          "internalType": "address",
          "name": "recipient",
          "type": "address"
        }
      ],
      "name": "mint",
      "outputs": [],
      "stateMutability": "nonpayable",
      "type": "function"
    },
    {
      "inputs": [
        {
          "internalType": "uint256",
          "name": "typeId",
          "type": "uint256"
        },
        {
          "internalType": "uint16",
          "name": "qty",
          "type": "uint16"
        },
        {
          "internalType": "address",
          "name": "burnFrom",
          "type": "address"
        }
      ],
      "name": "burn",
      "outputs": [],
      "stateMutability": "nonpayable",
      "type": "function"
    },
    {
      "inputs": [
        {
          "internalType": "uint256",
          "name": "typeId",
          "type": "uint256"
        },
        {
          "internalType": "uint16",
          "name": "maxSupply",
          "type": "uint16"
        }
      ],
      "name": "setType",
      "outputs": [],
      "stateMutability": "nonpayable",
      "type": "function"
    },
    {
      "inputs": [
        {
          "internalType": "uint256",
          "name": "typeId",
          "type": "uint256"
        },
        {
          "internalType": "uint256",
          "name": "exchangeAmt",
          "type": "uint256"
        }
      ],
      "name": "setExchangeAmt",
      "outputs": [],
      "stateMutability": "nonpayable",
      "type": "function"
    },
    {
      "inputs": [],
      "name": "updateOriginAccess",
      "outputs": [],
      "stateMutability": "nonpayable",
      "type": "function"
    },
    {
      "inputs": [
        {
          "internalType": "address",
          "name": "addr",
          "type": "address"
        }
      ],
      "name": "addAdmin",
      "outputs": [],
      "stateMutability": "nonpayable",
      "type": "function"
    },
    {
      "inputs": [
        {
          "internalType": "address",
          "name": "addr",
          "type": "address"
        }
      ],
      "name": "removeAdmin",
      "outputs": [],
      "stateMutability": "nonpayable",
      "type": "function"
    },
    {
      "inputs": [
        {
          "internalType": "bool",
          "name": "_paused",
          "type": "bool"
        }
      ],
      "name": "setPaused",
      "outputs": [],
      "stateMutability": "nonpayable",
      "type": "function"
    },
    {
      "inputs": [
        {
          "internalType": "string",
          "name": "_baseURI",
          "type": "string"
        }
      ],
      "name": "setBaseUri",
      "outputs": [],
      "stateMutability": "nonpayable",
      "type": "function"
    },
    {
      "inputs": [
        {
          "internalType": "uint256",
          "name": "typeId",
          "type": "uint256"
        }
      ],
      "name": "getInfoForType",
      "outputs": [
        {
          "components": [
            {
              "internalType": "uint16",
              "name": "mints",
              "type": "uint16"
            },
            {
              "internalType": "uint16",
              "name": "burns",
              "type": "uint16"
            },
            {
              "internalType": "uint16",
              "name": "maxSupply",
              "type": "uint16"
            },
            {
              "internalType": "uint256",
              "name": "dirtExchangeAmount",
              "type": "uint256"
            }
          ],
          "internalType": "struct BirdBath.TypeInfo",
          "name": "",
          "type": "tuple"
        }
      ],
      "stateMutability": "view",
      "type": "function"
    },
    {
      "inputs": [
        {
          "internalType": "uint256",
          "name": "typeId",
          "type": "uint256"
        }
      ],
      "name": "uri",
      "outputs": [
        {
          "internalType": "string",
          "name": "",
          "type": "string"
        }
      ],
      "stateMutability": "view",
      "type": "function"
    },
    {
      "inputs": [
        {
          "internalType": "address",
          "name": "from",
          "type": "address"
        },
        {
          "internalType": "address",
          "name": "to",
          "type": "address"
        },
        {
          "internalType": "uint256",
          "name": "id",
          "type": "uint256"
        },
        {
          "internalType": "uint256",
          "name": "amount",
          "type": "uint256"
        },
        {
          "internalType": "bytes",
          "name": "data",
          "type": "bytes"
        }
      ],
      "name": "safeTransferFrom",
      "outputs": [],
      "stateMutability": "nonpayable",
      "type": "function"
    },
    {
      "inputs": [
        {
          "internalType": "address",
          "name": "account",
          "type": "address"
        },
        {
          "internalType": "uint256",
          "name": "id",
          "type": "uint256"
        }
      ],
      "name": "balanceOf",
      "outputs": [
        {
          "internalType": "uint256",
          "name": "",
          "type": "uint256"
        }
      ],
      "stateMutability": "view",
      "type": "function"
    }
  ],
  "bytecode": "0x60806040523480156200001157600080fd5b506040516200560938038062005609833981810160405281019062000037919062000390565b806200004981620000b560201b60201c565b506200006a6200005e620000d160201b60201c565b620000d960201b60201c565b6000600360146101000a81548160ff02191690831515021790555080600490805190602001906200009d9291906200026e565b50620000ae6200019f60201b60201c565b50620005dd565b8060029080519060200190620000cd9291906200026e565b5050565b600033905090565b6000600360009054906101000a900473ffffffffffffffffffffffffffffffffffffffff16905081600360006101000a81548173ffffffffffffffffffffffffffffffffffffffff021916908373ffffffffffffffffffffffffffffffffffffffff1602179055508173ffffffffffffffffffffffffffffffffffffffff168173ffffffffffffffffffffffffffffffffffffffff167f8be0079c531659141344cd1fd0a4f28419497f9722a3daafe3b4186f6b6457e060405160405180910390a35050565b620001af6200025760201b60201c565b15620001f2576040517f08c379a0000000000000000000000000000000000000000000000000000000008152600401620001e99062000445565b60405180910390fd5b6001600360146101000a81548160ff0219169083151502179055507f62e78cea01bee320cd4e420270b5ea74000d11b0c9f74754ebdbfc544b05a2586200023e620000d160201b60201c565b6040516200024d919062000428565b60405180910390a1565b6000600360149054906101000a900460ff16905090565b8280546200027c9062000549565b90600052602060002090601f016020900481019282620002a05760008555620002ec565b82601f10620002bb57805160ff1916838001178555620002ec565b82800160010185558215620002ec579182015b82811115620002eb578251825591602001919060010190620002ce565b5b509050620002fb9190620002ff565b5090565b5b808211156200031a57600081600090555060010162000300565b5090565b6000620003356200032f846200049b565b62000467565b9050828152602081018484840111156200034e57600080fd5b6200035b84828562000513565b509392505050565b600082601f8301126200037557600080fd5b8151620003878482602086016200031e565b91505092915050565b600060208284031215620003a357600080fd5b600082015167ffffffffffffffff811115620003be57600080fd5b620003cc8482850162000363565b91505092915050565b620003e081620004df565b82525050565b6000620003f5601083620004ce565b91507f5061757361626c653a20706175736564000000000000000000000000000000006000830152602082019050919050565b60006020820190506200043f6000830184620003d5565b92915050565b600060208201905081810360008301526200046081620003e6565b9050919050565b6000604051905081810181811067ffffffffffffffff82111715620004915762000490620005ae565b5b8060405250919050565b600067ffffffffffffffff821115620004b957620004b8620005ae565b5b601f19601f8301169050602081019050919050565b600082825260208201905092915050565b6000620004ec82620004f3565b9050919050565b600073ffffffffffffffffffffffffffffffffffffffff82169050919050565b60005b838110156200053357808201518184015260208101905062000516565b8381111562000543576000848401525b50505050565b600060028204905060018216806200056257607f821691505b602082108114156200057957620005786200057f565b5b50919050565b7f4e487b7100000000000000000000000000000000000000000000000000000000600052602260045260246000fd5b7f4e487b7100000000000000000000000000000000000000000000000000000000600052604160045260246000fd5b61501c80620005ed6000396000f3fe608060405234801561001057600080fd5b50600436106101575760003560e01c806370480275116100c3578063a22cb4651161007c578063a22cb4651461039a578063c4994180146103b6578063c8122729146103d2578063e985e9c5146103ee578063f242432a1461041e578063f2fde38b1461043a57610157565b80637048027514610300578063715018a61461031c5780638da5cb5b146103265780639c47ee3b146103445780639ca0f29b1461034e578063a0bcfc7f1461037e57610157565b80632eb2c2d6116101155780632eb2c2d6146102405780634c6bcfde1461025c5780634e1273f41461027a57806351416019146102aa5780635a2e2f47146102c65780635c975abb146102e257610157565b8062fdd58e1461015c57806301ffc9a71461018c57806306e7b953146101bc5780630e89341c146101d857806316c38b3c146102085780631785f53c14610224575b600080fd5b61017660048036038101906101719190613734565b610456565b6040516101839190614910565b60405180910390f35b6101a660048036038101906101a1919061382e565b610664565b6040516101b3919061459d565b60405180910390f35b6101d660048036038101906101d19190613926565b610746565b005b6101f260048036038101906101ed91906138c1565b610979565b6040516101ff91906145d3565b60405180910390f35b610222600480360381019061021d91906137dc565b610abf565b005b61023e60048036038101906102399190613545565b610bec565b005b61025a600480360381019061025591906135aa565b610cc3565b005b610264610d64565b60405161027191906145b8565b60405180910390f35b610294600480360381019061028f9190613770565b610d8a565b6040516102a19190614544565b60405180910390f35b6102c460048036038101906102bf9190613926565b610f3b565b005b6102e060048036038101906102db9190613545565b61124b565b005b6102ea61130b565b6040516102f7919061459d565b60405180910390f35b61031a60048036038101906103159190613545565b611322565b005b6103246113f9565b005b61032e611481565b60405161033b9190614430565b60405180910390f35b61034c6114ab565b005b610368600480360381019061036391906138c1565b611612565b60405161037591906148f5565b60405180910390f35b61039860048036038101906103939190613880565b611811565b005b6103b460048036038101906103af91906136f8565b6118a7565b005b6103d060048036038101906103cb9190613975565b6118bd565b005b6103ec60048036038101906103e791906138ea565b6119c3565b005b6104086004803603810190610403919061356e565b611ae3565b604051610415919061459d565b60405180910390f35b61043860048036038101906104339190613669565b611b77565b005b610454600480360381019061044f9190613545565b611c71565b005b600060076000610464611d69565b73ffffffffffffffffffffffffffffffffffffffff1673ffffffffffffffffffffffffffffffffffffffff16815260200190815260200160002060009054906101000a900460ff1680610516575043600560003273ffffffffffffffffffffffffffffffffffffffff1673ffffffffffffffffffffffffffffffffffffffff16815260200190815260200160002060000160089054906101000a900467ffffffffffffffff1667ffffffffffffffff16105b610555576040517f08c379a000000000000000000000000000000000000000000000000000000000815260040161054c90614735565b60405180910390fd5b60076000610561611d69565b73ffffffffffffffffffffffffffffffffffffffff1673ffffffffffffffffffffffffffffffffffffffff16815260200190815260200160002060009054906101000a900460ff1680610613575043600560008573ffffffffffffffffffffffffffffffffffffffff1673ffffffffffffffffffffffffffffffffffffffff16815260200190815260200160002060000160089054906101000a900467ffffffffffffffff1667ffffffffffffffff16105b610652576040517f08c379a000000000000000000000000000000000000000000000000000000000815260040161064990614735565b60405180910390fd5b61065c8383611d71565b905092915050565b60007fd9b67a26000000000000000000000000000000000000000000000000000000007bffffffffffffffffffffffffffffffffffffffffffffffffffffffff1916827bffffffffffffffffffffffffffffffffffffffffffffffffffffffff1916148061072f57507f0e89341c000000000000000000000000000000000000000000000000000000007bffffffffffffffffffffffffffffffffffffffffffffffffffffffff1916827bffffffffffffffffffffffffffffffffffffffffffffffffffffffff1916145b8061073f575061073e82611e3a565b5b9050919050565b61074e61130b565b1561078e576040517f08c379a000000000000000000000000000000000000000000000000000000000815260040161078590614775565b60405180910390fd5b6007600061079a611d69565b73ffffffffffffffffffffffffffffffffffffffff1673ffffffffffffffffffffffffffffffffffffffff16815260200190815260200160002060009054906101000a900460ff16610821576040517f08c379a0000000000000000000000000000000000000000000000000000000008152600401610818906146b5565b60405180910390fd5b60006006600085815260200190815260200160002060010154111561091857600860009054906101000a900473ffffffffffffffffffffffffffffffffffffffff1673ffffffffffffffffffffffffffffffffffffffff166323b872dd30328561ffff1660066000898152602001908152602001600020600101546108a69190614b8d565b6040518463ffffffff1660e01b81526004016108c4939291906144b3565b602060405180830381600087803b1580156108de57600080fd5b505af11580156108f2573d6000803e3d6000fd5b505050506040513d601f19601f820116820180604052508101906109169190613805565b505b816006600085815260200190815260200160002060000160028282829054906101000a900461ffff1661094b9190614ace565b92506101000a81548161ffff021916908361ffff16021790555061097481848461ffff16611ea4565b505050565b606060006006600084815260200190815260200160002060000160049054906101000a900461ffff1661ffff16116109e6576040517f08c379a00000000000000000000000000000000000000000000000000000000081526004016109dd906146d5565b60405180910390fd5b6000600480546109f590614d37565b905011610a8c5760048054610a0990614d37565b80601f0160208091040260200160405190810160405280929190818152602001828054610a3590614d37565b8015610a825780601f10610a5757610100808354040283529160200191610a82565b820191906000526020600020905b815481529060010190602001808311610a6557829003601f168201915b5050505050610ab8565b6004610a97836120c1565b604051602001610aa892919061440c565b6040516020818303038152906040525b9050919050565b610ac7611d69565b73ffffffffffffffffffffffffffffffffffffffff16610ae5611481565b73ffffffffffffffffffffffffffffffffffffffff1614610b3b576040517f08c379a0000000000000000000000000000000000000000000000000000000008152600401610b3290614855565b60405180910390fd5b600073ffffffffffffffffffffffffffffffffffffffff16600860009054906101000a900473ffffffffffffffffffffffffffffffffffffffff1673ffffffffffffffffffffffffffffffffffffffff161415610bcd576040517f08c379a0000000000000000000000000000000000000000000000000000000008152600401610bc490614655565b60405180910390fd5b8015610be057610bdb61226e565b610be9565b610be8612311565b5b50565b610bf4611d69565b73ffffffffffffffffffffffffffffffffffffffff16610c12611481565b73ffffffffffffffffffffffffffffffffffffffff1614610c68576040517f08c379a0000000000000000000000000000000000000000000000000000000008152600401610c5f90614855565b60405180910390fd5b6000600760008373ffffffffffffffffffffffffffffffffffffffff1673ffffffffffffffffffffffffffffffffffffffff16815260200190815260200160002060006101000a81548160ff02191690831515021790555050565b610ccb611d69565b73ffffffffffffffffffffffffffffffffffffffff168573ffffffffffffffffffffffffffffffffffffffff161480610d115750610d1085610d0b611d69565b611ae3565b5b610d50576040517f08c379a0000000000000000000000000000000000000000000000000000000008152600401610d47906147b5565b60405180910390fd5b610d5d85858585856123b3565b5050505050565b600860009054906101000a900473ffffffffffffffffffffffffffffffffffffffff1681565b60608151835114610dd0576040517f08c379a0000000000000000000000000000000000000000000000000000000008152600401610dc790614895565b60405180910390fd5b6000835167ffffffffffffffff811115610e13577f4e487b7100000000000000000000000000000000000000000000000000000000600052604160045260246000fd5b604051908082528060200260200182016040528015610e415781602001602082028036833780820191505090505b50905060005b8451811015610f3057610eda858281518110610e8c577f4e487b7100000000000000000000000000000000000000000000000000000000600052603260045260246000fd5b6020026020010151858381518110610ecd577f4e487b7100000000000000000000000000000000000000000000000000000000600052603260045260246000fd5b6020026020010151610456565b828281518110610f13577f4e487b7100000000000000000000000000000000000000000000000000000000600052603260045260246000fd5b60200260200101818152505080610f2990614d69565b9050610e47565b508091505092915050565b610f4361130b565b15610f83576040517f08c379a0000000000000000000000000000000000000000000000000000000008152600401610f7a90614775565b60405180910390fd5b60076000610f8f611d69565b73ffffffffffffffffffffffffffffffffffffffff1673ffffffffffffffffffffffffffffffffffffffff16815260200190815260200160002060009054906101000a900460ff16611016576040517f08c379a000000000000000000000000000000000000000000000000000000000815260040161100d906146b5565b60405180910390fd5b6006600084815260200190815260200160002060000160049054906101000a900461ffff1661ffff16826006600086815260200190815260200160002060000160029054906101000a900461ffff166006600087815260200190815260200160002060000160009054906101000a900461ffff166110949190614be7565b61109e9190614ace565b61ffff1611156110e3576040517f08c379a00000000000000000000000000000000000000000000000000000000081526004016110da90614715565b60405180910390fd5b6000600660008581526020019081526020016000206001015411156111da57600860009054906101000a900473ffffffffffffffffffffffffffffffffffffffff1673ffffffffffffffffffffffffffffffffffffffff166323b872dd32308561ffff1660066000898152602001908152602001600020600101546111689190614b8d565b6040518463ffffffff1660e01b8152600401611186939291906144b3565b602060405180830381600087803b1580156111a057600080fd5b505af11580156111b4573d6000803e3d6000fd5b505050506040513d601f19601f820116820180604052508101906111d89190613805565b505b816006600085815260200190815260200160002060000160008282829054906101000a900461ffff1661120d9190614ace565b92506101000a81548161ffff021916908361ffff16021790555061124681848461ffff1660405180602001604052806000815250612713565b505050565b611253611d69565b73ffffffffffffffffffffffffffffffffffffffff16611271611481565b73ffffffffffffffffffffffffffffffffffffffff16146112c7576040517f08c379a00000000000000000000000000000000000000000000000000000000081526004016112be90614855565b60405180910390fd5b80600860006101000a81548173ffffffffffffffffffffffffffffffffffffffff021916908373ffffffffffffffffffffffffffffffffffffffff16021790555050565b6000600360149054906101000a900460ff16905090565b61132a611d69565b73ffffffffffffffffffffffffffffffffffffffff16611348611481565b73ffffffffffffffffffffffffffffffffffffffff161461139e576040517f08c379a000000000000000000000000000000000000000000000000000000000815260040161139590614855565b60405180910390fd5b6001600760008373ffffffffffffffffffffffffffffffffffffffff1673ffffffffffffffffffffffffffffffffffffffff16815260200190815260200160002060006101000a81548160ff02191690831515021790555050565b611401611d69565b73ffffffffffffffffffffffffffffffffffffffff1661141f611481565b73ffffffffffffffffffffffffffffffffffffffff1614611475576040517f08c379a000000000000000000000000000000000000000000000000000000000815260040161146c90614855565b60405180910390fd5b61147f60006128a9565b565b6000600360009054906101000a900473ffffffffffffffffffffffffffffffffffffffff16905090565b600760006114b7611d69565b73ffffffffffffffffffffffffffffffffffffffff1673ffffffffffffffffffffffffffffffffffffffff16815260200190815260200160002060009054906101000a900460ff1661153e576040517f08c379a0000000000000000000000000000000000000000000000000000000008152600401611535906146b5565b60405180910390fd5b43600560003273ffffffffffffffffffffffffffffffffffffffff1673ffffffffffffffffffffffffffffffffffffffff16815260200190815260200160002060000160086101000a81548167ffffffffffffffff021916908367ffffffffffffffff16021790555042600560003273ffffffffffffffffffffffffffffffffffffffff1673ffffffffffffffffffffffffffffffffffffffff16815260200190815260200160002060000160006101000a81548167ffffffffffffffff021916908367ffffffffffffffff160217905550565b61161a6131df565b60076000611626611d69565b73ffffffffffffffffffffffffffffffffffffffff1673ffffffffffffffffffffffffffffffffffffffff16815260200190815260200160002060009054906101000a900460ff16806116d8575043600560003273ffffffffffffffffffffffffffffffffffffffff1673ffffffffffffffffffffffffffffffffffffffff16815260200190815260200160002060000160089054906101000a900467ffffffffffffffff1667ffffffffffffffff16105b611717576040517f08c379a000000000000000000000000000000000000000000000000000000000815260040161170e90614735565b60405180910390fd5b60006006600084815260200190815260200160002060000160049054906101000a900461ffff1661ffff1611611782576040517f08c379a0000000000000000000000000000000000000000000000000000000008152600401611779906146d5565b60405180910390fd5b600660008381526020019081526020016000206040518060800160405290816000820160009054906101000a900461ffff1661ffff1661ffff1681526020016000820160029054906101000a900461ffff1661ffff1661ffff1681526020016000820160049054906101000a900461ffff1661ffff1661ffff1681526020016001820154815250509050919050565b611819611d69565b73ffffffffffffffffffffffffffffffffffffffff16611837611481565b73ffffffffffffffffffffffffffffffffffffffff161461188d576040517f08c379a000000000000000000000000000000000000000000000000000000000815260040161188490614855565b60405180910390fd5b80600490805190602001906118a3929190613213565b5050565b6118b96118b2611d69565b838361296f565b5050565b6118c5611d69565b73ffffffffffffffffffffffffffffffffffffffff166118e3611481565b73ffffffffffffffffffffffffffffffffffffffff1614611939576040517f08c379a000000000000000000000000000000000000000000000000000000000815260040161193090614855565b60405180910390fd5b60006006600084815260200190815260200160002060000160049054906101000a900461ffff1661ffff16116119a4576040517f08c379a000000000000000000000000000000000000000000000000000000000815260040161199b906147f5565b60405180910390fd5b8060066000848152602001908152602001600020600101819055505050565b6119cb611d69565b73ffffffffffffffffffffffffffffffffffffffff166119e9611481565b73ffffffffffffffffffffffffffffffffffffffff1614611a3f576040517f08c379a0000000000000000000000000000000000000000000000000000000008152600401611a3690614855565b60405180910390fd5b8061ffff166006600084815260200190815260200160002060000160009054906101000a900461ffff1661ffff161115611aae576040517f08c379a0000000000000000000000000000000000000000000000000000000008152600401611aa5906147d5565b60405180910390fd5b806006600084815260200190815260200160002060000160046101000a81548161ffff021916908361ffff1602179055505050565b6000600160008473ffffffffffffffffffffffffffffffffffffffff1673ffffffffffffffffffffffffffffffffffffffff16815260200190815260200160002060008373ffffffffffffffffffffffffffffffffffffffff1673ffffffffffffffffffffffffffffffffffffffff16815260200190815260200160002060009054906101000a900460ff16905092915050565b60076000611b83611d69565b73ffffffffffffffffffffffffffffffffffffffff1673ffffffffffffffffffffffffffffffffffffffff16815260200190815260200160002060009054906101000a900460ff16611c5d57611bd7611d69565b73ffffffffffffffffffffffffffffffffffffffff168573ffffffffffffffffffffffffffffffffffffffff161480611c1d5750611c1c85611c17611d69565b611ae3565b5b611c5c576040517f08c379a0000000000000000000000000000000000000000000000000000000008152600401611c5390614755565b60405180910390fd5b5b611c6a8585858585612adc565b5050505050565b611c79611d69565b73ffffffffffffffffffffffffffffffffffffffff16611c97611481565b73ffffffffffffffffffffffffffffffffffffffff1614611ced576040517f08c379a0000000000000000000000000000000000000000000000000000000008152600401611ce490614855565b60405180910390fd5b600073ffffffffffffffffffffffffffffffffffffffff168173ffffffffffffffffffffffffffffffffffffffff161415611d5d576040517f08c379a0000000000000000000000000000000000000000000000000000000008152600401611d5490614695565b60405180910390fd5b611d66816128a9565b50565b600033905090565b60008073ffffffffffffffffffffffffffffffffffffffff168373ffffffffffffffffffffffffffffffffffffffff161415611de2576040517f08c379a0000000000000000000000000000000000000000000000000000000008152600401611dd990614675565b60405180910390fd5b60008083815260200190815260200160002060008473ffffffffffffffffffffffffffffffffffffffff1673ffffffffffffffffffffffffffffffffffffffff16815260200190815260200160002054905092915050565b60007f01ffc9a7000000000000000000000000000000000000000000000000000000007bffffffffffffffffffffffffffffffffffffffffffffffffffffffff1916827bffffffffffffffffffffffffffffffffffffffffffffffffffffffff1916149050919050565b600073ffffffffffffffffffffffffffffffffffffffff168373ffffffffffffffffffffffffffffffffffffffff161415611f14576040517f08c379a0000000000000000000000000000000000000000000000000000000008152600401611f0b90614815565b60405180910390fd5b6000611f1e611d69565b9050611f4e81856000611f3087612d5e565b611f3987612d5e565b60405180602001604052806000815250612e24565b600080600085815260200190815260200160002060008673ffffffffffffffffffffffffffffffffffffffff1673ffffffffffffffffffffffffffffffffffffffff16815260200190815260200160002054905082811015611fe5576040517f08c379a0000000000000000000000000000000000000000000000000000000008152600401611fdc906146f5565b60405180910390fd5b82810360008086815260200190815260200160002060008773ffffffffffffffffffffffffffffffffffffffff1673ffffffffffffffffffffffffffffffffffffffff16815260200190815260200160002081905550600073ffffffffffffffffffffffffffffffffffffffff168573ffffffffffffffffffffffffffffffffffffffff168373ffffffffffffffffffffffffffffffffffffffff167fc3d58168c5ae7397731d063d5bbf3d657854427343f4c083240f7aacaa2d0f6287876040516120b292919061492b565b60405180910390a45050505050565b60606000821415612109576040518060400160405280600181526020017f30000000000000000000000000000000000000000000000000000000000000008152509050612269565b600082905060005b6000821461213b57808061212490614d69565b915050600a826121349190614b5c565b9150612111565b60008167ffffffffffffffff81111561217d577f4e487b7100000000000000000000000000000000000000000000000000000000600052604160045260246000fd5b6040519080825280601f01601f1916602001820160405280156121af5781602001600182028036833780820191505090505b5090505b60008514612262576001826121c89190614c1b565b9150600a856121d79190614db2565b60306121e39190614b06565b60f81b81838151811061221f577f4e487b7100000000000000000000000000000000000000000000000000000000600052603260045260246000fd5b60200101907effffffffffffffffffffffffffffffffffffffffffffffffffffffffffffff1916908160001a905350600a8561225b9190614b5c565b94506121b3565b8093505050505b919050565b61227661130b565b156122b6576040517f08c379a00000000000000000000000000000000000000000000000000000000081526004016122ad90614775565b60405180910390fd5b6001600360146101000a81548160ff0219169083151502179055507f62e78cea01bee320cd4e420270b5ea74000d11b0c9f74754ebdbfc544b05a2586122fa611d69565b6040516123079190614430565b60405180910390a1565b61231961130b565b612358576040517f08c379a000000000000000000000000000000000000000000000000000000000815260040161234f90614635565b60405180910390fd5b6000600360146101000a81548160ff0219169083151502179055507f5db9ee0a495bf2e6ff9c91a7834c1ba4fdd244a5e8aa4e537bd38aeae4b073aa61239c611d69565b6040516123a99190614430565b60405180910390a1565b81518351146123f7576040517f08c379a00000000000000000000000000000000000000000000000000000000081526004016123ee906148b5565b60405180910390fd5b600073ffffffffffffffffffffffffffffffffffffffff168473ffffffffffffffffffffffffffffffffffffffff161415612467576040517f08c379a000000000000000000000000000000000000000000000000000000000815260040161245e90614795565b60405180910390fd5b6000612471611d69565b9050612481818787878787612e24565b60005b845181101561267e5760008582815181106124c8577f4e487b7100000000000000000000000000000000000000000000000000000000600052603260045260246000fd5b60200260200101519050600085838151811061250d577f4e487b7100000000000000000000000000000000000000000000000000000000600052603260045260246000fd5b60200260200101519050600080600084815260200190815260200160002060008b73ffffffffffffffffffffffffffffffffffffffff1673ffffffffffffffffffffffffffffffffffffffff168152602001908152602001600020549050818110156125ae576040517f08c379a00000000000000000000000000000000000000000000000000000000081526004016125a590614835565b60405180910390fd5b81810360008085815260200190815260200160002060008c73ffffffffffffffffffffffffffffffffffffffff1673ffffffffffffffffffffffffffffffffffffffff168152602001908152602001600020819055508160008085815260200190815260200160002060008b73ffffffffffffffffffffffffffffffffffffffff1673ffffffffffffffffffffffffffffffffffffffff16815260200190815260200160002060008282546126639190614b06565b925050819055505050508061267790614d69565b9050612484565b508473ffffffffffffffffffffffffffffffffffffffff168673ffffffffffffffffffffffffffffffffffffffff168273ffffffffffffffffffffffffffffffffffffffff167f4a39dc06d4c0dbc64b70af90fd698a233a518aa5d07e595d983b8c0526c8f7fb87876040516126f5929190614566565b60405180910390a461270b818787878787612e2c565b505050505050565b600073ffffffffffffffffffffffffffffffffffffffff168473ffffffffffffffffffffffffffffffffffffffff161415612783576040517f08c379a000000000000000000000000000000000000000000000000000000000815260040161277a906148d5565b60405180910390fd5b600061278d611d69565b90506127ae8160008761279f88612d5e565b6127a888612d5e565b87612e24565b8260008086815260200190815260200160002060008773ffffffffffffffffffffffffffffffffffffffff1673ffffffffffffffffffffffffffffffffffffffff168152602001908152602001600020600082825461280d9190614b06565b925050819055508473ffffffffffffffffffffffffffffffffffffffff16600073ffffffffffffffffffffffffffffffffffffffff168273ffffffffffffffffffffffffffffffffffffffff167fc3d58168c5ae7397731d063d5bbf3d657854427343f4c083240f7aacaa2d0f62878760405161288b92919061492b565b60405180910390a46128a281600087878787612ffc565b5050505050565b6000600360009054906101000a900473ffffffffffffffffffffffffffffffffffffffff16905081600360006101000a81548173ffffffffffffffffffffffffffffffffffffffff021916908373ffffffffffffffffffffffffffffffffffffffff1602179055508173ffffffffffffffffffffffffffffffffffffffff168173ffffffffffffffffffffffffffffffffffffffff167f8be0079c531659141344cd1fd0a4f28419497f9722a3daafe3b4186f6b6457e060405160405180910390a35050565b8173ffffffffffffffffffffffffffffffffffffffff168373ffffffffffffffffffffffffffffffffffffffff1614156129de576040517f08c379a00000000000000000000000000000000000000000000000000000000081526004016129d590614875565b60405180910390fd5b80600160008573ffffffffffffffffffffffffffffffffffffffff1673ffffffffffffffffffffffffffffffffffffffff16815260200190815260200160002060008473ffffffffffffffffffffffffffffffffffffffff1673ffffffffffffffffffffffffffffffffffffffff16815260200190815260200160002060006101000a81548160ff0219169083151502179055508173ffffffffffffffffffffffffffffffffffffffff168373ffffffffffffffffffffffffffffffffffffffff167f17307eab39ab6107e8899845ad3d59bd9653f200f220920489ca2b5937696c3183604051612acf919061459d565b60405180910390a3505050565b600073ffffffffffffffffffffffffffffffffffffffff168473ffffffffffffffffffffffffffffffffffffffff161415612b4c576040517f08c379a0000000000000000000000000000000000000000000000000000000008152600401612b4390614795565b60405180910390fd5b6000612b56611d69565b9050612b76818787612b6788612d5e565b612b7088612d5e565b87612e24565b600080600086815260200190815260200160002060008873ffffffffffffffffffffffffffffffffffffffff1673ffffffffffffffffffffffffffffffffffffffff16815260200190815260200160002054905083811015612c0d576040517f08c379a0000000000000000000000000000000000000000000000000000000008152600401612c0490614835565b60405180910390fd5b83810360008087815260200190815260200160002060008973ffffffffffffffffffffffffffffffffffffffff1673ffffffffffffffffffffffffffffffffffffffff168152602001908152602001600020819055508360008087815260200190815260200160002060008873ffffffffffffffffffffffffffffffffffffffff1673ffffffffffffffffffffffffffffffffffffffff1681526020019081526020016000206000828254612cc29190614b06565b925050819055508573ffffffffffffffffffffffffffffffffffffffff168773ffffffffffffffffffffffffffffffffffffffff168373ffffffffffffffffffffffffffffffffffffffff167fc3d58168c5ae7397731d063d5bbf3d657854427343f4c083240f7aacaa2d0f628888604051612d3f92919061492b565b60405180910390a4612d55828888888888612ffc565b50505050505050565b60606000600167ffffffffffffffff811115612da3577f4e487b7100000000000000000000000000000000000000000000000000000000600052604160045260246000fd5b604051908082528060200260200182016040528015612dd15781602001602082028036833780820191505090505b5090508281600081518110612e0f577f4e487b7100000000000000000000000000000000000000000000000000000000600052603260045260246000fd5b60200260200101818152505080915050919050565b505050505050565b612e4b8473ffffffffffffffffffffffffffffffffffffffff166131cc565b15612ff4578373ffffffffffffffffffffffffffffffffffffffff1663bc197c8187878686866040518663ffffffff1660e01b8152600401612e9195949392919061444b565b602060405180830381600087803b158015612eab57600080fd5b505af1925050508015612edc57506040513d601f19601f82011682018060405250810190612ed99190613857565b60015b612f6b57612ee8614ebd565b80612ef35750612f30565b806040517f08c379a0000000000000000000000000000000000000000000000000000000008152600401612f2791906145d3565b60405180910390fd5b6040517f08c379a0000000000000000000000000000000000000000000000000000000008152600401612f62906145f5565b60405180910390fd5b63bc197c8160e01b7bffffffffffffffffffffffffffffffffffffffffffffffffffffffff1916817bffffffffffffffffffffffffffffffffffffffffffffffffffffffff191614612ff2576040517f08c379a0000000000000000000000000000000000000000000000000000000008152600401612fe990614615565b60405180910390fd5b505b505050505050565b61301b8473ffffffffffffffffffffffffffffffffffffffff166131cc565b156131c4578373ffffffffffffffffffffffffffffffffffffffff1663f23a6e6187878686866040518663ffffffff1660e01b81526004016130619594939291906144ea565b602060405180830381600087803b15801561307b57600080fd5b505af19250505080156130ac57506040513d601f19601f820116820180604052508101906130a99190613857565b60015b61313b576130b8614ebd565b806130c35750613100565b806040517f08c379a00000000000000000000000000000000000000000000000000000000081526004016130f791906145d3565b60405180910390fd5b6040517f08c379a0000000000000000000000000000000000000000000000000000000008152600401613132906145f5565b60405180910390fd5b63f23a6e6160e01b7bffffffffffffffffffffffffffffffffffffffffffffffffffffffff1916817bffffffffffffffffffffffffffffffffffffffffffffffffffffffff1916146131c2576040517f08c379a00000000000000000000000000000000000000000000000000000000081526004016131b990614615565b60405180910390fd5b505b505050505050565b600080823b905060008111915050919050565b6040518060800160405280600061ffff168152602001600061ffff168152602001600061ffff168152602001600081525090565b82805461321f90614d37565b90600052602060002090601f0160209004810192826132415760008555613288565b82601f1061325a57805160ff1916838001178555613288565b82800160010185558215613288579182015b8281111561328757825182559160200191906001019061326c565b5b5090506132959190613299565b5090565b5b808211156132b257600081600090555060010161329a565b5090565b60006132c96132c484614985565b614954565b905080838252602082019050828560208602820111156132e857600080fd5b60005b8581101561331857816132fe888261340a565b8452602084019350602083019250506001810190506132eb565b5050509392505050565b6000613335613330846149b1565b614954565b9050808382526020820190508285602086028201111561335457600080fd5b60005b85811015613384578161336a8882613530565b845260208401935060208301925050600181019050613357565b5050509392505050565b60006133a161339c846149dd565b614954565b9050828152602081018484840111156133b957600080fd5b6133c4848285614cf5565b509392505050565b60006133df6133da84614a0d565b614954565b9050828152602081018484840111156133f757600080fd5b613402848285614cf5565b509392505050565b60008135905061341981614f73565b92915050565b600082601f83011261343057600080fd5b81356134408482602086016132b6565b91505092915050565b600082601f83011261345a57600080fd5b813561346a848260208601613322565b91505092915050565b60008135905061348281614f8a565b92915050565b60008151905061349781614f8a565b92915050565b6000813590506134ac81614fa1565b92915050565b6000815190506134c181614fa1565b92915050565b600082601f8301126134d857600080fd5b81356134e884826020860161338e565b91505092915050565b600082601f83011261350257600080fd5b81356135128482602086016133cc565b91505092915050565b60008135905061352a81614fb8565b92915050565b60008135905061353f81614fcf565b92915050565b60006020828403121561355757600080fd5b60006135658482850161340a565b91505092915050565b6000806040838503121561358157600080fd5b600061358f8582860161340a565b92505060206135a08582860161340a565b9150509250929050565b600080600080600060a086880312156135c257600080fd5b60006135d08882890161340a565b95505060206135e18882890161340a565b945050604086013567ffffffffffffffff8111156135fe57600080fd5b61360a88828901613449565b935050606086013567ffffffffffffffff81111561362757600080fd5b61363388828901613449565b925050608086013567ffffffffffffffff81111561365057600080fd5b61365c888289016134c7565b9150509295509295909350565b600080600080600060a0868803121561368157600080fd5b600061368f8882890161340a565b95505060206136a08882890161340a565b94505060406136b188828901613530565b93505060606136c288828901613530565b925050608086013567ffffffffffffffff8111156136df57600080fd5b6136eb888289016134c7565b9150509295509295909350565b6000806040838503121561370b57600080fd5b60006137198582860161340a565b925050602061372a85828601613473565b9150509250929050565b6000806040838503121561374757600080fd5b60006137558582860161340a565b925050602061376685828601613530565b9150509250929050565b6000806040838503121561378357600080fd5b600083013567ffffffffffffffff81111561379d57600080fd5b6137a98582860161341f565b925050602083013567ffffffffffffffff8111156137c657600080fd5b6137d285828601613449565b9150509250929050565b6000602082840312156137ee57600080fd5b60006137fc84828501613473565b91505092915050565b60006020828403121561381757600080fd5b600061382584828501613488565b91505092915050565b60006020828403121561384057600080fd5b600061384e8482850161349d565b91505092915050565b60006020828403121561386957600080fd5b6000613877848285016134b2565b91505092915050565b60006020828403121561389257600080fd5b600082013567ffffffffffffffff8111156138ac57600080fd5b6138b8848285016134f1565b91505092915050565b6000602082840312156138d357600080fd5b60006138e184828501613530565b91505092915050565b600080604083850312156138fd57600080fd5b600061390b85828601613530565b925050602061391c8582860161351b565b9150509250929050565b60008060006060848603121561393b57600080fd5b600061394986828701613530565b935050602061395a8682870161351b565b925050604061396b8682870161340a565b9150509250925092565b6000806040838503121561398857600080fd5b600061399685828601613530565b92505060206139a785828601613530565b9150509250929050565b60006139bd83836143ee565b60208301905092915050565b6139d281614c4f565b82525050565b60006139e382614a62565b6139ed8185614a90565b93506139f883614a3d565b8060005b83811015613a29578151613a1088826139b1565b9750613a1b83614a83565b9250506001810190506139fc565b5085935050505092915050565b613a3f81614c61565b82525050565b6000613a5082614a6d565b613a5a8185614aa1565b9350613a6a818560208601614d04565b613a7381614e9f565b840191505092915050565b613a8781614cd1565b82525050565b6000613a9882614a78565b613aa28185614ab2565b9350613ab2818560208601614d04565b613abb81614e9f565b840191505092915050565b6000613ad182614a78565b613adb8185614ac3565b9350613aeb818560208601614d04565b80840191505092915050565b60008154613b0481614d37565b613b0e8186614ac3565b94506001821660008114613b295760018114613b3a57613b6d565b60ff19831686528186019350613b6d565b613b4385614a4d565b60005b83811015613b6557815481890152600182019150602081019050613b46565b838801955050505b50505092915050565b6000613b83603483614ab2565b91507f455243313135353a207472616e7366657220746f206e6f6e204552433131353560008301527f526563656976657220696d706c656d656e7465720000000000000000000000006020830152604082019050919050565b6000613be9602883614ab2565b91507f455243313135353a204552433131353552656365697665722072656a6563746560008301527f6420746f6b656e730000000000000000000000000000000000000000000000006020830152604082019050919050565b6000613c4f601483614ab2565b91507f5061757361626c653a206e6f74207061757365640000000000000000000000006000830152602082019050919050565b6000613c8f601183614ab2565b91507f436f6e747261637473206e6f74207365740000000000000000000000000000006000830152602082019050919050565b6000613ccf602b83614ab2565b91507f455243313135353a2062616c616e636520717565727920666f7220746865207a60008301527f65726f20616464726573730000000000000000000000000000000000000000006020830152604082019050919050565b6000613d35602683614ab2565b91507f4f776e61626c653a206e6577206f776e657220697320746865207a65726f206160008301527f64647265737300000000000000000000000000000000000000000000000000006020830152604082019050919050565b6000613d9b601983614ab2565b91507f4f6e6c792061646d696e732063616e2063616c6c2074686973000000000000006000830152602082019050919050565b6000613ddb600c83614ab2565b91507f696e76616c6964207479706500000000000000000000000000000000000000006000830152602082019050919050565b6000613e1b602483614ab2565b91507f455243313135353a206275726e20616d6f756e7420657863656564732062616c60008301527f616e6365000000000000000000000000000000000000000000000000000000006020830152604082019050919050565b6000613e81601183614ab2565b91507f416c6c20746f6b656e73206d696e7465640000000000000000000000000000006000830152602082019050919050565b6000613ec1601183614ab2565b91507f686d6d6d6d207768617420646f696e673f0000000000000000000000000000006000830152602082019050919050565b6000613f01602983614ab2565b91507f455243313135353a2063616c6c6572206973206e6f74206f776e6572206e6f7260008301527f20617070726f76656400000000000000000000000000000000000000000000006020830152604082019050919050565b6000613f67601083614ab2565b91507f5061757361626c653a20706175736564000000000000000000000000000000006000830152602082019050919050565b6000613fa7602583614ab2565b91507f455243313135353a207472616e7366657220746f20746865207a65726f20616460008301527f64726573730000000000000000000000000000000000000000000000000000006020830152604082019050919050565b600061400d603283614ab2565b91507f455243313135353a207472616e736665722063616c6c6572206973206e6f742060008301527f6f776e6572206e6f7220617070726f76656400000000000000000000000000006020830152604082019050919050565b6000614073601283614ab2565b91507f6d617820737570706c7920746f6f206c6f7700000000000000000000000000006000830152602082019050919050565b60006140b3601d83614ab2565b91507f74686973207479706520686173206e6f74206265656e207365742075700000006000830152602082019050919050565b60006140f3602383614ab2565b91507f455243313135353a206275726e2066726f6d20746865207a65726f206164647260008301527f65737300000000000000000000000000000000000000000000000000000000006020830152604082019050919050565b6000614159602a83614ab2565b91507f455243313135353a20696e73756666696369656e742062616c616e636520666f60008301527f72207472616e73666572000000000000000000000000000000000000000000006020830152604082019050919050565b60006141bf602083614ab2565b91507f4f776e61626c653a2063616c6c6572206973206e6f7420746865206f776e65726000830152602082019050919050565b60006141ff602983614ab2565b91507f455243313135353a2073657474696e6720617070726f76616c2073746174757360008301527f20666f722073656c6600000000000000000000000000000000000000000000006020830152604082019050919050565b6000614265602983614ab2565b91507f455243313135353a206163636f756e747320616e6420696473206c656e67746860008301527f206d69736d6174636800000000000000000000000000000000000000000000006020830152604082019050919050565b60006142cb602883614ab2565b91507f455243313135353a2069647320616e6420616d6f756e7473206c656e6774682060008301527f6d69736d617463680000000000000000000000000000000000000000000000006020830152604082019050919050565b6000614331602183614ab2565b91507f455243313135353a206d696e7420746f20746865207a65726f2061646472657360008301527f73000000000000000000000000000000000000000000000000000000000000006020830152604082019050919050565b6080820160008201516143a060008501826143df565b5060208201516143b360208501826143df565b5060408201516143c660408501826143df565b5060608201516143d960608501826143ee565b50505050565b6143e881614c99565b82525050565b6143f781614cc7565b82525050565b61440681614cc7565b82525050565b60006144188285613af7565b91506144248284613ac6565b91508190509392505050565b600060208201905061444560008301846139c9565b92915050565b600060a08201905061446060008301886139c9565b61446d60208301876139c9565b818103604083015261447f81866139d8565b9050818103606083015261449381856139d8565b905081810360808301526144a78184613a45565b90509695505050505050565b60006060820190506144c860008301866139c9565b6144d560208301856139c9565b6144e260408301846143fd565b949350505050565b600060a0820190506144ff60008301886139c9565b61450c60208301876139c9565b61451960408301866143fd565b61452660608301856143fd565b81810360808301526145388184613a45565b90509695505050505050565b6000602082019050818103600083015261455e81846139d8565b905092915050565b6000604082019050818103600083015261458081856139d8565b9050818103602083015261459481846139d8565b90509392505050565b60006020820190506145b26000830184613a36565b92915050565b60006020820190506145cd6000830184613a7e565b92915050565b600060208201905081810360008301526145ed8184613a8d565b905092915050565b6000602082019050818103600083015261460e81613b76565b9050919050565b6000602082019050818103600083015261462e81613bdc565b9050919050565b6000602082019050818103600083015261464e81613c42565b9050919050565b6000602082019050818103600083015261466e81613c82565b9050919050565b6000602082019050818103600083015261468e81613cc2565b9050919050565b600060208201905081810360008301526146ae81613d28565b9050919050565b600060208201905081810360008301526146ce81613d8e565b9050919050565b600060208201905081810360008301526146ee81613dce565b9050919050565b6000602082019050818103600083015261470e81613e0e565b9050919050565b6000602082019050818103600083015261472e81613e74565b9050919050565b6000602082019050818103600083015261474e81613eb4565b9050919050565b6000602082019050818103600083015261476e81613ef4565b9050919050565b6000602082019050818103600083015261478e81613f5a565b9050919050565b600060208201905081810360008301526147ae81613f9a565b9050919050565b600060208201905081810360008301526147ce81614000565b9050919050565b600060208201905081810360008301526147ee81614066565b9050919050565b6000602082019050818103600083015261480e816140a6565b9050919050565b6000602082019050818103600083015261482e816140e6565b9050919050565b6000602082019050818103600083015261484e8161414c565b9050919050565b6000602082019050818103600083015261486e816141b2565b9050919050565b6000602082019050818103600083015261488e816141f2565b9050919050565b600060208201905081810360008301526148ae81614258565b9050919050565b600060208201905081810360008301526148ce816142be565b9050919050565b600060208201905081810360008301526148ee81614324565b9050919050565b600060808201905061490a600083018461438a565b92915050565b600060208201905061492560008301846143fd565b92915050565b600060408201905061494060008301856143fd565b61494d60208301846143fd565b9392505050565b6000604051905081810181811067ffffffffffffffff8211171561497b5761497a614e70565b5b8060405250919050565b600067ffffffffffffffff8211156149a05761499f614e70565b5b602082029050602081019050919050565b600067ffffffffffffffff8211156149cc576149cb614e70565b5b602082029050602081019050919050565b600067ffffffffffffffff8211156149f8576149f7614e70565b5b601f19601f8301169050602081019050919050565b600067ffffffffffffffff821115614a2857614a27614e70565b5b601f19601f8301169050602081019050919050565b6000819050602082019050919050565b60008190508160005260206000209050919050565b600081519050919050565b600081519050919050565b600081519050919050565b6000602082019050919050565b600082825260208201905092915050565b600082825260208201905092915050565b600082825260208201905092915050565b600081905092915050565b6000614ad982614c99565b9150614ae483614c99565b92508261ffff03821115614afb57614afa614de3565b5b828201905092915050565b6000614b1182614cc7565b9150614b1c83614cc7565b9250827fffffffffffffffffffffffffffffffffffffffffffffffffffffffffffffffff03821115614b5157614b50614de3565b5b828201905092915050565b6000614b6782614cc7565b9150614b7283614cc7565b925082614b8257614b81614e12565b5b828204905092915050565b6000614b9882614cc7565b9150614ba383614cc7565b9250817fffffffffffffffffffffffffffffffffffffffffffffffffffffffffffffffff0483118215151615614bdc57614bdb614de3565b5b828202905092915050565b6000614bf282614c99565b9150614bfd83614c99565b925082821015614c1057614c0f614de3565b5b828203905092915050565b6000614c2682614cc7565b9150614c3183614cc7565b925082821015614c4457614c43614de3565b5b828203905092915050565b6000614c5a82614ca7565b9050919050565b60008115159050919050565b60007fffffffff0000000000000000000000000000000000000000000000000000000082169050919050565b600061ffff82169050919050565b600073ffffffffffffffffffffffffffffffffffffffff82169050919050565b6000819050919050565b6000614cdc82614ce3565b9050919050565b6000614cee82614ca7565b9050919050565b82818337600083830152505050565b60005b83811015614d22578082015181840152602081019050614d07565b83811115614d31576000848401525b50505050565b60006002820490506001821680614d4f57607f821691505b60208210811415614d6357614d62614e41565b5b50919050565b6000614d7482614cc7565b91507fffffffffffffffffffffffffffffffffffffffffffffffffffffffffffffffff821415614da757614da6614de3565b5b600182019050919050565b6000614dbd82614cc7565b9150614dc883614cc7565b925082614dd857614dd7614e12565b5b828206905092915050565b7f4e487b7100000000000000000000000000000000000000000000000000000000600052601160045260246000fd5b7f4e487b7100000000000000000000000000000000000000000000000000000000600052601260045260246000fd5b7f4e487b7100000000000000000000000000000000000000000000000000000000600052602260045260246000fd5b7f4e487b7100000000000000000000000000000000000000000000000000000000600052604160045260246000fd5b6000601f19601f8301169050919050565b60008160e01c9050919050565b600060443d1015614ecd57614f70565b60046000803e614ede600051614eb0565b6308c379a08114614eef5750614f70565b60405160043d036004823e80513d602482011167ffffffffffffffff82111715614f1b57505050614f70565b808201805167ffffffffffffffff811115614f3a575050505050614f70565b8060208301013d8501811115614f5557505050505050614f70565b614f5e82614e9f565b60208401016040528296505050505050505b90565b614f7c81614c4f565b8114614f8757600080fd5b50565b614f9381614c61565b8114614f9e57600080fd5b50565b614faa81614c6d565b8114614fb557600080fd5b50565b614fc181614c99565b8114614fcc57600080fd5b50565b614fd881614cc7565b8114614fe357600080fd5b5056fea2646970667358221220a2f92fb9b231874e2323b8e064d9e69b29db2731890a75f4b71b8dbf186184e764736f6c63430008000033",
  "immutableReferences": {},
  "source": "// SPDX-License-Identifier: MIT\r\npragma solidity ^0.8.0;\r\n\r\nimport \"@openzeppelin/contracts/access/Ownable.sol\";\r\nimport \"@openzeppelin/contracts/security/Pausable.sol\";\r\nimport \"@openzeppelin/contracts/utils/math/Math.sol\";\r\nimport \"@openzeppelin/contracts/token/ERC1155/ERC1155.sol\";\r\nimport \"@openzeppelin/contracts/utils/Strings.sol\";\r\n\r\nimport \"./interfaces/IBirdBath.sol\";\r\nimport \"./interfaces/IDirt.sol\";\r\n\r\n\r\ncontract BirdBath is IBirdBath, ERC1155, Ownable, Pausable {\r\n    using Strings for uint256;\r\n    string private baseURI;\r\n\r\n    //This is the struct which we will use to handle what the returns for burning a token is \r\n    struct TypeInfo {\r\n        uint16 mints;\r\n        uint16 burns;\r\n        uint16 maxSupply;\r\n        uint256 dirtExchangeAmount;\r\n    }\r\n    struct LastWrite {\r\n        uint64 time;\r\n        uint64 blockNum;\r\n    }\r\n\r\n    // Tracks the last block and timestamp that a caller has written to state.\r\n    // Disallow some access to functions if they occur while a change is being written.\r\n    mapping(address => LastWrite) private lastWrite;\r\n\r\n    mapping(uint256 => TypeInfo) private typeInfo;\r\n\r\n    // address => allowedToCallFunctions\r\n    mapping(address => bool) private admins;\r\n\r\n    // reference to the $GP contract for minting $GP earnings\r\n    IDirt public dirtContract;\r\n\r\n    constructor(string memory _baseURI) ERC1155(_baseURI) {\r\n        baseURI =_baseURI;\r\n        _pause();\r\n    }\r\n\r\n    modifier disallowIfStateIsChanging() {\r\n        // frens can always call whenever they want :)\r\n        require(admins[_msgSender()] || lastWrite[tx.origin].blockNum < block.number, \"hmmmm what doing?\");\r\n        _;\r\n    }\r\n\r\n    /** CRITICAL TO SETUP */\r\n\r\n    modifier requireContractsSet() {\r\n        require(address(dirtContract) != address(0), \"Contracts not set\");\r\n        _;\r\n    }\r\n\r\n    function setContracts(address _dirtContract) external onlyOwner {\r\n        dirtContract = IDirt(_dirtContract);\r\n    }\r\n\r\n    /** \r\n    * Mint a token - any payment / game logic should be handled in the game contract. \r\n    */\r\n    function mint(uint256 typeId, uint16 qty, address recipient) external override whenNotPaused {\r\n        require(admins[_msgSender()], \"Only admins can call this\");\r\n        require(typeInfo[typeId].mints - typeInfo[typeId].burns + qty <= typeInfo[typeId].maxSupply, \"All tokens minted\");\r\n        if(typeInfo[typeId].dirtExchangeAmount > 0) {\r\n            // If the ERC1155 is swapped for $GP, transfer the GP to this contract in case the swap back is desired.\r\n            // NOTE: This will fail if the origin doesn't have the required amount of $GP\r\n            dirtContract.transferFrom(tx.origin, address(this), typeInfo[typeId].dirtExchangeAmount * qty);\r\n        }\r\n        typeInfo[typeId].mints += qty;\r\n        _mint(recipient, typeId, qty, \"\");\r\n    }\r\n\r\n    /** \r\n    * Burn a token - any payment / game logic should be handled in the game contract. \r\n    */\r\n    function burn(uint256 typeId, uint16 qty, address burnFrom) external override whenNotPaused {\r\n        require(admins[_msgSender()], \"Only admins can call this\");\r\n        if(typeInfo[typeId].dirtExchangeAmount > 0) {\r\n            // If the ERC1155 was swapped from $GP, transfer the GP from this contract back to whoever owns this token now.\r\n            dirtContract.transferFrom(address(this), tx.origin, typeInfo[typeId].dirtExchangeAmount * qty);\r\n        }\r\n        typeInfo[typeId].burns += qty;\r\n        _burn(burnFrom, typeId, qty);\r\n    }\r\n    \r\n    function setType(uint256 typeId, uint16 maxSupply) external onlyOwner {\r\n        require(typeInfo[typeId].mints <= maxSupply, \"max supply too low\");\r\n        typeInfo[typeId].maxSupply = maxSupply;\r\n    }\r\n    \r\n    function setExchangeAmt(uint256 typeId, uint256 exchangeAmt) external onlyOwner {\r\n        require(typeInfo[typeId].maxSupply > 0, \"this type has not been set up\");\r\n        typeInfo[typeId].dirtExchangeAmount = exchangeAmt;\r\n    }\r\n\r\n    function updateOriginAccess() external override {\r\n        require(admins[_msgSender()], \"Only admins can call this\");\r\n        lastWrite[tx.origin].blockNum = uint64(block.number);\r\n        lastWrite[tx.origin].time = uint64(block.timestamp);\r\n    }\r\n\r\n    /**\r\n    * enables an address to mint / burn\r\n    * @param addr the address to enable\r\n    */\r\n    function addAdmin(address addr) external onlyOwner {\r\n        admins[addr] = true;\r\n    }\r\n\r\n    /**\r\n    * disables an address from minting / burning\r\n    * @param addr the address to disbale\r\n    */\r\n    function removeAdmin(address addr) external onlyOwner {\r\n        admins[addr] = false;\r\n    }\r\n\r\n    function setPaused(bool _paused) external onlyOwner requireContractsSet {\r\n        if (_paused) _pause();\r\n        else _unpause();\r\n    }\r\n\r\n    function setBaseUri(string memory _baseURI) external onlyOwner {\r\n        baseURI = _baseURI;\r\n    }\r\n\r\n    function getInfoForType(uint256 typeId) external view disallowIfStateIsChanging returns(TypeInfo memory) {\r\n        require(typeInfo[typeId].maxSupply > 0, \"invalid type\");\r\n        return typeInfo[typeId];\r\n    }\r\n\r\n    function uri(uint256 typeId)\r\n        public\r\n        view                \r\n        override\r\n        returns (string memory)\r\n    {\r\n        require(typeInfo[typeId].maxSupply > 0, \"invalid type\");\r\n        return bytes(baseURI).length > 0 ? string(abi.encodePacked(baseURI, typeId.toString())) : baseURI;\r\n    }\r\n\r\n    function safeTransferFrom(\r\n        address from,\r\n        address to,\r\n        uint256 id,\r\n        uint256 amount,\r\n        bytes memory data\r\n    ) public virtual override(ERC1155, IBirdBath) {\r\n        // allow admin contracts to be send without approval\r\n        if(!admins[_msgSender()]) {\r\n            require(\r\n                from == _msgSender() || isApprovedForAll(from, _msgSender()),\r\n                \"ERC1155: caller is not owner nor approved\"\r\n            );\r\n        }\r\n        _safeTransferFrom(from, to, id, amount, data);\r\n    }\r\n\r\n    /** SECURITEEEEEEE */\r\n    \r\n    function balanceOf(address account, uint256 id) public view virtual override(ERC1155, IBirdBath) disallowIfStateIsChanging returns (uint256) {\r\n        // Y U checking on this address in the same block it's being modified... hmmmm\r\n        require(admins[_msgSender()] || lastWrite[account].blockNum < block.number, \"hmmmm what doing?\");\r\n        return super.balanceOf(account, id);\r\n    }\r\n}\r\n",
  "sourcePath": "C:\\Users\\Teddy Ingrassia\\Development\\worm-game\\src\\backend\\contracts\\BirdBath.sol",
  "compiler": {
    "name": "solc",
    "version": "0.8.0+commit.c7dfd78e.Emscripten.clang"
  },
  "schemaVersion": "3.4.4",
  "updatedAt": "2022-03-08T22:17:15.057Z",
  "networkType": "ethereum",
  "devdoc": {
    "kind": "dev",
    "methods": {
      "addAdmin(address)": {
        "params": {
          "addr": "the address to enable"
        }
      },
      "balanceOfBatch(address[],uint256[])": {
        "details": "See {IERC1155-balanceOfBatch}. Requirements: - `accounts` and `ids` must have the same length."
      },
      "isApprovedForAll(address,address)": {
        "details": "See {IERC1155-isApprovedForAll}."
      },
      "owner()": {
        "details": "Returns the address of the current owner."
      },
      "paused()": {
        "details": "Returns true if the contract is paused, and false otherwise."
      },
      "removeAdmin(address)": {
        "params": {
          "addr": "the address to disbale"
        }
      },
      "renounceOwnership()": {
        "details": "Leaves the contract without owner. It will not be possible to call `onlyOwner` functions anymore. Can only be called by the current owner. NOTE: Renouncing ownership will leave the contract without an owner, thereby removing any functionality that is only available to the owner."
      },
      "safeBatchTransferFrom(address,address,uint256[],uint256[],bytes)": {
        "details": "See {IERC1155-safeBatchTransferFrom}."
      },
      "setApprovalForAll(address,bool)": {
        "details": "See {IERC1155-setApprovalForAll}."
      },
      "supportsInterface(bytes4)": {
        "details": "See {IERC165-supportsInterface}."
      },
      "transferOwnership(address)": {
        "details": "Transfers ownership of the contract to a new account (`newOwner`). Can only be called by the current owner."
      }
    },
    "version": 1
  },
  "userdoc": {
    "kind": "user",
    "methods": {
      "addAdmin(address)": {
        "notice": "enables an address to mint / burn"
      },
      "balanceOf(address,uint256)": {
        "notice": "SECURITEEEEEEE "
      },
      "burn(uint256,uint16,address)": {
        "notice": "Burn a token - any payment / game logic should be handled in the game contract. "
      },
      "mint(uint256,uint16,address)": {
        "notice": "Mint a token - any payment / game logic should be handled in the game contract. "
      },
      "removeAdmin(address)": {
        "notice": "disables an address from minting / burning"
      }
    },
    "version": 1
  }
}