{
  "contractName": "EarlyBirdsNFT",
  "abi": [
    {
      "inputs": [
        {
          "internalType": "address",
          "name": "_dirtContract",
          "type": "address"
        },
        {
          "internalType": "address",
          "name": "_earlyBirdsGame",
          "type": "address"
        },
        {
          "internalType": "address",
          "name": "_random",
          "type": "address"
        },
        {
          "internalType": "address",
          "name": "_testERC20",
          "type": "address"
        },
        {
          "internalType": "address",
          "name": "_ancientTree",
          "type": "address"
        }
      ],
      "stateMutability": "nonpayable",
      "type": "constructor"
    },
    {
      "anonymous": false,
      "inputs": [
        {
          "indexed": true,
          "internalType": "address",
          "name": "owner",
          "type": "address"
        },
        {
          "indexed": true,
          "internalType": "address",
          "name": "approved",
          "type": "address"
        },
        {
          "indexed": true,
          "internalType": "uint256",
          "name": "tokenId",
          "type": "uint256"
        }
      ],
      "name": "Approval",
      "type": "event"
    },
    {
      "anonymous": false,
      "inputs": [
        {
          "indexed": true,
          "internalType": "address",
          "name": "owner",
          "type": "address"
        },
        {
          "indexed": true,
          "internalType": "address",
          "name": "operator",
          "type": "address"
        },
        {
          "indexed": false,
          "internalType": "bool",
          "name": "approved",
          "type": "bool"
        }
      ],
      "name": "ApprovalForAll",
      "type": "event"
    },
    {
      "anonymous": false,
      "inputs": [
        {
          "indexed": true,
          "internalType": "uint256",
          "name": "tokenId",
          "type": "uint256"
        }
      ],
      "name": "BirdBurned",
      "type": "event"
    },
    {
      "anonymous": false,
      "inputs": [
        {
          "indexed": true,
          "internalType": "uint256",
          "name": "tokenId",
          "type": "uint256"
        }
      ],
      "name": "BirdMinted",
      "type": "event"
    },
    {
      "anonymous": false,
      "inputs": [
        {
          "indexed": true,
          "internalType": "uint256",
          "name": "tokenId",
          "type": "uint256"
        },
        {
          "indexed": false,
          "internalType": "address",
          "name": "recipient",
          "type": "address"
        }
      ],
      "name": "BirdStolen",
      "type": "event"
    },
    {
      "anonymous": false,
      "inputs": [
        {
          "indexed": true,
          "internalType": "address",
          "name": "previousOwner",
          "type": "address"
        },
        {
          "indexed": true,
          "internalType": "address",
          "name": "newOwner",
          "type": "address"
        }
      ],
      "name": "OwnershipTransferred",
      "type": "event"
    },
    {
      "anonymous": false,
      "inputs": [
        {
          "indexed": false,
          "internalType": "address",
          "name": "account",
          "type": "address"
        }
      ],
      "name": "Paused",
      "type": "event"
    },
    {
      "anonymous": false,
      "inputs": [
        {
          "indexed": true,
          "internalType": "address",
          "name": "from",
          "type": "address"
        },
        {
          "indexed": true,
          "internalType": "address",
          "name": "to",
          "type": "address"
        },
        {
          "indexed": true,
          "internalType": "uint256",
          "name": "tokenId",
          "type": "uint256"
        }
      ],
      "name": "Transfer",
      "type": "event"
    },
    {
      "anonymous": false,
      "inputs": [
        {
          "indexed": false,
          "internalType": "address",
          "name": "account",
          "type": "address"
        }
      ],
      "name": "Unpaused",
      "type": "event"
    },
    {
      "anonymous": false,
      "inputs": [
        {
          "indexed": true,
          "internalType": "uint256",
          "name": "tokenId",
          "type": "uint256"
        }
      ],
      "name": "WormBurned",
      "type": "event"
    },
    {
      "anonymous": false,
      "inputs": [
        {
          "indexed": true,
          "internalType": "uint256",
          "name": "tokenId",
          "type": "uint256"
        }
      ],
      "name": "WormMinted",
      "type": "event"
    },
    {
      "anonymous": false,
      "inputs": [
        {
          "indexed": true,
          "internalType": "uint256",
          "name": "tokenId",
          "type": "uint256"
        },
        {
          "indexed": false,
          "internalType": "address",
          "name": "recipient",
          "type": "address"
        }
      ],
      "name": "WormStolen",
      "type": "event"
    },
    {
      "inputs": [],
      "name": "MINT_PRICE",
      "outputs": [
        {
          "internalType": "uint256",
          "name": "",
          "type": "uint256"
        }
      ],
      "stateMutability": "view",
      "type": "function"
    },
    {
      "inputs": [
        {
          "internalType": "uint256",
          "name": "",
          "type": "uint256"
        },
        {
          "internalType": "uint256",
          "name": "",
          "type": "uint256"
        }
      ],
      "name": "aliases",
      "outputs": [
        {
          "internalType": "uint8",
          "name": "",
          "type": "uint8"
        }
      ],
      "stateMutability": "view",
      "type": "function"
    },
    {
      "inputs": [
        {
          "internalType": "address",
          "name": "to",
          "type": "address"
        },
        {
          "internalType": "uint256",
          "name": "tokenId",
          "type": "uint256"
        }
      ],
      "name": "approve",
      "outputs": [],
      "stateMutability": "nonpayable",
      "type": "function"
    },
    {
      "inputs": [
        {
          "internalType": "address",
          "name": "owner",
          "type": "address"
        }
      ],
      "name": "balanceOf",
      "outputs": [
        {
          "internalType": "uint256",
          "name": "",
          "type": "uint256"
        }
      ],
      "stateMutability": "view",
      "type": "function"
    },
    {
      "inputs": [
        {
          "internalType": "uint256",
          "name": "tokenId",
          "type": "uint256"
        }
      ],
      "name": "getApproved",
      "outputs": [
        {
          "internalType": "address",
          "name": "",
          "type": "address"
        }
      ],
      "stateMutability": "view",
      "type": "function"
    },
    {
      "inputs": [
        {
          "internalType": "address",
          "name": "owner",
          "type": "address"
        },
        {
          "internalType": "address",
          "name": "operator",
          "type": "address"
        }
      ],
      "name": "isApprovedForAll",
      "outputs": [
        {
          "internalType": "bool",
          "name": "",
          "type": "bool"
        }
      ],
      "stateMutability": "view",
      "type": "function"
    },
    {
      "inputs": [],
      "name": "maxGen0",
      "outputs": [
        {
          "internalType": "uint256",
          "name": "",
          "type": "uint256"
        }
      ],
      "stateMutability": "view",
      "type": "function"
    },
    {
      "inputs": [],
      "name": "maxTokens",
      "outputs": [
        {
          "internalType": "uint256",
          "name": "",
          "type": "uint256"
        }
      ],
      "stateMutability": "view",
      "type": "function"
    },
    {
      "inputs": [],
      "name": "name",
      "outputs": [
        {
          "internalType": "string",
          "name": "",
          "type": "string"
        }
      ],
      "stateMutability": "view",
      "type": "function"
    },
    {
      "inputs": [
        {
          "internalType": "address",
          "name": "",
          "type": "address"
        }
      ],
      "name": "numGen0Minted",
      "outputs": [
        {
          "internalType": "uint32",
          "name": "",
          "type": "uint32"
        }
      ],
      "stateMutability": "view",
      "type": "function"
    },
    {
      "inputs": [],
      "name": "numMinted",
      "outputs": [
        {
          "internalType": "uint16",
          "name": "",
          "type": "uint16"
        }
      ],
      "stateMutability": "view",
      "type": "function"
    },
    {
      "inputs": [],
      "name": "owner",
      "outputs": [
        {
          "internalType": "address",
          "name": "",
          "type": "address"
        }
      ],
      "stateMutability": "view",
      "type": "function"
    },
    {
      "inputs": [],
      "name": "paused",
      "outputs": [
        {
          "internalType": "bool",
          "name": "",
          "type": "bool"
        }
      ],
      "stateMutability": "view",
      "type": "function"
    },
    {
      "inputs": [
        {
          "internalType": "uint256",
          "name": "",
          "type": "uint256"
        },
        {
          "internalType": "uint256",
          "name": "",
          "type": "uint256"
        }
      ],
      "name": "rarities",
      "outputs": [
        {
          "internalType": "uint8",
          "name": "",
          "type": "uint8"
        }
      ],
      "stateMutability": "view",
      "type": "function"
    },
    {
      "inputs": [],
      "name": "renounceOwnership",
      "outputs": [],
      "stateMutability": "nonpayable",
      "type": "function"
    },
    {
      "inputs": [
        {
          "internalType": "address",
          "name": "operator",
          "type": "address"
        },
        {
          "internalType": "bool",
          "name": "approved",
          "type": "bool"
        }
      ],
      "name": "setApprovalForAll",
      "outputs": [],
      "stateMutability": "nonpayable",
      "type": "function"
    },
    {
      "inputs": [
        {
          "internalType": "bytes4",
          "name": "interfaceId",
          "type": "bytes4"
        }
      ],
      "name": "supportsInterface",
      "outputs": [
        {
          "internalType": "bool",
          "name": "",
          "type": "bool"
        }
      ],
      "stateMutability": "view",
      "type": "function"
    },
    {
      "inputs": [],
      "name": "symbol",
      "outputs": [
        {
          "internalType": "string",
          "name": "",
          "type": "string"
        }
      ],
      "stateMutability": "view",
      "type": "function"
    },
    {
      "inputs": [
        {
          "internalType": "uint256",
          "name": "index",
          "type": "uint256"
        }
      ],
      "name": "tokenByIndex",
      "outputs": [
        {
          "internalType": "uint256",
          "name": "",
          "type": "uint256"
        }
      ],
      "stateMutability": "view",
      "type": "function"
    },
    {
      "inputs": [
        {
          "internalType": "address",
          "name": "owner",
          "type": "address"
        },
        {
          "internalType": "uint256",
          "name": "index",
          "type": "uint256"
        }
      ],
      "name": "tokenOfOwnerByIndex",
      "outputs": [
        {
          "internalType": "uint256",
          "name": "",
          "type": "uint256"
        }
      ],
      "stateMutability": "view",
      "type": "function"
    },
    {
      "inputs": [
        {
          "internalType": "uint256",
          "name": "tokenId",
          "type": "uint256"
        }
      ],
      "name": "tokenURI",
      "outputs": [
        {
          "internalType": "string",
          "name": "",
          "type": "string"
        }
      ],
      "stateMutability": "view",
      "type": "function"
    },
    {
      "inputs": [],
      "name": "totalSupply",
      "outputs": [
        {
          "internalType": "uint256",
          "name": "",
          "type": "uint256"
        }
      ],
      "stateMutability": "view",
      "type": "function"
    },
    {
      "inputs": [
        {
          "internalType": "address",
          "name": "newOwner",
          "type": "address"
        }
      ],
      "name": "transferOwnership",
      "outputs": [],
      "stateMutability": "nonpayable",
      "type": "function"
    },
    {
      "inputs": [
        {
          "internalType": "address",
          "name": "recipient",
          "type": "address"
        },
        {
          "internalType": "uint256",
          "name": "seed",
          "type": "uint256"
        }
      ],
      "name": "mint",
      "outputs": [],
      "stateMutability": "nonpayable",
      "type": "function"
    },
    {
      "inputs": [
        {
          "internalType": "uint256",
          "name": "tokenId",
          "type": "uint256"
        }
      ],
      "name": "burn",
      "outputs": [],
      "stateMutability": "nonpayable",
      "type": "function"
    },
    {
      "inputs": [
        {
          "internalType": "uint16",
          "name": "tokenId",
          "type": "uint16"
        }
      ],
      "name": "getMintDirtCost",
      "outputs": [
        {
          "internalType": "uint256",
          "name": "",
          "type": "uint256"
        }
      ],
      "stateMutability": "view",
      "type": "function"
    },
    {
      "inputs": [
        {
          "internalType": "address",
          "name": "owner",
          "type": "address"
        }
      ],
      "name": "tokensOf",
      "outputs": [
        {
          "internalType": "uint16[]",
          "name": "",
          "type": "uint16[]"
        }
      ],
      "stateMutability": "view",
      "type": "function"
    },
    {
      "inputs": [],
      "name": "getMaxTokens",
      "outputs": [
        {
          "internalType": "uint256",
          "name": "",
          "type": "uint256"
        }
      ],
      "stateMutability": "pure",
      "type": "function"
    },
    {
      "inputs": [],
      "name": "getMaxMint",
      "outputs": [
        {
          "internalType": "uint256",
          "name": "",
          "type": "uint256"
        }
      ],
      "stateMutability": "view",
      "type": "function"
    },
    {
      "inputs": [],
      "name": "getGen0Supply",
      "outputs": [
        {
          "internalType": "uint256",
          "name": "",
          "type": "uint256"
        }
      ],
      "stateMutability": "pure",
      "type": "function"
    },
    {
      "inputs": [
        {
          "internalType": "uint16",
          "name": "tokenId",
          "type": "uint16"
        }
      ],
      "name": "getTraits",
      "outputs": [
        {
          "components": [
            {
              "internalType": "bool",
              "name": "isWorm",
              "type": "bool"
            },
            {
              "internalType": "uint8",
              "name": "body",
              "type": "uint8"
            },
            {
              "internalType": "uint8",
              "name": "eyes",
              "type": "uint8"
            },
            {
              "internalType": "uint8",
              "name": "mouth",
              "type": "uint8"
            },
            {
              "internalType": "uint8",
              "name": "hat",
              "type": "uint8"
            },
            {
              "internalType": "uint8",
              "name": "facialAccessory",
              "type": "uint8"
            },
            {
              "internalType": "uint8",
              "name": "tail",
              "type": "uint8"
            },
            {
              "internalType": "uint8",
              "name": "heldItem",
              "type": "uint8"
            },
            {
              "internalType": "uint8",
              "name": "size",
              "type": "uint8"
            }
          ],
          "internalType": "struct IEarlyBirdsNFT.WormBirdTraits",
          "name": "",
          "type": "tuple"
        }
      ],
      "stateMutability": "view",
      "type": "function"
    },
    {
      "inputs": [],
      "name": "getNumMinted",
      "outputs": [
        {
          "internalType": "uint16",
          "name": "",
          "type": "uint16"
        }
      ],
      "stateMutability": "view",
      "type": "function"
    },
    {
      "inputs": [],
      "name": "setInitialRandomSeed",
      "outputs": [],
      "stateMutability": "nonpayable",
      "type": "function"
    },
    {
      "inputs": [],
      "name": "getRandomSeed",
      "outputs": [
        {
          "internalType": "uint256",
          "name": "",
          "type": "uint256"
        }
      ],
      "stateMutability": "nonpayable",
      "type": "function"
    },
    {
      "inputs": [
        {
          "internalType": "uint16",
          "name": "_maxMint",
          "type": "uint16"
        }
      ],
      "name": "setMaxMintAmount",
      "outputs": [],
      "stateMutability": "nonpayable",
      "type": "function"
    },
    {
      "inputs": [
        {
          "internalType": "uint256",
          "name": "tokenId",
          "type": "uint256"
        }
      ],
      "name": "getTokenWriteBlock",
      "outputs": [
        {
          "internalType": "uint64",
          "name": "",
          "type": "uint64"
        }
      ],
      "stateMutability": "view",
      "type": "function"
    },
    {
      "inputs": [
        {
          "internalType": "uint16[]",
          "name": "tokenIds",
          "type": "uint16[]"
        }
      ],
      "name": "updateOriginAccess",
      "outputs": [],
      "stateMutability": "nonpayable",
      "type": "function"
    },
    {
      "inputs": [
        {
          "internalType": "uint256",
          "name": "tokenId",
          "type": "uint256"
        }
      ],
      "name": "isWorm",
      "outputs": [
        {
          "internalType": "bool",
          "name": "",
          "type": "bool"
        }
      ],
      "stateMutability": "view",
      "type": "function"
    },
    {
      "inputs": [
        {
          "internalType": "address",
          "name": "addr",
          "type": "address"
        }
      ],
      "name": "addAdmin",
      "outputs": [],
      "stateMutability": "nonpayable",
      "type": "function"
    },
    {
      "inputs": [
        {
          "internalType": "address",
          "name": "addr",
          "type": "address"
        }
      ],
      "name": "removeAdmin",
      "outputs": [],
      "stateMutability": "nonpayable",
      "type": "function"
    },
    {
      "inputs": [
        {
          "internalType": "uint256",
          "name": "tokenId",
          "type": "uint256"
        }
      ],
      "name": "ownerOf",
      "outputs": [
        {
          "internalType": "address",
          "name": "",
          "type": "address"
        }
      ],
      "stateMutability": "view",
      "type": "function"
    },
    {
      "inputs": [
        {
          "internalType": "address",
          "name": "from",
          "type": "address"
        },
        {
          "internalType": "address",
          "name": "to",
          "type": "address"
        },
        {
          "internalType": "uint256",
          "name": "tokenId",
          "type": "uint256"
        }
      ],
      "name": "transferFrom",
      "outputs": [],
      "stateMutability": "nonpayable",
      "type": "function"
    },
    {
      "inputs": [
        {
          "internalType": "address",
          "name": "from",
          "type": "address"
        },
        {
          "internalType": "address",
          "name": "to",
          "type": "address"
        },
        {
          "internalType": "uint256",
          "name": "tokenId",
          "type": "uint256"
        }
      ],
      "name": "safeTransferFrom",
      "outputs": [],
      "stateMutability": "nonpayable",
      "type": "function"
    },
    {
      "inputs": [
        {
          "internalType": "address",
          "name": "from",
          "type": "address"
        },
        {
          "internalType": "address",
          "name": "to",
          "type": "address"
        },
        {
          "internalType": "uint256",
          "name": "tokenId",
          "type": "uint256"
        },
        {
          "internalType": "bytes",
          "name": "_data",
          "type": "bytes"
        }
      ],
      "name": "safeTransferFrom",
      "outputs": [],
      "stateMutability": "nonpayable",
      "type": "function"
    }
  ],
  "bytecode": "0x610120604052600a8060176101000a81548161ffff021916908361ffff1602179055503480156200002f57600080fd5b5060405162007c5938038062007c59833981810160405281019062000055919062002090565b6040518060400160405280600b81526020017f4561726c792042697264730000000000000000000000000000000000000000008152506040518060400160405280600281526020017f45420000000000000000000000000000000000000000000000000000000000008152508160009080519060200190620000d99291906200184f565b508060019080519060200190620000f29291906200184f565b50505062000115620001096200178160201b60201c565b6200178960201b60201c565b6000600a60146101000a81548160ff0219169083151502179055508373ffffffffffffffffffffffffffffffffffffffff1660808173ffffffffffffffffffffffffffffffffffffffff1660601b815250508473ffffffffffffffffffffffffffffffffffffffff1660a08173ffffffffffffffffffffffffffffffffffffffff1660601b815250508273ffffffffffffffffffffffffffffffffffffffff1660c08173ffffffffffffffffffffffffffffffffffffffff1660601b815250508173ffffffffffffffffffffffffffffffffffffffff1660e08173ffffffffffffffffffffffffffffffffffffffff1660601b815250508073ffffffffffffffffffffffffffffffffffffffff166101008173ffffffffffffffffffffffffffffffffffffffff1660601b815250506040518060a0016040528060ff8016815260200160ff8016815260200160ff80168152602001603360ff168152602001600d60ff168152506010600060128110620002b8577f4e487b7100000000000000000000000000000000000000000000000000000000600052603260045260246000fd5b01906005620002c9929190620018e0565b506040518060a00160405280600060ff168152602001600160ff168152602001600260ff168152602001600160ff168152602001600060ff16815250602260006012811062000341577f4e487b7100000000000000000000000000000000000000000000000000000000600052603260045260246000fd5b0190600562000352929190620018e0565b5060405180610180016040528060ff8016815260200160ff8016815260200160ff8016815260200160ff8016815260200160ff8016815260200160ff8016815260200160ff8016815260200160ff8016815260200160be60ff168152602001608c60ff168152602001603f60ff168152602001602d60ff16815250601060016012811062000409577f4e487b7100000000000000000000000000000000000000000000000000000000600052603260045260246000fd5b0190600c6200041a9291906200198e565b50604051806101800160405280600060ff168152602001600160ff168152602001600260ff168152602001600360ff168152602001600460ff168152602001600560ff168152602001600660ff168152602001600760ff168152602001600260ff168152602001600360ff168152602001600060ff168152602001600160ff168152506022600160128110620004d9577f4e487b7100000000000000000000000000000000000000000000000000000000600052603260045260246000fd5b0190600c620004ea9291906200198e565b50604051806101400160405280604060ff168152602001604060ff168152602001608060ff168152602001608060ff168152602001608060ff168152602001608060ff16815260200160bf60ff16815260200160bf60ff16815260200160ff8016815260200160ff8016815250601060026012811062000593577f4e487b7100000000000000000000000000000000000000000000000000000000600052603260045260246000fd5b0190600a620005a492919062001a3c565b50604051806101400160405280600660ff168152602001600760ff168152602001600460ff168152602001600560ff168152602001600960ff168152602001600960ff168152602001600860ff168152602001600860ff168152602001600860ff168152602001600960ff1681525060226002601281106200064f577f4e487b7100000000000000000000000000000000000000000000000000000000600052603260045260246000fd5b0190600a6200066092919062001a3c565b5060405180610140016040528060ff8016815260200160ff8016815260200160ff8016815260200160ff8016815260200160ff8016815260200160ff80168152602001605f60ff168152602001605560ff168152602001601d60ff168152602001601060ff16815250601060036012811062000705577f4e487b7100000000000000000000000000000000000000000000000000000000600052603260045260246000fd5b0190600a6200071692919062001a3c565b50604051806101600160405280600060ff168152602001600160ff168152602001600260ff168152602001600360ff168152602001600460ff168152602001600560ff168152602001600660ff168152602001600360ff168152602001600260ff168152602001600160ff168152602001600060ff168152506022600360128110620007cb577f4e487b7100000000000000000000000000000000000000000000000000000000600052603260045260246000fd5b0190600b620007dc92919062001aea565b5060405180610180016040528060ff8016815260200160ff8016815260200160ff8016815260200160ff8016815260200160ff8016815260200160ff8016815260200160ff8016815260200160ff8016815260200160be60ff168152602001608c60ff168152602001603f60ff168152602001602d60ff16815250601060046012811062000893577f4e487b7100000000000000000000000000000000000000000000000000000000600052603260045260246000fd5b0190600c620008a49291906200198e565b50604051806101800160405280600060ff168152602001600160ff168152602001600260ff168152602001600360ff168152602001600460ff168152602001600560ff168152602001600660ff168152602001600760ff168152602001600260ff168152602001600360ff168152602001600060ff168152602001600160ff16815250602260046012811062000963577f4e487b7100000000000000000000000000000000000000000000000000000000600052603260045260246000fd5b0190600c620009749291906200198e565b5060405180610180016040528060ff8016815260200160ff8016815260200160ff8016815260200160ff8016815260200160ff8016815260200160ff8016815260200160ff80168152602001608160ff168152602001606560ff168152602001602b60ff168152602001602060ff168152602001601060ff16815250601060056012811062000a2c577f4e487b7100000000000000000000000000000000000000000000000000000000600052603260045260246000fd5b0190600c62000a3d9291906200198e565b50604051806101800160405280600060ff168152602001600160ff168152602001600260ff168152602001600360ff168152602001600460ff168152602001600560ff168152602001600660ff168152602001600460ff168152602001600360ff168152602001600260ff168152602001600160ff168152602001600060ff16815250602260056012811062000afc577f4e487b7100000000000000000000000000000000000000000000000000000000600052603260045260246000fd5b0190600c62000b0d9291906200198e565b50604051806101c0016040528060ff8016815260200160e760ff16815260200160d760ff16815260200160dc60ff16815260200160ff8016815260200160ff8016815260200160ff8016815260200160ff8016815260200160ff8016815260200160af60ff16815260200160a760ff168152602001608460ff168152602001606760ff168152602001604960ff16815250601060066012811062000bda577f4e487b7100000000000000000000000000000000000000000000000000000000600052603260045260246000fd5b0190600e62000beb92919062001b98565b50604051806101c00160405280600060ff168152602001600060ff168152602001600160ff168152602001600160ff168152602001600460ff168152602001600560ff168152602001600660ff168152602001600760ff168152602001600860ff168152602001600460ff168152602001600360ff168152602001600260ff168152602001600160ff168152602001600060ff16815250602260066012811062000cbe577f4e487b7100000000000000000000000000000000000000000000000000000000600052603260045260246000fd5b0190600e62000ccf92919062001b98565b50604051806060016040528060ff8016815260200160e960ff168152602001603160ff16815250601060076012811062000d32577f4e487b7100000000000000000000000000000000000000000000000000000000600052603260045260246000fd5b0190600362000d4392919062001c46565b506040518060600160405280600060ff168152602001600060ff168152602001600060ff16815250602260076012811062000da7577f4e487b7100000000000000000000000000000000000000000000000000000000600052603260045260246000fd5b0190600362000db892919062001c46565b506040518060e0016040528060ff8016815260200160ff8016815260200160ff8016815260200160ff80168152602001606c60ff168152602001604860ff168152602001602460ff16815250601060086012811062000e40577f4e487b7100000000000000000000000000000000000000000000000000000000600052603260045260246000fd5b0190600762000e5192919062001cf4565b506040518060e00160405280600060ff168152602001600160ff168152602001600260ff168152602001600360ff168152602001600260ff168152602001600160ff168152602001600060ff16815250602260086012811062000edd577f4e487b7100000000000000000000000000000000000000000000000000000000600052603260045260246000fd5b0190600762000eee92919062001cf4565b506040518060e0016040528060ff8016815260200160ff8016815260200160ff8016815260200160ff80168152602001607260ff168152602001604f60ff168152602001602060ff16815250601060096012811062000f76577f4e487b7100000000000000000000000000000000000000000000000000000000600052603260045260246000fd5b0190600762000f8792919062001cf4565b506040518060e00160405280600060ff168152602001600160ff168152602001600260ff168152602001600360ff168152602001600260ff168152602001600160ff168152602001600060ff16815250602260096012811062001013577f4e487b7100000000000000000000000000000000000000000000000000000000600052603260045260246000fd5b019060076200102492919062001cf4565b5060405180610100016040528060ff8016815260200160ff8016815260200160ff8016815260200160ff8016815260200160ee60ff16815260200160e160ff16815260200160b460ff168152602001609660ff168152506010600a60128110620010b7577f4e487b7100000000000000000000000000000000000000000000000000000000600052603260045260246000fd5b01906008620010c892919062001da2565b50604051806101000160405280600060ff168152602001600160ff168152602001600260ff168152602001600360ff168152602001600360ff168152602001600260ff168152602001600160ff168152602001600060ff168152506022600a601281106200115f577f4e487b7100000000000000000000000000000000000000000000000000000000600052603260045260246000fd5b019060086200117092919062001da2565b506040518060a0016040528060ff8016815260200160ff8016815260200160ff8016815260200160ff8016815260200160ff80168152506010600b60128110620011e3577f4e487b7100000000000000000000000000000000000000000000000000000000600052603260045260246000fd5b01906005620011f4929190620018e0565b506040518060c00160405280600060ff168152602001600160ff168152602001600260ff168152602001600360ff168152602001600460ff168152602001600560ff168152506022600b6012811062001276577f4e487b7100000000000000000000000000000000000000000000000000000000600052603260045260246000fd5b019060066200128792919062001e50565b5060405180610180016040528060ff8016815260200160ff8016815260200160ff8016815260200160ff8016815260200160ff8016815260200160ff8016815260200160ff8016815260200160ff8016815260200160bb60ff168152602001608f60ff168152602001604560ff168152602001603160ff168152506010600c601281106200133e577f4e487b7100000000000000000000000000000000000000000000000000000000600052603260045260246000fd5b0190600c6200134f9291906200198e565b50604051806101800160405280600060ff168152602001600160ff168152602001600260ff168152602001600360ff168152602001600460ff168152602001600560ff168152602001600660ff168152602001600760ff168152602001600260ff168152602001600360ff168152602001600060ff168152602001600160ff168152506022600c601281106200140e577f4e487b7100000000000000000000000000000000000000000000000000000000600052603260045260246000fd5b0190600c6200141f9291906200198e565b5060405180610160016040528060ff8016815260200160ff8016815260200160ff8016815260200160ff8016815260200160ff8016815260200160ff8016815260200160ff80168152602001607060ff168152602001606260ff168152602001604b60ff168152602001603260ff168152506010600d60128110620014cd577f4e487b7100000000000000000000000000000000000000000000000000000000600052603260045260246000fd5b0190600b620014de92919062001aea565b50604051806101600160405280600060ff168152602001600160ff168152602001600260ff168152602001600360ff168152602001600460ff168152602001600560ff168152602001600660ff168152602001600360ff168152602001600260ff168152602001600160ff168152602001600060ff168152506022600d6012811062001593577f4e487b7100000000000000000000000000000000000000000000000000000000600052603260045260246000fd5b0190600b620015a492919062001aea565b50604051806040016040528060ff8016815260200160ff80168152506010600e60128110620015fc577f4e487b7100000000000000000000000000000000000000000000000000000000600052603260045260246000fd5b019060026200160d92919062001efe565b506040518060400160405280600060ff168152602001600160ff168152506022600e6012811062001667577f4e487b7100000000000000000000000000000000000000000000000000000000600052603260045260246000fd5b019060026200167892919062001efe565b50604051806080016040528060ff8016815260200160dd60ff168152602001606360ff168152602001601460ff168152506010600f60128110620016e5577f4e487b7100000000000000000000000000000000000000000000000000000000600052603260045260246000fd5b01906004620016f692919062001fac565b506040518060800160405280600060ff168152602001600060ff168152602001600160ff168152602001600060ff168152506022600f6012811062001764577f4e487b7100000000000000000000000000000000000000000000000000000000600052603260045260246000fd5b019060046200177592919062001fac565b505050505050620021c5565b600033905090565b6000600a60009054906101000a900473ffffffffffffffffffffffffffffffffffffffff16905081600a60006101000a81548173ffffffffffffffffffffffffffffffffffffffff021916908373ffffffffffffffffffffffffffffffffffffffff1602179055508173ffffffffffffffffffffffffffffffffffffffff168173ffffffffffffffffffffffffffffffffffffffff167f8be0079c531659141344cd1fd0a4f28419497f9722a3daafe3b4186f6b6457e060405160405180910390a35050565b8280546200185d9062002146565b90600052602060002090601f016020900481019282620018815760008555620018cd565b82601f106200189c57805160ff1916838001178555620018cd565b82800160010185558215620018cd579182015b82811115620018cc578251825591602001919060010190620018af565b5b509050620018dc91906200205a565b5090565b82805482825590600052602060002090601f016020900481019282156200197b5791602002820160005b838211156200194a57835183826101000a81548160ff021916908360ff16021790555092602001926001016020816000010492830192600103026200190a565b8015620019795782816101000a81549060ff02191690556001016020816000010492830192600103026200194a565b505b5090506200198a91906200205a565b5090565b82805482825590600052602060002090601f0160209004810192821562001a295791602002820160005b83821115620019f857835183826101000a81548160ff021916908360ff1602179055509260200192600101602081600001049283019260010302620019b8565b801562001a275782816101000a81549060ff0219169055600101602081600001049283019260010302620019f8565b505b50905062001a3891906200205a565b5090565b82805482825590600052602060002090601f0160209004810192821562001ad75791602002820160005b8382111562001aa657835183826101000a81548160ff021916908360ff160217905550926020019260010160208160000104928301926001030262001a66565b801562001ad55782816101000a81549060ff021916905560010160208160000104928301926001030262001aa6565b505b50905062001ae691906200205a565b5090565b82805482825590600052602060002090601f0160209004810192821562001b855791602002820160005b8382111562001b5457835183826101000a81548160ff021916908360ff160217905550926020019260010160208160000104928301926001030262001b14565b801562001b835782816101000a81549060ff021916905560010160208160000104928301926001030262001b54565b505b50905062001b9491906200205a565b5090565b82805482825590600052602060002090601f0160209004810192821562001c335791602002820160005b8382111562001c0257835183826101000a81548160ff021916908360ff160217905550926020019260010160208160000104928301926001030262001bc2565b801562001c315782816101000a81549060ff021916905560010160208160000104928301926001030262001c02565b505b50905062001c4291906200205a565b5090565b82805482825590600052602060002090601f0160209004810192821562001ce15791602002820160005b8382111562001cb057835183826101000a81548160ff021916908360ff160217905550926020019260010160208160000104928301926001030262001c70565b801562001cdf5782816101000a81549060ff021916905560010160208160000104928301926001030262001cb0565b505b50905062001cf091906200205a565b5090565b82805482825590600052602060002090601f0160209004810192821562001d8f5791602002820160005b8382111562001d5e57835183826101000a81548160ff021916908360ff160217905550926020019260010160208160000104928301926001030262001d1e565b801562001d8d5782816101000a81549060ff021916905560010160208160000104928301926001030262001d5e565b505b50905062001d9e91906200205a565b5090565b82805482825590600052602060002090601f0160209004810192821562001e3d5791602002820160005b8382111562001e0c57835183826101000a81548160ff021916908360ff160217905550926020019260010160208160000104928301926001030262001dcc565b801562001e3b5782816101000a81549060ff021916905560010160208160000104928301926001030262001e0c565b505b50905062001e4c91906200205a565b5090565b82805482825590600052602060002090601f0160209004810192821562001eeb5791602002820160005b8382111562001eba57835183826101000a81548160ff021916908360ff160217905550926020019260010160208160000104928301926001030262001e7a565b801562001ee95782816101000a81549060ff021916905560010160208160000104928301926001030262001eba565b505b50905062001efa91906200205a565b5090565b82805482825590600052602060002090601f0160209004810192821562001f995791602002820160005b8382111562001f6857835183826101000a81548160ff021916908360ff160217905550926020019260010160208160000104928301926001030262001f28565b801562001f975782816101000a81549060ff021916905560010160208160000104928301926001030262001f68565b505b50905062001fa891906200205a565b5090565b82805482825590600052602060002090601f01602090048101928215620020475791602002820160005b838211156200201657835183826101000a81548160ff021916908360ff160217905550926020019260010160208160000104928301926001030262001fd6565b8015620020455782816101000a81549060ff021916905560010160208160000104928301926001030262002016565b505b5090506200205691906200205a565b5090565b5b80821115620020755760008160009055506001016200205b565b5090565b6000815190506200208a81620021ab565b92915050565b600080600080600060a08688031215620020a957600080fd5b6000620020b98882890162002079565b9550506020620020cc8882890162002079565b9450506040620020df8882890162002079565b9350506060620020f28882890162002079565b9250506080620021058882890162002079565b9150509295509295909350565b60006200211f8262002126565b9050919050565b600073ffffffffffffffffffffffffffffffffffffffff82169050919050565b600060028204905060018216806200215f57607f821691505b602082108114156200217657620021756200217c565b5b50919050565b7f4e487b7100000000000000000000000000000000000000000000000000000000600052602260045260246000fd5b620021b68162002112565b8114620021c257600080fd5b50565b60805160601c60a05160601c60c05160601c60e05160601c6101005160601c615a3f6200221a600039600061134a01526000505060008181611bd10152611f54015260005050600061113e0152615a3f6000f3fe608060405234801561001057600080fd5b50600436106102745760003560e01c806354c96c831161015157806393b3cc6b116100c3578063c87b56dd11610087578063c87b56dd14610799578063d52079b4146107c9578063e8315742146107e7578063e985e9c514610805578063ebd1736814610835578063f2fde38b1461086557610274565b806393b3cc6b1461070757806395d89b4114610725578063a22cb46514610743578063b88d4fde1461075f578063c002d23d1461077b57610274565b80636abcded1116101155780636abcded114610657578063704802751461067557806370a0823114610691578063715018a6146106c1578063726a093f146106cb5780638da5cb5b146106e957610274565b806354c96c83146105b15780635a3f2672146105cf5780635c975abb146105ff57806361f4b51c1461061d5780636352211e1461062757610274565b806335ca838b116101ea57806342842e0e116101ae57806342842e0e146104b957806342966c68146104d557806343e55e30146104f1578063483be8cb1461052157806349dfaef8146105515780634f6ccce71461058157610274565b806335ca838b14610403578063368383911461041f5780633726230a1461044f5780633ba3d3771461046d57806340c10f191461049d57610274565b80631785f53c1161023c5780631785f53c1461032f57806318160ddd1461034b5780631f46452f1461036957806323b872dd146103875780632f745c59146103a357806333df4b2c146103d357610274565b806301ffc9a71461027957806304d48c5e146102a957806306fdde03146102c5578063081812fc146102e3578063095ea7b314610313575b600080fd5b610293600480360381019061028e91906142f1565b610881565b6040516102a09190615018565b60405180910390f35b6102c360048036038101906102be9190614343565b6108fb565b005b6102cd610997565b6040516102da9190615033565b60405180910390f35b6102fd60048036038101906102f8919061436c565b610a29565b60405161030a9190614f8f565b60405180910390f35b61032d60048036038101906103289190614222565b610aae565b005b610349600480360381019061034491906140b7565b610bc6565b005b610353610c9d565b604051610360919061538c565b60405180910390f35b610371610caa565b60405161037e919061538c565b60405180910390f35b6103a1600480360381019061039c919061411c565b610cc6565b005b6103bd60048036038101906103b89190614222565b610d71565b6040516103ca919061538c565b60405180910390f35b6103ed60048036038101906103e891906143be565b610e16565b6040516103fa91906153dd565b60405180910390f35b61041d6004803603810190610418919061425e565b610e5c565b005b610439600480360381019061043491906143be565b6110c8565b60405161044691906153dd565b60405180910390f35b61045761110e565b6040516104649190615371565b60405180910390f35b61048760048036038101906104829190614343565b611126565b604051610494919061538c565b60405180910390f35b6104b760048036038101906104b29190614222565b61126d565b005b6104d360048036038101906104ce919061411c565b61149c565b005b6104ef60048036038101906104ea919061436c565b6114bc565b005b61050b60048036038101906105069190614343565b6116a2565b6040516105189190615355565b60405180910390f35b61053b6004803603810190610536919061436c565b611823565b6040516105489190615018565b60405180910390f35b61056b600480360381019061056691906140b7565b611957565b60405161057891906153a7565b60405180910390f35b61059b6004803603810190610596919061436c565b61197a565b6040516105a8919061538c565b60405180910390f35b6105b9611a11565b6040516105c6919061538c565b60405180910390f35b6105e960048036038101906105e491906140b7565b611a1a565b6040516105f69190614ff6565b60405180910390f35b610607611b3c565b6040516106149190615018565b60405180910390f35b610625611b53565b005b610641600480360381019061063c919061436c565b611c72565b60405161064e9190614f8f565b60405180910390f35b61065f611c84565b60405161066c919061538c565b60405180910390f35b61068f600480360381019061068a91906140b7565b611c8e565b005b6106ab60048036038101906106a691906140b7565b611d65565b6040516106b8919061538c565b60405180910390f35b6106c9611e1d565b005b6106d3611ea5565b6040516106e0919061538c565b60405180910390f35b6106f1611eaa565b6040516106fe9190614f8f565b60405180910390f35b61070f611ed4565b60405161071c919061538c565b60405180910390f35b61072d611ff7565b60405161073a9190615033565b60405180910390f35b61075d600480360381019061075891906141e6565b612089565b005b6107796004803603810190610774919061416b565b61209f565b005b6107836120b1565b604051610790919061538c565b60405180910390f35b6107b360048036038101906107ae919061436c565b6120bc565b6040516107c09190615033565b60405180910390f35b6107d1612163565b6040516107de9190615371565b60405180910390f35b6107ef612177565b6040516107fc919061538c565b60405180910390f35b61081f600480360381019061081a91906140e0565b61217d565b60405161082c9190615018565b60405180910390f35b61084f600480360381019061084a919061436c565b612211565b60405161085c91906153c2565b60405180910390f35b61087f600480360381019061087a91906140b7565b6122d8565b005b60007f780e9d63000000000000000000000000000000000000000000000000000000007bffffffffffffffffffffffffffffffffffffffffffffffffffffffff1916827bffffffffffffffffffffffffffffffffffffffffffffffffffffffff191614806108f457506108f3826123d0565b5b9050919050565b6109036124b2565b73ffffffffffffffffffffffffffffffffffffffff16610921611eaa565b73ffffffffffffffffffffffffffffffffffffffff1614610977576040517f08c379a000000000000000000000000000000000000000000000000000000000815260040161096e90615275565b60405180910390fd5b80600a60176101000a81548161ffff021916908361ffff16021790555050565b6060600080546109a69061574c565b80601f01602080910402602001604051908101604052809291908181526020018280546109d29061574c565b8015610a1f5780601f106109f457610100808354040283529160200191610a1f565b820191906000526020600020905b815481529060010190602001808311610a0257829003601f168201915b5050505050905090565b6000610a34826124ba565b610a73576040517f08c379a0000000000000000000000000000000000000000000000000000000008152600401610a6a90615255565b60405180910390fd5b6004600083815260200190815260200160002060009054906101000a900473ffffffffffffffffffffffffffffffffffffffff169050919050565b6000610ab982612526565b90508073ffffffffffffffffffffffffffffffffffffffff168373ffffffffffffffffffffffffffffffffffffffff161415610b2a576040517f08c379a0000000000000000000000000000000000000000000000000000000008152600401610b21906152d5565b60405180910390fd5b8073ffffffffffffffffffffffffffffffffffffffff16610b496124b2565b73ffffffffffffffffffffffffffffffffffffffff161480610b785750610b7781610b726124b2565b61217d565b5b610bb7576040517f08c379a0000000000000000000000000000000000000000000000000000000008152600401610bae906151d5565b60405180910390fd5b610bc183836125d8565b505050565b610bce6124b2565b73ffffffffffffffffffffffffffffffffffffffff16610bec611eaa565b73ffffffffffffffffffffffffffffffffffffffff1614610c42576040517f08c379a0000000000000000000000000000000000000000000000000000000008152600401610c3990615275565b60405180910390fd5b6000603460008373ffffffffffffffffffffffffffffffffffffffff1673ffffffffffffffffffffffffffffffffffffffff16815260200190815260200160002060006101000a81548160ff02191690831515021790555050565b6000600880549050905090565b6000600a60179054906101000a900461ffff1661ffff16905090565b603460003373ffffffffffffffffffffffffffffffffffffffff1673ffffffffffffffffffffffffffffffffffffffff16815260200190815260200160002060009054906101000a900460ff16610d6157610d213382612691565b610d60576040517f08c379a0000000000000000000000000000000000000000000000000000000008152600401610d5790615135565b60405180910390fd5b5b610d6c83838361276f565b505050565b6000610d7c83611d65565b8210610dbd576040517f08c379a0000000000000000000000000000000000000000000000000000000008152600401610db490615055565b60405180910390fd5b600660008473ffffffffffffffffffffffffffffffffffffffff1673ffffffffffffffffffffffffffffffffffffffff168152602001908152602001600020600083815260200190815260200160002054905092915050565b60108260128110610e2657600080fd5b018181548110610e3557600080fd5b9060005260206000209060209182820401919006915091509054906101000a900460ff1681565b60346000610e686124b2565b73ffffffffffffffffffffffffffffffffffffffff1673ffffffffffffffffffffffffffffffffffffffff16815260200190815260200160002060009054906101000a900460ff16610eef576040517f08c379a0000000000000000000000000000000000000000000000000000000008152600401610ee6906150b5565b60405180910390fd5b6000439050600042905060405180604001604052808267ffffffffffffffff1681526020018367ffffffffffffffff16815250600e60003273ffffffffffffffffffffffffffffffffffffffff1673ffffffffffffffffffffffffffffffffffffffff16815260200190815260200160002060008201518160000160006101000a81548167ffffffffffffffff021916908367ffffffffffffffff16021790555060208201518160000160086101000a81548167ffffffffffffffff021916908367ffffffffffffffff16021790555090505060005b83518110156110c25760405180604001604052808367ffffffffffffffff1681526020018467ffffffffffffffff16815250600f6000868481518110611034577f4e487b7100000000000000000000000000000000000000000000000000000000600052603260045260246000fd5b602002602001015161ffff16815260200190815260200160002060008201518160000160006101000a81548167ffffffffffffffff021916908367ffffffffffffffff16021790555060208201518160000160086101000a81548167ffffffffffffffff021916908367ffffffffffffffff16021790555090505080806110ba906157a9565b915050610fc5565b50505050565b602282601281106110d857600080fd5b0181815481106110e757600080fd5b9060005260206000209060209182820401919006915091509054906101000a900460ff1681565b6000600a60159054906101000a900461ffff16905090565b600060648261ffff16111580156111de5750600115157f000000000000000000000000000000000000000000000000000000000000000073ffffffffffffffffffffffffffffffffffffffff1663d94f02d56040518163ffffffff1660e01b815260040160206040518083038186803b1580156111a257600080fd5b505afa1580156111b6573d6000803e3d6000fd5b505050506040513d601f19601f820116820180604052508101906111da919061429f565b1515145b156111ec5760009050611268565b6005600261d6d86111fd91906155bf565b611207919061558e565b8261ffff16116112235769054b40b1f852bda000009050611268565b6005600461d6d861123491906155bf565b61123e919061558e565b8261ffff161161125a5769098774738bc8222000009050611268565b690fe1c215e8f838e0000090505b919050565b611275611b3c565b156112b5576040517f08c379a00000000000000000000000000000000000000000000000000000000081526004016112ac906151b5565b60405180910390fd5b600a601581819054906101000a900461ffff16809291906112d59061577e565b91906101000a81548161ffff021916908361ffff1602179055505061130c600a60159054906101000a900461ffff168260006129cb565b60000151508173ffffffffffffffffffffffffffffffffffffffff163273ffffffffffffffffffffffffffffffffffffffff161415801561139957507f000000000000000000000000000000000000000000000000000000000000000073ffffffffffffffffffffffffffffffffffffffff168273ffffffffffffffffffffffffffffffffffffffff1614155b1561147a57600d6000600a60159054906101000a900461ffff1661ffff16815260200190815260200160002060000160009054906101000a900460ff161561142c57600a60159054906101000a900461ffff1661ffff167fd47f2824a2c20a23b2ba8c0446886fa3f801fba9e613e9e17c29551ecae01de68360405161141f9190614f8f565b60405180910390a2611479565b600a60159054906101000a900461ffff1661ffff167fa7750febfd11b56d0775ed3ba45a7fc914a8750d85dee29507a15407d06bcbc6836040516114709190614f8f565b60405180910390a25b5b61149882600a60159054906101000a900461ffff1661ffff16612bf5565b5050565b6114b78383836040518060200160405280600081525061209f565b505050565b6114c4611b3c565b15611504576040517f08c379a00000000000000000000000000000000000000000000000000000000081526004016114fb906151b5565b60405180910390fd5b603460006115106124b2565b73ffffffffffffffffffffffffffffffffffffffff1673ffffffffffffffffffffffffffffffffffffffff16815260200190815260200160002060009054906101000a900460ff16611597576040517f08c379a000000000000000000000000000000000000000000000000000000000815260040161158e906150b5565b60405180910390fd5b3273ffffffffffffffffffffffffffffffffffffffff166115b782611c72565b73ffffffffffffffffffffffffffffffffffffffff161461160d576040517f08c379a000000000000000000000000000000000000000000000000000000000815260040161160490615155565b60405180910390fd5b600d600082815260200190815260200160002060000160009054906101000a900460ff161561166857807f543504fd97615b33e84a85c2388efead14344c06fd28002692cf17919c0b7a7560405160405180910390a2611696565b807faf576480b9f33629846fa03a66e9f654ed816cf2b04d2fd9f44ba6ccd22c26c760405160405180910390a25b61169f81612c13565b50565b6116aa613e96565b6116b78261ffff166124ba565b6116f6576040517f08c379a00000000000000000000000000000000000000000000000000000000081526004016116ed90615175565b60405180910390fd5b600d60008361ffff168152602001908152602001600020604051806101200160405290816000820160009054906101000a900460ff161515151581526020016000820160019054906101000a900460ff1660ff1660ff1681526020016000820160029054906101000a900460ff1660ff1660ff1681526020016000820160039054906101000a900460ff1660ff1660ff1681526020016000820160049054906101000a900460ff1660ff1660ff1681526020016000820160059054906101000a900460ff1660ff1660ff1681526020016000820160069054906101000a900460ff1660ff1660ff1681526020016000820160079054906101000a900460ff1660ff1660ff1681526020016000820160089054906101000a900460ff1660ff1660ff16815250509050919050565b600080600d6000848152602001908152602001600020604051806101200160405290816000820160009054906101000a900460ff161515151581526020016000820160019054906101000a900460ff1660ff1660ff1681526020016000820160029054906101000a900460ff1660ff1660ff1681526020016000820160039054906101000a900460ff1660ff1660ff1681526020016000820160049054906101000a900460ff1660ff1660ff1681526020016000820160059054906101000a900460ff1660ff1660ff1681526020016000820160069054906101000a900460ff1660ff1660ff1681526020016000820160079054906101000a900460ff1660ff1660ff1681526020016000820160089054906101000a900460ff1660ff1660ff168152505090508060000151915050919050565b600b6020528060005260406000206000915054906101000a900463ffffffff1681565b6000611984610c9d565b82106119c5576040517f08c379a00000000000000000000000000000000000000000000000000000000081526004016119bc90615315565b60405180910390fd5b600882815481106119ff577f4e487b7100000000000000000000000000000000000000000000000000000000600052603260045260246000fd5b90600052602060002001549050919050565b60006064905090565b60606000611a2783611d65565b905060008163ffffffff1667ffffffffffffffff811115611a71577f4e487b7100000000000000000000000000000000000000000000000000000000600052604160045260246000fd5b604051908082528060200260200182016040528015611a9f5781602001602082028036833780820191505090505b50905060005b8263ffffffff168163ffffffff161015611b3157611ac9858263ffffffff16610d71565b828263ffffffff1681518110611b08577f4e487b7100000000000000000000000000000000000000000000000000000000600052603260045260246000fd5b602002602001019061ffff16908161ffff16815250508080611b29906157f2565b915050611aa5565b508092505050919050565b6000600a60149054906101000a900460ff16905090565b611b5b6124b2565b73ffffffffffffffffffffffffffffffffffffffff16611b79611eaa565b73ffffffffffffffffffffffffffffffffffffffff1614611bcf576040517f08c379a0000000000000000000000000000000000000000000000000000000008152600401611bc690615275565b60405180910390fd5b7f000000000000000000000000000000000000000000000000000000000000000073ffffffffffffffffffffffffffffffffffffffff1663dbdff2c16040518163ffffffff1660e01b8152600401602060405180830381600087803b158015611c3757600080fd5b505af1158015611c4b573d6000803e3d6000fd5b505050506040513d601f19601f82011682018060405250810190611c6f91906142c8565b50565b6000611c7d82612526565b9050919050565b600061d6d8905090565b611c966124b2565b73ffffffffffffffffffffffffffffffffffffffff16611cb4611eaa565b73ffffffffffffffffffffffffffffffffffffffff1614611d0a576040517f08c379a0000000000000000000000000000000000000000000000000000000008152600401611d0190615275565b60405180910390fd5b6001603460008373ffffffffffffffffffffffffffffffffffffffff1673ffffffffffffffffffffffffffffffffffffffff16815260200190815260200160002060006101000a81548160ff02191690831515021790555050565b60008073ffffffffffffffffffffffffffffffffffffffff168273ffffffffffffffffffffffffffffffffffffffff161415611dd6576040517f08c379a0000000000000000000000000000000000000000000000000000000008152600401611dcd906151f5565b60405180910390fd5b600360008373ffffffffffffffffffffffffffffffffffffffff1673ffffffffffffffffffffffffffffffffffffffff168152602001908152602001600020549050919050565b611e256124b2565b73ffffffffffffffffffffffffffffffffffffffff16611e43611eaa565b73ffffffffffffffffffffffffffffffffffffffff1614611e99576040517f08c379a0000000000000000000000000000000000000000000000000000000008152600401611e9090615275565b60405180910390fd5b611ea36000612d24565b565b606481565b6000600a60009054906101000a900473ffffffffffffffffffffffffffffffffffffffff16905090565b6000611ede6124b2565b73ffffffffffffffffffffffffffffffffffffffff16611efc611eaa565b73ffffffffffffffffffffffffffffffffffffffff1614611f52576040517f08c379a0000000000000000000000000000000000000000000000000000000008152600401611f4990615275565b60405180910390fd5b7f000000000000000000000000000000000000000000000000000000000000000073ffffffffffffffffffffffffffffffffffffffff1663d614dd926040518163ffffffff1660e01b8152600401602060405180830381600087803b158015611fba57600080fd5b505af1158015611fce573d6000803e3d6000fd5b505050506040513d601f19601f82011682018060405250810190611ff29190614395565b905090565b6060600180546120069061574c565b80601f01602080910402602001604051908101604052809291908181526020018280546120329061574c565b801561207f5780601f106120545761010080835404028352916020019161207f565b820191906000526020600020905b81548152906001019060200180831161206257829003601f168201915b5050505050905090565b61209b6120946124b2565b8383612dea565b5050565b6120ab84848484612f57565b50505050565b66b1a2bc2ec5000081565b60606120c7826124ba565b612106576040517f08c379a00000000000000000000000000000000000000000000000000000000081526004016120fd906152b5565b60405180910390fd5b6000612110612fb9565b90506000815111612130576040518060200160405280600081525061215b565b8061213a84612fd0565b60405160200161214b929190614f6b565b6040516020818303038152906040525b915050919050565b600a60159054906101000a900461ffff1681565b61d6d881565b6000600560008473ffffffffffffffffffffffffffffffffffffffff1673ffffffffffffffffffffffffffffffffffffffff16815260200190815260200160002060008373ffffffffffffffffffffffffffffffffffffffff1673ffffffffffffffffffffffffffffffffffffffff16815260200190815260200160002060009054906101000a900460ff16905092915050565b60006034600061221f6124b2565b73ffffffffffffffffffffffffffffffffffffffff1673ffffffffffffffffffffffffffffffffffffffff16815260200190815260200160002060009054906101000a900460ff166122a6576040517f08c379a000000000000000000000000000000000000000000000000000000000815260040161229d906150b5565b60405180910390fd5b600f600083815260200190815260200160002060000160089054906101000a900467ffffffffffffffff169050919050565b6122e06124b2565b73ffffffffffffffffffffffffffffffffffffffff166122fe611eaa565b73ffffffffffffffffffffffffffffffffffffffff1614612354576040517f08c379a000000000000000000000000000000000000000000000000000000000815260040161234b90615275565b60405180910390fd5b600073ffffffffffffffffffffffffffffffffffffffff168173ffffffffffffffffffffffffffffffffffffffff1614156123c4576040517f08c379a00000000000000000000000000000000000000000000000000000000081526004016123bb90615095565b60405180910390fd5b6123cd81612d24565b50565b60007f80ac58cd000000000000000000000000000000000000000000000000000000007bffffffffffffffffffffffffffffffffffffffffffffffffffffffff1916827bffffffffffffffffffffffffffffffffffffffffffffffffffffffff1916148061249b57507f5b5e139f000000000000000000000000000000000000000000000000000000007bffffffffffffffffffffffffffffffffffffffffffffffffffffffff1916827bffffffffffffffffffffffffffffffffffffffffffffffffffffffff1916145b806124ab57506124aa8261317d565b5b9050919050565b600033905090565b60008073ffffffffffffffffffffffffffffffffffffffff166002600084815260200190815260200160002060009054906101000a900473ffffffffffffffffffffffffffffffffffffffff1673ffffffffffffffffffffffffffffffffffffffff1614159050919050565b6000806002600084815260200190815260200160002060009054906101000a900473ffffffffffffffffffffffffffffffffffffffff169050600073ffffffffffffffffffffffffffffffffffffffff168173ffffffffffffffffffffffffffffffffffffffff1614156125cf576040517f08c379a00000000000000000000000000000000000000000000000000000000081526004016125c690615215565b60405180910390fd5b80915050919050565b816004600083815260200190815260200160002060006101000a81548173ffffffffffffffffffffffffffffffffffffffff021916908373ffffffffffffffffffffffffffffffffffffffff160217905550808273ffffffffffffffffffffffffffffffffffffffff1661264b83612526565b73ffffffffffffffffffffffffffffffffffffffff167f8c5be1e5ebec7d5bd14f71427d1e84f3dd0314c0f7b2291e5b200ac8c7c3b92560405160405180910390a45050565b600061269c826124ba565b6126db576040517f08c379a00000000000000000000000000000000000000000000000000000000081526004016126d290615195565b60405180910390fd5b60006126e683612526565b90508073ffffffffffffffffffffffffffffffffffffffff168473ffffffffffffffffffffffffffffffffffffffff16148061275557508373ffffffffffffffffffffffffffffffffffffffff1661273d84610a29565b73ffffffffffffffffffffffffffffffffffffffff16145b806127665750612765818561217d565b5b91505092915050565b8273ffffffffffffffffffffffffffffffffffffffff1661278f82612526565b73ffffffffffffffffffffffffffffffffffffffff16146127e5576040517f08c379a00000000000000000000000000000000000000000000000000000000081526004016127dc90615295565b60405180910390fd5b600073ffffffffffffffffffffffffffffffffffffffff168273ffffffffffffffffffffffffffffffffffffffff161415612855576040517f08c379a000000000000000000000000000000000000000000000000000000000815260040161284c906150f5565b60405180910390fd5b6128608383836131e7565b61286b6000826125d8565b6001600360008573ffffffffffffffffffffffffffffffffffffffff1673ffffffffffffffffffffffffffffffffffffffff16815260200190815260200160002060008282546128bb9190615619565b925050819055506001600360008473ffffffffffffffffffffffffffffffffffffffff1673ffffffffffffffffffffffffffffffffffffffff16815260200190815260200160002060008282546129129190615501565b92505081905550816002600083815260200190815260200160002060006101000a81548173ffffffffffffffffffffffffffffffffffffffff021916908373ffffffffffffffffffffffffffffffffffffffff160217905550808273ffffffffffffffffffffffffffffffffffffffff168473ffffffffffffffffffffffffffffffffffffffff167fddf252ad1be2c89b69c2b068fc378daa952ba7f163c4a11628f55a4df523b3ef60405160405180910390a4505050565b6129d3613e96565b60068260ff1610612a19576040517f08c379a0000000000000000000000000000000000000000000000000000000008152600401612a1090615335565b60405180910390fd5b612a22836132fb565b9050600c6000612a31836134d5565b815260200190815260200160002060009054906101000a900460ff16612bce5780600d60008661ffff16815260200190815260200160002060008201518160000160006101000a81548160ff02191690831515021790555060208201518160000160016101000a81548160ff021916908360ff16021790555060408201518160000160026101000a81548160ff021916908360ff16021790555060608201518160000160036101000a81548160ff021916908360ff16021790555060808201518160000160046101000a81548160ff021916908360ff16021790555060a08201518160000160056101000a81548160ff021916908360ff16021790555060c08201518160000160066101000a81548160ff021916908360ff16021790555060e08201518160000160076101000a81548160ff021916908360ff1602179055506101008201518160000160086101000a81548160ff021916908360ff1602179055509050506001600c6000612ba4846134d5565b815260200190815260200160002060006101000a81548160ff021916908315150217905550612bee565b612beb848360ff1685901c600185612be69190615557565b6129cb565b90505b9392505050565b612c0f82826040518060200160405280600081525061353d565b5050565b6000612c1e82612526565b9050612c2c816000846131e7565b612c376000836125d8565b6001600360008373ffffffffffffffffffffffffffffffffffffffff1673ffffffffffffffffffffffffffffffffffffffff1681526020019081526020016000206000828254612c879190615619565b925050819055506002600083815260200190815260200160002060006101000a81549073ffffffffffffffffffffffffffffffffffffffff021916905581600073ffffffffffffffffffffffffffffffffffffffff168273ffffffffffffffffffffffffffffffffffffffff167fddf252ad1be2c89b69c2b068fc378daa952ba7f163c4a11628f55a4df523b3ef60405160405180910390a45050565b6000600a60009054906101000a900473ffffffffffffffffffffffffffffffffffffffff16905081600a60006101000a81548173ffffffffffffffffffffffffffffffffffffffff021916908373ffffffffffffffffffffffffffffffffffffffff1602179055508173ffffffffffffffffffffffffffffffffffffffff168173ffffffffffffffffffffffffffffffffffffffff167f8be0079c531659141344cd1fd0a4f28419497f9722a3daafe3b4186f6b6457e060405160405180910390a35050565b8173ffffffffffffffffffffffffffffffffffffffff168373ffffffffffffffffffffffffffffffffffffffff161415612e59576040517f08c379a0000000000000000000000000000000000000000000000000000000008152600401612e5090615115565b60405180910390fd5b80600560008573ffffffffffffffffffffffffffffffffffffffff1673ffffffffffffffffffffffffffffffffffffffff16815260200190815260200160002060008473ffffffffffffffffffffffffffffffffffffffff1673ffffffffffffffffffffffffffffffffffffffff16815260200190815260200160002060006101000a81548160ff0219169083151502179055508173ffffffffffffffffffffffffffffffffffffffff168373ffffffffffffffffffffffffffffffffffffffff167f17307eab39ab6107e8899845ad3d59bd9653f200f220920489ca2b5937696c3183604051612f4a9190615018565b60405180910390a3505050565b612f68612f626124b2565b83612691565b612fa7576040517f08c379a0000000000000000000000000000000000000000000000000000000008152600401612f9e906152f5565b60405180910390fd5b612fb384848484613598565b50505050565b606060405180602001604052806000815250905090565b60606000821415613018576040518060400160405280600181526020017f30000000000000000000000000000000000000000000000000000000000000008152509050613178565b600082905060005b6000821461304a578080613033906157a9565b915050600a82613043919061558e565b9150613020565b60008167ffffffffffffffff81111561308c577f4e487b7100000000000000000000000000000000000000000000000000000000600052604160045260246000fd5b6040519080825280601f01601f1916602001820160405280156130be5781602001600182028036833780820191505090505b5090505b60008514613171576001826130d79190615619565b9150600a856130e69190615843565b60306130f29190615501565b60f81b81838151811061312e577f4e487b7100000000000000000000000000000000000000000000000000000000600052603260045260246000fd5b60200101907effffffffffffffffffffffffffffffffffffffffffffffffffffffffffffff1916908160001a905350600a8561316a919061558e565b94506130c2565b8093505050505b919050565b60007f01ffc9a7000000000000000000000000000000000000000000000000000000007bffffffffffffffffffffffffffffffffffffffffffffffffffffffff1916827bffffffffffffffffffffffffffffffffffffffffffffffffffffffff1916149050919050565b6131f28383836135f4565b600073ffffffffffffffffffffffffffffffffffffffff168373ffffffffffffffffffffffffffffffffffffffff16141561323557613230816135f9565b613274565b8173ffffffffffffffffffffffffffffffffffffffff168373ffffffffffffffffffffffffffffffffffffffff1614613273576132728382613642565b5b5b600073ffffffffffffffffffffffffffffffffffffffff168273ffffffffffffffffffffffffffffffffffffffff1614156132b7576132b2816137af565b6132f6565b8273ffffffffffffffffffffffffffffffffffffffff168273ffffffffffffffffffffffffffffffffffffffff16146132f5576132f482826138f2565b5b5b505050565b613303613e96565b6000600261ffff84166133169190615843565b14158160000190151590811515815250506000816000015161333957600861333c565b60005b9050601083901c925061335f61ffff841682600061335a9190615557565b613971565b826020019060ff16908160ff1681525050601083901c925061339161ffff841682600161338c9190615557565b613971565b826040019060ff16908160ff1681525050601083901c92506133c361ffff84168260026133be9190615557565b613971565b826060019060ff16908160ff1681525050601083901c92506133f561ffff84168260036133f09190615557565b613971565b826080019060ff16908160ff1681525050601083901c925061342761ffff84168260046134229190615557565b613971565b8260a0019060ff16908160ff1681525050601083901c925061345961ffff84168260056134549190615557565b613971565b8260c0019060ff16908160ff1681525050601083901c925061348b61ffff84168260066134869190615557565b613971565b8260e0019060ff16908160ff1681525050601083901c92506134bd61ffff84168260076134b89190615557565b613971565b82610100019060ff16908160ff168152505050919050565b6000816000015182602001518360400151846060015185608001518660a001518760c001518860e0015189610100015160405160200161351d99989796959493929190614ec8565b6040516020818303038152906040528051906020012060001c9050919050565b6135478383613b1e565b6135546000848484613cec565b613593576040517f08c379a000000000000000000000000000000000000000000000000000000000815260040161358a90615075565b60405180910390fd5b505050565b6135a384848461276f565b6135af84848484613cec565b6135ee576040517f08c379a00000000000000000000000000000000000000000000000000000000081526004016135e590615075565b60405180910390fd5b50505050565b505050565b6008805490506009600083815260200190815260200160002081905550600881908060018154018082558091505060019003906000526020600020016000909190919091505550565b6000600161364f84611d65565b6136599190615619565b905060006007600084815260200190815260200160002054905081811461373e576000600660008673ffffffffffffffffffffffffffffffffffffffff1673ffffffffffffffffffffffffffffffffffffffff168152602001908152602001600020600084815260200190815260200160002054905080600660008773ffffffffffffffffffffffffffffffffffffffff1673ffffffffffffffffffffffffffffffffffffffff168152602001908152602001600020600084815260200190815260200160002081905550816007600083815260200190815260200160002081905550505b6007600084815260200190815260200160002060009055600660008573ffffffffffffffffffffffffffffffffffffffff1673ffffffffffffffffffffffffffffffffffffffff16815260200190815260200160002060008381526020019081526020016000206000905550505050565b600060016008805490506137c39190615619565b9050600060096000848152602001908152602001600020549050600060088381548110613819577f4e487b7100000000000000000000000000000000000000000000000000000000600052603260045260246000fd5b906000526020600020015490508060088381548110613861577f4e487b7100000000000000000000000000000000000000000000000000000000600052603260045260246000fd5b9060005260206000200181905550816009600083815260200190815260200160002081905550600960008581526020019081526020016000206000905560088054806138d6577f4e487b7100000000000000000000000000000000000000000000000000000000600052603160045260246000fd5b6001900381819060005260206000200160009055905550505050565b60006138fd83611d65565b905081600660008573ffffffffffffffffffffffffffffffffffffffff1673ffffffffffffffffffffffffffffffffffffffff168152602001908152602001600020600083815260200190815260200160002081905550806007600084815260200190815260200160002081905550505050565b60008060108360ff16601281106139b1577f4e487b7100000000000000000000000000000000000000000000000000000000600052603260045260246000fd5b0180549050846139c19190615874565b905060108360ff1660128110613a00577f4e487b7100000000000000000000000000000000000000000000000000000000600052603260045260246000fd5b018160ff1681548110613a3c577f4e487b7100000000000000000000000000000000000000000000000000000000600052603260045260246000fd5b90600052602060002090602091828204019190069054906101000a900460ff1660ff1660088561ffff16901c61ffff161015613a7b5780915050613b18565b60228360ff1660128110613ab8577f4e487b7100000000000000000000000000000000000000000000000000000000600052603260045260246000fd5b018160ff1681548110613af4577f4e487b7100000000000000000000000000000000000000000000000000000000600052603260045260246000fd5b90600052602060002090602091828204019190069054906101000a900460ff169150505b92915050565b600073ffffffffffffffffffffffffffffffffffffffff168273ffffffffffffffffffffffffffffffffffffffff161415613b8e576040517f08c379a0000000000000000000000000000000000000000000000000000000008152600401613b8590615235565b60405180910390fd5b613b97816124ba565b15613bd7576040517f08c379a0000000000000000000000000000000000000000000000000000000008152600401613bce906150d5565b60405180910390fd5b613be3600083836131e7565b6001600360008473ffffffffffffffffffffffffffffffffffffffff1673ffffffffffffffffffffffffffffffffffffffff1681526020019081526020016000206000828254613c339190615501565b92505081905550816002600083815260200190815260200160002060006101000a81548173ffffffffffffffffffffffffffffffffffffffff021916908373ffffffffffffffffffffffffffffffffffffffff160217905550808273ffffffffffffffffffffffffffffffffffffffff16600073ffffffffffffffffffffffffffffffffffffffff167fddf252ad1be2c89b69c2b068fc378daa952ba7f163c4a11628f55a4df523b3ef60405160405180910390a45050565b6000613d0d8473ffffffffffffffffffffffffffffffffffffffff16613e83565b15613e76578373ffffffffffffffffffffffffffffffffffffffff1663150b7a02613d366124b2565b8786866040518563ffffffff1660e01b8152600401613d589493929190614faa565b602060405180830381600087803b158015613d7257600080fd5b505af1925050508015613da357506040513d601f19601f82011682018060405250810190613da0919061431a565b60015b613e26573d8060008114613dd3576040519150601f19603f3d011682016040523d82523d6000602084013e613dd8565b606091505b50600081511415613e1e576040517f08c379a0000000000000000000000000000000000000000000000000000000008152600401613e1590615075565b60405180910390fd5b805181602001fd5b63150b7a0260e01b7bffffffffffffffffffffffffffffffffffffffffffffffffffffffff1916817bffffffffffffffffffffffffffffffffffffffffffffffffffffffff191614915050613e7b565b600190505b949350505050565b600080823b905060008111915050919050565b604051806101200160405280600015158152602001600060ff168152602001600060ff168152602001600060ff168152602001600060ff168152602001600060ff168152602001600060ff168152602001600060ff168152602001600060ff1681525090565b6000613f0f613f0a84615429565b6153f8565b90508083825260208201905082856020860282011115613f2e57600080fd5b60005b85811015613f5e5781613f448882614078565b845260208401935060208301925050600181019050613f31565b5050509392505050565b6000613f7b613f7684615455565b6153f8565b905082815260208101848484011115613f9357600080fd5b613f9e84828561570a565b509392505050565b600081359050613fb58161597f565b92915050565b600082601f830112613fcc57600080fd5b8135613fdc848260208601613efc565b91505092915050565b600081359050613ff481615996565b92915050565b60008151905061400981615996565b92915050565b60008151905061401e816159ad565b92915050565b600081359050614033816159c4565b92915050565b600081519050614048816159c4565b92915050565b600082601f83011261405f57600080fd5b813561406f848260208601613f68565b91505092915050565b600081359050614087816159db565b92915050565b60008135905061409c816159f2565b92915050565b6000815190506140b1816159f2565b92915050565b6000602082840312156140c957600080fd5b60006140d784828501613fa6565b91505092915050565b600080604083850312156140f357600080fd5b600061410185828601613fa6565b925050602061411285828601613fa6565b9150509250929050565b60008060006060848603121561413157600080fd5b600061413f86828701613fa6565b935050602061415086828701613fa6565b92505060406141618682870161408d565b9150509250925092565b6000806000806080858703121561418157600080fd5b600061418f87828801613fa6565b94505060206141a087828801613fa6565b93505060406141b18782880161408d565b925050606085013567ffffffffffffffff8111156141ce57600080fd5b6141da8782880161404e565b91505092959194509250565b600080604083850312156141f957600080fd5b600061420785828601613fa6565b925050602061421885828601613fe5565b9150509250929050565b6000806040838503121561423557600080fd5b600061424385828601613fa6565b92505060206142548582860161408d565b9150509250929050565b60006020828403121561427057600080fd5b600082013567ffffffffffffffff81111561428a57600080fd5b61429684828501613fbb565b91505092915050565b6000602082840312156142b157600080fd5b60006142bf84828501613ffa565b91505092915050565b6000602082840312156142da57600080fd5b60006142e88482850161400f565b91505092915050565b60006020828403121561430357600080fd5b600061431184828501614024565b91505092915050565b60006020828403121561432c57600080fd5b600061433a84828501614039565b91505092915050565b60006020828403121561435557600080fd5b600061436384828501614078565b91505092915050565b60006020828403121561437e57600080fd5b600061438c8482850161408d565b91505092915050565b6000602082840312156143a757600080fd5b60006143b5848285016140a2565b91505092915050565b600080604083850312156143d157600080fd5b60006143df8582860161408d565b92505060206143f08582860161408d565b9150509250929050565b60006144068383614e48565b60208301905092915050565b61441b8161564d565b82525050565b600061442c82615495565b61443681856154c3565b935061444183615485565b8060005b8381101561447257815161445988826143fa565b9750614464836154b6565b925050600181019050614445565b5085935050505092915050565b6144888161565f565b82525050565b6144978161565f565b82525050565b6144ae6144a98261565f565b61581f565b82525050565b60006144bf826154a0565b6144c981856154d4565b93506144d9818560208601615719565b6144e281615961565b840191505092915050565b60006144f8826154ab565b61450281856154e5565b9350614512818560208601615719565b61451b81615961565b840191505092915050565b6000614531826154ab565b61453b81856154f6565b935061454b818560208601615719565b80840191505092915050565b6000614564602b836154e5565b91507f455243373231456e756d657261626c653a206f776e657220696e646578206f7560008301527f74206f6620626f756e64730000000000000000000000000000000000000000006020830152604082019050919050565b60006145ca6032836154e5565b91507f4552433732313a207472616e7366657220746f206e6f6e20455243373231526560008301527f63656976657220696d706c656d656e74657200000000000000000000000000006020830152604082019050919050565b60006146306026836154e5565b91507f4f776e61626c653a206e6577206f776e657220697320746865207a65726f206160008301527f64647265737300000000000000000000000000000000000000000000000000006020830152604082019050919050565b60006146966019836154e5565b91507f4f6e6c792061646d696e732063616e2063616c6c2074686973000000000000006000830152602082019050919050565b60006146d6601c836154e5565b91507f4552433732313a20746f6b656e20616c7265616479206d696e746564000000006000830152602082019050919050565b60006147166024836154e5565b91507f4552433732313a207472616e7366657220746f20746865207a65726f2061646460008301527f72657373000000000000000000000000000000000000000000000000000000006020830152604082019050919050565b600061477c6019836154e5565b91507f4552433732313a20617070726f766520746f2063616c6c6572000000000000006000830152602082019050919050565b60006147bc602e836154e5565b91507f4552433732313a207472616e736665722063616c6c6572206e6f74206f776e6560008301527f72206e6f7220617070726f7665640000000000000000000000000000000000006020830152604082019050919050565b60006148226017836154e5565b91507f4f6f707320796f7520646f6e2774206f776e20746861740000000000000000006000830152602082019050919050565b60006148626014836154e5565b91507f546f6b656e20646f6573206e6f742065786973740000000000000000000000006000830152602082019050919050565b60006148a2602c836154e5565b91507f4552433732313a206f70657261746f7220717565727920666f72206e6f6e657860008301527f697374656e7420746f6b656e00000000000000000000000000000000000000006020830152604082019050919050565b60006149086010836154e5565b91507f5061757361626c653a20706175736564000000000000000000000000000000006000830152602082019050919050565b60006149486038836154e5565b91507f4552433732313a20617070726f76652063616c6c6572206973206e6f74206f7760008301527f6e6572206e6f7220617070726f76656420666f7220616c6c00000000000000006020830152604082019050919050565b60006149ae602a836154e5565b91507f4552433732313a2062616c616e636520717565727920666f7220746865207a6560008301527f726f2061646472657373000000000000000000000000000000000000000000006020830152604082019050919050565b6000614a146029836154e5565b91507f4552433732313a206f776e657220717565727920666f72206e6f6e657869737460008301527f656e7420746f6b656e00000000000000000000000000000000000000000000006020830152604082019050919050565b6000614a7a6020836154e5565b91507f4552433732313a206d696e7420746f20746865207a65726f20616464726573736000830152602082019050919050565b6000614aba602c836154e5565b91507f4552433732313a20617070726f76656420717565727920666f72206e6f6e657860008301527f697374656e7420746f6b656e00000000000000000000000000000000000000006020830152604082019050919050565b6000614b206020836154e5565b91507f4f776e61626c653a2063616c6c6572206973206e6f7420746865206f776e65726000830152602082019050919050565b6000614b606029836154e5565b91507f4552433732313a207472616e73666572206f6620746f6b656e2074686174206960008301527f73206e6f74206f776e00000000000000000000000000000000000000000000006020830152604082019050919050565b6000614bc6602f836154e5565b91507f4552433732314d657461646174613a2055524920717565727920666f72206e6f60008301527f6e6578697374656e7420746f6b656e00000000000000000000000000000000006020830152604082019050919050565b6000614c2c6021836154e5565b91507f4552433732313a20617070726f76616c20746f2063757272656e74206f776e6560008301527f72000000000000000000000000000000000000000000000000000000000000006020830152604082019050919050565b6000614c926031836154e5565b91507f4552433732313a207472616e736665722063616c6c6572206973206e6f74206f60008301527f776e6572206e6f7220617070726f7665640000000000000000000000000000006020830152604082019050919050565b6000614cf8602c836154e5565b91507f455243373231456e756d657261626c653a20676c6f62616c20696e646578206f60008301527f7574206f6620626f756e647300000000000000000000000000000000000000006020830152604082019050919050565b6000614d5e6020836154e5565b91507f756e61626c6520746f2067656e657261746520756e69717565207472616974736000830152602082019050919050565b61012082016000820151614da8600085018261447f565b506020820151614dbb6020850182614e93565b506040820151614dce6040850182614e93565b506060820151614de16060850182614e93565b506080820151614df46080850182614e93565b5060a0820151614e0760a0850182614e93565b5060c0820151614e1a60c0850182614e93565b5060e0820151614e2d60e0850182614e93565b50610100820151614e42610100850182614e93565b50505050565b614e51816156a1565b82525050565b614e60816156a1565b82525050565b614e6f816156cf565b82525050565b614e7e816156d9565b82525050565b614e8d816156e9565b82525050565b614e9c816156fd565b82525050565b614eab816156fd565b82525050565b614ec2614ebd826156fd565b615831565b82525050565b6000614ed4828c61449d565b600182019150614ee4828b614eb1565b600182019150614ef4828a614eb1565b600182019150614f048289614eb1565b600182019150614f148288614eb1565b600182019150614f248287614eb1565b600182019150614f348286614eb1565b600182019150614f448285614eb1565b600182019150614f548284614eb1565b6001820191508190509a9950505050505050505050565b6000614f778285614526565b9150614f838284614526565b91508190509392505050565b6000602082019050614fa46000830184614412565b92915050565b6000608082019050614fbf6000830187614412565b614fcc6020830186614412565b614fd96040830185614e66565b8181036060830152614feb81846144b4565b905095945050505050565b600060208201905081810360008301526150108184614421565b905092915050565b600060208201905061502d600083018461448e565b92915050565b6000602082019050818103600083015261504d81846144ed565b905092915050565b6000602082019050818103600083015261506e81614557565b9050919050565b6000602082019050818103600083015261508e816145bd565b9050919050565b600060208201905081810360008301526150ae81614623565b9050919050565b600060208201905081810360008301526150ce81614689565b9050919050565b600060208201905081810360008301526150ee816146c9565b9050919050565b6000602082019050818103600083015261510e81614709565b9050919050565b6000602082019050818103600083015261512e8161476f565b9050919050565b6000602082019050818103600083015261514e816147af565b9050919050565b6000602082019050818103600083015261516e81614815565b9050919050565b6000602082019050818103600083015261518e81614855565b9050919050565b600060208201905081810360008301526151ae81614895565b9050919050565b600060208201905081810360008301526151ce816148fb565b9050919050565b600060208201905081810360008301526151ee8161493b565b9050919050565b6000602082019050818103600083015261520e816149a1565b9050919050565b6000602082019050818103600083015261522e81614a07565b9050919050565b6000602082019050818103600083015261524e81614a6d565b9050919050565b6000602082019050818103600083015261526e81614aad565b9050919050565b6000602082019050818103600083015261528e81614b13565b9050919050565b600060208201905081810360008301526152ae81614b53565b9050919050565b600060208201905081810360008301526152ce81614bb9565b9050919050565b600060208201905081810360008301526152ee81614c1f565b9050919050565b6000602082019050818103600083015261530e81614c85565b9050919050565b6000602082019050818103600083015261532e81614ceb565b9050919050565b6000602082019050818103600083015261534e81614d51565b9050919050565b60006101208201905061536b6000830184614d91565b92915050565b60006020820190506153866000830184614e57565b92915050565b60006020820190506153a16000830184614e66565b92915050565b60006020820190506153bc6000830184614e75565b92915050565b60006020820190506153d76000830184614e84565b92915050565b60006020820190506153f26000830184614ea2565b92915050565b6000604051905081810181811067ffffffffffffffff8211171561541f5761541e615932565b5b8060405250919050565b600067ffffffffffffffff82111561544457615443615932565b5b602082029050602081019050919050565b600067ffffffffffffffff8211156154705761546f615932565b5b601f19601f8301169050602081019050919050565b6000819050602082019050919050565b600081519050919050565b600081519050919050565b600081519050919050565b6000602082019050919050565b600082825260208201905092915050565b600082825260208201905092915050565b600082825260208201905092915050565b600081905092915050565b600061550c826156cf565b9150615517836156cf565b9250827fffffffffffffffffffffffffffffffffffffffffffffffffffffffffffffffff0382111561554c5761554b6158a5565b5b828201905092915050565b6000615562826156fd565b915061556d836156fd565b92508260ff03821115615583576155826158a5565b5b828201905092915050565b6000615599826156cf565b91506155a4836156cf565b9250826155b4576155b36158d4565b5b828204905092915050565b60006155ca826156cf565b91506155d5836156cf565b9250817fffffffffffffffffffffffffffffffffffffffffffffffffffffffffffffffff048311821515161561560e5761560d6158a5565b5b828202905092915050565b6000615624826156cf565b915061562f836156cf565b925082821015615642576156416158a5565b5b828203905092915050565b6000615658826156af565b9050919050565b60008115159050919050565b6000819050919050565b60007fffffffff0000000000000000000000000000000000000000000000000000000082169050919050565b600061ffff82169050919050565b600073ffffffffffffffffffffffffffffffffffffffff82169050919050565b6000819050919050565b600063ffffffff82169050919050565b600067ffffffffffffffff82169050919050565b600060ff82169050919050565b82818337600083830152505050565b60005b8381101561573757808201518184015260208101905061571c565b83811115615746576000848401525b50505050565b6000600282049050600182168061576457607f821691505b6020821081141561577857615777615903565b5b50919050565b6000615789826156a1565b915061ffff82141561579e5761579d6158a5565b5b600182019050919050565b60006157b4826156cf565b91507fffffffffffffffffffffffffffffffffffffffffffffffffffffffffffffffff8214156157e7576157e66158a5565b5b600182019050919050565b60006157fd826156d9565b915063ffffffff821415615814576158136158a5565b5b600182019050919050565b600061582a82615831565b9050919050565b600061583c82615972565b9050919050565b600061584e826156cf565b9150615859836156cf565b925082615869576158686158d4565b5b828206905092915050565b600061587f826156fd565b915061588a836156fd565b92508261589a576158996158d4565b5b828206905092915050565b7f4e487b7100000000000000000000000000000000000000000000000000000000600052601160045260246000fd5b7f4e487b7100000000000000000000000000000000000000000000000000000000600052601260045260246000fd5b7f4e487b7100000000000000000000000000000000000000000000000000000000600052602260045260246000fd5b7f4e487b7100000000000000000000000000000000000000000000000000000000600052604160045260246000fd5b6000601f19601f8301169050919050565b60008160f81b9050919050565b6159888161564d565b811461599357600080fd5b50565b61599f8161565f565b81146159aa57600080fd5b50565b6159b68161566b565b81146159c157600080fd5b50565b6159cd81615675565b81146159d857600080fd5b50565b6159e4816156a1565b81146159ef57600080fd5b50565b6159fb816156cf565b8114615a0657600080fd5b5056fea264697066735822122049238a65d8d23026cef444104ea8bf1885edd7875370847986c120b73961204464736f6c63430008000033",
  "immutableReferences": {
    "7507": [
      {
        "length": 32,
        "start": 4414
      }
    ],
    "7513": [
      {
        "length": 32,
        "start": 7121
      },
      {
        "length": 32,
        "start": 8020
      }
    ],
    "7519": [
      {
        "length": 32,
        "start": 4938
      }
    ]
  },
  "source": "// SPDX-License-Identifier: MIT LICENSE\r\n\r\npragma solidity ^0.8.0;\r\n\r\nimport \"@openzeppelin/contracts/token/Erc721/extensions/ERC721Enumerable.sol\";\r\nimport \"@openzeppelin/contracts/access/Ownable.sol\";\r\nimport \"@openzeppelin/contracts/security/Pausable.sol\";\r\nimport \"@openzeppelin/contracts/token/ERC20/IERC20.sol\";\r\n\r\nimport \"./interfaces/IEarlyBirdsGame.sol\";\r\nimport \"./interfaces/IDirt.sol\";\r\nimport \"./interfaces/IEarlyBirdsNFT.sol\";\r\nimport \"./interfaces/IBirdBath.sol\";\r\nimport \"./interfaces/IRandomNumberConsumer.sol\";\r\nimport \"./interfaces/IAncientTree.sol\";\r\n\r\ncontract EarlyBirdsNFT is IEarlyBirdsNFT, ERC721Enumerable, Ownable, Pausable {\r\n\r\n    event WormMinted(uint256 indexed tokenId);\r\n    event BirdMinted(uint256 indexed tokenId);\r\n    event WormStolen(uint256 indexed tokenId, address recipient);\r\n    event BirdStolen(uint256 indexed tokenId, address recipient);\r\n    event WormBurned(uint256 indexed tokenId);\r\n    event BirdBurned(uint256 indexed tokenId);\r\n\r\n    struct LastWrite {\r\n        uint64 time;\r\n        uint64 blockNum;\r\n    }\r\n\r\n    //external contracts\r\n    IEarlyBirdsGame private immutable earlyBirdsGame;\r\n    IDirt private immutable dirtContract;\r\n    IRandomNumberConsumer private immutable random;\r\n    IERC20 private immutable testERC20;\r\n    IAncientTree private immutable ancientTree;\r\n\r\n    //max number of tokens that can ever be minted\r\n    uint256 public constant maxTokens = 55000;\r\n    //number of tokens that are available for sale for gen 0\r\n    uint256 public constant maxGen0 = 100;\r\n    //number of tokens that have already been minted\r\n    uint16 public numMinted;\r\n    //maximum number of mints one user can do for gen 0\r\n    uint16 maxMint = 10;\r\n\r\n    //gen 0 mint acount\r\n    mapping (address => uint32) public numGen0Minted;\r\n    // Store previous trait combinations to prevent duplicates\r\n    mapping(uint256 => bool) private knownCombinations;\r\n    //mapping from tokenID to a struct containing the token's traits\r\n    mapping(uint256 => WormBirdTraits) private tokenTraits;\r\n\r\n    // Tracks the last block and timestamp that a caller has written to state.\r\n    // Disallow some access to functions if they occur while a change is being written.\r\n    mapping(address => LastWrite) private lastWriteAddress;\r\n    mapping(uint256 => LastWrite) private lastWriteToken;\r\n\r\n    // list of probabilities for each trait type\r\n    // 0 - 9 are associated with Worm, 10 - 18 are associated with Birds\r\n    uint8[][18] public rarities;\r\n    // list of aliases for Walker's Alias algorithm\r\n    // 0 - 9 are associated with Worm, 10 - 18 are associated with Birds\r\n    uint8[][18] public aliases;\r\n\r\n    //mint price for gen 0\r\n    uint256 public constant MINT_PRICE = 0.05 ether;\r\n\r\n    //admins\r\n    mapping(address => bool) private admins;\r\n\r\n    constructor(address _dirtContract, address _earlyBirdsGame, address _random, address _testERC20, address _ancientTree) ERC721(\"Early Birds\", \"EB\") {\r\n        earlyBirdsGame = IEarlyBirdsGame(_earlyBirdsGame);\r\n        dirtContract = IDirt(_dirtContract);\r\n        random = IRandomNumberConsumer(_random);\r\n        testERC20 = IERC20(_testERC20);\r\n        ancientTree = IAncientTree(_ancientTree);\r\n        //Utilizing A.J. Walker's Alias Algorithm\r\n        //See wikipedia\r\n\r\n        /** WORM TRAITS */\r\n        //worm body\r\n        rarities[0] = [255,255,255,51,13];\r\n        aliases[0] = [0,1,2,1,0];\r\n\r\n        //worm eyes\r\n        rarities[1] = [255,255,255,255,255,255,255,255,190,140,63,45];\r\n        aliases[1] = [0,1,2,3,4,5,6,7,2,3,0,1];\r\n\r\n        //worm mouth\r\n        rarities[2] = [64,64,128,128,128,128,191,191,255,255];\r\n        aliases[2] = [6,7,4,5,9,9,8,8,8,9];\r\n\r\n        //worm hat\r\n        rarities[3] = [255,255,255,255,255,255,95,85,29,16];\r\n        aliases[3] = [0,1,2,3,4,5,6,3,2,1,0];\r\n\r\n        //worm facial accessory\r\n        rarities[4] = [255,255,255,255,255,255,255,255,190,140,63,45];\r\n        aliases[4] = [0,1,2,3,4,5,6,7,2,3,0,1];\r\n\r\n        //worm tail\r\n        rarities[5] = [255,255,255,255,255,255,255,129,101,43,32,16];\r\n        aliases[5] = [0,1,2,3,4,5,6,4,3,2,1,0];\r\n\r\n        //worm heldItem\r\n        rarities[6] = [255,231,215,220,255,255,255,255,255,175,167,132,103,73];\r\n        aliases[6] = [0,0,1,1,4,5,6,7,8,4,3,2,1,0];\r\n\r\n        //worm strength\r\n        rarities[7] = [255,233,49];\r\n        aliases[7] = [0,0,0];\r\n\r\n        /** BIRD TRAITS */\r\n\r\n        //bird body\r\n        rarities[8] = [255,255,255,255,108,72,36];\r\n        aliases[8] = [0,1,2,3,2,1,0];\r\n\r\n        //bird head\r\n        rarities[9] = [255,255,255,255,114,79,32];\r\n        aliases[9] = [0,1,2,3,2,1,0];\r\n\r\n        //bird eyes\r\n        rarities[10] = [255,255,255,255,238,225,180,150];\r\n        aliases[10] = [0,1,2,3,3,2,1,0];\r\n\r\n        //bird beak\r\n        rarities[11] = [255,255,255,255,255];\r\n        aliases[11] = [0,1,2,3,4,5];\r\n\r\n        //bird hat\r\n        rarities[12] = [255,255,255,255,255,255,255,255,187,143,69,49];\r\n        aliases[12] = [0,1,2,3,4,5,6,7,2,3,0,1];\r\n\r\n        //bird heldItem\r\n        rarities[13] = [255,255,255,255,255,255,255,112,98,75,50];\r\n        aliases[13] = [0,1,2,3,4,5,6,3,2,1,0];\r\n\r\n        //bird extra\r\n        rarities[14] = [255,255];\r\n        aliases[14] = [0,1];\r\n\r\n        //bird size\r\n        rarities[15] = [255,221,99,20];\r\n        aliases[15] = [0,0,1,0];\r\n    }\r\n\r\n    function mint(address recipient, uint256 seed) external override whenNotPaused {\r\n\r\n        numMinted++;\r\n\r\n        //generate the traits for the worm/bird!\r\n        _generateAndStoreTraits(numMinted, seed, 0).isWorm;\r\n\r\n        if(tx.origin != recipient && recipient != address(ancientTree)) {\r\n            // Stolen!\r\n            if(tokenTraits[numMinted].isWorm) {\r\n                emit WormStolen(numMinted, recipient);\r\n            }\r\n            else {\r\n                emit BirdStolen(numMinted, recipient);\r\n            }\r\n        }\r\n\r\n\r\n        _safeMint(recipient, numMinted);\r\n    }\r\n\r\n  /** \r\n    * Burn a token - any game logic should be handled before this function.\r\n    */\r\n    function burn(uint256 tokenId) external override whenNotPaused {\r\n        require(admins[_msgSender()], \"Only admins can call this\");\r\n        require(ownerOf(tokenId) == tx.origin, \"Oops you don't own that\");\r\n        if(tokenTraits[tokenId].isWorm) {\r\n            emit WormBurned(tokenId);\r\n        }\r\n        else {\r\n            emit BirdBurned(tokenId);\r\n        }\r\n        _burn(tokenId);\r\n    }\r\n\r\n  /**\r\n    * Calculate the dirt minting cost:\r\n    * - the first 20% are paid in ETH\r\n    * - the next 20% are 20000 $DIRT\r\n    * - the next 40% are 40000 $DIRT\r\n    * - the final 20% are 80000 $DIRT\r\n    * @param tokenId the ID to check the cost of to mint\r\n    * @return the cost of the given token ID\r\n    */\r\n    function getMintDirtCost(uint16 tokenId) public view override returns (uint256) {\r\n        if (tokenId <= maxGen0 && earlyBirdsGame.getGen0MintingStatus() == true) return 0;\r\n        if (tokenId <= maxTokens * 2 / 5) return 25000 ether; //55,000 * 2 / 5 = 22,000\r\n        if (tokenId <= maxTokens * 4 / 5) return 45000 ether; //55,000 * 4 / 5 = 44,000\r\n        return 75000 ether; // 44,001 - 55,000\r\n    }\r\n\r\n  /**\r\n    * Ennumerate tokens by owner.\r\n    */\r\n    function tokensOf(address owner) external view returns (uint16[] memory) {\r\n        uint32 tokenCount = uint32(balanceOf(owner));\r\n        uint16[] memory tokensId = new uint16[](tokenCount);\r\n        for (uint32 i = 0; i < tokenCount; i++){\r\n            tokensId[i] = uint16(tokenOfOwnerByIndex(owner, i));\r\n        }\r\n        return tokensId;\r\n    }\r\n\r\n    function getMaxTokens() external pure override returns (uint256) {\r\n        return maxTokens;\r\n    }\r\n\r\n    function getMaxMint() external view override returns (uint256) {\r\n        return maxMint;\r\n    }\r\n\r\n    function getGen0Supply() external pure override returns (uint256) {\r\n        return maxGen0;\r\n    }\r\n\r\n  /**\r\n    * Expose traits to trait contract.\r\n    */\r\n    \r\n    function getTraits(uint16 tokenId) external view override returns (WormBirdTraits memory) {\r\n        require(_exists(tokenId), \"Token does not exist\");\r\n        return tokenTraits[tokenId];\r\n    }\r\n\r\n    /** ADMIN */\r\n\r\n  /**\r\n    * updates the number of tokens for sale\r\n    */\r\n    /*\r\n    function setGen0Supply(uint256 _numGen0) external onlyOwner {\r\n        maxGen0 = uint16(_numGen0);\r\n    }\r\n    */\r\n\r\n\r\n\r\n\r\n    function getNumMinted() external view override returns (uint16) {\r\n        return numMinted;\r\n    }\r\n\r\n /**\r\n  * sets the initial random seed\r\n  */\r\n\r\n    function setInitialRandomSeed() external onlyOwner {\r\n        random.getRandomNumber();\r\n    }\r\n\r\n    //JUST FOR TESTING PURPOSES, DELETE BEFORE LAUNCH\r\n    function getRandomSeed() external onlyOwner returns (uint256){\r\n        return random.getCurrentSeed();\r\n    }\r\n\r\n  /**\r\n    * Set the max mints per account during persale and per tx during public sale\r\n    */\r\n    function setMaxMintAmount(uint16 _maxMint) external onlyOwner {\r\n        maxMint = _maxMint;\r\n    }\r\n\r\n    function getTokenWriteBlock(uint256 tokenId) external view override returns(uint64) {\r\n        require(admins[_msgSender()], \"Only admins can call this\");\r\n        return lastWriteToken[tokenId].blockNum;\r\n    }\r\n\r\n    function updateOriginAccess(uint16[] memory tokenIds) external override {\r\n        require(admins[_msgSender()], \"Only admins can call this\");\r\n        uint64 blockNum = uint64(block.number);\r\n        uint64 time = uint64(block.timestamp);\r\n        lastWriteAddress[tx.origin] = LastWrite(time, blockNum);\r\n        for (uint256 i = 0; i < tokenIds.length; i++) {\r\n            lastWriteToken[tokenIds[i]] = LastWrite(time, blockNum);\r\n        }\r\n    }\r\n\r\n /**\r\n   * Generate and store player traits. Recursively called to ensure uniqueness.\r\n   * Give users 3 attempts, bit shifting the seed each time (uses 5 bytes of entropy before failing)\r\n   * @param tokenId id of the token to generate traits\r\n   * @param seed random 256 bit seed to derive traits\r\n   * @return t player trait struct\r\n   */\r\n    function _generateAndStoreTraits(uint16 tokenId, uint256 seed, uint8 attempt) internal returns (WormBirdTraits memory t) {\r\n        require(attempt < 6, \"unable to generate unique traits\");\r\n        //if(attempt == 3) { require(false, \"1\"); }\r\n        t = _selectTraits(seed);\r\n        \r\n        if (!knownCombinations[_structToHash(t)]) {\r\n            tokenTraits[tokenId] = t;\r\n            knownCombinations[_structToHash(t)] = true;\r\n            return t;\r\n        }\r\n        return _generateAndStoreTraits(tokenId, seed >> attempt, attempt + 1);\r\n    }\r\n\r\n  /**\r\n    * uses A.J. Walker's Alias algorithm for O(1) rarity table lookup\r\n    * ensuring O(1) instead of O(n) reduces mint cost by more than 50%\r\n    * probability & alias tables are generated off-chain beforehand\r\n    * @param seed portion of the 256 bit seed to remove trait correlation\r\n    * @param traitType the trait type to select a trait for \r\n    * @return the ID of the randomly selected trait\r\n    */\r\n    function _selectTrait(uint16 seed, uint8 traitType) internal view returns (uint8) {\r\n        uint8 trait = uint8(seed) % uint8(rarities[traitType].length);\r\n        if (seed >> 8 < rarities[traitType][trait]) return trait;\r\n        return aliases[traitType][trait];\r\n    }\r\n\r\n  /**\r\n   * selects the species and all of its traits based on the seed value\r\n   * @param seed a pseudorandom 256 bit number to derive traits from\r\n   * @return t struct of randomly selected traits\r\n   */\r\n    function _selectTraits(uint256 seed) internal view returns (WormBirdTraits memory t) {\r\n        t.isWorm = (seed & 0xFFFF) % 2 != 0;\r\n        // Use 128 bytes of seed entropy to define traits\r\n        // THIS IS USING WIZARDS AND DRAGONS TRAITS -- WE NEED TO DEFINE OUR OWN TRAITS\r\n        // set offset to = \r\n        uint8 offset = t.isWorm ? 0 : 8;                                                    // Worm   Bird     \r\n        seed >>= 16; t.body = _selectTrait(uint16(seed & 0xFFFF), 0 + offset);              // body\r\n        seed >>= 16; t.eyes = _selectTrait(uint16(seed & 0xFFFF), 1 + offset);              // eyes    \r\n        seed >>= 16; t.mouth = _selectTrait(uint16(seed & 0xFFFF), 2 + offset);             // mouth  \r\n        seed >>= 16; t.hat = _selectTrait(uint16(seed & 0xFFFF), 3 + offset);               // hat  \r\n        seed >>= 16; t.facialAccessory = _selectTrait(uint16(seed & 0xFFFF), 4 + offset);   // facial accessory   \r\n        seed >>= 16; t.tail = _selectTrait(uint16(seed & 0xFFFF), 5 + offset);              // tail\r\n        seed >>= 16; t.heldItem = _selectTrait(uint16(seed & 0xFFFF), 6 + offset);          // held item\r\n        seed >>= 16; t.size = _selectTrait(uint16(seed & 0xFFFF), 7 + offset);         // rank index\r\n        return t;\r\n    }\r\n\r\n  /**\r\n   * converts a struct to a 256 bit hash to check for uniqueness\r\n   * @param t the struct to pack into a hash\r\n   * @return the 256 bit hash of the struct\r\n   */\r\n    function _structToHash(WormBirdTraits memory t) internal pure returns (uint256) {\r\n        return uint256(keccak256(\r\n            abi.encodePacked(\r\n                t.isWorm,\r\n                t.body,\r\n                t.eyes,\r\n                t.mouth,\r\n                t.hat,\r\n                t.facialAccessory,\r\n                t.tail,\r\n                t.heldItem,\r\n                t.size\r\n            )\r\n        ));\r\n    }\r\n\r\n    /** READ */\r\n\r\n    /**\r\n    * checks if a token is a Wizards\r\n    * @param tokenId the ID of the token to check\r\n    * @return wizard - whether or not a token is a Wizards\r\n    */\r\n    function isWorm(uint256 tokenId) external view override returns (bool) {\r\n        IEarlyBirdsNFT.WormBirdTraits memory w = tokenTraits[tokenId];\r\n        return w.isWorm;\r\n    }\r\n\r\n  /**\r\n    * enables an address to mint / burn\r\n    * @param addr the address to enable\r\n    */\r\n    function addAdmin(address addr) external onlyOwner {\r\n        admins[addr] = true;\r\n    }\r\n\r\n    /**\r\n    * disables an address from minting / burning\r\n    * @param addr the address to disbale\r\n    */\r\n    function removeAdmin(address addr) external onlyOwner {\r\n        admins[addr] = false;\r\n    }\r\n\r\n  /**\r\n    * overrides ERC721 ownerOf\r\n    * @param tokenId the ID of the token to check\r\n    */ \r\n\r\n    function ownerOf(uint256 tokenId) public view override(ERC721, IEarlyBirdsNFT) returns (address) {\r\n        return super.ownerOf(tokenId);\r\n    }\r\n\r\n    function transferFrom(address from, address to, uint256 tokenId) public override(ERC721, IEarlyBirdsNFT) {\r\n        //if(msg.sender != address(earlyBirdsGame)) {\r\n        if(!admins[msg.sender]) {\r\n            require(_isApprovedOrOwner(msg.sender, tokenId), \"ERC721: transfer caller not owner nor approved\");\r\n        }\r\n        _transfer(from, to, tokenId);\r\n    }\r\n\r\n    function safeTransferFrom(address from, address to, uint256 tokenId, bytes memory _data) public override(ERC721, IEarlyBirdsNFT) {\r\n        super.safeTransferFrom(from, to, tokenId, _data);\r\n    }\r\n\r\n}",
  "sourcePath": "C:\\Users\\Teddy Ingrassia\\Development\\worm-game\\src\\backend\\contracts\\EarlyBirdsNFT.sol",
  "compiler": {
    "name": "solc",
    "version": "0.8.0+commit.c7dfd78e.Emscripten.clang"
  },
  "schemaVersion": "3.4.4",
  "updatedAt": "2022-03-08T22:17:14.955Z",
  "networkType": "ethereum",
  "devdoc": {
    "kind": "dev",
    "methods": {
      "addAdmin(address)": {
        "params": {
          "addr": "the address to enable"
        }
      },
      "approve(address,uint256)": {
        "details": "See {IERC721-approve}."
      },
      "balanceOf(address)": {
        "details": "See {IERC721-balanceOf}."
      },
      "getApproved(uint256)": {
        "details": "See {IERC721-getApproved}."
      },
      "getMintDirtCost(uint16)": {
        "params": {
          "tokenId": "the ID to check the cost of to mint"
        },
        "returns": {
          "_0": "the cost of the given token ID"
        }
      },
      "isApprovedForAll(address,address)": {
        "details": "See {IERC721-isApprovedForAll}."
      },
      "isWorm(uint256)": {
        "params": {
          "tokenId": "the ID of the token to check"
        },
        "returns": {
          "_0": "wizard - whether or not a token is a Wizards"
        }
      },
      "name()": {
        "details": "See {IERC721Metadata-name}."
      },
      "owner()": {
        "details": "Returns the address of the current owner."
      },
      "ownerOf(uint256)": {
        "params": {
          "tokenId": "the ID of the token to check"
        }
      },
      "paused()": {
        "details": "Returns true if the contract is paused, and false otherwise."
      },
      "removeAdmin(address)": {
        "params": {
          "addr": "the address to disbale"
        }
      },
      "renounceOwnership()": {
        "details": "Leaves the contract without owner. It will not be possible to call `onlyOwner` functions anymore. Can only be called by the current owner. NOTE: Renouncing ownership will leave the contract without an owner, thereby removing any functionality that is only available to the owner."
      },
      "safeTransferFrom(address,address,uint256)": {
        "details": "See {IERC721-safeTransferFrom}."
      },
      "setApprovalForAll(address,bool)": {
        "details": "See {IERC721-setApprovalForAll}."
      },
      "supportsInterface(bytes4)": {
        "details": "See {IERC165-supportsInterface}."
      },
      "symbol()": {
        "details": "See {IERC721Metadata-symbol}."
      },
      "tokenByIndex(uint256)": {
        "details": "See {IERC721Enumerable-tokenByIndex}."
      },
      "tokenOfOwnerByIndex(address,uint256)": {
        "details": "See {IERC721Enumerable-tokenOfOwnerByIndex}."
      },
      "tokenURI(uint256)": {
        "details": "See {IERC721Metadata-tokenURI}."
      },
      "totalSupply()": {
        "details": "See {IERC721Enumerable-totalSupply}."
      },
      "transferOwnership(address)": {
        "details": "Transfers ownership of the contract to a new account (`newOwner`). Can only be called by the current owner."
      }
    },
    "version": 1
  },
  "userdoc": {
    "kind": "user",
    "methods": {
      "addAdmin(address)": {
        "notice": "enables an address to mint / burn"
      },
      "burn(uint256)": {
        "notice": "Burn a token - any game logic should be handled before this function."
      },
      "getMintDirtCost(uint16)": {
        "notice": "Calculate the dirt minting cost: - the first 20% are paid in ETH - the next 20% are 20000 $DIRT - the next 40% are 40000 $DIRT - the final 20% are 80000 $DIRT"
      },
      "getNumMinted()": {
        "notice": "updates the number of tokens for sale"
      },
      "getTraits(uint16)": {
        "notice": "Expose traits to trait contract."
      },
      "isWorm(uint256)": {
        "notice": "checks if a token is a Wizards"
      },
      "ownerOf(uint256)": {
        "notice": "overrides ERC721 ownerOf"
      },
      "removeAdmin(address)": {
        "notice": "disables an address from minting / burning"
      },
      "setInitialRandomSeed()": {
        "notice": "sets the initial random seed"
      },
      "setMaxMintAmount(uint16)": {
        "notice": "Set the max mints per account during persale and per tx during public sale"
      },
      "tokensOf(address)": {
        "notice": "Ennumerate tokens by owner."
      }
    },
    "version": 1
  }
}