{
  "contractName": "EarlyBirdsTraits",
  "abi": [
    {
      "inputs": [],
      "stateMutability": "nonpayable",
      "type": "constructor"
    },
    {
      "anonymous": false,
      "inputs": [
        {
          "indexed": true,
          "internalType": "address",
          "name": "previousOwner",
          "type": "address"
        },
        {
          "indexed": true,
          "internalType": "address",
          "name": "newOwner",
          "type": "address"
        }
      ],
      "name": "OwnershipTransferred",
      "type": "event"
    },
    {
      "anonymous": false,
      "inputs": [
        {
          "indexed": false,
          "internalType": "string",
          "name": "traitString",
          "type": "string"
        }
      ],
      "name": "traitString",
      "type": "event"
    },
    {
      "inputs": [],
      "name": "owner",
      "outputs": [
        {
          "internalType": "address",
          "name": "",
          "type": "address"
        }
      ],
      "stateMutability": "view",
      "type": "function"
    },
    {
      "inputs": [],
      "name": "renounceOwnership",
      "outputs": [],
      "stateMutability": "nonpayable",
      "type": "function"
    },
    {
      "inputs": [
        {
          "internalType": "uint8",
          "name": "",
          "type": "uint8"
        },
        {
          "internalType": "uint8",
          "name": "",
          "type": "uint8"
        }
      ],
      "name": "traitData",
      "outputs": [
        {
          "internalType": "string",
          "name": "name",
          "type": "string"
        },
        {
          "internalType": "string",
          "name": "png",
          "type": "string"
        }
      ],
      "stateMutability": "view",
      "type": "function"
    },
    {
      "inputs": [
        {
          "internalType": "address",
          "name": "newOwner",
          "type": "address"
        }
      ],
      "name": "transferOwnership",
      "outputs": [],
      "stateMutability": "nonpayable",
      "type": "function"
    },
    {
      "inputs": [
        {
          "internalType": "address",
          "name": "_earlyBirdsNFT",
          "type": "address"
        },
        {
          "internalType": "address",
          "name": "_earlyBirdsGame",
          "type": "address"
        }
      ],
      "name": "setContracts",
      "outputs": [],
      "stateMutability": "nonpayable",
      "type": "function"
    },
    {
      "inputs": [
        {
          "internalType": "uint8",
          "name": "traitTypeId",
          "type": "uint8"
        },
        {
          "internalType": "uint8[]",
          "name": "traitValueIds",
          "type": "uint8[]"
        },
        {
          "internalType": "string[][]",
          "name": "traits",
          "type": "string[][]"
        }
      ],
      "name": "uploadTraits",
      "outputs": [],
      "stateMutability": "nonpayable",
      "type": "function"
    },
    {
      "inputs": [
        {
          "internalType": "uint8",
          "name": "traitTypeId",
          "type": "uint8"
        },
        {
          "internalType": "uint8",
          "name": "traitValueId",
          "type": "uint8"
        }
      ],
      "name": "getTraitBase64",
      "outputs": [
        {
          "internalType": "string",
          "name": "",
          "type": "string"
        }
      ],
      "stateMutability": "nonpayable",
      "type": "function"
    },
    {
      "inputs": [
        {
          "internalType": "uint16",
          "name": "tokenId",
          "type": "uint16"
        }
      ],
      "name": "tokenURI",
      "outputs": [
        {
          "internalType": "string",
          "name": "",
          "type": "string"
        }
      ],
      "stateMutability": "view",
      "type": "function"
    }
  ],
  "bytecode": "0x608060405260405180604001604052806040518060400160405280600481526020017f576f726d0000000000000000000000000000000000000000000000000000000081525081526020016040518060400160405280600481526020017f42697264000000000000000000000000000000000000000000000000000000008152508152506001906002620000959291906200029e565b5060405180608001604052806040518060400160405280600181526020017f350000000000000000000000000000000000000000000000000000000000000081525081526020016040518060400160405280600181526020017f360000000000000000000000000000000000000000000000000000000000000081525081526020016040518060400160405280600181526020017f370000000000000000000000000000000000000000000000000000000000000081525081526020016040518060400160405280600181526020017f380000000000000000000000000000000000000000000000000000000000000081525081525060049060046200019d929190620002f8565b50348015620001ab57600080fd5b50620001cc620001c0620001d260201b60201c565b620001da60201b60201c565b620004d5565b600033905090565b60008060009054906101000a900473ffffffffffffffffffffffffffffffffffffffff169050816000806101000a81548173ffffffffffffffffffffffffffffffffffffffff021916908373ffffffffffffffffffffffffffffffffffffffff1602179055508173ffffffffffffffffffffffffffffffffffffffff168173ffffffffffffffffffffffffffffffffffffffff167f8be0079c531659141344cd1fd0a4f28419497f9722a3daafe3b4186f6b6457e060405160405180910390a35050565b8260038101928215620002e5579160200282015b82811115620002e4578251829080519060200190620002d392919062000352565b5091602001919060010190620002b2565b5b509050620002f49190620003e3565b5090565b82600481019282156200033f579160200282015b828111156200033e5782518290805190602001906200032d92919062000352565b50916020019190600101906200030c565b5b5090506200034e9190620003e3565b5090565b828054620003609062000470565b90600052602060002090601f016020900481019282620003845760008555620003d0565b82601f106200039f57805160ff1916838001178555620003d0565b82800160010185558215620003d0579182015b82811115620003cf578251825591602001919060010190620003b2565b5b509050620003df91906200040b565b5090565b5b80821115620004075760008181620003fd91906200042a565b50600101620003e4565b5090565b5b80821115620004265760008160009055506001016200040c565b5090565b508054620004389062000470565b6000825580601f106200044c57506200046d565b601f0160209004906000526020600020908101906200046c91906200040b565b5b50565b600060028204905060018216806200048957607f821691505b60208210811415620004a0576200049f620004a6565b5b50919050565b7f4e487b7100000000000000000000000000000000000000000000000000000000600052602260045260246000fd5b61516880620004e56000396000f3fe608060405234801561001057600080fd5b50600436106100885760003560e01c8063a1cdfe121161005b578063a1cdfe1214610102578063d8952a4914610132578063dd7d84401461014e578063f2fde38b1461017e57610088565b806313a6f3331461008d578063715018a6146100a95780638da5cb5b146100b35780639bf2ee35146100d1575b600080fd5b6100a760048036038101906100a29190613d8d565b61019a565b005b6100b1610510565b005b6100bb610598565b6040516100c89190614b05565b60405180910390f35b6100eb60048036038101906100e69190613e16565b6105c1565b6040516100f9929190614b42565b60405180910390f35b61011c60048036038101906101179190613e16565b610702565b6040516101299190614b20565b60405180910390f35b61014c60048036038101906101479190613c83565b610831565b005b61016860048036038101906101639190613d12565b610933565b6040516101759190614b20565b60405180910390f35b61019860048036038101906101939190613c5a565b610aba565b005b6101a2610bb2565b73ffffffffffffffffffffffffffffffffffffffff166101c0610598565b73ffffffffffffffffffffffffffffffffffffffff1614610216576040517f08c379a000000000000000000000000000000000000000000000000000000000815260040161020d90614bdb565b60405180910390fd5b81819050848490501461025e576040517f08c379a000000000000000000000000000000000000000000000000000000000815260040161025590614bbb565b60405180910390fd5b60005b828290508160ff16101561050857604051806040016040528084848460ff168181106102b6577f4e487b7100000000000000000000000000000000000000000000000000000000600052603260045260246000fd5b90506020028101906102c89190614c16565b6000818110610300577f4e487b7100000000000000000000000000000000000000000000000000000000600052603260045260246000fd5b90506020028101906103129190614c6d565b8080601f016020809104026020016040519081016040528093929190818152602001838380828437600081840152601f19601f82011690508083019250505050505050815260200184848460ff16818110610396577f4e487b7100000000000000000000000000000000000000000000000000000000600052603260045260246000fd5b90506020028101906103a89190614c16565b60018181106103e0577f4e487b7100000000000000000000000000000000000000000000000000000000600052603260045260246000fd5b90506020028101906103f29190614c6d565b8080601f016020809104026020016040519081016040528093929190818152602001838380828437600081840152601f19601f82011690508083019250505050505050815250600a60008860ff1660ff168152602001908152602001600020600087878560ff1681811061048f577f4e487b7100000000000000000000000000000000000000000000000000000000600052603260045260246000fd5b90506020020160208101906104a49190613d64565b60ff1660ff16815260200190815260200160002060008201518160000190805190602001906104d49291906139c9565b5060208201518160010190805190602001906104f19291906139c9565b50905050808061050090614f57565b915050610261565b505050505050565b610518610bb2565b73ffffffffffffffffffffffffffffffffffffffff16610536610598565b73ffffffffffffffffffffffffffffffffffffffff161461058c576040517f08c379a000000000000000000000000000000000000000000000000000000000815260040161058390614bdb565b60405180910390fd5b6105966000610bba565b565b60008060009054906101000a900473ffffffffffffffffffffffffffffffffffffffff16905090565b600a602052816000526040600020602052806000526040600020600091509150508060000180546105f190614edc565b80601f016020809104026020016040519081016040528092919081815260200182805461061d90614edc565b801561066a5780601f1061063f5761010080835404028352916020019161066a565b820191906000526020600020905b81548152906001019060200180831161064d57829003601f168201915b50505050509080600101805461067f90614edc565b80601f01602080910402602001604051908101604052809291908181526020018280546106ab90614edc565b80156106f85780601f106106cd576101008083540402835291602001916106f8565b820191906000526020600020905b8154815290600101906020018083116106db57829003601f168201915b5050505050905082565b60607fadc29497eda29bf565c599fc099b480ec2af0b72ca8ca927bfce0d72e7cf3c57600a60008560ff1660ff16815260200190815260200160002060008460ff1660ff1681526020019081526020016000206001016040516107659190614b79565b60405180910390a1600a60008460ff1660ff16815260200190815260200160002060008360ff1660ff16815260200190815260200160002060010180546107ab90614edc565b80601f01602080910402602001604051908101604052809291908181526020018280546107d790614edc565b80156108245780601f106107f957610100808354040283529160200191610824565b820191906000526020600020905b81548152906001019060200180831161080757829003601f168201915b5050505050905092915050565b610839610bb2565b73ffffffffffffffffffffffffffffffffffffffff16610857610598565b73ffffffffffffffffffffffffffffffffffffffff16146108ad576040517f08c379a00000000000000000000000000000000000000000000000000000000081526004016108a490614bdb565b60405180910390fd5b81600860006101000a81548173ffffffffffffffffffffffffffffffffffffffff021916908373ffffffffffffffffffffffffffffffffffffffff16021790555080600960006101000a81548173ffffffffffffffffffffffffffffffffffffffff021916908373ffffffffffffffffffffffffffffffffffffffff1602179055505050565b60606000600860009054906101000a900473ffffffffffffffffffffffffffffffffffffffff1673ffffffffffffffffffffffffffffffffffffffff166343e55e30846040518263ffffffff1660e01b81526004016109929190614bfb565b6101206040518083038186803b1580156109ab57600080fd5b505afa1580156109bf573d6000803e3d6000fd5b505050506040513d601f19601f820116820180604052508101906109e39190613ce8565b9050600081600001516109f75760016109fa565b60005b9050600060018260ff1660038110610a3b577f4e487b7100000000000000000000000000000000000000000000000000000000600052603260045260246000fd5b01610a498661ffff16610c7e565b610a5a610a5586610e2b565b612547565b610a6488876126f2565b604051602001610a779493929190614a7a565b6040516020818303038152906040529050610a9181612547565b604051602001610aa1919061482b565b6040516020818303038152906040529350505050919050565b610ac2610bb2565b73ffffffffffffffffffffffffffffffffffffffff16610ae0610598565b73ffffffffffffffffffffffffffffffffffffffff1614610b36576040517f08c379a0000000000000000000000000000000000000000000000000000000008152600401610b2d90614bdb565b60405180910390fd5b600073ffffffffffffffffffffffffffffffffffffffff168173ffffffffffffffffffffffffffffffffffffffff161415610ba6576040517f08c379a0000000000000000000000000000000000000000000000000000000008152600401610b9d90614b9b565b60405180910390fd5b610baf81610bba565b50565b600033905090565b60008060009054906101000a900473ffffffffffffffffffffffffffffffffffffffff169050816000806101000a81548173ffffffffffffffffffffffffffffffffffffffff021916908373ffffffffffffffffffffffffffffffffffffffff1602179055508173ffffffffffffffffffffffffffffffffffffffff168173ffffffffffffffffffffffffffffffffffffffff167f8be0079c531659141344cd1fd0a4f28419497f9722a3daafe3b4186f6b6457e060405160405180910390a35050565b60606000821415610cc6576040518060400160405280600181526020017f30000000000000000000000000000000000000000000000000000000000000008152509050610e26565b600082905060005b60008214610cf8578080610ce190614f0e565b915050600a82610cf19190614d87565b9150610cce565b60008167ffffffffffffffff811115610d3a577f4e487b7100000000000000000000000000000000000000000000000000000000600052604160045260246000fd5b6040519080825280601f01601f191660200182016040528015610d6c5781602001600182028036833780820191505090505b5090505b60008514610e1f57600182610d859190614e12565b9150600a85610d949190614f81565b6030610da09190614d31565b60f81b818381518110610ddc577f4e487b7100000000000000000000000000000000000000000000000000000000600052603260045260246000fd5b60200101907effffffffffffffffffffffffffffffffffffffffffffffffffffffffffffff1916908160001a905350600a85610e189190614d87565b9450610d70565b8093505050505b919050565b6060808260000151156119ad57610fa0600a60008060ff1681526020019081526020016000206000856020015160ff1660ff168152602001908152602001600020604051806040016040529081600082018054610e8790614edc565b80601f0160208091040260200160405190810160405280929190818152602001828054610eb390614edc565b8015610f005780601f10610ed557610100808354040283529160200191610f00565b820191906000526020600020905b815481529060010190602001808311610ee357829003601f168201915b50505050508152602001600182018054610f1990614edc565b80601f0160208091040260200160405190810160405280929190818152602001828054610f4590614edc565b8015610f925780601f10610f6757610100808354040283529160200191610f92565b820191906000526020600020905b815481529060010190602001808311610f7557829003601f168201915b505050505081525050613970565b611109600a6000600160ff1681526020019081526020016000206000866040015160ff1660ff168152602001908152602001600020604051806040016040529081600082018054610ff090614edc565b80601f016020809104026020016040519081016040528092919081815260200182805461101c90614edc565b80156110695780601f1061103e57610100808354040283529160200191611069565b820191906000526020600020905b81548152906001019060200180831161104c57829003601f168201915b5050505050815260200160018201805461108290614edc565b80601f01602080910402602001604051908101604052809291908181526020018280546110ae90614edc565b80156110fb5780601f106110d0576101008083540402835291602001916110fb565b820191906000526020600020905b8154815290600101906020018083116110de57829003601f168201915b505050505081525050613970565b611272600a6000600260ff1681526020019081526020016000206000876060015160ff1660ff16815260200190815260200160002060405180604001604052908160008201805461115990614edc565b80601f016020809104026020016040519081016040528092919081815260200182805461118590614edc565b80156111d25780601f106111a7576101008083540402835291602001916111d2565b820191906000526020600020905b8154815290600101906020018083116111b557829003601f168201915b505050505081526020016001820180546111eb90614edc565b80601f016020809104026020016040519081016040528092919081815260200182805461121790614edc565b80156112645780601f1061123957610100808354040283529160200191611264565b820191906000526020600020905b81548152906001019060200180831161124757829003601f168201915b505050505081525050613970565b6113db600a6000600360ff1681526020019081526020016000206000886080015160ff1660ff1681526020019081526020016000206040518060400160405290816000820180546112c290614edc565b80601f01602080910402602001604051908101604052809291908181526020018280546112ee90614edc565b801561133b5780601f106113105761010080835404028352916020019161133b565b820191906000526020600020905b81548152906001019060200180831161131e57829003601f168201915b5050505050815260200160018201805461135490614edc565b80601f016020809104026020016040519081016040528092919081815260200182805461138090614edc565b80156113cd5780601f106113a2576101008083540402835291602001916113cd565b820191906000526020600020905b8154815290600101906020018083116113b057829003601f168201915b505050505081525050613970565b611544600a6000600460ff16815260200190815260200160002060008960a0015160ff1660ff16815260200190815260200160002060405180604001604052908160008201805461142b90614edc565b80601f016020809104026020016040519081016040528092919081815260200182805461145790614edc565b80156114a45780601f10611479576101008083540402835291602001916114a4565b820191906000526020600020905b81548152906001019060200180831161148757829003601f168201915b505050505081526020016001820180546114bd90614edc565b80601f01602080910402602001604051908101604052809291908181526020018280546114e990614edc565b80156115365780601f1061150b57610100808354040283529160200191611536565b820191906000526020600020905b81548152906001019060200180831161151957829003601f168201915b505050505081525050613970565b6116ad600a6000600560ff16815260200190815260200160002060008a60c0015160ff1660ff16815260200190815260200160002060405180604001604052908160008201805461159490614edc565b80601f01602080910402602001604051908101604052809291908181526020018280546115c090614edc565b801561160d5780601f106115e25761010080835404028352916020019161160d565b820191906000526020600020905b8154815290600101906020018083116115f057829003601f168201915b5050505050815260200160018201805461162690614edc565b80601f016020809104026020016040519081016040528092919081815260200182805461165290614edc565b801561169f5780601f106116745761010080835404028352916020019161169f565b820191906000526020600020905b81548152906001019060200180831161168257829003601f168201915b505050505081525050613970565b611816600a6000600660ff16815260200190815260200160002060008b60e0015160ff1660ff1681526020019081526020016000206040518060400160405290816000820180546116fd90614edc565b80601f016020809104026020016040519081016040528092919081815260200182805461172990614edc565b80156117765780601f1061174b57610100808354040283529160200191611776565b820191906000526020600020905b81548152906001019060200180831161175957829003601f168201915b5050505050815260200160018201805461178f90614edc565b80601f01602080910402602001604051908101604052809291908181526020018280546117bb90614edc565b80156118085780601f106117dd57610100808354040283529160200191611808565b820191906000526020600020905b8154815290600101906020018083116117eb57829003601f168201915b505050505081525050613970565b611980600a6000600760ff16815260200190815260200160002060008c610100015160ff1660ff16815260200190815260200160002060405180604001604052908160008201805461186790614edc565b80601f016020809104026020016040519081016040528092919081815260200182805461189390614edc565b80156118e05780601f106118b5576101008083540402835291602001916118e0565b820191906000526020600020905b8154815290600101906020018083116118c357829003601f168201915b505050505081526020016001820180546118f990614edc565b80601f016020809104026020016040519081016040528092919081815260200182805461192590614edc565b80156119725780601f1061194757610100808354040283529160200191611972565b820191906000526020600020905b81548152906001019060200180831161195557829003601f168201915b505050505081525050613970565b604051602001611997989796959493929190614842565b604051602081830303815290604052905061251f565b611b16600a6000600860ff1681526020019081526020016000206000856020015160ff1660ff1681526020019081526020016000206040518060400160405290816000820180546119fd90614edc565b80601f0160208091040260200160405190810160405280929190818152602001828054611a2990614edc565b8015611a765780601f10611a4b57610100808354040283529160200191611a76565b820191906000526020600020905b815481529060010190602001808311611a5957829003601f168201915b50505050508152602001600182018054611a8f90614edc565b80601f0160208091040260200160405190810160405280929190818152602001828054611abb90614edc565b8015611b085780601f10611add57610100808354040283529160200191611b08565b820191906000526020600020905b815481529060010190602001808311611aeb57829003601f168201915b505050505081525050613970565b611c7f600a6000600960ff1681526020019081526020016000206000866040015160ff1660ff168152602001908152602001600020604051806040016040529081600082018054611b6690614edc565b80601f0160208091040260200160405190810160405280929190818152602001828054611b9290614edc565b8015611bdf5780601f10611bb457610100808354040283529160200191611bdf565b820191906000526020600020905b815481529060010190602001808311611bc257829003601f168201915b50505050508152602001600182018054611bf890614edc565b80601f0160208091040260200160405190810160405280929190818152602001828054611c2490614edc565b8015611c715780601f10611c4657610100808354040283529160200191611c71565b820191906000526020600020905b815481529060010190602001808311611c5457829003601f168201915b505050505081525050613970565b611de8600a6000600a60ff1681526020019081526020016000206000876060015160ff1660ff168152602001908152602001600020604051806040016040529081600082018054611ccf90614edc565b80601f0160208091040260200160405190810160405280929190818152602001828054611cfb90614edc565b8015611d485780601f10611d1d57610100808354040283529160200191611d48565b820191906000526020600020905b815481529060010190602001808311611d2b57829003601f168201915b50505050508152602001600182018054611d6190614edc565b80601f0160208091040260200160405190810160405280929190818152602001828054611d8d90614edc565b8015611dda5780601f10611daf57610100808354040283529160200191611dda565b820191906000526020600020905b815481529060010190602001808311611dbd57829003601f168201915b505050505081525050613970565b611f51600a6000600b60ff1681526020019081526020016000206000886080015160ff1660ff168152602001908152602001600020604051806040016040529081600082018054611e3890614edc565b80601f0160208091040260200160405190810160405280929190818152602001828054611e6490614edc565b8015611eb15780601f10611e8657610100808354040283529160200191611eb1565b820191906000526020600020905b815481529060010190602001808311611e9457829003601f168201915b50505050508152602001600182018054611eca90614edc565b80601f0160208091040260200160405190810160405280929190818152602001828054611ef690614edc565b8015611f435780601f10611f1857610100808354040283529160200191611f43565b820191906000526020600020905b815481529060010190602001808311611f2657829003601f168201915b505050505081525050613970565b6120ba600a6000600c60ff16815260200190815260200160002060008960a0015160ff1660ff168152602001908152602001600020604051806040016040529081600082018054611fa190614edc565b80601f0160208091040260200160405190810160405280929190818152602001828054611fcd90614edc565b801561201a5780601f10611fef5761010080835404028352916020019161201a565b820191906000526020600020905b815481529060010190602001808311611ffd57829003601f168201915b5050505050815260200160018201805461203390614edc565b80601f016020809104026020016040519081016040528092919081815260200182805461205f90614edc565b80156120ac5780601f10612081576101008083540402835291602001916120ac565b820191906000526020600020905b81548152906001019060200180831161208f57829003601f168201915b505050505081525050613970565b612223600a6000600d60ff16815260200190815260200160002060008a60c0015160ff1660ff16815260200190815260200160002060405180604001604052908160008201805461210a90614edc565b80601f016020809104026020016040519081016040528092919081815260200182805461213690614edc565b80156121835780601f1061215857610100808354040283529160200191612183565b820191906000526020600020905b81548152906001019060200180831161216657829003601f168201915b5050505050815260200160018201805461219c90614edc565b80601f01602080910402602001604051908101604052809291908181526020018280546121c890614edc565b80156122155780601f106121ea57610100808354040283529160200191612215565b820191906000526020600020905b8154815290600101906020018083116121f857829003601f168201915b505050505081525050613970565b61238c600a6000600e60ff16815260200190815260200160002060008b60e0015160ff1660ff16815260200190815260200160002060405180604001604052908160008201805461227390614edc565b80601f016020809104026020016040519081016040528092919081815260200182805461229f90614edc565b80156122ec5780601f106122c1576101008083540402835291602001916122ec565b820191906000526020600020905b8154815290600101906020018083116122cf57829003601f168201915b5050505050815260200160018201805461230590614edc565b80601f016020809104026020016040519081016040528092919081815260200182805461233190614edc565b801561237e5780601f106123535761010080835404028352916020019161237e565b820191906000526020600020905b81548152906001019060200180831161236157829003601f168201915b505050505081525050613970565b6124f6600a6000600f60ff16815260200190815260200160002060008c610100015160ff1660ff1681526020019081526020016000206040518060400160405290816000820180546123dd90614edc565b80601f016020809104026020016040519081016040528092919081815260200182805461240990614edc565b80156124565780601f1061242b57610100808354040283529160200191612456565b820191906000526020600020905b81548152906001019060200180831161243957829003601f168201915b5050505050815260200160018201805461246f90614edc565b80601f016020809104026020016040519081016040528092919081815260200182805461249b90614edc565b80156124e85780601f106124bd576101008083540402835291602001916124e8565b820191906000526020600020905b8154815290600101906020018083116124cb57829003601f168201915b505050505081525050613970565b60405160200161250d989796959493929190614842565b60405160208183030381529060405290505b8060405160200161253091906149f0565b604051602081830303815290604052915050919050565b606060008251141561256a576040518060200160405280600081525090506126ed565b60006040518060600160405280604081526020016150f360409139905060006003600285516125999190614d31565b6125a39190614d87565b60046125af9190614db8565b905060006020826125c09190614d31565b67ffffffffffffffff8111156125ff577f4e487b7100000000000000000000000000000000000000000000000000000000600052604160045260246000fd5b6040519080825280601f01601f1916602001820160405280156126315781602001600182028036833780820191505090505b509050818152600183018586518101602084015b818310156126ac576003830192508251603f8160121c1685015160f81b8252600182019150603f81600c1c1685015160f81b8252600182019150603f8160061c1685015160f81b8252600182019150603f811685015160f81b825260018201915050612645565b6003895106600181146126c657600281146126d6576126e1565b613d3d60f01b60028303526126e1565b603d60f81b60018303525b50505050508093505050505b919050565b6060816000015115612f0b576127f96040518060400160405280600481526020017f426f647900000000000000000000000000000000000000000000000000000000815250600a60008060ff1681526020019081526020016000206000856020015160ff1660ff168152602001908152602001600020600001805461277690614edc565b80601f01602080910402602001604051908101604052809291908181526020018280546127a290614edc565b80156127ef5780601f106127c4576101008083540402835291602001916127ef565b820191906000526020600020905b8154815290600101906020018083116127d257829003601f168201915b505050505061399d565b6128f56040518060400160405280600481526020017f4579657300000000000000000000000000000000000000000000000000000000815250600a6000600160ff1681526020019081526020016000206000866040015160ff1660ff168152602001908152602001600020600001805461287290614edc565b80601f016020809104026020016040519081016040528092919081815260200182805461289e90614edc565b80156128eb5780601f106128c0576101008083540402835291602001916128eb565b820191906000526020600020905b8154815290600101906020018083116128ce57829003601f168201915b505050505061399d565b6129f16040518060400160405280600581526020017f4d6f757468000000000000000000000000000000000000000000000000000000815250600a6000600260ff1681526020019081526020016000206000876060015160ff1660ff168152602001908152602001600020600001805461296e90614edc565b80601f016020809104026020016040519081016040528092919081815260200182805461299a90614edc565b80156129e75780601f106129bc576101008083540402835291602001916129e7565b820191906000526020600020905b8154815290600101906020018083116129ca57829003601f168201915b505050505061399d565b612aed6040518060400160405280600381526020017f4861740000000000000000000000000000000000000000000000000000000000815250600a6000600360ff1681526020019081526020016000206000886080015160ff1660ff1681526020019081526020016000206000018054612a6a90614edc565b80601f0160208091040260200160405190810160405280929190818152602001828054612a9690614edc565b8015612ae35780601f10612ab857610100808354040283529160200191612ae3565b820191906000526020600020905b815481529060010190602001808311612ac657829003601f168201915b505050505061399d565b612be96040518060400160405280601081526020017f46616369616c204163636573736f727900000000000000000000000000000000815250600a6000600460ff16815260200190815260200160002060008960a0015160ff1660ff1681526020019081526020016000206000018054612b6690614edc565b80601f0160208091040260200160405190810160405280929190818152602001828054612b9290614edc565b8015612bdf5780601f10612bb457610100808354040283529160200191612bdf565b820191906000526020600020905b815481529060010190602001808311612bc257829003601f168201915b505050505061399d565b612ce56040518060400160405280600481526020017f5461696c00000000000000000000000000000000000000000000000000000000815250600a6000600560ff16815260200190815260200160002060008a60c0015160ff1660ff1681526020019081526020016000206000018054612c6290614edc565b80601f0160208091040260200160405190810160405280929190818152602001828054612c8e90614edc565b8015612cdb5780601f10612cb057610100808354040283529160200191612cdb565b820191906000526020600020905b815481529060010190602001808311612cbe57829003601f168201915b505050505061399d565b612de16040518060400160405280600981526020017f48656c64204974656d0000000000000000000000000000000000000000000000815250600a6000600660ff16815260200190815260200160002060008b60e0015160ff1660ff1681526020019081526020016000206000018054612d5e90614edc565b80601f0160208091040260200160405190810160405280929190818152602001828054612d8a90614edc565b8015612dd75780601f10612dac57610100808354040283529160200191612dd7565b820191906000526020600020905b815481529060010190602001808311612dba57829003601f168201915b505050505061399d565b612ede6040518060400160405280600881526020017f537472656e677468000000000000000000000000000000000000000000000000815250600a6000600760ff16815260200190815260200160002060008c610100015160ff1660ff1681526020019081526020016000206000018054612e5b90614edc565b80601f0160208091040260200160405190810160405280929190818152602001828054612e8790614edc565b8015612ed45780601f10612ea957610100808354040283529160200191612ed4565b820191906000526020600020905b815481529060010190602001808311612eb757829003601f168201915b505050505061399d565b604051602001612ef59897969594939291906148b4565b6040516020818303038152906040529050613715565b6130076040518060400160405280600481526020017f426f647900000000000000000000000000000000000000000000000000000000815250600a6000600860ff1681526020019081526020016000206000856020015160ff1660ff1681526020019081526020016000206000018054612f8490614edc565b80601f0160208091040260200160405190810160405280929190818152602001828054612fb090614edc565b8015612ffd5780601f10612fd257610100808354040283529160200191612ffd565b820191906000526020600020905b815481529060010190602001808311612fe057829003601f168201915b505050505061399d565b6131036040518060400160405280600481526020017f4865616400000000000000000000000000000000000000000000000000000000815250600a6000600960ff1681526020019081526020016000206000866040015160ff1660ff168152602001908152602001600020600001805461308090614edc565b80601f01602080910402602001604051908101604052809291908181526020018280546130ac90614edc565b80156130f95780601f106130ce576101008083540402835291602001916130f9565b820191906000526020600020905b8154815290600101906020018083116130dc57829003601f168201915b505050505061399d565b6131ff6040518060400160405280600581526020017f5370656c6c000000000000000000000000000000000000000000000000000000815250600a6000600a60ff1681526020019081526020016000206000876060015160ff1660ff168152602001908152602001600020600001805461317c90614edc565b80601f01602080910402602001604051908101604052809291908181526020018280546131a890614edc565b80156131f55780601f106131ca576101008083540402835291602001916131f5565b820191906000526020600020905b8154815290600101906020018083116131d857829003601f168201915b505050505061399d565b6132fb6040518060400160405280600481526020017f4579657300000000000000000000000000000000000000000000000000000000815250600a6000600b60ff1681526020019081526020016000206000886080015160ff1660ff168152602001908152602001600020600001805461327890614edc565b80601f01602080910402602001604051908101604052809291908181526020018280546132a490614edc565b80156132f15780601f106132c6576101008083540402835291602001916132f1565b820191906000526020600020905b8154815290600101906020018083116132d457829003601f168201915b505050505061399d565b6133f76040518060400160405280600481526020017f4e65636b00000000000000000000000000000000000000000000000000000000815250600a6000600c60ff16815260200190815260200160002060008960a0015160ff1660ff168152602001908152602001600020600001805461337490614edc565b80601f01602080910402602001604051908101604052809291908181526020018280546133a090614edc565b80156133ed5780601f106133c2576101008083540402835291602001916133ed565b820191906000526020600020905b8154815290600101906020018083116133d057829003601f168201915b505050505061399d565b6134f36040518060400160405280600581526020017f4d6f757468000000000000000000000000000000000000000000000000000000815250600a6000600d60ff16815260200190815260200160002060008a60c0015160ff1660ff168152602001908152602001600020600001805461347090614edc565b80601f016020809104026020016040519081016040528092919081815260200182805461349c90614edc565b80156134e95780601f106134be576101008083540402835291602001916134e9565b820191906000526020600020905b8154815290600101906020018083116134cc57829003601f168201915b505050505061399d565b6135ef6040518060400160405280600481526020017f57616e7400000000000000000000000000000000000000000000000000000000815250600a6000600e60ff16815260200190815260200160002060008b60e0015160ff1660ff168152602001908152602001600020600001805461356c90614edc565b80601f016020809104026020016040519081016040528092919081815260200182805461359890614edc565b80156135e55780601f106135ba576101008083540402835291602001916135e5565b820191906000526020600020905b8154815290600101906020018083116135c857829003601f168201915b505050505061399d565b6136ec6040518060400160405280600481526020017f53697a6500000000000000000000000000000000000000000000000000000000815250600a6000600f60ff16815260200190815260200160002060008c610100015160ff1660ff168152602001908152602001600020600001805461366990614edc565b80601f016020809104026020016040519081016040528092919081815260200182805461369590614edc565b80156136e25780601f106136b7576101008083540402835291602001916136e2565b820191906000526020600020905b8154815290600101906020018083116136c557829003601f168201915b505050505061399d565b6040516020016137039897969594939291906148b4565b60405160208183030381529060405290505b6000826000015161372757600161372a565b60005b90506000600860009054906101000a900473ffffffffffffffffffffffffffffffffffffffff1673ffffffffffffffffffffffffffffffffffffffff166354c96c836040518163ffffffff1660e01b815260040160206040518083038186803b15801561379657600080fd5b505afa1580156137aa573d6000803e3d6000fd5b505050506040513d601f19601f820116820180604052508101906137ce9190613d3b565b8561ffff16116137e157600090506137e6565b600190505b82811580156138915750600960009054906101000a900473ffffffffffffffffffffffffffffffffffffffff1673ffffffffffffffffffffffffffffffffffffffff1663d94f02d56040518163ffffffff1660e01b815260040160206040518083038186803b15801561385857600080fd5b505afa15801561386c573d6000803e3d6000fd5b505050506040513d601f19601f820116820180604052508101906138909190613cbf565b5b6138d0576040518060400160405280600781526020017f2247454e20312200000000000000000000000000000000000000000000000000815250613907565b6040518060400160405280600781526020017f2247454e203022000000000000000000000000000000000000000000000000008152505b60018460ff1660038110613944577f4e487b7100000000000000000000000000000000000000000000000000000000600052603260045260246000fd5b0160405160200161395793929190614a1d565b6040516020818303038152906040529250505092915050565b60608160200151604051602001613987919061497e565b6040516020818303038152906040529050919050565b606082826040516020016139b29291906149ab565b604051602081830303815290604052905092915050565b8280546139d590614edc565b90600052602060002090601f0160209004810192826139f75760008555613a3e565b82601f10613a1057805160ff1916838001178555613a3e565b82800160010185558215613a3e579182015b82811115613a3d578251825591602001919060010190613a22565b5b509050613a4b9190613a4f565b5090565b5b80821115613a68576000816000905550600101613a50565b5090565b600081359050613a7b8161507f565b92915050565b60008083601f840112613a9357600080fd5b8235905067ffffffffffffffff811115613aac57600080fd5b602083019150836020820283011115613ac457600080fd5b9250929050565b60008083601f840112613add57600080fd5b8235905067ffffffffffffffff811115613af657600080fd5b602083019150836020820283011115613b0e57600080fd5b9250929050565b600081519050613b2481615096565b92915050565b60006101208284031215613b3d57600080fd5b613b48610120614cc4565b90506000613b5884828501613b15565b6000830152506020613b6c84828501613c45565b6020830152506040613b8084828501613c45565b6040830152506060613b9484828501613c45565b6060830152506080613ba884828501613c45565b60808301525060a0613bbc84828501613c45565b60a08301525060c0613bd084828501613c45565b60c08301525060e0613be484828501613c45565b60e083015250610100613bf984828501613c45565b6101008301525092915050565b600081359050613c15816150ad565b92915050565b600081519050613c2a816150c4565b92915050565b600081359050613c3f816150db565b92915050565b600081519050613c54816150db565b92915050565b600060208284031215613c6c57600080fd5b6000613c7a84828501613a6c565b91505092915050565b60008060408385031215613c9657600080fd5b6000613ca485828601613a6c565b9250506020613cb585828601613a6c565b9150509250929050565b600060208284031215613cd157600080fd5b6000613cdf84828501613b15565b91505092915050565b60006101208284031215613cfb57600080fd5b6000613d0984828501613b2a565b91505092915050565b600060208284031215613d2457600080fd5b6000613d3284828501613c06565b91505092915050565b600060208284031215613d4d57600080fd5b6000613d5b84828501613c1b565b91505092915050565b600060208284031215613d7657600080fd5b6000613d8484828501613c30565b91505092915050565b600080600080600060608688031215613da557600080fd5b6000613db388828901613c30565b955050602086013567ffffffffffffffff811115613dd057600080fd5b613ddc88828901613acb565b9450945050604086013567ffffffffffffffff811115613dfb57600080fd5b613e0788828901613a81565b92509250509295509295909350565b60008060408385031215613e2957600080fd5b6000613e3785828601613c30565b9250506020613e4885828601613c30565b9150509250929050565b613e5b81614e46565b82525050565b6000613e6c82614d0a565b613e768185614d15565b9350613e86818560208601614ea9565b613e8f8161506e565b840191505092915050565b6000613ea582614d0a565b613eaf8185614d26565b9350613ebf818560208601614ea9565b80840191505092915050565b60008154613ed881614edc565b613ee28186614d15565b94506001821660008114613efd5760018114613f0f57613f42565b60ff1983168652602086019350613f42565b613f1885614cf5565b60005b83811015613f3a57815481890152600182019150602081019050613f1b565b808801955050505b50505092915050565b60008154613f5881614edc565b613f628186614d26565b94506001821660008114613f7d5760018114613f8e57613fc1565b60ff19831686528186019350613fc1565b613f9785614cf5565b60005b83811015613fb957815481890152600182019150602081019050613f9a565b838801955050505b50505092915050565b6000613fd7602083614d26565b91507f7d2c7b2274726169745f74797065223a2254797065222c2276616c7565223a226000830152602082019050919050565b6000614017608783614d26565b91507f3c696d61676520783d22342220793d2234222077696474683d2233322220686560008301527f696768743d2233322220696d6167652d72656e646572696e673d22706978656c60208301527f6174656422207072657365727665417370656374526174696f3d22784d69645960408301527f4d69642220786c696e6b3a687265663d22646174613a696d6167652f706e673b60608301527f6261736536342c000000000000000000000000000000000000000000000000006080830152608782019050919050565b60006140ef600283614d26565b91507f20230000000000000000000000000000000000000000000000000000000000006000830152600282019050919050565b600061412f602683614d15565b91507f4f776e61626c653a206e6577206f776e657220697320746865207a65726f206160008301527f64647265737300000000000000000000000000000000000000000000000000006020830152604082019050919050565b6000614195600183614d26565b91507f2c000000000000000000000000000000000000000000000000000000000000006000830152600182019050919050565b60006141d5600f83614d26565b91507f7b2274726169745f74797065223a2200000000000000000000000000000000006000830152600f82019050919050565b6000614215600383614d26565b91507f227d5d00000000000000000000000000000000000000000000000000000000006000830152600382019050919050565b6000614255609083614d26565b91507f3c7376672077696474683d223130302522206865696768743d2231303025222060008301527f76657273696f6e3d22312e31222076696577426f783d2230203020343020343060208301527f2220786d6c6e733d22687474703a2f2f7777772e77332e6f72672f323030302f60408301527f7376672220786d6c6e733a786c696e6b3d22687474703a2f2f7777772e77332e60608301527f6f72672f313939392f786c696e6b223e000000000000000000000000000000006080830152609082019050919050565b600061432d601183614d15565b91507f4d69736d61746368656420696e707574730000000000000000000000000000006000830152602082019050919050565b600061436d600283614d26565b91507f227d0000000000000000000000000000000000000000000000000000000000006000830152600282019050919050565b60006143ad601083614d26565b91507f222c202261747472696275746573223a000000000000000000000000000000006000830152601082019050919050565b60006143ed600183614d26565b91507f7d000000000000000000000000000000000000000000000000000000000000006000830152600182019050919050565b600061442d607483614d26565b91507f73206f6e6c79206f6e6520736d616c6c2070726f626c656d202d2d207468652060008301527f6661726d206861732067726f776e20746f6f2062696720616e642061206e657760208301527f20746872656174206f66206e61747572652068617320656e746572656420746860408301527f652067616d652e222c2022696d616765223a20220000000000000000000000006060830152607482019050919050565b60006144df602083614d15565b91507f4f776e61626c653a2063616c6c6572206973206e6f7420746865206f776e65726000830152602082019050919050565b600061451f600183614d26565b91507f5b000000000000000000000000000000000000000000000000000000000000006000830152600182019050919050565b600061455f600183614d26565b91507f27000000000000000000000000000000000000000000000000000000000000006000830152600182019050919050565b600061459f600a83614d26565b91507f7b226e616d65223a2022000000000000000000000000000000000000000000006000830152600a82019050919050565b60006145df600b83614d26565b91507f222c2276616c7565223a220000000000000000000000000000000000000000006000830152600b82019050919050565b600061461f600383614d26565b91507f222f3e00000000000000000000000000000000000000000000000000000000006000830152600382019050919050565b600061465f60cd83614d26565b91507f222c20226465736372697074696f6e223a2022546865206d657461766572736560008301527f206d61696e6c616e642069732066756c6c206f66206372656174757265732e2060208301527f41726f756e6420746865204661726d2c20616e206162756e64616e6365206f6660408301527f20526162626974732073637572727920746f206861727665737420434152524f60608301527f542e20416c6f6e6773696465204661726d6572732c207468657920657870616e60808301527f6420746865206661726d20616e64206d756c7469706c7920746865697220656160a08301527f726e696e67732e2054686572650000000000000000000000000000000000000060c083015260cd82019050919050565b6000614783602383614d26565b91507f7b2274726169745f74797065223a2247656e65726174696f6e222c2276616c7560008301527f65223a00000000000000000000000000000000000000000000000000000000006020830152602382019050919050565b60006147e9600683614d26565b91507f3c2f7376673e00000000000000000000000000000000000000000000000000006000830152600682019050919050565b61482581614e64565b82525050565b60006148378284613e9a565b915081905092915050565b600061484e828b613e9a565b915061485a828a613e9a565b91506148668289613e9a565b91506148728288613e9a565b915061487e8287613e9a565b915061488a8286613e9a565b91506148968285613e9a565b91506148a28284613e9a565b91508190509998505050505050505050565b60006148c0828b613e9a565b91506148cb82614188565b91506148d7828a613e9a565b91506148e282614188565b91506148ee8289613e9a565b91506148f982614188565b91506149058288613e9a565b915061491082614188565b915061491c8287613e9a565b915061492782614188565b91506149338286613e9a565b915061493e82614188565b915061494a8285613e9a565b915061495582614188565b91506149618284613e9a565b915061496c82614188565b91508190509998505050505050505050565b60006149898261400a565b91506149958284613e9a565b91506149a082614612565b915081905092915050565b60006149b6826141c8565b91506149c28285613e9a565b91506149cd826145d2565b91506149d98284613e9a565b91506149e482614360565b91508190509392505050565b60006149fb82614248565b9150614a078284613e9a565b9150614a12826147dc565b915081905092915050565b6000614a2882614512565b9150614a348286613e9a565b9150614a3f82614776565b9150614a4b8285613e9a565b9150614a5682613fca565b9150614a628284613f4b565b9150614a6d82614208565b9150819050949350505050565b6000614a8582614592565b9150614a918287613f4b565b9150614a9c826140e2565b9150614aa88286613e9a565b9150614ab382614652565b9150614abe82614552565b9150614ac982614420565b9150614ad58285613e9a565b9150614ae0826143a0565b9150614aec8284613e9a565b9150614af7826143e0565b915081905095945050505050565b6000602082019050614b1a6000830184613e52565b92915050565b60006020820190508181036000830152614b3a8184613e61565b905092915050565b60006040820190508181036000830152614b5c8185613e61565b90508181036020830152614b708184613e61565b90509392505050565b60006020820190508181036000830152614b938184613ecb565b905092915050565b60006020820190508181036000830152614bb481614122565b9050919050565b60006020820190508181036000830152614bd481614320565b9050919050565b60006020820190508181036000830152614bf4816144d2565b9050919050565b6000602082019050614c10600083018461481c565b92915050565b60008083356001602003843603038112614c2f57600080fd5b80840192508235915067ffffffffffffffff821115614c4d57600080fd5b602083019250602082023603831315614c6557600080fd5b509250929050565b60008083356001602003843603038112614c8657600080fd5b80840192508235915067ffffffffffffffff821115614ca457600080fd5b602083019250600182023603831315614cbc57600080fd5b509250929050565b6000604051905081810181811067ffffffffffffffff82111715614ceb57614cea61503f565b5b8060405250919050565b60008190508160005260206000209050919050565b600081519050919050565b600082825260208201905092915050565b600081905092915050565b6000614d3c82614e92565b9150614d4783614e92565b9250827fffffffffffffffffffffffffffffffffffffffffffffffffffffffffffffffff03821115614d7c57614d7b614fb2565b5b828201905092915050565b6000614d9282614e92565b9150614d9d83614e92565b925082614dad57614dac614fe1565b5b828204905092915050565b6000614dc382614e92565b9150614dce83614e92565b9250817fffffffffffffffffffffffffffffffffffffffffffffffffffffffffffffffff0483118215151615614e0757614e06614fb2565b5b828202905092915050565b6000614e1d82614e92565b9150614e2883614e92565b925082821015614e3b57614e3a614fb2565b5b828203905092915050565b6000614e5182614e72565b9050919050565b60008115159050919050565b600061ffff82169050919050565b600073ffffffffffffffffffffffffffffffffffffffff82169050919050565b6000819050919050565b600060ff82169050919050565b60005b83811015614ec7578082015181840152602081019050614eac565b83811115614ed6576000848401525b50505050565b60006002820490506001821680614ef457607f821691505b60208210811415614f0857614f07615010565b5b50919050565b6000614f1982614e92565b91507fffffffffffffffffffffffffffffffffffffffffffffffffffffffffffffffff821415614f4c57614f4b614fb2565b5b600182019050919050565b6000614f6282614e9c565b915060ff821415614f7657614f75614fb2565b5b600182019050919050565b6000614f8c82614e92565b9150614f9783614e92565b925082614fa757614fa6614fe1565b5b828206905092915050565b7f4e487b7100000000000000000000000000000000000000000000000000000000600052601160045260246000fd5b7f4e487b7100000000000000000000000000000000000000000000000000000000600052601260045260246000fd5b7f4e487b7100000000000000000000000000000000000000000000000000000000600052602260045260246000fd5b7f4e487b7100000000000000000000000000000000000000000000000000000000600052604160045260246000fd5b6000601f19601f8301169050919050565b61508881614e46565b811461509357600080fd5b50565b61509f81614e58565b81146150aa57600080fd5b50565b6150b681614e64565b81146150c157600080fd5b50565b6150cd81614e92565b81146150d857600080fd5b50565b6150e481614e9c565b81146150ef57600080fd5b5056fe4142434445464748494a4b4c4d4e4f505152535455565758595a6162636465666768696a6b6c6d6e6f707172737475767778797a303132333435363738392b2fa2646970667358221220df8a79da20c5d6c3c5aeb29de087ad1ec1c009ce412eabc5717a45cef1a453f564736f6c63430008000033",
  "immutableReferences": {},
  "source": "// SPDX-License-Identifier: MIT\r\n\r\npragma solidity ^0.8.0;\r\n\r\nimport \"@openzeppelin/contracts/access/Ownable.sol\";\r\nimport \"@openzeppelin/contracts/utils/Strings.sol\";\r\n\r\nimport \"./interfaces/IEarlyBirdsTraits.sol\";\r\nimport \"./interfaces/IEarlyBirdsNFT.sol\";\r\nimport \"./interfaces/IEarlyBirdsGame.sol\";\r\n\r\ncontract EarlyBirdsTraits is IEarlyBirdsTraits, Ownable {\r\n  using Strings for uint256; // add [uint256].toString()\r\n\r\n  event traitString(string traitString);\r\n\r\n  // Struct to store each trait's data for metadata and rendering\r\n  struct Trait { string name; string png; }\r\n\r\n  // Mapping of traits to metadata display names\r\n  string[3] private _players = [ \"Worm\", \"Bird\" ];\r\n  string[4] private _sizes = [ \"5\", \"6\", \"7\", \"8\"  ];\r\n\r\n  // EarlyBirdss NFT address reference\r\n  IEarlyBirdsNFT private earlyBirdsNFT;\r\n  IEarlyBirdsGame private earlyBirdsGame;\r\n\r\n  // Storage of each traits name and base64 PNG data [TRAIT][TRAIT VALUE]\r\n  mapping(uint8 => mapping(uint8 => Trait)) public traitData;\r\n\r\n  constructor() {}\r\n\r\n  /**\r\n   * Update the NFT contract address outside constructor as it would\r\n   * create a cyclic dependency.\r\n   */\r\n   \r\n  function setContracts(address _earlyBirdsNFT, address _earlyBirdsGame) external onlyOwner {\r\n    earlyBirdsNFT = IEarlyBirdsNFT(_earlyBirdsNFT);\r\n    earlyBirdsGame = IEarlyBirdsGame(_earlyBirdsGame);\r\n  }\r\n\r\n  /**\r\n   * Upload trait art to blockchain!\r\n   * @param traitTypeId trait name id (0 corresponds to \"fur\")\r\n   * @param traitValueIds trait value id (3 corresponds to \"black\")\r\n   * @param traits array of trait [name, png] (e.g,. [bandana, {bytes}])\r\n   */\r\n  function uploadTraits(uint8 traitTypeId, uint8[] calldata traitValueIds, string[][] calldata traits) external onlyOwner {\r\n    require(traitValueIds.length == traits.length, \"Mismatched inputs\");\r\n    for (uint8 i = 0; i < traits.length; i++) {\r\n      traitData[traitTypeId][traitValueIds[i]] = Trait(\r\n        traits[i][0],\r\n        traits[i][1]\r\n      );\r\n    }\r\n  }\r\n  function getTraitBase64(uint8 traitTypeId, uint8 traitValueId) external returns(string memory) {\r\n      emit traitString(traitData[traitTypeId][traitValueId].png);\r\n      return traitData[traitTypeId][traitValueId].png;\r\n  }\r\n  /**\r\n   * generates an <image> element using base64 encoded PNGs\r\n   * @param trait the trait storing the PNG data\r\n   * @return the <image> element\r\n   */\r\n  function _drawTrait(Trait memory trait) internal pure returns (string memory) {\r\n    return string(abi.encodePacked(\r\n      '<image x=\"4\" y=\"4\" width=\"32\" height=\"32\" image-rendering=\"pixelated\" preserveAspectRatio=\"xMidYMid\" xlink:href=\"data:image/png;base64,',\r\n      trait.png,\r\n      '\"/>'\r\n    ));\r\n  }\r\n\r\n  /**\r\n   * Generates an entire SVG by composing multiple <image> elements of PNGs\r\n   * @param t token trait struct\r\n   * @return layered SVG\r\n   */\r\n  function _drawSVG(IEarlyBirdsNFT.WormBirdTraits memory t) internal view returns (string memory) {\r\n    string memory svg;\r\n    if (t.isWorm) {\r\n      svg = string(abi.encodePacked(\r\n        //these traits are not final but just an idea of what it might look like - not sure if i should include size here or not\r\n        _drawTrait(traitData[0][t.body]), \r\n        _drawTrait(traitData[1][t.eyes]), \r\n        _drawTrait(traitData[2][t.mouth]), \r\n        _drawTrait(traitData[3][t.hat]), \r\n        _drawTrait(traitData[4][t.facialAccessory]), \r\n        _drawTrait(traitData[5][t.tail]), \r\n        _drawTrait(traitData[6][t.heldItem]),\r\n        _drawTrait(traitData[7][t.size])\r\n      ));\r\n    } else {\r\n      svg = string(abi.encodePacked(\r\n        _drawTrait(traitData[8][t.body]), \r\n        _drawTrait(traitData[9][t.eyes]), \r\n        _drawTrait(traitData[10][t.mouth]), \r\n        _drawTrait(traitData[11][t.hat]), \r\n        _drawTrait(traitData[12][t.facialAccessory]), \r\n        _drawTrait(traitData[13][t.tail]), \r\n        _drawTrait(traitData[14][t.heldItem]),  \r\n        _drawTrait(traitData[15][t.size])\r\n      ));\r\n    }\r\n\r\n    return string(abi.encodePacked(\r\n      '<svg width=\"100%\" height=\"100%\" version=\"1.1\" viewBox=\"0 0 40 40\" xmlns=\"http://www.w3.org/2000/svg\" xmlns:xlink=\"http://www.w3.org/1999/xlink\">',\r\n      svg,\r\n      \"</svg>\"\r\n    ));\r\n  }\r\n\r\n  /**\r\n   * Generates an attribute for the attributes array in the ERC721 metadata standard\r\n   * @param traitType the trait type to reference as the metadata key\r\n   * @param value the token's trait associated with the key\r\n   * @return a JSON dictionary for the single attribute\r\n   */\r\n  function _attributeForTypeAndValue(string memory traitType, string memory value) internal pure returns (string memory) {\r\n    return string(abi.encodePacked(\r\n      '{\"trait_type\":\"', traitType,\r\n      '\",\"value\":\"', value,\r\n      '\"}'\r\n    ));\r\n  }\r\n\r\n  /**\r\n   * Generates an array composed of all the individual traits and values\r\n   * @param tokenId the ID of the token to compose the metadata for\r\n   * @return traits JSON array of all of the attributes for given token ID\r\n   */\r\n  function _compileAttributes(uint16 tokenId, IEarlyBirdsNFT.WormBirdTraits memory t) internal view returns (string memory traits) {\r\n    if (t.isWorm) {\r\n      traits = string(abi.encodePacked(\r\n        _attributeForTypeAndValue(\"Body\", traitData[0][t.body].name), \",\", \r\n        _attributeForTypeAndValue(\"Eyes\", traitData[1][t.eyes].name), \",\",\r\n        _attributeForTypeAndValue(\"Mouth\", traitData[2][t.mouth].name), \",\",\r\n        _attributeForTypeAndValue(\"Hat\", traitData[3][t.hat].name), \",\",\r\n        _attributeForTypeAndValue(\"Facial Accessory\", traitData[4][t.facialAccessory].name), \",\",\r\n        _attributeForTypeAndValue(\"Tail\", traitData[5][t.tail].name), \",\",\r\n        _attributeForTypeAndValue(\"Held Item\", traitData[6][t.heldItem].name), \",\",\r\n        _attributeForTypeAndValue(\"Strength\", traitData[7][t.size].name), \",\"\r\n      ));\r\n    } else {\r\n      traits = string(abi.encodePacked(\r\n        _attributeForTypeAndValue(\"Body\",   traitData[8][t.body].name), \",\", \r\n        _attributeForTypeAndValue(\"Head\",  traitData[9][t.eyes].name), \",\",\r\n        _attributeForTypeAndValue(\"Spell\", traitData[10][t.mouth].name), \",\",\r\n        _attributeForTypeAndValue(\"Eyes\",  traitData[11][t.hat].name), \",\",\r\n        _attributeForTypeAndValue(\"Neck\",  traitData[12][t.facialAccessory].name), \",\",\r\n        _attributeForTypeAndValue(\"Mouth\",  traitData[13][t.tail].name), \",\",\r\n        _attributeForTypeAndValue(\"Want\",  traitData[14][t.heldItem].name), \",\",\r\n        _attributeForTypeAndValue(\"Size\",  traitData[15][t.size].name), \",\"\r\n      ));\r\n    }\r\n    uint8 wormValue = t.isWorm ? 0:1;\r\n\r\n    //Make this more efficient\r\n    bool reachedMaxGen0 = false;\r\n    if(tokenId <= earlyBirdsNFT.getGen0Supply()) {\r\n      reachedMaxGen0 = false;\r\n    } else {\r\n      reachedMaxGen0 = true;\r\n    }\r\n    //'{\"trait_type\":\"Generation\",\"value\":', tokenId <= earlyBirdsNFT.getGen0Supply() ? '\"GEN 0\"' : '\"GEN 1\"',\r\n    //'{\"trait_type\":\"Generation\",\"value\":', (!reachedMaxGen0 && earlyBirdsGame.getGen0MintingStatus()) ? '\"GEN 0\"' : '\"GEN 1\"',\r\n    return string(abi.encodePacked(\r\n      '[',\r\n        traits,\r\n        '{\"trait_type\":\"Generation\",\"value\":', (!reachedMaxGen0 && earlyBirdsGame.getGen0MintingStatus()) ? '\"GEN 0\"' : '\"GEN 1\"',\r\n        '},{\"trait_type\":\"Type\",\"value\":\"', _players[wormValue],\r\n      '\"}]'\r\n    ));\r\n  }\r\n\r\n  /**\r\n   * ERC721 token URI interface. Generates a base64 encoded metadata response\r\n   * without referencing off-chain content.\r\n   * @param tokenId the ID of the token to generate the metadata for\r\n   * @return a base64 encoded JSON dictionary of the token's metadata and SVG\r\n   */\r\n  function tokenURI(uint16 tokenId) external view override returns (string memory) {\r\n    IEarlyBirdsNFT.WormBirdTraits memory traits = earlyBirdsNFT.getTraits(tokenId);\r\n    uint8 wormValue = traits.isWorm ? 0:1;\r\n    string memory metadata = string(abi.encodePacked(\r\n      '{\"name\": \"', _players[wormValue], \" #\", uint256(tokenId).toString(),\r\n      '\", \"description\": \"The metaverse mainland is full of creatures. Around the Farm, an abundance of Rabbits scurry to harvest CARROT. Alongside Farmers, they expand the farm and multiply their earnings. There',\r\n      \"'\", 's only one small problem -- the farm has grown too big and a new threat of nature has entered the game.\", \"image\": \"',\r\n      _base64(bytes(_drawSVG(traits))),\r\n      '\", \"attributes\":',\r\n      _compileAttributes(tokenId, traits),\r\n      \"}\"\r\n    ));\r\n\r\n    // return string(abi.encodePacked(\r\n    //   \"data:application/json;base64,\",\r\n    //   _base64(bytes(metadata))\r\n    // ));\r\n\r\n    //return _base64(bytes(_drawSVG(traits)));\r\n    return string(abi.encodePacked(_base64(bytes(metadata))));\r\n    //return string(abi.encodePacked(_base64(bytes(_drawSVG(traits)))));\r\n  }\r\n\r\n  /* BASE 64 - Written by Brech Devos */\r\n  string internal constant TABLE = \"ABCDEFGHIJKLMNOPQRSTUVWXYZabcdefghijklmnopqrstuvwxyz0123456789+/\";\r\n\r\n  function _base64(bytes memory data) internal pure returns (string memory) {\r\n    if (data.length == 0) return \"\";\r\n    \r\n    // load the table into memory\r\n    string memory table = TABLE;\r\n\r\n    // multiply by 4/3 rounded up\r\n    uint256 encodedLen = 4 * ((data.length + 2) / 3);\r\n\r\n    // add some extra buffer at the end required for the writing\r\n    string memory result = new string(encodedLen + 32);\r\n\r\n    // solhint-disable-next-line no-inline-assembly\r\n    assembly {\r\n      // set the actual output length\r\n      mstore(result, encodedLen)\r\n      \r\n      // prepare the lookup table\r\n      let tablePtr := add(table, 1)\r\n      \r\n      // input ptr\r\n      let dataPtr := data\r\n      let endPtr := add(dataPtr, mload(data))\r\n      \r\n      // result ptr, jump over length\r\n      let resultPtr := add(result, 32)\r\n      \r\n      // run over the input, 3 bytes at a time\r\n      for {} lt(dataPtr, endPtr) {}\r\n      {\r\n          dataPtr := add(dataPtr, 3)\r\n          \r\n          // read 3 bytes\r\n          let input := mload(dataPtr)\r\n          \r\n          // write 4 characters\r\n          mstore(resultPtr, shl(248, mload(add(tablePtr, and(shr(18, input), 0x3F)))))\r\n          resultPtr := add(resultPtr, 1)\r\n          mstore(resultPtr, shl(248, mload(add(tablePtr, and(shr(12, input), 0x3F)))))\r\n          resultPtr := add(resultPtr, 1)\r\n          mstore(resultPtr, shl(248, mload(add(tablePtr, and(shr( 6, input), 0x3F)))))\r\n          resultPtr := add(resultPtr, 1)\r\n          mstore(resultPtr, shl(248, mload(add(tablePtr, and(        input,  0x3F)))))\r\n          resultPtr := add(resultPtr, 1)\r\n      }\r\n      \r\n      // padding with '='\r\n      switch mod(mload(data), 3)\r\n      case 1 { mstore(sub(resultPtr, 2), shl(240, 0x3d3d)) }\r\n      case 2 { mstore(sub(resultPtr, 1), shl(248, 0x3d)) }\r\n    }\r\n    \r\n    return result;\r\n  }\r\n}",
  "sourcePath": "C:\\Users\\Teddy Ingrassia\\Development\\worm-game\\src\\backend\\contracts\\EarlyBirdsTraits.sol",
  "compiler": {
    "name": "solc",
    "version": "0.8.0+commit.c7dfd78e.Emscripten.clang"
  },
  "schemaVersion": "3.4.4",
  "updatedAt": "2022-03-08T22:17:15.022Z",
  "networkType": "ethereum",
  "devdoc": {
    "kind": "dev",
    "methods": {
      "owner()": {
        "details": "Returns the address of the current owner."
      },
      "renounceOwnership()": {
        "details": "Leaves the contract without owner. It will not be possible to call `onlyOwner` functions anymore. Can only be called by the current owner. NOTE: Renouncing ownership will leave the contract without an owner, thereby removing any functionality that is only available to the owner."
      },
      "tokenURI(uint16)": {
        "params": {
          "tokenId": "the ID of the token to generate the metadata for"
        },
        "returns": {
          "_0": "a base64 encoded JSON dictionary of the token's metadata and SVG"
        }
      },
      "transferOwnership(address)": {
        "details": "Transfers ownership of the contract to a new account (`newOwner`). Can only be called by the current owner."
      },
      "uploadTraits(uint8,uint8[],string[][])": {
        "params": {
          "traitTypeId": "trait name id (0 corresponds to \"fur\")",
          "traitValueIds": "trait value id (3 corresponds to \"black\")",
          "traits": "array of trait [name, png] (e.g,. [bandana, {bytes}])"
        }
      }
    },
    "version": 1
  },
  "userdoc": {
    "kind": "user",
    "methods": {
      "setContracts(address,address)": {
        "notice": "Update the NFT contract address outside constructor as it would create a cyclic dependency."
      },
      "tokenURI(uint16)": {
        "notice": "ERC721 token URI interface. Generates a base64 encoded metadata response without referencing off-chain content."
      },
      "uploadTraits(uint8,uint8[],string[][])": {
        "notice": "Upload trait art to blockchain!"
      }
    },
    "version": 1
  }
}