{
  "contractName": "EarlyBirdsGame",
  "abi": [
    {
      "anonymous": false,
      "inputs": [
        {
          "indexed": true,
          "internalType": "address",
          "name": "previousOwner",
          "type": "address"
        },
        {
          "indexed": true,
          "internalType": "address",
          "name": "newOwner",
          "type": "address"
        }
      ],
      "name": "OwnershipTransferred",
      "type": "event"
    },
    {
      "anonymous": false,
      "inputs": [
        {
          "indexed": false,
          "internalType": "address",
          "name": "account",
          "type": "address"
        }
      ],
      "name": "Paused",
      "type": "event"
    },
    {
      "anonymous": false,
      "inputs": [
        {
          "indexed": false,
          "internalType": "address",
          "name": "account",
          "type": "address"
        }
      ],
      "name": "Unpaused",
      "type": "event"
    },
    {
      "inputs": [],
      "name": "FEATHER_COST",
      "outputs": [
        {
          "internalType": "uint128",
          "name": "",
          "type": "uint128"
        }
      ],
      "stateMutability": "view",
      "type": "function"
    },
    {
      "inputs": [],
      "name": "MAXIMUM_DIRT",
      "outputs": [
        {
          "internalType": "uint128",
          "name": "",
          "type": "uint128"
        }
      ],
      "stateMutability": "view",
      "type": "function"
    },
    {
      "inputs": [],
      "name": "MINT_PRICE",
      "outputs": [
        {
          "internalType": "uint256",
          "name": "",
          "type": "uint256"
        }
      ],
      "stateMutability": "view",
      "type": "function"
    },
    {
      "inputs": [],
      "name": "ancientTree",
      "outputs": [
        {
          "internalType": "contract IAncientTree",
          "name": "",
          "type": "address"
        }
      ],
      "stateMutability": "view",
      "type": "function"
    },
    {
      "inputs": [],
      "name": "birdBath",
      "outputs": [
        {
          "internalType": "contract IBirdBath",
          "name": "",
          "type": "address"
        }
      ],
      "stateMutability": "view",
      "type": "function"
    },
    {
      "inputs": [],
      "name": "dirtContract",
      "outputs": [
        {
          "internalType": "contract IDirt",
          "name": "",
          "type": "address"
        }
      ],
      "stateMutability": "view",
      "type": "function"
    },
    {
      "inputs": [],
      "name": "earlyBirdsNFT",
      "outputs": [
        {
          "internalType": "contract IEarlyBirdsNFT",
          "name": "",
          "type": "address"
        }
      ],
      "stateMutability": "view",
      "type": "function"
    },
    {
      "inputs": [],
      "name": "featherTypeID",
      "outputs": [
        {
          "internalType": "uint256",
          "name": "",
          "type": "uint256"
        }
      ],
      "stateMutability": "view",
      "type": "function"
    },
    {
      "inputs": [],
      "name": "gen0MintingActive",
      "outputs": [
        {
          "internalType": "bool",
          "name": "",
          "type": "bool"
        }
      ],
      "stateMutability": "view",
      "type": "function"
    },
    {
      "inputs": [],
      "name": "mintingActive",
      "outputs": [
        {
          "internalType": "bool",
          "name": "",
          "type": "bool"
        }
      ],
      "stateMutability": "view",
      "type": "function"
    },
    {
      "inputs": [],
      "name": "owner",
      "outputs": [
        {
          "internalType": "address",
          "name": "",
          "type": "address"
        }
      ],
      "stateMutability": "view",
      "type": "function"
    },
    {
      "inputs": [],
      "name": "paused",
      "outputs": [
        {
          "internalType": "bool",
          "name": "",
          "type": "bool"
        }
      ],
      "stateMutability": "view",
      "type": "function"
    },
    {
      "inputs": [],
      "name": "randomGetter",
      "outputs": [
        {
          "internalType": "contract IRandomNumberConsumer",
          "name": "",
          "type": "address"
        }
      ],
      "stateMutability": "view",
      "type": "function"
    },
    {
      "inputs": [],
      "name": "renounceOwnership",
      "outputs": [],
      "stateMutability": "nonpayable",
      "type": "function"
    },
    {
      "inputs": [],
      "name": "testERC20",
      "outputs": [
        {
          "internalType": "contract IERC20",
          "name": "",
          "type": "address"
        }
      ],
      "stateMutability": "view",
      "type": "function"
    },
    {
      "inputs": [],
      "name": "totalDirtEarned",
      "outputs": [
        {
          "internalType": "uint128",
          "name": "",
          "type": "uint128"
        }
      ],
      "stateMutability": "view",
      "type": "function"
    },
    {
      "inputs": [
        {
          "internalType": "address",
          "name": "newOwner",
          "type": "address"
        }
      ],
      "name": "transferOwnership",
      "outputs": [],
      "stateMutability": "nonpayable",
      "type": "function"
    },
    {
      "inputs": [
        {
          "internalType": "address",
          "name": "_dirtContract",
          "type": "address"
        },
        {
          "internalType": "address",
          "name": "_earlyBirdsNFT",
          "type": "address"
        },
        {
          "internalType": "address",
          "name": "_randomGetter",
          "type": "address"
        },
        {
          "internalType": "address",
          "name": "_birdBath",
          "type": "address"
        },
        {
          "internalType": "address",
          "name": "_ancientTree",
          "type": "address"
        },
        {
          "internalType": "address",
          "name": "_testERC20",
          "type": "address"
        }
      ],
      "name": "setContracts",
      "outputs": [],
      "stateMutability": "nonpayable",
      "type": "function"
    },
    {
      "inputs": [
        {
          "internalType": "uint32",
          "name": "amount",
          "type": "uint32"
        },
        {
          "internalType": "bool",
          "name": "stake",
          "type": "bool"
        },
        {
          "internalType": "uint256",
          "name": "originSeed",
          "type": "uint256"
        }
      ],
      "name": "mint",
      "outputs": [],
      "stateMutability": "nonpayable",
      "type": "function"
    },
    {
      "inputs": [
        {
          "internalType": "uint256",
          "name": "typeId",
          "type": "uint256"
        }
      ],
      "name": "setFeatherId",
      "outputs": [],
      "stateMutability": "nonpayable",
      "type": "function"
    },
    {
      "inputs": [
        {
          "internalType": "bool",
          "name": "_mintingActive",
          "type": "bool"
        }
      ],
      "name": "setMintingStatus",
      "outputs": [],
      "stateMutability": "nonpayable",
      "type": "function"
    },
    {
      "inputs": [
        {
          "internalType": "bool",
          "name": "_gen0MintingActive",
          "type": "bool"
        }
      ],
      "name": "setGen0MintingStatus",
      "outputs": [],
      "stateMutability": "nonpayable",
      "type": "function"
    },
    {
      "inputs": [],
      "name": "getMintingStatus",
      "outputs": [
        {
          "internalType": "bool",
          "name": "",
          "type": "bool"
        }
      ],
      "stateMutability": "view",
      "type": "function"
    },
    {
      "inputs": [],
      "name": "getGen0MintingStatus",
      "outputs": [
        {
          "internalType": "bool",
          "name": "",
          "type": "bool"
        }
      ],
      "stateMutability": "view",
      "type": "function"
    },
    {
      "inputs": [
        {
          "internalType": "bool",
          "name": "_paused",
          "type": "bool"
        }
      ],
      "name": "setPaused",
      "outputs": [],
      "stateMutability": "nonpayable",
      "type": "function"
    },
    {
      "inputs": [
        {
          "internalType": "address",
          "name": "",
          "type": "address"
        },
        {
          "internalType": "address",
          "name": "from",
          "type": "address"
        },
        {
          "internalType": "uint256",
          "name": "",
          "type": "uint256"
        },
        {
          "internalType": "bytes",
          "name": "",
          "type": "bytes"
        }
      ],
      "name": "onERC721Received",
      "outputs": [
        {
          "internalType": "bytes4",
          "name": "",
          "type": "bytes4"
        }
      ],
      "stateMutability": "pure",
      "type": "function"
    }
  ],
  "bytecode": "0x6080604052620119406003556000600460006101000a81548160ff0219169083151502179055506000600460016101000a81548160ff0219169083151502179055503480156200004e57600080fd5b506200006f620000636200009760201b60201c565b6200009f60201b60201c565b600180819055506000600260006101000a81548160ff02191690831515021790555062000163565b600033905090565b60008060009054906101000a900473ffffffffffffffffffffffffffffffffffffffff169050816000806101000a81548173ffffffffffffffffffffffffffffffffffffffff021916908373ffffffffffffffffffffffffffffffffffffffff1602179055508173ffffffffffffffffffffffffffffffffffffffff168173ffffffffffffffffffffffffffffffffffffffff167f8be0079c531659141344cd1fd0a4f28419497f9722a3daafe3b4186f6b6457e060405160405180910390a35050565b61307d80620001736000396000f3fe608060405234801561001057600080fd5b506004361061018e5760003560e01c8063715018a6116100de578063c002d23d11610097578063cfc3a89411610071578063cfc3a89414610419578063d30f2cc414610437578063d94f02d514610455578063f2fde38b146104735761018e565b8063c002d23d146103c1578063c6017afe146103df578063cae31879146103fb5761018e565b8063715018a6146103235780637420aa361461032d5780638da5cb5b146103495780638fbf1e1b1461036757806395a4765214610385578063acd0fdd1146103a35761018e565b806331f9c9191161014b5780634c6bcfde116101255780634c6bcfde146102ab5780635c975abb146102c95780636597d68f146102e75780636dd106db146103055761018e565b806331f9c919146102535780633c2f05a81461027157806349a761a11461028f5761018e565b80630908626614610193578063150b7a02146101b157806316c38b3c146101e15780631ab24c5d146101fd5780632463a55a1461021957806330b5495114610235575b600080fd5b61019b61048f565b6040516101a89190612939565b60405180910390f35b6101cb60048036038101906101c69190612138565b6104b5565b6040516101d89190612903565b60405180910390f35b6101fb60048036038101906101f691906121b8565b610538565b005b610217600480360381019061021291906121b8565b6107d1565b005b610233600480360381019061022e91906120af565b61086a565b005b61023d610a74565b60405161024a919061291e565b60405180910390f35b61025b610a9a565b60405161026891906128e8565b60405180910390f35b610279610aad565b604051610286919061296f565b60405180910390f35b6102a960048036038101906102a49190612285565b610ad3565b005b6102b36116b5565b6040516102c09190612954565b60405180910390f35b6102d16116db565b6040516102de91906128e8565b60405180910390f35b6102ef6116f2565b6040516102fc919061298a565b60405180910390f35b61030d611718565b60405161031a91906128e8565b60405180910390f35b61032b61172b565b005b610347600480360381019061034291906121b8565b6117b3565b005b61035161184c565b60405161035e9190612814565b60405180910390f35b61036f611875565b60405161037c9190612b40565b60405180910390f35b61038d611885565b60405161039a91906128e8565b60405180910390f35b6103ab61189c565b6040516103b89190612b40565b60405180910390f35b6103c96118aa565b6040516103d69190612b76565b60405180910390f35b6103f960048036038101906103f49190612233565b6118b5565b005b61040361193b565b6040516104109190612b40565b60405180910390f35b61042161195d565b60405161042e9190612b76565b60405180910390f35b61043f611963565b60405161044c91906129a5565b60405180910390f35b61045d611989565b60405161046a91906128e8565b60405180910390f35b61048d6004803603810190610488919061205d565b6119a0565b005b600960009054906101000a900473ffffffffffffffffffffffffffffffffffffffff1681565b60008073ffffffffffffffffffffffffffffffffffffffff168573ffffffffffffffffffffffffffffffffffffffff1614610525576040517f08c379a000000000000000000000000000000000000000000000000000000000815260040161051c90612ae0565b60405180910390fd5b63150b7a0260e01b905095945050505050565b600073ffffffffffffffffffffffffffffffffffffffff16600760009054906101000a900473ffffffffffffffffffffffffffffffffffffffff1673ffffffffffffffffffffffffffffffffffffffff16141580156105e65750600073ffffffffffffffffffffffffffffffffffffffff16600860009054906101000a900473ffffffffffffffffffffffffffffffffffffffff1673ffffffffffffffffffffffffffffffffffffffff1614155b80156106415750600073ffffffffffffffffffffffffffffffffffffffff16600960009054906101000a900473ffffffffffffffffffffffffffffffffffffffff1673ffffffffffffffffffffffffffffffffffffffff1614155b801561069c5750600073ffffffffffffffffffffffffffffffffffffffff16600a60009054906101000a900473ffffffffffffffffffffffffffffffffffffffff1673ffffffffffffffffffffffffffffffffffffffff1614155b80156106f75750600073ffffffffffffffffffffffffffffffffffffffff16600c60009054906101000a900473ffffffffffffffffffffffffffffffffffffffff1673ffffffffffffffffffffffffffffffffffffffff1614155b610736576040517f08c379a000000000000000000000000000000000000000000000000000000000815260040161072d90612a00565b60405180910390fd5b61073e611a98565b73ffffffffffffffffffffffffffffffffffffffff1661075c61184c565b73ffffffffffffffffffffffffffffffffffffffff16146107b2576040517f08c379a00000000000000000000000000000000000000000000000000000000081526004016107a990612ac0565b60405180910390fd5b80156107c5576107c0611aa0565b6107ce565b6107cd611b43565b5b50565b6107d9611a98565b73ffffffffffffffffffffffffffffffffffffffff166107f761184c565b73ffffffffffffffffffffffffffffffffffffffff161461084d576040517f08c379a000000000000000000000000000000000000000000000000000000000815260040161084490612ac0565b60405180910390fd5b80600460016101000a81548160ff02191690831515021790555050565b610872611a98565b73ffffffffffffffffffffffffffffffffffffffff1661089061184c565b73ffffffffffffffffffffffffffffffffffffffff16146108e6576040517f08c379a00000000000000000000000000000000000000000000000000000000081526004016108dd90612ac0565b60405180910390fd5b85600760006101000a81548173ffffffffffffffffffffffffffffffffffffffff021916908373ffffffffffffffffffffffffffffffffffffffff16021790555084600860006101000a81548173ffffffffffffffffffffffffffffffffffffffff021916908373ffffffffffffffffffffffffffffffffffffffff16021790555082600960006101000a81548173ffffffffffffffffffffffffffffffffffffffff021916908373ffffffffffffffffffffffffffffffffffffffff16021790555083600a60006101000a81548173ffffffffffffffffffffffffffffffffffffffff021916908373ffffffffffffffffffffffffffffffffffffffff16021790555081600b60006101000a81548173ffffffffffffffffffffffffffffffffffffffff021916908373ffffffffffffffffffffffffffffffffffffffff16021790555080600c60006101000a81548173ffffffffffffffffffffffffffffffffffffffff021916908373ffffffffffffffffffffffffffffffffffffffff160217905550505050505050565b600b60009054906101000a900473ffffffffffffffffffffffffffffffffffffffff1681565b600460009054906101000a900460ff1681565b600c60009054906101000a900473ffffffffffffffffffffffffffffffffffffffff1681565b610adb6116db565b15610b1b576040517f08c379a0000000000000000000000000000000000000000000000000000000008152600401610b1290612a60565b60405180910390fd5b60026001541415610b61576040517f08c379a0000000000000000000000000000000000000000000000000000000008152600401610b5890612b00565b60405180910390fd5b6002600181905550610b71611a98565b73ffffffffffffffffffffffffffffffffffffffff163273ffffffffffffffffffffffffffffffffffffffff1614610bde576040517f08c379a0000000000000000000000000000000000000000000000000000000008152600401610bd590612a40565b60405180910390fd5b6000600860009054906101000a900473ffffffffffffffffffffffffffffffffffffffff1673ffffffffffffffffffffffffffffffffffffffff16633726230a6040518163ffffffff1660e01b815260040160206040518083038186803b158015610c4857600080fd5b505afa158015610c5c573d6000803e3d6000fd5b505050506040513d601f19601f82011682018060405250810190610c80919061220a565b90506000600860009054906101000a900473ffffffffffffffffffffffffffffffffffffffff1673ffffffffffffffffffffffffffffffffffffffff16636abcded16040518163ffffffff1660e01b815260040160206040518083038186803b158015610cec57600080fd5b505afa158015610d00573d6000803e3d6000fd5b505050506040513d601f19601f82011682018060405250810190610d24919061225c565b90506000600860009054906101000a900473ffffffffffffffffffffffffffffffffffffffff1673ffffffffffffffffffffffffffffffffffffffff16631f46452f6040518163ffffffff1660e01b815260040160206040518083038186803b158015610d9057600080fd5b505afa158015610da4573d6000803e3d6000fd5b505050506040513d601f19601f82011682018060405250810190610dc8919061225c565b905060008663ffffffff16118015610de65750808663ffffffff1611155b610e25576040517f08c379a0000000000000000000000000000000000000000000000000000000008152600401610e1c906129e0565b60405180910390fd5b600460009054906101000a900460ff16610e74576040517f08c379a0000000000000000000000000000000000000000000000000000000008152600401610e6b90612b20565b60405180910390fd5b81868461ffff16610e859190612c31565b63ffffffff161115610ecc576040517f08c379a0000000000000000000000000000000000000000000000000000000008152600401610ec390612aa0565b60405180910390fd5b600085610f4857600067ffffffffffffffff811115610f14577f4e487b7100000000000000000000000000000000000000000000000000000000600052604160045260246000fd5b604051908082528060200260200182016040528015610f425781602001602082028036833780820191505090505b50610fbe565b8663ffffffff1667ffffffffffffffff811115610f8e577f4e487b7100000000000000000000000000000000000000000000000000000000600052604160045260246000fd5b604051908082528060200260200182016040528015610fbc5781602001602082028036833780820191505090505b505b90506000806000600860009054906101000a900473ffffffffffffffffffffffffffffffffffffffff1673ffffffffffffffffffffffffffffffffffffffff166354c96c836040518163ffffffff1660e01b815260040160206040518083038186803b15801561102d57600080fd5b505afa158015611041573d6000803e3d6000fd5b505050506040513d601f19601f82011682018060405250810190611065919061225c565b90506000889050818b8961ffff1661107d9190612c31565b63ffffffff16111580156110a4575060011515600460019054906101000a900460ff161515145b156110c55766b1a2bc2ec500008b63ffffffff166110c29190612c6b565b92505b60005b8b63ffffffff168163ffffffff1610156113b45788806110e790612e89565b995050600860009054906101000a900473ffffffffffffffffffffffffffffffffffffffff1673ffffffffffffffffffffffffffffffffffffffff16633ba3d3778a6040518263ffffffff1660e01b81526004016111459190612b5b565b60206040518083038186803b15801561115d57600080fd5b505afa158015611171573d6000803e3d6000fd5b505050506040513d601f19601f82011682018060405250810190611195919061225c565b856111a09190612bdb565b94506111b0828a61ffff16611be5565b915060006111bd83611c2e565b90508b15806111ff57506111cf611a98565b73ffffffffffffffffffffffffffffffffffffffff168173ffffffffffffffffffffffffffffffffffffffff1614155b1561129857600860009054906101000a900473ffffffffffffffffffffffffffffffffffffffff1673ffffffffffffffffffffffffffffffffffffffff166340c10f1982856040518363ffffffff1660e01b81526004016112619291906128bf565b600060405180830381600087803b15801561127b57600080fd5b505af115801561128f573d6000803e3d6000fd5b505050506113a0565b89878363ffffffff16815181106112d8577f4e487b7100000000000000000000000000000000000000000000000000000000600052603260045260246000fd5b602002602001019061ffff16908161ffff1681525050600860009054906101000a900473ffffffffffffffffffffffffffffffffffffffff1673ffffffffffffffffffffffffffffffffffffffff166340c10f19600b60009054906101000a900473ffffffffffffffffffffffffffffffffffffffff16856040518363ffffffff1660e01b815260040161136d9291906128bf565b600060405180830381600087803b15801561138757600080fd5b505af115801561139b573d6000803e3d6000fd5b505050505b5080806113ac90612eb4565b9150506110c8565b50600083111561156a576000600c60009054906101000a900473ffffffffffffffffffffffffffffffffffffffff1673ffffffffffffffffffffffffffffffffffffffff1663dd62ed3e33306040518363ffffffff1660e01b815260040161141d92919061282f565b60206040518083038186803b15801561143557600080fd5b505afa158015611449573d6000803e3d6000fd5b505050506040513d601f19601f8201168201806040525081019061146d919061225c565b9050838110156114b2576040517f08c379a00000000000000000000000000000000000000000000000000000000081526004016114a990612a80565b60405180910390fd5b600c60009054906101000a900473ffffffffffffffffffffffffffffffffffffffff1673ffffffffffffffffffffffffffffffffffffffff166323b872dd3330876040518463ffffffff1660e01b815260040161151193929190612858565b602060405180830381600087803b15801561152b57600080fd5b505af115801561153f573d6000803e3d6000fd5b505050506040513d601f19601f8201168201806040525081019061156391906121e1565b5050611604565b600084111561160357600760009054906101000a900473ffffffffffffffffffffffffffffffffffffffff1673ffffffffffffffffffffffffffffffffffffffff16639dc29fac33866040518363ffffffff1660e01b81526004016115d09291906128bf565b600060405180830381600087803b1580156115ea57600080fd5b505af11580156115fe573d6000803e3d6000fd5b505050505b5b89156116a157600b60009054906101000a900473ffffffffffffffffffffffffffffffffffffffff1673ffffffffffffffffffffffffffffffffffffffff166392849377611650611a98565b876040518363ffffffff1660e01b815260040161166e92919061288f565b600060405180830381600087803b15801561168857600080fd5b505af115801561169c573d6000803e3d6000fd5b505050505b505050505050505060018081905550505050565b600760009054906101000a900473ffffffffffffffffffffffffffffffffffffffff1681565b6000600260009054906101000a900460ff16905090565b600860009054906101000a900473ffffffffffffffffffffffffffffffffffffffff1681565b600460019054906101000a900460ff1681565b611733611a98565b73ffffffffffffffffffffffffffffffffffffffff1661175161184c565b73ffffffffffffffffffffffffffffffffffffffff16146117a7576040517f08c379a000000000000000000000000000000000000000000000000000000000815260040161179e90612ac0565b60405180910390fd5b6117b16000611ea7565b565b6117bb611a98565b73ffffffffffffffffffffffffffffffffffffffff166117d961184c565b73ffffffffffffffffffffffffffffffffffffffff161461182f576040517f08c379a000000000000000000000000000000000000000000000000000000000815260040161182690612ac0565b60405180910390fd5b80600460006101000a81548160ff02191690831515021790555050565b60008060009054906101000a900473ffffffffffffffffffffffffffffffffffffffff16905090565b6b09b18ab5df7180b6b800000081565b6000600460009054906101000a900460ff16905090565b690a968163f0a57b40000081565b66b1a2bc2ec5000081565b6118bd611a98565b73ffffffffffffffffffffffffffffffffffffffff166118db61184c565b73ffffffffffffffffffffffffffffffffffffffff1614611931576040517f08c379a000000000000000000000000000000000000000000000000000000000815260040161192890612ac0565b60405180910390fd5b8060058190555050565b600660009054906101000a90046fffffffffffffffffffffffffffffffff1681565b60055481565b600a60009054906101000a900473ffffffffffffffffffffffffffffffffffffffff1681565b6000600460019054906101000a900460ff16905090565b6119a8611a98565b73ffffffffffffffffffffffffffffffffffffffff166119c661184c565b73ffffffffffffffffffffffffffffffffffffffff1614611a1c576040517f08c379a0000000000000000000000000000000000000000000000000000000008152600401611a1390612ac0565b60405180910390fd5b600073ffffffffffffffffffffffffffffffffffffffff168173ffffffffffffffffffffffffffffffffffffffff161415611a8c576040517f08c379a0000000000000000000000000000000000000000000000000000000008152600401611a8390612a20565b60405180910390fd5b611a9581611ea7565b50565b600033905090565b611aa86116db565b15611ae8576040517f08c379a0000000000000000000000000000000000000000000000000000000008152600401611adf90612a60565b60405180910390fd5b6001600260006101000a81548160ff0219169083151502179055507f62e78cea01bee320cd4e420270b5ea74000d11b0c9f74754ebdbfc544b05a258611b2c611a98565b604051611b399190612814565b60405180910390a1565b611b4b6116db565b611b8a576040517f08c379a0000000000000000000000000000000000000000000000000000000008152600401611b81906129c0565b60405180910390fd5b6000600260006101000a81548160ff0219169083151502179055507f5db9ee0a495bf2e6ff9c91a7834c1ba4fdd244a5e8aa4e537bd38aeae4b073aa611bce611a98565b604051611bdb9190612814565b60405180910390a1565b60008232600143611bf69190612cc5565b404285604051602001611c0d9594939291906127b5565b6040516020818303038152906040528051906020012060001c905092915050565b600080600a60f584901c611c429190612f2b565b141580611d915750600860009054906101000a900473ffffffffffffffffffffffffffffffffffffffff1673ffffffffffffffffffffffffffffffffffffffff166354c96c836040518163ffffffff1660e01b815260040160206040518083038186803b158015611cb257600080fd5b505afa158015611cc6573d6000803e3d6000fd5b505050506040513d601f19601f82011682018060405250810190611cea919061225c565b600860009054906101000a900473ffffffffffffffffffffffffffffffffffffffff1673ffffffffffffffffffffffffffffffffffffffff16633726230a6040518163ffffffff1660e01b815260040160206040518083038186803b158015611d5257600080fd5b505afa158015611d66573d6000803e3d6000fd5b505050506040513d601f19601f82011682018060405250810190611d8a919061220a565b61ffff1611155b15611da557611d9e611a98565b9050611ea2565b6000600b60009054906101000a900473ffffffffffffffffffffffffffffffffffffffff1673ffffffffffffffffffffffffffffffffffffffff16637669d48b609085901c6040518263ffffffff1660e01b8152600401611e069190612b76565b60206040518083038186803b158015611e1e57600080fd5b505afa158015611e32573d6000803e3d6000fd5b505050506040513d601f19601f82011682018060405250810190611e569190612086565b9050600073ffffffffffffffffffffffffffffffffffffffff168173ffffffffffffffffffffffffffffffffffffffff161415611e9d57611e95611a98565b915050611ea2565b809150505b919050565b60008060009054906101000a900473ffffffffffffffffffffffffffffffffffffffff169050816000806101000a81548173ffffffffffffffffffffffffffffffffffffffff021916908373ffffffffffffffffffffffffffffffffffffffff1602179055508173ffffffffffffffffffffffffffffffffffffffff168173ffffffffffffffffffffffffffffffffffffffff167f8be0079c531659141344cd1fd0a4f28419497f9722a3daafe3b4186f6b6457e060405160405180910390a35050565b600081359050611f7a81612fd4565b92915050565b600081519050611f8f81612fd4565b92915050565b600081359050611fa481612feb565b92915050565b600081519050611fb981612feb565b92915050565b60008083601f840112611fd157600080fd5b8235905067ffffffffffffffff811115611fea57600080fd5b60208301915083600182028301111561200257600080fd5b9250929050565b60008151905061201881613002565b92915050565b60008135905061202d81613019565b92915050565b60008151905061204281613019565b92915050565b60008135905061205781613030565b92915050565b60006020828403121561206f57600080fd5b600061207d84828501611f6b565b91505092915050565b60006020828403121561209857600080fd5b60006120a684828501611f80565b91505092915050565b60008060008060008060c087890312156120c857600080fd5b60006120d689828a01611f6b565b96505060206120e789828a01611f6b565b95505060406120f889828a01611f6b565b945050606061210989828a01611f6b565b935050608061211a89828a01611f6b565b92505060a061212b89828a01611f6b565b9150509295509295509295565b60008060008060006080868803121561215057600080fd5b600061215e88828901611f6b565b955050602061216f88828901611f6b565b94505060406121808882890161201e565b935050606086013567ffffffffffffffff81111561219d57600080fd5b6121a988828901611fbf565b92509250509295509295909350565b6000602082840312156121ca57600080fd5b60006121d884828501611f95565b91505092915050565b6000602082840312156121f357600080fd5b600061220184828501611faa565b91505092915050565b60006020828403121561221c57600080fd5b600061222a84828501612009565b91505092915050565b60006020828403121561224557600080fd5b60006122538482850161201e565b91505092915050565b60006020828403121561226e57600080fd5b600061227c84828501612033565b91505092915050565b60008060006060848603121561229a57600080fd5b60006122a886828701612048565b93505060206122b986828701611f95565b92505060406122ca8682870161201e565b9150509250925092565b60006122e0838361275a565b60208301905092915050565b6122f581612cf9565b82525050565b61230c61230782612cf9565b612ee1565b82525050565b600061231d82612ba1565b6123278185612bb9565b935061233283612b91565b8060005b8381101561236357815161234a88826122d4565b975061235583612bac565b925050600181019050612336565b5085935050505092915050565b61237981612d0b565b82525050565b61239061238b82612d17565b612ef3565b82525050565b61239f81612d21565b82525050565b6123ae81612db1565b82525050565b6123bd81612dd5565b82525050565b6123cc81612df9565b82525050565b6123db81612e1d565b82525050565b6123ea81612e41565b82525050565b6123f981612e65565b82525050565b600061240c601483612bca565b91507f5061757361626c653a206e6f74207061757365640000000000000000000000006000830152602082019050919050565b600061244c601383612bca565b91507f696e76616c6964206d696e7420616d6f756e74000000000000000000000000006000830152602082019050919050565b600061248c601183612bca565b91507f436f6e747261637473206e6f74207365740000000000000000000000000000006000830152602082019050919050565b60006124cc602683612bca565b91507f4f776e61626c653a206e6577206f776e657220697320746865207a65726f206160008301527f64647265737300000000000000000000000000000000000000000000000000006020830152604082019050919050565b6000612532600883612bca565b91507f4f6e6c7920454f410000000000000000000000000000000000000000000000006000830152602082019050919050565b6000612572601083612bca565b91507f5061757361626c653a20706175736564000000000000000000000000000000006000830152602082019050919050565b60006125b2601983612bca565b91507f436865636b2074686520746f6b656e20616c6c6f77616e6365000000000000006000830152602082019050919050565b60006125f2602583612bca565b91507f616d6f756e74206d696e74656420776f756c6420657863656564206d6178207360008301527f7570706c790000000000000000000000000000000000000000000000000000006020830152604082019050919050565b6000612658602083612bca565b91507f4f776e61626c653a2063616c6c6572206973206e6f7420746865206f776e65726000830152602082019050919050565b6000612698601d83612bca565b91507f6f6e6c7920616c6c6f77206469726563746c792066726f6d206d696e740000006000830152602082019050919050565b60006126d8601f83612bca565b91507f5265656e7472616e637947756172643a207265656e7472616e742063616c6c006000830152602082019050919050565b6000612718601583612bca565b91507f6d696e74696e67206973206e6f742061637469766500000000000000000000006000830152602082019050919050565b61275481612d4d565b82525050565b61276381612d69565b82525050565b61277281612d69565b82525050565b61278181612d97565b82525050565b61279861279382612d97565b612f0f565b82525050565b6127af6127aa82612da1565b612f19565b82525050565b60006127c18288612787565b6020820191506127d182876122fb565b6014820191506127e1828661237f565b6020820191506127f18285612787565b602082019150612801828461279e565b6004820191508190509695505050505050565b600060208201905061282960008301846122ec565b92915050565b600060408201905061284460008301856122ec565b61285160208301846122ec565b9392505050565b600060608201905061286d60008301866122ec565b61287a60208301856122ec565b6128876040830184612778565b949350505050565b60006040820190506128a460008301856122ec565b81810360208301526128b68184612312565b90509392505050565b60006040820190506128d460008301856122ec565b6128e16020830184612778565b9392505050565b60006020820190506128fd6000830184612370565b92915050565b60006020820190506129186000830184612396565b92915050565b600060208201905061293360008301846123a5565b92915050565b600060208201905061294e60008301846123b4565b92915050565b600060208201905061296960008301846123c3565b92915050565b600060208201905061298460008301846123d2565b92915050565b600060208201905061299f60008301846123e1565b92915050565b60006020820190506129ba60008301846123f0565b92915050565b600060208201905081810360008301526129d9816123ff565b9050919050565b600060208201905081810360008301526129f98161243f565b9050919050565b60006020820190508181036000830152612a198161247f565b9050919050565b60006020820190508181036000830152612a39816124bf565b9050919050565b60006020820190508181036000830152612a5981612525565b9050919050565b60006020820190508181036000830152612a7981612565565b9050919050565b60006020820190508181036000830152612a99816125a5565b9050919050565b60006020820190508181036000830152612ab9816125e5565b9050919050565b60006020820190508181036000830152612ad98161264b565b9050919050565b60006020820190508181036000830152612af98161268b565b9050919050565b60006020820190508181036000830152612b19816126cb565b9050919050565b60006020820190508181036000830152612b398161270b565b9050919050565b6000602082019050612b55600083018461274b565b92915050565b6000602082019050612b706000830184612769565b92915050565b6000602082019050612b8b6000830184612778565b92915050565b6000819050602082019050919050565b600081519050919050565b6000602082019050919050565b600082825260208201905092915050565b600082825260208201905092915050565b6000612be682612d97565b9150612bf183612d97565b9250827fffffffffffffffffffffffffffffffffffffffffffffffffffffffffffffffff03821115612c2657612c25612f5c565b5b828201905092915050565b6000612c3c82612da1565b9150612c4783612da1565b92508263ffffffff03821115612c6057612c5f612f5c565b5b828201905092915050565b6000612c7682612d97565b9150612c8183612d97565b9250817fffffffffffffffffffffffffffffffffffffffffffffffffffffffffffffffff0483118215151615612cba57612cb9612f5c565b5b828202905092915050565b6000612cd082612d97565b9150612cdb83612d97565b925082821015612cee57612ced612f5c565b5b828203905092915050565b6000612d0482612d77565b9050919050565b60008115159050919050565b6000819050919050565b60007fffffffff0000000000000000000000000000000000000000000000000000000082169050919050565b60006fffffffffffffffffffffffffffffffff82169050919050565b600061ffff82169050919050565b600073ffffffffffffffffffffffffffffffffffffffff82169050919050565b6000819050919050565b600063ffffffff82169050919050565b6000612dbc82612dc3565b9050919050565b6000612dce82612d77565b9050919050565b6000612de082612de7565b9050919050565b6000612df282612d77565b9050919050565b6000612e0482612e0b565b9050919050565b6000612e1682612d77565b9050919050565b6000612e2882612e2f565b9050919050565b6000612e3a82612d77565b9050919050565b6000612e4c82612e53565b9050919050565b6000612e5e82612d77565b9050919050565b6000612e7082612e77565b9050919050565b6000612e8282612d77565b9050919050565b6000612e9482612d69565b915061ffff821415612ea957612ea8612f5c565b5b600182019050919050565b6000612ebf82612da1565b915063ffffffff821415612ed657612ed5612f5c565b5b600182019050919050565b6000612eec82612efd565b9050919050565b6000819050919050565b6000612f0882612fc7565b9050919050565b6000819050919050565b6000612f2482612fba565b9050919050565b6000612f3682612d97565b9150612f4183612d97565b925082612f5157612f50612f8b565b5b828206905092915050565b7f4e487b7100000000000000000000000000000000000000000000000000000000600052601160045260246000fd5b7f4e487b7100000000000000000000000000000000000000000000000000000000600052601260045260246000fd5b60008160e01b9050919050565b60008160601b9050919050565b612fdd81612cf9565b8114612fe857600080fd5b50565b612ff481612d0b565b8114612fff57600080fd5b50565b61300b81612d69565b811461301657600080fd5b50565b61302281612d97565b811461302d57600080fd5b50565b61303981612da1565b811461304457600080fd5b5056fea2646970667358221220247be9a86b4f0d0cd8e3e35b7aaa8f396c3e5c1993e9ed170ca92c1fd8206e3e64736f6c63430008000033",
  "immutableReferences": {},
  "source": "// SPDX-License-Identifier: MIT LICENSE\r\n\r\npragma solidity ^0.8.0;\r\n\r\nimport \"@openzeppelin/contracts/access/Ownable.sol\";\r\nimport \"@openzeppelin/contracts/security/Pausable.sol\";\r\nimport \"@openzeppelin/contracts/token/ERC721/IERC721Receiver.sol\";\r\nimport \"@openzeppelin/contracts/security/ReentrancyGuard.sol\";\r\nimport \"@openzeppelin/contracts/utils/cryptography/ECDSA.sol\";\r\nimport \"@openzeppelin/contracts/token/ERC20/IERC20.sol\";\r\n\r\nimport \"./interfaces/IEarlyBirdsGame.sol\";\r\nimport \"./interfaces/IDirt.sol\";\r\nimport \"./interfaces/IEarlyBirdsNFT.sol\";\r\nimport \"./interfaces/IBirdBath.sol\";\r\nimport \"./interfaces/IRandomNumberConsumer.sol\";\r\nimport \"./interfaces/IAncientTree.sol\";\r\n\r\ncontract EarlyBirdsGame is IEarlyBirdsGame, IERC721Receiver, Ownable, ReentrancyGuard, Pausable {\r\n\r\n    using ECDSA for bytes32;\r\n\r\n    uint256 public constant MINT_PRICE = 0.05 ether;\r\n    uint256 private maxDirtCost = 72000;\r\n    //whether or not minting is active for public sale \r\n    bool public mintingActive = false;\r\n    //whether or not minting is active for gen0 sale\r\n    bool public gen0MintingActive = false;\r\n\r\n\r\n    uint256 public featherTypeID;\r\n    uint128 public constant FEATHER_COST = 50000 ether;\r\n    //maximum amount of $DIRT possible to be earned in act 1\r\n    uint128 public constant MAXIMUM_DIRT = 3000000000 ether;\r\n    //amount of $DIRT earned so far\r\n    uint128 public totalDirtEarned; \r\n\r\n    //external contracts\r\n    IDirt public dirtContract;\r\n    IEarlyBirdsNFT public earlyBirdsNFT;\r\n    IBirdBath public birdBath;\r\n    IRandomNumberConsumer public randomGetter;\r\n    IAncientTree public ancientTree;\r\n    IERC20 public testERC20;\r\n\r\n    modifier requireContractsSet() {\r\n        require(address(dirtContract) != address(0) && address(earlyBirdsNFT) != address(0) && address(birdBath) != address(0) \r\n        && address(randomGetter) != address(0) && address(testERC20) != address(0), \"Contracts not set\");\r\n        _;\r\n    }\r\n\r\n    function setContracts(address _dirtContract, address _earlyBirdsNFT, address _randomGetter, address _birdBath, address _ancientTree, address _testERC20) external onlyOwner {\r\n        dirtContract = IDirt(_dirtContract);\r\n        earlyBirdsNFT = IEarlyBirdsNFT(_earlyBirdsNFT);\r\n        birdBath = IBirdBath(_birdBath);\r\n        randomGetter = IRandomNumberConsumer(_randomGetter);\r\n        ancientTree = IAncientTree(_ancientTree);\r\n        testERC20 = IERC20(_testERC20);\r\n    }\r\n\r\n    function mint(uint32 amount, bool stake, uint256 originSeed) external whenNotPaused nonReentrant {\r\n        require(tx.origin == _msgSender(), \"Only EOA\");\r\n        uint16 numMinted = earlyBirdsNFT.getNumMinted();\r\n        uint256 maxTokens = earlyBirdsNFT.getMaxTokens();\r\n        uint256 maxMint = earlyBirdsNFT.getMaxMint();\r\n        require(amount > 0 && amount <= maxMint, \"invalid mint amount\");\r\n        require(mintingActive, \"minting is not active\");\r\n        require(numMinted + amount <= maxTokens, \"amount minted would exceed max supply\");\r\n        //require(ancientTree.getTotalDirtEarned() < 3000000000, \"minting has ended due to the dirt supply reaching the maximum for Chapter One\");\r\n        uint16[] memory tokenIdsToStake = stake ? new uint16[](amount) : new uint16[](0);\r\n        uint256 dirtCost;\r\n        uint256 wETHCost;\r\n        \r\n        uint256 maxGen0 = earlyBirdsNFT.getGen0Supply();\r\n        //bool gen0MintingActive = earlyBirdsNFT.getGen0MintingStatus();\r\n        uint256 seed = originSeed;\r\n        //uint256 seed = random.randomizeSeed();\r\n        //seed = uint256(random.getCurrentSeed());\r\n        if(numMinted + amount <= maxGen0 && gen0MintingActive == true)\r\n        {\r\n            wETHCost = amount * MINT_PRICE;\r\n        }\r\n        for(uint32 i = 0; i < amount; i++) {\r\n            numMinted++; \r\n            dirtCost += earlyBirdsNFT.getMintDirtCost(numMinted); \r\n            \r\n            seed = _reseedWithTokenId(seed, numMinted);\r\n           \r\n            //decide if mint will be stolen (set who receives it)\r\n            address recipient = _selectRecipient(seed); \r\n            if(!stake || recipient != _msgSender())\r\n            {\r\n                earlyBirdsNFT.mint(recipient, seed);\r\n            }\r\n            else {\r\n                tokenIdsToStake[i] = numMinted;\r\n                earlyBirdsNFT.mint(address(ancientTree), seed);\r\n            }\r\n            \r\n        }\r\n        if(wETHCost > 0)\r\n        {\r\n            //Must call approve from middle layer before this can work\r\n            uint256 allowance = testERC20.allowance(msg.sender, address(this));\r\n            \r\n            require(allowance >= wETHCost, \"Check the token allowance\");\r\n            testERC20.transferFrom(msg.sender, address(this), wETHCost);\r\n        }\r\n        else if (dirtCost > 0) {\r\n            dirtContract.burn(msg.sender, dirtCost);\r\n        }\r\n        if (stake) {\r\n            ancientTree.stakeTokens(_msgSender(), tokenIdsToStake);\r\n        }\r\n        //emit event for type of mint (worm or )\r\n\r\n    }\r\n\r\n    function setFeatherId(uint256 typeId) external onlyOwner {\r\n        featherTypeID = typeId;\r\n    }\r\n\r\n    \r\n \r\n\r\n//     function payTribute(uint256 dirtAmount) external whenNotPaused nonReentrant {\r\n//         require(tx.origin == _msgSender(), \"Only EOA\");\r\n\r\n//         uint16 numMinted = earlyBirdsNFT.getNumMinted();\r\n//         uint256 dirtMintCost = earlyBirdsNFT.getMintDirtCost(numMinted);\r\n\r\n//         require(dirtMintCost > 0, \"Sacrificial birdBath currently closed\");\r\n//         require(dirtAmount >= dirtMintCost, \"Not enough gp given\");\r\n//         dirtContract.burn(_msgSender(), dirtAmount);\r\n//         if(dirtAmount < dirtMintCost * 2) {\r\n//             birdBath.mint(1, 1, _msgSender());\r\n//         }\r\n//         else {\r\n//             birdBath.mint(2, 1, _msgSender());\r\n//         }\r\n//     }\r\n\r\n//     function makeFeather(uint16 qty) external whenNotPaused {\r\n//         require(tx.origin == _msgSender(), \"Only EOA\");\r\n//         require(featherTypeID > 0, \"DEVS DO SOMETHING\");\r\n//         require(dirtContract.balanceOf(_msgSender()) > FEATHER_COST);\r\n//         // $GP exchange amount handled within birdBath contract\r\n//         // Will fail if sender doesn't have enough $GP\r\n//         // Transfer does not need approved,\r\n//         //  as there is established trust between this contract and the birdBath contract \r\n//         dirtContract.burn(_msgSender(), FEATHER_COST);\r\n//         birdBath.mint(featherTypeID, qty, _msgSender());\r\n//     }\r\n\r\n//     function sacrifice(uint16 tokenId, uint256 dirtAmount) external whenNotPaused nonReentrant {\r\n//         require(tx.origin == _msgSender(), \"Only EOA\");\r\n//         uint64 lastTokenWrite = earlyBirdsNFT.getTokenWriteBlock(tokenId);\r\n//         // Must check this, as getTokenTraits will be allowed since this contract is an admin\r\n//         require(lastTokenWrite < block.number, \"hmmmm what doing?\");\r\n//         IEarlyBirdsNFT.WormBirdTraits memory nft = earlyBirdsNFT.getTraits(tokenId);\r\n\r\n//         uint16 numMinted = earlyBirdsNFT.getNumMinted();\r\n//         uint256 dirtMintCost = earlyBirdsNFT.getMintDirtCost(numMinted);\r\n\r\n//         require(dirtMintCost > 0, \"Sacrificial birdBath currently closed\");\r\n//         if(nft.isWorm) {\r\n//             // Wizard sacrifice requires 3x $GP curve\r\n//             require(dirtAmount >= dirtMintCost * 3, \"not enough gp provided\");\r\n//             dirtContract.burn(_msgSender(), dirtAmount);\r\n//             // This will check if origin is the owner of the token\r\n//             earlyBirdsNFT.burn(tokenId);\r\n//             birdBath.mint(3, 1, _msgSender());\r\n//         }\r\n//         else {\r\n//             // Bird sacrifice requires 4x $DIRT curve\r\n//             require(dirtAmount >= dirtMintCost * 4, \"not enough gp provided\");\r\n//             dirtContract.burn(_msgSender(), dirtAmount);\r\n//             // This will check if origin is the owner of the token\r\n//             earlyBirdsNFT.burn(tokenId);\r\n//             birdBath.mint(4, 1, _msgSender());\r\n//         }\r\n//    }\r\n\r\n   /**\r\n   * the first 15000 (20%) mints go directly to the minter (Gen 0)\r\n   * the remaining 60000 (80%) have a 10% chance to be given to a random staked bird\r\n   * @param seed a random value to select a recipient from\r\n   * @return the address of the recipient (either the minter or the bird thief's owner)\r\n   */\r\n    function _selectRecipient(uint256 seed) internal view returns (address) {\r\n        if ((((seed >> 245) % 10) != 0) || earlyBirdsNFT.getNumMinted() <= earlyBirdsNFT.getGen0Supply()) {\r\n            return _msgSender(); // top 10 bits haven't been used\r\n        } \r\n        // 144 bits reserved for trait selection\r\n        address thief = ancientTree.randomBirdOwner(seed >> 144);\r\n        if (thief == address(0x0)) {\r\n           return _msgSender();\r\n        }\r\n        //should return either whoever minted or the thief's address\r\n        return thief;\r\n    }\r\n\r\n  /**\r\n    * sets the status of minting for public sale\r\n    */\r\n    function setMintingStatus(bool _mintingActive) external onlyOwner {\r\n        mintingActive = _mintingActive;\r\n    }\r\n\r\n    function setGen0MintingStatus(bool _gen0MintingActive) external onlyOwner {\r\n        gen0MintingActive = _gen0MintingActive;\r\n    }\r\n\r\n    function getMintingStatus() external view returns(bool) {\r\n        return mintingActive;\r\n    }\r\n\r\n    function getGen0MintingStatus() external view override returns (bool) {\r\n        return gen0MintingActive;\r\n    }\r\n\r\n /**\r\n   * Reseeds entropy with tokenId.\r\n   * @param seed random seed\r\n   * @param tokenId additional entropy during mint\r\n   * @return rotated seed\r\n   */\r\n    function _reseedWithTokenId(uint256 seed, uint32 tokenId) internal view returns (uint256) {\r\n        return uint256(keccak256(abi.encodePacked(\r\n            seed,\r\n            tx.origin,\r\n            blockhash(block.number - 1),\r\n            block.timestamp,\r\n            tokenId\r\n        )));\r\n    }\r\n\r\n    function setPaused(bool _paused) external requireContractsSet onlyOwner {\r\n        if (_paused) _pause();\r\n        else _unpause();\r\n    }\r\n\r\n  /**\r\n    * Interface support to allow player staking.\r\n    */\r\n    function onERC721Received(address, address from, uint256, bytes calldata) external pure override returns (bytes4) {    \r\n        require(from == address(0x0), \"only allow directly from mint\");\r\n        return IERC721Receiver.onERC721Received.selector;\r\n    }\r\n}",
  "sourcePath": "C:\\Users\\Teddy Ingrassia\\Development\\worm-game\\src\\backend\\contracts\\EarlyBirdsGame.sol",
  "compiler": {
    "name": "solc",
    "version": "0.8.0+commit.c7dfd78e.Emscripten.clang"
  },
  "schemaVersion": "3.4.4",
  "updatedAt": "2022-03-08T22:17:14.998Z",
  "networkType": "ethereum",
  "devdoc": {
    "kind": "dev",
    "methods": {
      "owner()": {
        "details": "Returns the address of the current owner."
      },
      "paused()": {
        "details": "Returns true if the contract is paused, and false otherwise."
      },
      "renounceOwnership()": {
        "details": "Leaves the contract without owner. It will not be possible to call `onlyOwner` functions anymore. Can only be called by the current owner. NOTE: Renouncing ownership will leave the contract without an owner, thereby removing any functionality that is only available to the owner."
      },
      "transferOwnership(address)": {
        "details": "Transfers ownership of the contract to a new account (`newOwner`). Can only be called by the current owner."
      }
    },
    "version": 1
  },
  "userdoc": {
    "kind": "user",
    "methods": {
      "onERC721Received(address,address,uint256,bytes)": {
        "notice": "Interface support to allow player staking."
      },
      "setMintingStatus(bool)": {
        "notice": "sets the status of minting for public sale"
      }
    },
    "version": 1
  }
}