{
  "contractName": "RandomNumberConsumer",
  "abi": [
    {
      "inputs": [],
      "stateMutability": "nonpayable",
      "type": "constructor"
    },
    {
      "inputs": [],
      "name": "randomResult",
      "outputs": [
        {
          "internalType": "uint256",
          "name": "",
          "type": "uint256"
        }
      ],
      "stateMutability": "view",
      "type": "function"
    },
    {
      "inputs": [
        {
          "internalType": "bytes32",
          "name": "requestId",
          "type": "bytes32"
        },
        {
          "internalType": "uint256",
          "name": "randomness",
          "type": "uint256"
        }
      ],
      "name": "rawFulfillRandomness",
      "outputs": [],
      "stateMutability": "nonpayable",
      "type": "function"
    },
    {
      "inputs": [],
      "name": "getRandomNumber",
      "outputs": [
        {
          "internalType": "bytes32",
          "name": "requestId",
          "type": "bytes32"
        }
      ],
      "stateMutability": "nonpayable",
      "type": "function"
    },
    {
      "inputs": [],
      "name": "randomizeSeed",
      "outputs": [
        {
          "internalType": "uint256",
          "name": "",
          "type": "uint256"
        }
      ],
      "stateMutability": "nonpayable",
      "type": "function"
    },
    {
      "inputs": [],
      "name": "getCurrentSeed",
      "outputs": [
        {
          "internalType": "uint256",
          "name": "",
          "type": "uint256"
        }
      ],
      "stateMutability": "view",
      "type": "function"
    }
  ],
  "bytecode": "0x60c060405234801561001057600080fd5b50738c7382f9d8f56b33781fe506e897a4f1e2d1725573326c977e6efc84e512bb9c30f76e30c160ed06fb8173ffffffffffffffffffffffffffffffffffffffff1660a08173ffffffffffffffffffffffffffffffffffffffff1660601b815250508073ffffffffffffffffffffffffffffffffffffffff1660808173ffffffffffffffffffffffffffffffffffffffff1660601b8152505050507f6e75b569a01ef56d18cab6a8e71e6600d6ce853834d4a5748b720d06f878b3a460001b600181905550655af3107a400060028190555060805160601c60a05160601c610b6161011a6000396000818160f8015261035301526000818161020e01526103170152610b616000f3fe608060405234801561001057600080fd5b50600436106100575760003560e01c806342619f661461005c57806394985ddd1461007a578063c0982f5014610096578063d614dd92146100b4578063dbdff2c1146100d2575b600080fd5b6100646100f0565b60405161007191906108c1565b60405180910390f35b610094600480360381019061008f919061055e565b6100f6565b005b61009e610192565b6040516100ab91906108c1565b60405180910390f35b6100bc6101fd565b6040516100c991906108c1565b60405180910390f35b6100da610207565b6040516100e791906107f8565b60405180910390f35b60035481565b7f000000000000000000000000000000000000000000000000000000000000000073ffffffffffffffffffffffffffffffffffffffff163373ffffffffffffffffffffffffffffffffffffffff1614610184576040517f08c379a000000000000000000000000000000000000000000000000000000000815260040161017b906108a1565b60405180910390fd5b61018e8282610308565b5050565b6000600560008154809291906101a790610a18565b9190505550326001436101ba919061095f565b40426004546005546040516020016101d6959493929190610714565b6040516020818303038152906040528051906020012060001c600681905550600654905090565b6000600654905090565b60006002547f000000000000000000000000000000000000000000000000000000000000000073ffffffffffffffffffffffffffffffffffffffff166370a08231306040518263ffffffff1660e01b8152600401610265919061079f565b60206040518083038186803b15801561027d57600080fd5b505afa158015610291573d6000803e3d6000fd5b505050506040513d601f19601f820116820180604052508101906102b5919061059a565b116102f5576040517f08c379a00000000000000000000000000000000000000000000000000000000081526004016102ec90610881565b60405180910390fd5b610303600154600254610313565b905090565b806004819055505050565b60007f000000000000000000000000000000000000000000000000000000000000000073ffffffffffffffffffffffffffffffffffffffff16634000aea07f000000000000000000000000000000000000000000000000000000000000000084866000604051602001610387929190610813565b6040516020818303038152906040526040518463ffffffff1660e01b81526004016103b4939291906107ba565b602060405180830381600087803b1580156103ce57600080fd5b505af11580156103e2573d6000803e3d6000fd5b505050506040513d601f19601f820116820180604052508101906104069190610535565b5060006104288460003060008089815260200190815260200160002054610472565b90506001600080868152602001908152602001600020546104499190610909565b6000808681526020019081526020016000208190555061046984826104ae565b91505092915050565b60008484848460405160200161048b949392919061083c565b6040516020818303038152906040528051906020012060001c9050949350505050565b600082826040516020016104c3929190610773565b60405160208183030381529060405280519060200120905092915050565b6000815190506104f081610ae6565b92915050565b60008135905061050581610afd565b92915050565b60008135905061051a81610b14565b92915050565b60008151905061052f81610b14565b92915050565b60006020828403121561054757600080fd5b6000610555848285016104e1565b91505092915050565b6000806040838503121561057157600080fd5b600061057f858286016104f6565b92505060206105908582860161050b565b9150509250929050565b6000602082840312156105ac57600080fd5b60006105ba84828501610520565b91505092915050565b6105cc81610993565b82525050565b6105e36105de82610993565b610a61565b82525050565b6105f2816109b1565b82525050565b610609610604826109b1565b610a73565b82525050565b600061061a826108dc565b61062481856108e7565b93506106348185602086016109e5565b61063d81610ac8565b840191505092915050565b6000610655602b836108f8565b91507f4e6f7420656e6f756768204c494e4b202d2066696c6c20636f6e74726163742060008301527f77697468206661756365740000000000000000000000000000000000000000006020830152604082019050919050565b60006106bb601f836108f8565b91507f4f6e6c7920565246436f6f7264696e61746f722063616e2066756c66696c6c006000830152602082019050919050565b6106f7816109db565b82525050565b61070e610709826109db565b610a8f565b82525050565b600061072082886105d2565b60148201915061073082876105f8565b60208201915061074082866106fd565b60208201915061075082856106fd565b60208201915061076082846106fd565b6020820191508190509695505050505050565b600061077f82856105f8565b60208201915061078f82846106fd565b6020820191508190509392505050565b60006020820190506107b460008301846105c3565b92915050565b60006060820190506107cf60008301866105c3565b6107dc60208301856106ee565b81810360408301526107ee818461060f565b9050949350505050565b600060208201905061080d60008301846105e9565b92915050565b600060408201905061082860008301856105e9565b61083560208301846106ee565b9392505050565b600060808201905061085160008301876105e9565b61085e60208301866106ee565b61086b60408301856105c3565b61087860608301846106ee565b95945050505050565b6000602082019050818103600083015261089a81610648565b9050919050565b600060208201905081810360008301526108ba816106ae565b9050919050565b60006020820190506108d660008301846106ee565b92915050565b600081519050919050565b600082825260208201905092915050565b600082825260208201905092915050565b6000610914826109db565b915061091f836109db565b9250827fffffffffffffffffffffffffffffffffffffffffffffffffffffffffffffffff0382111561095457610953610a99565b5b828201905092915050565b600061096a826109db565b9150610975836109db565b92508282101561098857610987610a99565b5b828203905092915050565b600061099e826109bb565b9050919050565b60008115159050919050565b6000819050919050565b600073ffffffffffffffffffffffffffffffffffffffff82169050919050565b6000819050919050565b60005b83811015610a035780820151818401526020810190506109e8565b83811115610a12576000848401525b50505050565b6000610a23826109db565b91507fffffffffffffffffffffffffffffffffffffffffffffffffffffffffffffffff821415610a5657610a55610a99565b5b600182019050919050565b6000610a6c82610a7d565b9050919050565b6000819050919050565b6000610a8882610ad9565b9050919050565b6000819050919050565b7f4e487b7100000000000000000000000000000000000000000000000000000000600052601160045260246000fd5b6000601f19601f8301169050919050565b60008160601b9050919050565b610aef816109a5565b8114610afa57600080fd5b50565b610b06816109b1565b8114610b1157600080fd5b50565b610b1d816109db565b8114610b2857600080fd5b5056fea26469706673582212202060e211a899a1c79837e36437f675656231e37d65b13b55b0011fbb37f2726a64736f6c63430008000033",
  "immutableReferences": {
    "73": [
      {
        "length": 32,
        "start": 526
      },
      {
        "length": 32,
        "start": 791
      }
    ],
    "75": [
      {
        "length": 32,
        "start": 248
      },
      {
        "length": 32,
        "start": 851
      }
    ]
  },
  "source": "// SPDX-License-Identifier: MIT LICENSE\r\n\r\npragma solidity ^0.8.0;\r\n\r\nimport \"@chainlink/contracts/src/v0.8/VRFConsumerBase.sol\";\r\n\r\ncontract RandomNumberConsumer is VRFConsumerBase {\r\n    bytes32 internal keyHash;\r\n    uint256 internal fee;\r\n    uint256 public randomResult;\r\n    uint256 internal seed;\r\n    uint256 private counter;\r\n    uint256 internal currentSeed;\r\n\r\n    constructor() \r\n        VRFConsumerBase(\r\n            0x8C7382F9D8f56b33781fE506E897a4F1e2d17255, // VRF Coordinator\r\n            0x326C977E6efc84E512bB9C30f76E30c160eD06FB  // LINK Token\r\n        ) public\r\n    {\r\n        keyHash = 0x6e75b569a01ef56d18cab6a8e71e6600d6ce853834d4a5748b720d06f878b3a4;\r\n        fee = 0.0001 * 10 ** 18; // 0.0001 LINK\r\n    }\r\n\r\n  /** \r\n    * Requests randomness\r\n    */\r\n    function getRandomNumber() external returns (bytes32 requestId) {\r\n        require(LINK.balanceOf(address(this)) > fee, \"Not enough LINK - fill contract with faucet\");\r\n        return requestRandomness(keyHash, fee);\r\n    }\r\n\r\n  /**\r\n    * Callback function used by VRF Coordinator\r\n    */\r\n    function fulfillRandomness(bytes32 requestId, uint256 randomness) internal override {\r\n        seed = randomness;\r\n    }\r\n\r\n    function randomizeSeed() external returns (uint256) {\r\n        counter++;\r\n        currentSeed = uint256(keccak256(abi.encodePacked(\r\n            tx.origin,\r\n            blockhash(block.number - 1),\r\n            block.timestamp,\r\n            seed,\r\n            counter\r\n        )));\r\n        return currentSeed;\r\n    }\r\n\r\n    function getCurrentSeed() external view returns (uint256) {\r\n        return currentSeed;\r\n    }\r\n}",
  "sourcePath": "C:\\Users\\Teddy Ingrassia\\Development\\worm-game\\src\\backend\\contracts\\RandomNumberConsumer.sol",
  "compiler": {
    "name": "solc",
    "version": "0.8.0+commit.c7dfd78e.Emscripten.clang"
  },
  "schemaVersion": "3.4.4",
  "updatedAt": "2022-03-08T22:17:15.010Z",
  "networkType": "ethereum",
  "devdoc": {
    "kind": "dev",
    "methods": {},
    "version": 1
  },
  "userdoc": {
    "kind": "user",
    "methods": {
      "getRandomNumber()": {
        "notice": "Requests randomness"
      }
    },
    "version": 1
  }
}