{
  "contractName": "WormGameTraits",
  "abi": [
    {
      "inputs": [],
      "stateMutability": "nonpayable",
      "type": "constructor"
    },
    {
      "anonymous": false,
      "inputs": [
        {
          "indexed": true,
          "internalType": "address",
          "name": "previousOwner",
          "type": "address"
        },
        {
          "indexed": true,
          "internalType": "address",
          "name": "newOwner",
          "type": "address"
        }
      ],
      "name": "OwnershipTransferred",
      "type": "event"
    },
    {
      "anonymous": false,
      "inputs": [
        {
          "indexed": false,
          "internalType": "string",
          "name": "traitString",
          "type": "string"
        }
      ],
      "name": "traitString",
      "type": "event"
    },
    {
      "inputs": [],
      "name": "owner",
      "outputs": [
        {
          "internalType": "address",
          "name": "",
          "type": "address"
        }
      ],
      "stateMutability": "view",
      "type": "function"
    },
    {
      "inputs": [],
      "name": "renounceOwnership",
      "outputs": [],
      "stateMutability": "nonpayable",
      "type": "function"
    },
    {
      "inputs": [
        {
          "internalType": "uint8",
          "name": "",
          "type": "uint8"
        },
        {
          "internalType": "uint8",
          "name": "",
          "type": "uint8"
        }
      ],
      "name": "traitData",
      "outputs": [
        {
          "internalType": "string",
          "name": "name",
          "type": "string"
        },
        {
          "internalType": "string",
          "name": "png",
          "type": "string"
        }
      ],
      "stateMutability": "view",
      "type": "function"
    },
    {
      "inputs": [
        {
          "internalType": "address",
          "name": "newOwner",
          "type": "address"
        }
      ],
      "name": "transferOwnership",
      "outputs": [],
      "stateMutability": "nonpayable",
      "type": "function"
    },
    {
      "inputs": [
        {
          "internalType": "address",
          "name": "_wormNFTGen",
          "type": "address"
        }
      ],
      "name": "setNFTContracts",
      "outputs": [],
      "stateMutability": "nonpayable",
      "type": "function"
    },
    {
      "inputs": [
        {
          "internalType": "uint8",
          "name": "traitTypeId",
          "type": "uint8"
        },
        {
          "internalType": "uint8[]",
          "name": "traitValueIds",
          "type": "uint8[]"
        },
        {
          "internalType": "string[][]",
          "name": "traits",
          "type": "string[][]"
        }
      ],
      "name": "uploadTraits",
      "outputs": [],
      "stateMutability": "nonpayable",
      "type": "function"
    },
    {
      "inputs": [
        {
          "internalType": "uint8",
          "name": "traitTypeId",
          "type": "uint8"
        },
        {
          "internalType": "uint8",
          "name": "traitValueId",
          "type": "uint8"
        }
      ],
      "name": "getTraitBase64",
      "outputs": [
        {
          "internalType": "string",
          "name": "",
          "type": "string"
        }
      ],
      "stateMutability": "nonpayable",
      "type": "function"
    },
    {
      "inputs": [
        {
          "internalType": "uint16",
          "name": "tokenId",
          "type": "uint16"
        }
      ],
      "name": "tokenURI",
      "outputs": [
        {
          "internalType": "string",
          "name": "",
          "type": "string"
        }
      ],
      "stateMutability": "view",
      "type": "function"
    }
  ],
  "bytecode": "0x608060405260405180604001604052806040518060400160405280600481526020017f576f726d0000000000000000000000000000000000000000000000000000000081525081526020016040518060400160405280600481526020017f42697264000000000000000000000000000000000000000000000000000000008152508152506001906002620000959291906200029e565b5060405180608001604052806040518060400160405280600181526020017f350000000000000000000000000000000000000000000000000000000000000081525081526020016040518060400160405280600181526020017f360000000000000000000000000000000000000000000000000000000000000081525081526020016040518060400160405280600181526020017f370000000000000000000000000000000000000000000000000000000000000081525081526020016040518060400160405280600181526020017f380000000000000000000000000000000000000000000000000000000000000081525081525060049060046200019d929190620002f8565b50348015620001ab57600080fd5b50620001cc620001c0620001d260201b60201c565b620001da60201b60201c565b620004d5565b600033905090565b60008060009054906101000a900473ffffffffffffffffffffffffffffffffffffffff169050816000806101000a81548173ffffffffffffffffffffffffffffffffffffffff021916908373ffffffffffffffffffffffffffffffffffffffff1602179055508173ffffffffffffffffffffffffffffffffffffffff168173ffffffffffffffffffffffffffffffffffffffff167f8be0079c531659141344cd1fd0a4f28419497f9722a3daafe3b4186f6b6457e060405160405180910390a35050565b8260038101928215620002e5579160200282015b82811115620002e4578251829080519060200190620002d392919062000352565b5091602001919060010190620002b2565b5b509050620002f49190620003e3565b5090565b82600481019282156200033f579160200282015b828111156200033e5782518290805190602001906200032d92919062000352565b50916020019190600101906200030c565b5b5090506200034e9190620003e3565b5090565b828054620003609062000470565b90600052602060002090601f016020900481019282620003845760008555620003d0565b82601f106200039f57805160ff1916838001178555620003d0565b82800160010185558215620003d0579182015b82811115620003cf578251825591602001919060010190620003b2565b5b509050620003df91906200040b565b5090565b5b80821115620004075760008181620003fd91906200042a565b50600101620003e4565b5090565b5b80821115620004265760008160009055506001016200040c565b5090565b508054620004389062000470565b6000825580601f106200044c57506200046d565b601f0160209004906000526020600020908101906200046c91906200040b565b5b50565b600060028204905060018216806200048957607f821691505b60208210811415620004a0576200049f620004a6565b5b50919050565b7f4e487b7100000000000000000000000000000000000000000000000000000000600052602260045260246000fd5b6150e980620004e56000396000f3fe608060405234801561001057600080fd5b50600436106100885760003560e01c80639bf2ee351161005b5780639bf2ee35146100ed578063a1cdfe121461011e578063dd7d84401461014e578063f2fde38b1461017e57610088565b806313a6f3331461008d578063406a83db146100a9578063715018a6146100c55780638da5cb5b146100cf575b600080fd5b6100a760048036038101906100a29190613d0e565b61019a565b005b6100c360048036038101906100be9190613c17565b610510565b005b6100cd6105d0565b005b6100d7610658565b6040516100e49190614a86565b60405180910390f35b61010760048036038101906101029190613d97565b610681565b604051610115929190614ac3565b60405180910390f35b61013860048036038101906101339190613d97565b6107c2565b6040516101459190614aa1565b60405180910390f35b61016860048036038101906101639190613c93565b6108f1565b6040516101759190614aa1565b60405180910390f35b61019860048036038101906101939190613c17565b610a78565b005b6101a2610b70565b73ffffffffffffffffffffffffffffffffffffffff166101c0610658565b73ffffffffffffffffffffffffffffffffffffffff1614610216576040517f08c379a000000000000000000000000000000000000000000000000000000000815260040161020d90614b5c565b60405180910390fd5b81819050848490501461025e576040517f08c379a000000000000000000000000000000000000000000000000000000000815260040161025590614b3c565b60405180910390fd5b60005b828290508160ff16101561050857604051806040016040528084848460ff168181106102b6577f4e487b7100000000000000000000000000000000000000000000000000000000600052603260045260246000fd5b90506020028101906102c89190614b97565b6000818110610300577f4e487b7100000000000000000000000000000000000000000000000000000000600052603260045260246000fd5b90506020028101906103129190614bee565b8080601f016020809104026020016040519081016040528093929190818152602001838380828437600081840152601f19601f82011690508083019250505050505050815260200184848460ff16818110610396577f4e487b7100000000000000000000000000000000000000000000000000000000600052603260045260246000fd5b90506020028101906103a89190614b97565b60018181106103e0577f4e487b7100000000000000000000000000000000000000000000000000000000600052603260045260246000fd5b90506020028101906103f29190614bee565b8080601f016020809104026020016040519081016040528093929190818152602001838380828437600081840152601f19601f82011690508083019250505050505050815250600960008860ff1660ff168152602001908152602001600020600087878560ff1681811061048f577f4e487b7100000000000000000000000000000000000000000000000000000000600052603260045260246000fd5b90506020020160208101906104a49190613ce5565b60ff1660ff16815260200190815260200160002060008201518160000190805190602001906104d4929190613986565b5060208201518160010190805190602001906104f1929190613986565b50905050808061050090614ed8565b915050610261565b505050505050565b610518610b70565b73ffffffffffffffffffffffffffffffffffffffff16610536610658565b73ffffffffffffffffffffffffffffffffffffffff161461058c576040517f08c379a000000000000000000000000000000000000000000000000000000000815260040161058390614b5c565b60405180910390fd5b80600860006101000a81548173ffffffffffffffffffffffffffffffffffffffff021916908373ffffffffffffffffffffffffffffffffffffffff16021790555050565b6105d8610b70565b73ffffffffffffffffffffffffffffffffffffffff166105f6610658565b73ffffffffffffffffffffffffffffffffffffffff161461064c576040517f08c379a000000000000000000000000000000000000000000000000000000000815260040161064390614b5c565b60405180910390fd5b6106566000610b78565b565b60008060009054906101000a900473ffffffffffffffffffffffffffffffffffffffff16905090565b6009602052816000526040600020602052806000526040600020600091509150508060000180546106b190614e5d565b80601f01602080910402602001604051908101604052809291908181526020018280546106dd90614e5d565b801561072a5780601f106106ff5761010080835404028352916020019161072a565b820191906000526020600020905b81548152906001019060200180831161070d57829003601f168201915b50505050509080600101805461073f90614e5d565b80601f016020809104026020016040519081016040528092919081815260200182805461076b90614e5d565b80156107b85780601f1061078d576101008083540402835291602001916107b8565b820191906000526020600020905b81548152906001019060200180831161079b57829003601f168201915b5050505050905082565b60607fadc29497eda29bf565c599fc099b480ec2af0b72ca8ca927bfce0d72e7cf3c57600960008560ff1660ff16815260200190815260200160002060008460ff1660ff1681526020019081526020016000206001016040516108259190614afa565b60405180910390a1600960008460ff1660ff16815260200190815260200160002060008360ff1660ff168152602001908152602001600020600101805461086b90614e5d565b80601f016020809104026020016040519081016040528092919081815260200182805461089790614e5d565b80156108e45780601f106108b9576101008083540402835291602001916108e4565b820191906000526020600020905b8154815290600101906020018083116108c757829003601f168201915b5050505050905092915050565b60606000600860009054906101000a900473ffffffffffffffffffffffffffffffffffffffff1673ffffffffffffffffffffffffffffffffffffffff166343e55e30846040518263ffffffff1660e01b81526004016109509190614b7c565b6101206040518083038186803b15801561096957600080fd5b505afa15801561097d573d6000803e3d6000fd5b505050506040513d601f19601f820116820180604052508101906109a19190613c69565b9050600081600001516109b55760016109b8565b60005b9050600060018260ff16600381106109f9577f4e487b7100000000000000000000000000000000000000000000000000000000600052603260045260246000fd5b01610a078661ffff16610c3c565b610a18610a1386610de9565b612505565b610a2288876126b0565b604051602001610a3594939291906149fb565b6040516020818303038152906040529050610a4f81612505565b604051602001610a5f91906147ac565b6040516020818303038152906040529350505050919050565b610a80610b70565b73ffffffffffffffffffffffffffffffffffffffff16610a9e610658565b73ffffffffffffffffffffffffffffffffffffffff1614610af4576040517f08c379a0000000000000000000000000000000000000000000000000000000008152600401610aeb90614b5c565b60405180910390fd5b600073ffffffffffffffffffffffffffffffffffffffff168173ffffffffffffffffffffffffffffffffffffffff161415610b64576040517f08c379a0000000000000000000000000000000000000000000000000000000008152600401610b5b90614b1c565b60405180910390fd5b610b6d81610b78565b50565b600033905090565b60008060009054906101000a900473ffffffffffffffffffffffffffffffffffffffff169050816000806101000a81548173ffffffffffffffffffffffffffffffffffffffff021916908373ffffffffffffffffffffffffffffffffffffffff1602179055508173ffffffffffffffffffffffffffffffffffffffff168173ffffffffffffffffffffffffffffffffffffffff167f8be0079c531659141344cd1fd0a4f28419497f9722a3daafe3b4186f6b6457e060405160405180910390a35050565b60606000821415610c84576040518060400160405280600181526020017f30000000000000000000000000000000000000000000000000000000000000008152509050610de4565b600082905060005b60008214610cb6578080610c9f90614e8f565b915050600a82610caf9190614d08565b9150610c8c565b60008167ffffffffffffffff811115610cf8577f4e487b7100000000000000000000000000000000000000000000000000000000600052604160045260246000fd5b6040519080825280601f01601f191660200182016040528015610d2a5781602001600182028036833780820191505090505b5090505b60008514610ddd57600182610d439190614d93565b9150600a85610d529190614f02565b6030610d5e9190614cb2565b60f81b818381518110610d9a577f4e487b7100000000000000000000000000000000000000000000000000000000600052603260045260246000fd5b60200101907effffffffffffffffffffffffffffffffffffffffffffffffffffffffffffff1916908160001a905350600a85610dd69190614d08565b9450610d2e565b8093505050505b919050565b60608082600001511561196b57610f5e600960008060ff1681526020019081526020016000206000856020015160ff1660ff168152602001908152602001600020604051806040016040529081600082018054610e4590614e5d565b80601f0160208091040260200160405190810160405280929190818152602001828054610e7190614e5d565b8015610ebe5780601f10610e9357610100808354040283529160200191610ebe565b820191906000526020600020905b815481529060010190602001808311610ea157829003601f168201915b50505050508152602001600182018054610ed790614e5d565b80601f0160208091040260200160405190810160405280929190818152602001828054610f0390614e5d565b8015610f505780601f10610f2557610100808354040283529160200191610f50565b820191906000526020600020905b815481529060010190602001808311610f3357829003601f168201915b50505050508152505061392d565b6110c760096000600160ff1681526020019081526020016000206000866040015160ff1660ff168152602001908152602001600020604051806040016040529081600082018054610fae90614e5d565b80601f0160208091040260200160405190810160405280929190818152602001828054610fda90614e5d565b80156110275780601f10610ffc57610100808354040283529160200191611027565b820191906000526020600020905b81548152906001019060200180831161100a57829003601f168201915b5050505050815260200160018201805461104090614e5d565b80601f016020809104026020016040519081016040528092919081815260200182805461106c90614e5d565b80156110b95780601f1061108e576101008083540402835291602001916110b9565b820191906000526020600020905b81548152906001019060200180831161109c57829003601f168201915b50505050508152505061392d565b61123060096000600260ff1681526020019081526020016000206000876060015160ff1660ff16815260200190815260200160002060405180604001604052908160008201805461111790614e5d565b80601f016020809104026020016040519081016040528092919081815260200182805461114390614e5d565b80156111905780601f1061116557610100808354040283529160200191611190565b820191906000526020600020905b81548152906001019060200180831161117357829003601f168201915b505050505081526020016001820180546111a990614e5d565b80601f01602080910402602001604051908101604052809291908181526020018280546111d590614e5d565b80156112225780601f106111f757610100808354040283529160200191611222565b820191906000526020600020905b81548152906001019060200180831161120557829003601f168201915b50505050508152505061392d565b61139960096000600360ff1681526020019081526020016000206000886080015160ff1660ff16815260200190815260200160002060405180604001604052908160008201805461128090614e5d565b80601f01602080910402602001604051908101604052809291908181526020018280546112ac90614e5d565b80156112f95780601f106112ce576101008083540402835291602001916112f9565b820191906000526020600020905b8154815290600101906020018083116112dc57829003601f168201915b5050505050815260200160018201805461131290614e5d565b80601f016020809104026020016040519081016040528092919081815260200182805461133e90614e5d565b801561138b5780601f106113605761010080835404028352916020019161138b565b820191906000526020600020905b81548152906001019060200180831161136e57829003601f168201915b50505050508152505061392d565b61150260096000600460ff16815260200190815260200160002060008960a0015160ff1660ff1681526020019081526020016000206040518060400160405290816000820180546113e990614e5d565b80601f016020809104026020016040519081016040528092919081815260200182805461141590614e5d565b80156114625780601f1061143757610100808354040283529160200191611462565b820191906000526020600020905b81548152906001019060200180831161144557829003601f168201915b5050505050815260200160018201805461147b90614e5d565b80601f01602080910402602001604051908101604052809291908181526020018280546114a790614e5d565b80156114f45780601f106114c9576101008083540402835291602001916114f4565b820191906000526020600020905b8154815290600101906020018083116114d757829003601f168201915b50505050508152505061392d565b61166b60096000600560ff16815260200190815260200160002060008a60c0015160ff1660ff16815260200190815260200160002060405180604001604052908160008201805461155290614e5d565b80601f016020809104026020016040519081016040528092919081815260200182805461157e90614e5d565b80156115cb5780601f106115a0576101008083540402835291602001916115cb565b820191906000526020600020905b8154815290600101906020018083116115ae57829003601f168201915b505050505081526020016001820180546115e490614e5d565b80601f016020809104026020016040519081016040528092919081815260200182805461161090614e5d565b801561165d5780601f106116325761010080835404028352916020019161165d565b820191906000526020600020905b81548152906001019060200180831161164057829003601f168201915b50505050508152505061392d565b6117d460096000600660ff16815260200190815260200160002060008b60e0015160ff1660ff1681526020019081526020016000206040518060400160405290816000820180546116bb90614e5d565b80601f01602080910402602001604051908101604052809291908181526020018280546116e790614e5d565b80156117345780601f1061170957610100808354040283529160200191611734565b820191906000526020600020905b81548152906001019060200180831161171757829003601f168201915b5050505050815260200160018201805461174d90614e5d565b80601f016020809104026020016040519081016040528092919081815260200182805461177990614e5d565b80156117c65780601f1061179b576101008083540402835291602001916117c6565b820191906000526020600020905b8154815290600101906020018083116117a957829003601f168201915b50505050508152505061392d565b61193e60096000600760ff16815260200190815260200160002060008c610100015160ff1660ff16815260200190815260200160002060405180604001604052908160008201805461182590614e5d565b80601f016020809104026020016040519081016040528092919081815260200182805461185190614e5d565b801561189e5780601f106118735761010080835404028352916020019161189e565b820191906000526020600020905b81548152906001019060200180831161188157829003601f168201915b505050505081526020016001820180546118b790614e5d565b80601f01602080910402602001604051908101604052809291908181526020018280546118e390614e5d565b80156119305780601f1061190557610100808354040283529160200191611930565b820191906000526020600020905b81548152906001019060200180831161191357829003601f168201915b50505050508152505061392d565b6040516020016119559897969594939291906147c3565b60405160208183030381529060405290506124dd565b611ad460096000600860ff1681526020019081526020016000206000856020015160ff1660ff1681526020019081526020016000206040518060400160405290816000820180546119bb90614e5d565b80601f01602080910402602001604051908101604052809291908181526020018280546119e790614e5d565b8015611a345780601f10611a0957610100808354040283529160200191611a34565b820191906000526020600020905b815481529060010190602001808311611a1757829003601f168201915b50505050508152602001600182018054611a4d90614e5d565b80601f0160208091040260200160405190810160405280929190818152602001828054611a7990614e5d565b8015611ac65780601f10611a9b57610100808354040283529160200191611ac6565b820191906000526020600020905b815481529060010190602001808311611aa957829003601f168201915b50505050508152505061392d565b611c3d60096000600960ff1681526020019081526020016000206000866040015160ff1660ff168152602001908152602001600020604051806040016040529081600082018054611b2490614e5d565b80601f0160208091040260200160405190810160405280929190818152602001828054611b5090614e5d565b8015611b9d5780601f10611b7257610100808354040283529160200191611b9d565b820191906000526020600020905b815481529060010190602001808311611b8057829003601f168201915b50505050508152602001600182018054611bb690614e5d565b80601f0160208091040260200160405190810160405280929190818152602001828054611be290614e5d565b8015611c2f5780601f10611c0457610100808354040283529160200191611c2f565b820191906000526020600020905b815481529060010190602001808311611c1257829003601f168201915b50505050508152505061392d565b611da660096000600a60ff1681526020019081526020016000206000876060015160ff1660ff168152602001908152602001600020604051806040016040529081600082018054611c8d90614e5d565b80601f0160208091040260200160405190810160405280929190818152602001828054611cb990614e5d565b8015611d065780601f10611cdb57610100808354040283529160200191611d06565b820191906000526020600020905b815481529060010190602001808311611ce957829003601f168201915b50505050508152602001600182018054611d1f90614e5d565b80601f0160208091040260200160405190810160405280929190818152602001828054611d4b90614e5d565b8015611d985780601f10611d6d57610100808354040283529160200191611d98565b820191906000526020600020905b815481529060010190602001808311611d7b57829003601f168201915b50505050508152505061392d565b611f0f60096000600b60ff1681526020019081526020016000206000886080015160ff1660ff168152602001908152602001600020604051806040016040529081600082018054611df690614e5d565b80601f0160208091040260200160405190810160405280929190818152602001828054611e2290614e5d565b8015611e6f5780601f10611e4457610100808354040283529160200191611e6f565b820191906000526020600020905b815481529060010190602001808311611e5257829003601f168201915b50505050508152602001600182018054611e8890614e5d565b80601f0160208091040260200160405190810160405280929190818152602001828054611eb490614e5d565b8015611f015780601f10611ed657610100808354040283529160200191611f01565b820191906000526020600020905b815481529060010190602001808311611ee457829003601f168201915b50505050508152505061392d565b61207860096000600c60ff16815260200190815260200160002060008960a0015160ff1660ff168152602001908152602001600020604051806040016040529081600082018054611f5f90614e5d565b80601f0160208091040260200160405190810160405280929190818152602001828054611f8b90614e5d565b8015611fd85780601f10611fad57610100808354040283529160200191611fd8565b820191906000526020600020905b815481529060010190602001808311611fbb57829003601f168201915b50505050508152602001600182018054611ff190614e5d565b80601f016020809104026020016040519081016040528092919081815260200182805461201d90614e5d565b801561206a5780601f1061203f5761010080835404028352916020019161206a565b820191906000526020600020905b81548152906001019060200180831161204d57829003601f168201915b50505050508152505061392d565b6121e160096000600d60ff16815260200190815260200160002060008a60c0015160ff1660ff1681526020019081526020016000206040518060400160405290816000820180546120c890614e5d565b80601f01602080910402602001604051908101604052809291908181526020018280546120f490614e5d565b80156121415780601f1061211657610100808354040283529160200191612141565b820191906000526020600020905b81548152906001019060200180831161212457829003601f168201915b5050505050815260200160018201805461215a90614e5d565b80601f016020809104026020016040519081016040528092919081815260200182805461218690614e5d565b80156121d35780601f106121a8576101008083540402835291602001916121d3565b820191906000526020600020905b8154815290600101906020018083116121b657829003601f168201915b50505050508152505061392d565b61234a60096000600e60ff16815260200190815260200160002060008b60e0015160ff1660ff16815260200190815260200160002060405180604001604052908160008201805461223190614e5d565b80601f016020809104026020016040519081016040528092919081815260200182805461225d90614e5d565b80156122aa5780601f1061227f576101008083540402835291602001916122aa565b820191906000526020600020905b81548152906001019060200180831161228d57829003601f168201915b505050505081526020016001820180546122c390614e5d565b80601f01602080910402602001604051908101604052809291908181526020018280546122ef90614e5d565b801561233c5780601f106123115761010080835404028352916020019161233c565b820191906000526020600020905b81548152906001019060200180831161231f57829003601f168201915b50505050508152505061392d565b6124b460096000600f60ff16815260200190815260200160002060008c610100015160ff1660ff16815260200190815260200160002060405180604001604052908160008201805461239b90614e5d565b80601f01602080910402602001604051908101604052809291908181526020018280546123c790614e5d565b80156124145780601f106123e957610100808354040283529160200191612414565b820191906000526020600020905b8154815290600101906020018083116123f757829003601f168201915b5050505050815260200160018201805461242d90614e5d565b80601f016020809104026020016040519081016040528092919081815260200182805461245990614e5d565b80156124a65780601f1061247b576101008083540402835291602001916124a6565b820191906000526020600020905b81548152906001019060200180831161248957829003601f168201915b50505050508152505061392d565b6040516020016124cb9897969594939291906147c3565b60405160208183030381529060405290505b806040516020016124ee9190614971565b604051602081830303815290604052915050919050565b6060600082511415612528576040518060200160405280600081525090506126ab565b600060405180606001604052806040815260200161507460409139905060006003600285516125579190614cb2565b6125619190614d08565b600461256d9190614d39565b9050600060208261257e9190614cb2565b67ffffffffffffffff8111156125bd577f4e487b7100000000000000000000000000000000000000000000000000000000600052604160045260246000fd5b6040519080825280601f01601f1916602001820160405280156125ef5781602001600182028036833780820191505090505b509050818152600183018586518101602084015b8183101561266a576003830192508251603f8160121c1685015160f81b8252600182019150603f81600c1c1685015160f81b8252600182019150603f8160061c1685015160f81b8252600182019150603f811685015160f81b825260018201915050612603565b60038951066001811461268457600281146126945761269f565b613d3d60f01b600283035261269f565b603d60f81b60018303525b50505050508093505050505b919050565b6060816000015115612ec9576127b76040518060400160405280600481526020017f426f647900000000000000000000000000000000000000000000000000000000815250600960008060ff1681526020019081526020016000206000856020015160ff1660ff168152602001908152602001600020600001805461273490614e5d565b80601f016020809104026020016040519081016040528092919081815260200182805461276090614e5d565b80156127ad5780601f10612782576101008083540402835291602001916127ad565b820191906000526020600020905b81548152906001019060200180831161279057829003601f168201915b505050505061395a565b6128b36040518060400160405280600481526020017f486561640000000000000000000000000000000000000000000000000000000081525060096000600160ff1681526020019081526020016000206000866040015160ff1660ff168152602001908152602001600020600001805461283090614e5d565b80601f016020809104026020016040519081016040528092919081815260200182805461285c90614e5d565b80156128a95780601f1061287e576101008083540402835291602001916128a9565b820191906000526020600020905b81548152906001019060200180831161288c57829003601f168201915b505050505061395a565b6129af6040518060400160405280600581526020017f5370656c6c00000000000000000000000000000000000000000000000000000081525060096000600260ff1681526020019081526020016000206000876060015160ff1660ff168152602001908152602001600020600001805461292c90614e5d565b80601f016020809104026020016040519081016040528092919081815260200182805461295890614e5d565b80156129a55780601f1061297a576101008083540402835291602001916129a5565b820191906000526020600020905b81548152906001019060200180831161298857829003601f168201915b505050505061395a565b612aab6040518060400160405280600481526020017f457965730000000000000000000000000000000000000000000000000000000081525060096000600360ff1681526020019081526020016000206000886080015160ff1660ff1681526020019081526020016000206000018054612a2890614e5d565b80601f0160208091040260200160405190810160405280929190818152602001828054612a5490614e5d565b8015612aa15780601f10612a7657610100808354040283529160200191612aa1565b820191906000526020600020905b815481529060010190602001808311612a8457829003601f168201915b505050505061395a565b612ba76040518060400160405280600481526020017f4e65636b0000000000000000000000000000000000000000000000000000000081525060096000600460ff16815260200190815260200160002060008960a0015160ff1660ff1681526020019081526020016000206000018054612b2490614e5d565b80601f0160208091040260200160405190810160405280929190818152602001828054612b5090614e5d565b8015612b9d5780601f10612b7257610100808354040283529160200191612b9d565b820191906000526020600020905b815481529060010190602001808311612b8057829003601f168201915b505050505061395a565b612ca36040518060400160405280600581526020017f4d6f75746800000000000000000000000000000000000000000000000000000081525060096000600560ff16815260200190815260200160002060008a60c0015160ff1660ff1681526020019081526020016000206000018054612c2090614e5d565b80601f0160208091040260200160405190810160405280929190818152602001828054612c4c90614e5d565b8015612c995780601f10612c6e57610100808354040283529160200191612c99565b820191906000526020600020905b815481529060010190602001808311612c7c57829003601f168201915b505050505061395a565b612d9f6040518060400160405280600481526020017f57616e640000000000000000000000000000000000000000000000000000000081525060096000600660ff16815260200190815260200160002060008b60e0015160ff1660ff1681526020019081526020016000206000018054612d1c90614e5d565b80601f0160208091040260200160405190810160405280929190818152602001828054612d4890614e5d565b8015612d955780601f10612d6a57610100808354040283529160200191612d95565b820191906000526020600020905b815481529060010190602001808311612d7857829003601f168201915b505050505061395a565b612e9c6040518060400160405280600a81526020017f52616e6b20496e6465780000000000000000000000000000000000000000000081525060096000600760ff16815260200190815260200160002060008c610100015160ff1660ff1681526020019081526020016000206000018054612e1990614e5d565b80601f0160208091040260200160405190810160405280929190818152602001828054612e4590614e5d565b8015612e925780601f10612e6757610100808354040283529160200191612e92565b820191906000526020600020905b815481529060010190602001808311612e7557829003601f168201915b505050505061395a565b604051602001612eb3989796959493929190614835565b60405160208183030381529060405290506136d3565b612fc56040518060400160405280600481526020017f426f64790000000000000000000000000000000000000000000000000000000081525060096000600860ff1681526020019081526020016000206000856020015160ff1660ff1681526020019081526020016000206000018054612f4290614e5d565b80601f0160208091040260200160405190810160405280929190818152602001828054612f6e90614e5d565b8015612fbb5780601f10612f9057610100808354040283529160200191612fbb565b820191906000526020600020905b815481529060010190602001808311612f9e57829003601f168201915b505050505061395a565b6130c16040518060400160405280600481526020017f486561640000000000000000000000000000000000000000000000000000000081525060096000600960ff1681526020019081526020016000206000866040015160ff1660ff168152602001908152602001600020600001805461303e90614e5d565b80601f016020809104026020016040519081016040528092919081815260200182805461306a90614e5d565b80156130b75780601f1061308c576101008083540402835291602001916130b7565b820191906000526020600020905b81548152906001019060200180831161309a57829003601f168201915b505050505061395a565b6131bd6040518060400160405280600581526020017f5370656c6c00000000000000000000000000000000000000000000000000000081525060096000600a60ff1681526020019081526020016000206000876060015160ff1660ff168152602001908152602001600020600001805461313a90614e5d565b80601f016020809104026020016040519081016040528092919081815260200182805461316690614e5d565b80156131b35780601f10613188576101008083540402835291602001916131b3565b820191906000526020600020905b81548152906001019060200180831161319657829003601f168201915b505050505061395a565b6132b96040518060400160405280600481526020017f457965730000000000000000000000000000000000000000000000000000000081525060096000600b60ff1681526020019081526020016000206000886080015160ff1660ff168152602001908152602001600020600001805461323690614e5d565b80601f016020809104026020016040519081016040528092919081815260200182805461326290614e5d565b80156132af5780601f10613284576101008083540402835291602001916132af565b820191906000526020600020905b81548152906001019060200180831161329257829003601f168201915b505050505061395a565b6133b56040518060400160405280600481526020017f4e65636b0000000000000000000000000000000000000000000000000000000081525060096000600c60ff16815260200190815260200160002060008960a0015160ff1660ff168152602001908152602001600020600001805461333290614e5d565b80601f016020809104026020016040519081016040528092919081815260200182805461335e90614e5d565b80156133ab5780601f10613380576101008083540402835291602001916133ab565b820191906000526020600020905b81548152906001019060200180831161338e57829003601f168201915b505050505061395a565b6134b16040518060400160405280600581526020017f4d6f75746800000000000000000000000000000000000000000000000000000081525060096000600d60ff16815260200190815260200160002060008a60c0015160ff1660ff168152602001908152602001600020600001805461342e90614e5d565b80601f016020809104026020016040519081016040528092919081815260200182805461345a90614e5d565b80156134a75780601f1061347c576101008083540402835291602001916134a7565b820191906000526020600020905b81548152906001019060200180831161348a57829003601f168201915b505050505061395a565b6135ad6040518060400160405280600481526020017f57616e740000000000000000000000000000000000000000000000000000000081525060096000600e60ff16815260200190815260200160002060008b60e0015160ff1660ff168152602001908152602001600020600001805461352a90614e5d565b80601f016020809104026020016040519081016040528092919081815260200182805461355690614e5d565b80156135a35780601f10613578576101008083540402835291602001916135a3565b820191906000526020600020905b81548152906001019060200180831161358657829003601f168201915b505050505061395a565b6136aa6040518060400160405280600481526020017f5461696c0000000000000000000000000000000000000000000000000000000081525060096000600f60ff16815260200190815260200160002060008c610100015160ff1660ff168152602001908152602001600020600001805461362790614e5d565b80601f016020809104026020016040519081016040528092919081815260200182805461365390614e5d565b80156136a05780601f10613675576101008083540402835291602001916136a0565b820191906000526020600020905b81548152906001019060200180831161368357829003601f168201915b505050505061395a565b6040516020016136c1989796959493929190614835565b60405160208183030381529060405290505b600082600001516136e55760016136e8565b60005b90506000600860009054906101000a900473ffffffffffffffffffffffffffffffffffffffff1673ffffffffffffffffffffffffffffffffffffffff166354c96c836040518163ffffffff1660e01b815260040160206040518083038186803b15801561375457600080fd5b505afa158015613768573d6000803e3d6000fd5b505050506040513d601f19601f8201168201806040525081019061378c9190613cbc565b8561ffff161161379f57600090506137a4565b600190505b8281801561384e5750600860009054906101000a900473ffffffffffffffffffffffffffffffffffffffff1673ffffffffffffffffffffffffffffffffffffffff1663d94f02d56040518163ffffffff1660e01b815260040160206040518083038186803b15801561381557600080fd5b505afa158015613829573d6000803e3d6000fd5b505050506040513d601f19601f8201168201806040525081019061384d9190613c40565b5b61388d576040518060400160405280600781526020017f2247454e203122000000000000000000000000000000000000000000000000008152506138c4565b6040518060400160405280600781526020017f2247454e203022000000000000000000000000000000000000000000000000008152505b60018460ff1660038110613901577f4e487b7100000000000000000000000000000000000000000000000000000000600052603260045260246000fd5b016040516020016139149392919061499e565b6040516020818303038152906040529250505092915050565b6060816020015160405160200161394491906148ff565b6040516020818303038152906040529050919050565b6060828260405160200161396f92919061492c565b604051602081830303815290604052905092915050565b82805461399290614e5d565b90600052602060002090601f0160209004810192826139b457600085556139fb565b82601f106139cd57805160ff19168380011785556139fb565b828001600101855582156139fb579182015b828111156139fa5782518255916020019190600101906139df565b5b509050613a089190613a0c565b5090565b5b80821115613a25576000816000905550600101613a0d565b5090565b600081359050613a3881615000565b92915050565b60008083601f840112613a5057600080fd5b8235905067ffffffffffffffff811115613a6957600080fd5b602083019150836020820283011115613a8157600080fd5b9250929050565b60008083601f840112613a9a57600080fd5b8235905067ffffffffffffffff811115613ab357600080fd5b602083019150836020820283011115613acb57600080fd5b9250929050565b600081519050613ae181615017565b92915050565b60006101208284031215613afa57600080fd5b613b05610120614c45565b90506000613b1584828501613ad2565b6000830152506020613b2984828501613c02565b6020830152506040613b3d84828501613c02565b6040830152506060613b5184828501613c02565b6060830152506080613b6584828501613c02565b60808301525060a0613b7984828501613c02565b60a08301525060c0613b8d84828501613c02565b60c08301525060e0613ba184828501613c02565b60e083015250610100613bb684828501613c02565b6101008301525092915050565b600081359050613bd28161502e565b92915050565b600081519050613be781615045565b92915050565b600081359050613bfc8161505c565b92915050565b600081519050613c118161505c565b92915050565b600060208284031215613c2957600080fd5b6000613c3784828501613a29565b91505092915050565b600060208284031215613c5257600080fd5b6000613c6084828501613ad2565b91505092915050565b60006101208284031215613c7c57600080fd5b6000613c8a84828501613ae7565b91505092915050565b600060208284031215613ca557600080fd5b6000613cb384828501613bc3565b91505092915050565b600060208284031215613cce57600080fd5b6000613cdc84828501613bd8565b91505092915050565b600060208284031215613cf757600080fd5b6000613d0584828501613bed565b91505092915050565b600080600080600060608688031215613d2657600080fd5b6000613d3488828901613bed565b955050602086013567ffffffffffffffff811115613d5157600080fd5b613d5d88828901613a88565b9450945050604086013567ffffffffffffffff811115613d7c57600080fd5b613d8888828901613a3e565b92509250509295509295909350565b60008060408385031215613daa57600080fd5b6000613db885828601613bed565b9250506020613dc985828601613bed565b9150509250929050565b613ddc81614dc7565b82525050565b6000613ded82614c8b565b613df78185614c96565b9350613e07818560208601614e2a565b613e1081614fef565b840191505092915050565b6000613e2682614c8b565b613e308185614ca7565b9350613e40818560208601614e2a565b80840191505092915050565b60008154613e5981614e5d565b613e638186614c96565b94506001821660008114613e7e5760018114613e9057613ec3565b60ff1983168652602086019350613ec3565b613e9985614c76565b60005b83811015613ebb57815481890152600182019150602081019050613e9c565b808801955050505b50505092915050565b60008154613ed981614e5d565b613ee38186614ca7565b94506001821660008114613efe5760018114613f0f57613f42565b60ff19831686528186019350613f42565b613f1885614c76565b60005b83811015613f3a57815481890152600182019150602081019050613f1b565b838801955050505b50505092915050565b6000613f58602083614ca7565b91507f7d2c7b2274726169745f74797065223a2254797065222c2276616c7565223a226000830152602082019050919050565b6000613f98608783614ca7565b91507f3c696d61676520783d22342220793d2234222077696474683d2233322220686560008301527f696768743d2233322220696d6167652d72656e646572696e673d22706978656c60208301527f6174656422207072657365727665417370656374526174696f3d22784d69645960408301527f4d69642220786c696e6b3a687265663d22646174613a696d6167652f706e673b60608301527f6261736536342c000000000000000000000000000000000000000000000000006080830152608782019050919050565b6000614070600283614ca7565b91507f20230000000000000000000000000000000000000000000000000000000000006000830152600282019050919050565b60006140b0602683614c96565b91507f4f776e61626c653a206e6577206f776e657220697320746865207a65726f206160008301527f64647265737300000000000000000000000000000000000000000000000000006020830152604082019050919050565b6000614116600183614ca7565b91507f2c000000000000000000000000000000000000000000000000000000000000006000830152600182019050919050565b6000614156600f83614ca7565b91507f7b2274726169745f74797065223a2200000000000000000000000000000000006000830152600f82019050919050565b6000614196600383614ca7565b91507f227d5d00000000000000000000000000000000000000000000000000000000006000830152600382019050919050565b60006141d6609083614ca7565b91507f3c7376672077696474683d223130302522206865696768743d2231303025222060008301527f76657273696f6e3d22312e31222076696577426f783d2230203020343020343060208301527f2220786d6c6e733d22687474703a2f2f7777772e77332e6f72672f323030302f60408301527f7376672220786d6c6e733a786c696e6b3d22687474703a2f2f7777772e77332e60608301527f6f72672f313939392f786c696e6b223e000000000000000000000000000000006080830152609082019050919050565b60006142ae601183614c96565b91507f4d69736d61746368656420696e707574730000000000000000000000000000006000830152602082019050919050565b60006142ee600283614ca7565b91507f227d0000000000000000000000000000000000000000000000000000000000006000830152600282019050919050565b600061432e601083614ca7565b91507f222c202261747472696275746573223a000000000000000000000000000000006000830152601082019050919050565b600061436e600183614ca7565b91507f7d000000000000000000000000000000000000000000000000000000000000006000830152600182019050919050565b60006143ae607483614ca7565b91507f73206f6e6c79206f6e6520736d616c6c2070726f626c656d202d2d207468652060008301527f6661726d206861732067726f776e20746f6f2062696720616e642061206e657760208301527f20746872656174206f66206e61747572652068617320656e746572656420746860408301527f652067616d652e222c2022696d616765223a20220000000000000000000000006060830152607482019050919050565b6000614460602083614c96565b91507f4f776e61626c653a2063616c6c6572206973206e6f7420746865206f776e65726000830152602082019050919050565b60006144a0600183614ca7565b91507f5b000000000000000000000000000000000000000000000000000000000000006000830152600182019050919050565b60006144e0600183614ca7565b91507f27000000000000000000000000000000000000000000000000000000000000006000830152600182019050919050565b6000614520600a83614ca7565b91507f7b226e616d65223a2022000000000000000000000000000000000000000000006000830152600a82019050919050565b6000614560600b83614ca7565b91507f222c2276616c7565223a220000000000000000000000000000000000000000006000830152600b82019050919050565b60006145a0600383614ca7565b91507f222f3e00000000000000000000000000000000000000000000000000000000006000830152600382019050919050565b60006145e060cd83614ca7565b91507f222c20226465736372697074696f6e223a2022546865206d657461766572736560008301527f206d61696e6c616e642069732066756c6c206f66206372656174757265732e2060208301527f41726f756e6420746865204661726d2c20616e206162756e64616e6365206f6660408301527f20526162626974732073637572727920746f206861727665737420434152524f60608301527f542e20416c6f6e6773696465204661726d6572732c207468657920657870616e60808301527f6420746865206661726d20616e64206d756c7469706c7920746865697220656160a08301527f726e696e67732e2054686572650000000000000000000000000000000000000060c083015260cd82019050919050565b6000614704602383614ca7565b91507f7b2274726169745f74797065223a2247656e65726174696f6e222c2276616c7560008301527f65223a00000000000000000000000000000000000000000000000000000000006020830152602382019050919050565b600061476a600683614ca7565b91507f3c2f7376673e00000000000000000000000000000000000000000000000000006000830152600682019050919050565b6147a681614de5565b82525050565b60006147b88284613e1b565b915081905092915050565b60006147cf828b613e1b565b91506147db828a613e1b565b91506147e78289613e1b565b91506147f38288613e1b565b91506147ff8287613e1b565b915061480b8286613e1b565b91506148178285613e1b565b91506148238284613e1b565b91508190509998505050505050505050565b6000614841828b613e1b565b915061484c82614109565b9150614858828a613e1b565b915061486382614109565b915061486f8289613e1b565b915061487a82614109565b91506148868288613e1b565b915061489182614109565b915061489d8287613e1b565b91506148a882614109565b91506148b48286613e1b565b91506148bf82614109565b91506148cb8285613e1b565b91506148d682614109565b91506148e28284613e1b565b91506148ed82614109565b91508190509998505050505050505050565b600061490a82613f8b565b91506149168284613e1b565b915061492182614593565b915081905092915050565b600061493782614149565b91506149438285613e1b565b915061494e82614553565b915061495a8284613e1b565b9150614965826142e1565b91508190509392505050565b600061497c826141c9565b91506149888284613e1b565b91506149938261475d565b915081905092915050565b60006149a982614493565b91506149b58286613e1b565b91506149c0826146f7565b91506149cc8285613e1b565b91506149d782613f4b565b91506149e38284613ecc565b91506149ee82614189565b9150819050949350505050565b6000614a0682614513565b9150614a128287613ecc565b9150614a1d82614063565b9150614a298286613e1b565b9150614a34826145d3565b9150614a3f826144d3565b9150614a4a826143a1565b9150614a568285613e1b565b9150614a6182614321565b9150614a6d8284613e1b565b9150614a7882614361565b915081905095945050505050565b6000602082019050614a9b6000830184613dd3565b92915050565b60006020820190508181036000830152614abb8184613de2565b905092915050565b60006040820190508181036000830152614add8185613de2565b90508181036020830152614af18184613de2565b90509392505050565b60006020820190508181036000830152614b148184613e4c565b905092915050565b60006020820190508181036000830152614b35816140a3565b9050919050565b60006020820190508181036000830152614b55816142a1565b9050919050565b60006020820190508181036000830152614b7581614453565b9050919050565b6000602082019050614b91600083018461479d565b92915050565b60008083356001602003843603038112614bb057600080fd5b80840192508235915067ffffffffffffffff821115614bce57600080fd5b602083019250602082023603831315614be657600080fd5b509250929050565b60008083356001602003843603038112614c0757600080fd5b80840192508235915067ffffffffffffffff821115614c2557600080fd5b602083019250600182023603831315614c3d57600080fd5b509250929050565b6000604051905081810181811067ffffffffffffffff82111715614c6c57614c6b614fc0565b5b8060405250919050565b60008190508160005260206000209050919050565b600081519050919050565b600082825260208201905092915050565b600081905092915050565b6000614cbd82614e13565b9150614cc883614e13565b9250827fffffffffffffffffffffffffffffffffffffffffffffffffffffffffffffffff03821115614cfd57614cfc614f33565b5b828201905092915050565b6000614d1382614e13565b9150614d1e83614e13565b925082614d2e57614d2d614f62565b5b828204905092915050565b6000614d4482614e13565b9150614d4f83614e13565b9250817fffffffffffffffffffffffffffffffffffffffffffffffffffffffffffffffff0483118215151615614d8857614d87614f33565b5b828202905092915050565b6000614d9e82614e13565b9150614da983614e13565b925082821015614dbc57614dbb614f33565b5b828203905092915050565b6000614dd282614df3565b9050919050565b60008115159050919050565b600061ffff82169050919050565b600073ffffffffffffffffffffffffffffffffffffffff82169050919050565b6000819050919050565b600060ff82169050919050565b60005b83811015614e48578082015181840152602081019050614e2d565b83811115614e57576000848401525b50505050565b60006002820490506001821680614e7557607f821691505b60208210811415614e8957614e88614f91565b5b50919050565b6000614e9a82614e13565b91507fffffffffffffffffffffffffffffffffffffffffffffffffffffffffffffffff821415614ecd57614ecc614f33565b5b600182019050919050565b6000614ee382614e1d565b915060ff821415614ef757614ef6614f33565b5b600182019050919050565b6000614f0d82614e13565b9150614f1883614e13565b925082614f2857614f27614f62565b5b828206905092915050565b7f4e487b7100000000000000000000000000000000000000000000000000000000600052601160045260246000fd5b7f4e487b7100000000000000000000000000000000000000000000000000000000600052601260045260246000fd5b7f4e487b7100000000000000000000000000000000000000000000000000000000600052602260045260246000fd5b7f4e487b7100000000000000000000000000000000000000000000000000000000600052604160045260246000fd5b6000601f19601f8301169050919050565b61500981614dc7565b811461501457600080fd5b50565b61502081614dd9565b811461502b57600080fd5b50565b61503781614de5565b811461504257600080fd5b50565b61504e81614e13565b811461505957600080fd5b50565b61506581614e1d565b811461507057600080fd5b5056fe4142434445464748494a4b4c4d4e4f505152535455565758595a6162636465666768696a6b6c6d6e6f707172737475767778797a303132333435363738392b2fa2646970667358221220c973edb451760be291953c64bc2f65d525cda6c9a784cdb09f7df77ba2e0012364736f6c63430008000033",
  "immutableReferences": {},
  "source": "// SPDX-License-Identifier: MIT\r\n\r\npragma solidity ^0.8.0;\r\n\r\nimport \"@openzeppelin/contracts/access/Ownable.sol\";\r\nimport \"@openzeppelin/contracts/utils/Strings.sol\";\r\n\r\nimport \"./interfaces/IWormGameTraits.sol\";\r\nimport \"./interfaces/IWormGameNFT.sol\";\r\n\r\ncontract WormGameTraits is IWormGameTraits, Ownable {\r\n  using Strings for uint256; // add [uint256].toString()\r\n\r\n  event traitString(string traitString);\r\n\r\n  // Struct to store each trait's data for metadata and rendering\r\n  struct Trait { string name; string png; }\r\n\r\n  // Mapping of traits to metadata display names\r\n  string[3] private _players = [ \"Worm\", \"Bird\" ];\r\n  string[4] private _sizes = [ \"5\", \"6\", \"7\", \"8\"  ];\r\n\r\n  // WormGames NFT address reference\r\n  IWormGameNFT private wormNFT;\r\n\r\n  // Storage of each traits name and base64 PNG data [TRAIT][TRAIT VALUE]\r\n  mapping(uint8 => mapping(uint8 => Trait)) public traitData;\r\n\r\n  constructor() {}\r\n\r\n  /**\r\n   * Update the NFT contract address outside constructor as it would\r\n   * create a cyclic dependency.\r\n   */\r\n   \r\n  function setNFTContracts(address _wormNFTGen) external onlyOwner {\r\n    wormNFT = IWormGameNFT(_wormNFTGen);\r\n  }\r\n\r\n  /**\r\n   * Upload trait art to blockchain!\r\n   * @param traitTypeId trait name id (0 corresponds to \"fur\")\r\n   * @param traitValueIds trait value id (3 corresponds to \"black\")\r\n   * @param traits array of trait [name, png] (e.g,. [bandana, {bytes}])\r\n   */\r\n  function uploadTraits(uint8 traitTypeId, uint8[] calldata traitValueIds, string[][] calldata traits) external onlyOwner {\r\n    require(traitValueIds.length == traits.length, \"Mismatched inputs\");\r\n    for (uint8 i = 0; i < traits.length; i++) {\r\n      traitData[traitTypeId][traitValueIds[i]] = Trait(\r\n        traits[i][0],\r\n        traits[i][1]\r\n      );\r\n    }\r\n  }\r\n  function getTraitBase64(uint8 traitTypeId, uint8 traitValueId) external returns(string memory) {\r\n      emit traitString(traitData[traitTypeId][traitValueId].png);\r\n      return traitData[traitTypeId][traitValueId].png;\r\n  }\r\n  /**\r\n   * generates an <image> element using base64 encoded PNGs\r\n   * @param trait the trait storing the PNG data\r\n   * @return the <image> element\r\n   */\r\n  function _drawTrait(Trait memory trait) internal pure returns (string memory) {\r\n    return string(abi.encodePacked(\r\n      '<image x=\"4\" y=\"4\" width=\"32\" height=\"32\" image-rendering=\"pixelated\" preserveAspectRatio=\"xMidYMid\" xlink:href=\"data:image/png;base64,',\r\n      trait.png,\r\n      '\"/>'\r\n    ));\r\n  }\r\n\r\n  /**\r\n   * Generates an entire SVG by composing multiple <image> elements of PNGs\r\n   * @param t token trait struct\r\n   * @return layered SVG\r\n   */\r\n  function _drawSVG(IWormGameNFT.WormBirdTraits memory t) internal view returns (string memory) {\r\n    string memory svg;\r\n    if (t.isWorm) {\r\n      svg = string(abi.encodePacked(\r\n        //these traits are not final but just an idea of what it might look like - not sure if i should include size here or not\r\n        _drawTrait(traitData[0][t.body]), \r\n        _drawTrait(traitData[1][t.eyes]), \r\n        _drawTrait(traitData[2][t.mouth]), \r\n        _drawTrait(traitData[3][t.hat]), \r\n        _drawTrait(traitData[4][t.facialAccessory]), \r\n        _drawTrait(traitData[5][t.tail]), \r\n        _drawTrait(traitData[6][t.heldItem]),\r\n        _drawTrait(traitData[7][t.size])\r\n      ));\r\n    } else {\r\n      svg = string(abi.encodePacked(\r\n        _drawTrait(traitData[8][t.body]), \r\n        _drawTrait(traitData[9][t.eyes]), \r\n        _drawTrait(traitData[10][t.mouth]), \r\n        _drawTrait(traitData[11][t.hat]), \r\n        _drawTrait(traitData[12][t.facialAccessory]), \r\n        _drawTrait(traitData[13][t.tail]), \r\n        _drawTrait(traitData[14][t.heldItem]),  \r\n        _drawTrait(traitData[15][t.size])\r\n      ));\r\n    }\r\n\r\n    return string(abi.encodePacked(\r\n      '<svg width=\"100%\" height=\"100%\" version=\"1.1\" viewBox=\"0 0 40 40\" xmlns=\"http://www.w3.org/2000/svg\" xmlns:xlink=\"http://www.w3.org/1999/xlink\">',\r\n      svg,\r\n      \"</svg>\"\r\n    ));\r\n  }\r\n\r\n  /**\r\n   * Generates an attribute for the attributes array in the ERC721 metadata standard\r\n   * @param traitType the trait type to reference as the metadata key\r\n   * @param value the token's trait associated with the key\r\n   * @return a JSON dictionary for the single attribute\r\n   */\r\n  function _attributeForTypeAndValue(string memory traitType, string memory value) internal pure returns (string memory) {\r\n    return string(abi.encodePacked(\r\n      '{\"trait_type\":\"', traitType,\r\n      '\",\"value\":\"', value,\r\n      '\"}'\r\n    ));\r\n  }\r\n\r\n  /**\r\n   * Generates an array composed of all the individual traits and values\r\n   * @param tokenId the ID of the token to compose the metadata for\r\n   * @return traits JSON array of all of the attributes for given token ID\r\n   */\r\n  function _compileAttributes(uint16 tokenId, IWormGameNFT.WormBirdTraits memory t) internal view returns (string memory traits) {\r\n    if (t.isWorm) {\r\n      traits = string(abi.encodePacked(\r\n        _attributeForTypeAndValue(\"Body\", traitData[0][t.body].name), \",\", \r\n        _attributeForTypeAndValue(\"Head\", traitData[1][t.eyes].name), \",\",\r\n        _attributeForTypeAndValue(\"Spell\", traitData[2][t.mouth].name), \",\",\r\n        _attributeForTypeAndValue(\"Eyes\", traitData[3][t.hat].name), \",\",\r\n        _attributeForTypeAndValue(\"Neck\", traitData[4][t.facialAccessory].name), \",\",\r\n        _attributeForTypeAndValue(\"Mouth\", traitData[5][t.tail].name), \",\",\r\n        _attributeForTypeAndValue(\"Wand\", traitData[6][t.heldItem].name), \",\",\r\n        _attributeForTypeAndValue(\"Rank Index\", traitData[7][t.size].name), \",\"\r\n      ));\r\n    } else {\r\n      traits = string(abi.encodePacked(\r\n        _attributeForTypeAndValue(\"Body\",   traitData[8][t.body].name), \",\", \r\n        _attributeForTypeAndValue(\"Head\",  traitData[9][t.eyes].name), \",\",\r\n        _attributeForTypeAndValue(\"Spell\", traitData[10][t.mouth].name), \",\",\r\n        _attributeForTypeAndValue(\"Eyes\",  traitData[11][t.hat].name), \",\",\r\n        _attributeForTypeAndValue(\"Neck\",  traitData[12][t.facialAccessory].name), \",\",\r\n        _attributeForTypeAndValue(\"Mouth\",  traitData[13][t.tail].name), \",\",\r\n        _attributeForTypeAndValue(\"Want\",  traitData[14][t.heldItem].name), \",\",\r\n        _attributeForTypeAndValue(\"Tail\",  traitData[15][t.size].name), \",\"\r\n      ));\r\n    }\r\n    uint8 wormValue = t.isWorm ? 0:1;\r\n\r\n    //Make this more efficient\r\n    bool reachedMaxGen0 = false;\r\n    if(tokenId <= wormNFT.getGen0Supply()) {\r\n      reachedMaxGen0 = false;\r\n    } else {\r\n      reachedMaxGen0 = true;\r\n    }\r\n    //'{\"trait_type\":\"Generation\",\"value\":', tokenId <= wormNFT.getGen0Supply() ? '\"GEN 0\"' : '\"GEN 1\"',\r\n    return string(abi.encodePacked(\r\n      '[',\r\n        traits,\r\n        '{\"trait_type\":\"Generation\",\"value\":', (reachedMaxGen0 && wormNFT.getGen0MintingStatus()) ? '\"GEN 0\"' : '\"GEN 1\"',\r\n        '},{\"trait_type\":\"Type\",\"value\":\"', _players[wormValue],\r\n      '\"}]'\r\n    ));\r\n  }\r\n\r\n  /**\r\n   * ERC721 token URI interface. Generates a base64 encoded metadata response\r\n   * without referencing off-chain content.\r\n   * @param tokenId the ID of the token to generate the metadata for\r\n   * @return a base64 encoded JSON dictionary of the token's metadata and SVG\r\n   */\r\n  function tokenURI(uint16 tokenId) external view override returns (string memory) {\r\n    IWormGameNFT.WormBirdTraits memory traits = wormNFT.getTraits(tokenId);\r\n    uint8 wormValue = traits.isWorm ? 0:1;\r\n    string memory metadata = string(abi.encodePacked(\r\n      '{\"name\": \"', _players[wormValue], \" #\", uint256(tokenId).toString(),\r\n      '\", \"description\": \"The metaverse mainland is full of creatures. Around the Farm, an abundance of Rabbits scurry to harvest CARROT. Alongside Farmers, they expand the farm and multiply their earnings. There',\r\n      \"'\", 's only one small problem -- the farm has grown too big and a new threat of nature has entered the game.\", \"image\": \"',\r\n      _base64(bytes(_drawSVG(traits))),\r\n      '\", \"attributes\":',\r\n      _compileAttributes(tokenId, traits),\r\n      \"}\"\r\n    ));\r\n\r\n    return string(abi.encodePacked(_base64(bytes(metadata))));\r\n  }\r\n\r\n  /* BASE 64 - Written by Brech Devos */\r\n  string internal constant TABLE = \"ABCDEFGHIJKLMNOPQRSTUVWXYZabcdefghijklmnopqrstuvwxyz0123456789+/\";\r\n\r\n  function _base64(bytes memory data) internal pure returns (string memory) {\r\n    if (data.length == 0) return \"\";\r\n    \r\n    // load the table into memory\r\n    string memory table = TABLE;\r\n\r\n    // multiply by 4/3 rounded up\r\n    uint256 encodedLen = 4 * ((data.length + 2) / 3);\r\n\r\n    // add some extra buffer at the end required for the writing\r\n    string memory result = new string(encodedLen + 32);\r\n\r\n    // solhint-disable-next-line no-inline-assembly\r\n    assembly {\r\n      // set the actual output length\r\n      mstore(result, encodedLen)\r\n      \r\n      // prepare the lookup table\r\n      let tablePtr := add(table, 1)\r\n      \r\n      // input ptr\r\n      let dataPtr := data\r\n      let endPtr := add(dataPtr, mload(data))\r\n      \r\n      // result ptr, jump over length\r\n      let resultPtr := add(result, 32)\r\n      \r\n      // run over the input, 3 bytes at a time\r\n      for {} lt(dataPtr, endPtr) {}\r\n      {\r\n          dataPtr := add(dataPtr, 3)\r\n          \r\n          // read 3 bytes\r\n          let input := mload(dataPtr)\r\n          \r\n          // write 4 characters\r\n          mstore(resultPtr, shl(248, mload(add(tablePtr, and(shr(18, input), 0x3F)))))\r\n          resultPtr := add(resultPtr, 1)\r\n          mstore(resultPtr, shl(248, mload(add(tablePtr, and(shr(12, input), 0x3F)))))\r\n          resultPtr := add(resultPtr, 1)\r\n          mstore(resultPtr, shl(248, mload(add(tablePtr, and(shr( 6, input), 0x3F)))))\r\n          resultPtr := add(resultPtr, 1)\r\n          mstore(resultPtr, shl(248, mload(add(tablePtr, and(        input,  0x3F)))))\r\n          resultPtr := add(resultPtr, 1)\r\n      }\r\n      \r\n      // padding with '='\r\n      switch mod(mload(data), 3)\r\n      case 1 { mstore(sub(resultPtr, 2), shl(240, 0x3d3d)) }\r\n      case 2 { mstore(sub(resultPtr, 1), shl(248, 0x3d)) }\r\n    }\r\n    \r\n    return result;\r\n  }\r\n}",
  "sourcePath": "C:\\Users\\Teddy Ingrassia\\Development\\worm-game\\src\\backend\\contracts\\WormGameTraits.sol",
  "compiler": {
    "name": "solc",
    "version": "0.8.0+commit.c7dfd78e.Emscripten.clang"
  },
  "schemaVersion": "3.4.4",
  "updatedAt": "2022-02-01T21:04:25.082Z",
  "devdoc": {
    "kind": "dev",
    "methods": {
      "owner()": {
        "details": "Returns the address of the current owner."
      },
      "renounceOwnership()": {
        "details": "Leaves the contract without owner. It will not be possible to call `onlyOwner` functions anymore. Can only be called by the current owner. NOTE: Renouncing ownership will leave the contract without an owner, thereby removing any functionality that is only available to the owner."
      },
      "tokenURI(uint16)": {
        "params": {
          "tokenId": "the ID of the token to generate the metadata for"
        },
        "returns": {
          "_0": "a base64 encoded JSON dictionary of the token's metadata and SVG"
        }
      },
      "transferOwnership(address)": {
        "details": "Transfers ownership of the contract to a new account (`newOwner`). Can only be called by the current owner."
      },
      "uploadTraits(uint8,uint8[],string[][])": {
        "params": {
          "traitTypeId": "trait name id (0 corresponds to \"fur\")",
          "traitValueIds": "trait value id (3 corresponds to \"black\")",
          "traits": "array of trait [name, png] (e.g,. [bandana, {bytes}])"
        }
      }
    },
    "version": 1
  },
  "userdoc": {
    "kind": "user",
    "methods": {
      "setNFTContracts(address)": {
        "notice": "Update the NFT contract address outside constructor as it would create a cyclic dependency."
      },
      "tokenURI(uint16)": {
        "notice": "ERC721 token URI interface. Generates a base64 encoded metadata response without referencing off-chain content."
      },
      "uploadTraits(uint8,uint8[],string[][])": {
        "notice": "Upload trait art to blockchain!"
      }
    },
    "version": 1
  }
}