{
  "contractName": "WormGame",
  "abi": [
    {
      "anonymous": false,
      "inputs": [
        {
          "indexed": false,
          "internalType": "uint16",
          "name": "wormTokenId",
          "type": "uint16"
        },
        {
          "indexed": false,
          "internalType": "uint256",
          "name": "amount",
          "type": "uint256"
        },
        {
          "indexed": false,
          "internalType": "address",
          "name": "victim",
          "type": "address"
        }
      ],
      "name": "DirtStolen",
      "type": "event"
    },
    {
      "anonymous": false,
      "inputs": [
        {
          "indexed": true,
          "internalType": "address",
          "name": "previousOwner",
          "type": "address"
        },
        {
          "indexed": true,
          "internalType": "address",
          "name": "newOwner",
          "type": "address"
        }
      ],
      "name": "OwnershipTransferred",
      "type": "event"
    },
    {
      "anonymous": false,
      "inputs": [
        {
          "indexed": false,
          "internalType": "address",
          "name": "account",
          "type": "address"
        }
      ],
      "name": "Paused",
      "type": "event"
    },
    {
      "anonymous": false,
      "inputs": [
        {
          "indexed": false,
          "internalType": "uint16",
          "name": "wormTokenId",
          "type": "uint16"
        },
        {
          "indexed": false,
          "internalType": "uint256",
          "name": "amount",
          "type": "uint256"
        },
        {
          "indexed": false,
          "internalType": "address",
          "name": "taxPayer",
          "type": "address"
        }
      ],
      "name": "PayTaxToBirds",
      "type": "event"
    },
    {
      "anonymous": false,
      "inputs": [
        {
          "indexed": false,
          "internalType": "string",
          "name": "kind",
          "type": "string"
        },
        {
          "indexed": false,
          "internalType": "uint16",
          "name": "tokenId",
          "type": "uint16"
        },
        {
          "indexed": false,
          "internalType": "address",
          "name": "owner",
          "type": "address"
        }
      ],
      "name": "TokenStaked",
      "type": "event"
    },
    {
      "anonymous": false,
      "inputs": [
        {
          "indexed": false,
          "internalType": "string",
          "name": "kind",
          "type": "string"
        },
        {
          "indexed": false,
          "internalType": "uint16",
          "name": "tokenId",
          "type": "uint16"
        },
        {
          "indexed": false,
          "internalType": "address",
          "name": "owner",
          "type": "address"
        },
        {
          "indexed": false,
          "internalType": "uint128",
          "name": "earnings",
          "type": "uint128"
        }
      ],
      "name": "TokenUnstaked",
      "type": "event"
    },
    {
      "anonymous": false,
      "inputs": [
        {
          "indexed": false,
          "internalType": "address",
          "name": "account",
          "type": "address"
        }
      ],
      "name": "Unpaused",
      "type": "event"
    },
    {
      "anonymous": false,
      "inputs": [
        {
          "indexed": false,
          "internalType": "uint16",
          "name": "wormTokenId",
          "type": "uint16"
        },
        {
          "indexed": false,
          "internalType": "address",
          "name": "thief",
          "type": "address"
        },
        {
          "indexed": false,
          "internalType": "address",
          "name": "victim",
          "type": "address"
        }
      ],
      "name": "WormStolen",
      "type": "event"
    },
    {
      "inputs": [],
      "name": "BIRD_EARNING_RATE",
      "outputs": [
        {
          "internalType": "uint128",
          "name": "",
          "type": "uint128"
        }
      ],
      "stateMutability": "view",
      "type": "function"
    },
    {
      "inputs": [],
      "name": "FEATHER_COST",
      "outputs": [
        {
          "internalType": "uint128",
          "name": "",
          "type": "uint128"
        }
      ],
      "stateMutability": "view",
      "type": "function"
    },
    {
      "inputs": [],
      "name": "MAXIMUM_BIRD_SIZE",
      "outputs": [
        {
          "internalType": "uint16",
          "name": "",
          "type": "uint16"
        }
      ],
      "stateMutability": "view",
      "type": "function"
    },
    {
      "inputs": [],
      "name": "MAXIMUM_DIRT",
      "outputs": [
        {
          "internalType": "uint128",
          "name": "",
          "type": "uint128"
        }
      ],
      "stateMutability": "view",
      "type": "function"
    },
    {
      "inputs": [],
      "name": "WORM_CLAIM_TAX_PERCENTAGE",
      "outputs": [
        {
          "internalType": "uint8",
          "name": "",
          "type": "uint8"
        }
      ],
      "stateMutability": "view",
      "type": "function"
    },
    {
      "inputs": [],
      "name": "WORM_EARNING_RATE",
      "outputs": [
        {
          "internalType": "uint128",
          "name": "",
          "type": "uint128"
        }
      ],
      "stateMutability": "view",
      "type": "function"
    },
    {
      "inputs": [],
      "name": "WORM_MINIMUM_STAKE_TIME",
      "outputs": [
        {
          "internalType": "uint48",
          "name": "",
          "type": "uint48"
        }
      ],
      "stateMutability": "view",
      "type": "function"
    },
    {
      "inputs": [],
      "name": "birdBath",
      "outputs": [
        {
          "internalType": "contract IBirdBath",
          "name": "",
          "type": "address"
        }
      ],
      "stateMutability": "view",
      "type": "function"
    },
    {
      "inputs": [
        {
          "internalType": "uint16",
          "name": "",
          "type": "uint16"
        }
      ],
      "name": "birdHierarchy",
      "outputs": [
        {
          "internalType": "uint16",
          "name": "",
          "type": "uint16"
        }
      ],
      "stateMutability": "view",
      "type": "function"
    },
    {
      "inputs": [
        {
          "internalType": "uint16",
          "name": "",
          "type": "uint16"
        },
        {
          "internalType": "uint256",
          "name": "",
          "type": "uint256"
        }
      ],
      "name": "birdStakeBySize",
      "outputs": [
        {
          "internalType": "uint16",
          "name": "tokenId",
          "type": "uint16"
        },
        {
          "internalType": "uint128",
          "name": "earningRate",
          "type": "uint128"
        },
        {
          "internalType": "address",
          "name": "owner",
          "type": "address"
        }
      ],
      "stateMutability": "view",
      "type": "function"
    },
    {
      "inputs": [],
      "name": "dirtPerSizePoint",
      "outputs": [
        {
          "internalType": "uint128",
          "name": "",
          "type": "uint128"
        }
      ],
      "stateMutability": "view",
      "type": "function"
    },
    {
      "inputs": [],
      "name": "dirtToken",
      "outputs": [
        {
          "internalType": "contract IDIRT",
          "name": "",
          "type": "address"
        }
      ],
      "stateMutability": "view",
      "type": "function"
    },
    {
      "inputs": [],
      "name": "featherTypeID",
      "outputs": [
        {
          "internalType": "uint256",
          "name": "",
          "type": "uint256"
        }
      ],
      "stateMutability": "view",
      "type": "function"
    },
    {
      "inputs": [],
      "name": "gen0Price",
      "outputs": [
        {
          "internalType": "uint256",
          "name": "",
          "type": "uint256"
        }
      ],
      "stateMutability": "view",
      "type": "function"
    },
    {
      "inputs": [],
      "name": "hasPublicSaleStarted",
      "outputs": [
        {
          "internalType": "bool",
          "name": "",
          "type": "bool"
        }
      ],
      "stateMutability": "view",
      "type": "function"
    },
    {
      "inputs": [],
      "name": "lastClaimTimestamp",
      "outputs": [
        {
          "internalType": "uint48",
          "name": "",
          "type": "uint48"
        }
      ],
      "stateMutability": "view",
      "type": "function"
    },
    {
      "inputs": [],
      "name": "owner",
      "outputs": [
        {
          "internalType": "address",
          "name": "",
          "type": "address"
        }
      ],
      "stateMutability": "view",
      "type": "function"
    },
    {
      "inputs": [],
      "name": "paused",
      "outputs": [
        {
          "internalType": "bool",
          "name": "",
          "type": "bool"
        }
      ],
      "stateMutability": "view",
      "type": "function"
    },
    {
      "inputs": [],
      "name": "randomNumberConsumer",
      "outputs": [
        {
          "internalType": "contract IRandomNumberConsumer",
          "name": "",
          "type": "address"
        }
      ],
      "stateMutability": "view",
      "type": "function"
    },
    {
      "inputs": [],
      "name": "renounceOwnership",
      "outputs": [],
      "stateMutability": "nonpayable",
      "type": "function"
    },
    {
      "inputs": [],
      "name": "totalBirdsStaked",
      "outputs": [
        {
          "internalType": "uint32",
          "name": "",
          "type": "uint32"
        }
      ],
      "stateMutability": "view",
      "type": "function"
    },
    {
      "inputs": [],
      "name": "totalDirtEarned",
      "outputs": [
        {
          "internalType": "uint128",
          "name": "",
          "type": "uint128"
        }
      ],
      "stateMutability": "view",
      "type": "function"
    },
    {
      "inputs": [],
      "name": "totalSizeOfBirdsStaked",
      "outputs": [
        {
          "internalType": "uint16",
          "name": "",
          "type": "uint16"
        }
      ],
      "stateMutability": "view",
      "type": "function"
    },
    {
      "inputs": [],
      "name": "totalWormsStaked",
      "outputs": [
        {
          "internalType": "uint32",
          "name": "",
          "type": "uint32"
        }
      ],
      "stateMutability": "view",
      "type": "function"
    },
    {
      "inputs": [
        {
          "internalType": "address",
          "name": "newOwner",
          "type": "address"
        }
      ],
      "name": "transferOwnership",
      "outputs": [],
      "stateMutability": "nonpayable",
      "type": "function"
    },
    {
      "inputs": [],
      "name": "unaccountedBirdRewards",
      "outputs": [
        {
          "internalType": "uint128",
          "name": "",
          "type": "uint128"
        }
      ],
      "stateMutability": "view",
      "type": "function"
    },
    {
      "inputs": [],
      "name": "wormGameNFT",
      "outputs": [
        {
          "internalType": "contract IWormGameNFT",
          "name": "",
          "type": "address"
        }
      ],
      "stateMutability": "view",
      "type": "function"
    },
    {
      "inputs": [
        {
          "internalType": "uint16",
          "name": "",
          "type": "uint16"
        }
      ],
      "name": "wormStakeByToken",
      "outputs": [
        {
          "internalType": "uint16",
          "name": "tokenId",
          "type": "uint16"
        },
        {
          "internalType": "uint48",
          "name": "time",
          "type": "uint48"
        },
        {
          "internalType": "address",
          "name": "owner",
          "type": "address"
        }
      ],
      "stateMutability": "view",
      "type": "function"
    },
    {
      "inputs": [
        {
          "internalType": "address",
          "name": "_dirtToken",
          "type": "address"
        },
        {
          "internalType": "address",
          "name": "_wormGameNFT",
          "type": "address"
        },
        {
          "internalType": "address",
          "name": "_randomNumberConsumer",
          "type": "address"
        },
        {
          "internalType": "address",
          "name": "_birdBath",
          "type": "address"
        }
      ],
      "name": "setContracts",
      "outputs": [],
      "stateMutability": "nonpayable",
      "type": "function"
    },
    {
      "inputs": [
        {
          "internalType": "uint256",
          "name": "typeId",
          "type": "uint256"
        }
      ],
      "name": "setFeatherId",
      "outputs": [],
      "stateMutability": "nonpayable",
      "type": "function"
    },
    {
      "inputs": [
        {
          "internalType": "address",
          "name": "recipient",
          "type": "address"
        },
        {
          "internalType": "bool",
          "name": "membership",
          "type": "bool"
        },
        {
          "internalType": "uint48",
          "name": "expiration",
          "type": "uint48"
        },
        {
          "internalType": "uint256",
          "name": "seed",
          "type": "uint256"
        }
      ],
      "name": "getSigningHash",
      "outputs": [
        {
          "internalType": "bytes32",
          "name": "",
          "type": "bytes32"
        }
      ],
      "stateMutability": "pure",
      "type": "function"
    },
    {
      "inputs": [
        {
          "internalType": "address",
          "name": "recipient",
          "type": "address"
        },
        {
          "internalType": "bool",
          "name": "membership",
          "type": "bool"
        },
        {
          "internalType": "uint48",
          "name": "expiration",
          "type": "uint48"
        },
        {
          "internalType": "uint256",
          "name": "seed",
          "type": "uint256"
        },
        {
          "internalType": "bytes",
          "name": "sig",
          "type": "bytes"
        }
      ],
      "name": "isValidSignature",
      "outputs": [
        {
          "internalType": "bool",
          "name": "",
          "type": "bool"
        }
      ],
      "stateMutability": "view",
      "type": "function"
    },
    {
      "inputs": [
        {
          "internalType": "address",
          "name": "account",
          "type": "address"
        },
        {
          "internalType": "uint16[]",
          "name": "tokenIds",
          "type": "uint16[]"
        }
      ],
      "name": "stakeTokens",
      "outputs": [],
      "stateMutability": "nonpayable",
      "type": "function"
    },
    {
      "inputs": [
        {
          "internalType": "uint16[]",
          "name": "tokenIds",
          "type": "uint16[]"
        },
        {
          "internalType": "bool",
          "name": "unstake",
          "type": "bool"
        },
        {
          "internalType": "uint256",
          "name": "seed",
          "type": "uint256"
        }
      ],
      "name": "claimRewardsAndUnstake",
      "outputs": [],
      "stateMutability": "nonpayable",
      "type": "function"
    },
    {
      "inputs": [
        {
          "internalType": "uint256",
          "name": "seed",
          "type": "uint256"
        }
      ],
      "name": "randomBirdOwner",
      "outputs": [
        {
          "internalType": "address",
          "name": "",
          "type": "address"
        }
      ],
      "stateMutability": "view",
      "type": "function"
    },
    {
      "inputs": [],
      "name": "getTotalDirtEarned",
      "outputs": [
        {
          "internalType": "uint256",
          "name": "",
          "type": "uint256"
        }
      ],
      "stateMutability": "view",
      "type": "function"
    },
    {
      "inputs": [
        {
          "internalType": "bool",
          "name": "_paused",
          "type": "bool"
        }
      ],
      "name": "setPaused",
      "outputs": [],
      "stateMutability": "nonpayable",
      "type": "function"
    },
    {
      "inputs": [
        {
          "internalType": "address",
          "name": "",
          "type": "address"
        },
        {
          "internalType": "address",
          "name": "from",
          "type": "address"
        },
        {
          "internalType": "uint256",
          "name": "",
          "type": "uint256"
        },
        {
          "internalType": "bytes",
          "name": "",
          "type": "bytes"
        }
      ],
      "name": "onERC721Received",
      "outputs": [
        {
          "internalType": "bytes4",
          "name": "",
          "type": "bytes4"
        }
      ],
      "stateMutability": "pure",
      "type": "function"
    }
  ],
  "bytecode": "0x608060405266b1a2bc2ec50000600355620119406004553480156200002357600080fd5b5062000044620000386200006c60201b60201c565b6200007460201b60201c565b600180819055506000600260006101000a81548160ff02191690831515021790555062000138565b600033905090565b60008060009054906101000a900473ffffffffffffffffffffffffffffffffffffffff169050816000806101000a81548173ffffffffffffffffffffffffffffffffffffffff021916908373ffffffffffffffffffffffffffffffffffffffff1602179055508173ffffffffffffffffffffffffffffffffffffffff168173ffffffffffffffffffffffffffffffffffffffff167f8be0079c531659141344cd1fd0a4f28419497f9722a3daafe3b4186f6b6457e060405160405180910390a35050565b615bc880620001486000396000f3fe608060405234801561001057600080fd5b50600436106102325760003560e01c80638da5cb5b11610130578063bf989b6e116100b8578063ddb58c771161007c578063ddb58c7714610653578063eab1633f14610671578063f2fde38b146106a1578063fcd49f21146106bd578063fdd4b0f0146106ef57610232565b8063bf989b6e146105c1578063c6017afe146105dd578063cae31879146105f9578063cfc3a89414610617578063d8e0649c1461063557610232565b80639ba87925116100ff5780639ba8792514610517578063ac48648514610535578063acd0fdd114610553578063b37fd26c14610571578063b837c9d41461058f57610232565b80638da5cb5b146104a35780638fbf1e1b146104c157806392617191146104df57806392849377146104fb57610232565b80633cd1287a116101be578063607af39711610182578063607af3971461040f57806370587a1a1461042d578063715018a61461044b5780637669d48b146104555780637d9b6a151461048557610232565b80633cd1287a146103795780633e4ed547146103975780634454d793146103b557806346df22da146103d35780635c975abb146103f157610232565b806316c38b3c1161020557806316c38b3c146102c157806317e0fe3d146102dd5780632a18ab6b1461030d5780632cc9dfd11461032b5780632e0a1ce41461035b57610232565b806309086266146102375780630b490053146102555780630e1d30cc14610273578063150b7a0214610291575b600080fd5b61023f61070d565b60405161024c9190614ec3565b60405180910390f35b61025d610733565b60405161026a919061527b565b60405180910390f35b61027b610738565b604051610288919061538c565b60405180910390f35b6102ab60048036038101906102a69190614191565b61074e565b6040516102b89190614ea8565b60405180910390f35b6102db60048036038101906102d691906143c7565b6107d1565b005b6102f760048036038101906102f29190614269565b610a0f565b6040516103049190614e48565b60405180910390f35b610315610a48565b6040516103229190614f14565b60405180910390f35b61034560048036038101906103409190614443565b610a6e565b6040516103529190615296565b60405180910390f35b610363610a8f565b6040516103709190615296565b60405180910390f35b610381610a94565b60405161038e919061527b565b60405180910390f35b61039f610aa0565b6040516103ac919061527b565b60405180910390f35b6103bd610ac2565b6040516103ca9190614ede565b60405180910390f35b6103db610ae8565b6040516103e89190614ef9565b60405180910390f35b6103f9610b0e565b6040516104069190614e2d565b60405180910390f35b610417610b25565b60405161042491906153a7565b60405180910390f35b610435610b3d565b6040516104429190615296565b60405180910390f35b610453610b51565b005b61046f600480360381019061046a91906144a8565b610bd9565b60405161047c9190614d68565b60405180910390f35b61048d610d60565b60405161049a9190615371565b60405180910390f35b6104ab610d66565b6040516104b89190614d68565b60405180910390f35b6104c9610d8f565b6040516104d6919061527b565b60405180910390f35b6104f960048036038101906104f4919061435b565b610d9f565b005b61051560048036038101906105109190614211565b6112be565b005b61051f611a33565b60405161052c9190615371565b60405180910390f35b61053d611a6b565b60405161054a919061527b565b60405180910390f35b61055b611a8d565b604051610568919061527b565b60405180910390f35b610579611a9b565b604051610586919061538c565b60405180910390f35b6105a960048036038101906105a4919061446c565b611ab1565b6040516105b8939291906152cc565b60405180910390f35b6105db60048036038101906105d6919061412e565b611b42565b005b6105f760048036038101906105f291906144a8565b611cc8565b005b610601611d4e565b60405161060e919061527b565b60405180910390f35b61061f611d70565b60405161062c9190615371565b60405180910390f35b61063d611d76565b60405161064a91906153c2565b60405180910390f35b61065b611d7b565b60405161066891906153a7565b60405180910390f35b61068b600480360381019061068691906142cc565b611d82565b6040516106989190614e2d565b60405180910390f35b6106bb60048036038101906106b691906140dc565b611e01565b005b6106d760048036038101906106d29190614443565b611ef9565b6040516106e69392919061533a565b60405180910390f35b6106f7611f63565b6040516107049190614e2d565b60405180910390f35b600a60009054906101000a900473ffffffffffffffffffffffffffffffffffffffff1681565b600081565b600760049054906101000a900463ffffffff1681565b60008073ffffffffffffffffffffffffffffffffffffffff168573ffffffffffffffffffffffffffffffffffffffff16146107be576040517f08c379a00000000000000000000000000000000000000000000000000000000081526004016107b5906151ff565b60405180910390fd5b63150b7a0260e01b905095945050505050565b600073ffffffffffffffffffffffffffffffffffffffff16600860009054906101000a900473ffffffffffffffffffffffffffffffffffffffff1673ffffffffffffffffffffffffffffffffffffffff161415801561087f5750600073ffffffffffffffffffffffffffffffffffffffff16600960009054906101000a900473ffffffffffffffffffffffffffffffffffffffff1673ffffffffffffffffffffffffffffffffffffffff1614155b80156108da5750600073ffffffffffffffffffffffffffffffffffffffff16600a60009054906101000a900473ffffffffffffffffffffffffffffffffffffffff1673ffffffffffffffffffffffffffffffffffffffff1614155b80156109355750600073ffffffffffffffffffffffffffffffffffffffff16600b60009054906101000a900473ffffffffffffffffffffffffffffffffffffffff1673ffffffffffffffffffffffffffffffffffffffff1614155b610974576040517f08c379a000000000000000000000000000000000000000000000000000000000815260040161096b90614fcf565b60405180910390fd5b61097c611f76565b73ffffffffffffffffffffffffffffffffffffffff1661099a610d66565b73ffffffffffffffffffffffffffffffffffffffff16146109f0576040517f08c379a00000000000000000000000000000000000000000000000000000000081526004016109e790615155565b60405180910390fd5b8015610a03576109fe611f7e565b610a0c565b610a0b612021565b5b50565b600084848484604051602001610a289493929190614ca6565b604051602081830303815290604052805190602001209050949350505050565b600960009054906101000a900473ffffffffffffffffffffffffffffffffffffffff1681565b600f6020528060005260406000206000915054906101000a900461ffff1681565b600881565b67019b319729e4768481565b600660109054906101000a90046fffffffffffffffffffffffffffffffff1681565b600860009054906101000a900473ffffffffffffffffffffffffffffffffffffffff1681565b600b60009054906101000a900473ffffffffffffffffffffffffffffffffffffffff1681565b6000600260009054906101000a900460ff16905090565b6007601a9054906101000a900465ffffffffffff1681565b600760089054906101000a900461ffff1681565b610b59611f76565b73ffffffffffffffffffffffffffffffffffffffff16610b77610d66565b73ffffffffffffffffffffffffffffffffffffffff1614610bcd576040517f08c379a0000000000000000000000000000000000000000000000000000000008152600401610bc490615155565b60405180910390fd5b610bd760006120c3565b565b600080600760089054906101000a900461ffff1661ffff161415610c005760009050610d5b565b6000600760089054906101000a900461ffff1661ffff1663ffffffff8416610c289190615a23565b90506000602084901c935060005b600861ffff168160ff1611610d53578060ff16600e60008360ff1661ffff16815260200190815260200160002080549050610c7191906155f4565b82610c7c91906154e9565b9150818310610c8a57610d40565b600e60008260ff1661ffff168152602001908152602001600020600e60008360ff1661ffff1681526020019081526020016000208054905086610ccd9190615a23565b81548110610d04577f4e487b7100000000000000000000000000000000000000000000000000000000600052603260045260246000fd5b906000526020600020906002020160010160009054906101000a900473ffffffffffffffffffffffffffffffffffffffff169350505050610d5b565b8080610d4b9061598b565b915050610c36565b506000925050505b919050565b60035481565b60008060009054906101000a900473ffffffffffffffffffffffffffffffffffffffff16905090565b6b09b18ab5df7180b6b800000081565b610da7610b0e565b15610de7576040517f08c379a0000000000000000000000000000000000000000000000000000000008152600401610dde906150b9565b60405180910390fd5b60026001541415610e2d576040517f08c379a0000000000000000000000000000000000000000000000000000000008152600401610e249061525b565b60405180910390fd5b60026001819055506b09b18ab5df7180b6b80000006fffffffffffffffffffffffffffffffff16600660009054906101000a90046fffffffffffffffffffffffffffffffff166fffffffffffffffffffffffffffffffff161015610fbf57600042905060006007601a9054906101000a900465ffffffffffff1682610eb2919061575e565b90506000600760049054906101000a900463ffffffff1663ffffffff1682610eda919061564e565b65ffffffffffff16610eec91906155aa565b67019b319729e47684600760009054906101000a900463ffffffff1663ffffffff1683610f19919061564e565b65ffffffffffff16610f2b91906155aa565b610f35919061546b565b600660008282829054906101000a90046fffffffffffffffffffffffffffffffff16610f61919061546b565b92506101000a8154816fffffffffffffffffffffffffffffffff02191690836fffffffffffffffffffffffffffffffff160217905550816007601a6101000a81548165ffffffffffff021916908365ffffffffffff16021790555050505b3373ffffffffffffffffffffffffffffffffffffffff163273ffffffffffffffffffffffffffffffffffffffff161461102d576040517f08c379a000000000000000000000000000000000000000000000000000000000815260040161102490615099565b60405180910390fd5b6000600660009054906101000a90046fffffffffffffffffffffffffffffffff166fffffffffffffffffffffffffffffffff16116110a0576040517f08c379a000000000000000000000000000000000000000000000000000000000815260040161109790615059565b60405180910390fd5b600080600042905060005b878790508160ff1610156112035761111288888360ff168181106110f8577f4e487b7100000000000000000000000000000000000000000000000000000000600052603260045260246000fd5b905060200201602081019061110d9190614443565b612187565b925082156111885761117688888360ff16818110611159577f4e487b7100000000000000000000000000000000000000000000000000000000600052603260045260246000fd5b905060200201602081019061116e9190614443565b87848861223b565b84611181919061546b565b93506111f0565b6111e288888360ff168181106111c7577f4e487b7100000000000000000000000000000000000000000000000000000000600052603260045260246000fd5b90506020020160208101906111dc9190614443565b87612854565b846111ed919061546b565b93505b80806111fb9061598b565b9150506110ab565b506000836fffffffffffffffffffffffffffffffff16146112ae57600860009054906101000a900473ffffffffffffffffffffffffffffffffffffffff1673ffffffffffffffffffffffffffffffffffffffff166340c10f1933856040518363ffffffff1660e01b815260040161127b929190614e04565b600060405180830381600087803b15801561129557600080fd5b505af11580156112a9573d6000803e3d6000fd5b505050505b5050506001808190555050505050565b6112c6610b0e565b15611306576040517f08c379a00000000000000000000000000000000000000000000000000000000081526004016112fd906150b9565b60405180910390fd5b6002600154141561134c576040517f08c379a00000000000000000000000000000000000000000000000000000000081526004016113439061525b565b60405180910390fd5b60026001819055506b09b18ab5df7180b6b80000006fffffffffffffffffffffffffffffffff16600660009054906101000a90046fffffffffffffffffffffffffffffffff166fffffffffffffffffffffffffffffffff1610156114de57600042905060006007601a9054906101000a900465ffffffffffff16826113d1919061575e565b90506000600760049054906101000a900463ffffffff1663ffffffff16826113f9919061564e565b65ffffffffffff1661140b91906155aa565b67019b319729e47684600760009054906101000a900463ffffffff1663ffffffff1683611438919061564e565b65ffffffffffff1661144a91906155aa565b611454919061546b565b600660008282829054906101000a90046fffffffffffffffffffffffffffffffff16611480919061546b565b92506101000a8154816fffffffffffffffffffffffffffffffff02191690836fffffffffffffffffffffffffffffffff160217905550816007601a6101000a81548165ffffffffffff021916908365ffffffffffff16021790555050505b3373ffffffffffffffffffffffffffffffffffffffff168373ffffffffffffffffffffffffffffffffffffffff1614801561154457503373ffffffffffffffffffffffffffffffffffffffff163273ffffffffffffffffffffffffffffffffffffffff16145b8061159c5750600960009054906101000a900473ffffffffffffffffffffffffffffffffffffffff1673ffffffffffffffffffffffffffffffffffffffff163373ffffffffffffffffffffffffffffffffffffffff16145b6115db576040517f08c379a00000000000000000000000000000000000000000000000000000000081526004016115d2906151bf565b60405180910390fd5b60005b828290508161ffff161015611a2657600083838361ffff1681811061162c577f4e487b7100000000000000000000000000000000000000000000000000000000600052603260045260246000fd5b90506020020160208101906116419190614443565b61ffff16141561165057611a13565b60006116ac84848461ffff16818110611692577f4e487b7100000000000000000000000000000000000000000000000000000000600052603260045260246000fd5b90506020020160208101906116a79190614443565b612187565b905080156117145761170f8585858561ffff168181106116f5577f4e487b7100000000000000000000000000000000000000000000000000000000600052603260045260246000fd5b905060200201602081019061170a9190614443565b613279565b611770565b61176f8585858561ffff16818110611755577f4e487b7100000000000000000000000000000000000000000000000000000000600052603260045260246000fd5b905060200201602081019061176a9190614443565b6133e6565b5b600960009054906101000a900473ffffffffffffffffffffffffffffffffffffffff1673ffffffffffffffffffffffffffffffffffffffff163373ffffffffffffffffffffffffffffffffffffffff1614611a11573373ffffffffffffffffffffffffffffffffffffffff16600960009054906101000a900473ffffffffffffffffffffffffffffffffffffffff1673ffffffffffffffffffffffffffffffffffffffff16636352211e86868661ffff16818110611857577f4e487b7100000000000000000000000000000000000000000000000000000000600052603260045260246000fd5b905060200201602081019061186c9190614443565b6040518263ffffffff1660e01b815260040161188891906152b1565b60206040518083038186803b1580156118a057600080fd5b505afa1580156118b4573d6000803e3d6000fd5b505050506040513d601f19601f820116820180604052508101906118d89190614105565b73ffffffffffffffffffffffffffffffffffffffff161461192e576040517f08c379a0000000000000000000000000000000000000000000000000000000008152600401611925906151df565b60405180910390fd5b600960009054906101000a900473ffffffffffffffffffffffffffffffffffffffff1673ffffffffffffffffffffffffffffffffffffffff166323b872dd333087878761ffff168181106119ab577f4e487b7100000000000000000000000000000000000000000000000000000000600052603260045260246000fd5b90506020020160208101906119c09190614443565b6040518463ffffffff1660e01b81526004016119de93929190614d83565b600060405180830381600087803b1580156119f857600080fd5b505af1158015611a0c573d6000803e3d6000fd5b505050505b505b8080611a1e90615960565b9150506115de565b5060018081905550505050565b6000600660009054906101000a90046fffffffffffffffffffffffffffffffff166fffffffffffffffffffffffffffffffff16905090565b6007600a9054906101000a90046fffffffffffffffffffffffffffffffff1681565b690a968163f0a57b40000081565b600760009054906101000a900463ffffffff1681565b600e6020528160005260406000208181548110611acd57600080fd5b9060005260206000209060020201600091509150508060000160009054906101000a900461ffff16908060000160029054906101000a90046fffffffffffffffffffffffffffffffff16908060010160009054906101000a900473ffffffffffffffffffffffffffffffffffffffff16905083565b611b4a611f76565b73ffffffffffffffffffffffffffffffffffffffff16611b68610d66565b73ffffffffffffffffffffffffffffffffffffffff1614611bbe576040517f08c379a0000000000000000000000000000000000000000000000000000000008152600401611bb590615155565b60405180910390fd5b83600860006101000a81548173ffffffffffffffffffffffffffffffffffffffff021916908373ffffffffffffffffffffffffffffffffffffffff16021790555082600960006101000a81548173ffffffffffffffffffffffffffffffffffffffff021916908373ffffffffffffffffffffffffffffffffffffffff16021790555080600a60006101000a81548173ffffffffffffffffffffffffffffffffffffffff021916908373ffffffffffffffffffffffffffffffffffffffff16021790555081600b60006101000a81548173ffffffffffffffffffffffffffffffffffffffff021916908373ffffffffffffffffffffffffffffffffffffffff16021790555050505050565b611cd0611f76565b73ffffffffffffffffffffffffffffffffffffffff16611cee610d66565b73ffffffffffffffffffffffffffffffffffffffff1614611d44576040517f08c379a0000000000000000000000000000000000000000000000000000000008152600401611d3b90615155565b60405180910390fd5b8060058190555050565b600660009054906101000a90046fffffffffffffffffffffffffffffffff1681565b60055481565b601481565b6202a30081565b600080611d99611d9488888888610a0f565b613652565b9050600c60009054906101000a900473ffffffffffffffffffffffffffffffffffffffff1673ffffffffffffffffffffffffffffffffffffffff16611dde8285613682565b73ffffffffffffffffffffffffffffffffffffffff161491505095945050505050565b611e09611f76565b73ffffffffffffffffffffffffffffffffffffffff16611e27610d66565b73ffffffffffffffffffffffffffffffffffffffff1614611e7d576040517f08c379a0000000000000000000000000000000000000000000000000000000008152600401611e7490615155565b60405180910390fd5b600073ffffffffffffffffffffffffffffffffffffffff168173ffffffffffffffffffffffffffffffffffffffff161415611eed576040517f08c379a0000000000000000000000000000000000000000000000000000000008152600401611ee490615039565b60405180910390fd5b611ef6816120c3565b50565b600d6020528060005260406000206000915090508060000160009054906101000a900461ffff16908060000160029054906101000a900465ffffffffffff16908060000160089054906101000a900473ffffffffffffffffffffffffffffffffffffffff16905083565b600260019054906101000a900460ff1681565b600033905090565b611f86610b0e565b15611fc6576040517f08c379a0000000000000000000000000000000000000000000000000000000008152600401611fbd906150b9565b60405180910390fd5b6001600260006101000a81548160ff0219169083151502179055507f62e78cea01bee320cd4e420270b5ea74000d11b0c9f74754ebdbfc544b05a25861200a611f76565b6040516120179190614d68565b60405180910390a1565b612029610b0e565b612068576040517f08c379a000000000000000000000000000000000000000000000000000000000815260040161205f90614f6f565b60405180910390fd5b6000600260006101000a81548160ff0219169083151502179055507f5db9ee0a495bf2e6ff9c91a7834c1ba4fdd244a5e8aa4e537bd38aeae4b073aa6120ac611f76565b6040516120b99190614d68565b60405180910390a1565b60008060009054906101000a900473ffffffffffffffffffffffffffffffffffffffff169050816000806101000a81548173ffffffffffffffffffffffffffffffffffffffff021916908373ffffffffffffffffffffffffffffffffffffffff1602179055508173ffffffffffffffffffffffffffffffffffffffff168173ffffffffffffffffffffffffffffffffffffffff167f8be0079c531659141344cd1fd0a4f28419497f9722a3daafe3b4186f6b6457e060405160405180910390a35050565b6000600960009054906101000a900473ffffffffffffffffffffffffffffffffffffffff1673ffffffffffffffffffffffffffffffffffffffff1663483be8cb836040518263ffffffff1660e01b81526004016121e491906152b1565b60206040518083038186803b1580156121fc57600080fd5b505afa158015612210573d6000803e3d6000fd5b505050506040513d601f19601f8201168201806040525081019061223491906143f0565b9050919050565b600080600d60008761ffff1661ffff1681526020019081526020016000206040518060600160405290816000820160009054906101000a900461ffff1661ffff1661ffff1681526020016000820160029054906101000a900465ffffffffffff1665ffffffffffff1665ffffffffffff1681526020016000820160089054906101000a900473ffffffffffffffffffffffffffffffffffffffff1673ffffffffffffffffffffffffffffffffffffffff1673ffffffffffffffffffffffffffffffffffffffff168152505090503373ffffffffffffffffffffffffffffffffffffffff16816040015173ffffffffffffffffffffffffffffffffffffffff161461237a576040517f08c379a000000000000000000000000000000000000000000000000000000000815260040161237190614faf565b60405180910390fd5b6b09b18ab5df7180b6b80000006fffffffffffffffffffffffffffffffff16600660009054906101000a90046fffffffffffffffffffffffffffffffff166fffffffffffffffffffffffffffffffff1610156124025767019b319729e476848160200151856123e9919061575e565b65ffffffffffff166123fb91906155aa565b9150612474565b6007601a9054906101000a900465ffffffffffff1665ffffffffffff16816020015165ffffffffffff16116124735767019b319729e4768481602001516007601a9054906101000a900465ffffffffffff1661245e919061575e565b65ffffffffffff1661247091906155aa565b91505b5b6000826fffffffffffffffffffffffffffffffff16116124c9576040517f08c379a00000000000000000000000000000000000000000000000000000000081526004016124c090614f4f565b60405180910390fd5b841561268e576124dd838761ffff166136a9565b92506000600260f585901c6124f29190615a23565b141561254557612501826136f0565b7fa210921fde4b862d7c57ace518230650a53cb4ae0740fff25628f41c18b40c208683836040015160405161253893929190615303565b60405180910390a1600091505b600d60008761ffff1661ffff168152602001908152602001600020600080820160006101000a81549061ffff02191690556000820160026101000a81549065ffffffffffff02191690556000820160086101000a81549073ffffffffffffffffffffffffffffffffffffffff021916905550506001600760008282829054906101000a900463ffffffff166125da919061572a565b92506101000a81548163ffffffff021916908363ffffffff160217905550600960009054906101000a900473ffffffffffffffffffffffffffffffffffffffff1673ffffffffffffffffffffffffffffffffffffffff1663b88d4fde3033896040518463ffffffff1660e01b815260040161265793929190614dba565b600060405180830381600087803b15801561267157600080fd5b505af1158015612685573d6000803e3d6000fd5b5050505061280c565b6126b26064601460ff16846126a391906155aa565b6126ad9190615579565b6136f0565b6064601460646126c29190615792565b60ff16836126d091906155aa565b6126da9190615579565b91507fb792551e334e372313bf141ed64f6d2e3601f9f1e3fda8749eb8a4bfab03894d8683836040015160405161271393929190615303565b60405180910390a160405180606001604052808761ffff1681526020018565ffffffffffff1681526020013373ffffffffffffffffffffffffffffffffffffffff16815250600d60008861ffff1661ffff16815260200190815260200160002060008201518160000160006101000a81548161ffff021916908361ffff16021790555060208201518160000160026101000a81548165ffffffffffff021916908365ffffffffffff16021790555060408201518160000160086101000a81548173ffffffffffffffffffffffffffffffffffffffff021916908373ffffffffffffffffffffffffffffffffffffffff1602179055509050505b7ffeecfde08d5ba3751a2bef1ef5a9e70c797ffa7dc6b1666a3941c8d2cb30dade8682604001518460405161284393929190614fef565b60405180910390a150949350505050565b60003073ffffffffffffffffffffffffffffffffffffffff16600960009054906101000a900473ffffffffffffffffffffffffffffffffffffffff1673ffffffffffffffffffffffffffffffffffffffff16636352211e856040518263ffffffff1660e01b81526004016128c891906152b1565b60206040518083038186803b1580156128e057600080fd5b505afa1580156128f4573d6000803e3d6000fd5b505050506040513d601f19601f820116820180604052508101906129189190614105565b73ffffffffffffffffffffffffffffffffffffffff161461296e576040517f08c379a000000000000000000000000000000000000000000000000000000000815260040161296590615135565b60405180910390fd5b600061297984613864565b90506000600e60008361ffff1661ffff168152602001908152602001600020600f60008761ffff1661ffff16815260200190815260200160002060009054906101000a900461ffff1661ffff16815481106129fd577f4e487b7100000000000000000000000000000000000000000000000000000000600052603260045260246000fd5b90600052602060002090600202016040518060600160405290816000820160009054906101000a900461ffff1661ffff1661ffff1681526020016000820160029054906101000a90046fffffffffffffffffffffffffffffffff166fffffffffffffffffffffffffffffffff166fffffffffffffffffffffffffffffffff1681526020016001820160009054906101000a900473ffffffffffffffffffffffffffffffffffffffff1673ffffffffffffffffffffffffffffffffffffffff1673ffffffffffffffffffffffffffffffffffffffff168152505090503373ffffffffffffffffffffffffffffffffffffffff16816040015173ffffffffffffffffffffffffffffffffffffffff1614612b4a576040517f08c379a0000000000000000000000000000000000000000000000000000000008152600401612b4190614faf565b60405180910390fd5b80602001516007600a9054906101000a90046fffffffffffffffffffffffffffffffff16612b78919061568e565b8261ffff16612b8791906155aa565b925083156130925781600760088282829054906101000a900461ffff16612bae91906156c2565b92506101000a81548161ffff021916908361ffff1602179055506000600e60008461ffff1661ffff1681526020019081526020016000206001600e60008661ffff1661ffff16815260200190815260200160002080549050612c1091906156f6565b81548110612c47577f4e487b7100000000000000000000000000000000000000000000000000000000600052603260045260246000fd5b90600052602060002090600202016040518060600160405290816000820160009054906101000a900461ffff1661ffff1661ffff1681526020016000820160029054906101000a90046fffffffffffffffffffffffffffffffff166fffffffffffffffffffffffffffffffff166fffffffffffffffffffffffffffffffff1681526020016001820160009054906101000a900473ffffffffffffffffffffffffffffffffffffffff1673ffffffffffffffffffffffffffffffffffffffff1673ffffffffffffffffffffffffffffffffffffffff1681525050905080600e60008561ffff1661ffff168152602001908152602001600020600f60008961ffff1661ffff16815260200190815260200160002060009054906101000a900461ffff1661ffff1681548110612da3577f4e487b7100000000000000000000000000000000000000000000000000000000600052603260045260246000fd5b906000526020600020906002020160008201518160000160006101000a81548161ffff021916908361ffff16021790555060208201518160000160026101000a8154816fffffffffffffffffffffffffffffffff02191690836fffffffffffffffffffffffffffffffff16021790555060408201518160010160006101000a81548173ffffffffffffffffffffffffffffffffffffffff021916908373ffffffffffffffffffffffffffffffffffffffff160217905550905050600f60008761ffff1661ffff16815260200190815260200160002060009054906101000a900461ffff16600f6000836000015161ffff1661ffff16815260200190815260200160002060006101000a81548161ffff021916908361ffff160217905550600e60008461ffff1661ffff168152602001908152602001600020805480612f11577f4e487b7100000000000000000000000000000000000000000000000000000000600052603160045260246000fd5b6001900381819060005260206000209060020201600080820160006101000a81549061ffff02191690556000820160026101000a8154906fffffffffffffffffffffffffffffffff02191690556001820160006101000a81549073ffffffffffffffffffffffffffffffffffffffff021916905550509055600f60008761ffff1661ffff16815260200190815260200160002060006101000a81549061ffff02191690556001600760048282829054906101000a900463ffffffff16612fd7919061572a565b92506101000a81548163ffffffff021916908363ffffffff1602179055506000339050600960009054906101000a900473ffffffffffffffffffffffffffffffffffffffff1673ffffffffffffffffffffffffffffffffffffffff1663b88d4fde30838a6040518463ffffffff1660e01b815260040161305993929190614dba565b600060405180830381600087803b15801561307357600080fd5b505af1158015613087573d6000803e3d6000fd5b505050505050613232565b60405180606001604052808661ffff1681526020016007600a9054906101000a90046fffffffffffffffffffffffffffffffff166fffffffffffffffffffffffffffffffff1681526020013373ffffffffffffffffffffffffffffffffffffffff16815250600e60008461ffff1661ffff168152602001908152602001600020600f60008861ffff1661ffff16815260200190815260200160002060009054906101000a900461ffff1661ffff1681548110613177577f4e487b7100000000000000000000000000000000000000000000000000000000600052603260045260246000fd5b906000526020600020906002020160008201518160000160006101000a81548161ffff021916908361ffff16021790555060208201518160000160026101000a8154816fffffffffffffffffffffffffffffffff02191690836fffffffffffffffffffffffffffffffff16021790555060408201518160010160006101000a81548173ffffffffffffffffffffffffffffffffffffffff021916908373ffffffffffffffffffffffffffffffffffffffff1602179055509050505b7ffeecfde08d5ba3751a2bef1ef5a9e70c797ffa7dc6b1666a3941c8d2cb30dade8582604001518560405161326993929190615175565b60405180910390a1505092915050565b60405180606001604052808261ffff1681526020014265ffffffffffff1681526020018373ffffffffffffffffffffffffffffffffffffffff16815250600d60008361ffff1661ffff16815260200190815260200160002060008201518160000160006101000a81548161ffff021916908361ffff16021790555060208201518160000160026101000a81548165ffffffffffff021916908365ffffffffffff16021790555060408201518160000160086101000a81548173ffffffffffffffffffffffffffffffffffffffff021916908373ffffffffffffffffffffffffffffffffffffffff1602179055509050506001600760008282829054906101000a900463ffffffff1661338b919061553f565b92506101000a81548163ffffffff021916908363ffffffff1602179055507f4c4917eb58999a95a99f610178efc2ad0207c4fefcb6b07077710c4017ecc6f581836040516133da92919061521f565b60405180910390a15050565b60006133f182613864565b905080600760088282829054906101000a900461ffff1661341291906154b1565b92506101000a81548161ffff021916908361ffff160217905550600e60008261ffff1661ffff16815260200190815260200160002080549050600f60008461ffff1661ffff16815260200190815260200160002060006101000a81548161ffff021916908361ffff160217905550600e60008261ffff1661ffff16815260200190815260200160002060405180606001604052808461ffff1681526020016007600a9054906101000a90046fffffffffffffffffffffffffffffffff166fffffffffffffffffffffffffffffffff1681526020018573ffffffffffffffffffffffffffffffffffffffff16815250908060018154018082558091505060019003906000526020600020906002020160009091909190915060008201518160000160006101000a81548161ffff021916908361ffff16021790555060208201518160000160026101000a8154816fffffffffffffffffffffffffffffffff02191690836fffffffffffffffffffffffffffffffff16021790555060408201518160010160006101000a81548173ffffffffffffffffffffffffffffffffffffffff021916908373ffffffffffffffffffffffffffffffffffffffff16021790555050506001600760048282829054906101000a900463ffffffff166135f6919061553f565b92506101000a81548163ffffffff021916908363ffffffff1602179055507f4c4917eb58999a95a99f610178efc2ad0207c4fefcb6b07077710c4017ecc6f582846040516136459291906150d9565b60405180910390a1505050565b6000816040516020016136659190614cf4565b604051602081830303815290604052805190602001209050919050565b6000806000613691858561392d565b9150915061369e816139b0565b819250505092915050565b600082326001436136ba91906156f6565b40426040516020016136cf9493929190614d1a565b6040516020818303038152906040528051906020012060001c905092915050565b60008190506000600760089054906101000a900461ffff1661ffff16141561377a5780600660108282829054906101000a90046fffffffffffffffffffffffffffffffff1661373f919061546b565b92506101000a8154816fffffffffffffffffffffffffffffffff02191690836fffffffffffffffffffffffffffffffff160217905550613860565b600760089054906101000a900461ffff1661ffff16600660109054906101000a90046fffffffffffffffffffffffffffffffff16826137b9919061546b565b6137c39190615579565b6007600a8282829054906101000a90046fffffffffffffffffffffffffffffffff166137ef919061546b565b92506101000a8154816fffffffffffffffffffffffffffffffff02191690836fffffffffffffffffffffffffffffffff1602179055506000600660106101000a8154816fffffffffffffffffffffffffffffffff02191690836fffffffffffffffffffffffffffffffff1602179055505b5050565b6000600960009054906101000a900473ffffffffffffffffffffffffffffffffffffffff1673ffffffffffffffffffffffffffffffffffffffff166343e55e30836040518263ffffffff1660e01b81526004016138c19190615296565b6101206040518083038186803b1580156138da57600080fd5b505afa1580156138ee573d6000803e3d6000fd5b505050506040513d601f19601f820116820180604052508101906139129190614419565b610100015160ff16600861392691906156c2565b9050919050565b60008060418351141561396f5760008060006020860151925060408601519150606086015160001a905061396387828585613d01565b945094505050506139a9565b6040835114156139a0576000806020850151915060408501519050613995868383613e0e565b9350935050506139a9565b60006002915091505b9250929050565b600060048111156139ea577f4e487b7100000000000000000000000000000000000000000000000000000000600052602160045260246000fd5b816004811115613a23577f4e487b7100000000000000000000000000000000000000000000000000000000600052602160045260246000fd5b1415613a2e57613cfe565b60016004811115613a68577f4e487b7100000000000000000000000000000000000000000000000000000000600052602160045260246000fd5b816004811115613aa1577f4e487b7100000000000000000000000000000000000000000000000000000000600052602160045260246000fd5b1415613ae2576040517f08c379a0000000000000000000000000000000000000000000000000000000008152600401613ad990614f2f565b60405180910390fd5b60026004811115613b1c577f4e487b7100000000000000000000000000000000000000000000000000000000600052602160045260246000fd5b816004811115613b55577f4e487b7100000000000000000000000000000000000000000000000000000000600052602160045260246000fd5b1415613b96576040517f08c379a0000000000000000000000000000000000000000000000000000000008152600401613b8d90614f8f565b60405180910390fd5b60036004811115613bd0577f4e487b7100000000000000000000000000000000000000000000000000000000600052602160045260246000fd5b816004811115613c09577f4e487b7100000000000000000000000000000000000000000000000000000000600052602160045260246000fd5b1415613c4a576040517f08c379a0000000000000000000000000000000000000000000000000000000008152600401613c4190615079565b60405180910390fd5b600480811115613c83577f4e487b7100000000000000000000000000000000000000000000000000000000600052602160045260246000fd5b816004811115613cbc577f4e487b7100000000000000000000000000000000000000000000000000000000600052602160045260246000fd5b1415613cfd576040517f08c379a0000000000000000000000000000000000000000000000000000000008152600401613cf490615115565b60405180910390fd5b5b50565b6000807f7fffffffffffffffffffffffffffffff5d576e7357a4501ddfe92f46681b20a08360001c1115613d3c576000600391509150613e05565b601b8560ff1614158015613d545750601c8560ff1614155b15613d66576000600491509150613e05565b600060018787878760405160008152602001604052604051613d8b9493929190614e63565b6020604051602081039080840390855afa158015613dad573d6000803e3d6000fd5b505050602060405103519050600073ffffffffffffffffffffffffffffffffffffffff168173ffffffffffffffffffffffffffffffffffffffff161415613dfc57600060019250925050613e05565b80600092509250505b94509492505050565b6000806000807f7fffffffffffffffffffffffffffffffffffffffffffffffffffffffffffffff85169150601b8560ff1c019050613e4e87828885613d01565b935093505050935093915050565b6000613e6f613e6a8461540e565b6153dd565b905082815260208101848484011115613e8757600080fd5b613e92848285615951565b509392505050565b600081359050613ea981615b08565b92915050565b600081519050613ebe81615b08565b92915050565b60008083601f840112613ed657600080fd5b8235905067ffffffffffffffff811115613eef57600080fd5b602083019150836020820283011115613f0757600080fd5b9250929050565b600081359050613f1d81615b1f565b92915050565b600081519050613f3281615b1f565b92915050565b60008083601f840112613f4a57600080fd5b8235905067ffffffffffffffff811115613f6357600080fd5b602083019150836001820283011115613f7b57600080fd5b9250929050565b600082601f830112613f9357600080fd5b8135613fa3848260208601613e5c565b91505092915050565b60006101208284031215613fbf57600080fd5b613fca6101206153dd565b90506000613fda84828501613f23565b6000830152506020613fee848285016140c7565b6020830152506040614002848285016140c7565b6040830152506060614016848285016140c7565b606083015250608061402a848285016140c7565b60808301525060a061403e848285016140c7565b60a08301525060c0614052848285016140c7565b60c08301525060e0614066848285016140c7565b60e08301525061010061407b848285016140c7565b6101008301525092915050565b60008135905061409781615b36565b92915050565b6000813590506140ac81615b4d565b92915050565b6000813590506140c181615b64565b92915050565b6000815190506140d681615b7b565b92915050565b6000602082840312156140ee57600080fd5b60006140fc84828501613e9a565b91505092915050565b60006020828403121561411757600080fd5b600061412584828501613eaf565b91505092915050565b6000806000806080858703121561414457600080fd5b600061415287828801613e9a565b945050602061416387828801613e9a565b935050604061417487828801613e9a565b925050606061418587828801613e9a565b91505092959194509250565b6000806000806000608086880312156141a957600080fd5b60006141b788828901613e9a565b95505060206141c888828901613e9a565b94505060406141d98882890161409d565b935050606086013567ffffffffffffffff8111156141f657600080fd5b61420288828901613f38565b92509250509295509295909350565b60008060006040848603121561422657600080fd5b600061423486828701613e9a565b935050602084013567ffffffffffffffff81111561425157600080fd5b61425d86828701613ec4565b92509250509250925092565b6000806000806080858703121561427f57600080fd5b600061428d87828801613e9a565b945050602061429e87828801613f0e565b93505060406142af878288016140b2565b92505060606142c08782880161409d565b91505092959194509250565b600080600080600060a086880312156142e457600080fd5b60006142f288828901613e9a565b955050602061430388828901613f0e565b9450506040614314888289016140b2565b93505060606143258882890161409d565b925050608086013567ffffffffffffffff81111561434257600080fd5b61434e88828901613f82565b9150509295509295909350565b6000806000806060858703121561437157600080fd5b600085013567ffffffffffffffff81111561438b57600080fd5b61439787828801613ec4565b945094505060206143aa87828801613f0e565b92505060406143bb8782880161409d565b91505092959194509250565b6000602082840312156143d957600080fd5b60006143e784828501613f0e565b91505092915050565b60006020828403121561440257600080fd5b600061441084828501613f23565b91505092915050565b6000610120828403121561442c57600080fd5b600061443a84828501613fac565b91505092915050565b60006020828403121561445557600080fd5b600061446384828501614088565b91505092915050565b6000806040838503121561447f57600080fd5b600061448d85828601614088565b925050602061449e8582860161409d565b9150509250929050565b6000602082840312156144ba57600080fd5b60006144c88482850161409d565b91505092915050565b6144da816157c6565b82525050565b6144f16144ec826157c6565b6159b5565b82525050565b614500816157d8565b82525050565b614517614512826157d8565b6159c7565b82525050565b614526816157e4565b82525050565b61453d614538826157e4565b6159d9565b82525050565b61454c816157ee565b82525050565b61455b8161589d565b82525050565b61456a816158c1565b82525050565b614579816158e5565b82525050565b61458881615909565b82525050565b600061459b60188361544f565b91507f45434453413a20696e76616c6964207369676e617475726500000000000000006000830152602082019050919050565b60006145db60068361544f565b91507f62726f6b656e00000000000000000000000000000000000000000000000000006000830152602082019050919050565b600061461b60148361544f565b91507f5061757361626c653a206e6f74207061757365640000000000000000000000006000830152602082019050919050565b600061465b601f8361544f565b91507f45434453413a20696e76616c6964207369676e6174757265206c656e677468006000830152602082019050919050565b600061469b601d8361544f565b91507f6f6e6c7920746f6b656e206f776e6572732063616e20756e7374616b650000006000830152602082019050919050565b60006146db601c83615460565b91507f19457468657265756d205369676e6564204d6573736167653a0a3332000000006000830152601c82019050919050565b600061471b60118361544f565b91507f436f6e747261637473206e6f74207365740000000000000000000000000000006000830152602082019050919050565b600061475b60048361544f565b91507f574f524d000000000000000000000000000000000000000000000000000000006000830152602082019050919050565b600061479b60268361544f565b91507f4f776e61626c653a206e6577206f776e657220697320746865207a65726f206160008301527f64647265737300000000000000000000000000000000000000000000000000006020830152604082019050919050565b600061480160078361544f565b91507f50524f424c454d000000000000000000000000000000000000000000000000006000830152602082019050919050565b600061484160228361544f565b91507f45434453413a20696e76616c6964207369676e6174757265202773272076616c60008301527f75650000000000000000000000000000000000000000000000000000000000006020830152604082019050919050565b60006148a760088361544f565b91507f656f73206f6e6c790000000000000000000000000000000000000000000000006000830152602082019050919050565b60006148e760108361544f565b91507f5061757361626c653a20706175736564000000000000000000000000000000006000830152602082019050919050565b600061492760048361544f565b91507f42697264000000000000000000000000000000000000000000000000000000006000830152602082019050919050565b600061496760228361544f565b91507f45434453413a20696e76616c6964207369676e6174757265202776272076616c60008301527f75650000000000000000000000000000000000000000000000000000000000006020830152604082019050919050565b60006149cd601f8361544f565b91507f6d757374206265207374616b656420746f20636c61696d2072657761726473006000830152602082019050919050565b6000614a0d60208361544f565b91507f4f776e61626c653a2063616c6c6572206973206e6f7420746865206f776e65726000830152602082019050919050565b6000614a4d60048361544f565b91507f42495244000000000000000000000000000000000000000000000000000000006000830152602082019050919050565b6000614a8d60008361543e565b9150600082019050919050565b6000614aa760228361544f565b91507f6e6f7420617070726f76656420746f207374616b652074686520746f6b656e2860008301527f73290000000000000000000000000000000000000000000000000000000000006020830152604082019050919050565b6000614b0d601b8361544f565b91507f6f6e6c7920746f6b656e206f776e6572732063616e207374616b6500000000006000830152602082019050919050565b6000614b4d601d8361544f565b91507f6f6e6c7920616c6c6f77206469726563746c792066726f6d206d696e740000006000830152602082019050919050565b6000614b8d60048361544f565b91507f576f726d000000000000000000000000000000000000000000000000000000006000830152602082019050919050565b6000614bcd601f8361544f565b91507f5265656e7472616e637947756172643a207265656e7472616e742063616c6c006000830152602082019050919050565b614c098161581a565b82525050565b614c188161592d565b82525050565b614c2781615836565b82525050565b614c368161593f565b82525050565b614c4581615864565b82525050565b614c5c614c5782615864565b6159f5565b82525050565b614c6b8161586e565b82525050565b614c7a8161587e565b82525050565b614c91614c8c8261587e565b6159ff565b82525050565b614ca081615890565b82525050565b6000614cb282876144e0565b601482019150614cc28286614506565b600182019150614cd28285614c80565b600682019150614ce28284614c4b565b60208201915081905095945050505050565b6000614cff826146ce565b9150614d0b828461452c565b60208201915081905092915050565b6000614d268287614c4b565b602082019150614d3682866144e0565b601482019150614d46828561452c565b602082019150614d568284614c4b565b60208201915081905095945050505050565b6000602082019050614d7d60008301846144d1565b92915050565b6000606082019050614d9860008301866144d1565b614da560208301856144d1565b614db26040830184614c2d565b949350505050565b6000608082019050614dcf60008301866144d1565b614ddc60208301856144d1565b614de96040830184614c2d565b8181036060830152614dfa81614a80565b9050949350505050565b6000604082019050614e1960008301856144d1565b614e266020830184614c0f565b9392505050565b6000602082019050614e4260008301846144f7565b92915050565b6000602082019050614e5d600083018461451d565b92915050565b6000608082019050614e78600083018761451d565b614e856020830186614c97565b614e92604083018561451d565b614e9f606083018461451d565b95945050505050565b6000602082019050614ebd6000830184614543565b92915050565b6000602082019050614ed86000830184614552565b92915050565b6000602082019050614ef36000830184614561565b92915050565b6000602082019050614f0e6000830184614570565b92915050565b6000602082019050614f29600083018461457f565b92915050565b60006020820190508181036000830152614f488161458e565b9050919050565b60006020820190508181036000830152614f68816145ce565b9050919050565b60006020820190508181036000830152614f888161460e565b9050919050565b60006020820190508181036000830152614fa88161464e565b9050919050565b60006020820190508181036000830152614fc88161468e565b9050919050565b60006020820190508181036000830152614fe88161470e565b9050919050565b600060808201905081810360008301526150088161474e565b90506150176020830186614c1e565b61502460408301856144d1565b6150316060830184614c00565b949350505050565b600060208201905081810360008301526150528161478e565b9050919050565b60006020820190508181036000830152615072816147f4565b9050919050565b6000602082019050818103600083015261509281614834565b9050919050565b600060208201905081810360008301526150b28161489a565b9050919050565b600060208201905081810360008301526150d2816148da565b9050919050565b600060608201905081810360008301526150f28161491a565b90506151016020830185614c1e565b61510e60408301846144d1565b9392505050565b6000602082019050818103600083015261512e8161495a565b9050919050565b6000602082019050818103600083015261514e816149c0565b9050919050565b6000602082019050818103600083015261516e81614a00565b9050919050565b6000608082019050818103600083015261518e81614a40565b905061519d6020830186614c1e565b6151aa60408301856144d1565b6151b76060830184614c00565b949350505050565b600060208201905081810360008301526151d881614a9a565b9050919050565b600060208201905081810360008301526151f881614b00565b9050919050565b6000602082019050818103600083015261521881614b40565b9050919050565b6000606082019050818103600083015261523881614b80565b90506152476020830185614c1e565b61525460408301846144d1565b9392505050565b6000602082019050818103600083015261527481614bc0565b9050919050565b60006020820190506152906000830184614c00565b92915050565b60006020820190506152ab6000830184614c1e565b92915050565b60006020820190506152c66000830184614c2d565b92915050565b60006060820190506152e16000830186614c1e565b6152ee6020830185614c00565b6152fb60408301846144d1565b949350505050565b60006060820190506153186000830186614c1e565b6153256020830185614c0f565b61533260408301846144d1565b949350505050565b600060608201905061534f6000830186614c1e565b61535c6020830185614c71565b61536960408301846144d1565b949350505050565b60006020820190506153866000830184614c3c565b92915050565b60006020820190506153a16000830184614c62565b92915050565b60006020820190506153bc6000830184614c71565b92915050565b60006020820190506153d76000830184614c97565b92915050565b6000604051905081810181811067ffffffffffffffff8211171561540457615403615ab2565b5b8060405250919050565b600067ffffffffffffffff82111561542957615428615ab2565b5b601f19601f8301169050602081019050919050565b600082825260208201905092915050565b600082825260208201905092915050565b600081905092915050565b60006154768261581a565b91506154818361581a565b9250826fffffffffffffffffffffffffffffffff038211156154a6576154a5615a54565b5b828201905092915050565b60006154bc82615836565b91506154c783615836565b92508261ffff038211156154de576154dd615a54565b5b828201905092915050565b60006154f482615864565b91506154ff83615864565b9250827fffffffffffffffffffffffffffffffffffffffffffffffffffffffffffffffff0382111561553457615533615a54565b5b828201905092915050565b600061554a8261586e565b91506155558361586e565b92508263ffffffff0382111561556e5761556d615a54565b5b828201905092915050565b60006155848261581a565b915061558f8361581a565b92508261559f5761559e615a83565b5b828204905092915050565b60006155b58261581a565b91506155c08361581a565b9250816fffffffffffffffffffffffffffffffff04831182151516156155e9576155e8615a54565b5b828202905092915050565b60006155ff82615864565b915061560a83615864565b9250817fffffffffffffffffffffffffffffffffffffffffffffffffffffffffffffffff048311821515161561564357615642615a54565b5b828202905092915050565b60006156598261587e565b91506156648361587e565b92508165ffffffffffff048311821515161561568357615682615a54565b5b828202905092915050565b60006156998261581a565b91506156a48361581a565b9250828210156156b7576156b6615a54565b5b828203905092915050565b60006156cd82615836565b91506156d883615836565b9250828210156156eb576156ea615a54565b5b828203905092915050565b600061570182615864565b915061570c83615864565b92508282101561571f5761571e615a54565b5b828203905092915050565b60006157358261586e565b91506157408361586e565b92508282101561575357615752615a54565b5b828203905092915050565b60006157698261587e565b91506157748361587e565b92508282101561578757615786615a54565b5b828203905092915050565b600061579d82615890565b91506157a883615890565b9250828210156157bb576157ba615a54565b5b828203905092915050565b60006157d182615844565b9050919050565b60008115159050919050565b6000819050919050565b60007fffffffff0000000000000000000000000000000000000000000000000000000082169050919050565b60006fffffffffffffffffffffffffffffffff82169050919050565b600061ffff82169050919050565b600073ffffffffffffffffffffffffffffffffffffffff82169050919050565b6000819050919050565b600063ffffffff82169050919050565b600065ffffffffffff82169050919050565b600060ff82169050919050565b60006158a8826158af565b9050919050565b60006158ba82615844565b9050919050565b60006158cc826158d3565b9050919050565b60006158de82615844565b9050919050565b60006158f0826158f7565b9050919050565b600061590282615844565b9050919050565b60006159148261591b565b9050919050565b600061592682615844565b9050919050565b60006159388261581a565b9050919050565b600061594a82615836565b9050919050565b82818337600083830152505050565b600061596b82615836565b915061ffff8214156159805761597f615a54565b5b600182019050919050565b600061599682615890565b915060ff8214156159aa576159a9615a54565b5b600182019050919050565b60006159c0826159e3565b9050919050565b60006159d282615a11565b9050919050565b6000819050919050565b60006159ee82615afb565b9050919050565b6000819050919050565b6000615a0a82615ae1565b9050919050565b6000615a1c82615aee565b9050919050565b6000615a2e82615864565b9150615a3983615864565b925082615a4957615a48615a83565b5b828206905092915050565b7f4e487b7100000000000000000000000000000000000000000000000000000000600052601160045260246000fd5b7f4e487b7100000000000000000000000000000000000000000000000000000000600052601260045260246000fd5b7f4e487b7100000000000000000000000000000000000000000000000000000000600052604160045260246000fd5b60008160d01b9050919050565b60008160f81b9050919050565b60008160601b9050919050565b615b11816157c6565b8114615b1c57600080fd5b50565b615b28816157d8565b8114615b3357600080fd5b50565b615b3f81615836565b8114615b4a57600080fd5b50565b615b5681615864565b8114615b6157600080fd5b50565b615b6d8161587e565b8114615b7857600080fd5b50565b615b8481615890565b8114615b8f57600080fd5b5056fea264697066735822122096418f426dbc6363c37453d4039ac646c41415af978cfb98f9cd3d04f79e6a2264736f6c63430008000033",
  "immutableReferences": {},
  "source": "// SPDX-License-Identifier: MIT LICENSE\r\n\r\npragma solidity ^0.8.0;\r\n\r\nimport \"@openzeppelin/contracts/access/Ownable.sol\";\r\nimport \"@openzeppelin/contracts/security/Pausable.sol\";\r\nimport \"@openzeppelin/contracts/token/ERC721/IERC721Receiver.sol\";\r\nimport \"@openzeppelin/contracts/security/ReentrancyGuard.sol\";\r\nimport \"@openzeppelin/contracts/utils/cryptography/ECDSA.sol\";\r\nimport \"@openzeppelin/contracts/utils/structs/EnumerableSet.sol\";\r\nimport \"@openzeppelin/contracts/utils/structs/EnumerableMap.sol\";\r\n\r\nimport \"./interfaces/IWormGame.sol\";\r\nimport \"./interfaces/IDIRT.sol\";\r\nimport \"./interfaces/IWormGameNFT.sol\";\r\nimport \"./interfaces/IBirdBath.sol\";\r\nimport \"./interfaces/IRandomNumberConsumer.sol\";\r\n\r\ncontract WormGame is IWormGame, IERC721Receiver, Ownable, ReentrancyGuard, Pausable {\r\n\r\n    using ECDSA for bytes32;\r\n\r\n    bool public hasPublicSaleStarted;\r\n    uint256 public gen0Price = 0.05 ether;\r\n    uint256 private maxDirtCost = 72000;\r\n\r\n\r\n    uint256 public featherTypeID;\r\n    uint128 public constant FEATHER_COST = 50000 ether;\r\n    //maximum amount of $DIRT possible to be earned in act 1\r\n    uint128 public constant MAXIMUM_DIRT = 3000000000 ether;\r\n\r\n    //amount of $DIRT earned so far\r\n    uint128 public totalDirtEarned; \r\n\r\n    // Collected rewards before any birds staked\r\n    uint128 public unaccountedBirdRewards;\r\n\r\n    // Number of Worm staked\r\n    uint32 public totalWormsStaked;\r\n\r\n    // Number of Birds staked\r\n    uint32 public totalBirdsStaked;\r\n\r\n    // Total size of all birds staked - used for calculating distribution of $DIRT and steals to birds\r\n    uint16 public totalSizeOfBirdsStaked;\r\n\r\n    // Amount of $DIRT due for each size point (5-8) staked\r\n    uint128 public dirtPerSizePoint; \r\n\r\n    // The last time $DIRT was claimed\r\n    uint48 public lastClaimTimestamp;\r\n\r\n    // Worms must have 2 days worth of $DIRT to unstake or else it's too cold\r\n    uint48 public constant WORM_MINIMUM_STAKE_TIME = 2 days;\r\n\r\n    // Worms earn 10000 $DIRT per day\r\n    uint128 public constant WORM_EARNING_RATE = 115740740740740740; // 10000 ether / 1 days;\r\n\r\n    // Birds earn 20000 $CARROT per day\r\n    uint128 public constant BIRD_EARNING_RATE = 0;//231481481481481470; // 20000 ether / 1 days; \r\n\r\n    // Worm tax rate when claiming without unstaking\r\n    uint8 public constant WORM_CLAIM_TAX_PERCENTAGE = 20;\r\n\r\n    // Maximum size for birds - bigger birds bring more worms home to their nest and take more dirt\r\n    uint16 public constant MAXIMUM_BIRD_SIZE = 8; \r\n\r\n    //external contracts\r\n    IDIRT public dirtToken;\r\n    IWormGameNFT public wormGameNFT;\r\n    IBirdBath public birdBath;\r\n    IRandomNumberConsumer public randomNumberConsumer;\r\n\r\n    // Staking maps for both time-based and ad-hoc-earning-based\r\n    struct TimeStake { uint16 tokenId; uint48 time; address owner; }\r\n    struct EarningStake { uint16 tokenId; uint128 earningRate; address owner; } \r\n\r\n    // Events\r\n    event TokenStaked(string kind, uint16 tokenId, address owner);\r\n    event TokenUnstaked(string kind, uint16 tokenId, address owner, uint128 earnings);\r\n    event WormStolen(uint16 wormTokenId, address thief, address victim);\r\n    event DirtStolen(uint16 wormTokenId, uint256 amount, address victim);\r\n    event PayTaxToBirds(uint16 wormTokenId, uint256 amount, address taxPayer);\r\n\r\n    // Signature to prove membership and randomness\r\n    address private signVerifier;\r\n\r\n    // Staked worms\r\n    mapping(uint16 => TimeStake) public wormStakeByToken;\r\n\r\n    //Staked birds\r\n    mapping(uint16 => EarningStake[]) public birdStakeBySize; //birds grouped by size\r\n    mapping(uint16 => uint16) public birdHierarchy; // bird location within size group\r\n\r\n    // Mapping for staked tokens\r\n    //EnumerableMap.UintToAddressMap private _stakedTokens;\r\n    //mapping(address => EnumerableMap.UintMap) private _stakedTokens;\r\n\r\n    modifier requireContractsSet() {\r\n        require(address(dirtToken) != address(0) && address(wormGameNFT) != address(0) && address(birdBath) != address(0) && address(randomNumberConsumer) != address(0)\r\n        , \"Contracts not set\");\r\n        _;\r\n    }\r\n\r\n    modifier _updateEarnings() {\r\n        if (totalDirtEarned < MAXIMUM_DIRT) {\r\n            uint48 time = uint48(block.timestamp);\r\n            uint48 elapsed = time - lastClaimTimestamp;\r\n            totalDirtEarned +=                (elapsed * totalWormsStaked * WORM_EARNING_RATE) +\r\n                (elapsed * totalBirdsStaked * BIRD_EARNING_RATE);\r\n            lastClaimTimestamp = time;\r\n        }\r\n        _;\r\n    } \r\n\r\n    function setContracts(address _dirtToken, address _wormGameNFT, address _randomNumberConsumer, address _birdBath) external onlyOwner {\r\n        dirtToken = IDIRT(_dirtToken);\r\n        wormGameNFT = IWormGameNFT(_wormGameNFT);\r\n        birdBath = IBirdBath(_birdBath);\r\n        randomNumberConsumer = IRandomNumberConsumer(_randomNumberConsumer);\r\n    }\r\n    function setFeatherId(uint256 typeId) external onlyOwner {\r\n        featherTypeID = typeId;\r\n    }\r\n  /**\r\n    * Hash together proof of membership and randomness.\r\n    */\r\n    function getSigningHash(address recipient, bool membership, uint48 expiration, uint256 seed) public pure returns (bytes32) {\r\n        return keccak256(abi.encodePacked(recipient, membership, expiration, seed));\r\n    }\r\n\r\n  /**\r\n    * Validate mebership and randomness.\r\n    */\r\n    function isValidSignature(address recipient, bool membership, uint48 expiration, uint256 seed, bytes memory sig) public view returns (bool) {\r\n        bytes32 message = getSigningHash(recipient, membership, expiration, seed).toEthSignedMessageHash();\r\n        return ECDSA.recover(message, sig) == signVerifier;\r\n    }\r\n\r\n /**\r\n   * Adds Worms and Birds to their Nests and Home\r\n   * @param account the address of the staker\r\n   * @param tokenIds the IDs of the Worm and Birds to stake\r\n   */\r\n    function stakeTokens(address account, uint16[] calldata tokenIds) external override whenNotPaused nonReentrant _updateEarnings {\r\n        //require that account = user or NFT contract\r\n        require((account == msg.sender && tx.origin == msg.sender) || msg.sender == address(wormGameNFT), \"not approved to stake the token(s)\");\r\n        for (uint16 i = 0; i < tokenIds.length; i++) {\r\n\r\n            // Thieves abound and leave minting gaps\r\n            if (tokenIds[i] == 0) {\r\n                continue;\r\n            }\r\n            // Add to respective safe homes\r\n            //check if dealing with worm or bird\r\n            bool isWorm = _isWorm(tokenIds[i]);\r\n            //if it is a worm, stake it with worms.\r\n            if (isWorm) {\r\n                _addWormToSoil(account, tokenIds[i]);\r\n            } \r\n            //stake it with the birds\r\n            else{\r\n                _addBirdToNest(account, tokenIds[i]);\r\n            }\r\n\r\n            // Transfer into safe house\r\n            if (msg.sender != address(wormGameNFT)) { // dont do this step if its a mint + stake\r\n                require(wormGameNFT.ownerOf(tokenIds[i]) == msg.sender, \"only token owners can stake\");\r\n                wormGameNFT.transferFrom(msg.sender, address(this), tokenIds[i]); \r\n            }\r\n        }\r\n    }\r\n\r\n    /**\r\n    * Adds Worm to the Soil!.\r\n    * @param account the address of the staker\r\n    * @param tokenId the ID of the Worm to add to the Soil\r\n    */ \r\n    function _addWormToSoil(address account, uint16 tokenId) internal {\r\n        //update mapping for tokenId with staking struct\r\n        wormStakeByToken[tokenId] = TimeStake({\r\n            owner: account,\r\n            tokenId: tokenId,\r\n            time: uint48(block.timestamp)\r\n        });\r\n        totalWormsStaked += 1;\r\n        emit TokenStaked(\"Worm\", tokenId, account);\r\n    }\r\n\r\n  /**\r\n    * Add Bird to the Den.\r\n    * @param account the address of the staker\r\n    * @param tokenId the ID of the Bird to add to the Nest\r\n    */\r\n    function _addBirdToNest(address account, uint16 tokenId) internal {\r\n        //get Size of bird being staked\r\n        uint16 size = _getSizePoints(tokenId);\r\n        totalSizeOfBirdsStaked += size;\r\n        // Store Bird by rating\r\n        birdHierarchy[tokenId] = uint16(birdStakeBySize[size].length);\r\n        // Add bird to their size group\r\n        birdStakeBySize[size].push(EarningStake({\r\n            owner: account,\r\n            tokenId: tokenId,\r\n            earningRate: dirtPerSizePoint\r\n        }));\r\n        totalBirdsStaked += 1;\r\n        emit TokenStaked(\"Bird\", tokenId, account);\r\n    }\r\n\r\n  /**\r\n    * Realize $DIRT earnings and optionally unstake tokens.\r\n    * @param tokenIds the IDs of the tokens to claim earnings from\r\n    * @param unstake whether or not to unstake ALL of the tokens listed in tokenIds\r\n    * @param seed account seed\r\n    */\r\n    //function claimRewardsAndUnstake(uint16[] calldata tokenIds, bool unstake, bool membership, uint48 expiration, uint256 seed, bytes memory sig) external whenNotPaused nonReentrant _updateEarnings {\r\n    function claimRewardsAndUnstake(uint16[] calldata tokenIds, bool unstake, uint256 seed) external whenNotPaused nonReentrant _updateEarnings {\r\n        require(tx.origin == msg.sender, \"eos only\");\r\n        require(totalDirtEarned > 0, \"PROBLEM\");\r\n        //require(isValidSignature(msg.sender, membership, expiration, seed, sig), \"invalid signature\");\r\n        uint128 reward;\r\n        bool isWorm;\r\n        uint48 time = uint48(block.timestamp);\r\n        for (uint8 i = 0; i < tokenIds.length; i++) {\r\n            isWorm = _isWorm(tokenIds[i]);\r\n            if (isWorm) {\r\n                reward += _claimWormsFromSoil(tokenIds[i], unstake, time, seed);\r\n            } else {\r\n                reward += _claimBirdFromNest(tokenIds[i], unstake);\r\n            } \r\n        }\r\n        if (reward != 0) {\r\n            \r\n            dirtToken.mint(msg.sender, reward);\r\n        }\r\n    }\r\n\r\n  /**\r\n    * realize $DIRT earnings for a single Worm and optionally unstake it\r\n    * if not unstaking, pay a 20% tax to the staked Birds\r\n    * if unstaking, there is a 50% chance all $DIRT is stolen\r\n    * @param tokenId the ID of the Worm to claim earnings from\r\n    * @param unstake whether or not to unstake the Worm\r\n    * @param time currnet block time\r\n    * @param seed account seed\r\n    * @return reward - the amount of $DIRT earned\r\n    */\r\n    function _claimWormsFromSoil(uint16 tokenId, bool unstake, uint48 time, uint256 seed) internal returns (uint128 reward) {\r\n        TimeStake memory stake = wormStakeByToken[tokenId];\r\n        require(stake.owner == msg.sender, \"only token owners can unstake\");\r\n        //require(!(unstake && block.timestamp - stake.time < WORM_MINIMUM_STAKE_TIME), \"worms need 2 days of dirt\");\r\n        // Calculate time-based rewards\r\n        if (totalDirtEarned < MAXIMUM_DIRT) {\r\n            reward = (time - stake.time) * WORM_EARNING_RATE;\r\n        } else if (stake.time <= lastClaimTimestamp) {\r\n            // stop earning additional $DIRT if the maximum has been earned\r\n            reward = (lastClaimTimestamp - stake.time) * WORM_EARNING_RATE;\r\n        }\r\n        require(reward > 0, \"broken\");\r\n        \r\n        // Update reward based on game rules\r\n        if (unstake) {\r\n            //getCurrentSeed from RandomNumberConsumer.sol\r\n            //reseed see with some current block info and tokenId.\r\n            seed = _reseedWithTokenId(seed, tokenId);\r\n            // 50% chance that all of $DIRT earned is stolen by a bird\r\n            if (((seed >> 245) % 2) == 0) {\r\n                _payTaxToBirds(reward);\r\n                emit DirtStolen(tokenId, reward, stake.owner);\r\n                reward = 0;\r\n            }\r\n            delete wormStakeByToken[tokenId];\r\n            totalWormsStaked -= 1;\r\n            // send back Worm\r\n            wormGameNFT.safeTransferFrom(address(this), msg.sender, tokenId, \"\");\r\n        } else {\r\n            // Pay Birds their tax\r\n            _payTaxToBirds(reward * WORM_CLAIM_TAX_PERCENTAGE / 100);\r\n            reward = reward * (100 - WORM_CLAIM_TAX_PERCENTAGE) / 100;\r\n            emit PayTaxToBirds(tokenId, reward, stake.owner);\r\n            // Update last earned time\r\n            wormStakeByToken[tokenId] = TimeStake({\r\n                owner: msg.sender,\r\n                tokenId: tokenId,\r\n                time: time\r\n            });\r\n        }\r\n\r\n        emit TokenUnstaked(\"WORM\", tokenId, stake.owner, reward);\r\n    }\r\n\r\n  /**\r\n    * realize $DIRT earnings for a single Bird and optionally unstake it\r\n    * Birds earn $DIRT proportional to their Alpha rank\r\n    * @param tokenId the ID of the Bird to claim earnings from\r\n    * @param unstake whether or not to unstake the Bird\r\n    * @return reward - the amount of $DIRT earned\r\n    */\r\n    function _claimBirdFromNest(uint16 tokenId, bool unstake) internal returns (uint128 reward) {\r\n        require(wormGameNFT.ownerOf(tokenId) == address(this), \"must be staked to claim rewards\");\r\n        uint16 size = _getSizePoints(tokenId);\r\n        EarningStake memory stake = birdStakeBySize[size][birdHierarchy[tokenId]];\r\n        require(stake.owner == msg.sender, \"only token owners can unstake\");\r\n\r\n        // Calculate size-based rewards\r\n        reward = (size) * (dirtPerSizePoint - stake.earningRate);\r\n        if (unstake) {\r\n            totalSizeOfBirdsStaked -= size; // Remove Alpha from total staked\r\n            EarningStake memory lastStake = birdStakeBySize[size][birdStakeBySize[size].length - 1];\r\n            birdStakeBySize[size][birdHierarchy[tokenId]] = lastStake; // Shuffle last Bird to current position\r\n            birdHierarchy[lastStake.tokenId] = birdHierarchy[tokenId];\r\n            birdStakeBySize[size].pop(); // Remove duplicate\r\n            delete birdHierarchy[tokenId]; // Delete old mapping\r\n            totalBirdsStaked -= 1;\r\n\r\n            address recipient = msg.sender;\r\n\r\n            wormGameNFT.safeTransferFrom(address(this), recipient, tokenId, \"\");\r\n        } else {\r\n            // Update earning rate\r\n            birdStakeBySize[size][birdHierarchy[tokenId]] = EarningStake({\r\n                owner: msg.sender,\r\n                tokenId: tokenId,\r\n                earningRate: dirtPerSizePoint\r\n            });\r\n        }\r\n\r\n        emit TokenUnstaked(\"BIRD\", tokenId, stake.owner, reward);\r\n    }\r\n\r\n    /** \r\n    * Add $DIRT claimable pots for birds\r\n    * @param amount $DIRT to add to the pot\r\n    */\r\n    function _payTaxToBirds(uint128 amount) internal {\r\n        uint128 amountDueBirds = amount;\r\n\r\n        // Update Bird pools\r\n        if (totalSizeOfBirdsStaked == 0) {\r\n            unaccountedBirdRewards += amountDueBirds;\r\n        } else {\r\n            // makes sure to include any unaccounted $DIRT\r\n            dirtPerSizePoint += (amountDueBirds + unaccountedBirdRewards) / totalSizeOfBirdsStaked;\r\n            unaccountedBirdRewards = 0;\r\n        }\r\n        //does the 20% tax get evenly distributed? based on how it is now\r\n    }\r\n\r\n    function _isWorm(uint16 tokenId) internal view returns (bool) {\r\n        return wormGameNFT.isWorm(tokenId);\r\n    }\r\n\r\n\r\n//     function payTribute(uint256 dirtAmount) external whenNotPaused nonReentrant {\r\n//         require(tx.origin == _msgSender(), \"Only EOA\");\r\n\r\n//         uint16 numMinted = wormGameNFT.getNumMinted();\r\n//         uint256 dirtMintCost = wormGameNFT.getMintDirtCost(numMinted);\r\n\r\n//         require(dirtMintCost > 0, \"Sacrificial birdBath currently closed\");\r\n//         require(dirtAmount >= dirtMintCost, \"Not enough gp given\");\r\n//         dirtToken.burn(_msgSender(), dirtAmount);\r\n//         if(dirtAmount < dirtMintCost * 2) {\r\n//             birdBath.mint(1, 1, _msgSender());\r\n//         }\r\n//         else {\r\n//             birdBath.mint(2, 1, _msgSender());\r\n//         }\r\n//     }\r\n\r\n//     function makeFeather(uint16 qty) external whenNotPaused {\r\n//         require(tx.origin == _msgSender(), \"Only EOA\");\r\n//         require(featherTypeID > 0, \"DEVS DO SOMETHING\");\r\n//         require(dirtToken.balanceOf(_msgSender()) > FEATHER_COST);\r\n//         // $GP exchange amount handled within birdBath contract\r\n//         // Will fail if sender doesn't have enough $GP\r\n//         // Transfer does not need approved,\r\n//         //  as there is established trust between this contract and the birdBath contract \r\n//         dirtToken.burn(_msgSender(), FEATHER_COST);\r\n//         birdBath.mint(featherTypeID, qty, _msgSender());\r\n//     }\r\n\r\n\r\n//     function sacrifice(uint16 tokenId, uint256 dirtAmount) external whenNotPaused nonReentrant {\r\n//         require(tx.origin == _msgSender(), \"Only EOA\");\r\n//         uint64 lastTokenWrite = wormGameNFT.getTokenWriteBlock(tokenId);\r\n//         // Must check this, as getTokenTraits will be allowed since this contract is an admin\r\n//         require(lastTokenWrite < block.number, \"hmmmm what doing?\");\r\n//         IWormGameNFT.WormBirdTraits memory nft = wormGameNFT.getTraits(tokenId);\r\n\r\n//         uint16 numMinted = wormGameNFT.getNumMinted();\r\n//         uint256 dirtMintCost = wormGameNFT.getMintDirtCost(numMinted);\r\n\r\n//         require(dirtMintCost > 0, \"Sacrificial birdBath currently closed\");\r\n//         if(nft.isWorm) {\r\n//             // Wizard sacrifice requires 3x $GP curve\r\n//             require(dirtAmount >= dirtMintCost * 3, \"not enough gp provided\");\r\n//             dirtToken.burn(_msgSender(), dirtAmount);\r\n//             // This will check if origin is the owner of the token\r\n//             wormGameNFT.burn(tokenId);\r\n//             birdBath.mint(3, 1, _msgSender());\r\n//         }\r\n//         else {\r\n//             // Dragon sacrifice requires 4x $GP curve\r\n//             require(dirtAmount >= dirtMintCost * 4, \"not enough gp provided\");\r\n//             dirtToken.burn(_msgSender(), dirtAmount);\r\n//             // This will check if origin is the owner of the token\r\n//             wormGameNFT.burn(tokenId);\r\n//             birdBath.mint(4, 1, _msgSender());\r\n//         }\r\n//   }\r\n\r\n  /**\r\n    * chooses a random Bird thief when a newly minted token is stolen\r\n    * @param seed a random value to choose a Bird from\r\n    * @return the owner of the randomly selected Bird thief\r\n    */\r\n    function randomBirdOwner(uint256 seed) external view override returns (address) {\r\n        if (totalSizeOfBirdsStaked == 0) {\r\n            return address(0x0); // use 0x0 to return to msg.sender\r\n        }\r\n        // choose a value from 0 to total alpha staked\r\n        uint256 bucket = (seed & 0xFFFFFFFF) % totalSizeOfBirdsStaked;\r\n        uint256 cumulative;\r\n        seed >>= 32;\r\n        // loop through each size bucket of birds\r\n        for (uint8 k =  0; k <= MAXIMUM_BIRD_SIZE; k++) {\r\n            cumulative += birdStakeBySize[k].length * k;\r\n            // if the value is not inside of that bucket, keep going\r\n            if (bucket >= cumulative) continue;\r\n            // get the address of a random Bird with that alpha score\r\n            return birdStakeBySize[k][seed % birdStakeBySize[k].length].owner;\r\n        } \r\n        return address(0x0);\r\n    }\r\n  /**\r\n    * returns total dirt earned\r\n    * @return the total amount of dirt earned so far\r\n    */\r\n    function getTotalDirtEarned() external view override returns (uint256){\r\n        return totalDirtEarned;\r\n    }\r\n\r\n /**\r\n   * Reseeds entropy with tokenId.\r\n   * @param seed random seed\r\n   * @param tokenId additional entropy during mint\r\n   * @return rotated seed\r\n   */\r\n    function _reseedWithTokenId(uint256 seed, uint32 tokenId) internal view returns (uint256) {\r\n        return uint256(keccak256(abi.encodePacked(\r\n            seed,\r\n            tx.origin,\r\n            blockhash(block.number - 1),\r\n            block.timestamp\r\n        )));\r\n    }\r\n\r\n    function setPaused(bool _paused) external requireContractsSet onlyOwner {\r\n        if (_paused) _pause();\r\n        else _unpause();\r\n    }\r\n\r\n  /**\r\n    * gets the alpha score for a Bird\r\n    * @param tokenId the ID of the Bird to get the alpha score for\r\n    * @return the alpha score of the Bird (5-8) \r\n    * Alpha score = MAXIMUM_BIRD_SIZE - size points (we can edit this)\r\n    */\r\n    function _getSizePoints(uint16 tokenId) internal view returns (uint16) {\r\n        return MAXIMUM_BIRD_SIZE - wormGameNFT.getTraits(tokenId).size; // alpha index is 0-3\r\n    }\r\n\r\n  /**\r\n    * Interface support to allow player staking.\r\n    */\r\n    function onERC721Received(address, address from, uint256, bytes calldata) external pure override returns (bytes4) {    \r\n        require(from == address(0x0), \"only allow directly from mint\");\r\n        return IERC721Receiver.onERC721Received.selector;\r\n    }\r\n}",
  "sourcePath": "C:\\Users\\Teddy Ingrassia\\Development\\worm-game\\src\\backend\\contracts\\WormGame.sol",
  "compiler": {
    "name": "solc",
    "version": "0.8.0+commit.c7dfd78e.Emscripten.clang"
  },
  "schemaVersion": "3.4.4",
  "updatedAt": "2022-02-01T21:04:25.032Z",
  "devdoc": {
    "kind": "dev",
    "methods": {
      "claimRewardsAndUnstake(uint16[],bool,uint256)": {
        "params": {
          "seed": "account seed",
          "tokenIds": "the IDs of the tokens to claim earnings from",
          "unstake": "whether or not to unstake ALL of the tokens listed in tokenIds"
        }
      },
      "getTotalDirtEarned()": {
        "returns": {
          "_0": "the total amount of dirt earned so far"
        }
      },
      "owner()": {
        "details": "Returns the address of the current owner."
      },
      "paused()": {
        "details": "Returns true if the contract is paused, and false otherwise."
      },
      "randomBirdOwner(uint256)": {
        "params": {
          "seed": "a random value to choose a Bird from"
        },
        "returns": {
          "_0": "the owner of the randomly selected Bird thief"
        }
      },
      "renounceOwnership()": {
        "details": "Leaves the contract without owner. It will not be possible to call `onlyOwner` functions anymore. Can only be called by the current owner. NOTE: Renouncing ownership will leave the contract without an owner, thereby removing any functionality that is only available to the owner."
      },
      "stakeTokens(address,uint16[])": {
        "params": {
          "account": "the address of the staker",
          "tokenIds": "the IDs of the Worm and Birds to stake"
        }
      },
      "transferOwnership(address)": {
        "details": "Transfers ownership of the contract to a new account (`newOwner`). Can only be called by the current owner."
      }
    },
    "version": 1
  },
  "userdoc": {
    "kind": "user",
    "methods": {
      "claimRewardsAndUnstake(uint16[],bool,uint256)": {
        "notice": "Realize $DIRT earnings and optionally unstake tokens."
      },
      "getSigningHash(address,bool,uint48,uint256)": {
        "notice": "Hash together proof of membership and randomness."
      },
      "getTotalDirtEarned()": {
        "notice": "returns total dirt earned"
      },
      "isValidSignature(address,bool,uint48,uint256,bytes)": {
        "notice": "Validate mebership and randomness."
      },
      "onERC721Received(address,address,uint256,bytes)": {
        "notice": "Interface support to allow player staking."
      },
      "randomBirdOwner(uint256)": {
        "notice": "chooses a random Bird thief when a newly minted token is stolen"
      },
      "stakeTokens(address,uint16[])": {
        "notice": "Adds Worms and Birds to their Nests and Home"
      }
    },
    "version": 1
  }
}