{
  "contractName": "WormGameNFT",
  "abi": [
    {
      "inputs": [
        {
          "internalType": "address",
          "name": "dirt",
          "type": "address"
        },
        {
          "internalType": "address",
          "name": "game",
          "type": "address"
        },
        {
          "internalType": "address",
          "name": "rand",
          "type": "address"
        },
        {
          "internalType": "address",
          "name": "erc20",
          "type": "address"
        }
      ],
      "stateMutability": "nonpayable",
      "type": "constructor"
    },
    {
      "anonymous": false,
      "inputs": [
        {
          "indexed": true,
          "internalType": "address",
          "name": "owner",
          "type": "address"
        },
        {
          "indexed": true,
          "internalType": "address",
          "name": "approved",
          "type": "address"
        },
        {
          "indexed": true,
          "internalType": "uint256",
          "name": "tokenId",
          "type": "uint256"
        }
      ],
      "name": "Approval",
      "type": "event"
    },
    {
      "anonymous": false,
      "inputs": [
        {
          "indexed": true,
          "internalType": "address",
          "name": "owner",
          "type": "address"
        },
        {
          "indexed": true,
          "internalType": "address",
          "name": "operator",
          "type": "address"
        },
        {
          "indexed": false,
          "internalType": "bool",
          "name": "approved",
          "type": "bool"
        }
      ],
      "name": "ApprovalForAll",
      "type": "event"
    },
    {
      "anonymous": false,
      "inputs": [
        {
          "indexed": true,
          "internalType": "uint256",
          "name": "tokenId",
          "type": "uint256"
        }
      ],
      "name": "BirdBurned",
      "type": "event"
    },
    {
      "anonymous": false,
      "inputs": [
        {
          "indexed": true,
          "internalType": "uint256",
          "name": "tokenId",
          "type": "uint256"
        }
      ],
      "name": "BirdMinted",
      "type": "event"
    },
    {
      "anonymous": false,
      "inputs": [
        {
          "indexed": true,
          "internalType": "uint256",
          "name": "tokenId",
          "type": "uint256"
        },
        {
          "indexed": false,
          "internalType": "address",
          "name": "recipient",
          "type": "address"
        },
        {
          "indexed": false,
          "internalType": "address",
          "name": "minter",
          "type": "address"
        }
      ],
      "name": "BirdStolen",
      "type": "event"
    },
    {
      "anonymous": false,
      "inputs": [
        {
          "indexed": true,
          "internalType": "address",
          "name": "previousOwner",
          "type": "address"
        },
        {
          "indexed": true,
          "internalType": "address",
          "name": "newOwner",
          "type": "address"
        }
      ],
      "name": "OwnershipTransferred",
      "type": "event"
    },
    {
      "anonymous": false,
      "inputs": [
        {
          "indexed": false,
          "internalType": "address",
          "name": "account",
          "type": "address"
        }
      ],
      "name": "Paused",
      "type": "event"
    },
    {
      "anonymous": false,
      "inputs": [
        {
          "indexed": true,
          "internalType": "address",
          "name": "from",
          "type": "address"
        },
        {
          "indexed": true,
          "internalType": "address",
          "name": "to",
          "type": "address"
        },
        {
          "indexed": true,
          "internalType": "uint256",
          "name": "tokenId",
          "type": "uint256"
        }
      ],
      "name": "Transfer",
      "type": "event"
    },
    {
      "anonymous": false,
      "inputs": [
        {
          "indexed": false,
          "internalType": "address",
          "name": "account",
          "type": "address"
        }
      ],
      "name": "Unpaused",
      "type": "event"
    },
    {
      "anonymous": false,
      "inputs": [
        {
          "indexed": true,
          "internalType": "uint256",
          "name": "tokenId",
          "type": "uint256"
        }
      ],
      "name": "WormBurned",
      "type": "event"
    },
    {
      "anonymous": false,
      "inputs": [
        {
          "indexed": true,
          "internalType": "uint256",
          "name": "tokenId",
          "type": "uint256"
        }
      ],
      "name": "WormMinted",
      "type": "event"
    },
    {
      "anonymous": false,
      "inputs": [
        {
          "indexed": true,
          "internalType": "uint256",
          "name": "tokenId",
          "type": "uint256"
        },
        {
          "indexed": false,
          "internalType": "address",
          "name": "recipient",
          "type": "address"
        },
        {
          "indexed": false,
          "internalType": "address",
          "name": "minter",
          "type": "address"
        }
      ],
      "name": "WormStolen",
      "type": "event"
    },
    {
      "inputs": [],
      "name": "MINT_PRICE",
      "outputs": [
        {
          "internalType": "uint256",
          "name": "",
          "type": "uint256"
        }
      ],
      "stateMutability": "view",
      "type": "function"
    },
    {
      "inputs": [
        {
          "internalType": "uint256",
          "name": "",
          "type": "uint256"
        },
        {
          "internalType": "uint256",
          "name": "",
          "type": "uint256"
        }
      ],
      "name": "aliases",
      "outputs": [
        {
          "internalType": "uint8",
          "name": "",
          "type": "uint8"
        }
      ],
      "stateMutability": "view",
      "type": "function"
    },
    {
      "inputs": [
        {
          "internalType": "address",
          "name": "to",
          "type": "address"
        },
        {
          "internalType": "uint256",
          "name": "tokenId",
          "type": "uint256"
        }
      ],
      "name": "approve",
      "outputs": [],
      "stateMutability": "nonpayable",
      "type": "function"
    },
    {
      "inputs": [
        {
          "internalType": "address",
          "name": "owner",
          "type": "address"
        }
      ],
      "name": "balanceOf",
      "outputs": [
        {
          "internalType": "uint256",
          "name": "",
          "type": "uint256"
        }
      ],
      "stateMutability": "view",
      "type": "function"
    },
    {
      "inputs": [
        {
          "internalType": "uint256",
          "name": "tokenId",
          "type": "uint256"
        }
      ],
      "name": "getApproved",
      "outputs": [
        {
          "internalType": "address",
          "name": "",
          "type": "address"
        }
      ],
      "stateMutability": "view",
      "type": "function"
    },
    {
      "inputs": [
        {
          "internalType": "address",
          "name": "owner",
          "type": "address"
        },
        {
          "internalType": "address",
          "name": "operator",
          "type": "address"
        }
      ],
      "name": "isApprovedForAll",
      "outputs": [
        {
          "internalType": "bool",
          "name": "",
          "type": "bool"
        }
      ],
      "stateMutability": "view",
      "type": "function"
    },
    {
      "inputs": [],
      "name": "maxGen0",
      "outputs": [
        {
          "internalType": "uint256",
          "name": "",
          "type": "uint256"
        }
      ],
      "stateMutability": "view",
      "type": "function"
    },
    {
      "inputs": [],
      "name": "maxTokens",
      "outputs": [
        {
          "internalType": "uint256",
          "name": "",
          "type": "uint256"
        }
      ],
      "stateMutability": "view",
      "type": "function"
    },
    {
      "inputs": [],
      "name": "name",
      "outputs": [
        {
          "internalType": "string",
          "name": "",
          "type": "string"
        }
      ],
      "stateMutability": "view",
      "type": "function"
    },
    {
      "inputs": [
        {
          "internalType": "address",
          "name": "",
          "type": "address"
        }
      ],
      "name": "numGen0Minted",
      "outputs": [
        {
          "internalType": "uint32",
          "name": "",
          "type": "uint32"
        }
      ],
      "stateMutability": "view",
      "type": "function"
    },
    {
      "inputs": [],
      "name": "numMinted",
      "outputs": [
        {
          "internalType": "uint16",
          "name": "",
          "type": "uint16"
        }
      ],
      "stateMutability": "view",
      "type": "function"
    },
    {
      "inputs": [],
      "name": "owner",
      "outputs": [
        {
          "internalType": "address",
          "name": "",
          "type": "address"
        }
      ],
      "stateMutability": "view",
      "type": "function"
    },
    {
      "inputs": [],
      "name": "paused",
      "outputs": [
        {
          "internalType": "bool",
          "name": "",
          "type": "bool"
        }
      ],
      "stateMutability": "view",
      "type": "function"
    },
    {
      "inputs": [
        {
          "internalType": "uint256",
          "name": "",
          "type": "uint256"
        },
        {
          "internalType": "uint256",
          "name": "",
          "type": "uint256"
        }
      ],
      "name": "rarities",
      "outputs": [
        {
          "internalType": "uint8",
          "name": "",
          "type": "uint8"
        }
      ],
      "stateMutability": "view",
      "type": "function"
    },
    {
      "inputs": [],
      "name": "renounceOwnership",
      "outputs": [],
      "stateMutability": "nonpayable",
      "type": "function"
    },
    {
      "inputs": [
        {
          "internalType": "address",
          "name": "operator",
          "type": "address"
        },
        {
          "internalType": "bool",
          "name": "approved",
          "type": "bool"
        }
      ],
      "name": "setApprovalForAll",
      "outputs": [],
      "stateMutability": "nonpayable",
      "type": "function"
    },
    {
      "inputs": [
        {
          "internalType": "bytes4",
          "name": "interfaceId",
          "type": "bytes4"
        }
      ],
      "name": "supportsInterface",
      "outputs": [
        {
          "internalType": "bool",
          "name": "",
          "type": "bool"
        }
      ],
      "stateMutability": "view",
      "type": "function"
    },
    {
      "inputs": [],
      "name": "symbol",
      "outputs": [
        {
          "internalType": "string",
          "name": "",
          "type": "string"
        }
      ],
      "stateMutability": "view",
      "type": "function"
    },
    {
      "inputs": [
        {
          "internalType": "uint256",
          "name": "index",
          "type": "uint256"
        }
      ],
      "name": "tokenByIndex",
      "outputs": [
        {
          "internalType": "uint256",
          "name": "",
          "type": "uint256"
        }
      ],
      "stateMutability": "view",
      "type": "function"
    },
    {
      "inputs": [
        {
          "internalType": "address",
          "name": "owner",
          "type": "address"
        },
        {
          "internalType": "uint256",
          "name": "index",
          "type": "uint256"
        }
      ],
      "name": "tokenOfOwnerByIndex",
      "outputs": [
        {
          "internalType": "uint256",
          "name": "",
          "type": "uint256"
        }
      ],
      "stateMutability": "view",
      "type": "function"
    },
    {
      "inputs": [
        {
          "internalType": "uint256",
          "name": "tokenId",
          "type": "uint256"
        }
      ],
      "name": "tokenURI",
      "outputs": [
        {
          "internalType": "string",
          "name": "",
          "type": "string"
        }
      ],
      "stateMutability": "view",
      "type": "function"
    },
    {
      "inputs": [],
      "name": "totalSupply",
      "outputs": [
        {
          "internalType": "uint256",
          "name": "",
          "type": "uint256"
        }
      ],
      "stateMutability": "view",
      "type": "function"
    },
    {
      "inputs": [
        {
          "internalType": "address",
          "name": "newOwner",
          "type": "address"
        }
      ],
      "name": "transferOwnership",
      "outputs": [],
      "stateMutability": "nonpayable",
      "type": "function"
    },
    {
      "inputs": [
        {
          "internalType": "uint32",
          "name": "amount",
          "type": "uint32"
        },
        {
          "internalType": "bool",
          "name": "stake",
          "type": "bool"
        },
        {
          "internalType": "uint256",
          "name": "seed",
          "type": "uint256"
        }
      ],
      "name": "mint",
      "outputs": [],
      "stateMutability": "nonpayable",
      "type": "function"
    },
    {
      "inputs": [
        {
          "internalType": "uint256",
          "name": "tokenId",
          "type": "uint256"
        }
      ],
      "name": "burn",
      "outputs": [],
      "stateMutability": "nonpayable",
      "type": "function"
    },
    {
      "inputs": [
        {
          "internalType": "uint16",
          "name": "tokenId",
          "type": "uint16"
        }
      ],
      "name": "getMintDirtCost",
      "outputs": [
        {
          "internalType": "uint256",
          "name": "",
          "type": "uint256"
        }
      ],
      "stateMutability": "view",
      "type": "function"
    },
    {
      "inputs": [
        {
          "internalType": "address",
          "name": "owner",
          "type": "address"
        }
      ],
      "name": "tokensOf",
      "outputs": [
        {
          "internalType": "uint16[]",
          "name": "",
          "type": "uint16[]"
        }
      ],
      "stateMutability": "view",
      "type": "function"
    },
    {
      "inputs": [],
      "name": "getMaxTokens",
      "outputs": [
        {
          "internalType": "uint256",
          "name": "",
          "type": "uint256"
        }
      ],
      "stateMutability": "pure",
      "type": "function"
    },
    {
      "inputs": [],
      "name": "getGen0Supply",
      "outputs": [
        {
          "internalType": "uint256",
          "name": "",
          "type": "uint256"
        }
      ],
      "stateMutability": "pure",
      "type": "function"
    },
    {
      "inputs": [
        {
          "internalType": "uint16",
          "name": "tokenId",
          "type": "uint16"
        }
      ],
      "name": "getTraits",
      "outputs": [
        {
          "components": [
            {
              "internalType": "bool",
              "name": "isWorm",
              "type": "bool"
            },
            {
              "internalType": "uint8",
              "name": "body",
              "type": "uint8"
            },
            {
              "internalType": "uint8",
              "name": "eyes",
              "type": "uint8"
            },
            {
              "internalType": "uint8",
              "name": "mouth",
              "type": "uint8"
            },
            {
              "internalType": "uint8",
              "name": "hat",
              "type": "uint8"
            },
            {
              "internalType": "uint8",
              "name": "facialAccessory",
              "type": "uint8"
            },
            {
              "internalType": "uint8",
              "name": "tail",
              "type": "uint8"
            },
            {
              "internalType": "uint8",
              "name": "heldItem",
              "type": "uint8"
            },
            {
              "internalType": "uint8",
              "name": "size",
              "type": "uint8"
            }
          ],
          "internalType": "struct IWormGameNFT.WormBirdTraits",
          "name": "",
          "type": "tuple"
        }
      ],
      "stateMutability": "view",
      "type": "function"
    },
    {
      "inputs": [
        {
          "internalType": "bool",
          "name": "_mintingActive",
          "type": "bool"
        }
      ],
      "name": "setMintingStatus",
      "outputs": [],
      "stateMutability": "nonpayable",
      "type": "function"
    },
    {
      "inputs": [],
      "name": "getMintingStatus",
      "outputs": [
        {
          "internalType": "bool",
          "name": "",
          "type": "bool"
        }
      ],
      "stateMutability": "view",
      "type": "function"
    },
    {
      "inputs": [],
      "name": "getGen0MintingStatus",
      "outputs": [
        {
          "internalType": "bool",
          "name": "",
          "type": "bool"
        }
      ],
      "stateMutability": "view",
      "type": "function"
    },
    {
      "inputs": [],
      "name": "getNumMinted",
      "outputs": [
        {
          "internalType": "uint16",
          "name": "",
          "type": "uint16"
        }
      ],
      "stateMutability": "view",
      "type": "function"
    },
    {
      "inputs": [],
      "name": "setInitialRandomSeed",
      "outputs": [],
      "stateMutability": "nonpayable",
      "type": "function"
    },
    {
      "inputs": [],
      "name": "getRandomSeed",
      "outputs": [
        {
          "internalType": "uint256",
          "name": "",
          "type": "uint256"
        }
      ],
      "stateMutability": "nonpayable",
      "type": "function"
    },
    {
      "inputs": [
        {
          "internalType": "uint16",
          "name": "_maxMint",
          "type": "uint16"
        }
      ],
      "name": "setMaxMintAmount",
      "outputs": [],
      "stateMutability": "nonpayable",
      "type": "function"
    },
    {
      "inputs": [
        {
          "internalType": "uint256",
          "name": "tokenId",
          "type": "uint256"
        }
      ],
      "name": "getTokenWriteBlock",
      "outputs": [
        {
          "internalType": "uint64",
          "name": "",
          "type": "uint64"
        }
      ],
      "stateMutability": "view",
      "type": "function"
    },
    {
      "inputs": [
        {
          "internalType": "uint16[]",
          "name": "tokenIds",
          "type": "uint16[]"
        }
      ],
      "name": "updateOriginAccess",
      "outputs": [],
      "stateMutability": "nonpayable",
      "type": "function"
    },
    {
      "inputs": [
        {
          "internalType": "uint256",
          "name": "tokenId",
          "type": "uint256"
        }
      ],
      "name": "isWorm",
      "outputs": [
        {
          "internalType": "bool",
          "name": "",
          "type": "bool"
        }
      ],
      "stateMutability": "view",
      "type": "function"
    },
    {
      "inputs": [
        {
          "internalType": "uint256",
          "name": "tokenId",
          "type": "uint256"
        }
      ],
      "name": "ownerOf",
      "outputs": [
        {
          "internalType": "address",
          "name": "",
          "type": "address"
        }
      ],
      "stateMutability": "view",
      "type": "function"
    },
    {
      "inputs": [
        {
          "internalType": "address",
          "name": "from",
          "type": "address"
        },
        {
          "internalType": "address",
          "name": "to",
          "type": "address"
        },
        {
          "internalType": "uint256",
          "name": "tokenId",
          "type": "uint256"
        }
      ],
      "name": "transferFrom",
      "outputs": [],
      "stateMutability": "nonpayable",
      "type": "function"
    },
    {
      "inputs": [
        {
          "internalType": "address",
          "name": "from",
          "type": "address"
        },
        {
          "internalType": "address",
          "name": "to",
          "type": "address"
        },
        {
          "internalType": "uint256",
          "name": "tokenId",
          "type": "uint256"
        }
      ],
      "name": "safeTransferFrom",
      "outputs": [],
      "stateMutability": "nonpayable",
      "type": "function"
    },
    {
      "inputs": [
        {
          "internalType": "address",
          "name": "from",
          "type": "address"
        },
        {
          "internalType": "address",
          "name": "to",
          "type": "address"
        },
        {
          "internalType": "uint256",
          "name": "tokenId",
          "type": "uint256"
        },
        {
          "internalType": "bytes",
          "name": "_data",
          "type": "bytes"
        }
      ],
      "name": "safeTransferFrom",
      "outputs": [],
      "stateMutability": "nonpayable",
      "type": "function"
    }
  ],
  "bytecode": "0x6101006040526000600a60176101000a81548160ff0219169083151502179055506000600a60186101000a81548160ff021916908315150217905550600a8060196101000a81548161ffff021916908361ffff1602179055503480156200006557600080fd5b50604051620087b1380380620087b183398181016040528101906200008b919062001fa0565b6040518060400160405280600981526020017f576f726d2047616d6500000000000000000000000000000000000000000000008152506040518060400160405280600381526020017f576e42000000000000000000000000000000000000000000000000000000000081525081600090805190602001906200010f92919062001a17565b5080600190805190602001906200012892919062001a17565b5050506200014b6200013f6200194960201b60201c565b6200195160201b60201c565b6000600a60146101000a81548160ff0219169083151502179055508273ffffffffffffffffffffffffffffffffffffffff1660808173ffffffffffffffffffffffffffffffffffffffff1660601b815250508373ffffffffffffffffffffffffffffffffffffffff1660a08173ffffffffffffffffffffffffffffffffffffffff1660601b815250508173ffffffffffffffffffffffffffffffffffffffff1660c08173ffffffffffffffffffffffffffffffffffffffff1660601b815250508073ffffffffffffffffffffffffffffffffffffffff1660e08173ffffffffffffffffffffffffffffffffffffffff1660601b815250506040518060a0016040528060ff8016815260200160ff8016815260200160ff80168152602001602760ff168152602001600d60ff168152506010600060128110620002b6577f4e487b7100000000000000000000000000000000000000000000000000000000600052603260045260246000fd5b01906005620002c792919062001aa8565b506040518060a00160405280600060ff168152602001600160ff168152602001600260ff168152602001600160ff168152602001600060ff1681525060226000601281106200033f577f4e487b7100000000000000000000000000000000000000000000000000000000600052603260045260246000fd5b019060056200035092919062001aa8565b5060405180610180016040528060ff8016815260200160ff8016815260200160ff8016815260200160ff8016815260200160ff8016815260200160ff8016815260200160ff8016815260200160ff8016815260200160ff8016815260200160ff8016815260200160ff8016815260200160ff8016815250601060016012811062000403577f4e487b7100000000000000000000000000000000000000000000000000000000600052603260045260246000fd5b0190600c6200041492919062001b56565b50604051806101800160405280600060ff168152602001600160ff168152602001600260ff168152602001600360ff168152602001600460ff168152602001600560ff168152602001600660ff168152602001600760ff168152602001600860ff168152602001600960ff168152602001600a60ff168152602001600b60ff168152506022600160128110620004d3577f4e487b7100000000000000000000000000000000000000000000000000000000600052603260045260246000fd5b0190600c620004e492919062001b56565b50604051806101400160405280604060ff168152602001604060ff168152602001608060ff168152602001608060ff168152602001608060ff168152602001608060ff16815260200160bf60ff16815260200160bf60ff16815260200160ff8016815260200160ff801681525060106002601281106200058d577f4e487b7100000000000000000000000000000000000000000000000000000000600052603260045260246000fd5b0190600a6200059e92919062001c04565b50604051806101400160405280600660ff168152602001600760ff168152602001600460ff168152602001600560ff168152602001600960ff168152602001600960ff168152602001600860ff168152602001600860ff168152602001600860ff168152602001600960ff16815250602260026012811062000649577f4e487b7100000000000000000000000000000000000000000000000000000000600052603260045260246000fd5b0190600a6200065a92919062001c04565b5060405180610140016040528060ff8016815260200160ff8016815260200160ff8016815260200160ff8016815260200160ff8016815260200160ff8016815260200160ff8016815260200160ff8016815260200160ff8016815260200160ff80168152506010600360128110620006fb577f4e487b7100000000000000000000000000000000000000000000000000000000600052603260045260246000fd5b0190600a6200070c92919062001c04565b50604051806101600160405280600060ff168152602001600160ff168152602001600260ff168152602001600360ff168152602001600460ff168152602001600560ff168152602001600660ff168152602001600760ff168152602001600860ff168152602001600960ff168152602001600a60ff168152506022600360128110620007c1577f4e487b7100000000000000000000000000000000000000000000000000000000600052603260045260246000fd5b0190600b620007d292919062001cb2565b5060405180610180016040528060ff8016815260200160ff8016815260200160ff8016815260200160ff8016815260200160ff8016815260200160ff8016815260200160ff8016815260200160ff8016815260200160ff8016815260200160ff8016815260200160ff8016815260200160ff8016815250601060046012811062000885577f4e487b7100000000000000000000000000000000000000000000000000000000600052603260045260246000fd5b0190600c6200089692919062001b56565b50604051806101800160405280600060ff168152602001600160ff168152602001600260ff168152602001600360ff168152602001600460ff168152602001600560ff168152602001600660ff168152602001600760ff168152602001600860ff168152602001600960ff168152602001600a60ff168152602001600b60ff16815250602260046012811062000955577f4e487b7100000000000000000000000000000000000000000000000000000000600052603260045260246000fd5b0190600c6200096692919062001b56565b5060405180610180016040528060ff8016815260200160ff8016815260200160ff8016815260200160ff8016815260200160ff8016815260200160ff8016815260200160ff8016815260200160ff8016815260200160ff8016815260200160ff8016815260200160ff8016815260200160ff8016815250601060056012811062000a19577f4e487b7100000000000000000000000000000000000000000000000000000000600052603260045260246000fd5b0190600c62000a2a92919062001b56565b50604051806101800160405280600060ff168152602001600160ff168152602001600260ff168152602001600360ff168152602001600460ff168152602001600560ff168152602001600660ff168152602001600760ff168152602001600860ff168152602001600960ff168152602001600a60ff168152602001600b60ff16815250602260056012811062000ae9577f4e487b7100000000000000000000000000000000000000000000000000000000600052603260045260246000fd5b0190600c62000afa92919062001b56565b50604051806101c0016040528060ff8016815260200160ff8016815260200160ff8016815260200160ff8016815260200160ff8016815260200160ff8016815260200160ff8016815260200160ff8016815260200160ff8016815260200160ff8016815260200160ff8016815260200160ff8016815260200160ff8016815260200160ff8016815250601060066012811062000bbf577f4e487b7100000000000000000000000000000000000000000000000000000000600052603260045260246000fd5b0190600e62000bd092919062001d60565b50604051806101c00160405280600060ff168152602001600160ff168152602001600260ff168152602001600360ff168152602001600460ff168152602001600560ff168152602001600660ff168152602001600760ff168152602001600860ff168152602001600960ff168152602001600a60ff168152602001600b60ff168152602001600c60ff168152602001600d60ff16815250602260066012811062000ca3577f4e487b7100000000000000000000000000000000000000000000000000000000600052603260045260246000fd5b0190600e62000cb492919062001d60565b50604051806060016040528060ff8016815260200160ff8016815260200160ff8016815250601060076012811062000d15577f4e487b7100000000000000000000000000000000000000000000000000000000600052603260045260246000fd5b0190600362000d2692919062001e0e565b506040518060600160405280600060ff168152602001600160ff168152602001600260ff16815250602260076012811062000d8a577f4e487b7100000000000000000000000000000000000000000000000000000000600052603260045260246000fd5b0190600362000d9b92919062001e0e565b506040518060a0016040528060ff8016815260200160ff8016815260200160ff80168152602001602760ff168152602001600d60ff16815250601060086012811062000e10577f4e487b7100000000000000000000000000000000000000000000000000000000600052603260045260246000fd5b0190600562000e2192919062001aa8565b506040518060a00160405280600060ff168152602001600160ff168152602001600260ff168152602001600160ff168152602001600060ff16815250602260086012811062000e99577f4e487b7100000000000000000000000000000000000000000000000000000000600052603260045260246000fd5b0190600562000eaa92919062001aa8565b5060405180610180016040528060ff8016815260200160ff8016815260200160ff8016815260200160ff8016815260200160ff8016815260200160ff8016815260200160ff8016815260200160ff8016815260200160ff8016815260200160ff8016815260200160ff8016815260200160ff8016815250601060096012811062000f5d577f4e487b7100000000000000000000000000000000000000000000000000000000600052603260045260246000fd5b0190600c62000f6e92919062001b56565b50604051806101800160405280600060ff168152602001600160ff168152602001600260ff168152602001600360ff168152602001600460ff168152602001600560ff168152602001600660ff168152602001600760ff168152602001600860ff168152602001600960ff168152602001600a60ff168152602001600b60ff1681525060226009601281106200102d577f4e487b7100000000000000000000000000000000000000000000000000000000600052603260045260246000fd5b0190600c6200103e92919062001b56565b50604051806101400160405280604060ff168152602001604060ff168152602001608060ff168152602001608060ff168152602001608060ff168152602001608060ff16815260200160bf60ff16815260200160bf60ff16815260200160ff8016815260200160ff80168152506010600a60128110620010e7577f4e487b7100000000000000000000000000000000000000000000000000000000600052603260045260246000fd5b0190600a620010f892919062001c04565b50604051806101400160405280600660ff168152602001600760ff168152602001600460ff168152602001600560ff168152602001600960ff168152602001600960ff168152602001600860ff168152602001600860ff168152602001600860ff168152602001600960ff168152506022600a60128110620011a3577f4e487b7100000000000000000000000000000000000000000000000000000000600052603260045260246000fd5b0190600a620011b492919062001c04565b5060405180610140016040528060ff8016815260200160ff8016815260200160ff8016815260200160ff8016815260200160ff8016815260200160ff8016815260200160ff8016815260200160ff8016815260200160ff8016815260200160ff80168152506010600b6012811062001255577f4e487b7100000000000000000000000000000000000000000000000000000000600052603260045260246000fd5b0190600a6200126692919062001c04565b50604051806101600160405280600060ff168152602001600160ff168152602001600260ff168152602001600360ff168152602001600460ff168152602001600560ff168152602001600660ff168152602001600760ff168152602001600860ff168152602001600960ff168152602001600a60ff168152506022600b601281106200131b577f4e487b7100000000000000000000000000000000000000000000000000000000600052603260045260246000fd5b0190600b6200132c92919062001cb2565b5060405180610180016040528060ff8016815260200160ff8016815260200160ff8016815260200160ff8016815260200160ff8016815260200160ff8016815260200160ff8016815260200160ff8016815260200160ff8016815260200160ff8016815260200160ff8016815260200160ff80168152506010600c60128110620013df577f4e487b7100000000000000000000000000000000000000000000000000000000600052603260045260246000fd5b0190600c620013f092919062001b56565b50604051806101800160405280600060ff168152602001600160ff168152602001600260ff168152602001600360ff168152602001600460ff168152602001600560ff168152602001600660ff168152602001600760ff168152602001600860ff168152602001600960ff168152602001600a60ff168152602001600b60ff168152506022600c60128110620014af577f4e487b7100000000000000000000000000000000000000000000000000000000600052603260045260246000fd5b0190600c620014c092919062001b56565b5060405180610180016040528060ff8016815260200160ff8016815260200160ff8016815260200160ff8016815260200160ff8016815260200160ff8016815260200160ff8016815260200160ff8016815260200160ff8016815260200160ff8016815260200160ff8016815260200160ff80168152506010600d6012811062001573577f4e487b7100000000000000000000000000000000000000000000000000000000600052603260045260246000fd5b0190600c6200158492919062001b56565b50604051806101800160405280600060ff168152602001600160ff168152602001600260ff168152602001600360ff168152602001600460ff168152602001600560ff168152602001600660ff168152602001600760ff168152602001600860ff168152602001600960ff168152602001600a60ff168152602001600b60ff168152506022600d6012811062001643577f4e487b7100000000000000000000000000000000000000000000000000000000600052603260045260246000fd5b0190600c6200165492919062001b56565b50604051806101c0016040528060ff8016815260200160ff8016815260200160ff8016815260200160ff8016815260200160ff8016815260200160ff8016815260200160ff8016815260200160ff8016815260200160ff8016815260200160ff8016815260200160ff8016815260200160ff8016815260200160ff8016815260200160ff80168152506010600e6012811062001719577f4e487b7100000000000000000000000000000000000000000000000000000000600052603260045260246000fd5b0190600e6200172a92919062001d60565b50604051806101c00160405280600060ff168152602001600160ff168152602001600260ff168152602001600360ff168152602001600460ff168152602001600560ff168152602001600660ff168152602001600760ff168152602001600860ff168152602001600960ff168152602001600a60ff168152602001600b60ff168152602001600c60ff168152602001600d60ff168152506022600e60128110620017fd577f4e487b7100000000000000000000000000000000000000000000000000000000600052603260045260246000fd5b0190600e6200180e92919062001d60565b50604051806080016040528060ff8016815260200160ff8016815260200160ff8016815260200160ff80168152506010600f6012811062001878577f4e487b7100000000000000000000000000000000000000000000000000000000600052603260045260246000fd5b019060046200188992919062001ebc565b506040518060800160405280600060ff168152602001600160ff168152602001600260ff168152602001600360ff168152506022600f60128110620018f7577f4e487b7100000000000000000000000000000000000000000000000000000000600052603260045260246000fd5b019060046200190892919062001ebc565b506001600a60186101000a81548160ff0219169083151502179055506001600a60176101000a81548160ff02191690831515021790555050505050620020bf565b600033905090565b6000600a60009054906101000a900473ffffffffffffffffffffffffffffffffffffffff16905081600a60006101000a81548173ffffffffffffffffffffffffffffffffffffffff021916908373ffffffffffffffffffffffffffffffffffffffff1602179055508173ffffffffffffffffffffffffffffffffffffffff168173ffffffffffffffffffffffffffffffffffffffff167f8be0079c531659141344cd1fd0a4f28419497f9722a3daafe3b4186f6b6457e060405160405180910390a35050565b82805462001a259062002040565b90600052602060002090601f01602090048101928262001a49576000855562001a95565b82601f1062001a6457805160ff191683800117855562001a95565b8280016001018555821562001a95579182015b8281111562001a9457825182559160200191906001019062001a77565b5b50905062001aa4919062001f6a565b5090565b82805482825590600052602060002090601f0160209004810192821562001b435791602002820160005b8382111562001b1257835183826101000a81548160ff021916908360ff160217905550926020019260010160208160000104928301926001030262001ad2565b801562001b415782816101000a81549060ff021916905560010160208160000104928301926001030262001b12565b505b50905062001b52919062001f6a565b5090565b82805482825590600052602060002090601f0160209004810192821562001bf15791602002820160005b8382111562001bc057835183826101000a81548160ff021916908360ff160217905550926020019260010160208160000104928301926001030262001b80565b801562001bef5782816101000a81549060ff021916905560010160208160000104928301926001030262001bc0565b505b50905062001c00919062001f6a565b5090565b82805482825590600052602060002090601f0160209004810192821562001c9f5791602002820160005b8382111562001c6e57835183826101000a81548160ff021916908360ff160217905550926020019260010160208160000104928301926001030262001c2e565b801562001c9d5782816101000a81549060ff021916905560010160208160000104928301926001030262001c6e565b505b50905062001cae919062001f6a565b5090565b82805482825590600052602060002090601f0160209004810192821562001d4d5791602002820160005b8382111562001d1c57835183826101000a81548160ff021916908360ff160217905550926020019260010160208160000104928301926001030262001cdc565b801562001d4b5782816101000a81549060ff021916905560010160208160000104928301926001030262001d1c565b505b50905062001d5c919062001f6a565b5090565b82805482825590600052602060002090601f0160209004810192821562001dfb5791602002820160005b8382111562001dca57835183826101000a81548160ff021916908360ff160217905550926020019260010160208160000104928301926001030262001d8a565b801562001df95782816101000a81549060ff021916905560010160208160000104928301926001030262001dca565b505b50905062001e0a919062001f6a565b5090565b82805482825590600052602060002090601f0160209004810192821562001ea95791602002820160005b8382111562001e7857835183826101000a81548160ff021916908360ff160217905550926020019260010160208160000104928301926001030262001e38565b801562001ea75782816101000a81549060ff021916905560010160208160000104928301926001030262001e78565b505b50905062001eb8919062001f6a565b5090565b82805482825590600052602060002090601f0160209004810192821562001f575791602002820160005b8382111562001f2657835183826101000a81548160ff021916908360ff160217905550926020019260010160208160000104928301926001030262001ee6565b801562001f555782816101000a81549060ff021916905560010160208160000104928301926001030262001f26565b505b50905062001f66919062001f6a565b5090565b5b8082111562001f8557600081600090555060010162001f6b565b5090565b60008151905062001f9a81620020a5565b92915050565b6000806000806080858703121562001fb757600080fd5b600062001fc78782880162001f89565b945050602062001fda8782880162001f89565b935050604062001fed8782880162001f89565b9250506060620020008782880162001f89565b91505092959194509250565b6000620020198262002020565b9050919050565b600073ffffffffffffffffffffffffffffffffffffffff82169050919050565b600060028204905060018216806200205957607f821691505b6020821081141562002070576200206f62002076565b5b50919050565b7f4e487b7100000000000000000000000000000000000000000000000000000000600052602260045260246000fd5b620020b0816200200c565b8114620020bc57600080fd5b50565b60805160601c60a05160601c60c05160601c60e05160601c6166826200212f60003960008181612dc30152612eb2015260008181611aaa0152611def01526000612f71015260008181610bd70152818161174401528181612d670152818161300601526136e101526166826000f3fe608060405234801561001057600080fd5b50600436106102745760003560e01c80635c975abb1161015157806395d89b41116100c3578063d52079b411610087578063d52079b4146107ad578063d94f02d5146107cb578063e8315742146107e9578063e985e9c514610807578063ebd1736814610837578063f2fde38b1461086757610274565b806395d89b4114610709578063a22cb46514610727578063b88d4fde14610743578063c002d23d1461075f578063c87b56dd1461077d57610274565b8063715018a611610115578063715018a61461066b578063726a093f146106755780637420aa36146106935780638da5cb5b146106af57806393b3cc6b146106cd57806395a47652146106eb57610274565b80635c975abb146105c557806361f4b51c146105e35780636352211e146105ed5780636abcded11461061d57806370a082311461063b57610274565b80633726230a116101ea578063483be8cb116101ae578063483be8cb146104cb57806349a761a1146104fb57806349dfaef8146105175780634f6ccce71461054757806354c96c83146105775780635a3f26721461059557610274565b80633726230a146104155780633ba3d3771461043357806342842e0e1461046357806342966c681461047f57806343e55e301461049b57610274565b806318160ddd1161023c57806318160ddd1461032f57806323b872dd1461034d5780632f745c591461036957806333df4b2c1461039957806335ca838b146103c957806336838391146103e557610274565b806301ffc9a71461027957806304d48c5e146102a957806306fdde03146102c5578063081812fc146102e3578063095ea7b314610313575b600080fd5b610293600480360381019061028e9190614a90565b610883565b6040516102a09190615b06565b60405180910390f35b6102c360048036038101906102be9190614ae2565b6108fd565b005b6102cd610999565b6040516102da9190615b21565b60405180910390f35b6102fd60048036038101906102f89190614b0b565b610a2b565b60405161030a91906159c4565b60405180910390f35b61032d60048036038101906103289190614998565b610ab0565b005b610337610bc8565b6040516103449190615f1a565b60405180910390f35b61036760048036038101906103629190614892565b610bd5565b005b610383600480360381019061037e9190614998565b610c82565b6040516103909190615f1a565b60405180910390f35b6103b360048036038101906103ae9190614b5d565b610d27565b6040516103c09190615f6b565b60405180910390f35b6103e360048036038101906103de91906149d4565b610d6d565b005b6103ff60048036038101906103fa9190614b5d565b610fd9565b60405161040c9190615f6b565b60405180910390f35b61041d61101f565b60405161042a9190615eff565b60405180910390f35b61044d60048036038101906104489190614ae2565b611037565b60405161045a9190615f1a565b60405180910390f35b61047d60048036038101906104789190614892565b6110f0565b005b61049960048036038101906104949190614b0b565b611110565b005b6104b560048036038101906104b09190614ae2565b6112f6565b6040516104c29190615ee3565b60405180910390f35b6104e560048036038101906104e09190614b0b565b61142b565b6040516104f29190615b06565b60405180910390f35b61051560048036038101906105109190614b99565b61155f565b005b610531600480360381019061052c9190614804565b611830565b60405161053e9190615f35565b60405180910390f35b610561600480360381019061055c9190614b0b565b611853565b60405161056e9190615f1a565b60405180910390f35b61057f6118ea565b60405161058c9190615f1a565b60405180910390f35b6105af60048036038101906105aa9190614804565b6118f3565b6040516105bc9190615ae4565b60405180910390f35b6105cd611a15565b6040516105da9190615b06565b60405180910390f35b6105eb611a2c565b005b61060760048036038101906106029190614b0b565b611b4b565b60405161061491906159c4565b60405180910390f35b610625611b5d565b6040516106329190615f1a565b60405180910390f35b61065560048036038101906106509190614804565b611b67565b6040516106629190615f1a565b60405180910390f35b610673611c1f565b005b61067d611ca7565b60405161068a9190615f1a565b60405180910390f35b6106ad60048036038101906106a89190614a15565b611cac565b005b6106b7611d45565b6040516106c491906159c4565b60405180910390f35b6106d5611d6f565b6040516106e29190615f1a565b60405180910390f35b6106f3611e92565b6040516107009190615b06565b60405180910390f35b610711611ea9565b60405161071e9190615b21565b60405180910390f35b610741600480360381019061073c919061495c565b611f3b565b005b61075d600480360381019061075891906148e1565b611f51565b005b610767611f63565b6040516107749190615f1a565b60405180910390f35b61079760048036038101906107929190614b0b565b611f6e565b6040516107a49190615b21565b60405180910390f35b6107b5612015565b6040516107c29190615eff565b60405180910390f35b6107d3612029565b6040516107e09190615b06565b60405180910390f35b6107f1612040565b6040516107fe9190615f1a565b60405180910390f35b610821600480360381019061081c9190614856565b612046565b60405161082e9190615b06565b60405180910390f35b610851600480360381019061084c9190614b0b565b6120da565b60405161085e9190615f50565b60405180910390f35b610881600480360381019061087c9190614804565b6121a1565b005b60007f780e9d63000000000000000000000000000000000000000000000000000000007bffffffffffffffffffffffffffffffffffffffffffffffffffffffff1916827bffffffffffffffffffffffffffffffffffffffffffffffffffffffff191614806108f657506108f582612299565b5b9050919050565b61090561237b565b73ffffffffffffffffffffffffffffffffffffffff16610923611d45565b73ffffffffffffffffffffffffffffffffffffffff1614610979576040517f08c379a000000000000000000000000000000000000000000000000000000000815260040161097090615dc3565b60405180910390fd5b80600a60196101000a81548161ffff021916908361ffff16021790555050565b6060600080546109a890616314565b80601f01602080910402602001604051908101604052809291908181526020018280546109d490616314565b8015610a215780601f106109f657610100808354040283529160200191610a21565b820191906000526020600020905b815481529060010190602001808311610a0457829003601f168201915b5050505050905090565b6000610a3682612383565b610a75576040517f08c379a0000000000000000000000000000000000000000000000000000000008152600401610a6c90615da3565b60405180910390fd5b6004600083815260200190815260200160002060009054906101000a900473ffffffffffffffffffffffffffffffffffffffff169050919050565b6000610abb826123ef565b90508073ffffffffffffffffffffffffffffffffffffffff168373ffffffffffffffffffffffffffffffffffffffff161415610b2c576040517f08c379a0000000000000000000000000000000000000000000000000000000008152600401610b2390615e23565b60405180910390fd5b8073ffffffffffffffffffffffffffffffffffffffff16610b4b61237b565b73ffffffffffffffffffffffffffffffffffffffff161480610b7a5750610b7981610b7461237b565b612046565b5b610bb9576040517f08c379a0000000000000000000000000000000000000000000000000000000008152600401610bb090615ce3565b60405180910390fd5b610bc383836124a1565b505050565b6000600880549050905090565b7f000000000000000000000000000000000000000000000000000000000000000073ffffffffffffffffffffffffffffffffffffffff163373ffffffffffffffffffffffffffffffffffffffff1614610c7257610c32338261255a565b610c71576040517f08c379a0000000000000000000000000000000000000000000000000000000008152600401610c6890615ea3565b60405180910390fd5b5b610c7d838383612638565b505050565b6000610c8d83611b67565b8210610cce576040517f08c379a0000000000000000000000000000000000000000000000000000000008152600401610cc590615b83565b60405180910390fd5b600660008473ffffffffffffffffffffffffffffffffffffffff1673ffffffffffffffffffffffffffffffffffffffff168152602001908152602001600020600083815260200190815260200160002054905092915050565b60108260128110610d3757600080fd5b018181548110610d4657600080fd5b9060005260206000209060209182820401919006915091509054906101000a900460ff1681565b60346000610d7961237b565b73ffffffffffffffffffffffffffffffffffffffff1673ffffffffffffffffffffffffffffffffffffffff16815260200190815260200160002060009054906101000a900460ff16610e00576040517f08c379a0000000000000000000000000000000000000000000000000000000008152600401610df790615be3565b60405180910390fd5b6000439050600042905060405180604001604052808267ffffffffffffffff1681526020018367ffffffffffffffff16815250600e60003273ffffffffffffffffffffffffffffffffffffffff1673ffffffffffffffffffffffffffffffffffffffff16815260200190815260200160002060008201518160000160006101000a81548167ffffffffffffffff021916908367ffffffffffffffff16021790555060208201518160000160086101000a81548167ffffffffffffffff021916908367ffffffffffffffff16021790555090505060005b8351811015610fd35760405180604001604052808367ffffffffffffffff1681526020018467ffffffffffffffff16815250600f6000868481518110610f45577f4e487b7100000000000000000000000000000000000000000000000000000000600052603260045260246000fd5b602002602001015161ffff16815260200190815260200160002060008201518160000160006101000a81548167ffffffffffffffff021916908367ffffffffffffffff16021790555060208201518160000160086101000a81548167ffffffffffffffff021916908367ffffffffffffffff1602179055509050508080610fcb90616371565b915050610ed6565b50505050565b60228260128110610fe957600080fd5b018181548110610ff857600080fd5b9060005260206000209060209182820401919006915091509054906101000a900460ff1681565b6000600a60159054906101000a900461ffff16905090565b600060648261ffff1611158015611061575060011515600a60189054906101000a900460ff161515145b1561106f57600090506110eb565b6005600261d6d86110809190616187565b61108a9190616156565b8261ffff16116110a65769054b40b1f852bda0000090506110eb565b6005600461d6d86110b79190616187565b6110c19190616156565b8261ffff16116110dd5769098774738bc82220000090506110eb565b690fe1c215e8f838e0000090505b919050565b61110b83838360405180602001604052806000815250611f51565b505050565b611118611a15565b15611158576040517f08c379a000000000000000000000000000000000000000000000000000000000815260040161114f90615cc3565b60405180910390fd5b6034600061116461237b565b73ffffffffffffffffffffffffffffffffffffffff1673ffffffffffffffffffffffffffffffffffffffff16815260200190815260200160002060009054906101000a900460ff166111eb576040517f08c379a00000000000000000000000000000000000000000000000000000000081526004016111e290615be3565b60405180910390fd5b3273ffffffffffffffffffffffffffffffffffffffff1661120b82611b4b565b73ffffffffffffffffffffffffffffffffffffffff1614611261576040517f08c379a000000000000000000000000000000000000000000000000000000000815260040161125890615c63565b60405180910390fd5b600d600082815260200190815260200160002060000160009054906101000a900460ff16156112bc57807f543504fd97615b33e84a85c2388efead14344c06fd28002692cf17919c0b7a7560405160405180910390a26112ea565b807faf576480b9f33629846fa03a66e9f654ed816cf2b04d2fd9f44ba6ccd22c26c760405160405180910390a25b6112f381612894565b50565b6112fe6145b9565b600d60008361ffff168152602001908152602001600020604051806101200160405290816000820160009054906101000a900460ff161515151581526020016000820160019054906101000a900460ff1660ff1660ff1681526020016000820160029054906101000a900460ff1660ff1660ff1681526020016000820160039054906101000a900460ff1660ff1660ff1681526020016000820160049054906101000a900460ff1660ff1660ff1681526020016000820160059054906101000a900460ff1660ff1660ff1681526020016000820160069054906101000a900460ff1660ff1660ff1681526020016000820160079054906101000a900460ff1660ff1660ff1681526020016000820160089054906101000a900460ff1660ff1660ff16815250509050919050565b600080600d6000848152602001908152602001600020604051806101200160405290816000820160009054906101000a900460ff161515151581526020016000820160019054906101000a900460ff1660ff1660ff1681526020016000820160029054906101000a900460ff1660ff1660ff1681526020016000820160039054906101000a900460ff1660ff1660ff1681526020016000820160049054906101000a900460ff1660ff1660ff1681526020016000820160059054906101000a900460ff1660ff1660ff1681526020016000820160069054906101000a900460ff1660ff1660ff1681526020016000820160079054906101000a900460ff1660ff1660ff1681526020016000820160089054906101000a900460ff1660ff1660ff168152505090508060000151915050919050565b611567611a15565b156115a7576040517f08c379a000000000000000000000000000000000000000000000000000000000815260040161159e90615cc3565b60405180910390fd5b3373ffffffffffffffffffffffffffffffffffffffff163273ffffffffffffffffffffffffffffffffffffffff1614611615576040517f08c379a000000000000000000000000000000000000000000000000000000000815260040161160c90615c83565b60405180910390fd5b60008363ffffffff161180156116455750600a60199054906101000a900461ffff1661ffff168363ffffffff1611155b611684576040517f08c379a000000000000000000000000000000000000000000000000000000000815260040161167b90615b43565b60405180910390fd5b600a60179054906101000a900460ff166116d3576040517f08c379a00000000000000000000000000000000000000000000000000000000081526004016116ca90615ec3565b60405180910390fd5b61d6d883600a60159054906101000a900461ffff1661ffff166116f691906160e5565b63ffffffff16111561173d576040517f08c379a000000000000000000000000000000000000000000000000000000000815260040161173490615d63565b60405180910390fd5b63b2d05e007f000000000000000000000000000000000000000000000000000000000000000073ffffffffffffffffffffffffffffffffffffffff16639ba879256040518163ffffffff1660e01b815260040160206040518083038186803b1580156117a857600080fd5b505afa1580156117bc573d6000803e3d6000fd5b505050506040513d601f19601f820116820180604052508101906117e09190614b34565b10611820576040517f08c379a000000000000000000000000000000000000000000000000000000000815260040161181790615b63565b60405180910390fd5b61182b8383836129a5565b505050565b600b6020528060005260406000206000915054906101000a900463ffffffff1681565b600061185d610bc8565b821061189e576040517f08c379a000000000000000000000000000000000000000000000000000000000815260040161189590615e63565b60405180910390fd5b600882815481106118d8577f4e487b7100000000000000000000000000000000000000000000000000000000600052603260045260246000fd5b90600052602060002001549050919050565b60006064905090565b6060600061190083611b67565b905060008163ffffffff1667ffffffffffffffff81111561194a577f4e487b7100000000000000000000000000000000000000000000000000000000600052604160045260246000fd5b6040519080825280602002602001820160405280156119785781602001602082028036833780820191505090505b50905060005b8263ffffffff168163ffffffff161015611a0a576119a2858263ffffffff16610c82565b828263ffffffff16815181106119e1577f4e487b7100000000000000000000000000000000000000000000000000000000600052603260045260246000fd5b602002602001019061ffff16908161ffff16815250508080611a02906163ba565b91505061197e565b508092505050919050565b6000600a60149054906101000a900460ff16905090565b611a3461237b565b73ffffffffffffffffffffffffffffffffffffffff16611a52611d45565b73ffffffffffffffffffffffffffffffffffffffff1614611aa8576040517f08c379a0000000000000000000000000000000000000000000000000000000008152600401611a9f90615dc3565b60405180910390fd5b7f000000000000000000000000000000000000000000000000000000000000000073ffffffffffffffffffffffffffffffffffffffff1663dbdff2c16040518163ffffffff1660e01b8152600401602060405180830381600087803b158015611b1057600080fd5b505af1158015611b24573d6000803e3d6000fd5b505050506040513d601f19601f82011682018060405250810190611b489190614a67565b50565b6000611b56826123ef565b9050919050565b600061d6d8905090565b60008073ffffffffffffffffffffffffffffffffffffffff168273ffffffffffffffffffffffffffffffffffffffff161415611bd8576040517f08c379a0000000000000000000000000000000000000000000000000000000008152600401611bcf90615d23565b60405180910390fd5b600360008373ffffffffffffffffffffffffffffffffffffffff1673ffffffffffffffffffffffffffffffffffffffff168152602001908152602001600020549050919050565b611c2761237b565b73ffffffffffffffffffffffffffffffffffffffff16611c45611d45565b73ffffffffffffffffffffffffffffffffffffffff1614611c9b576040517f08c379a0000000000000000000000000000000000000000000000000000000008152600401611c9290615dc3565b60405180910390fd5b611ca5600061309c565b565b606481565b611cb461237b565b73ffffffffffffffffffffffffffffffffffffffff16611cd2611d45565b73ffffffffffffffffffffffffffffffffffffffff1614611d28576040517f08c379a0000000000000000000000000000000000000000000000000000000008152600401611d1f90615dc3565b60405180910390fd5b80600a60176101000a81548160ff02191690831515021790555050565b6000600a60009054906101000a900473ffffffffffffffffffffffffffffffffffffffff16905090565b6000611d7961237b565b73ffffffffffffffffffffffffffffffffffffffff16611d97611d45565b73ffffffffffffffffffffffffffffffffffffffff1614611ded576040517f08c379a0000000000000000000000000000000000000000000000000000000008152600401611de490615dc3565b60405180910390fd5b7f000000000000000000000000000000000000000000000000000000000000000073ffffffffffffffffffffffffffffffffffffffff1663d614dd926040518163ffffffff1660e01b8152600401602060405180830381600087803b158015611e5557600080fd5b505af1158015611e69573d6000803e3d6000fd5b505050506040513d601f19601f82011682018060405250810190611e8d9190614b34565b905090565b6000600a60179054906101000a900460ff16905090565b606060018054611eb890616314565b80601f0160208091040260200160405190810160405280929190818152602001828054611ee490616314565b8015611f315780601f10611f0657610100808354040283529160200191611f31565b820191906000526020600020905b815481529060010190602001808311611f1457829003601f168201915b5050505050905090565b611f4d611f4661237b565b8383613162565b5050565b611f5d848484846132cf565b50505050565b66b1a2bc2ec5000081565b6060611f7982612383565b611fb8576040517f08c379a0000000000000000000000000000000000000000000000000000000008152600401611faf90615e03565b60405180910390fd5b6000611fc2613331565b90506000815111611fe2576040518060200160405280600081525061200d565b80611fec84613348565b604051602001611ffd929190615941565b6040516020818303038152906040525b915050919050565b600a60159054906101000a900461ffff1681565b6000600a60189054906101000a900460ff16905090565b61d6d881565b6000600560008473ffffffffffffffffffffffffffffffffffffffff1673ffffffffffffffffffffffffffffffffffffffff16815260200190815260200160002060008373ffffffffffffffffffffffffffffffffffffffff1673ffffffffffffffffffffffffffffffffffffffff16815260200190815260200160002060009054906101000a900460ff16905092915050565b6000603460006120e861237b565b73ffffffffffffffffffffffffffffffffffffffff1673ffffffffffffffffffffffffffffffffffffffff16815260200190815260200160002060009054906101000a900460ff1661216f576040517f08c379a000000000000000000000000000000000000000000000000000000000815260040161216690615be3565b60405180910390fd5b600f600083815260200190815260200160002060000160089054906101000a900467ffffffffffffffff169050919050565b6121a961237b565b73ffffffffffffffffffffffffffffffffffffffff166121c7611d45565b73ffffffffffffffffffffffffffffffffffffffff161461221d576040517f08c379a000000000000000000000000000000000000000000000000000000000815260040161221490615dc3565b60405180910390fd5b600073ffffffffffffffffffffffffffffffffffffffff168173ffffffffffffffffffffffffffffffffffffffff16141561228d576040517f08c379a000000000000000000000000000000000000000000000000000000000815260040161228490615bc3565b60405180910390fd5b6122968161309c565b50565b60007f80ac58cd000000000000000000000000000000000000000000000000000000007bffffffffffffffffffffffffffffffffffffffffffffffffffffffff1916827bffffffffffffffffffffffffffffffffffffffffffffffffffffffff1916148061236457507f5b5e139f000000000000000000000000000000000000000000000000000000007bffffffffffffffffffffffffffffffffffffffffffffffffffffffff1916827bffffffffffffffffffffffffffffffffffffffffffffffffffffffff1916145b806123745750612373826134f5565b5b9050919050565b600033905090565b60008073ffffffffffffffffffffffffffffffffffffffff166002600084815260200190815260200160002060009054906101000a900473ffffffffffffffffffffffffffffffffffffffff1673ffffffffffffffffffffffffffffffffffffffff1614159050919050565b6000806002600084815260200190815260200160002060009054906101000a900473ffffffffffffffffffffffffffffffffffffffff169050600073ffffffffffffffffffffffffffffffffffffffff168173ffffffffffffffffffffffffffffffffffffffff161415612498576040517f08c379a000000000000000000000000000000000000000000000000000000000815260040161248f90615d43565b60405180910390fd5b80915050919050565b816004600083815260200190815260200160002060006101000a81548173ffffffffffffffffffffffffffffffffffffffff021916908373ffffffffffffffffffffffffffffffffffffffff160217905550808273ffffffffffffffffffffffffffffffffffffffff16612514836123ef565b73ffffffffffffffffffffffffffffffffffffffff167f8c5be1e5ebec7d5bd14f71427d1e84f3dd0314c0f7b2291e5b200ac8c7c3b92560405160405180910390a45050565b600061256582612383565b6125a4576040517f08c379a000000000000000000000000000000000000000000000000000000000815260040161259b90615ca3565b60405180910390fd5b60006125af836123ef565b90508073ffffffffffffffffffffffffffffffffffffffff168473ffffffffffffffffffffffffffffffffffffffff16148061261e57508373ffffffffffffffffffffffffffffffffffffffff1661260684610a2b565b73ffffffffffffffffffffffffffffffffffffffff16145b8061262f575061262e8185612046565b5b91505092915050565b8273ffffffffffffffffffffffffffffffffffffffff16612658826123ef565b73ffffffffffffffffffffffffffffffffffffffff16146126ae576040517f08c379a00000000000000000000000000000000000000000000000000000000081526004016126a590615de3565b60405180910390fd5b600073ffffffffffffffffffffffffffffffffffffffff168273ffffffffffffffffffffffffffffffffffffffff16141561271e576040517f08c379a000000000000000000000000000000000000000000000000000000000815260040161271590615c23565b60405180910390fd5b61272983838361355f565b6127346000826124a1565b6001600360008573ffffffffffffffffffffffffffffffffffffffff1673ffffffffffffffffffffffffffffffffffffffff168152602001908152602001600020600082825461278491906161e1565b925050819055506001600360008473ffffffffffffffffffffffffffffffffffffffff1673ffffffffffffffffffffffffffffffffffffffff16815260200190815260200160002060008282546127db919061608f565b92505081905550816002600083815260200190815260200160002060006101000a81548173ffffffffffffffffffffffffffffffffffffffff021916908373ffffffffffffffffffffffffffffffffffffffff160217905550808273ffffffffffffffffffffffffffffffffffffffff168473ffffffffffffffffffffffffffffffffffffffff167fddf252ad1be2c89b69c2b068fc378daa952ba7f163c4a11628f55a4df523b3ef60405160405180910390a4505050565b600061289f826123ef565b90506128ad8160008461355f565b6128b86000836124a1565b6001600360008373ffffffffffffffffffffffffffffffffffffffff1673ffffffffffffffffffffffffffffffffffffffff168152602001908152602001600020600082825461290891906161e1565b925050819055506002600083815260200190815260200160002060006101000a81549073ffffffffffffffffffffffffffffffffffffffff021916905581600073ffffffffffffffffffffffffffffffffffffffff168273ffffffffffffffffffffffffffffffffffffffff167fddf252ad1be2c89b69c2b068fc378daa952ba7f163c4a11628f55a4df523b3ef60405160405180910390a45050565b60008083612a2257600067ffffffffffffffff8111156129ee577f4e487b7100000000000000000000000000000000000000000000000000000000600052604160045260246000fd5b604051908082528060200260200182016040528015612a1c5781602001602082028036833780820191505090505b50612a98565b8463ffffffff1667ffffffffffffffff811115612a68577f4e487b7100000000000000000000000000000000000000000000000000000000600052604160045260246000fd5b604051908082528060200260200182016040528015612a965781602001602082028036833780820191505090505b505b90506000806000859050606488600a60159054906101000a900461ffff1661ffff16612ac491906160e5565b63ffffffff1611158015612aeb575060011515600a60189054906101000a900460ff161515145b15612b0c5766b1a2bc2ec500008863ffffffff16612b099190616187565b91505b60005b8863ffffffff168163ffffffff161015612db557600a601581819054906101000a900461ffff1680929190612b4390616346565b91906101000a81548161ffff021916908361ffff16021790555050612b77600a60159054906101000a900461ffff16611037565b84612b82919061608f565b9350612b8e8282613673565b91506000612b9b836136bc565b9050612bb9600a60159054906101000a900461ffff168460006137d6565b6000015196503373ffffffffffffffffffffffffffffffffffffffff168173ffffffffffffffffffffffffffffffffffffffff1614612c9b578615612c4b57600a60159054906101000a900461ffff1661ffff167fabfbcb07cd323f6ea8c485ddc7585ce4f52cc78f786b602ea5dcea6ece5167f58233604051612c3e9291906159df565b60405180910390a2612c9a565b600a60159054906101000a900461ffff1661ffff167f05594d572213d98db39f7c88d7ffe36821ec2249b79e1149c4d35ee90af900578233604051612c919291906159df565b60405180910390a25b5b881580612cd457503373ffffffffffffffffffffffffffffffffffffffff168173ffffffffffffffffffffffffffffffffffffffff1614155b15612cfc57612cf781600a60159054906101000a900461ffff1661ffff16613a00565b612da1565b600a60159054906101000a900461ffff16868363ffffffff1681518110612d4c577f4e487b7100000000000000000000000000000000000000000000000000000000600052603260045260246000fd5b602002602001019061ffff16908161ffff1681525050612da07f0000000000000000000000000000000000000000000000000000000000000000600a60159054906101000a900461ffff1661ffff16613a00565b5b508080612dad906163ba565b915050612b0f565b506000821115612f665760007f000000000000000000000000000000000000000000000000000000000000000073ffffffffffffffffffffffffffffffffffffffff1663dd62ed3e33306040518363ffffffff1660e01b8152600401612e1c9291906159df565b60206040518083038186803b158015612e3457600080fd5b505afa158015612e48573d6000803e3d6000fd5b505050506040513d601f19601f82011682018060405250810190612e6c9190614b34565b9050828114612eb0576040517f08c379a0000000000000000000000000000000000000000000000000000000008152600401612ea790615d03565b60405180910390fd5b7f000000000000000000000000000000000000000000000000000000000000000073ffffffffffffffffffffffffffffffffffffffff166323b872dd3330866040518463ffffffff1660e01b8152600401612f0d93929190615a08565b602060405180830381600087803b158015612f2757600080fd5b505af1158015612f3b573d6000803e3d6000fd5b505050506040513d601f19601f82011682018060405250810190612f5f9190614a3e565b5050612ffe565b6000831115612ffd577f000000000000000000000000000000000000000000000000000000000000000073ffffffffffffffffffffffffffffffffffffffff16639dc29fac33856040518363ffffffff1660e01b8152600401612fca929190615abb565b600060405180830381600087803b158015612fe457600080fd5b505af1158015612ff8573d6000803e3d6000fd5b505050505b5b8615613092577f000000000000000000000000000000000000000000000000000000000000000073ffffffffffffffffffffffffffffffffffffffff16639284937733866040518363ffffffff1660e01b815260040161305f929190615a8b565b600060405180830381600087803b15801561307957600080fd5b505af115801561308d573d6000803e3d6000fd5b505050505b5050505050505050565b6000600a60009054906101000a900473ffffffffffffffffffffffffffffffffffffffff16905081600a60006101000a81548173ffffffffffffffffffffffffffffffffffffffff021916908373ffffffffffffffffffffffffffffffffffffffff1602179055508173ffffffffffffffffffffffffffffffffffffffff168173ffffffffffffffffffffffffffffffffffffffff167f8be0079c531659141344cd1fd0a4f28419497f9722a3daafe3b4186f6b6457e060405160405180910390a35050565b8173ffffffffffffffffffffffffffffffffffffffff168373ffffffffffffffffffffffffffffffffffffffff1614156131d1576040517f08c379a00000000000000000000000000000000000000000000000000000000081526004016131c890615c43565b60405180910390fd5b80600560008573ffffffffffffffffffffffffffffffffffffffff1673ffffffffffffffffffffffffffffffffffffffff16815260200190815260200160002060008473ffffffffffffffffffffffffffffffffffffffff1673ffffffffffffffffffffffffffffffffffffffff16815260200190815260200160002060006101000a81548160ff0219169083151502179055508173ffffffffffffffffffffffffffffffffffffffff168373ffffffffffffffffffffffffffffffffffffffff167f17307eab39ab6107e8899845ad3d59bd9653f200f220920489ca2b5937696c31836040516132c29190615b06565b60405180910390a3505050565b6132e06132da61237b565b8361255a565b61331f576040517f08c379a000000000000000000000000000000000000000000000000000000000815260040161331690615e43565b60405180910390fd5b61332b84848484613a1e565b50505050565b606060405180602001604052806000815250905090565b60606000821415613390576040518060400160405280600181526020017f300000000000000000000000000000000000000000000000000000000000000081525090506134f0565b600082905060005b600082146133c25780806133ab90616371565b915050600a826133bb9190616156565b9150613398565b60008167ffffffffffffffff811115613404577f4e487b7100000000000000000000000000000000000000000000000000000000600052604160045260246000fd5b6040519080825280601f01601f1916602001820160405280156134365781602001600182028036833780820191505090505b5090505b600085146134e95760018261344f91906161e1565b9150600a8561345e9190616455565b603061346a919061608f565b60f81b8183815181106134a6577f4e487b7100000000000000000000000000000000000000000000000000000000600052603260045260246000fd5b60200101907effffffffffffffffffffffffffffffffffffffffffffffffffffffffffffff1916908160001a905350600a856134e29190616156565b945061343a565b8093505050505b919050565b60007f01ffc9a7000000000000000000000000000000000000000000000000000000007bffffffffffffffffffffffffffffffffffffffffffffffffffffffff1916827bffffffffffffffffffffffffffffffffffffffffffffffffffffffff1916149050919050565b61356a838383613a7a565b600073ffffffffffffffffffffffffffffffffffffffff168373ffffffffffffffffffffffffffffffffffffffff1614156135ad576135a881613a7f565b6135ec565b8173ffffffffffffffffffffffffffffffffffffffff168373ffffffffffffffffffffffffffffffffffffffff16146135eb576135ea8382613ac8565b5b5b600073ffffffffffffffffffffffffffffffffffffffff168273ffffffffffffffffffffffffffffffffffffffff16141561362f5761362a81613c35565b61366e565b8273ffffffffffffffffffffffffffffffffffffffff168273ffffffffffffffffffffffffffffffffffffffff161461366d5761366c8282613d78565b5b5b505050565b600082823260014361368591906161e1565b404260405160200161369b959493929190615965565b6040516020818303038152906040528051906020012060001c905092915050565b600080600260f584901c6136d09190616455565b146136dd573390506137d1565b60007f000000000000000000000000000000000000000000000000000000000000000073ffffffffffffffffffffffffffffffffffffffff16637669d48b609085901c6040518263ffffffff1660e01b815260040161373c9190615f1a565b60206040518083038186803b15801561375457600080fd5b505afa158015613768573d6000803e3d6000fd5b505050506040513d601f19601f8201168201806040525081019061378c919061482d565b9050600073ffffffffffffffffffffffffffffffffffffffff168173ffffffffffffffffffffffffffffffffffffffff1614156137cc57339150506137d1565b809150505b919050565b6137de6145b9565b60068260ff1610613824576040517f08c379a000000000000000000000000000000000000000000000000000000000815260040161381b90615e83565b60405180910390fd5b61382d83613df7565b9050600c600061383c83613fd1565b815260200190815260200160002060009054906101000a900460ff166139d95780600d60008661ffff16815260200190815260200160002060008201518160000160006101000a81548160ff02191690831515021790555060208201518160000160016101000a81548160ff021916908360ff16021790555060408201518160000160026101000a81548160ff021916908360ff16021790555060608201518160000160036101000a81548160ff021916908360ff16021790555060808201518160000160046101000a81548160ff021916908360ff16021790555060a08201518160000160056101000a81548160ff021916908360ff16021790555060c08201518160000160066101000a81548160ff021916908360ff16021790555060e08201518160000160076101000a81548160ff021916908360ff1602179055506101008201518160000160086101000a81548160ff021916908360ff1602179055509050506001600c60006139af84613fd1565b815260200190815260200160002060006101000a81548160ff0219169083151502179055506139f9565b6139f6848360ff1685901c6001856139f1919061611f565b6137d6565b90505b9392505050565b613a1a828260405180602001604052806000815250614039565b5050565b613a29848484612638565b613a3584848484614094565b613a74576040517f08c379a0000000000000000000000000000000000000000000000000000000008152600401613a6b90615ba3565b60405180910390fd5b50505050565b505050565b6008805490506009600083815260200190815260200160002081905550600881908060018154018082558091505060019003906000526020600020016000909190919091505550565b60006001613ad584611b67565b613adf91906161e1565b9050600060076000848152602001908152602001600020549050818114613bc4576000600660008673ffffffffffffffffffffffffffffffffffffffff1673ffffffffffffffffffffffffffffffffffffffff168152602001908152602001600020600084815260200190815260200160002054905080600660008773ffffffffffffffffffffffffffffffffffffffff1673ffffffffffffffffffffffffffffffffffffffff168152602001908152602001600020600084815260200190815260200160002081905550816007600083815260200190815260200160002081905550505b6007600084815260200190815260200160002060009055600660008573ffffffffffffffffffffffffffffffffffffffff1673ffffffffffffffffffffffffffffffffffffffff16815260200190815260200160002060008381526020019081526020016000206000905550505050565b60006001600880549050613c4991906161e1565b9050600060096000848152602001908152602001600020549050600060088381548110613c9f577f4e487b7100000000000000000000000000000000000000000000000000000000600052603260045260246000fd5b906000526020600020015490508060088381548110613ce7577f4e487b7100000000000000000000000000000000000000000000000000000000600052603260045260246000fd5b906000526020600020018190555081600960008381526020019081526020016000208190555060096000858152602001908152602001600020600090556008805480613d5c577f4e487b7100000000000000000000000000000000000000000000000000000000600052603160045260246000fd5b6001900381819060005260206000200160009055905550505050565b6000613d8383611b67565b905081600660008573ffffffffffffffffffffffffffffffffffffffff1673ffffffffffffffffffffffffffffffffffffffff168152602001908152602001600020600083815260200190815260200160002081905550806007600084815260200190815260200160002081905550505050565b613dff6145b9565b6000600361ffff8416613e129190616455565b141581600001901515908115158152505060008160000151613e35576008613e38565b60005b9050601083901c9250613e5b61ffff8416826000613e56919061611f565b61422b565b826020019060ff16908160ff1681525050601083901c9250613e8d61ffff8416826001613e88919061611f565b61422b565b826040019060ff16908160ff1681525050601083901c9250613ebf61ffff8416826002613eba919061611f565b61422b565b826060019060ff16908160ff1681525050601083901c9250613ef161ffff8416826003613eec919061611f565b61422b565b826080019060ff16908160ff1681525050601083901c9250613f2361ffff8416826004613f1e919061611f565b61422b565b8260a0019060ff16908160ff1681525050601083901c9250613f5561ffff8416826005613f50919061611f565b61422b565b8260c0019060ff16908160ff1681525050601083901c9250613f8761ffff8416826006613f82919061611f565b61422b565b8260e0019060ff16908160ff1681525050601083901c9250613fb961ffff8416826007613fb4919061611f565b61422b565b82610100019060ff16908160ff168152505050919050565b6000816000015182602001518360400151846060015185608001518660a001518760c001518860e001518961010001516040516020016140199998979695949392919061589e565b6040516020818303038152906040528051906020012060001c9050919050565b61404383836143d8565b6140506000848484614094565b61408f576040517f08c379a000000000000000000000000000000000000000000000000000000000815260040161408690615ba3565b60405180910390fd5b505050565b60006140b58473ffffffffffffffffffffffffffffffffffffffff166145a6565b1561421e578373ffffffffffffffffffffffffffffffffffffffff1663150b7a026140de61237b565b8786866040518563ffffffff1660e01b81526004016141009493929190615a3f565b602060405180830381600087803b15801561411a57600080fd5b505af192505050801561414b57506040513d601f19601f820116820180604052508101906141489190614ab9565b60015b6141ce573d806000811461417b576040519150601f19603f3d011682016040523d82523d6000602084013e614180565b606091505b506000815114156141c6576040517f08c379a00000000000000000000000000000000000000000000000000000000081526004016141bd90615ba3565b60405180910390fd5b805181602001fd5b63150b7a0260e01b7bffffffffffffffffffffffffffffffffffffffffffffffffffffffff1916817bffffffffffffffffffffffffffffffffffffffffffffffffffffffff191614915050614223565b600190505b949350505050565b60008060108360ff166012811061426b577f4e487b7100000000000000000000000000000000000000000000000000000000600052603260045260246000fd5b01805490508461427b9190616486565b905060108360ff16601281106142ba577f4e487b7100000000000000000000000000000000000000000000000000000000600052603260045260246000fd5b018160ff16815481106142f6577f4e487b7100000000000000000000000000000000000000000000000000000000600052603260045260246000fd5b90600052602060002090602091828204019190069054906101000a900460ff1660ff1660088561ffff16901c61ffff16101561433557809150506143d2565b60228360ff1660128110614372577f4e487b7100000000000000000000000000000000000000000000000000000000600052603260045260246000fd5b018160ff16815481106143ae577f4e487b7100000000000000000000000000000000000000000000000000000000600052603260045260246000fd5b90600052602060002090602091828204019190069054906101000a900460ff169150505b92915050565b600073ffffffffffffffffffffffffffffffffffffffff168273ffffffffffffffffffffffffffffffffffffffff161415614448576040517f08c379a000000000000000000000000000000000000000000000000000000000815260040161443f90615d83565b60405180910390fd5b61445181612383565b15614491576040517f08c379a000000000000000000000000000000000000000000000000000000000815260040161448890615c03565b60405180910390fd5b61449d6000838361355f565b6001600360008473ffffffffffffffffffffffffffffffffffffffff1673ffffffffffffffffffffffffffffffffffffffff16815260200190815260200160002060008282546144ed919061608f565b92505081905550816002600083815260200190815260200160002060006101000a81548173ffffffffffffffffffffffffffffffffffffffff021916908373ffffffffffffffffffffffffffffffffffffffff160217905550808273ffffffffffffffffffffffffffffffffffffffff16600073ffffffffffffffffffffffffffffffffffffffff167fddf252ad1be2c89b69c2b068fc378daa952ba7f163c4a11628f55a4df523b3ef60405160405180910390a45050565b600080823b905060008111915050919050565b604051806101200160405280600015158152602001600060ff168152602001600060ff168152602001600060ff168152602001600060ff168152602001600060ff168152602001600060ff168152602001600060ff168152602001600060ff1681525090565b600061463261462d84615fb7565b615f86565b9050808382526020820190508285602086028201111561465157600080fd5b60005b85811015614681578161466788826147b0565b845260208401935060208301925050600181019050614654565b5050509392505050565b600061469e61469984615fe3565b615f86565b9050828152602081018484840111156146b657600080fd5b6146c18482856162d2565b509392505050565b6000813590506146d8816165ab565b92915050565b6000815190506146ed816165ab565b92915050565b600082601f83011261470457600080fd5b813561471484826020860161461f565b91505092915050565b60008135905061472c816165c2565b92915050565b600081519050614741816165c2565b92915050565b600081519050614756816165d9565b92915050565b60008135905061476b816165f0565b92915050565b600081519050614780816165f0565b92915050565b600082601f83011261479757600080fd5b81356147a784826020860161468b565b91505092915050565b6000813590506147bf81616607565b92915050565b6000813590506147d48161661e565b92915050565b6000815190506147e98161661e565b92915050565b6000813590506147fe81616635565b92915050565b60006020828403121561481657600080fd5b6000614824848285016146c9565b91505092915050565b60006020828403121561483f57600080fd5b600061484d848285016146de565b91505092915050565b6000806040838503121561486957600080fd5b6000614877858286016146c9565b9250506020614888858286016146c9565b9150509250929050565b6000806000606084860312156148a757600080fd5b60006148b5868287016146c9565b93505060206148c6868287016146c9565b92505060406148d7868287016147c5565b9150509250925092565b600080600080608085870312156148f757600080fd5b6000614905878288016146c9565b9450506020614916878288016146c9565b9350506040614927878288016147c5565b925050606085013567ffffffffffffffff81111561494457600080fd5b61495087828801614786565b91505092959194509250565b6000806040838503121561496f57600080fd5b600061497d858286016146c9565b925050602061498e8582860161471d565b9150509250929050565b600080604083850312156149ab57600080fd5b60006149b9858286016146c9565b92505060206149ca858286016147c5565b9150509250929050565b6000602082840312156149e657600080fd5b600082013567ffffffffffffffff811115614a0057600080fd5b614a0c848285016146f3565b91505092915050565b600060208284031215614a2757600080fd5b6000614a358482850161471d565b91505092915050565b600060208284031215614a5057600080fd5b6000614a5e84828501614732565b91505092915050565b600060208284031215614a7957600080fd5b6000614a8784828501614747565b91505092915050565b600060208284031215614aa257600080fd5b6000614ab08482850161475c565b91505092915050565b600060208284031215614acb57600080fd5b6000614ad984828501614771565b91505092915050565b600060208284031215614af457600080fd5b6000614b02848285016147b0565b91505092915050565b600060208284031215614b1d57600080fd5b6000614b2b848285016147c5565b91505092915050565b600060208284031215614b4657600080fd5b6000614b54848285016147da565b91505092915050565b60008060408385031215614b7057600080fd5b6000614b7e858286016147c5565b9250506020614b8f858286016147c5565b9150509250929050565b600080600060608486031215614bae57600080fd5b6000614bbc868287016147ef565b9350506020614bcd8682870161471d565b9250506040614bde868287016147c5565b9150509250925092565b6000614bf483836157f0565b60208301905092915050565b614c0981616215565b82525050565b614c20614c1b82616215565b6163e7565b82525050565b6000614c3182616023565b614c3b8185616051565b9350614c4683616013565b8060005b83811015614c77578151614c5e8882614be8565b9750614c6983616044565b925050600181019050614c4a565b5085935050505092915050565b614c8d81616227565b82525050565b614c9c81616227565b82525050565b614cb3614cae82616227565b6163f9565b82525050565b614cca614cc582616233565b61640b565b82525050565b6000614cdb8261602e565b614ce58185616062565b9350614cf58185602086016162e1565b614cfe81616573565b840191505092915050565b6000614d1482616039565b614d1e8185616073565b9350614d2e8185602086016162e1565b614d3781616573565b840191505092915050565b6000614d4d82616039565b614d578185616084565b9350614d678185602086016162e1565b80840191505092915050565b6000614d80601383616073565b91507f696e76616c6964206d696e7420616d6f756e74000000000000000000000000006000830152602082019050919050565b6000614dc0604d83616073565b91507f6d696e74696e672068617320656e6465642064756520746f207468652064697260008301527f7420737570706c79207265616368696e6720746865206d6178696d756d20666f60208301527f722043686170746572204f6e65000000000000000000000000000000000000006040830152606082019050919050565b6000614e4c602b83616073565b91507f455243373231456e756d657261626c653a206f776e657220696e646578206f7560008301527f74206f6620626f756e64730000000000000000000000000000000000000000006020830152604082019050919050565b6000614eb2603283616073565b91507f4552433732313a207472616e7366657220746f206e6f6e20455243373231526560008301527f63656976657220696d706c656d656e74657200000000000000000000000000006020830152604082019050919050565b6000614f18602683616073565b91507f4f776e61626c653a206e6577206f776e657220697320746865207a65726f206160008301527f64647265737300000000000000000000000000000000000000000000000000006020830152604082019050919050565b6000614f7e601983616073565b91507f4f6e6c792061646d696e732063616e2063616c6c2074686973000000000000006000830152602082019050919050565b6000614fbe601c83616073565b91507f4552433732313a20746f6b656e20616c7265616479206d696e746564000000006000830152602082019050919050565b6000614ffe602483616073565b91507f4552433732313a207472616e7366657220746f20746865207a65726f2061646460008301527f72657373000000000000000000000000000000000000000000000000000000006020830152604082019050919050565b6000615064601983616073565b91507f4552433732313a20617070726f766520746f2063616c6c6572000000000000006000830152602082019050919050565b60006150a4601783616073565b91507f4f6f707320796f7520646f6e2774206f776e20746861740000000000000000006000830152602082019050919050565b60006150e4600883616073565b91507f656f73206f6e6c790000000000000000000000000000000000000000000000006000830152602082019050919050565b6000615124602c83616073565b91507f4552433732313a206f70657261746f7220717565727920666f72206e6f6e657860008301527f697374656e7420746f6b656e00000000000000000000000000000000000000006020830152604082019050919050565b600061518a601083616073565b91507f5061757361626c653a20706175736564000000000000000000000000000000006000830152602082019050919050565b60006151ca603883616073565b91507f4552433732313a20617070726f76652063616c6c6572206973206e6f74206f7760008301527f6e6572206e6f7220617070726f76656420666f7220616c6c00000000000000006020830152604082019050919050565b6000615230601983616073565b91507f436865636b2074686520746f6b656e20616c6c6f77616e6365000000000000006000830152602082019050919050565b6000615270602a83616073565b91507f4552433732313a2062616c616e636520717565727920666f7220746865207a6560008301527f726f2061646472657373000000000000000000000000000000000000000000006020830152604082019050919050565b60006152d6602983616073565b91507f4552433732313a206f776e657220717565727920666f72206e6f6e657869737460008301527f656e7420746f6b656e00000000000000000000000000000000000000000000006020830152604082019050919050565b600061533c602583616073565b91507f616d6f756e74206d696e74656420776f756c6420657863656564206d6178207360008301527f7570706c790000000000000000000000000000000000000000000000000000006020830152604082019050919050565b60006153a2602083616073565b91507f4552433732313a206d696e7420746f20746865207a65726f20616464726573736000830152602082019050919050565b60006153e2602c83616073565b91507f4552433732313a20617070726f76656420717565727920666f72206e6f6e657860008301527f697374656e7420746f6b656e00000000000000000000000000000000000000006020830152604082019050919050565b6000615448602083616073565b91507f4f776e61626c653a2063616c6c6572206973206e6f7420746865206f776e65726000830152602082019050919050565b6000615488602983616073565b91507f4552433732313a207472616e73666572206f6620746f6b656e2074686174206960008301527f73206e6f74206f776e00000000000000000000000000000000000000000000006020830152604082019050919050565b60006154ee602f83616073565b91507f4552433732314d657461646174613a2055524920717565727920666f72206e6f60008301527f6e6578697374656e7420746f6b656e00000000000000000000000000000000006020830152604082019050919050565b6000615554602183616073565b91507f4552433732313a20617070726f76616c20746f2063757272656e74206f776e6560008301527f72000000000000000000000000000000000000000000000000000000000000006020830152604082019050919050565b60006155ba603183616073565b91507f4552433732313a207472616e736665722063616c6c6572206973206e6f74206f60008301527f776e6572206e6f7220617070726f7665640000000000000000000000000000006020830152604082019050919050565b6000615620602c83616073565b91507f455243373231456e756d657261626c653a20676c6f62616c20696e646578206f60008301527f7574206f6620626f756e647300000000000000000000000000000000000000006020830152604082019050919050565b6000615686602083616073565b91507f756e61626c6520746f2067656e657261746520756e69717565207472616974736000830152602082019050919050565b60006156c6601f83616073565b91507f7472616e73666572206e6f74206f776e6572206e6f7220617070726f766564006000830152602082019050919050565b6000615706601583616073565b91507f6d696e74696e67206973206e6f742061637469766500000000000000000000006000830152602082019050919050565b610120820160008201516157506000850182614c84565b5060208201516157636020850182615869565b5060408201516157766040850182615869565b5060608201516157896060850182615869565b50608082015161579c6080850182615869565b5060a08201516157af60a0850182615869565b5060c08201516157c260c0850182615869565b5060e08201516157d560e0850182615869565b506101008201516157ea610100850182615869565b50505050565b6157f981616269565b82525050565b61580881616269565b82525050565b61581781616297565b82525050565b61582e61582982616297565b616427565b82525050565b61583d816162a1565b82525050565b61585461584f826162a1565b616431565b82525050565b615863816162b1565b82525050565b615872816162c5565b82525050565b615881816162c5565b82525050565b615898615893826162c5565b616443565b82525050565b60006158aa828c614ca2565b6001820191506158ba828b615887565b6001820191506158ca828a615887565b6001820191506158da8289615887565b6001820191506158ea8288615887565b6001820191506158fa8287615887565b60018201915061590a8286615887565b60018201915061591a8285615887565b60018201915061592a8284615887565b6001820191508190509a9950505050505050505050565b600061594d8285614d42565b91506159598284614d42565b91508190509392505050565b6000615971828861581d565b6020820191506159818287615843565b6004820191506159918286614c0f565b6014820191506159a18285614cb9565b6020820191506159b1828461581d565b6020820191508190509695505050505050565b60006020820190506159d96000830184614c00565b92915050565b60006040820190506159f46000830185614c00565b615a016020830184614c00565b9392505050565b6000606082019050615a1d6000830186614c00565b615a2a6020830185614c00565b615a37604083018461580e565b949350505050565b6000608082019050615a546000830187614c00565b615a616020830186614c00565b615a6e604083018561580e565b8181036060830152615a808184614cd0565b905095945050505050565b6000604082019050615aa06000830185614c00565b8181036020830152615ab28184614c26565b90509392505050565b6000604082019050615ad06000830185614c00565b615add602083018461580e565b9392505050565b60006020820190508181036000830152615afe8184614c26565b905092915050565b6000602082019050615b1b6000830184614c93565b92915050565b60006020820190508181036000830152615b3b8184614d09565b905092915050565b60006020820190508181036000830152615b5c81614d73565b9050919050565b60006020820190508181036000830152615b7c81614db3565b9050919050565b60006020820190508181036000830152615b9c81614e3f565b9050919050565b60006020820190508181036000830152615bbc81614ea5565b9050919050565b60006020820190508181036000830152615bdc81614f0b565b9050919050565b60006020820190508181036000830152615bfc81614f71565b9050919050565b60006020820190508181036000830152615c1c81614fb1565b9050919050565b60006020820190508181036000830152615c3c81614ff1565b9050919050565b60006020820190508181036000830152615c5c81615057565b9050919050565b60006020820190508181036000830152615c7c81615097565b9050919050565b60006020820190508181036000830152615c9c816150d7565b9050919050565b60006020820190508181036000830152615cbc81615117565b9050919050565b60006020820190508181036000830152615cdc8161517d565b9050919050565b60006020820190508181036000830152615cfc816151bd565b9050919050565b60006020820190508181036000830152615d1c81615223565b9050919050565b60006020820190508181036000830152615d3c81615263565b9050919050565b60006020820190508181036000830152615d5c816152c9565b9050919050565b60006020820190508181036000830152615d7c8161532f565b9050919050565b60006020820190508181036000830152615d9c81615395565b9050919050565b60006020820190508181036000830152615dbc816153d5565b9050919050565b60006020820190508181036000830152615ddc8161543b565b9050919050565b60006020820190508181036000830152615dfc8161547b565b9050919050565b60006020820190508181036000830152615e1c816154e1565b9050919050565b60006020820190508181036000830152615e3c81615547565b9050919050565b60006020820190508181036000830152615e5c816155ad565b9050919050565b60006020820190508181036000830152615e7c81615613565b9050919050565b60006020820190508181036000830152615e9c81615679565b9050919050565b60006020820190508181036000830152615ebc816156b9565b9050919050565b60006020820190508181036000830152615edc816156f9565b9050919050565b600061012082019050615ef96000830184615739565b92915050565b6000602082019050615f1460008301846157ff565b92915050565b6000602082019050615f2f600083018461580e565b92915050565b6000602082019050615f4a6000830184615834565b92915050565b6000602082019050615f65600083018461585a565b92915050565b6000602082019050615f806000830184615878565b92915050565b6000604051905081810181811067ffffffffffffffff82111715615fad57615fac616544565b5b8060405250919050565b600067ffffffffffffffff821115615fd257615fd1616544565b5b602082029050602081019050919050565b600067ffffffffffffffff821115615ffe57615ffd616544565b5b601f19601f8301169050602081019050919050565b6000819050602082019050919050565b600081519050919050565b600081519050919050565b600081519050919050565b6000602082019050919050565b600082825260208201905092915050565b600082825260208201905092915050565b600082825260208201905092915050565b600081905092915050565b600061609a82616297565b91506160a583616297565b9250827fffffffffffffffffffffffffffffffffffffffffffffffffffffffffffffffff038211156160da576160d96164b7565b5b828201905092915050565b60006160f0826162a1565b91506160fb836162a1565b92508263ffffffff03821115616114576161136164b7565b5b828201905092915050565b600061612a826162c5565b9150616135836162c5565b92508260ff0382111561614b5761614a6164b7565b5b828201905092915050565b600061616182616297565b915061616c83616297565b92508261617c5761617b6164e6565b5b828204905092915050565b600061619282616297565b915061619d83616297565b9250817fffffffffffffffffffffffffffffffffffffffffffffffffffffffffffffffff04831182151516156161d6576161d56164b7565b5b828202905092915050565b60006161ec82616297565b91506161f783616297565b92508282101561620a576162096164b7565b5b828203905092915050565b600061622082616277565b9050919050565b60008115159050919050565b6000819050919050565b60007fffffffff0000000000000000000000000000000000000000000000000000000082169050919050565b600061ffff82169050919050565b600073ffffffffffffffffffffffffffffffffffffffff82169050919050565b6000819050919050565b600063ffffffff82169050919050565b600067ffffffffffffffff82169050919050565b600060ff82169050919050565b82818337600083830152505050565b60005b838110156162ff5780820151818401526020810190506162e4565b8381111561630e576000848401525b50505050565b6000600282049050600182168061632c57607f821691505b602082108114156163405761633f616515565b5b50919050565b600061635182616269565b915061ffff821415616366576163656164b7565b5b600182019050919050565b600061637c82616297565b91507fffffffffffffffffffffffffffffffffffffffffffffffffffffffffffffffff8214156163af576163ae6164b7565b5b600182019050919050565b60006163c5826162a1565b915063ffffffff8214156163dc576163db6164b7565b5b600182019050919050565b60006163f282616415565b9050919050565b600061640482616443565b9050919050565b6000819050919050565b60006164208261659e565b9050919050565b6000819050919050565b600061643c82616584565b9050919050565b600061644e82616591565b9050919050565b600061646082616297565b915061646b83616297565b92508261647b5761647a6164e6565b5b828206905092915050565b6000616491826162c5565b915061649c836162c5565b9250826164ac576164ab6164e6565b5b828206905092915050565b7f4e487b7100000000000000000000000000000000000000000000000000000000600052601160045260246000fd5b7f4e487b7100000000000000000000000000000000000000000000000000000000600052601260045260246000fd5b7f4e487b7100000000000000000000000000000000000000000000000000000000600052602260045260246000fd5b7f4e487b7100000000000000000000000000000000000000000000000000000000600052604160045260246000fd5b6000601f19601f8301169050919050565b60008160e01b9050919050565b60008160f81b9050919050565b60008160601b9050919050565b6165b481616215565b81146165bf57600080fd5b50565b6165cb81616227565b81146165d657600080fd5b50565b6165e281616233565b81146165ed57600080fd5b50565b6165f98161623d565b811461660457600080fd5b50565b61661081616269565b811461661b57600080fd5b50565b61662781616297565b811461663257600080fd5b50565b61663e816162a1565b811461664957600080fd5b5056fea26469706673582212205eb4eb0120dfd3647f612c3e2b6fc27556ac19af8af0a8ce2380e90baa1dbd5264736f6c63430008000033",
  "immutableReferences": {
    "8295": [
      {
        "length": 32,
        "start": 3031
      },
      {
        "length": 32,
        "start": 5956
      },
      {
        "length": 32,
        "start": 11623
      },
      {
        "length": 32,
        "start": 12294
      },
      {
        "length": 32,
        "start": 14049
      }
    ],
    "8298": [
      {
        "length": 32,
        "start": 12145
      }
    ],
    "8301": [
      {
        "length": 32,
        "start": 6826
      },
      {
        "length": 32,
        "start": 7663
      }
    ],
    "8304": [
      {
        "length": 32,
        "start": 11715
      },
      {
        "length": 32,
        "start": 11954
      }
    ]
  },
  "source": "// SPDX-License-Identifier: MIT LICENSE\r\n\r\npragma solidity ^0.8.0;\r\n\r\nimport \"@openzeppelin/contracts/token/Erc721/extensions/ERC721Enumerable.sol\";\r\nimport \"@openzeppelin/contracts/access/Ownable.sol\";\r\nimport \"@openzeppelin/contracts/security/Pausable.sol\";\r\nimport \"@openzeppelin/contracts/token/ERC20/IERC20.sol\";\r\nimport \"./interfaces/IWormGameNFT.sol\";\r\nimport \"./interfaces/IWormGame.sol\";\r\nimport \"./interfaces/IDIRT.sol\";\r\nimport \"./interfaces/IRandomNumberConsumer.sol\";\r\n\r\ncontract WormGameNFT is IWormGameNFT, ERC721Enumerable, Ownable, Pausable {\r\n\r\n    event WormMinted(uint256 indexed tokenId);\r\n    event BirdMinted(uint256 indexed tokenId);\r\n    event WormStolen(uint256 indexed tokenId, address recipient, address minter);\r\n    event BirdStolen(uint256 indexed tokenId, address recipient, address minter);\r\n    event WormBurned(uint256 indexed tokenId);\r\n    event BirdBurned(uint256 indexed tokenId);\r\n\r\n    struct LastWrite {\r\n        uint64 time;\r\n        uint64 blockNum;\r\n    }\r\n\r\n    //external contracts\r\n    IWormGame private immutable wormGame;\r\n    IDIRT private immutable wormGameDirt;\r\n    IRandomNumberConsumer private immutable random;\r\n    IERC20 private immutable testERC20;\r\n\r\n    //max number of tokens that can ever be minted\r\n    uint256 public constant maxTokens = 55000;\r\n    //number of tokens that are available for sale for gen 0\r\n    uint256 public constant maxGen0 = 100;\r\n    //number of tokens that have already been minted\r\n    uint16 public numMinted;\r\n    //whether or not minting is active for public sale \r\n    bool mintingActive = false;\r\n    //whether or not minting is active for gen0 sale\r\n    bool gen0MintingActive = false;\r\n    //maximum number of mints one user can do for gen 0\r\n    uint16 maxMint = 10;\r\n\r\n    //gen 0 mint acount\r\n    mapping (address => uint32) public numGen0Minted;\r\n    // Store previous trait combinations to prevent duplicates\r\n    mapping(uint256 => bool) private knownCombinations;\r\n    //mapping from tokenID to a struct containing the token's traits\r\n    mapping(uint256 => WormBirdTraits) private tokenTraits;\r\n\r\n    // Tracks the last block and timestamp that a caller has written to state.\r\n    // Disallow some access to functions if they occur while a change is being written.\r\n    mapping(address => LastWrite) private lastWriteAddress;\r\n    mapping(uint256 => LastWrite) private lastWriteToken;\r\n\r\n    // list of probabilities for each trait type\r\n    // 0 - 9 are associated with Worm, 10 - 18 are associated with Birds\r\n    uint8[][18] public rarities;\r\n    // list of aliases for Walker's Alias algorithm\r\n    // 0 - 9 are associated with Worm, 10 - 18 are associated with Birds\r\n    uint8[][18] public aliases;\r\n\r\n    //mint price for gen 0\r\n    uint256 public constant MINT_PRICE = 0.05 ether;\r\n\r\n    //admins\r\n    mapping(address => bool) private admins;\r\n\r\n    constructor(address dirt, address game, address rand,address erc20) ERC721(\"Worm Game\", \"WnB\") {\r\n        wormGame = IWormGame(game);\r\n        wormGameDirt = IDIRT(dirt);\r\n        random = IRandomNumberConsumer(rand);\r\n        testERC20 = IERC20(erc20);\r\n        //Utilizing A.J. Walker's Alias Algorithm\r\n        //See wikipedia dumbasses\r\n        //worm body\r\n        rarities[0] = [255,255,255,39,13];\r\n        aliases[0] = [0,1,2,1,0];\r\n\r\n        //worm eyes\r\n        rarities[1] = [255,255,255,255,255,255,255,255,255,255,255,255];\r\n        aliases[1] = [0,1,2,3,4,5,6,7,8,9,10,11];\r\n\r\n        //worm mouth\r\n        rarities[2] = [64,64,128,128,128,128,191,191,255,255];\r\n        aliases[2] = [6,7,4,5,9,9,8,8,8,9];\r\n\r\n        //worm hat\r\n        rarities[3] = [255,255,255,255,255,255,255,255,255,255];\r\n        aliases[3] = [0,1,2,3,4,5,6,7,8,9,10];\r\n        //worm facial\r\n        rarities[4] = [255,255,255,255,255,255,255,255,255,255,255,255];\r\n        aliases[4] = [0,1,2,3,4,5,6,7,8,9,10,11];\r\n        //worm tail\r\n        rarities[5] = [255,255,255,255,255,255,255,255,255,255,255,255];\r\n        aliases[5] = [0,1,2,3,4,5,6,7,8,9,10,11];\r\n        //worm heldItem\r\n        rarities[6] = [255,255,255,255,255,255,255,255,255,255,255,255,255,255];\r\n        aliases[6] = [0,1,2,3,4,5,6,7,8,9,10,11,12,13];\r\n        //worm size?\r\n        rarities[7] = [255,255,255];\r\n        aliases[7] = [0,1,2];\r\n        //bird\r\n        //bird\r\n        rarities[8] = [255,255,255,39,13];\r\n        aliases[8] = [0,1,2,1,0];\r\n\r\n        //worm eyes\r\n        rarities[9] = [255,255,255,255,255,255,255,255,255,255,255,255];\r\n        aliases[9] = [0,1,2,3,4,5,6,7,8,9,10,11];\r\n\r\n        //worm mouth\r\n        rarities[10] = [64,64,128,128,128,128,191,191,255,255];\r\n        aliases[10] = [6,7,4,5,9,9,8,8,8,9];\r\n\r\n        //worm hat\r\n        rarities[11] = [255,255,255,255,255,255,255,255,255,255];\r\n        aliases[11] = [0,1,2,3,4,5,6,7,8,9,10];\r\n        //worm facial\r\n        rarities[12] = [255,255,255,255,255,255,255,255,255,255,255,255];\r\n        aliases[12] = [0,1,2,3,4,5,6,7,8,9,10,11];\r\n        //worm tail\r\n        rarities[13] = [255,255,255,255,255,255,255,255,255,255,255,255];\r\n        aliases[13] = [0,1,2,3,4,5,6,7,8,9,10,11];\r\n        //worm heldItem\r\n        rarities[14] = [255,255,255,255,255,255,255,255,255,255,255,255,255,255];\r\n        aliases[14] = [0,1,2,3,4,5,6,7,8,9,10,11,12,13];\r\n        //worm size?\r\n        rarities[15] = [255,255,255,255];\r\n        aliases[15] = [0,1,2,3];\r\n\r\n        gen0MintingActive = true;\r\n        mintingActive = true;\r\n    }\r\n\r\n    function mint(uint32 amount, bool stake, uint256 seed) external whenNotPaused {\r\n        require(tx.origin == msg.sender, \"eos only\");\r\n        require(amount > 0 && amount <= maxMint, \"invalid mint amount\");\r\n        require(mintingActive, \"minting is not active\");\r\n        require(numMinted + amount <= maxTokens, \"amount minted would exceed max supply\");\r\n        require(wormGame.getTotalDirtEarned() < 3000000000, \"minting has ended due to the dirt supply reaching the maximum for Chapter One\");\r\n\r\n\r\n        //require(numMinted+amount <= maxGen0, \"Amount minted would exceed max supply for gen0\");\r\n        //require(amount*MINT_PRICE == msg.value, \"Invalid payment amount\");\r\n\r\n\r\n        _mint(amount, stake,seed);\r\n    }\r\n/*\r\n    function gen0Mint(uint32 amount, bool stake) external payable {\r\n        require(tx.origin == msg.sender, \"eos only\");\r\n        require(amount > 0 && amount <= maxMint, \"invalid mint amount\");\r\n        require(gen0MintingActive, \"gen0 minting is not active\");\r\n        require(numMinted + amount <= maxTokens, \"amount minted would exceed max supply\");\r\n    \r\n        if(numMinted < maxGen0) {\r\n            require(numMinted+amount <= maxGen0, \"Amount minted would exceed max supply for gen0\");\r\n            require(amount*MINT_PRICE == msg.value, \"Invalid payment amount\");\r\n        }\r\n        else {\r\n            require(msg.value == 0, \"Only $DIRT required\");\r\n        }\r\n\r\n    }\r\n*/\r\n    function _mint(uint32 amount, bool stake, uint256 originSeed) internal {\r\n        bool isNFTWorm;\r\n        uint16[] memory tokenIdsToStake = stake ? new uint16[](amount) : new uint16[](0);\r\n        uint256 dirtCost;\r\n        uint256 wETHCost;\r\n        uint256 seed = originSeed;\r\n        //uint256 seed;\r\n        //seed = random.randomizeSeed();\r\n        //seed = uint256(random.getCurrentSeed());\r\n        if(numMinted + amount <= maxGen0 && gen0MintingActive == true)\r\n        {\r\n            wETHCost = amount * MINT_PRICE;\r\n        }\r\n        for(uint32 i = 0; i < amount; i++) {\r\n            numMinted++; \r\n            dirtCost += getMintDirtCost(numMinted); \r\n            \r\n            seed = _reseedWithIndex(seed, i);\r\n           \r\n            address recipient = _selectRecipient(seed); \r\n            //generate the traits for the worm/bird!\r\n            isNFTWorm = _generateAndStoreTraits(numMinted, seed, 0).isWorm;\r\n            //require(false, \"made it through generate and store traits\");\r\n            if(recipient != msg.sender){\r\n                if(isNFTWorm){\r\n                    emit WormStolen(numMinted, recipient, msg.sender);\r\n                }\r\n                else {\r\n                    emit BirdStolen(numMinted, recipient, msg.sender);\r\n                }\r\n            }\r\n            //decide if mint will be stolen (set who receives it)\r\n            if(!stake || recipient != msg.sender)\r\n            {\r\n                _safeMint(recipient, numMinted);\r\n            }\r\n            else {\r\n                tokenIdsToStake[i] = numMinted;\r\n                _safeMint(address(wormGame), numMinted);\r\n                \r\n            }\r\n            //else(if staking)\r\n            //mint to gameaddress \r\n            \r\n        }\r\n        if(wETHCost > 0)\r\n        {\r\n            //Must call approve from middle layer before this can work\r\n            uint256 allowance = testERC20.allowance(msg.sender, address(this));\r\n            require(allowance == wETHCost, \"Check the token allowance\");\r\n            testERC20.transferFrom(msg.sender, address(this), wETHCost);\r\n        }\r\n        else if (dirtCost > 0) {\r\n            wormGameDirt.burn(msg.sender, dirtCost);\r\n        }\r\n        if (stake) {\r\n            wormGame.stakeTokens(msg.sender, tokenIdsToStake);\r\n        }\r\n        //require(false,\"MADE IT HERE\");\r\n        //emit event for type of mint (worm or )\r\n\r\n    }\r\n\r\n  /** \r\n    * Burn a token - any game logic should be handled before this function.\r\n    */\r\n    function burn(uint256 tokenId) external override whenNotPaused {\r\n        require(admins[_msgSender()], \"Only admins can call this\");\r\n        require(ownerOf(tokenId) == tx.origin, \"Oops you don't own that\");\r\n        if(tokenTraits[tokenId].isWorm) {\r\n            emit WormBurned(tokenId);\r\n        }\r\n        else {\r\n            emit BirdBurned(tokenId);\r\n        }\r\n        _burn(tokenId);\r\n    }\r\n\r\n  /**\r\n    * Calculate the dirt minting cost:\r\n    * - the first 20% are paid in ETH\r\n    * - the next 20% are 20000 $DIRT\r\n    * - the next 40% are 40000 $DIRT\r\n    * - the final 20% are 80000 $DIRT\r\n    * @param tokenId the ID to check the cost of to mint\r\n    * @return the cost of the given token ID\r\n    */\r\n    function getMintDirtCost(uint16 tokenId) public view override returns (uint256) {\r\n        if (tokenId <= maxGen0 && gen0MintingActive == true) return 0;\r\n        if (tokenId <= maxTokens * 2 / 5) return 25000 ether; //55,000 * 2 / 5 = 22,000\r\n        if (tokenId <= maxTokens * 4 / 5) return 45000 ether; //55,000 * 4 / 5 = 44,000\r\n        return 75000 ether; // 44,001 - 55,000\r\n    }\r\n\r\n  /**\r\n    * Ennumerate tokens by owner.\r\n    */\r\n    function tokensOf(address owner) external view returns (uint16[] memory) {\r\n        uint32 tokenCount = uint32(balanceOf(owner));\r\n        uint16[] memory tokensId = new uint16[](tokenCount);\r\n        for (uint32 i = 0; i < tokenCount; i++){\r\n            tokensId[i] = uint16(tokenOfOwnerByIndex(owner, i));\r\n        }\r\n        return tokensId;\r\n    }\r\n\r\n    function getMaxTokens() external pure returns (uint256) {\r\n        return maxTokens;\r\n    }\r\n\r\n    function getGen0Supply() external pure override returns (uint256) {\r\n        return maxGen0;\r\n    }\r\n\r\n  /**\r\n    * Expose traits to trait contract.\r\n    */\r\n    \r\n    function getTraits(uint16 tokenId) external view override returns (WormBirdTraits memory) {\r\n        return tokenTraits[tokenId];\r\n    }\r\n\r\n    /** ADMIN */\r\n\r\n  /**\r\n    * updates the number of tokens for sale\r\n    */\r\n    /*\r\n    function setGen0Supply(uint256 _numGen0) external onlyOwner {\r\n        maxGen0 = uint16(_numGen0);\r\n    }\r\n    */\r\n\r\n  /**\r\n    * sets the status of minting for public sale\r\n    */\r\n    function setMintingStatus(bool _mintingActive) external onlyOwner {\r\n        mintingActive = _mintingActive;\r\n    }\r\n\r\n    function getMintingStatus() external view override returns(bool) {\r\n        return mintingActive;\r\n    }\r\n\r\n    function getGen0MintingStatus() external view override returns (bool) {\r\n        return gen0MintingActive;\r\n    }\r\n\r\n\r\n    function getNumMinted() external view override returns (uint16) {\r\n        return numMinted;\r\n    }\r\n\r\n /**\r\n  * sets the initial random seed\r\n  */\r\n\r\n    function setInitialRandomSeed() external onlyOwner {\r\n        random.getRandomNumber();\r\n    }\r\n\r\n    //JUST FOR TESTING PURPOSES, DELETE BEFORE LAUNCH\r\n    function getRandomSeed() external onlyOwner returns (uint256){\r\n        return random.getCurrentSeed();\r\n    }\r\n\r\n  /**\r\n    * Set the max mints per account during persale and per tx during public sale\r\n    */\r\n    function setMaxMintAmount(uint16 _maxMint) external onlyOwner {\r\n        maxMint = _maxMint;\r\n    }\r\n\r\n    function getTokenWriteBlock(uint256 tokenId) external view override returns(uint64) {\r\n        require(admins[_msgSender()], \"Only admins can call this\");\r\n        return lastWriteToken[tokenId].blockNum;\r\n    }\r\n\r\n    function updateOriginAccess(uint16[] memory tokenIds) external override {\r\n        require(admins[_msgSender()], \"Only admins can call this\");\r\n        uint64 blockNum = uint64(block.number);\r\n        uint64 time = uint64(block.timestamp);\r\n        lastWriteAddress[tx.origin] = LastWrite(time, blockNum);\r\n        for (uint256 i = 0; i < tokenIds.length; i++) {\r\n            lastWriteToken[tokenIds[i]] = LastWrite(time, blockNum);\r\n        }\r\n    }\r\n\r\n /**\r\n   * Generate and store player traits. Recursively called to ensure uniqueness.\r\n   * Give users 3 attempts, bit shifting the seed each time (uses 5 bytes of entropy before failing)\r\n   * @param tokenId id of the token to generate traits\r\n   * @param seed random 256 bit seed to derive traits\r\n   * @return t player trait struct\r\n   */\r\n    function _generateAndStoreTraits(uint16 tokenId, uint256 seed, uint8 attempt) internal returns (WormBirdTraits memory t) {\r\n        require(attempt < 6, \"unable to generate unique traits\");\r\n        //if(attempt == 3) { require(false, \"1\"); }\r\n        t = _selectTraits(seed);\r\n        //require(false, \"Made it through select traits in generate and store traits\");\r\n        \r\n        if (!knownCombinations[_structToHash(t)]) {\r\n            tokenTraits[tokenId] = t;\r\n            knownCombinations[_structToHash(t)] = true;\r\n            return t;\r\n        }\r\n        return _generateAndStoreTraits(tokenId, seed >> attempt, attempt + 1);\r\n    }\r\n\r\n\r\n  /**\r\n   * the first 15000 (20%) mints go directly to the minter (Gen 0)\r\n   * the remaining 60000 (80%) have a 10% chance to be given to a random staked bird\r\n   * @param seed a random value to select a recipient from\r\n   * @return the address of the recipient (either the minter or the bird thief's owner)\r\n   */\r\n    function _selectRecipient(uint256 seed) internal view returns (address) {\r\n        if (((seed >> 245) % 2) != 0) { //numMinted <= maxGen0 || \r\n            return msg.sender; // top 10 bits haven't been used\r\n        } \r\n        // 144 bits reserved for trait selection\r\n        address thief = wormGame.randomBirdOwner(seed >> 144);\r\n        if (thief == address(0x0)) {\r\n           return msg.sender;\r\n        }\r\n        //should return either whoever minted or the thief's address\r\n        return thief;\r\n    }\r\n\r\n  /**\r\n    * uses A.J. Walker's Alias algorithm for O(1) rarity table lookup\r\n    * ensuring O(1) instead of O(n) reduces mint cost by more than 50%\r\n    * probability & alias tables are generated off-chain beforehand\r\n    * @param seed portion of the 256 bit seed to remove trait correlation\r\n    * @param traitType the trait type to select a trait for \r\n    * @return the ID of the randomly selected trait\r\n    */\r\n    function _selectTrait(uint16 seed, uint8 traitType) internal view returns (uint8) {\r\n        uint8 trait = uint8(seed) % uint8(rarities[traitType].length);\r\n        if (seed >> 8 < rarities[traitType][trait]) return trait;\r\n        return aliases[traitType][trait];\r\n    }\r\n\r\n  /**\r\n   * selects the species and all of its traits based on the seed value\r\n   * @param seed a pseudorandom 256 bit number to derive traits from\r\n   * @return t struct of randomly selected traits\r\n   */\r\n    function _selectTraits(uint256 seed) internal view returns (WormBirdTraits memory t) {\r\n        t.isWorm = (seed & 0xFFFF) % 3 != 0;\r\n        // Use 128 bytes of seed entropy to define traits\r\n        // THIS IS USING WIZARDS AND DRAGONS TRAITS -- WE NEED TO DEFINE OUR OWN TRAITS\r\n        // set offset to = \r\n        uint8 offset = t.isWorm ? 0 : 8;                                                    // Worm   Bird     \r\n        seed >>= 16; t.body = _selectTrait(uint16(seed & 0xFFFF), 0 + offset);              // body\r\n        seed >>= 16; t.eyes = _selectTrait(uint16(seed & 0xFFFF), 1 + offset);              // eyes    \r\n        seed >>= 16; t.mouth = _selectTrait(uint16(seed & 0xFFFF), 2 + offset);             // mouth  \r\n        seed >>= 16; t.hat = _selectTrait(uint16(seed & 0xFFFF), 3 + offset);               // hat  \r\n        seed >>= 16; t.facialAccessory = _selectTrait(uint16(seed & 0xFFFF), 4 + offset);   // facial accessory   \r\n        seed >>= 16; t.tail = _selectTrait(uint16(seed & 0xFFFF), 5 + offset);              // tail\r\n        seed >>= 16; t.heldItem = _selectTrait(uint16(seed & 0xFFFF), 6 + offset);          // held item\r\n        seed >>= 16; t.size = _selectTrait(uint16(seed & 0xFFFF), 7 + offset);         // rank index\r\n        //require(false, \"successfully selected all traits in _selectTraits\");\r\n        return t;\r\n    }\r\n\r\n  /**\r\n   * converts a struct to a 256 bit hash to check for uniqueness\r\n   * @param t the struct to pack into a hash\r\n   * @return the 256 bit hash of the struct\r\n   */\r\n    function _structToHash(WormBirdTraits memory t) internal pure returns (uint256) {\r\n        return uint256(keccak256(\r\n            abi.encodePacked(\r\n                t.isWorm,\r\n                t.body,\r\n                t.eyes,\r\n                t.mouth,\r\n                t.hat,\r\n                t.facialAccessory,\r\n                t.tail,\r\n                t.heldItem,\r\n                t.size\r\n            )\r\n        ));\r\n    }\r\n\r\n    /** READ */\r\n\r\n    /**\r\n    * checks if a token is a Wizards\r\n    * @param tokenId the ID of the token to check\r\n    * @return wizard - whether or not a token is a Wizards\r\n    */\r\n    function isWorm(uint256 tokenId) external view override returns (bool) {\r\n        IWormGameNFT.WormBirdTraits memory w = tokenTraits[tokenId];\r\n        return w.isWorm;\r\n    }\r\n\r\n  /**\r\n   * Reseeds entropy with mint amount offset.\r\n   * @param seed random seed\r\n   * @param offset additional entropy during mint\r\n   * @return rotated seed\r\n   */\r\n    function _reseedWithIndex(uint256 seed, uint32 offset) internal view returns (uint256) {\r\n        return uint256(keccak256(abi.encodePacked(\r\n            seed,\r\n            offset,\r\n            tx.origin,\r\n            blockhash(block.number - 1),\r\n            block.timestamp\r\n        )));\r\n    }\r\n\r\n  /**\r\n    * overrides ERC721 ownerOf\r\n    * @param tokenId the ID of the token to check\r\n    */ \r\n\r\n    function ownerOf(uint256 tokenId) public view override(ERC721, IWormGameNFT) returns (address) {\r\n        return super.ownerOf(tokenId);\r\n    }\r\n\r\n    function transferFrom(address from, address to, uint256 tokenId) public override(ERC721, IWormGameNFT) {\r\n        if(msg.sender != address(wormGame)) {\r\n            require(_isApprovedOrOwner(msg.sender, tokenId), \"transfer not owner nor approved\");\r\n        }\r\n        _transfer(from, to, tokenId);\r\n    }\r\n\r\n    function safeTransferFrom(address from, address to, uint256 tokenId, bytes memory _data) public override(ERC721, IWormGameNFT) {\r\n        super.safeTransferFrom(from, to, tokenId, _data);\r\n    }\r\n\r\n}",
  "sourcePath": "C:\\Users\\Teddy Ingrassia\\Development\\worm-game\\src\\backend\\contracts\\WormGameNFT.sol",
  "compiler": {
    "name": "solc",
    "version": "0.8.0+commit.c7dfd78e.Emscripten.clang"
  },
  "schemaVersion": "3.4.4",
  "updatedAt": "2022-02-01T21:04:25.055Z",
  "devdoc": {
    "kind": "dev",
    "methods": {
      "approve(address,uint256)": {
        "details": "See {IERC721-approve}."
      },
      "balanceOf(address)": {
        "details": "See {IERC721-balanceOf}."
      },
      "getApproved(uint256)": {
        "details": "See {IERC721-getApproved}."
      },
      "getMintDirtCost(uint16)": {
        "params": {
          "tokenId": "the ID to check the cost of to mint"
        },
        "returns": {
          "_0": "the cost of the given token ID"
        }
      },
      "isApprovedForAll(address,address)": {
        "details": "See {IERC721-isApprovedForAll}."
      },
      "isWorm(uint256)": {
        "params": {
          "tokenId": "the ID of the token to check"
        },
        "returns": {
          "_0": "wizard - whether or not a token is a Wizards"
        }
      },
      "name()": {
        "details": "See {IERC721Metadata-name}."
      },
      "owner()": {
        "details": "Returns the address of the current owner."
      },
      "ownerOf(uint256)": {
        "params": {
          "tokenId": "the ID of the token to check"
        }
      },
      "paused()": {
        "details": "Returns true if the contract is paused, and false otherwise."
      },
      "renounceOwnership()": {
        "details": "Leaves the contract without owner. It will not be possible to call `onlyOwner` functions anymore. Can only be called by the current owner. NOTE: Renouncing ownership will leave the contract without an owner, thereby removing any functionality that is only available to the owner."
      },
      "safeTransferFrom(address,address,uint256)": {
        "details": "See {IERC721-safeTransferFrom}."
      },
      "setApprovalForAll(address,bool)": {
        "details": "See {IERC721-setApprovalForAll}."
      },
      "supportsInterface(bytes4)": {
        "details": "See {IERC165-supportsInterface}."
      },
      "symbol()": {
        "details": "See {IERC721Metadata-symbol}."
      },
      "tokenByIndex(uint256)": {
        "details": "See {IERC721Enumerable-tokenByIndex}."
      },
      "tokenOfOwnerByIndex(address,uint256)": {
        "details": "See {IERC721Enumerable-tokenOfOwnerByIndex}."
      },
      "tokenURI(uint256)": {
        "details": "See {IERC721Metadata-tokenURI}."
      },
      "totalSupply()": {
        "details": "See {IERC721Enumerable-totalSupply}."
      },
      "transferOwnership(address)": {
        "details": "Transfers ownership of the contract to a new account (`newOwner`). Can only be called by the current owner."
      }
    },
    "version": 1
  },
  "userdoc": {
    "kind": "user",
    "methods": {
      "burn(uint256)": {
        "notice": "Burn a token - any game logic should be handled before this function."
      },
      "getMintDirtCost(uint16)": {
        "notice": "Calculate the dirt minting cost: - the first 20% are paid in ETH - the next 20% are 20000 $DIRT - the next 40% are 40000 $DIRT - the final 20% are 80000 $DIRT"
      },
      "getTraits(uint16)": {
        "notice": "Expose traits to trait contract."
      },
      "isWorm(uint256)": {
        "notice": "checks if a token is a Wizards"
      },
      "ownerOf(uint256)": {
        "notice": "overrides ERC721 ownerOf"
      },
      "setInitialRandomSeed()": {
        "notice": "sets the initial random seed"
      },
      "setMaxMintAmount(uint16)": {
        "notice": "Set the max mints per account during persale and per tx during public sale"
      },
      "setMintingStatus(bool)": {
        "notice": "sets the status of minting for public sale"
      },
      "tokensOf(address)": {
        "notice": "Ennumerate tokens by owner."
      }
    },
    "version": 1
  }
}